{
  "address": "0x0daad12781C637b99196fD7E7D35e2C3954a828B",
  "abi": [
    {
      "anonymous": false,
      "inputs": [
        {
          "indexed": true,
          "internalType": "address",
          "name": "owner",
          "type": "address"
        },
        {
          "indexed": true,
          "internalType": "address",
          "name": "approved",
          "type": "address"
        },
        {
          "indexed": true,
          "internalType": "uint256",
          "name": "tokenId",
          "type": "uint256"
        }
      ],
      "name": "Approval",
      "type": "event"
    },
    {
      "anonymous": false,
      "inputs": [
        {
          "indexed": true,
          "internalType": "address",
          "name": "owner",
          "type": "address"
        },
        {
          "indexed": true,
          "internalType": "address",
          "name": "operator",
          "type": "address"
        },
        {
          "indexed": false,
          "internalType": "bool",
          "name": "approved",
          "type": "bool"
        }
      ],
      "name": "ApprovalForAll",
      "type": "event"
    },
    {
      "anonymous": false,
      "inputs": [
        {
          "indexed": true,
          "internalType": "address",
          "name": "from",
          "type": "address"
        },
        {
          "indexed": true,
          "internalType": "address",
          "name": "to",
          "type": "address"
        },
        {
          "indexed": true,
          "internalType": "uint256",
          "name": "tokenId",
          "type": "uint256"
        }
      ],
      "name": "Transfer",
      "type": "event"
    },
    {
      "inputs": [
        {
          "internalType": "address",
          "name": "_to",
          "type": "address"
        },
        {
          "internalType": "uint256",
          "name": "_tokenId",
          "type": "uint256"
        }
      ],
      "name": "approve",
      "outputs": [],
      "stateMutability": "nonpayable",
      "type": "function"
    },
    {
      "inputs": [
        {
          "internalType": "address",
          "name": "_owner",
          "type": "address"
        }
      ],
      "name": "balanceOf",
      "outputs": [
        {
          "internalType": "uint256",
          "name": "balance",
          "type": "uint256"
        }
      ],
      "stateMutability": "view",
      "type": "function"
    },
    {
      "inputs": [
        {
          "internalType": "uint256",
          "name": "tokenId",
          "type": "uint256"
        }
      ],
      "name": "burn",
      "outputs": [],
      "stateMutability": "nonpayable",
      "type": "function"
    },
    {
      "inputs": [
        {
          "internalType": "address",
          "name": "_to",
          "type": "address"
        },
        {
          "internalType": "uint8",
          "name": "_gemType",
          "type": "uint8"
        },
        {
          "internalType": "enum Booster",
          "name": "_booster",
          "type": "uint8"
        }
      ],
      "name": "createBooster",
      "outputs": [],
      "stateMutability": "nonpayable",
      "type": "function"
    },
    {
      "inputs": [
        {
          "internalType": "uint256",
          "name": "_tokenId",
          "type": "uint256"
        }
      ],
      "name": "getApproved",
      "outputs": [
        {
          "internalType": "address",
          "name": "operator",
          "type": "address"
        }
      ],
      "stateMutability": "view",
      "type": "function"
    },
    {
      "inputs": [
        {
          "internalType": "address",
          "name": "_to",
          "type": "address"
        },
        {
          "internalType": "uint8",
          "name": "_gemType",
          "type": "uint8"
        },
        {
          "internalType": "enum Booster",
          "name": "_booster",
          "type": "uint8"
        }
      ],
      "name": "getBooster",
      "outputs": [
        {
          "internalType": "uint256",
          "name": "",
          "type": "uint256"
        }
      ],
      "stateMutability": "view",
      "type": "function"
    },
    {
      "inputs": [],
      "name": "getGemIds",
      "outputs": [
        {
          "internalType": "uint256[]",
          "name": "",
          "type": "uint256[]"
        }
      ],
      "stateMutability": "view",
      "type": "function"
    },
    {
      "inputs": [
        {
          "internalType": "address",
          "name": "_user",
          "type": "address"
        }
      ],
      "name": "getGemIdsOf",
      "outputs": [
        {
          "internalType": "uint256[]",
          "name": "",
          "type": "uint256[]"
        }
      ],
      "stateMutability": "view",
      "type": "function"
    },
    {
      "inputs": [
        {
          "internalType": "uint256",
          "name": "_tokenId",
          "type": "uint256"
        }
      ],
      "name": "getGemInfo",
      "outputs": [
        {
          "components": [
            {
              "internalType": "uint8",
              "name": "gemTypeId",
              "type": "uint8"
            },
            {
              "internalType": "enum Booster",
              "name": "booster",
              "type": "uint8"
            },
            {
              "internalType": "uint32",
              "name": "mintTime",
              "type": "uint32"
            },
            {
              "internalType": "uint32",
              "name": "lastRewardWithdrawalTime",
              "type": "uint32"
            },
            {
              "internalType": "uint32",
              "name": "lastMaintenanceTime",
              "type": "uint32"
            },
            {
              "components": [
                {
                  "internalType": "uint256",
                  "name": "claimedGross",
                  "type": "uint256"
                },
                {
                  "internalType": "uint256",
                  "name": "claimedNet",
                  "type": "uint256"
                },
                {
                  "internalType": "uint256",
                  "name": "stakedGross",
                  "type": "uint256"
                },
                {
                  "internalType": "uint256",
                  "name": "stakedNet",
                  "type": "uint256"
                },
                {
                  "internalType": "uint256",
                  "name": "unStakedGross",
                  "type": "uint256"
                },
                {
                  "internalType": "uint256",
                  "name": "unStakedGrossUp",
                  "type": "uint256"
                },
                {
                  "internalType": "uint256",
                  "name": "unStakedNet",
                  "type": "uint256"
                },
                {
                  "internalType": "uint256",
                  "name": "donated",
                  "type": "uint256"
                },
                {
                  "internalType": "uint256",
                  "name": "claimTaxPaid",
                  "type": "uint256"
                },
                {
                  "internalType": "uint256",
                  "name": "vaultTaxPaid",
                  "type": "uint256"
                }
              ],
              "internalType": "struct Fi",
              "name": "fi",
              "type": "tuple"
            },
            {
              "internalType": "bool",
              "name": "presold",
              "type": "bool"
            }
          ],
          "internalType": "struct Gem",
          "name": "",
          "type": "tuple"
        }
      ],
      "stateMutability": "view",
      "type": "function"
    },
    {
      "inputs": [],
      "name": "getGemsInfo",
      "outputs": [
        {
          "internalType": "uint256[]",
          "name": "",
          "type": "uint256[]"
        },
        {
          "components": [
            {
              "internalType": "uint8",
              "name": "gemTypeId",
              "type": "uint8"
            },
            {
              "internalType": "enum Booster",
              "name": "booster",
              "type": "uint8"
            },
            {
              "internalType": "uint32",
              "name": "mintTime",
              "type": "uint32"
            },
            {
              "internalType": "uint32",
              "name": "lastRewardWithdrawalTime",
              "type": "uint32"
            },
            {
              "internalType": "uint32",
              "name": "lastMaintenanceTime",
              "type": "uint32"
            },
            {
              "components": [
                {
                  "internalType": "uint256",
                  "name": "claimedGross",
                  "type": "uint256"
                },
                {
                  "internalType": "uint256",
                  "name": "claimedNet",
                  "type": "uint256"
                },
                {
                  "internalType": "uint256",
                  "name": "stakedGross",
                  "type": "uint256"
                },
                {
                  "internalType": "uint256",
                  "name": "stakedNet",
                  "type": "uint256"
                },
                {
                  "internalType": "uint256",
                  "name": "unStakedGross",
                  "type": "uint256"
                },
                {
                  "internalType": "uint256",
                  "name": "unStakedGrossUp",
                  "type": "uint256"
                },
                {
                  "internalType": "uint256",
                  "name": "unStakedNet",
                  "type": "uint256"
                },
                {
                  "internalType": "uint256",
                  "name": "donated",
                  "type": "uint256"
                },
                {
                  "internalType": "uint256",
                  "name": "claimTaxPaid",
                  "type": "uint256"
                },
                {
                  "internalType": "uint256",
                  "name": "vaultTaxPaid",
                  "type": "uint256"
                }
              ],
              "internalType": "struct Fi",
              "name": "fi",
              "type": "tuple"
            },
            {
              "internalType": "bool",
              "name": "presold",
              "type": "bool"
            }
          ],
          "internalType": "struct Gem[]",
          "name": "",
          "type": "tuple[]"
        }
      ],
      "stateMutability": "view",
      "type": "function"
    },
    {
      "inputs": [
        {
          "internalType": "uint8",
          "name": "_gemTypeId",
          "type": "uint8"
        }
      ],
      "name": "getMintWindow",
      "outputs": [
        {
          "components": [
            {
              "internalType": "uint256",
              "name": "mintCount",
              "type": "uint256"
            },
            {
              "internalType": "uint32",
              "name": "endOfMintLimitWindow",
              "type": "uint32"
            }
          ],
          "internalType": "struct GemTypeMintWindow",
          "name": "",
          "type": "tuple"
        }
      ],
      "stateMutability": "view",
      "type": "function"
    },
    {
      "inputs": [
        {
          "internalType": "string",
          "name": "_name",
          "type": "string"
        },
        {
          "internalType": "string",
          "name": "_symbol",
          "type": "string"
        }
      ],
      "name": "initializeERC721Facet",
      "outputs": [],
      "stateMutability": "nonpayable",
      "type": "function"
    },
    {
      "inputs": [],
      "name": "initialized",
      "outputs": [
        {
          "internalType": "bool",
          "name": "",
          "type": "bool"
        }
      ],
      "stateMutability": "view",
      "type": "function"
    },
    {
      "inputs": [
        {
          "internalType": "address",
          "name": "owner",
          "type": "address"
        },
        {
          "internalType": "address",
          "name": "operator",
          "type": "address"
        }
      ],
      "name": "isApprovedForAll",
      "outputs": [
        {
          "internalType": "bool",
          "name": "",
          "type": "bool"
        }
      ],
      "stateMutability": "view",
      "type": "function"
    },
    {
      "inputs": [
        {
          "internalType": "uint8",
          "name": "_gemType",
          "type": "uint8"
        }
      ],
      "name": "isMintAvailable",
      "outputs": [
        {
          "internalType": "bool",
          "name": "",
          "type": "bool"
        }
      ],
      "stateMutability": "view",
      "type": "function"
    },
    {
      "inputs": [
        {
          "internalType": "uint8",
          "name": "_gemTypeId",
          "type": "uint8"
        }
      ],
      "name": "mint",
      "outputs": [],
      "stateMutability": "nonpayable",
      "type": "function"
    },
    {
      "inputs": [
        {
          "internalType": "uint8",
          "name": "_gemType",
          "type": "uint8"
        },
        {
          "internalType": "address",
          "name": "_to",
          "type": "address"
        },
        {
          "internalType": "enum Booster",
          "name": "_booster",
          "type": "uint8"
        }
      ],
      "name": "mintTo",
      "outputs": [],
      "stateMutability": "nonpayable",
      "type": "function"
    },
    {
      "inputs": [],
      "name": "name",
      "outputs": [
        {
          "internalType": "string",
          "name": "",
          "type": "string"
        }
      ],
      "stateMutability": "view",
      "type": "function"
    },
    {
      "inputs": [
        {
          "internalType": "uint256",
          "name": "_tokenId",
          "type": "uint256"
        }
      ],
      "name": "ownerOf",
      "outputs": [
        {
          "internalType": "address",
          "name": "",
          "type": "address"
        }
      ],
      "stateMutability": "view",
      "type": "function"
    },
    {
      "inputs": [
        {
          "internalType": "address",
          "name": "_to",
          "type": "address"
        },
        {
          "internalType": "uint8",
          "name": "_gemType",
          "type": "uint8"
        },
        {
          "internalType": "enum Booster",
          "name": "_booster",
          "type": "uint8"
        }
      ],
      "name": "removeBooster",
      "outputs": [],
      "stateMutability": "nonpayable",
      "type": "function"
    },
    {
      "inputs": [
        {
          "internalType": "address",
          "name": "_from",
          "type": "address"
        },
        {
          "internalType": "address",
          "name": "_to",
          "type": "address"
        },
        {
          "internalType": "uint256",
          "name": "_tokenId",
          "type": "uint256"
        }
      ],
      "name": "safeTransferFrom",
      "outputs": [],
      "stateMutability": "nonpayable",
      "type": "function"
    },
    {
      "inputs": [
        {
          "internalType": "address",
          "name": "_from",
          "type": "address"
        },
        {
          "internalType": "address",
          "name": "_to",
          "type": "address"
        },
        {
          "internalType": "uint256",
          "name": "_tokenId",
          "type": "uint256"
        },
        {
          "internalType": "bytes",
          "name": "_data",
          "type": "bytes"
        }
      ],
      "name": "safeTransferFrom",
      "outputs": [],
      "stateMutability": "nonpayable",
      "type": "function"
    },
    {
      "inputs": [
        {
          "internalType": "address",
          "name": "operator",
          "type": "address"
        },
        {
          "internalType": "bool",
          "name": "_approved",
          "type": "bool"
        }
      ],
      "name": "setApprovalForAll",
      "outputs": [],
      "stateMutability": "nonpayable",
      "type": "function"
    },
    {
      "inputs": [],
      "name": "symbol",
      "outputs": [
        {
          "internalType": "string",
          "name": "",
          "type": "string"
        }
      ],
      "stateMutability": "view",
      "type": "function"
    },
    {
      "inputs": [
        {
          "internalType": "uint256",
          "name": "index",
          "type": "uint256"
        }
      ],
      "name": "tokenByIndex",
      "outputs": [
        {
          "internalType": "uint256",
          "name": "",
          "type": "uint256"
        }
      ],
      "stateMutability": "view",
      "type": "function"
    },
    {
      "inputs": [
        {
          "internalType": "address",
          "name": "owner",
          "type": "address"
        },
        {
          "internalType": "uint256",
          "name": "index",
          "type": "uint256"
        }
      ],
      "name": "tokenOfOwnerByIndex",
      "outputs": [
        {
          "internalType": "uint256",
          "name": "",
          "type": "uint256"
        }
      ],
      "stateMutability": "view",
      "type": "function"
    },
    {
      "inputs": [
        {
          "internalType": "uint256",
          "name": "_tokenId",
          "type": "uint256"
        }
      ],
      "name": "tokenURI",
      "outputs": [
        {
          "internalType": "string",
          "name": "",
          "type": "string"
        }
      ],
      "stateMutability": "view",
      "type": "function"
    },
    {
      "inputs": [],
      "name": "totalSupply",
      "outputs": [
        {
          "internalType": "uint256",
          "name": "",
          "type": "uint256"
        }
      ],
      "stateMutability": "view",
      "type": "function"
    },
    {
      "inputs": [
        {
          "internalType": "address",
          "name": "_from",
          "type": "address"
        },
        {
          "internalType": "address",
          "name": "_to",
          "type": "address"
        },
        {
          "internalType": "uint256",
          "name": "_tokenId",
          "type": "uint256"
        }
      ],
      "name": "transferFrom",
      "outputs": [],
      "stateMutability": "nonpayable",
      "type": "function"
    }
  ],
  "transactionHash": "0x78afa2004a62d0fbf7419270e27049bce757d7fc59a9d229dbb44e8962edcb1d",
  "args": [],
  "numDeployments": 1,
  "solcInputHash": "d8f7fc12f2c999751abaddf75b0e79fd",
  "bytecode": "0x608060405234801561001057600080fd5b50613647806100206000396000f3fe608060405234801561001057600080fd5b50600436106101cf5760003560e01c80636352211e11610104578063b88d4fde116100a2578063ce4d260211610071578063ce4d2602146103ff578063e985e9c514610412578063ed97c34f1461044e578063fe47041c1461046157600080fd5b8063b88d4fde146103be578063c7b8433a146103d1578063c87b56dd146103e4578063ccbb0d76146103f757600080fd5b806370a08231116100de57806370a082311461037d578063755ff4441461039057806395d89b41146103a3578063a22cb465146103ab57600080fd5b80636352211e146103375780636ecd23061461034a578063703b93431461035d57600080fd5b80632f745c591161017157806342966c681161014b57806342966c68146102de5780634e722cad146102f15780634f6ccce714610311578063552d40aa1461032457600080fd5b80632f745c59146102b85780633491c42d146102cb57806342842e0e1461027157600080fd5b8063158ef93e116101ad578063158ef93e1461024857806318160ddd1461025f57806323b872dd14610271578063287db3401461028457600080fd5b806306fdde03146101d4578063081812fc146101f2578063095ea7b314610233575b600080fd5b6101dc610477565b6040516101e99190612d8c565b60405180910390f35b61021b610200366004612d9f565b6000908152602660205260409020546001600160a01b031690565b6040516001600160a01b0390911681526020016101e9565b610246610241366004612dcf565b61055c565b005b602d5460ff165b60405190151581526020016101e9565b602b545b6040519081526020016101e9565b61024661027f366004612df9565b610683565b610297610292366004612e46565b61069e565b604080518251815260209283015163ffffffff1692810192909252016101e9565b6102636102c6366004612dcf565b6106c1565b6102466102d9366004612e70565b6106d4565b6102466102ec366004612d9f565b6107a3565b6103046102ff366004612eb3565b610823565b6040516101e99190612f09565b61026361031f366004612d9f565b61082e565b610246610332366004612e70565b6108bd565b61021b610345366004612d9f565b610982565b610246610358366004612e46565b61098d565b61037061036b366004612d9f565b610eb2565b6040516101e9919061302f565b61026361038b366004612eb3565b610fdf565b61026361039e366004612e70565b61106c565b6101dc6110ce565b6102466103b936600461304c565b61112a565b6102466103cc36600461310f565b611204565b6102466103df36600461318b565b61129f565b6101dc6103f2366004612d9f565b6113b3565b6103046114ee565b61024661040d3660046131d7565b61150b565b61024f61042036600461323b565b6001600160a01b03918216600090815260276020908152604080832093909416825291909152205460ff1690565b61024f61045c366004612e46565b611618565b610469611623565b6040516101e992919061326e565b602d5460609060ff166104cb5760405162461bcd60e51b8152602060048201526017602482015276115490cdcc8c4e881b9bdd081a5b9a5d1a585b1a5e9959604a1b60448201526064015b60405180910390fd5b602180546104d8906132d0565b80601f0160208091040260200160405190810160405280929190818152602001828054610504906132d0565b80156105515780601f1061052657610100808354040283529160200191610551565b820191906000526020600020905b81548152906001019060200180831161053457829003601f168201915b505050505090505b90565b60006105678261181a565b9050806001600160a01b0316836001600160a01b0316036105d45760405162461bcd60e51b815260206004820152602160248201527f4552433732313a20617070726f76616c20746f2063757272656e74206f776e656044820152603960f91b60648201526084016104c2565b806001600160a01b03166105e6611843565b6001600160a01b03161480610602575061060281610420611843565b6106745760405162461bcd60e51b815260206004820152603860248201527f4552433732313a20617070726f76652063616c6c6572206973206e6f74206f7760448201527f6e6572206e6f7220617070726f76656420666f7220616c6c000000000000000060648201526084016104c2565b61067e838361189e565b505050565b61067e83838360405180602001604052806000815250611204565b60408051808201909152600080825260208201526106bb8261190c565b92915050565b60006106cd8383611a02565b9392505050565b6106dc611843565b6001600160a01b03166002600601546001600160a01b0316146107305760405162461bcd60e51b815260206004820152600c60248201526b155b985d5d1a1bdc9a5e995960a21b60448201526064016104c2565b6001600160a01b038316600090815260396020908152604080832060ff8616845290915281209082600281111561076957610769612f1c565b600281111561077a5761077a612f1c565b8152602001908152602001600020600081548092919061079990613330565b9190505550505050565b6107b46107ae611843565b82611a98565b6108175760405162461bcd60e51b815260206004820152602e60248201527f4552433732313a2063616c6c6572206973206e6f7420746f6b656e206f776e6560448201526d1c881b9bdc88185c1c1c9bdd995960921b60648201526084016104c2565b61082081611b23565b50565b60606106bb82611bd1565b602b5460009082106108975760405162461bcd60e51b815260206004820152602c60248201527f455243373231456e756d657261626c653a20676c6f62616c20696e646578206f60448201526b7574206f6620626f756e647360a01b60648201526084016104c2565b602b8054839081106108ab576108ab613304565b90600052602060002001549050919050565b6108c5611843565b6001600160a01b03166002600601546001600160a01b0316146109195760405162461bcd60e51b815260206004820152600c60248201526b155b985d5d1a1bdc9a5e995960a21b60448201526064016104c2565b6001600160a01b038316600090815260396020908152604080832060ff8616845290915281209082600281111561095257610952612f1c565b600281111561096357610963612f1c565b8152602001908152602001600020600081548092919061079990613349565b60006106bb8261181a565b8061099781611cfe565b6109da5760405162461bcd60e51b815260206004820152601460248201527323b2b69036b4b73a103932b9ba3934b1ba34b7b760611b60448201526064016104c2565b60006109e4611843565b905060005b6002811015610b0357601c805460ff8616908110610a0957610a09613304565b90600052602060002090600602016002018160028110610a2b57610a2b613304565b015460008260028110610a4057610a40613304565b01546040516370a0823160e01b81526001600160a01b038581166004830152909116906370a0823190602401602060405180830381865afa158015610a89573d6000803e3d6000fd5b505050506040513d601f19601f82011682018060405250810190610aad9190613360565b11610af15760405162461bcd60e51b8152602060048201526014602482015273496e73756666696369656e742062616c616e636560601b60448201526064016104c2565b80610afb81613330565b9150506109e9565b5060005b6003811015610cef5760005b6002811015610cdc576000610b8d6000601c018760ff1681548110610b3a57610b3a613304565b90600052602060002090600602016002018360028110610b5c57610b5c613304565b015460098460028110610b7157610b71613304565b600302018560038110610b8657610b86613304565b0154611e91565b90508015610cc957600060028460078110610baa57610baa613304565b01546001600160a01b031603610c165760405162461bcd60e51b815260206004820152602b60248201527f5969656c6447656d3a20636f6e66696775726174696f6e206572726f722c207a60448201526a65726f206164647265737360a81b60648201526084016104c2565b60008260028110610c2957610c29613304565b01546001600160a01b03166323b872dd8560028660078110610c4d57610c4d613304565b015460405160e084901b6001600160e01b03191681526001600160a01b03928316600482015291166024820152604481018490526064016020604051808303816000875af1158015610ca3573d6000803e3d6000fd5b505050506040513d601f19601f82011682018060405250810190610cc79190613379565b505b5080610cd481613330565b915050610b13565b5080610ce781613330565b915050610b07565b506004546003906002906001600160a01b0316636a6278428284015460405160e083901b6001600160e01b03191681526001600160a01b0390911660048201526024016020604051808303816000875af1158015610d51573d6000803e3d6000fd5b505050506040513d601f19601f82011682018060405250810190610d759190613360565b50600060015b60028111610e9d576001600160a01b038516600090815260396020908152604080832060ff8b168452909152812081836002811115610dbc57610dbc612f1c565b6002811115610dcd57610dcd612f1c565b6002811115610dde57610dde612f1c565b8152602001908152602001600020541115610e8b57806002811115610e0557610e05612f1c565b6001600160a01b038616600090815260396020908152604080832060ff8c1684529091528120919350826002811115610e4057610e40612f1c565b6002811115610e5157610e51612f1c565b6002811115610e6257610e62612f1c565b81526020019081526020016000206000815480929190610e8190613349565b9190505550610e9d565b80610e9581613330565b915050610d7b565b50610ea9868583611ec0565b50505050505050565b610eba612c90565b60008281526020808052604091829020825160e08101909352805460ff80821685529192840191610100909104166002811115610ef957610ef9612f1c565b6002811115610f0a57610f0a612f1c565b8152815463ffffffff6201000082048116602080850191909152600160301b83048216604080860191909152600160501b909304909116606080850191909152825161014081018452600186015481526002860154928101929092526003850154928201929092526004840154918101919091526005830154608082810191909152600684015460a080840191909152600785015460c0840152600885015460e08401526009850154610100840152600a85015461012084015290830191909152600b9092015460ff16151591015292915050565b6000816001600160a01b03811661104a5760405162461bcd60e51b815260206004820152602960248201527f4552433732313a2061646472657373207a65726f206973206e6f7420612076616044820152683634b21037bbb732b960b91b60648201526084016104c2565b6001600160a01b03831660009081526025602052604090205491505b50919050565b6001600160a01b038316600090815260396020908152604080832060ff861684529091528120818360028111156110a5576110a5612f1c565b60028111156110b6576110b6612f1c565b81526020019081526020016000205490509392505050565b602d5460609060ff1661111d5760405162461bcd60e51b8152602060048201526017602482015276115490cdcc8c4e881b9bdd081a5b9a5d1a585b1a5e9959604a1b60448201526064016104c2565b602280546104d8906132d0565b6000611134611843565b9050826001600160a01b0316816001600160a01b0316036111975760405162461bcd60e51b815260206004820152601960248201527f4552433732313a20617070726f766520746f2063616c6c65720000000000000060448201526064016104c2565b6001600160a01b03818116600081815260276020908152604080832094881680845294825291829020805460ff191687151590811790915591519182527f17307eab39ab6107e8899845ad3d59bd9653f200f220920489ca2b5937696c31910160405180910390a3505050565b600061120e611843565b905061121a8184611a98565b6112805760405162461bcd60e51b815260206004820152603160248201527f4552433732313a207472616e736665722063616c6c6572206973206e6f74206f6044820152701ddb995c881b9bdc88185c1c1c9bdd9959607a1b60648201526084016104c2565b61128d8186868686612070565b61129885858561216d565b5050505050565b6112a7611843565b6001600160a01b03166002600601546001600160a01b0316146112fb5760405162461bcd60e51b815260206004820152600c60248201526b155b985d5d1a1bdc9a5e995960a21b60448201526064016104c2565b6000611308848484611ec0565b60008181526020805260408120600b01805460ff1916600117905590915082600281111561133857611338612f1c565b11156113ad576001600160a01b038316600090815260396020908152604080832060ff8816845290915281209083600281111561137757611377612f1c565b600281111561138857611388612f1c565b815260200190815260200160002060008154809291906113a790613330565b91905055505b50505050565b602d5460609060ff166114025760405162461bcd60e51b8152602060048201526017602482015276115490cdcc8c4e881b9bdd081a5b9a5d1a585b1a5e9959604a1b60448201526064016104c2565b8161140c81612311565b602880546000919061141d906132d0565b80601f0160208091040260200160405190810160405280929190818152602001828054611449906132d0565b80156114965780601f1061146b57610100808354040283529160200191611496565b820191906000526020600020905b81548152906001019060200180831161147957829003601f168201915b5050505050905060008151116114bb57604051806020016040528060008152506114e6565b806114c585612375565b6040516020016114d6929190613396565b6040516020818303038152906040525b949350505050565b606060006114fa611843565b905061150581611bd1565b91505090565b611513612476565b602d5460ff16156115665760405162461bcd60e51b815260206004820152601b60248201527f4552433732313a20616c726561647920696e697469616c697a6564000000000060448201526064016104c2565b6021611572838261340b565b50602261157f828261340b565b50507fc8fcad8db84d3cc18b4c41d551ea0ee66dd599cde068d998e57d5e09332c131f602052507fb0f299ecb5b93181be17d5e233721498930c5361f367b1d41c5b827d4fe4d3808054600160ff199182168117909255635b5e139f60e01b6000527f806e5513950c43892aa01780f899fe3e3229f9425b66a2610b01231f5799f44e8054821683179055602d80549091169091179055565b60006106bb82611cfe565b60608060006116306114ee565b90506000815167ffffffffffffffff81111561164e5761164e613083565b60405190808252806020026020018201604052801561168757816020015b611674612c90565b81526020019060019003908161166c5790505b50905060005b825181101561181057600060200160008483815181106116af576116af613304565b6020908102919091018101518252818101929092526040908101600020815160e08101909252805460ff808216845292939192918401916101009091041660028111156116fe576116fe612f1c565b600281111561170f5761170f612f1c565b8152815463ffffffff6201000082048116602080850191909152600160301b83048216604080860191909152600160501b909304909116606080850191909152825161014081018452600186015481526002860154928101929092526003850154928201929092526004840154918101919091526005830154608082810191909152600684015460a080840191909152600785015460c0840152600885015460e08401526009850154610100840152600a85015461012084015290830191909152600b9092015460ff16151591015282518390839081106117f2576117f2613304565b6020026020010181905250808061180890613330565b91505061168d565b5090939092509050565b60008161182681612311565b50506000908152602460205260409020546001600160a01b031690565b600030330361189957600080368080601f0160208091040260200160405190810160405280939291908181526020018383808284376000920191909152505050503601516001600160a01b031691506105599050565b503390565b600081815260266020526040902080546001600160a01b0319166001600160a01b03841690811790915581906118d38261181a565b6001600160a01b03167f8c5be1e5ebec7d5bd14f71427d1e84f3dd0314c0f7b2291e5b200ac8c7c3b92560405160405180910390a45050565b60408051808201909152600080825260208201819052601c5460ff8416106119675760405162461bcd60e51b815260206004820152600e60248201526d57726f6e672067656d207479706560901b60448201526064016104c2565b600081601d018460ff168154811061198157611981613304565b600091825260209182902060408051808201909152600290920201805482526001015463ffffffff1691810182905291504211156106cd575b60188201546020820180516201000090920463ffffffff16916119de9083906134cb565b63ffffffff908116909152602083015116421190506119ba57600081529392505050565b6000611a0d83610fdf565b8210611a6f5760405162461bcd60e51b815260206004820152602b60248201527f455243373231456e756d657261626c653a206f776e657220696e646578206f7560448201526a74206f6620626f756e647360a81b60648201526084016104c2565b506001600160a01b03919091166000908152602960209081526040808320938352929052205490565b600081611aa481612311565b6000611aaf8461181a565b9050806001600160a01b0316856001600160a01b03161480611af657506001600160a01b0380821660009081526027602090815260408083209389168352929052205460ff165b80611b1a5750846001600160a01b0316611b0f856124ff565b6001600160a01b0316145b95945050505050565b6000611b2e8261181a565b9050611b3c81600084612528565b611b4760008361189e565b6001600160a01b0381166000908152602560205260408120805491611b6b83613349565b909155505060008281526024602052604080822080546001600160a01b0319169055518391906001600160a01b038416907fddf252ad1be2c89b69c2b068fc378daa952ba7f163c4a11628f55a4df523b3ef908390a4611bcd8160008461271d565b5050565b6001600160a01b0381166000908152602560205260408120546060918167ffffffffffffffff811115611c0657611c06613083565b604051908082528060200260200182016040528015611c2f578160200160208202803683370190505b50905060005b82811015611cf6576001600160a01b0385166000908152602960209081526040808320848452909152902054611c82816000908152602460205260409020546001600160a01b0316151590565b611cc55760405162461bcd60e51b8152602060048201526014602482015273412067656d20646f65736e27742065786973747360601b60448201526064016104c2565b80838381518110611cd857611cd8613304565b60209081029190910101525080611cee81613330565b915050611c35565b509392505050565b601c54600090819060ff841610611d485760405162461bcd60e51b815260206004820152600e60248201526d57726f6e672067656d207479706560901b60448201526064016104c2565b600081601c018460ff1681548110611d6257611d62613304565b90600052602060002090600602016040518060a0016040529081600082015481526020016001820154815260200160028201600280602002604051908101604052809291908260028015611dcb576020028201915b815481526020019060010190808311611db7575b50505091835250506004820154602082015260059091015460ff908116604090920191909152601d8401805492935060009290918716908110611e1057611e10613304565b600091825260209182902060408051808201909152600290920201805482526001015463ffffffff1691810191909152601884015490915060ff16158015611b1a5750816080015160ff168160000151108015611e775750806020015163ffffffff164211155b80611b1a57506020015163ffffffff164211949350505050565b6000808211611ea15760006106cd565b611eac6064806134ea565b611eb683856134ea565b6106cd919061351f565b600080611ecc846127df565b9050611ed785612814565b611edf612c90565b60ff8616815263ffffffff42166080820181905260608201819052604082015260208101846002811115611f1557611f15612f1c565b90816002811115611f2857611f28612f1c565b9052506000828152602080805260409091208251815460ff19811660ff90921691821783559284015184939091839161ffff191617610100836002811115611f7257611f72612f1c565b0217905550604082810151825460608086015160808088015169ffffffffffffffff0000199094166201000063ffffffff9687160269ffffffff000000000000191617600160301b92861692909202919091176dffffffff000000000000000000001916600160501b949093169390930291909117845560a0808601518051600187015560208101516002870155938401516003860155908301516004850155908201516005840155810151600683015560c080820151600784015560e08201516008840155610100820151600984015561012090910151600a83015590910151600b909101805460ff191691151591909117905550949350505050565b823b801561216557604051630a85bd0160e11b81526001600160a01b0385169063150b7a02906120aa908990899088908890600401613533565b6020604051808303816000875af11580156120c9573d6000803e3d6000fd5b505050506040513d601f19601f820116820180604052508101906120ed919061356f565b6001600160e01b031916630a85bd0160e11b146121655760405162461bcd60e51b815260206004820152603060248201527f4465666f45524337323146616365743a205472616e736665722072656a65637460448201526f65642f6661696c6564206279205f746f60801b60648201526084016104c2565b505050505050565b826001600160a01b03166121808261181a565b6001600160a01b0316146121e45760405162461bcd60e51b815260206004820152602560248201527f4552433732313a207472616e736665722066726f6d20696e636f72726563742060448201526437bbb732b960d91b60648201526084016104c2565b6001600160a01b0382166122465760405162461bcd60e51b8152602060048201526024808201527f4552433732313a207472616e7366657220746f20746865207a65726f206164646044820152637265737360e01b60648201526084016104c2565b612251838383612528565b61225c60008261189e565b6001600160a01b038316600090815260256020526040812080549161228083613349565b90915550506001600160a01b03821660009081526025602052604081208054916122a983613330565b909155505060008181526024602052604080822080546001600160a01b0319166001600160a01b0386811691821790925591518493918716917fddf252ad1be2c89b69c2b068fc378daa952ba7f163c4a11628f55a4df523b3ef91a461067e6000838361271d565b6000818152602460205260409020546001600160a01b03166108205760405162461bcd60e51b815260206004820152601c60248201527f4552433732313a20746f6b656e4964206973206e6f742076616c69640000000060448201526064016104c2565b60608160000361239c5750506040805180820190915260018152600360fc1b602082015290565b8160005b81156123c657806123b081613330565b91506123bf9050600a8361351f565b91506123a0565b60008167ffffffffffffffff8111156123e1576123e1613083565b6040519080825280601f01601f19166020018201604052801561240b576020820181803683370190505b5090505b84156114e657612420600183613599565b915061242d600a866135b0565b6124389060306135c4565b60f81b81838151811061244d5761244d613304565b60200101906001600160f81b031916908160001a90535061246f600a8661351f565b945061240f565b7fc8fcad8db84d3cc18b4c41d551ea0ee66dd599cde068d998e57d5e09332c131c600401546001600160a01b031633146124fd5760405162461bcd60e51b815260206004820152602260248201527f4c69624469616d6f6e643a204d75737420626520636f6e7472616374206f776e60448201526132b960f11b60648201526084016104c2565b565b60008161250b81612311565b50506000908152602660205260409020546001600160a01b031690565b601854610100900460ff161561258c5760405162461bcd60e51b8152602060048201526024808201527f5061757361626c653a207061757365642c207472616e73666572206973206c6f60448201526318dad95960e21b60648201526084016104c2565b604051637e5c923d60e01b81526001600160a01b03808516600483015283166024820152604481018290523090637e5c923d90606401600060405180830381600087803b1580156125dc57600080fd5b505af11580156125f0573d6000803e3d6000fd5b505050506125ff8383836128bc565b6001600160a01b0383161580159061261f57506001600160a01b03821615155b1561067e576001600160a01b03808416600090815260386020526040808220928516825281208254815560018084015490820155600280840154908201556003808401549082015560048084015490820155600580840154908201556006808401549082015560078084015490820155600880840154908201556009928301549201919091555b601c5460ff821610156113ad576001600160a01b03848116600090815260396020818152604080842060ff8716808652908352818520600280875290845282862054968a16865293835281852090855282528084209284529190528120919091556001905280612715816135dc565b9150506126a6565b6001600160a01b0383161561067e576001600160a01b038316600090815260386020526040812081815560018101829055600281018290556003810182905560048101829055600581018290556006810182905560078101829055600881018290556009018190555b601c5460ff821610156113ad576001600160a01b038416600090815260396020908152604080832060ff8516845282528083206002845290915280822082905560018252812055806127d7816135dc565b915050612786565b6000806127ea611843565b90506127f5836128c7565b9150611066816000858560405180602001604052806000815250612070565b60008081601d018360ff168154811061282f5761282f613304565b60009182526020909120600290910201600181015490915063ffffffff164211156128ae575b601882015460018201805463ffffffff6201000090930483169260009161287e918591166134cb565b82546101009290920a63ffffffff8181021990931691831602179091556001830154164211905061285557600081555b805481600061079983613330565b61067e8383836128f1565b60006128d260235490565b90506128de82826129a9565b6128ec602380546001019055565b919050565b6001600160a01b03831661294c5761294781602b80546000838152602c60205260408120829055600182018355919091527f11c44e4875b74d31ff9fd779bf2566af7bd15b87fc985d01f5094b89e3669e4f0155565b61296f565b816001600160a01b0316836001600160a01b03161461296f5761296f8382612afa565b6001600160a01b0382166129865761067e81612b97565b826001600160a01b0316826001600160a01b03161461067e5761067e8282612c4c565b6001600160a01b0382166129ff5760405162461bcd60e51b815260206004820181905260248201527f4552433732313a206d696e7420746f20746865207a65726f206164647265737360448201526064016104c2565b6000818152602460205260409020546001600160a01b031615612a645760405162461bcd60e51b815260206004820152601c60248201527f4552433732313a20746f6b656e20616c7265616479206d696e7465640000000060448201526064016104c2565b612a7060008383612528565b6001600160a01b0382166000908152602560205260408120805491612a9483613330565b909155505060008181526024602052604080822080546001600160a01b0319166001600160a01b03861690811790915590518392907fddf252ad1be2c89b69c2b068fc378daa952ba7f163c4a11628f55a4df523b3ef908290a4611bcd6000838361271d565b60006001612b0784610fdf565b612b119190613599565b6000838152602a6020526040902054909150808214612b64576001600160a01b03841660009081526029602090815260408083208584528252808320548484528184208190558352602a90915290208190555b506000918252602a602090815260408084208490556001600160a01b039094168352602981528383209183525290812055565b602b54600090612ba990600190613599565b6000838152602c6020526040812054602b8054939450909284908110612bd157612bd1613304565b90600052602060002001549050806000602101600a018381548110612bf857612bf8613304565b6000918252602080832090910192909255828152602c9091526040808220849055858252812055602b805480612c3057612c306135fb565b6001900381819060005260206000200160009055905550505050565b6000612c5783610fdf565b6001600160a01b0390931660009081526029602090815260408083208684528252808320859055938252602a9052919091209190915550565b6040805160e08101909152600080825260208201908152602001600063ffffffff168152602001600063ffffffff168152602001600063ffffffff168152602001612d27604051806101400160405280600081526020016000815260200160008152602001600081526020016000815260200160008152602001600081526020016000815260200160008152602001600081525090565b8152600060209091015290565b60005b83811015612d4f578181015183820152602001612d37565b838111156113ad5750506000910152565b60008151808452612d78816020860160208601612d34565b601f01601f19169290920160200192915050565b6020815260006106cd6020830184612d60565b600060208284031215612db157600080fd5b5035919050565b80356001600160a01b03811681146128ec57600080fd5b60008060408385031215612de257600080fd5b612deb83612db8565b946020939093013593505050565b600080600060608486031215612e0e57600080fd5b612e1784612db8565b9250612e2560208501612db8565b9150604084013590509250925092565b803560ff811681146128ec57600080fd5b600060208284031215612e5857600080fd5b6106cd82612e35565b8035600381106128ec57600080fd5b600080600060608486031215612e8557600080fd5b612e8e84612db8565b9250612e9c60208501612e35565b9150612eaa60408501612e61565b90509250925092565b600060208284031215612ec557600080fd5b6106cd82612db8565b600081518084526020808501945080840160005b83811015612efe57815187529582019590820190600101612ee2565b509495945050505050565b6020815260006106cd6020830184612ece565b634e487b7160e01b600052602160045260246000fd5b60ff8151168252602081015160038110612f5c57634e487b7160e01b600052602160045260246000fd5b806020840152506040810151612f7a604084018263ffffffff169052565b506060810151612f92606084018263ffffffff169052565b506080810151612faa608084018263ffffffff169052565b5060a081015161301e60a0840182805182526020810151602083015260408101516040830152606081015160608301526080810151608083015260a081015160a083015260c081015160c083015260e081015160e08301526101008082015181840152506101208082015181840152505050565b5060c0015115156101e09190910152565b61020081016106bb8284612f32565b801515811461082057600080fd5b6000806040838503121561305f57600080fd5b61306883612db8565b915060208301356130788161303e565b809150509250929050565b634e487b7160e01b600052604160045260246000fd5b600067ffffffffffffffff808411156130b4576130b4613083565b604051601f8501601f19908116603f011681019082821181831017156130dc576130dc613083565b816040528093508581528686860111156130f557600080fd5b858560208301376000602087830101525050509392505050565b6000806000806080858703121561312557600080fd5b61312e85612db8565b935061313c60208601612db8565b925060408501359150606085013567ffffffffffffffff81111561315f57600080fd5b8501601f8101871361317057600080fd5b61317f87823560208401613099565b91505092959194509250565b6000806000606084860312156131a057600080fd5b6131a984612e35565b9250612e9c60208501612db8565b600082601f8301126131c857600080fd5b6106cd83833560208501613099565b600080604083850312156131ea57600080fd5b823567ffffffffffffffff8082111561320257600080fd5b61320e868387016131b7565b9350602085013591508082111561322457600080fd5b50613231858286016131b7565b9150509250929050565b6000806040838503121561324e57600080fd5b61325783612db8565b915061326560208401612db8565b90509250929050565b6040815260006132816040830185612ece565b82810360208481019190915284518083528582019282019060005b818110156132c3576132af838651612f32565b93830193610200929092019160010161329c565b5090979650505050505050565b600181811c908216806132e457607f821691505b60208210810361106657634e487b7160e01b600052602260045260246000fd5b634e487b7160e01b600052603260045260246000fd5b634e487b7160e01b600052601160045260246000fd5b6000600182016133425761334261331a565b5060010190565b6000816133585761335861331a565b506000190190565b60006020828403121561337257600080fd5b5051919050565b60006020828403121561338b57600080fd5b81516106cd8161303e565b600083516133a8818460208801612d34565b8351908301906133bc818360208801612d34565b01949350505050565b601f82111561067e57600081815260208120601f850160051c810160208610156133ec5750805b601f850160051c820191505b81811015612165578281556001016133f8565b815167ffffffffffffffff81111561342557613425613083565b6134398161343384546132d0565b846133c5565b602080601f83116001811461346e57600084156134565750858301515b600019600386901b1c1916600185901b178555612165565b600085815260208120601f198616915b8281101561349d5788860151825594840194600190910190840161347e565b50858210156134bb5787850151600019600388901b60f8161c191681555b5050505050600190811b01905550565b600063ffffffff8083168185168083038211156133bc576133bc61331a565b60008160001904831182151516156135045761350461331a565b500290565b634e487b7160e01b600052601260045260246000fd5b60008261352e5761352e613509565b500490565b60006001600160a01b038087168352808616602084015250836040830152608060608301526135656080830184612d60565b9695505050505050565b60006020828403121561358157600080fd5b81516001600160e01b0319811681146106cd57600080fd5b6000828210156135ab576135ab61331a565b500390565b6000826135bf576135bf613509565b500690565b600082198211156135d7576135d761331a565b500190565b600060ff821660ff81036135f2576135f261331a565b60010192915050565b634e487b7160e01b600052603160045260246000fdfea2646970667358221220c4cad914cfe0839d3b1c3b1fffc4d31ac042262d5bc723b4cd156e17a8c8a80b64736f6c634300080f0033",
  "devdoc": {
    "author": "Decentralized Foundation Team",
    "kind": "dev",
    "methods": {
      "getGemIds()": {
        "returns": {
          "_0": "array with token Ids"
        }
      },
      "getGemIdsOf(address)": {
        "params": {
          "_user": "gemHolder to get gemsOf"
        },
        "returns": {
          "_0": "array with token Ids"
        }
      },
      "getGemInfo(uint256)": {
        "params": {
          "_tokenId": "gem Id"
        },
        "returns": {
          "_0": "Gem structure with all the details, excluding the gem type and protocol configuration, which is returned by IConfig facet"
        }
      },
      "getGemsInfo()": {
        "returns": {
          "_0": "array of the Ids and array of the Gem structurs"
        }
      },
      "getMintWindow(uint8)": {
        "returns": {
          "_0": "GemTypeMintWindow mint window structure"
        }
      },
      "mint(uint8)": {
        "details": "takes payment for mint and passes to the internal _mint function"
      }
    },
    "title": "YieldGemFacet EIP-2535 Diamond Facet",
    "version": 1
  },
  "userdoc": {
    "kind": "user",
    "methods": {
      "getGemIds()": {
        "notice": "Lists gem IDs the requester holds"
      },
      "getGemIdsOf(address)": {
        "notice": "Lists gem IDs of a user"
      },
      "getGemInfo(uint256)": {
        "notice": "Get detailed status of the Gem, including financial details"
      },
      "getGemsInfo()": {
        "notice": "Get detailed status of all the yield gems the requester holds"
      },
      "getMintWindow(uint8)": {
        "notice": "mint count limitations details"
      },
      "mintTo(uint8,address,uint8)": {
        "notice": "For redeem usage"
      }
    },
    "notice": "Basic DEFO-specific mint functionality on top of the ERC721 standard",
    "version": 1
  },
  "storageLayout": {
    "storage": [
      {
        "astId": 4283,
        "contract": "contracts/facets/YieldGemFacet.sol:YieldGemFacet",
        "label": "s",
        "offset": 0,
        "slot": "0",
        "type": "t_struct(AppStorage)4537_storage"
      }
    ],
    "types": {
      "t_address": {
        "encoding": "inplace",
        "label": "address",
        "numberOfBytes": "20"
      },
      "t_array(t_address)7_storage": {
        "base": "t_address",
        "encoding": "inplace",
        "label": "address[7]",
        "numberOfBytes": "224"
      },
      "t_array(t_array(t_uint256)3_storage)2_storage": {
        "base": "t_array(t_uint256)3_storage",
        "encoding": "inplace",
        "label": "uint256[3][2]",
        "numberOfBytes": "192"
      },
      "t_array(t_contract(IERC20)737)2_storage": {
        "base": "t_contract(IERC20)737",
        "encoding": "inplace",
        "label": "contract IERC20[2]",
        "numberOfBytes": "64"
      },
      "t_array(t_struct(GemTypeConfig)4429_storage)dyn_storage": {
        "base": "t_struct(GemTypeConfig)4429_storage",
        "encoding": "dynamic_array",
        "label": "struct GemTypeConfig[]",
        "numberOfBytes": "32"
      },
      "t_array(t_struct(GemTypeMintWindow)4434_storage)dyn_storage": {
        "base": "t_struct(GemTypeMintWindow)4434_storage",
        "encoding": "dynamic_array",
        "label": "struct GemTypeMintWindow[]",
        "numberOfBytes": "32"
      },
      "t_array(t_uint256)2_storage": {
        "base": "t_uint256",
        "encoding": "inplace",
        "label": "uint256[2]",
        "numberOfBytes": "64"
      },
      "t_array(t_uint256)3_storage": {
        "base": "t_uint256",
        "encoding": "inplace",
        "label": "uint256[3]",
        "numberOfBytes": "96"
      },
      "t_array(t_uint256)5_storage": {
        "base": "t_uint256",
        "encoding": "inplace",
        "label": "uint256[5]",
        "numberOfBytes": "160"
      },
      "t_array(t_uint256)dyn_storage": {
        "base": "t_uint256",
        "encoding": "dynamic_array",
        "label": "uint256[]",
        "numberOfBytes": "32"
      },
      "t_bool": {
        "encoding": "inplace",
        "label": "bool",
        "numberOfBytes": "1"
      },
      "t_contract(IERC20)737": {
        "encoding": "inplace",
        "label": "contract IERC20",
        "numberOfBytes": "20"
      },
      "t_enum(Booster)4456": {
        "encoding": "inplace",
        "label": "enum Booster",
        "numberOfBytes": "1"
      },
      "t_mapping(t_address,t_bool)": {
        "encoding": "mapping",
        "key": "t_address",
        "label": "mapping(address => bool)",
        "numberOfBytes": "32",
        "value": "t_bool"
      },
      "t_mapping(t_address,t_mapping(t_address,t_bool))": {
        "encoding": "mapping",
        "key": "t_address",
        "label": "mapping(address => mapping(address => bool))",
        "numberOfBytes": "32",
        "value": "t_mapping(t_address,t_bool)"
      },
      "t_mapping(t_address,t_mapping(t_uint256,t_uint256))": {
        "encoding": "mapping",
        "key": "t_address",
        "label": "mapping(address => mapping(uint256 => uint256))",
        "numberOfBytes": "32",
        "value": "t_mapping(t_uint256,t_uint256)"
      },
      "t_mapping(t_address,t_mapping(t_uint8,t_mapping(t_enum(Booster)4456,t_uint256)))": {
        "encoding": "mapping",
        "key": "t_address",
        "label": "mapping(address => mapping(uint8 => mapping(enum Booster => uint256)))",
        "numberOfBytes": "32",
        "value": "t_mapping(t_uint8,t_mapping(t_enum(Booster)4456,t_uint256))"
      },
      "t_mapping(t_address,t_struct(Fi)4477_storage)": {
        "encoding": "mapping",
        "key": "t_address",
        "label": "mapping(address => struct Fi)",
        "numberOfBytes": "32",
        "value": "t_struct(Fi)4477_storage"
      },
      "t_mapping(t_address,t_uint256)": {
        "encoding": "mapping",
        "key": "t_address",
        "label": "mapping(address => uint256)",
        "numberOfBytes": "32",
        "value": "t_uint256"
      },
      "t_mapping(t_enum(Booster)4456,t_uint256)": {
        "encoding": "mapping",
        "key": "t_enum(Booster)4456",
        "label": "mapping(enum Booster => uint256)",
        "numberOfBytes": "32",
        "value": "t_uint256"
      },
      "t_mapping(t_uint256,t_address)": {
        "encoding": "mapping",
        "key": "t_uint256",
        "label": "mapping(uint256 => address)",
        "numberOfBytes": "32",
        "value": "t_address"
      },
      "t_mapping(t_uint256,t_struct(Gem)4494_storage)": {
        "encoding": "mapping",
        "key": "t_uint256",
        "label": "mapping(uint256 => struct Gem)",
        "numberOfBytes": "32",
        "value": "t_struct(Gem)4494_storage"
      },
      "t_mapping(t_uint256,t_uint256)": {
        "encoding": "mapping",
        "key": "t_uint256",
        "label": "mapping(uint256 => uint256)",
        "numberOfBytes": "32",
        "value": "t_uint256"
      },
      "t_mapping(t_uint8,t_mapping(t_enum(Booster)4456,t_uint256))": {
        "encoding": "mapping",
        "key": "t_uint8",
        "label": "mapping(uint8 => mapping(enum Booster => uint256))",
        "numberOfBytes": "32",
        "value": "t_mapping(t_enum(Booster)4456,t_uint256)"
      },
      "t_string_storage": {
        "encoding": "bytes",
        "label": "string",
        "numberOfBytes": "32"
      },
      "t_struct(AppStorage)4537_storage": {
        "encoding": "inplace",
        "label": "struct AppStorage",
        "members": [
          {
            "astId": 4497,
            "contract": "contracts/facets/YieldGemFacet.sol:YieldGemFacet",
            "label": "config",
            "offset": 0,
            "slot": "0",
            "type": "t_struct(ProtocolConfig)4416_storage"
          },
          {
            "astId": 4501,
            "contract": "contracts/facets/YieldGemFacet.sol:YieldGemFacet",
            "label": "gemTypes",
            "offset": 0,
            "slot": "28",
            "type": "t_array(t_struct(GemTypeConfig)4429_storage)dyn_storage"
          },
          {
            "astId": 4505,
            "contract": "contracts/facets/YieldGemFacet.sol:YieldGemFacet",
            "label": "gemTypesMintWindows",
            "offset": 0,
            "slot": "29",
            "type": "t_array(t_struct(GemTypeMintWindow)4434_storage)dyn_storage"
          },
          {
            "astId": 4508,
            "contract": "contracts/facets/YieldGemFacet.sol:YieldGemFacet",
            "label": "defoTokenLimitWindow",
            "offset": 0,
            "slot": "30",
            "type": "t_struct(DEFOTokenLimitWindow)4443_storage"
          },
          {
            "astId": 4513,
            "contract": "contracts/facets/YieldGemFacet.sol:YieldGemFacet",
            "label": "gems",
            "offset": 0,
            "slot": "32",
            "type": "t_mapping(t_uint256,t_struct(Gem)4494_storage)"
          },
          {
            "astId": 4516,
            "contract": "contracts/facets/YieldGemFacet.sol:YieldGemFacet",
            "label": "nft",
            "offset": 0,
            "slot": "33",
            "type": "t_struct(ERC721Storage)4351_storage"
          },
          {
            "astId": 4519,
            "contract": "contracts/facets/YieldGemFacet.sol:YieldGemFacet",
            "label": "total",
            "offset": 0,
            "slot": "46",
            "type": "t_struct(Fi)4477_storage"
          },
          {
            "astId": 4524,
            "contract": "contracts/facets/YieldGemFacet.sol:YieldGemFacet",
            "label": "usersFi",
            "offset": 0,
            "slot": "56",
            "type": "t_mapping(t_address,t_struct(Fi)4477_storage)"
          },
          {
            "astId": 4533,
            "contract": "contracts/facets/YieldGemFacet.sol:YieldGemFacet",
            "label": "usersNextGemBooster",
            "offset": 0,
            "slot": "57",
            "type": "t_mapping(t_address,t_mapping(t_uint8,t_mapping(t_enum(Booster)4456,t_uint256)))"
          },
          {
            "astId": 4536,
            "contract": "contracts/facets/YieldGemFacet.sol:YieldGemFacet",
            "label": "defoTokenLimitPerRewards",
            "offset": 0,
            "slot": "58",
            "type": "t_struct(DEFOTokenLimitPerRewards)4452_storage"
          }
        ],
        "numberOfBytes": "1920"
      },
      "t_struct(Counter)2737_storage": {
        "encoding": "inplace",
        "label": "struct Counters.Counter",
        "members": [
          {
            "astId": 2736,
            "contract": "contracts/facets/YieldGemFacet.sol:YieldGemFacet",
            "label": "_value",
            "offset": 0,
            "slot": "0",
            "type": "t_uint256"
          }
        ],
        "numberOfBytes": "32"
      },
      "t_struct(DEFOTokenLimitPerRewards)4452_storage": {
        "encoding": "inplace",
        "label": "struct DEFOTokenLimitPerRewards",
        "members": [
          {
            "astId": 4447,
            "contract": "contracts/facets/YieldGemFacet.sol:YieldGemFacet",
            "label": "tokensSold",
            "offset": 0,
            "slot": "0",
            "type": "t_mapping(t_address,t_uint256)"
          },
          {
            "astId": 4451,
            "contract": "contracts/facets/YieldGemFacet.sol:YieldGemFacet",
            "label": "timeOfWindowStart",
            "offset": 0,
            "slot": "1",
            "type": "t_mapping(t_address,t_uint256)"
          }
        ],
        "numberOfBytes": "64"
      },
      "t_struct(DEFOTokenLimitWindow)4443_storage": {
        "encoding": "inplace",
        "label": "struct DEFOTokenLimitWindow",
        "members": [
          {
            "astId": 4438,
            "contract": "contracts/facets/YieldGemFacet.sol:YieldGemFacet",
            "label": "tokensSold",
            "offset": 0,
            "slot": "0",
            "type": "t_mapping(t_address,t_uint256)"
          },
          {
            "astId": 4442,
            "contract": "contracts/facets/YieldGemFacet.sol:YieldGemFacet",
            "label": "timeOfLastSale",
            "offset": 0,
            "slot": "1",
            "type": "t_mapping(t_address,t_uint256)"
          }
        ],
        "numberOfBytes": "64"
      },
      "t_struct(DefoTokenLimitConfig)4375_storage": {
        "encoding": "inplace",
        "label": "struct DefoTokenLimitConfig",
        "members": [
          {
            "astId": 4370,
            "contract": "contracts/facets/YieldGemFacet.sol:YieldGemFacet",
            "label": "saleLimitPeriod",
            "offset": 0,
            "slot": "0",
            "type": "t_uint256"
          },
          {
            "astId": 4372,
            "contract": "contracts/facets/YieldGemFacet.sol:YieldGemFacet",
            "label": "saleLimitAmount",
            "offset": 0,
            "slot": "1",
            "type": "t_uint256"
          },
          {
            "astId": 4374,
            "contract": "contracts/facets/YieldGemFacet.sol:YieldGemFacet",
            "label": "limitByReward",
            "offset": 0,
            "slot": "2",
            "type": "t_bool"
          }
        ],
        "numberOfBytes": "96"
      },
      "t_struct(ERC721Storage)4351_storage": {
        "encoding": "inplace",
        "label": "struct ERC721Storage",
        "members": [
          {
            "astId": 4306,
            "contract": "contracts/facets/YieldGemFacet.sol:YieldGemFacet",
            "label": "name",
            "offset": 0,
            "slot": "0",
            "type": "t_string_storage"
          },
          {
            "astId": 4308,
            "contract": "contracts/facets/YieldGemFacet.sol:YieldGemFacet",
            "label": "symbol",
            "offset": 0,
            "slot": "1",
            "type": "t_string_storage"
          },
          {
            "astId": 4311,
            "contract": "contracts/facets/YieldGemFacet.sol:YieldGemFacet",
            "label": "tokenIdTracker",
            "offset": 0,
            "slot": "2",
            "type": "t_struct(Counter)2737_storage"
          },
          {
            "astId": 4315,
            "contract": "contracts/facets/YieldGemFacet.sol:YieldGemFacet",
            "label": "owners",
            "offset": 0,
            "slot": "3",
            "type": "t_mapping(t_uint256,t_address)"
          },
          {
            "astId": 4319,
            "contract": "contracts/facets/YieldGemFacet.sol:YieldGemFacet",
            "label": "balances",
            "offset": 0,
            "slot": "4",
            "type": "t_mapping(t_address,t_uint256)"
          },
          {
            "astId": 4323,
            "contract": "contracts/facets/YieldGemFacet.sol:YieldGemFacet",
            "label": "tokenApprovals",
            "offset": 0,
            "slot": "5",
            "type": "t_mapping(t_uint256,t_address)"
          },
          {
            "astId": 4329,
            "contract": "contracts/facets/YieldGemFacet.sol:YieldGemFacet",
            "label": "operatorApprovals",
            "offset": 0,
            "slot": "6",
            "type": "t_mapping(t_address,t_mapping(t_address,t_bool))"
          },
          {
            "astId": 4331,
            "contract": "contracts/facets/YieldGemFacet.sol:YieldGemFacet",
            "label": "baseURI",
            "offset": 0,
            "slot": "7",
            "type": "t_string_storage"
          },
          {
            "astId": 4337,
            "contract": "contracts/facets/YieldGemFacet.sol:YieldGemFacet",
            "label": "ownedTokens",
            "offset": 0,
            "slot": "8",
            "type": "t_mapping(t_address,t_mapping(t_uint256,t_uint256))"
          },
          {
            "astId": 4341,
            "contract": "contracts/facets/YieldGemFacet.sol:YieldGemFacet",
            "label": "ownedTokensIndex",
            "offset": 0,
            "slot": "9",
            "type": "t_mapping(t_uint256,t_uint256)"
          },
          {
            "astId": 4344,
            "contract": "contracts/facets/YieldGemFacet.sol:YieldGemFacet",
            "label": "allTokens",
            "offset": 0,
            "slot": "10",
            "type": "t_array(t_uint256)dyn_storage"
          },
          {
            "astId": 4348,
            "contract": "contracts/facets/YieldGemFacet.sol:YieldGemFacet",
            "label": "allTokensIndex",
            "offset": 0,
            "slot": "11",
            "type": "t_mapping(t_uint256,t_uint256)"
          },
          {
            "astId": 4350,
            "contract": "contracts/facets/YieldGemFacet.sol:YieldGemFacet",
            "label": "init",
            "offset": 0,
            "slot": "12",
            "type": "t_bool"
          }
        ],
        "numberOfBytes": "416"
      },
      "t_struct(Fi)4477_storage": {
        "encoding": "inplace",
        "label": "struct Fi",
        "members": [
          {
            "astId": 4458,
            "contract": "contracts/facets/YieldGemFacet.sol:YieldGemFacet",
            "label": "claimedGross",
            "offset": 0,
            "slot": "0",
            "type": "t_uint256"
          },
          {
            "astId": 4460,
            "contract": "contracts/facets/YieldGemFacet.sol:YieldGemFacet",
            "label": "claimedNet",
            "offset": 0,
            "slot": "1",
            "type": "t_uint256"
          },
          {
            "astId": 4462,
            "contract": "contracts/facets/YieldGemFacet.sol:YieldGemFacet",
            "label": "stakedGross",
            "offset": 0,
            "slot": "2",
            "type": "t_uint256"
          },
          {
            "astId": 4464,
            "contract": "contracts/facets/YieldGemFacet.sol:YieldGemFacet",
            "label": "stakedNet",
            "offset": 0,
            "slot": "3",
            "type": "t_uint256"
          },
          {
            "astId": 4466,
            "contract": "contracts/facets/YieldGemFacet.sol:YieldGemFacet",
            "label": "unStakedGross",
            "offset": 0,
            "slot": "4",
            "type": "t_uint256"
          },
          {
            "astId": 4468,
            "contract": "contracts/facets/YieldGemFacet.sol:YieldGemFacet",
            "label": "unStakedGrossUp",
            "offset": 0,
            "slot": "5",
            "type": "t_uint256"
          },
          {
            "astId": 4470,
            "contract": "contracts/facets/YieldGemFacet.sol:YieldGemFacet",
            "label": "unStakedNet",
            "offset": 0,
            "slot": "6",
            "type": "t_uint256"
          },
          {
            "astId": 4472,
            "contract": "contracts/facets/YieldGemFacet.sol:YieldGemFacet",
            "label": "donated",
            "offset": 0,
            "slot": "7",
            "type": "t_uint256"
          },
          {
            "astId": 4474,
            "contract": "contracts/facets/YieldGemFacet.sol:YieldGemFacet",
            "label": "claimTaxPaid",
            "offset": 0,
            "slot": "8",
            "type": "t_uint256"
          },
          {
            "astId": 4476,
            "contract": "contracts/facets/YieldGemFacet.sol:YieldGemFacet",
            "label": "vaultTaxPaid",
            "offset": 0,
            "slot": "9",
            "type": "t_uint256"
          }
        ],
        "numberOfBytes": "320"
      },
      "t_struct(Gem)4494_storage": {
        "encoding": "inplace",
        "label": "struct Gem",
        "members": [
          {
            "astId": 4479,
            "contract": "contracts/facets/YieldGemFacet.sol:YieldGemFacet",
            "label": "gemTypeId",
            "offset": 0,
            "slot": "0",
            "type": "t_uint8"
          },
          {
            "astId": 4482,
            "contract": "contracts/facets/YieldGemFacet.sol:YieldGemFacet",
            "label": "booster",
            "offset": 1,
            "slot": "0",
            "type": "t_enum(Booster)4456"
          },
          {
            "astId": 4484,
            "contract": "contracts/facets/YieldGemFacet.sol:YieldGemFacet",
            "label": "mintTime",
            "offset": 2,
            "slot": "0",
            "type": "t_uint32"
          },
          {
            "astId": 4486,
            "contract": "contracts/facets/YieldGemFacet.sol:YieldGemFacet",
            "label": "lastRewardWithdrawalTime",
            "offset": 6,
            "slot": "0",
            "type": "t_uint32"
          },
          {
            "astId": 4488,
            "contract": "contracts/facets/YieldGemFacet.sol:YieldGemFacet",
            "label": "lastMaintenanceTime",
            "offset": 10,
            "slot": "0",
            "type": "t_uint32"
          },
          {
            "astId": 4491,
            "contract": "contracts/facets/YieldGemFacet.sol:YieldGemFacet",
            "label": "fi",
            "offset": 0,
            "slot": "1",
            "type": "t_struct(Fi)4477_storage"
          },
          {
            "astId": 4493,
            "contract": "contracts/facets/YieldGemFacet.sol:YieldGemFacet",
            "label": "presold",
            "offset": 0,
            "slot": "11",
            "type": "t_bool"
          }
        ],
        "numberOfBytes": "384"
      },
      "t_struct(GemTypeConfig)4429_storage": {
        "encoding": "inplace",
        "label": "struct GemTypeConfig",
        "members": [
          {
            "astId": 4418,
            "contract": "contracts/facets/YieldGemFacet.sol:YieldGemFacet",
            "label": "maintenanceFeeDai",
            "offset": 0,
            "slot": "0",
            "type": "t_uint256"
          },
          {
            "astId": 4420,
            "contract": "contracts/facets/YieldGemFacet.sol:YieldGemFacet",
            "label": "rewardAmountDefo",
            "offset": 0,
            "slot": "1",
            "type": "t_uint256"
          },
          {
            "astId": 4424,
            "contract": "contracts/facets/YieldGemFacet.sol:YieldGemFacet",
            "label": "price",
            "offset": 0,
            "slot": "2",
            "type": "t_array(t_uint256)2_storage"
          },
          {
            "astId": 4426,
            "contract": "contracts/facets/YieldGemFacet.sol:YieldGemFacet",
            "label": "taperRewardsThresholdDefo",
            "offset": 0,
            "slot": "4",
            "type": "t_uint256"
          },
          {
            "astId": 4428,
            "contract": "contracts/facets/YieldGemFacet.sol:YieldGemFacet",
            "label": "maxMintsPerLimitWindow",
            "offset": 0,
            "slot": "5",
            "type": "t_uint8"
          }
        ],
        "numberOfBytes": "192"
      },
      "t_struct(GemTypeMintWindow)4434_storage": {
        "encoding": "inplace",
        "label": "struct GemTypeMintWindow",
        "members": [
          {
            "astId": 4431,
            "contract": "contracts/facets/YieldGemFacet.sol:YieldGemFacet",
            "label": "mintCount",
            "offset": 0,
            "slot": "0",
            "type": "t_uint256"
          },
          {
            "astId": 4433,
            "contract": "contracts/facets/YieldGemFacet.sol:YieldGemFacet",
            "label": "endOfMintLimitWindow",
            "offset": 0,
            "slot": "1",
            "type": "t_uint32"
          }
        ],
        "numberOfBytes": "64"
      },
      "t_struct(ProtocolConfig)4416_storage": {
        "encoding": "inplace",
        "label": "struct ProtocolConfig",
        "members": [
          {
            "astId": 4380,
            "contract": "contracts/facets/YieldGemFacet.sol:YieldGemFacet",
            "label": "paymentTokens",
            "offset": 0,
            "slot": "0",
            "type": "t_array(t_contract(IERC20)737)2_storage"
          },
          {
            "astId": 4384,
            "contract": "contracts/facets/YieldGemFacet.sol:YieldGemFacet",
            "label": "wallets",
            "offset": 0,
            "slot": "2",
            "type": "t_array(t_address)7_storage"
          },
          {
            "astId": 4390,
            "contract": "contracts/facets/YieldGemFacet.sol:YieldGemFacet",
            "label": "incomeDistributionOnMint",
            "offset": 0,
            "slot": "9",
            "type": "t_array(t_array(t_uint256)3_storage)2_storage"
          },
          {
            "astId": 4392,
            "contract": "contracts/facets/YieldGemFacet.sol:YieldGemFacet",
            "label": "maintenancePeriod",
            "offset": 0,
            "slot": "15",
            "type": "t_uint32"
          },
          {
            "astId": 4394,
            "contract": "contracts/facets/YieldGemFacet.sol:YieldGemFacet",
            "label": "rewardPeriod",
            "offset": 4,
            "slot": "15",
            "type": "t_uint32"
          },
          {
            "astId": 4396,
            "contract": "contracts/facets/YieldGemFacet.sol:YieldGemFacet",
            "label": "taxScaleSinceLastClaimPeriod",
            "offset": 8,
            "slot": "15",
            "type": "t_uint32"
          },
          {
            "astId": 4400,
            "contract": "contracts/facets/YieldGemFacet.sol:YieldGemFacet",
            "label": "taxRates",
            "offset": 0,
            "slot": "16",
            "type": "t_array(t_uint256)5_storage"
          },
          {
            "astId": 4402,
            "contract": "contracts/facets/YieldGemFacet.sol:YieldGemFacet",
            "label": "charityContributionRate",
            "offset": 0,
            "slot": "21",
            "type": "t_uint256"
          },
          {
            "astId": 4404,
            "contract": "contracts/facets/YieldGemFacet.sol:YieldGemFacet",
            "label": "vaultWithdrawalTaxRate",
            "offset": 0,
            "slot": "22",
            "type": "t_uint256"
          },
          {
            "astId": 4406,
            "contract": "contracts/facets/YieldGemFacet.sol:YieldGemFacet",
            "label": "taperRate",
            "offset": 0,
            "slot": "23",
            "type": "t_uint256"
          },
          {
            "astId": 4408,
            "contract": "contracts/facets/YieldGemFacet.sol:YieldGemFacet",
            "label": "mintLock",
            "offset": 0,
            "slot": "24",
            "type": "t_bool"
          },
          {
            "astId": 4410,
            "contract": "contracts/facets/YieldGemFacet.sol:YieldGemFacet",
            "label": "transferLock",
            "offset": 1,
            "slot": "24",
            "type": "t_bool"
          },
          {
            "astId": 4412,
            "contract": "contracts/facets/YieldGemFacet.sol:YieldGemFacet",
            "label": "mintLimitWindow",
            "offset": 2,
            "slot": "24",
            "type": "t_uint32"
          },
          {
            "astId": 4415,
            "contract": "contracts/facets/YieldGemFacet.sol:YieldGemFacet",
            "label": "defoTokenLimitConfig",
            "offset": 0,
            "slot": "25",
            "type": "t_struct(DefoTokenLimitConfig)4375_storage"
          }
        ],
        "numberOfBytes": "896"
      },
      "t_uint256": {
        "encoding": "inplace",
        "label": "uint256",
        "numberOfBytes": "32"
      },
      "t_uint32": {
        "encoding": "inplace",
        "label": "uint32",
        "numberOfBytes": "4"
      },
      "t_uint8": {
        "encoding": "inplace",
        "label": "uint8",
        "numberOfBytes": "1"
      }
    }
  }
}