{
  "address": "0x66B4F3E96dfc731c5D7290d639C0845775a80BFC",
  "abi": [
    {
      "anonymous": false,
      "inputs": [
        {
          "components": [
            {
              "internalType": "contract IERC20[2]",
              "name": "paymentTokens",
              "type": "address[2]"
            },
            {
              "internalType": "address[7]",
              "name": "wallets",
              "type": "address[7]"
            },
            {
              "internalType": "uint256[3][2]",
              "name": "incomeDistributionOnMint",
              "type": "uint256[3][2]"
            },
            {
              "internalType": "uint32",
              "name": "maintenancePeriod",
              "type": "uint32"
            },
            {
              "internalType": "uint32",
              "name": "rewardPeriod",
              "type": "uint32"
            },
            {
              "internalType": "uint32",
              "name": "taxScaleSinceLastClaimPeriod",
              "type": "uint32"
            },
            {
              "internalType": "uint256[5]",
              "name": "taxRates",
              "type": "uint256[5]"
            },
            {
              "internalType": "uint256",
              "name": "charityContributionRate",
              "type": "uint256"
            },
            {
              "internalType": "uint256",
              "name": "vaultWithdrawalTaxRate",
              "type": "uint256"
            },
            {
              "internalType": "uint256",
              "name": "taperRate",
              "type": "uint256"
            },
            {
              "internalType": "bool",
              "name": "mintLock",
              "type": "bool"
            },
            {
              "internalType": "bool",
              "name": "transferLock",
              "type": "bool"
            },
            {
              "internalType": "uint32",
              "name": "mintLimitWindow",
              "type": "uint32"
            },
            {
              "components": [
                {
                  "internalType": "uint256",
                  "name": "saleLimitPeriod",
                  "type": "uint256"
                },
                {
                  "internalType": "uint256",
                  "name": "saleLimitAmount",
                  "type": "uint256"
                },
                {
                  "internalType": "bool",
                  "name": "limitByReward",
                  "type": "bool"
                }
              ],
              "internalType": "struct DefoTokenLimitConfig",
              "name": "defoTokenLimitConfig",
              "type": "tuple"
            }
          ],
          "indexed": false,
          "internalType": "struct ProtocolConfig",
          "name": "config",
          "type": "tuple"
        }
      ],
      "name": "ConfigurationChange",
      "type": "event"
    },
    {
      "anonymous": false,
      "inputs": [
        {
          "components": [
            {
              "internalType": "uint256",
              "name": "maintenanceFeeDai",
              "type": "uint256"
            },
            {
              "internalType": "uint256",
              "name": "rewardAmountDefo",
              "type": "uint256"
            },
            {
              "internalType": "uint256[2]",
              "name": "price",
              "type": "uint256[2]"
            },
            {
              "internalType": "uint256",
              "name": "taperRewardsThresholdDefo",
              "type": "uint256"
            },
            {
              "internalType": "uint256",
              "name": "maxMintsPerLimitWindow",
              "type": "uint256"
            }
          ],
          "indexed": false,
          "internalType": "struct GemTypeConfig",
          "name": "_gemTypeConfig",
          "type": "tuple"
        }
      ],
      "name": "GemTypeConfigurationChange",
      "type": "event"
    },
    {
      "inputs": [
        {
          "internalType": "address",
          "name": "_routerWallet",
          "type": "address"
        }
      ],
      "name": "approveDefoForRouter",
      "outputs": [],
      "stateMutability": "nonpayable",
      "type": "function"
    },
    {
      "inputs": [],
      "name": "getConfig",
      "outputs": [
        {
          "components": [
            {
              "internalType": "contract IERC20[2]",
              "name": "paymentTokens",
              "type": "address[2]"
            },
            {
              "internalType": "address[7]",
              "name": "wallets",
              "type": "address[7]"
            },
            {
              "internalType": "uint256[3][2]",
              "name": "incomeDistributionOnMint",
              "type": "uint256[3][2]"
            },
            {
              "internalType": "uint32",
              "name": "maintenancePeriod",
              "type": "uint32"
            },
            {
              "internalType": "uint32",
              "name": "rewardPeriod",
              "type": "uint32"
            },
            {
              "internalType": "uint32",
              "name": "taxScaleSinceLastClaimPeriod",
              "type": "uint32"
            },
            {
              "internalType": "uint256[5]",
              "name": "taxRates",
              "type": "uint256[5]"
            },
            {
              "internalType": "uint256",
              "name": "charityContributionRate",
              "type": "uint256"
            },
            {
              "internalType": "uint256",
              "name": "vaultWithdrawalTaxRate",
              "type": "uint256"
            },
            {
              "internalType": "uint256",
              "name": "taperRate",
              "type": "uint256"
            },
            {
              "internalType": "bool",
              "name": "mintLock",
              "type": "bool"
            },
            {
              "internalType": "bool",
              "name": "transferLock",
              "type": "bool"
            },
            {
              "internalType": "uint32",
              "name": "mintLimitWindow",
              "type": "uint32"
            },
            {
              "components": [
                {
                  "internalType": "uint256",
                  "name": "saleLimitPeriod",
                  "type": "uint256"
                },
                {
                  "internalType": "uint256",
                  "name": "saleLimitAmount",
                  "type": "uint256"
                },
                {
                  "internalType": "bool",
                  "name": "limitByReward",
                  "type": "bool"
                }
              ],
              "internalType": "struct DefoTokenLimitConfig",
              "name": "defoTokenLimitConfig",
              "type": "tuple"
            }
          ],
          "internalType": "struct ProtocolConfig",
          "name": "",
          "type": "tuple"
        }
      ],
      "stateMutability": "view",
      "type": "function"
    },
    {
      "inputs": [],
      "name": "getGemTypesConfig",
      "outputs": [
        {
          "components": [
            {
              "internalType": "uint256",
              "name": "maintenanceFeeDai",
              "type": "uint256"
            },
            {
              "internalType": "uint256",
              "name": "rewardAmountDefo",
              "type": "uint256"
            },
            {
              "internalType": "uint256[2]",
              "name": "price",
              "type": "uint256[2]"
            },
            {
              "internalType": "uint256",
              "name": "taperRewardsThresholdDefo",
              "type": "uint256"
            },
            {
              "internalType": "uint256",
              "name": "maxMintsPerLimitWindow",
              "type": "uint256"
            }
          ],
          "internalType": "struct GemTypeConfig[]",
          "name": "",
          "type": "tuple[]"
        }
      ],
      "stateMutability": "view",
      "type": "function"
    },
    {
      "inputs": [
        {
          "internalType": "address",
          "name": "_user",
          "type": "address"
        }
      ],
      "name": "getTotal",
      "outputs": [
        {
          "components": [
            {
              "internalType": "uint256",
              "name": "claimedGross",
              "type": "uint256"
            },
            {
              "internalType": "uint256",
              "name": "claimedNet",
              "type": "uint256"
            },
            {
              "internalType": "uint256",
              "name": "stakedGross",
              "type": "uint256"
            },
            {
              "internalType": "uint256",
              "name": "stakedNet",
              "type": "uint256"
            },
            {
              "internalType": "uint256",
              "name": "unStakedGross",
              "type": "uint256"
            },
            {
              "internalType": "uint256",
              "name": "unStakedGrossUp",
              "type": "uint256"
            },
            {
              "internalType": "uint256",
              "name": "unStakedNet",
              "type": "uint256"
            },
            {
              "internalType": "uint256",
              "name": "donated",
              "type": "uint256"
            },
            {
              "internalType": "uint256",
              "name": "claimTaxPaid",
              "type": "uint256"
            },
            {
              "internalType": "uint256",
              "name": "vaultTaxPaid",
              "type": "uint256"
            }
          ],
          "internalType": "struct Fi",
          "name": "",
          "type": "tuple"
        }
      ],
      "stateMutability": "view",
      "type": "function"
    },
    {
      "inputs": [],
      "name": "getTotals",
      "outputs": [
        {
          "components": [
            {
              "internalType": "uint256",
              "name": "claimedGross",
              "type": "uint256"
            },
            {
              "internalType": "uint256",
              "name": "claimedNet",
              "type": "uint256"
            },
            {
              "internalType": "uint256",
              "name": "stakedGross",
              "type": "uint256"
            },
            {
              "internalType": "uint256",
              "name": "stakedNet",
              "type": "uint256"
            },
            {
              "internalType": "uint256",
              "name": "unStakedGross",
              "type": "uint256"
            },
            {
              "internalType": "uint256",
              "name": "unStakedGrossUp",
              "type": "uint256"
            },
            {
              "internalType": "uint256",
              "name": "unStakedNet",
              "type": "uint256"
            },
            {
              "internalType": "uint256",
              "name": "donated",
              "type": "uint256"
            },
            {
              "internalType": "uint256",
              "name": "claimTaxPaid",
              "type": "uint256"
            },
            {
              "internalType": "uint256",
              "name": "vaultTaxPaid",
              "type": "uint256"
            }
          ],
          "internalType": "struct Fi",
          "name": "",
          "type": "tuple"
        }
      ],
      "stateMutability": "view",
      "type": "function"
    },
    {
      "inputs": [],
      "name": "lockMint",
      "outputs": [],
      "stateMutability": "nonpayable",
      "type": "function"
    },
    {
      "inputs": [],
      "name": "pause",
      "outputs": [],
      "stateMutability": "nonpayable",
      "type": "function"
    },
    {
      "inputs": [
        {
          "internalType": "uint256",
          "name": "_charityContributionRate",
          "type": "uint256"
        }
      ],
      "name": "setCharityContributionRate",
      "outputs": [],
      "stateMutability": "nonpayable",
      "type": "function"
    },
    {
      "inputs": [
        {
          "components": [
            {
              "internalType": "contract IERC20[2]",
              "name": "paymentTokens",
              "type": "address[2]"
            },
            {
              "internalType": "address[7]",
              "name": "wallets",
              "type": "address[7]"
            },
            {
              "internalType": "uint256[3][2]",
              "name": "incomeDistributionOnMint",
              "type": "uint256[3][2]"
            },
            {
              "internalType": "uint32",
              "name": "maintenancePeriod",
              "type": "uint32"
            },
            {
              "internalType": "uint32",
              "name": "rewardPeriod",
              "type": "uint32"
            },
            {
              "internalType": "uint32",
              "name": "taxScaleSinceLastClaimPeriod",
              "type": "uint32"
            },
            {
              "internalType": "uint256[5]",
              "name": "taxRates",
              "type": "uint256[5]"
            },
            {
              "internalType": "uint256",
              "name": "charityContributionRate",
              "type": "uint256"
            },
            {
              "internalType": "uint256",
              "name": "vaultWithdrawalTaxRate",
              "type": "uint256"
            },
            {
              "internalType": "uint256",
              "name": "taperRate",
              "type": "uint256"
            },
            {
              "internalType": "bool",
              "name": "mintLock",
              "type": "bool"
            },
            {
              "internalType": "bool",
              "name": "transferLock",
              "type": "bool"
            },
            {
              "internalType": "uint32",
              "name": "mintLimitWindow",
              "type": "uint32"
            },
            {
              "components": [
                {
                  "internalType": "uint256",
                  "name": "saleLimitPeriod",
                  "type": "uint256"
                },
                {
                  "internalType": "uint256",
                  "name": "saleLimitAmount",
                  "type": "uint256"
                },
                {
                  "internalType": "bool",
                  "name": "limitByReward",
                  "type": "bool"
                }
              ],
              "internalType": "struct DefoTokenLimitConfig",
              "name": "defoTokenLimitConfig",
              "type": "tuple"
            }
          ],
          "internalType": "struct ProtocolConfig",
          "name": "_config",
          "type": "tuple"
        }
      ],
      "name": "setConfig",
      "outputs": [],
      "stateMutability": "nonpayable",
      "type": "function"
    },
    {
      "inputs": [
        {
          "components": [
            {
              "internalType": "uint256",
              "name": "saleLimitPeriod",
              "type": "uint256"
            },
            {
              "internalType": "uint256",
              "name": "saleLimitAmount",
              "type": "uint256"
            },
            {
              "internalType": "bool",
              "name": "limitByReward",
              "type": "bool"
            }
          ],
          "internalType": "struct DefoTokenLimitConfig",
          "name": "_defoTokenLimitConfig",
          "type": "tuple"
        }
      ],
      "name": "setConfigDefoTokenLimitConfig",
      "outputs": [],
      "stateMutability": "nonpayable",
      "type": "function"
    },
    {
      "inputs": [
        {
          "internalType": "uint256[3][2]",
          "name": "_incomeDistributionOnMint",
          "type": "uint256[3][2]"
        }
      ],
      "name": "setConfigIncomeDistributionOnMint",
      "outputs": [],
      "stateMutability": "nonpayable",
      "type": "function"
    },
    {
      "inputs": [
        {
          "internalType": "uint32",
          "name": "_maintenancePeriod",
          "type": "uint32"
        }
      ],
      "name": "setConfigMaintenancePeriod",
      "outputs": [],
      "stateMutability": "nonpayable",
      "type": "function"
    },
    {
      "inputs": [
        {
          "internalType": "uint32",
          "name": "_mintLimitWindow",
          "type": "uint32"
        }
      ],
      "name": "setConfigMintLimitWindow",
      "outputs": [],
      "stateMutability": "nonpayable",
      "type": "function"
    },
    {
      "inputs": [
        {
          "internalType": "uint32",
          "name": "_rewardPeriod",
          "type": "uint32"
        }
      ],
      "name": "setConfigRewardPeriod",
      "outputs": [],
      "stateMutability": "nonpayable",
      "type": "function"
    },
    {
      "inputs": [
        {
          "internalType": "uint256",
          "name": "_taperRate",
          "type": "uint256"
        }
      ],
      "name": "setConfigTaperRate",
      "outputs": [],
      "stateMutability": "nonpayable",
      "type": "function"
    },
    {
      "inputs": [
        {
          "internalType": "uint256[5]",
          "name": "_taxRates",
          "type": "uint256[5]"
        }
      ],
      "name": "setConfigTaxRates",
      "outputs": [],
      "stateMutability": "nonpayable",
      "type": "function"
    },
    {
      "inputs": [
        {
          "internalType": "uint32",
          "name": "_taxScaleSinceLastClaimPeriod",
          "type": "uint32"
        }
      ],
      "name": "setConfigTaxScaleSinceLastClaimPeriod",
      "outputs": [],
      "stateMutability": "nonpayable",
      "type": "function"
    },
    {
      "inputs": [
        {
          "internalType": "uint256",
          "name": "_vaultWithdrawalTaxRate",
          "type": "uint256"
        }
      ],
      "name": "setConfigVaultWithdrawalTaxRate",
      "outputs": [],
      "stateMutability": "nonpayable",
      "type": "function"
    },
    {
      "inputs": [
        {
          "internalType": "address[7]",
          "name": "_wallets",
          "type": "address[7]"
        }
      ],
      "name": "setConfigWallets",
      "outputs": [],
      "stateMutability": "nonpayable",
      "type": "function"
    },
    {
      "inputs": [
        {
          "components": [
            {
              "internalType": "uint256",
              "name": "maintenanceFeeDai",
              "type": "uint256"
            },
            {
              "internalType": "uint256",
              "name": "rewardAmountDefo",
              "type": "uint256"
            },
            {
              "internalType": "uint256[2]",
              "name": "price",
              "type": "uint256[2]"
            },
            {
              "internalType": "uint256",
              "name": "taperRewardsThresholdDefo",
              "type": "uint256"
            },
            {
              "internalType": "uint256",
              "name": "maxMintsPerLimitWindow",
              "type": "uint256"
            }
          ],
          "internalType": "struct GemTypeConfig[]",
          "name": "_gemTypeConfig",
          "type": "tuple[]"
        }
      ],
      "name": "setGemTypesConfig",
      "outputs": [],
      "stateMutability": "nonpayable",
      "type": "function"
    },
    {
      "inputs": [],
      "name": "unlockMint",
      "outputs": [],
      "stateMutability": "nonpayable",
      "type": "function"
    },
    {
      "inputs": [],
      "name": "unpause",
      "outputs": [],
      "stateMutability": "nonpayable",
      "type": "function"
    },
    {
      "inputs": [
        {
          "internalType": "uint8",
          "name": "_gemTypeId",
          "type": "uint8"
        }
      ],
      "name": "zeroMintCount",
      "outputs": [],
      "stateMutability": "nonpayable",
      "type": "function"
    }
  ],
  "transactionHash": "0x31aa3d7c61350d9a02d2040bf80b52c82cf3e6d891af75c93b67f1b2eaba61dd",
  "args": [],
  "numDeployments": 12,
  "solcInputHash": "b7461f5631409dd9913020e8ffbbbd48",
  "bytecode": "0x608060405234801561001057600080fd5b50611e43806100206000396000f3fe608060405234801561001057600080fd5b506004361061014d5760003560e01c80636bfe99ec116100c35780638ad15c211161007c5780638ad15c21146102ef5780639956d1db14610302578063c3f909d414610315578063d864d02a1461032a578063e0b6bb671461033d578063ebb6dad81461034557600080fd5b80636bfe99ec1461020f57806383c7d152146102225780638456cb591461023557806384e10a901461023d5780638838640e146102c75780638a1ad325146102dc57600080fd5b806364fa26671161011557806364fa26671461019d578063683da553146101b0578063685e2a9a146101c3578063689da232146101d657806369d40589146101e95780636bcb63d6146101fc57600080fd5b806315a0a4be146101525780633f4ba83a146101675780633f5db5ca1461016f57806341ef35c6146101825780635a9a664f14610195575b600080fd5b610165610160366004611348565b610358565b005b610165610412565b61016561017d36600461136c565b610424565b6101656101903660046114c4565b61045c565b610165610475565b6101656101ab3660046114e0565b610485565b6101656101be36600461150d565b61062d565b6101656101d1366004611528565b610659565b6101656101e4366004611541565b610666565b6101656101f736600461150d565b610810565b61016561020a36600461150d565b61083e565b61016561021d36600461164f565b61086e565b6101656102303660046116d7565b610883565b6101656108a3565b6102456108b3565b6040516102be9190600061014082019050825182526020830151602083015260408301516040830152606083015160608301526080830151608083015260a083015160a083015260c083015160c083015260e083015160e083015261010080840151818401525061012080840151818401525092915050565b60405180910390f35b6102cf610923565b6040516102be91906116f3565b6101656102ea36600461150d565b6109de565b6101656102fd366004611528565b610a02565b610165610310366004611785565b610a0f565b61031d610a4e565b6040516102be919061186a565b610165610338366004611528565b610c3e565b610165610c4b565b610245610353366004611348565b610c5b565b610360610cfc565b603c80546001600160a01b0319166001600160a01b03831617905560008060015b6002811061039157610391611963565b0154603c5460405163095ea7b360e01b81526001600160a01b039182166004820152600019602482015291169150819063095ea7b3906044016020604051808303816000875af11580156103e9573d6000803e3d6000fd5b505050506040513d601f19601f8201168201806040525081019061040d9190611987565b505050565b61041a610cfc565b610422610d88565b565b61042c610cfc565b60008081601d018360ff168154811061044757610447611963565b60009182526020822060029091020155505050565b610464610cfc565b6104716010826005610f44565b5050565b61047d610cfc565b610422610dd5565b61048d610cfc565b600061049e36839003830183611a6e565b805190915081906000906104b59082906002610f82565b5060208201516104cb9060028301906007610fca565b5060408201516104e19060098301906002611011565b506060820151600f82018054608085015160a086015163ffffffff908116600160401b0263ffffffff60401b199282166401000000000267ffffffffffffffff199094169190951617919091171691909117905560c082015161054a9060108301906005610f44565b5060e08201516015820155610100808301516016830155610120830151601783015561014083015160188301805461016086015161018087015161ffff1990921693151561ff001916939093179215159093029190911765ffffffff000019166201000063ffffffff909316929092029190911790556101a090910151805160198301556020810151601a830155604090810151601b909201805460ff191692151592909217909155517fe187417c9675ae5cc80acb8ab43a9ae12145aa303ca0ea50e84d060e5ef46aa790610621908490611c46565b60405180910390a15050565b610635610cfc565b6018805463ffffffff909216620100000265ffffffff000019909216919091179055565b610661610cfc565b601555565b61066e610cfc565b61067a603d6000611058565b610686601d600061107c565b60005b8181101561040d5760008383838181106106a5576106a5611963565b905060c002018036038101906106bb9190611d43565b603d8054600181018255600091909152815160069091027fece66cfdbd22e3f37d348a3d8e19074452862cd65fd4b9a11f0336d1ac6d1dc3810191825560208301517fece66cfdbd22e3f37d348a3d8e19074452862cd65fd4b9a11f0336d1ac6d1dc482015560408301519293508392610759917fece66cfdbd22e3f37d348a3d8e19074452862cd65fd4b9a11f0336d1ac6d1dc50190600261109d565b5060608201516004820155608090910151600590910155506040805180820190915260008082524263ffffffff90811660208401908152601d8054600181018255935292517f6d4407e7be21f808e6509aa9fa9143369579dd7d760fe20a2c09680fc146134f60029093029283015591517f6d4407e7be21f808e6509aa9fa9143369579dd7d760fe20a2c09680fc1461350909101805463ffffffff1916919092161790558061080881611dca565b915050610689565b610818610cfc565b600f805463ffffffff909216600160401b0263ffffffff60401b19909216919091179055565b610846610cfc565b600f805463ffffffff9092166401000000000267ffffffff0000000019909216919091179055565b610876610cfc565b6104716009826002611011565b61088b610cfc565b6108986002826007610fca565b506000806001610381565b6108ab610cfc565b610422610e0d565b6108bb6110ca565b6108c3610cfc565b506040805161014081018252602e548152602f546020820152603054918101919091526031546060820152603254608082015260335460a082015260345460c082015260355460e082015260365461010082015260375461012082015290565b60606000603d01805480602002602001604051908101604052809291908181526020016000905b828210156109d55760008481526020908190206040805160a081018252600686029092018054835260018101549383019390935280518082018083529293929184019160028085019182845b8154815260200190600101908083116109965750505050508152602001600482015481526020016005820154815250508152602001906001019061094a565b50505050905090565b6109e6610cfc565b600f805463ffffffff191663ffffffff92909216919091179055565b610a0a610cfc565b601655565b610a17610cfc565b6000610a2836839003830183611df1565b80516019556020810151601a5560400151601b805460ff19169115159190911790555050565b610a5661111d565b6040805161020081019091526000816101c081018260028282826020028201915b81546001600160a01b03168152600190910190602001808311610a775750505091835250506040805160e081019182905260209092019190600284019060079082845b81546001600160a01b03168152600190910190602001808311610aba575050509183525050604080518082019091526020909101906009830160026000835b82821015610b405760408051606081019182905290600384810287019182845b815481526020019060010190808311610b1957505050505081526020019060010190610af9565b50505090825250600f82015463ffffffff808216602084015264010000000082048116604080850191909152600160401b909204166060830152805160a081019182905260809092019190601084019060059082845b815481526020019060010190808311610b96575050509183525050601582015460208083019190915260168301546040808401919091526017840154606080850191909152601885015460ff8082161515608087015261010082048116151560a08701526201000090910463ffffffff1660c08601528251918201835260198601548252601a86015493820193909352601b9094015490911615159083015260e00152919050565b610c46610cfc565b601755565b610c53610cfc565b610422610e57565b610c636110ca565b610c6b610cfc565b506001600160a01b038116600090815260386020908152604091829020825161014081018452815481526001820154928101929092526002810154928201929092526003820154606082015260048201546080820152600582015460a0820152600682015460c0820152600782015460e082015260088201546101008201526009909101546101208201525b919050565b7fc8fcad8db84d3cc18b4c41d551ea0ee66dd599cde068d998e57d5e09332c131c600401546001600160a01b031633146104225760405162461bcd60e51b815260206004820152602260248201527f4c69624469616d6f6e643a204d75737420626520636f6e7472616374206f776e60448201526132b960f11b60648201526084015b60405180910390fd5b610d90610e92565b6018805461ff00191690556040513381526000907f5db9ee0a495bf2e6ff9c91a7834c1ba4fdd244a5e8aa4e537bd38aeae4b073aa906020015b60405180910390a150565b6018805460ff191690556040516000907f16fe33fab5fd851b7e9a856a666ea43cc5515bbb51689c3d370085d004418123908290a150565b610e15610ee0565b6018805461ff0019166101001790556040513381526000907f62e78cea01bee320cd4e420270b5ea74000d11b0c9f74754ebdbfc544b05a25890602001610dca565b6018805460ff191660011790556040516000907faa71a6e005bc4e0ea53d6184338a28d3f4737f18bed30c92d93a239ad5a71747908290a150565b601854610100900460ff166104225760405162461bcd60e51b815260206004820152601460248201527314185d5cd8589b194e881b9bdd081c185d5cd95960621b6044820152606401610d7f565b601854610100900460ff16156104225760405162461bcd60e51b8152602060048201526024808201527f5061757361626c653a207061757365642c207472616e73666572206973206c6f60448201526318dad95960e21b6064820152608401610d7f565b8260058101928215610f72579160200282015b82811115610f72578251825591602001919060010190610f57565b50610f7e9291506111d1565b5090565b8260028101928215610f72579160200282015b82811115610f7257825182546001600160a01b0319166001600160a01b03909116178255602090920191600190910190610f95565b8260078101928215610f725791602002820182811115610f7257825182546001600160a01b0319166001600160a01b03909116178255602090920191600190910190610f95565b60068301918390821561104c579160200282015b8281111561104c57825161103c90839060036111e6565b5091602001919060030190611025565b50610f7e929150611213565b50805460008255600602906000526020600020908101906110799190611234565b50565b5080546000825560020290600052602060002090810190611079919061126a565b8260028101928215610f725791602002820182811115610f72578251825591602001919060010190610f57565b604051806101400160405280600081526020016000815260200160008152602001600081526020016000815260200160008152602001600081526020016000815260200160008152602001600081525090565b604051806101c0016040528061113161128e565b815260200161113e6112ac565b815260200161114b6112ca565b815260006020820181905260408201819052606082015260800161116d6112f7565b8152602001600081526020016000815260200160008152602001600015158152602001600015158152602001600063ffffffff1681526020016111cc604051806060016040528060008152602001600081526020016000151581525090565b905290565b5b80821115610f7e57600081556001016111d2565b8260038101928215610f725791602002820182811115610f72578251825591602001919060010190610f57565b80821115610f7e576000808255600182018190556002820155600301611213565b80821115610f7e576000808255600182018190556002820181905560038201819055600482018190556005820155600601611234565b5b80821115610f7e576000815560018101805463ffffffff1916905560020161126b565b60405180604001604052806002906020820280368337509192915050565b6040518060e001604052806007906020820280368337509192915050565b60405180604001604052806002905b6112e1611315565b8152602001906001900390816112d95790505090565b6040518060a001604052806005906020820280368337509192915050565b60405180606001604052806003906020820280368337509192915050565b6001600160a01b038116811461107957600080fd5b60006020828403121561135a57600080fd5b813561136581611333565b9392505050565b60006020828403121561137e57600080fd5b813560ff8116811461136557600080fd5b634e487b7160e01b600052604160045260246000fd5b6040516101c0810167ffffffffffffffff811182821017156113c9576113c961138f565b60405290565b6040805190810167ffffffffffffffff811182821017156113c9576113c961138f565b6040516060810167ffffffffffffffff811182821017156113c9576113c961138f565b600061141f6113cf565b905080604083018481111561143357600080fd5b835b8181101561144d578035835260209283019201611435565b50505092915050565b600082601f83011261146757600080fd5b60405160a0810181811067ffffffffffffffff8211171561148a5761148a61138f565b6040528060a084018581111561149f57600080fd5b845b818110156114b95780358352602092830192016114a1565b509195945050505050565b600060a082840312156114d657600080fd5b6113658383611456565b600061040082840312156114f357600080fd5b50919050565b803563ffffffff81168114610cf757600080fd5b60006020828403121561151f57600080fd5b611365826114f9565b60006020828403121561153a57600080fd5b5035919050565b6000806020838503121561155457600080fd5b823567ffffffffffffffff8082111561156c57600080fd5b818501915085601f83011261158057600080fd5b81358181111561158f57600080fd5b86602060c0830285010111156115a457600080fd5b60209290920196919550909350505050565b6000601f83818401126115c857600080fd5b6115d06113cf565b8060c08501868111156115e257600080fd5b855b818110156116435787858201126115fb5760008081fd5b6116036113f2565b80606083018a8111156116165760008081fd5b835b81811015611630578035845260209384019301611618565b50508552506020909301926060016115e4565b50909695505050505050565b600060c0828403121561166157600080fd5b61136583836115b6565b600082601f83011261167c57600080fd5b60405160e0810181811067ffffffffffffffff8211171561169f5761169f61138f565b6040528060e08401858111156116b457600080fd5b845b818110156114b95780356116c981611333565b8352602092830192016116b6565b600060e082840312156116e957600080fd5b611365838361166b565b60208082528251828201819052600091906040908185019086840185805b8381101561177757825180518652878101518887015286810151878701845b600281101561174d5782518252918a0191908a0190600101611730565b5050506060810151608087810191909152015160a086015260c09094019391860191600101611711565b509298975050505050505050565b6000606082840312156114f357600080fd5b8060005b60028110156117c35781516001600160a01b031684526020938401939091019060010161179b565b50505050565b8060005b60078110156117c35781516001600160a01b03168452602093840193909101906001016117cd565b806000805b600281101561184057825185835b6003811015611827578251825260209283019290910190600101611808565b50505060609490940193602092909201916001016117fa565b5050505050565b8060005b60058110156117c357815184526020938401939091019060010161184b565b60006104008201905061187e828451611797565b602083015161189060408401826117c9565b5060408301516101206118a5818501836117f5565b606085015163ffffffff9081166101e08601526080860151811661020086015260a08601511661022085015260c085015191506118e6610240850183611847565b60e08501516102e0850152610100850151610300850152840151610320840152506101408301511515610340830152610160830151151561036083015261018083015163ffffffff166103808301526101a083015180516103a084015260208101516103c0840152604081015115156103e08401525b5092915050565b634e487b7160e01b600052603260045260246000fd5b801515811461107957600080fd5b60006020828403121561199957600080fd5b815161136581611979565b600082601f8301126119b557600080fd5b6119bd6113cf565b8060408401858111156119cf57600080fd5b845b818110156119f25780356119e481611333565b8452602093840193016119d1565b509095945050505050565b8035610cf781611979565b600060608284031215611a1a57600080fd5b6040516060810181811067ffffffffffffffff82111715611a3d57611a3d61138f565b806040525080915082358152602083013560208201526040830135611a6181611979565b6040919091015292915050565b60006104008284031215611a8157600080fd5b611a896113a5565b611a9384846119a4565b8152611aa2846040850161166b565b6020820152610120611ab6858286016115b6565b6040830152611ac86101e085016114f9565b6060830152611ada61020085016114f9565b6080830152611aec61022085016114f9565b60a0830152611aff856102408601611456565b60c08301526102e084013560e083015261030084013561010083015261032084013590820152611b3261034084016119fd565b610140820152611b4561036084016119fd565b610160820152611b5861038084016114f9565b610180820152611b6c846103a08501611a08565b6101a08201529392505050565b8060005b60028110156117c3578135611b9181611333565b6001600160a01b031684526020938401939190910190600101611b7d565b8060005b60078110156117c3578135611bc781611333565b6001600160a01b031684526020938401939190910190600101611bb3565b806000805b600281101561184057606080848737948501828152949290920191600101611bea565b60a081833750600060a082015250565b80358252602081013560208301526040810135611c3981611979565b8015156040840152505050565b6104008101611c558284611b79565b611c656040830160408501611baf565b610120611c76818401828601611be5565b506101e0611c858185016114f9565b63ffffffff1690830152610200611c9d8482016114f9565b63ffffffff1690830152610220611cb58482016114f9565b63ffffffff1690830152610240611cd0818401858301611c0d565b506102e0838101359083015261030080840135908301526103208084013590830152610340611d008185016119fd565b151590830152610360611d148482016119fd565b151590830152610380611d288482016114f9565b63ffffffff16908301526103a061195c818401858301611c1d565b600060c08284031215611d5557600080fd5b60405160a0810181811067ffffffffffffffff82111715611d7857611d7861138f565b8060405250823581526020830135602082015283605f840112611d9a57600080fd5b611da78460408501611415565b60408201526080830135606082015260a083013560808201528091505092915050565b600060018201611dea57634e487b7160e01b600052601160045260246000fd5b5060010190565b600060608284031215611e0357600080fd5b6113658383611a0856fea264697066735822122030f4959d8d8eff0bbdb0ed0618e54de6a5049f704f43b1d061a68d994dab2a0764736f6c634300080f0033",
  "devdoc": {
    "author": "Decentralized Foundation Team",
    "kind": "dev",
    "methods": {},
    "title": "ERC721Facet EIP-2535 Diamond Facet",
    "version": 1
  },
  "userdoc": {
    "kind": "user",
    "methods": {},
    "notice": "The Contract uses diamond storage providing functionality of ERC721, ERC721Enumerable, ERC721Burnable, ERC721Pausable",
    "version": 1
  },
  "storageLayout": {
    "storage": [
      {
        "astId": 4283,
        "contract": "contracts/facets/ConfigFacet.sol:ConfigFacet",
        "label": "s",
        "offset": 0,
        "slot": "0",
        "type": "t_struct(AppStorage)4545_storage"
      }
    ],
    "types": {
      "t_address": {
        "encoding": "inplace",
        "label": "address",
        "numberOfBytes": "20"
      },
      "t_array(t_address)7_storage": {
        "base": "t_address",
        "encoding": "inplace",
        "label": "address[7]",
        "numberOfBytes": "224"
      },
      "t_array(t_array(t_uint256)3_storage)2_storage": {
        "base": "t_array(t_uint256)3_storage",
        "encoding": "inplace",
        "label": "uint256[3][2]",
        "numberOfBytes": "192"
      },
      "t_array(t_contract(IERC20)737)2_storage": {
        "base": "t_contract(IERC20)737",
        "encoding": "inplace",
        "label": "contract IERC20[2]",
        "numberOfBytes": "64"
      },
      "t_array(t_struct(GemTypeConfig)4429_storage)dyn_storage": {
        "base": "t_struct(GemTypeConfig)4429_storage",
        "encoding": "dynamic_array",
        "label": "struct GemTypeConfig[]",
        "numberOfBytes": "32"
      },
      "t_array(t_struct(GemTypeMintWindow)4434_storage)dyn_storage": {
        "base": "t_struct(GemTypeMintWindow)4434_storage",
        "encoding": "dynamic_array",
        "label": "struct GemTypeMintWindow[]",
        "numberOfBytes": "32"
      },
      "t_array(t_uint256)2_storage": {
        "base": "t_uint256",
        "encoding": "inplace",
        "label": "uint256[2]",
        "numberOfBytes": "64"
      },
      "t_array(t_uint256)3_storage": {
        "base": "t_uint256",
        "encoding": "inplace",
        "label": "uint256[3]",
        "numberOfBytes": "96"
      },
      "t_array(t_uint256)5_storage": {
        "base": "t_uint256",
        "encoding": "inplace",
        "label": "uint256[5]",
        "numberOfBytes": "160"
      },
      "t_array(t_uint256)dyn_storage": {
        "base": "t_uint256",
        "encoding": "dynamic_array",
        "label": "uint256[]",
        "numberOfBytes": "32"
      },
      "t_bool": {
        "encoding": "inplace",
        "label": "bool",
        "numberOfBytes": "1"
      },
      "t_contract(IERC20)737": {
        "encoding": "inplace",
        "label": "contract IERC20",
        "numberOfBytes": "20"
      },
      "t_enum(Booster)4456": {
        "encoding": "inplace",
        "label": "enum Booster",
        "numberOfBytes": "1"
      },
      "t_mapping(t_address,t_bool)": {
        "encoding": "mapping",
        "key": "t_address",
        "label": "mapping(address => bool)",
        "numberOfBytes": "32",
        "value": "t_bool"
      },
      "t_mapping(t_address,t_mapping(t_address,t_bool))": {
        "encoding": "mapping",
        "key": "t_address",
        "label": "mapping(address => mapping(address => bool))",
        "numberOfBytes": "32",
        "value": "t_mapping(t_address,t_bool)"
      },
      "t_mapping(t_address,t_mapping(t_uint256,t_uint256))": {
        "encoding": "mapping",
        "key": "t_address",
        "label": "mapping(address => mapping(uint256 => uint256))",
        "numberOfBytes": "32",
        "value": "t_mapping(t_uint256,t_uint256)"
      },
      "t_mapping(t_address,t_mapping(t_uint8,t_mapping(t_enum(Booster)4456,t_uint256)))": {
        "encoding": "mapping",
        "key": "t_address",
        "label": "mapping(address => mapping(uint8 => mapping(enum Booster => uint256)))",
        "numberOfBytes": "32",
        "value": "t_mapping(t_uint8,t_mapping(t_enum(Booster)4456,t_uint256))"
      },
      "t_mapping(t_address,t_struct(Fi)4477_storage)": {
        "encoding": "mapping",
        "key": "t_address",
        "label": "mapping(address => struct Fi)",
        "numberOfBytes": "32",
        "value": "t_struct(Fi)4477_storage"
      },
      "t_mapping(t_address,t_uint256)": {
        "encoding": "mapping",
        "key": "t_address",
        "label": "mapping(address => uint256)",
        "numberOfBytes": "32",
        "value": "t_uint256"
      },
      "t_mapping(t_enum(Booster)4456,t_uint256)": {
        "encoding": "mapping",
        "key": "t_enum(Booster)4456",
        "label": "mapping(enum Booster => uint256)",
        "numberOfBytes": "32",
        "value": "t_uint256"
      },
      "t_mapping(t_uint256,t_address)": {
        "encoding": "mapping",
        "key": "t_uint256",
        "label": "mapping(uint256 => address)",
        "numberOfBytes": "32",
        "value": "t_address"
      },
      "t_mapping(t_uint256,t_struct(Gem)4496_storage)": {
        "encoding": "mapping",
        "key": "t_uint256",
        "label": "mapping(uint256 => struct Gem)",
        "numberOfBytes": "32",
        "value": "t_struct(Gem)4496_storage"
      },
      "t_mapping(t_uint256,t_uint256)": {
        "encoding": "mapping",
        "key": "t_uint256",
        "label": "mapping(uint256 => uint256)",
        "numberOfBytes": "32",
        "value": "t_uint256"
      },
      "t_mapping(t_uint8,t_mapping(t_enum(Booster)4456,t_uint256))": {
        "encoding": "mapping",
        "key": "t_uint8",
        "label": "mapping(uint8 => mapping(enum Booster => uint256))",
        "numberOfBytes": "32",
        "value": "t_mapping(t_enum(Booster)4456,t_uint256)"
      },
      "t_string_storage": {
        "encoding": "bytes",
        "label": "string",
        "numberOfBytes": "32"
      },
      "t_struct(AppStorage)4545_storage": {
        "encoding": "inplace",
        "label": "struct AppStorage",
        "members": [
          {
            "astId": 4499,
            "contract": "contracts/facets/ConfigFacet.sol:ConfigFacet",
            "label": "config",
            "offset": 0,
            "slot": "0",
            "type": "t_struct(ProtocolConfig)4416_storage"
          },
          {
            "astId": 4503,
            "contract": "contracts/facets/ConfigFacet.sol:ConfigFacet",
            "label": "gemTypes",
            "offset": 0,
            "slot": "28",
            "type": "t_array(t_struct(GemTypeConfig)4429_storage)dyn_storage"
          },
          {
            "astId": 4507,
            "contract": "contracts/facets/ConfigFacet.sol:ConfigFacet",
            "label": "gemTypesMintWindows",
            "offset": 0,
            "slot": "29",
            "type": "t_array(t_struct(GemTypeMintWindow)4434_storage)dyn_storage"
          },
          {
            "astId": 4510,
            "contract": "contracts/facets/ConfigFacet.sol:ConfigFacet",
            "label": "defoTokenLimitWindow",
            "offset": 0,
            "slot": "30",
            "type": "t_struct(DEFOTokenLimitWindow)4443_storage"
          },
          {
            "astId": 4515,
            "contract": "contracts/facets/ConfigFacet.sol:ConfigFacet",
            "label": "gems",
            "offset": 0,
            "slot": "32",
            "type": "t_mapping(t_uint256,t_struct(Gem)4496_storage)"
          },
          {
            "astId": 4518,
            "contract": "contracts/facets/ConfigFacet.sol:ConfigFacet",
            "label": "nft",
            "offset": 0,
            "slot": "33",
            "type": "t_struct(ERC721Storage)4351_storage"
          },
          {
            "astId": 4521,
            "contract": "contracts/facets/ConfigFacet.sol:ConfigFacet",
            "label": "total",
            "offset": 0,
            "slot": "46",
            "type": "t_struct(Fi)4477_storage"
          },
          {
            "astId": 4526,
            "contract": "contracts/facets/ConfigFacet.sol:ConfigFacet",
            "label": "usersFi",
            "offset": 0,
            "slot": "56",
            "type": "t_mapping(t_address,t_struct(Fi)4477_storage)"
          },
          {
            "astId": 4535,
            "contract": "contracts/facets/ConfigFacet.sol:ConfigFacet",
            "label": "usersNextGemBooster",
            "offset": 0,
            "slot": "57",
            "type": "t_mapping(t_address,t_mapping(t_uint8,t_mapping(t_enum(Booster)4456,t_uint256)))"
          },
          {
            "astId": 4538,
            "contract": "contracts/facets/ConfigFacet.sol:ConfigFacet",
            "label": "defoTokenLimitPerRewards",
            "offset": 0,
            "slot": "58",
            "type": "t_struct(DEFOTokenLimitPerRewards)4452_storage"
          },
          {
            "astId": 4540,
            "contract": "contracts/facets/ConfigFacet.sol:ConfigFacet",
            "label": "routerWallet",
            "offset": 0,
            "slot": "60",
            "type": "t_address"
          },
          {
            "astId": 4544,
            "contract": "contracts/facets/ConfigFacet.sol:ConfigFacet",
            "label": "gemTypes2",
            "offset": 0,
            "slot": "61",
            "type": "t_array(t_struct(GemTypeConfig)4429_storage)dyn_storage"
          }
        ],
        "numberOfBytes": "1984"
      },
      "t_struct(Counter)2737_storage": {
        "encoding": "inplace",
        "label": "struct Counters.Counter",
        "members": [
          {
            "astId": 2736,
            "contract": "contracts/facets/ConfigFacet.sol:ConfigFacet",
            "label": "_value",
            "offset": 0,
            "slot": "0",
            "type": "t_uint256"
          }
        ],
        "numberOfBytes": "32"
      },
      "t_struct(DEFOTokenLimitPerRewards)4452_storage": {
        "encoding": "inplace",
        "label": "struct DEFOTokenLimitPerRewards",
        "members": [
          {
            "astId": 4447,
            "contract": "contracts/facets/ConfigFacet.sol:ConfigFacet",
            "label": "tokensSold",
            "offset": 0,
            "slot": "0",
            "type": "t_mapping(t_address,t_uint256)"
          },
          {
            "astId": 4451,
            "contract": "contracts/facets/ConfigFacet.sol:ConfigFacet",
            "label": "timeOfWindowStart",
            "offset": 0,
            "slot": "1",
            "type": "t_mapping(t_address,t_uint256)"
          }
        ],
        "numberOfBytes": "64"
      },
      "t_struct(DEFOTokenLimitWindow)4443_storage": {
        "encoding": "inplace",
        "label": "struct DEFOTokenLimitWindow",
        "members": [
          {
            "astId": 4438,
            "contract": "contracts/facets/ConfigFacet.sol:ConfigFacet",
            "label": "tokensSold",
            "offset": 0,
            "slot": "0",
            "type": "t_mapping(t_address,t_uint256)"
          },
          {
            "astId": 4442,
            "contract": "contracts/facets/ConfigFacet.sol:ConfigFacet",
            "label": "timeOfLastSale",
            "offset": 0,
            "slot": "1",
            "type": "t_mapping(t_address,t_uint256)"
          }
        ],
        "numberOfBytes": "64"
      },
      "t_struct(DefoTokenLimitConfig)4375_storage": {
        "encoding": "inplace",
        "label": "struct DefoTokenLimitConfig",
        "members": [
          {
            "astId": 4370,
            "contract": "contracts/facets/ConfigFacet.sol:ConfigFacet",
            "label": "saleLimitPeriod",
            "offset": 0,
            "slot": "0",
            "type": "t_uint256"
          },
          {
            "astId": 4372,
            "contract": "contracts/facets/ConfigFacet.sol:ConfigFacet",
            "label": "saleLimitAmount",
            "offset": 0,
            "slot": "1",
            "type": "t_uint256"
          },
          {
            "astId": 4374,
            "contract": "contracts/facets/ConfigFacet.sol:ConfigFacet",
            "label": "limitByReward",
            "offset": 0,
            "slot": "2",
            "type": "t_bool"
          }
        ],
        "numberOfBytes": "96"
      },
      "t_struct(ERC721Storage)4351_storage": {
        "encoding": "inplace",
        "label": "struct ERC721Storage",
        "members": [
          {
            "astId": 4306,
            "contract": "contracts/facets/ConfigFacet.sol:ConfigFacet",
            "label": "name",
            "offset": 0,
            "slot": "0",
            "type": "t_string_storage"
          },
          {
            "astId": 4308,
            "contract": "contracts/facets/ConfigFacet.sol:ConfigFacet",
            "label": "symbol",
            "offset": 0,
            "slot": "1",
            "type": "t_string_storage"
          },
          {
            "astId": 4311,
            "contract": "contracts/facets/ConfigFacet.sol:ConfigFacet",
            "label": "tokenIdTracker",
            "offset": 0,
            "slot": "2",
            "type": "t_struct(Counter)2737_storage"
          },
          {
            "astId": 4315,
            "contract": "contracts/facets/ConfigFacet.sol:ConfigFacet",
            "label": "owners",
            "offset": 0,
            "slot": "3",
            "type": "t_mapping(t_uint256,t_address)"
          },
          {
            "astId": 4319,
            "contract": "contracts/facets/ConfigFacet.sol:ConfigFacet",
            "label": "balances",
            "offset": 0,
            "slot": "4",
            "type": "t_mapping(t_address,t_uint256)"
          },
          {
            "astId": 4323,
            "contract": "contracts/facets/ConfigFacet.sol:ConfigFacet",
            "label": "tokenApprovals",
            "offset": 0,
            "slot": "5",
            "type": "t_mapping(t_uint256,t_address)"
          },
          {
            "astId": 4329,
            "contract": "contracts/facets/ConfigFacet.sol:ConfigFacet",
            "label": "operatorApprovals",
            "offset": 0,
            "slot": "6",
            "type": "t_mapping(t_address,t_mapping(t_address,t_bool))"
          },
          {
            "astId": 4331,
            "contract": "contracts/facets/ConfigFacet.sol:ConfigFacet",
            "label": "baseURI",
            "offset": 0,
            "slot": "7",
            "type": "t_string_storage"
          },
          {
            "astId": 4337,
            "contract": "contracts/facets/ConfigFacet.sol:ConfigFacet",
            "label": "ownedTokens",
            "offset": 0,
            "slot": "8",
            "type": "t_mapping(t_address,t_mapping(t_uint256,t_uint256))"
          },
          {
            "astId": 4341,
            "contract": "contracts/facets/ConfigFacet.sol:ConfigFacet",
            "label": "ownedTokensIndex",
            "offset": 0,
            "slot": "9",
            "type": "t_mapping(t_uint256,t_uint256)"
          },
          {
            "astId": 4344,
            "contract": "contracts/facets/ConfigFacet.sol:ConfigFacet",
            "label": "allTokens",
            "offset": 0,
            "slot": "10",
            "type": "t_array(t_uint256)dyn_storage"
          },
          {
            "astId": 4348,
            "contract": "contracts/facets/ConfigFacet.sol:ConfigFacet",
            "label": "allTokensIndex",
            "offset": 0,
            "slot": "11",
            "type": "t_mapping(t_uint256,t_uint256)"
          },
          {
            "astId": 4350,
            "contract": "contracts/facets/ConfigFacet.sol:ConfigFacet",
            "label": "init",
            "offset": 0,
            "slot": "12",
            "type": "t_bool"
          }
        ],
        "numberOfBytes": "416"
      },
      "t_struct(Fi)4477_storage": {
        "encoding": "inplace",
        "label": "struct Fi",
        "members": [
          {
            "astId": 4458,
            "contract": "contracts/facets/ConfigFacet.sol:ConfigFacet",
            "label": "claimedGross",
            "offset": 0,
            "slot": "0",
            "type": "t_uint256"
          },
          {
            "astId": 4460,
            "contract": "contracts/facets/ConfigFacet.sol:ConfigFacet",
            "label": "claimedNet",
            "offset": 0,
            "slot": "1",
            "type": "t_uint256"
          },
          {
            "astId": 4462,
            "contract": "contracts/facets/ConfigFacet.sol:ConfigFacet",
            "label": "stakedGross",
            "offset": 0,
            "slot": "2",
            "type": "t_uint256"
          },
          {
            "astId": 4464,
            "contract": "contracts/facets/ConfigFacet.sol:ConfigFacet",
            "label": "stakedNet",
            "offset": 0,
            "slot": "3",
            "type": "t_uint256"
          },
          {
            "astId": 4466,
            "contract": "contracts/facets/ConfigFacet.sol:ConfigFacet",
            "label": "unStakedGross",
            "offset": 0,
            "slot": "4",
            "type": "t_uint256"
          },
          {
            "astId": 4468,
            "contract": "contracts/facets/ConfigFacet.sol:ConfigFacet",
            "label": "unStakedGrossUp",
            "offset": 0,
            "slot": "5",
            "type": "t_uint256"
          },
          {
            "astId": 4470,
            "contract": "contracts/facets/ConfigFacet.sol:ConfigFacet",
            "label": "unStakedNet",
            "offset": 0,
            "slot": "6",
            "type": "t_uint256"
          },
          {
            "astId": 4472,
            "contract": "contracts/facets/ConfigFacet.sol:ConfigFacet",
            "label": "donated",
            "offset": 0,
            "slot": "7",
            "type": "t_uint256"
          },
          {
            "astId": 4474,
            "contract": "contracts/facets/ConfigFacet.sol:ConfigFacet",
            "label": "claimTaxPaid",
            "offset": 0,
            "slot": "8",
            "type": "t_uint256"
          },
          {
            "astId": 4476,
            "contract": "contracts/facets/ConfigFacet.sol:ConfigFacet",
            "label": "vaultTaxPaid",
            "offset": 0,
            "slot": "9",
            "type": "t_uint256"
          }
        ],
        "numberOfBytes": "320"
      },
      "t_struct(Gem)4496_storage": {
        "encoding": "inplace",
        "label": "struct Gem",
        "members": [
          {
            "astId": 4479,
            "contract": "contracts/facets/ConfigFacet.sol:ConfigFacet",
            "label": "gemTypeId",
            "offset": 0,
            "slot": "0",
            "type": "t_uint8"
          },
          {
            "astId": 4482,
            "contract": "contracts/facets/ConfigFacet.sol:ConfigFacet",
            "label": "booster",
            "offset": 1,
            "slot": "0",
            "type": "t_enum(Booster)4456"
          },
          {
            "astId": 4484,
            "contract": "contracts/facets/ConfigFacet.sol:ConfigFacet",
            "label": "mintTime",
            "offset": 2,
            "slot": "0",
            "type": "t_uint32"
          },
          {
            "astId": 4486,
            "contract": "contracts/facets/ConfigFacet.sol:ConfigFacet",
            "label": "lastRewardWithdrawalTime",
            "offset": 6,
            "slot": "0",
            "type": "t_uint32"
          },
          {
            "astId": 4488,
            "contract": "contracts/facets/ConfigFacet.sol:ConfigFacet",
            "label": "lastMaintenanceTime",
            "offset": 10,
            "slot": "0",
            "type": "t_uint32"
          },
          {
            "astId": 4491,
            "contract": "contracts/facets/ConfigFacet.sol:ConfigFacet",
            "label": "fi",
            "offset": 0,
            "slot": "1",
            "type": "t_struct(Fi)4477_storage"
          },
          {
            "astId": 4493,
            "contract": "contracts/facets/ConfigFacet.sol:ConfigFacet",
            "label": "presold",
            "offset": 0,
            "slot": "11",
            "type": "t_bool"
          },
          {
            "astId": 4495,
            "contract": "contracts/facets/ConfigFacet.sol:ConfigFacet",
            "label": "maintenanceFeePaid",
            "offset": 0,
            "slot": "12",
            "type": "t_uint256"
          }
        ],
        "numberOfBytes": "416"
      },
      "t_struct(GemTypeConfig)4429_storage": {
        "encoding": "inplace",
        "label": "struct GemTypeConfig",
        "members": [
          {
            "astId": 4418,
            "contract": "contracts/facets/ConfigFacet.sol:ConfigFacet",
            "label": "maintenanceFeeDai",
            "offset": 0,
            "slot": "0",
            "type": "t_uint256"
          },
          {
            "astId": 4420,
            "contract": "contracts/facets/ConfigFacet.sol:ConfigFacet",
            "label": "rewardAmountDefo",
            "offset": 0,
            "slot": "1",
            "type": "t_uint256"
          },
          {
            "astId": 4424,
            "contract": "contracts/facets/ConfigFacet.sol:ConfigFacet",
            "label": "price",
            "offset": 0,
            "slot": "2",
            "type": "t_array(t_uint256)2_storage"
          },
          {
            "astId": 4426,
            "contract": "contracts/facets/ConfigFacet.sol:ConfigFacet",
            "label": "taperRewardsThresholdDefo",
            "offset": 0,
            "slot": "4",
            "type": "t_uint256"
          },
          {
            "astId": 4428,
            "contract": "contracts/facets/ConfigFacet.sol:ConfigFacet",
            "label": "maxMintsPerLimitWindow",
            "offset": 0,
            "slot": "5",
            "type": "t_uint256"
          }
        ],
        "numberOfBytes": "192"
      },
      "t_struct(GemTypeMintWindow)4434_storage": {
        "encoding": "inplace",
        "label": "struct GemTypeMintWindow",
        "members": [
          {
            "astId": 4431,
            "contract": "contracts/facets/ConfigFacet.sol:ConfigFacet",
            "label": "mintCount",
            "offset": 0,
            "slot": "0",
            "type": "t_uint256"
          },
          {
            "astId": 4433,
            "contract": "contracts/facets/ConfigFacet.sol:ConfigFacet",
            "label": "endOfMintLimitWindow",
            "offset": 0,
            "slot": "1",
            "type": "t_uint32"
          }
        ],
        "numberOfBytes": "64"
      },
      "t_struct(ProtocolConfig)4416_storage": {
        "encoding": "inplace",
        "label": "struct ProtocolConfig",
        "members": [
          {
            "astId": 4380,
            "contract": "contracts/facets/ConfigFacet.sol:ConfigFacet",
            "label": "paymentTokens",
            "offset": 0,
            "slot": "0",
            "type": "t_array(t_contract(IERC20)737)2_storage"
          },
          {
            "astId": 4384,
            "contract": "contracts/facets/ConfigFacet.sol:ConfigFacet",
            "label": "wallets",
            "offset": 0,
            "slot": "2",
            "type": "t_array(t_address)7_storage"
          },
          {
            "astId": 4390,
            "contract": "contracts/facets/ConfigFacet.sol:ConfigFacet",
            "label": "incomeDistributionOnMint",
            "offset": 0,
            "slot": "9",
            "type": "t_array(t_array(t_uint256)3_storage)2_storage"
          },
          {
            "astId": 4392,
            "contract": "contracts/facets/ConfigFacet.sol:ConfigFacet",
            "label": "maintenancePeriod",
            "offset": 0,
            "slot": "15",
            "type": "t_uint32"
          },
          {
            "astId": 4394,
            "contract": "contracts/facets/ConfigFacet.sol:ConfigFacet",
            "label": "rewardPeriod",
            "offset": 4,
            "slot": "15",
            "type": "t_uint32"
          },
          {
            "astId": 4396,
            "contract": "contracts/facets/ConfigFacet.sol:ConfigFacet",
            "label": "taxScaleSinceLastClaimPeriod",
            "offset": 8,
            "slot": "15",
            "type": "t_uint32"
          },
          {
            "astId": 4400,
            "contract": "contracts/facets/ConfigFacet.sol:ConfigFacet",
            "label": "taxRates",
            "offset": 0,
            "slot": "16",
            "type": "t_array(t_uint256)5_storage"
          },
          {
            "astId": 4402,
            "contract": "contracts/facets/ConfigFacet.sol:ConfigFacet",
            "label": "charityContributionRate",
            "offset": 0,
            "slot": "21",
            "type": "t_uint256"
          },
          {
            "astId": 4404,
            "contract": "contracts/facets/ConfigFacet.sol:ConfigFacet",
            "label": "vaultWithdrawalTaxRate",
            "offset": 0,
            "slot": "22",
            "type": "t_uint256"
          },
          {
            "astId": 4406,
            "contract": "contracts/facets/ConfigFacet.sol:ConfigFacet",
            "label": "taperRate",
            "offset": 0,
            "slot": "23",
            "type": "t_uint256"
          },
          {
            "astId": 4408,
            "contract": "contracts/facets/ConfigFacet.sol:ConfigFacet",
            "label": "mintLock",
            "offset": 0,
            "slot": "24",
            "type": "t_bool"
          },
          {
            "astId": 4410,
            "contract": "contracts/facets/ConfigFacet.sol:ConfigFacet",
            "label": "transferLock",
            "offset": 1,
            "slot": "24",
            "type": "t_bool"
          },
          {
            "astId": 4412,
            "contract": "contracts/facets/ConfigFacet.sol:ConfigFacet",
            "label": "mintLimitWindow",
            "offset": 2,
            "slot": "24",
            "type": "t_uint32"
          },
          {
            "astId": 4415,
            "contract": "contracts/facets/ConfigFacet.sol:ConfigFacet",
            "label": "defoTokenLimitConfig",
            "offset": 0,
            "slot": "25",
            "type": "t_struct(DefoTokenLimitConfig)4375_storage"
          }
        ],
        "numberOfBytes": "896"
      },
      "t_uint256": {
        "encoding": "inplace",
        "label": "uint256",
        "numberOfBytes": "32"
      },
      "t_uint32": {
        "encoding": "inplace",
        "label": "uint32",
        "numberOfBytes": "4"
      },
      "t_uint8": {
        "encoding": "inplace",
        "label": "uint8",
        "numberOfBytes": "1"
      }
    }
  }
}