{
  "address": "0x413eB764D2ae0723f1cC9d9A14993A7a0dAF7AbB",
  "abi": [
    {
      "inputs": [
        {
          "internalType": "address",
          "name": "DAI_address",
          "type": "address"
        }
      ],
      "stateMutability": "nonpayable",
      "type": "constructor"
    },
    {
      "anonymous": false,
      "inputs": [
        {
          "indexed": true,
          "internalType": "address",
          "name": "owner",
          "type": "address"
        },
        {
          "indexed": true,
          "internalType": "address",
          "name": "approved",
          "type": "address"
        },
        {
          "indexed": true,
          "internalType": "uint256",
          "name": "tokenId",
          "type": "uint256"
        }
      ],
      "name": "Approval",
      "type": "event"
    },
    {
      "anonymous": false,
      "inputs": [
        {
          "indexed": true,
          "internalType": "address",
          "name": "owner",
          "type": "address"
        },
        {
          "indexed": true,
          "internalType": "address",
          "name": "operator",
          "type": "address"
        },
        {
          "indexed": false,
          "internalType": "bool",
          "name": "approved",
          "type": "bool"
        }
      ],
      "name": "ApprovalForAll",
      "type": "event"
    },
    {
      "anonymous": false,
      "inputs": [
        {
          "indexed": true,
          "internalType": "address",
          "name": "previousOwner",
          "type": "address"
        },
        {
          "indexed": true,
          "internalType": "address",
          "name": "newOwner",
          "type": "address"
        }
      ],
      "name": "OwnershipTransferred",
      "type": "event"
    },
    {
      "anonymous": false,
      "inputs": [
        {
          "indexed": true,
          "internalType": "address",
          "name": "from",
          "type": "address"
        },
        {
          "indexed": true,
          "internalType": "address",
          "name": "to",
          "type": "address"
        },
        {
          "indexed": true,
          "internalType": "uint256",
          "name": "tokenId",
          "type": "uint256"
        }
      ],
      "name": "Transfer",
      "type": "event"
    },
    {
      "inputs": [],
      "name": "activeSale",
      "outputs": [
        {
          "internalType": "bool",
          "name": "",
          "type": "bool"
        }
      ],
      "stateMutability": "view",
      "type": "function"
    },
    {
      "inputs": [
        {
          "internalType": "address",
          "name": "_whitelistedAddress",
          "type": "address"
        }
      ],
      "name": "addToWhitelist",
      "outputs": [],
      "stateMutability": "nonpayable",
      "type": "function"
    },
    {
      "inputs": [
        {
          "internalType": "address",
          "name": "to",
          "type": "address"
        },
        {
          "internalType": "uint256",
          "name": "tokenId",
          "type": "uint256"
        }
      ],
      "name": "approve",
      "outputs": [],
      "stateMutability": "nonpayable",
      "type": "function"
    },
    {
      "inputs": [
        {
          "internalType": "address",
          "name": "owner",
          "type": "address"
        }
      ],
      "name": "balanceOf",
      "outputs": [
        {
          "internalType": "uint256",
          "name": "",
          "type": "uint256"
        }
      ],
      "stateMutability": "view",
      "type": "function"
    },
    {
      "inputs": [],
      "name": "diamondNodePrice",
      "outputs": [
        {
          "internalType": "uint256",
          "name": "",
          "type": "uint256"
        }
      ],
      "stateMutability": "view",
      "type": "function"
    },
    {
      "inputs": [
        {
          "internalType": "uint256",
          "name": "tokenId",
          "type": "uint256"
        }
      ],
      "name": "getApproved",
      "outputs": [
        {
          "internalType": "address",
          "name": "",
          "type": "address"
        }
      ],
      "stateMutability": "view",
      "type": "function"
    },
    {
      "inputs": [],
      "name": "getPrice",
      "outputs": [
        {
          "internalType": "uint256",
          "name": "",
          "type": "uint256"
        }
      ],
      "stateMutability": "view",
      "type": "function"
    },
    {
      "inputs": [],
      "name": "giveAwayMint",
      "outputs": [],
      "stateMutability": "nonpayable",
      "type": "function"
    },
    {
      "inputs": [
        {
          "internalType": "address",
          "name": "owner",
          "type": "address"
        },
        {
          "internalType": "address",
          "name": "operator",
          "type": "address"
        }
      ],
      "name": "isApprovedForAll",
      "outputs": [
        {
          "internalType": "bool",
          "name": "",
          "type": "bool"
        }
      ],
      "stateMutability": "view",
      "type": "function"
    },
    {
      "inputs": [],
      "name": "maxNodesPerWallet",
      "outputs": [
        {
          "internalType": "uint64",
          "name": "",
          "type": "uint64"
        }
      ],
      "stateMutability": "view",
      "type": "function"
    },
    {
      "inputs": [],
      "name": "maxTotalDiamondNodes",
      "outputs": [
        {
          "internalType": "uint64",
          "name": "",
          "type": "uint64"
        }
      ],
      "stateMutability": "view",
      "type": "function"
    },
    {
      "inputs": [],
      "name": "mintNode",
      "outputs": [],
      "stateMutability": "nonpayable",
      "type": "function"
    },
    {
      "inputs": [],
      "name": "name",
      "outputs": [
        {
          "internalType": "string",
          "name": "",
          "type": "string"
        }
      ],
      "stateMutability": "view",
      "type": "function"
    },
    {
      "inputs": [],
      "name": "owner",
      "outputs": [
        {
          "internalType": "address",
          "name": "",
          "type": "address"
        }
      ],
      "stateMutability": "view",
      "type": "function"
    },
    {
      "inputs": [
        {
          "internalType": "uint256",
          "name": "tokenId",
          "type": "uint256"
        }
      ],
      "name": "ownerOf",
      "outputs": [
        {
          "internalType": "address",
          "name": "",
          "type": "address"
        }
      ],
      "stateMutability": "view",
      "type": "function"
    },
    {
      "inputs": [],
      "name": "renounceOwnership",
      "outputs": [],
      "stateMutability": "nonpayable",
      "type": "function"
    },
    {
      "inputs": [
        {
          "internalType": "address",
          "name": "from",
          "type": "address"
        },
        {
          "internalType": "address",
          "name": "to",
          "type": "address"
        },
        {
          "internalType": "uint256",
          "name": "tokenId",
          "type": "uint256"
        }
      ],
      "name": "safeTransferFrom",
      "outputs": [],
      "stateMutability": "nonpayable",
      "type": "function"
    },
    {
      "inputs": [
        {
          "internalType": "address",
          "name": "from",
          "type": "address"
        },
        {
          "internalType": "address",
          "name": "to",
          "type": "address"
        },
        {
          "internalType": "uint256",
          "name": "tokenId",
          "type": "uint256"
        },
        {
          "internalType": "bytes",
          "name": "_data",
          "type": "bytes"
        }
      ],
      "name": "safeTransferFrom",
      "outputs": [],
      "stateMutability": "nonpayable",
      "type": "function"
    },
    {
      "inputs": [
        {
          "internalType": "address",
          "name": "operator",
          "type": "address"
        },
        {
          "internalType": "bool",
          "name": "approved",
          "type": "bool"
        }
      ],
      "name": "setApprovalForAll",
      "outputs": [],
      "stateMutability": "nonpayable",
      "type": "function"
    },
    {
      "inputs": [
        {
          "internalType": "string",
          "name": "_tokenBaseURI",
          "type": "string"
        }
      ],
      "name": "setBaseURI",
      "outputs": [],
      "stateMutability": "nonpayable",
      "type": "function"
    },
    {
      "inputs": [
        {
          "internalType": "uint64",
          "name": "_newAmount",
          "type": "uint64"
        }
      ],
      "name": "setMaxPerWallet",
      "outputs": [],
      "stateMutability": "nonpayable",
      "type": "function"
    },
    {
      "inputs": [
        {
          "internalType": "uint64",
          "name": "_newNodeAmount",
          "type": "uint64"
        }
      ],
      "name": "setMaxTotalDiamondNodes",
      "outputs": [],
      "stateMutability": "nonpayable",
      "type": "function"
    },
    {
      "inputs": [],
      "name": "setSaleState",
      "outputs": [],
      "stateMutability": "nonpayable",
      "type": "function"
    },
    {
      "inputs": [],
      "name": "setTransferLock",
      "outputs": [],
      "stateMutability": "nonpayable",
      "type": "function"
    },
    {
      "inputs": [
        {
          "internalType": "bytes4",
          "name": "interfaceId",
          "type": "bytes4"
        }
      ],
      "name": "supportsInterface",
      "outputs": [
        {
          "internalType": "bool",
          "name": "",
          "type": "bool"
        }
      ],
      "stateMutability": "view",
      "type": "function"
    },
    {
      "inputs": [],
      "name": "symbol",
      "outputs": [
        {
          "internalType": "string",
          "name": "",
          "type": "string"
        }
      ],
      "stateMutability": "view",
      "type": "function"
    },
    {
      "inputs": [
        {
          "internalType": "uint256",
          "name": "index",
          "type": "uint256"
        }
      ],
      "name": "tokenByIndex",
      "outputs": [
        {
          "internalType": "uint256",
          "name": "",
          "type": "uint256"
        }
      ],
      "stateMutability": "view",
      "type": "function"
    },
    {
      "inputs": [
        {
          "internalType": "address",
          "name": "owner",
          "type": "address"
        },
        {
          "internalType": "uint256",
          "name": "index",
          "type": "uint256"
        }
      ],
      "name": "tokenOfOwnerByIndex",
      "outputs": [
        {
          "internalType": "uint256",
          "name": "",
          "type": "uint256"
        }
      ],
      "stateMutability": "view",
      "type": "function"
    },
    {
      "inputs": [
        {
          "internalType": "uint256",
          "name": "tokenId",
          "type": "uint256"
        }
      ],
      "name": "tokenURI",
      "outputs": [
        {
          "internalType": "string",
          "name": "",
          "type": "string"
        }
      ],
      "stateMutability": "view",
      "type": "function"
    },
    {
      "inputs": [],
      "name": "totalSupply",
      "outputs": [
        {
          "internalType": "uint256",
          "name": "",
          "type": "uint256"
        }
      ],
      "stateMutability": "view",
      "type": "function"
    },
    {
      "inputs": [
        {
          "internalType": "address",
          "name": "from",
          "type": "address"
        },
        {
          "internalType": "address",
          "name": "to",
          "type": "address"
        },
        {
          "internalType": "uint256",
          "name": "tokenId",
          "type": "uint256"
        }
      ],
      "name": "transferFrom",
      "outputs": [],
      "stateMutability": "nonpayable",
      "type": "function"
    },
    {
      "inputs": [
        {
          "internalType": "address",
          "name": "newOwner",
          "type": "address"
        }
      ],
      "name": "transferOwnership",
      "outputs": [],
      "stateMutability": "nonpayable",
      "type": "function"
    }
  ],
  "transactionHash": "0x9be76ce35fc96318640a37ab978c467631f82ea246671a564ced8ec0108a2111",
  "args": [
    "0x3362FE2f7E17A5a9F90DaBE12E4A6E16E146F19a"
  ],
  "numDeployments": 1,
  "solcInputHash": "81df850b062a18e4cd7595fc0647ae97",
  "bytecode": "0x6080604052600c80546001600160881b0319166902000000000000001e00179055610320600d55600f805460ff191660011790553480156200004057600080fd5b5060405162002f4638038062002f468339810160408190526200006391620008bc565b604051806040016040528060118152602001704465666f204469616d6f6e64204e6f646560781b8152506040518060400160405280600381526020016222222760e91b8152508160009081620000ba919062000992565b506001620000c9828262000992565b505050620000e6620000e0620001d960201b60201c565b620001dd565b601180546001600160a01b0383166001600160a01b031991821617909155601080546001818101835560008381527f1b6847dc741a1b0cd08d278845f9d819d87b734759afb55fe2de5cb82a9ae6729283018054861690558354808301855583018054861661dead179055835491820190935501805490921673aef6bd49e374c067672babc554a7aee36fb71267179091555b6006811015620001d1576200019a600b6200022f60201b620010921760201c565b620001bc33620001b6600b6200023860201b6200109b1760201c565b6200023c565b80620001c88162000a74565b91505062000179565b505062000b98565b3390565b600a80546001600160a01b038381166001600160a01b0319831681179093556040519116919082907f8be0079c531659141344cd1fd0a4f28419497f9722a3daafe3b4186f6b6457e090600090a35050565b80546001019055565b5490565b6200025e8282604051806020016040528060008152506200026260201b60201c565b5050565b6200026e8383620002de565b6200027d600084848462000434565b620002d95760405162461bcd60e51b8152602060048201526032602482015260008051602062002f2683398151915260448201527131b2b4bb32b91034b6b83632b6b2b73a32b960711b60648201526084015b60405180910390fd5b505050565b6001600160a01b038216620003365760405162461bcd60e51b815260206004820181905260248201527f4552433732313a206d696e7420746f20746865207a65726f20616464726573736044820152606401620002d0565b6000818152600260205260409020546001600160a01b0316156200039d5760405162461bcd60e51b815260206004820152601c60248201527f4552433732313a20746f6b656e20616c7265616479206d696e746564000000006044820152606401620002d0565b620003ab6000838362000590565b6001600160a01b0382166000908152600360205260408120805460019290620003d690849062000a90565b909155505060008181526002602052604080822080546001600160a01b0319166001600160a01b03861690811790915590518392907fddf252ad1be2c89b69c2b068fc378daa952ba7f163c4a11628f55a4df523b3ef908290a45050565b600062000455846001600160a01b03166200066c60201b6200109f1760201c565b156200058457604051630a85bd0160e11b81526001600160a01b0385169063150b7a02906200048f90339089908890889060040162000aab565b6020604051808303816000875af1925050508015620004cd575060408051601f3d908101601f19168201909252620004ca9181019062000b26565b60015b62000569573d808015620004fe576040519150601f19603f3d011682016040523d82523d6000602084013e62000503565b606091505b508051600003620005615760405162461bcd60e51b8152602060048201526032602482015260008051602062002f2683398151915260448201527131b2b4bb32b91034b6b83632b6b2b73a32b960711b6064820152608401620002d0565b805181602001fd5b6001600160e01b031916630a85bd0160e11b14905062000588565b5060015b949350505050565b620005a8838383620002d960201b620006e11760201c565b6001600160a01b03831662000606576200060081600880546000838152600960205260408120829055600182018355919091527ff3f7a9fe364faab93b216da50a3214154f22a0a2b415b23a84c8169e8b636ee30155565b6200062c565b816001600160a01b0316836001600160a01b0316146200062c576200062c83826200067b565b6001600160a01b0382166200064657620002d98162000728565b826001600160a01b0316826001600160a01b031614620002d957620002d98282620007e2565b6001600160a01b03163b151590565b6000600162000695846200083360201b62000a6e1760201c565b620006a1919062000b52565b600083815260076020526040902054909150808214620006f5576001600160a01b03841660009081526006602090815260408083208584528252808320548484528184208190558352600790915290208190555b5060009182526007602090815260408084208490556001600160a01b039094168352600681528383209183525290812055565b6008546000906200073c9060019062000b52565b6000838152600960205260408120546008805493945090928490811062000767576200076762000b6c565b9060005260206000200154905080600883815481106200078b576200078b62000b6c565b6000918252602080832090910192909255828152600990915260408082208490558582528120556008805480620007c657620007c662000b82565b6001900381819060005260206000200160009055905550505050565b6000620007fa836200083360201b62000a6e1760201c565b6001600160a01b039093166000908152600660209081526040808320868452825280832085905593825260079052919091209190915550565b60006001600160a01b038216620008a05760405162461bcd60e51b815260206004820152602a60248201527f4552433732313a2062616c616e636520717565727920666f7220746865207a65604482015269726f206164647265737360b01b6064820152608401620002d0565b506001600160a01b031660009081526003602052604090205490565b600060208284031215620008cf57600080fd5b81516001600160a01b0381168114620008e757600080fd5b9392505050565b634e487b7160e01b600052604160045260246000fd5b600181811c908216806200091957607f821691505b6020821081036200093a57634e487b7160e01b600052602260045260246000fd5b50919050565b601f821115620002d957600081815260208120601f850160051c81016020861015620009695750805b601f850160051c820191505b818110156200098a5782815560010162000975565b505050505050565b81516001600160401b03811115620009ae57620009ae620008ee565b620009c681620009bf845462000904565b8462000940565b602080601f831160018114620009fe5760008415620009e55750858301515b600019600386901b1c1916600185901b1785556200098a565b600085815260208120601f198616915b8281101562000a2f5788860151825594840194600190910190840162000a0e565b508582101562000a4e5787850151600019600388901b60f8161c191681555b5050505050600190811b01905550565b634e487b7160e01b600052601160045260246000fd5b60006001820162000a895762000a8962000a5e565b5060010190565b6000821982111562000aa65762000aa662000a5e565b500190565b600060018060a01b038087168352602081871681850152856040850152608060608501528451915081608085015260005b8281101562000afa5785810182015185820160a00152810162000adc565b8281111562000b0d57600060a084870101525b5050601f01601f19169190910160a00195945050505050565b60006020828403121562000b3957600080fd5b81516001600160e01b031981168114620008e757600080fd5b60008282101562000b675762000b6762000a5e565b500390565b634e487b7160e01b600052603260045260246000fd5b634e487b7160e01b600052603160045260246000fd5b61237e8062000ba86000396000f3fe608060405234801561001057600080fd5b50600436106101f05760003560e01c80636352211e1161010f578063b88d4fde116100a2578063e7d68b7111610071578063e7d68b7114610410578063e985e9c514610418578063ef704bc814610454578063f2fde38b1461046757600080fd5b8063b88d4fde146103cf578063c7d6d9c5146103e2578063c87b56dd146103ea578063e43252d7146103fd57600080fd5b806395d89b41116100de57806395d89b411461039157806398d5fdca14610399578063a22cb465146103a1578063a2a7b0f2146103b457600080fd5b80636352211e1461035257806370a0823114610365578063715018a6146103785780638da5cb5b1461038057600080fd5b80632f745c59116101875780634e17700a116101565780634e17700a146103175780634f6ccce71461032457806355f804b3146103375780635fc4442b1461034a57600080fd5b80632f745c59146102ac5780633e9f610b146102bf57806342842e0e146102d257806345a8d86f146102e557600080fd5b806318160ddd116101c357806318160ddd146102725780631ce9edc7146102885780631ed405591461029157806323b872dd1461029957600080fd5b806301ffc9a7146101f557806306fdde031461021d578063081812fc14610232578063095ea7b31461025d575b600080fd5b610208610203366004611c52565b61047a565b60405190151581526020015b60405180910390f35b6102256104a5565b6040516102149190611cc7565b610245610240366004611cda565b610537565b6040516001600160a01b039091168152602001610214565b61027061026b366004611d0f565b6105d1565b005b61027a6106e6565b604051908152602001610214565b61027a600d5481565b6102706106f6565b6102706102a7366004611d39565b610734565b61027a6102ba366004611d0f565b610765565b6102706102cd366004611d75565b6107fb565b6102706102e0366004611d39565b610859565b600c546102fe90610100900467ffffffffffffffff1681565b60405167ffffffffffffffff9091168152602001610214565b600c546102089060ff1681565b61027a610332366004611cda565b610874565b610270610345366004611e2b565b610907565b610270610941565b610245610360366004611cda565b6109f7565b61027a610373366004611e74565b610a6e565b610270610af5565b600a546001600160a01b0316610245565b610225610b29565b600d5461027a565b6102706103af366004611e9d565b610b38565b600c546102fe90600160481b900467ffffffffffffffff1681565b6102706103dd366004611ed4565b610b43565b610270610b7b565b6102256103f8366004611cda565b610bb9565b61027061040b366004611e74565b610c94565b610270610d10565b610208610426366004611f50565b6001600160a01b03918216600090815260056020908152604080832093909416825291909152205460ff1690565b610270610462366004611d75565b610fa3565b610270610475366004611e74565b610ff7565b60006001600160e01b0319821663780e9d6360e01b148061049f575061049f826110ae565b92915050565b6060600080546104b490611f83565b80601f01602080910402602001604051908101604052809291908181526020018280546104e090611f83565b801561052d5780601f106105025761010080835404028352916020019161052d565b820191906000526020600020905b81548152906001019060200180831161051057829003601f168201915b5050505050905090565b6000818152600260205260408120546001600160a01b03166105b55760405162461bcd60e51b815260206004820152602c60248201527f4552433732313a20617070726f76656420717565727920666f72206e6f6e657860448201526b34b9ba32b73a103a37b5b2b760a11b60648201526084015b60405180910390fd5b506000908152600460205260409020546001600160a01b031690565b60006105dc826109f7565b9050806001600160a01b0316836001600160a01b0316036106495760405162461bcd60e51b815260206004820152602160248201527f4552433732313a20617070726f76616c20746f2063757272656e74206f776e656044820152603960f91b60648201526084016105ac565b336001600160a01b038216148061066557506106658133610426565b6106d75760405162461bcd60e51b815260206004820152603860248201527f4552433732313a20617070726f76652063616c6c6572206973206e6f74206f7760448201527f6e6572206e6f7220617070726f76656420666f7220616c6c000000000000000060648201526084016105ac565b6106e183836110fe565b505050565b60006106f1600b5490565b905090565b600a546001600160a01b031633146107205760405162461bcd60e51b81526004016105ac90611fbd565b600c805460ff19811660ff90911615179055565b61073e338261116c565b61075a5760405162461bcd60e51b81526004016105ac90611ff2565b6106e1838383611263565b600061077083610a6e565b82106107d25760405162461bcd60e51b815260206004820152602b60248201527f455243373231456e756d657261626c653a206f776e657220696e646578206f7560448201526a74206f6620626f756e647360a81b60648201526084016105ac565b506001600160a01b03919091166000908152600660209081526040808320938352929052205490565b600a546001600160a01b031633146108255760405162461bcd60e51b81526004016105ac90611fbd565b600c805467ffffffffffffffff909216600160481b0270ffffffffffffffff00000000000000000019909216919091179055565b6106e183838360405180602001604052806000815250610b43565b600061087f60085490565b82106108e25760405162461bcd60e51b815260206004820152602c60248201527f455243373231456e756d657261626c653a20676c6f62616c20696e646578206f60448201526b7574206f6620626f756e647360a01b60648201526084016105ac565b600882815481106108f5576108f5612043565b90600052602060002001549050919050565b600a546001600160a01b031633146109315760405162461bcd60e51b81526004016105ac90611fbd565b600e61093d82826120a7565b5050565b600a546001600160a01b0316331461096b5760405162461bcd60e51b81526004016105ac90611fbd565b600c5467ffffffffffffffff61010090910416610987600b5490565b11156109d55760405162461bcd60e51b815260206004820152601d60248201527f4e6f206d6f7265206469616d6f6e64206e6f64657320746f206d696e7400000060448201526064016105ac565b6109e3600b80546001019055565b6109f5336109f0600b5490565b61134e565b565b6000818152600260205260408120546001600160a01b03168061049f5760405162461bcd60e51b815260206004820152602960248201527f4552433732313a206f776e657220717565727920666f72206e6f6e657869737460448201526832b73a103a37b5b2b760b91b60648201526084016105ac565b60006001600160a01b038216610ad95760405162461bcd60e51b815260206004820152602a60248201527f4552433732313a2062616c616e636520717565727920666f7220746865207a65604482015269726f206164647265737360b01b60648201526084016105ac565b506001600160a01b031660009081526003602052604090205490565b600a546001600160a01b03163314610b1f5760405162461bcd60e51b81526004016105ac90611fbd565b6109f56000611368565b6060600180546104b490611f83565b61093d3383836113ba565b610b4d338361116c565b610b695760405162461bcd60e51b81526004016105ac90611ff2565b610b7584848484611488565b50505050565b600a546001600160a01b03163314610ba55760405162461bcd60e51b81526004016105ac90611fbd565b600f805460ff19811660ff90911615179055565b6000818152600260205260409020546060906001600160a01b0316610c385760405162461bcd60e51b815260206004820152602f60248201527f4552433732314d657461646174613a2055524920717565727920666f72206e6f60448201526e3732bc34b9ba32b73a103a37b5b2b760891b60648201526084016105ac565b6000610c426114bb565b90506000815111610c625760405180602001604052806000815250610c8d565b80610c6c846114ca565b604051602001610c7d929190612167565b6040516020818303038152906040525b9392505050565b600a546001600160a01b03163314610cbe5760405162461bcd60e51b81526004016105ac90611fbd565b601080546001810182556000919091527f1b6847dc741a1b0cd08d278845f9d819d87b734759afb55fe2de5cb82a9ae6720180546001600160a01b0319166001600160a01b0392909216919091179055565b600c805460ff19166001179055600c54600160481b900467ffffffffffffffff16610d3a33610a6e565b1115610d9f5760405162461bcd60e51b815260206004820152602e60248201527f43616e6e6f74206d696e74206d6f7265207468616e20606d61784e6f6465506560448201526d7257616c6c657460206e6f64657360901b60648201526084016105ac565b600c5467ffffffffffffffff61010090910416610dbb600b5490565b1115610e095760405162461bcd60e51b815260206004820152601d60248201527f4e6f206d6f7265206469616d6f6e64206e6f64657320746f206d696e7400000060448201526064016105ac565b670de0b6b3a7640000600d54610e1f91906121ac565b6011546040516370a0823160e01b81523360048201526001600160a01b03909116906370a0823190602401602060405180830381865afa158015610e67573d6000803e3d6000fd5b505050506040513d601f19601f82011682018060405250810190610e8b91906121cb565b1015610ed95760405162461bcd60e51b815260206004820152601860248201527f496e73756666756369656e74204441492062616c616e6365000000000000000060448201526064016105ac565b601154600d546001600160a01b03909116906323b872dd90339073aef6bd49e374c067672babc554a7aee36fb7126790610f1c90670de0b6b3a7640000906121ac565b6040516001600160e01b031960e086901b1681526001600160a01b03938416600482015292909116602483015260448201526064016020604051808303816000875af1158015610f70573d6000803e3d6000fd5b505050506040513d601f19601f82011682018060405250810190610f9491906121e4565b506109e3600b80546001019055565b600a546001600160a01b03163314610fcd5760405162461bcd60e51b81526004016105ac90611fbd565b600c805467ffffffffffffffff9092166101000268ffffffffffffffff0019909216919091179055565b600a546001600160a01b031633146110215760405162461bcd60e51b81526004016105ac90611fbd565b6001600160a01b0381166110865760405162461bcd60e51b815260206004820152602660248201527f4f776e61626c653a206e6577206f776e657220697320746865207a65726f206160448201526564647265737360d01b60648201526084016105ac565b61108f81611368565b50565b80546001019055565b5490565b6001600160a01b03163b151590565b60006001600160e01b031982166380ac58cd60e01b14806110df57506001600160e01b03198216635b5e139f60e01b145b8061049f57506301ffc9a760e01b6001600160e01b031983161461049f565b600081815260046020526040902080546001600160a01b0319166001600160a01b0384169081179091558190611133826109f7565b6001600160a01b03167f8c5be1e5ebec7d5bd14f71427d1e84f3dd0314c0f7b2291e5b200ac8c7c3b92560405160405180910390a45050565b6000818152600260205260408120546001600160a01b03166111e55760405162461bcd60e51b815260206004820152602c60248201527f4552433732313a206f70657261746f7220717565727920666f72206e6f6e657860448201526b34b9ba32b73a103a37b5b2b760a11b60648201526084016105ac565b60006111f0836109f7565b9050806001600160a01b0316846001600160a01b0316148061122b5750836001600160a01b031661122084610537565b6001600160a01b0316145b8061125b57506001600160a01b0380821660009081526005602090815260408083209388168352929052205460ff165b949350505050565b600f5460ff161561134357600160005b6010548110156112fa576010818154811061129057611290612043565b6000918252602090912001546001600160a01b03868116911614806112de5750601081815481106112c3576112c3612043565b6000918252602090912001546001600160a01b038581169116145b156112e857600091505b806112f281612201565b915050611273565b5080156113415760405162461bcd60e51b81526020600482015260156024820152742a3930b739b332b91034b9903337b93134b23232b760591b60448201526064016105ac565b505b6106e18383836115cb565b61093d828260405180602001604052806000815250611772565b600a80546001600160a01b038381166001600160a01b0319831681179093556040519116919082907f8be0079c531659141344cd1fd0a4f28419497f9722a3daafe3b4186f6b6457e090600090a35050565b816001600160a01b0316836001600160a01b03160361141b5760405162461bcd60e51b815260206004820152601960248201527f4552433732313a20617070726f766520746f2063616c6c65720000000000000060448201526064016105ac565b6001600160a01b03838116600081815260056020908152604080832094871680845294825291829020805460ff191686151590811790915591519182527f17307eab39ab6107e8899845ad3d59bd9653f200f220920489ca2b5937696c31910160405180910390a3505050565b611493848484611263565b61149f848484846117a5565b610b755760405162461bcd60e51b81526004016105ac9061221a565b6060600e80546104b490611f83565b6060816000036114f15750506040805180820190915260018152600360fc1b602082015290565b8160005b811561151b578061150581612201565b91506115149050600a83612282565b91506114f5565b60008167ffffffffffffffff81111561153657611536611d9f565b6040519080825280601f01601f191660200182016040528015611560576020820181803683370190505b5090505b841561125b57611575600183612296565b9150611582600a866122ad565b61158d9060306122c1565b60f81b8183815181106115a2576115a2612043565b60200101906001600160f81b031916908160001a9053506115c4600a86612282565b9450611564565b826001600160a01b03166115de826109f7565b6001600160a01b0316146116425760405162461bcd60e51b815260206004820152602560248201527f4552433732313a207472616e736665722066726f6d20696e636f72726563742060448201526437bbb732b960d91b60648201526084016105ac565b6001600160a01b0382166116a45760405162461bcd60e51b8152602060048201526024808201527f4552433732313a207472616e7366657220746f20746865207a65726f206164646044820152637265737360e01b60648201526084016105ac565b6116af8383836118a6565b6116ba6000826110fe565b6001600160a01b03831660009081526003602052604081208054600192906116e3908490612296565b90915550506001600160a01b03821660009081526003602052604081208054600192906117119084906122c1565b909155505060008181526002602052604080822080546001600160a01b0319166001600160a01b0386811691821790925591518493918716917fddf252ad1be2c89b69c2b068fc378daa952ba7f163c4a11628f55a4df523b3ef91a4505050565b61177c838361195e565b61178960008484846117a5565b6106e15760405162461bcd60e51b81526004016105ac9061221a565b60006001600160a01b0384163b1561189b57604051630a85bd0160e11b81526001600160a01b0385169063150b7a02906117e99033908990889088906004016122d9565b6020604051808303816000875af1925050508015611824575060408051601f3d908101601f1916820190925261182191810190612315565b60015b611881573d808015611852576040519150601f19603f3d011682016040523d82523d6000602084013e611857565b606091505b5080516000036118795760405162461bcd60e51b81526004016105ac9061221a565b805181602001fd5b6001600160e01b031916630a85bd0160e11b14905061125b565b506001949350505050565b6001600160a01b038316611901576118fc81600880546000838152600960205260408120829055600182018355919091527ff3f7a9fe364faab93b216da50a3214154f22a0a2b415b23a84c8169e8b636ee30155565b611924565b816001600160a01b0316836001600160a01b031614611924576119248382611aac565b6001600160a01b03821661193b576106e181611b49565b826001600160a01b0316826001600160a01b0316146106e1576106e18282611bf8565b6001600160a01b0382166119b45760405162461bcd60e51b815260206004820181905260248201527f4552433732313a206d696e7420746f20746865207a65726f206164647265737360448201526064016105ac565b6000818152600260205260409020546001600160a01b031615611a195760405162461bcd60e51b815260206004820152601c60248201527f4552433732313a20746f6b656e20616c7265616479206d696e7465640000000060448201526064016105ac565b611a25600083836118a6565b6001600160a01b0382166000908152600360205260408120805460019290611a4e9084906122c1565b909155505060008181526002602052604080822080546001600160a01b0319166001600160a01b03861690811790915590518392907fddf252ad1be2c89b69c2b068fc378daa952ba7f163c4a11628f55a4df523b3ef908290a45050565b60006001611ab984610a6e565b611ac39190612296565b600083815260076020526040902054909150808214611b16576001600160a01b03841660009081526006602090815260408083208584528252808320548484528184208190558352600790915290208190555b5060009182526007602090815260408084208490556001600160a01b039094168352600681528383209183525290812055565b600854600090611b5b90600190612296565b60008381526009602052604081205460088054939450909284908110611b8357611b83612043565b906000526020600020015490508060088381548110611ba457611ba4612043565b6000918252602080832090910192909255828152600990915260408082208490558582528120556008805480611bdc57611bdc612332565b6001900381819060005260206000200160009055905550505050565b6000611c0383610a6e565b6001600160a01b039093166000908152600660209081526040808320868452825280832085905593825260079052919091209190915550565b6001600160e01b03198116811461108f57600080fd5b600060208284031215611c6457600080fd5b8135610c8d81611c3c565b60005b83811015611c8a578181015183820152602001611c72565b83811115610b755750506000910152565b60008151808452611cb3816020860160208601611c6f565b601f01601f19169290920160200192915050565b602081526000610c8d6020830184611c9b565b600060208284031215611cec57600080fd5b5035919050565b80356001600160a01b0381168114611d0a57600080fd5b919050565b60008060408385031215611d2257600080fd5b611d2b83611cf3565b946020939093013593505050565b600080600060608486031215611d4e57600080fd5b611d5784611cf3565b9250611d6560208501611cf3565b9150604084013590509250925092565b600060208284031215611d8757600080fd5b813567ffffffffffffffff81168114610c8d57600080fd5b634e487b7160e01b600052604160045260246000fd5b600067ffffffffffffffff80841115611dd057611dd0611d9f565b604051601f8501601f19908116603f01168101908282118183101715611df857611df8611d9f565b81604052809350858152868686011115611e1157600080fd5b858560208301376000602087830101525050509392505050565b600060208284031215611e3d57600080fd5b813567ffffffffffffffff811115611e5457600080fd5b8201601f81018413611e6557600080fd5b61125b84823560208401611db5565b600060208284031215611e8657600080fd5b610c8d82611cf3565b801515811461108f57600080fd5b60008060408385031215611eb057600080fd5b611eb983611cf3565b91506020830135611ec981611e8f565b809150509250929050565b60008060008060808587031215611eea57600080fd5b611ef385611cf3565b9350611f0160208601611cf3565b925060408501359150606085013567ffffffffffffffff811115611f2457600080fd5b8501601f81018713611f3557600080fd5b611f4487823560208401611db5565b91505092959194509250565b60008060408385031215611f6357600080fd5b611f6c83611cf3565b9150611f7a60208401611cf3565b90509250929050565b600181811c90821680611f9757607f821691505b602082108103611fb757634e487b7160e01b600052602260045260246000fd5b50919050565b6020808252818101527f4f776e61626c653a2063616c6c6572206973206e6f7420746865206f776e6572604082015260600190565b60208082526031908201527f4552433732313a207472616e736665722063616c6c6572206973206e6f74206f6040820152701ddb995c881b9bdc88185c1c1c9bdd9959607a1b606082015260800190565b634e487b7160e01b600052603260045260246000fd5b601f8211156106e157600081815260208120601f850160051c810160208610156120805750805b601f850160051c820191505b8181101561209f5782815560010161208c565b505050505050565b815167ffffffffffffffff8111156120c1576120c1611d9f565b6120d5816120cf8454611f83565b84612059565b602080601f83116001811461210a57600084156120f25750858301515b600019600386901b1c1916600185901b17855561209f565b600085815260208120601f198616915b828110156121395788860151825594840194600190910190840161211a565b50858210156121575787850151600019600388901b60f8161c191681555b5050505050600190811b01905550565b60008351612179818460208801611c6f565b83519083019061218d818360208801611c6f565b01949350505050565b634e487b7160e01b600052601160045260246000fd5b60008160001904831182151516156121c6576121c6612196565b500290565b6000602082840312156121dd57600080fd5b5051919050565b6000602082840312156121f657600080fd5b8151610c8d81611e8f565b60006001820161221357612213612196565b5060010190565b60208082526032908201527f4552433732313a207472616e7366657220746f206e6f6e20455243373231526560408201527131b2b4bb32b91034b6b83632b6b2b73a32b960711b606082015260800190565b634e487b7160e01b600052601260045260246000fd5b6000826122915761229161226c565b500490565b6000828210156122a8576122a8612196565b500390565b6000826122bc576122bc61226c565b500690565b600082198211156122d4576122d4612196565b500190565b60006001600160a01b0380871683528086166020840152508360408301526080606083015261230b6080830184611c9b565b9695505050505050565b60006020828403121561232757600080fd5b8151610c8d81611c3c565b634e487b7160e01b600052603160045260246000fdfea264697066735822122023bd1e4908c79c10736a90d71d9abbf67e26aa864d9bc1e3e9663834427449e364736f6c634300080f00334552433732313a207472616e7366657220746f206e6f6e204552433732315265",
  "devdoc": {
    "kind": "dev",
    "methods": {
      "approve(address,uint256)": {
        "details": "See {IERC721-approve}."
      },
      "balanceOf(address)": {
        "details": "See {IERC721-balanceOf}."
      },
      "getApproved(uint256)": {
        "details": "See {IERC721-getApproved}."
      },
      "isApprovedForAll(address,address)": {
        "details": "See {IERC721-isApprovedForAll}."
      },
      "name()": {
        "details": "See {IERC721Metadata-name}."
      },
      "owner()": {
        "details": "Returns the address of the current owner."
      },
      "ownerOf(uint256)": {
        "details": "See {IERC721-ownerOf}."
      },
      "renounceOwnership()": {
        "details": "Leaves the contract without owner. It will not be possible to call `onlyOwner` functions anymore. Can only be called by the current owner. NOTE: Renouncing ownership will leave the contract without an owner, thereby removing any functionality that is only available to the owner."
      },
      "safeTransferFrom(address,address,uint256)": {
        "details": "See {IERC721-safeTransferFrom}."
      },
      "safeTransferFrom(address,address,uint256,bytes)": {
        "details": "See {IERC721-safeTransferFrom}."
      },
      "setApprovalForAll(address,bool)": {
        "details": "See {IERC721-setApprovalForAll}."
      },
      "supportsInterface(bytes4)": {
        "details": "See {IERC165-supportsInterface}."
      },
      "symbol()": {
        "details": "See {IERC721Metadata-symbol}."
      },
      "tokenByIndex(uint256)": {
        "details": "See {IERC721Enumerable-tokenByIndex}."
      },
      "tokenOfOwnerByIndex(address,uint256)": {
        "details": "See {IERC721Enumerable-tokenOfOwnerByIndex}."
      },
      "tokenURI(uint256)": {
        "details": "See {IERC721Metadata-tokenURI}."
      },
      "totalSupply()": {
        "details": "See {IERC721Enumerable-totalSupply}."
      },
      "transferFrom(address,address,uint256)": {
        "details": "See {IERC721-transferFrom}."
      },
      "transferOwnership(address)": {
        "details": "Transfers ownership of the contract to a new account (`newOwner`). Can only be called by the current owner."
      }
    },
    "title": "Defo Diamond Node Minting Contract",
    "version": 1
  },
  "userdoc": {
    "kind": "user",
    "methods": {
      "mintNode()": {
        "notice": "allows users to mint diamond nodes"
      },
      "setBaseURI(string)": {
        "notice": "allows the owner to set the baseURI"
      },
      "setMaxPerWallet(uint64)": {
        "notice": "allows the owner to set the max amount of nodes one wallet can hold"
      },
      "setMaxTotalDiamondNodes(uint64)": {
        "notice": "allows the owner to set the total amount of diamond nodes"
      },
      "setSaleState()": {
        "notice": "allows the owner to render the sale inactive/active, in other words pausing and resuming"
      }
    },
    "notice": "Contract for minting diamond nodes",
    "version": 1
  },
  "storageLayout": {
    "storage": [
      {
        "astId": 1317,
        "contract": "contracts/presale/presaleDiamond.sol:DiamondNode",
        "label": "_name",
        "offset": 0,
        "slot": "0",
        "type": "t_string_storage"
      },
      {
        "astId": 1319,
        "contract": "contracts/presale/presaleDiamond.sol:DiamondNode",
        "label": "_symbol",
        "offset": 0,
        "slot": "1",
        "type": "t_string_storage"
      },
      {
        "astId": 1323,
        "contract": "contracts/presale/presaleDiamond.sol:DiamondNode",
        "label": "_owners",
        "offset": 0,
        "slot": "2",
        "type": "t_mapping(t_uint256,t_address)"
      },
      {
        "astId": 1327,
        "contract": "contracts/presale/presaleDiamond.sol:DiamondNode",
        "label": "_balances",
        "offset": 0,
        "slot": "3",
        "type": "t_mapping(t_address,t_uint256)"
      },
      {
        "astId": 1331,
        "contract": "contracts/presale/presaleDiamond.sol:DiamondNode",
        "label": "_tokenApprovals",
        "offset": 0,
        "slot": "4",
        "type": "t_mapping(t_uint256,t_address)"
      },
      {
        "astId": 1337,
        "contract": "contracts/presale/presaleDiamond.sol:DiamondNode",
        "label": "_operatorApprovals",
        "offset": 0,
        "slot": "5",
        "type": "t_mapping(t_address,t_mapping(t_address,t_bool))"
      },
      {
        "astId": 2169,
        "contract": "contracts/presale/presaleDiamond.sol:DiamondNode",
        "label": "_ownedTokens",
        "offset": 0,
        "slot": "6",
        "type": "t_mapping(t_address,t_mapping(t_uint256,t_uint256))"
      },
      {
        "astId": 2173,
        "contract": "contracts/presale/presaleDiamond.sol:DiamondNode",
        "label": "_ownedTokensIndex",
        "offset": 0,
        "slot": "7",
        "type": "t_mapping(t_uint256,t_uint256)"
      },
      {
        "astId": 2176,
        "contract": "contracts/presale/presaleDiamond.sol:DiamondNode",
        "label": "_allTokens",
        "offset": 0,
        "slot": "8",
        "type": "t_array(t_uint256)dyn_storage"
      },
      {
        "astId": 2180,
        "contract": "contracts/presale/presaleDiamond.sol:DiamondNode",
        "label": "_allTokensIndex",
        "offset": 0,
        "slot": "9",
        "type": "t_mapping(t_uint256,t_uint256)"
      },
      {
        "astId": 690,
        "contract": "contracts/presale/presaleDiamond.sol:DiamondNode",
        "label": "_owner",
        "offset": 0,
        "slot": "10",
        "type": "t_address"
      },
      {
        "astId": 10571,
        "contract": "contracts/presale/presaleDiamond.sol:DiamondNode",
        "label": "supply",
        "offset": 0,
        "slot": "11",
        "type": "t_struct(Counter)316_storage"
      },
      {
        "astId": 10574,
        "contract": "contracts/presale/presaleDiamond.sol:DiamondNode",
        "label": "activeSale",
        "offset": 0,
        "slot": "12",
        "type": "t_bool"
      },
      {
        "astId": 10577,
        "contract": "contracts/presale/presaleDiamond.sol:DiamondNode",
        "label": "maxTotalDiamondNodes",
        "offset": 1,
        "slot": "12",
        "type": "t_uint64"
      },
      {
        "astId": 10580,
        "contract": "contracts/presale/presaleDiamond.sol:DiamondNode",
        "label": "maxNodesPerWallet",
        "offset": 9,
        "slot": "12",
        "type": "t_uint64"
      },
      {
        "astId": 10583,
        "contract": "contracts/presale/presaleDiamond.sol:DiamondNode",
        "label": "diamondNodePrice",
        "offset": 0,
        "slot": "13",
        "type": "t_uint256"
      },
      {
        "astId": 10585,
        "contract": "contracts/presale/presaleDiamond.sol:DiamondNode",
        "label": "baseURI",
        "offset": 0,
        "slot": "14",
        "type": "t_string_storage"
      },
      {
        "astId": 10596,
        "contract": "contracts/presale/presaleDiamond.sol:DiamondNode",
        "label": "transferLock",
        "offset": 0,
        "slot": "15",
        "type": "t_bool"
      },
      {
        "astId": 10599,
        "contract": "contracts/presale/presaleDiamond.sol:DiamondNode",
        "label": "whitelist",
        "offset": 0,
        "slot": "16",
        "type": "t_array(t_address)dyn_storage"
      },
      {
        "astId": 10603,
        "contract": "contracts/presale/presaleDiamond.sol:DiamondNode",
        "label": "DAIToken",
        "offset": 0,
        "slot": "17",
        "type": "t_contract(IERC20)461"
      }
    ],
    "types": {
      "t_address": {
        "encoding": "inplace",
        "label": "address",
        "numberOfBytes": "20"
      },
      "t_array(t_address)dyn_storage": {
        "base": "t_address",
        "encoding": "dynamic_array",
        "label": "address[]",
        "numberOfBytes": "32"
      },
      "t_array(t_uint256)dyn_storage": {
        "base": "t_uint256",
        "encoding": "dynamic_array",
        "label": "uint256[]",
        "numberOfBytes": "32"
      },
      "t_bool": {
        "encoding": "inplace",
        "label": "bool",
        "numberOfBytes": "1"
      },
      "t_contract(IERC20)461": {
        "encoding": "inplace",
        "label": "contract IERC20",
        "numberOfBytes": "20"
      },
      "t_mapping(t_address,t_bool)": {
        "encoding": "mapping",
        "key": "t_address",
        "label": "mapping(address => bool)",
        "numberOfBytes": "32",
        "value": "t_bool"
      },
      "t_mapping(t_address,t_mapping(t_address,t_bool))": {
        "encoding": "mapping",
        "key": "t_address",
        "label": "mapping(address => mapping(address => bool))",
        "numberOfBytes": "32",
        "value": "t_mapping(t_address,t_bool)"
      },
      "t_mapping(t_address,t_mapping(t_uint256,t_uint256))": {
        "encoding": "mapping",
        "key": "t_address",
        "label": "mapping(address => mapping(uint256 => uint256))",
        "numberOfBytes": "32",
        "value": "t_mapping(t_uint256,t_uint256)"
      },
      "t_mapping(t_address,t_uint256)": {
        "encoding": "mapping",
        "key": "t_address",
        "label": "mapping(address => uint256)",
        "numberOfBytes": "32",
        "value": "t_uint256"
      },
      "t_mapping(t_uint256,t_address)": {
        "encoding": "mapping",
        "key": "t_uint256",
        "label": "mapping(uint256 => address)",
        "numberOfBytes": "32",
        "value": "t_address"
      },
      "t_mapping(t_uint256,t_uint256)": {
        "encoding": "mapping",
        "key": "t_uint256",
        "label": "mapping(uint256 => uint256)",
        "numberOfBytes": "32",
        "value": "t_uint256"
      },
      "t_string_storage": {
        "encoding": "bytes",
        "label": "string",
        "numberOfBytes": "32"
      },
      "t_struct(Counter)316_storage": {
        "encoding": "inplace",
        "label": "struct Counters.Counter",
        "members": [
          {
            "astId": 315,
            "contract": "contracts/presale/presaleDiamond.sol:DiamondNode",
            "label": "_value",
            "offset": 0,
            "slot": "0",
            "type": "t_uint256"
          }
        ],
        "numberOfBytes": "32"
      },
      "t_uint256": {
        "encoding": "inplace",
        "label": "uint256",
        "numberOfBytes": "32"
      },
      "t_uint64": {
        "encoding": "inplace",
        "label": "uint64",
        "numberOfBytes": "8"
      }
    }
  }
}