{
  "address": "0x1bF1C65D76F7f8A1802ceB9c7ba0428886aAB49b",
  "abi": [
    {
      "inputs": [
        {
          "internalType": "address",
          "name": "DAI_address",
          "type": "address"
        }
      ],
      "stateMutability": "nonpayable",
      "type": "constructor"
    },
    {
      "anonymous": false,
      "inputs": [
        {
          "indexed": true,
          "internalType": "address",
          "name": "owner",
          "type": "address"
        },
        {
          "indexed": true,
          "internalType": "address",
          "name": "approved",
          "type": "address"
        },
        {
          "indexed": true,
          "internalType": "uint256",
          "name": "tokenId",
          "type": "uint256"
        }
      ],
      "name": "Approval",
      "type": "event"
    },
    {
      "anonymous": false,
      "inputs": [
        {
          "indexed": true,
          "internalType": "address",
          "name": "owner",
          "type": "address"
        },
        {
          "indexed": true,
          "internalType": "address",
          "name": "operator",
          "type": "address"
        },
        {
          "indexed": false,
          "internalType": "bool",
          "name": "approved",
          "type": "bool"
        }
      ],
      "name": "ApprovalForAll",
      "type": "event"
    },
    {
      "anonymous": false,
      "inputs": [
        {
          "indexed": true,
          "internalType": "address",
          "name": "previousOwner",
          "type": "address"
        },
        {
          "indexed": true,
          "internalType": "address",
          "name": "newOwner",
          "type": "address"
        }
      ],
      "name": "OwnershipTransferred",
      "type": "event"
    },
    {
      "anonymous": false,
      "inputs": [
        {
          "indexed": true,
          "internalType": "address",
          "name": "from",
          "type": "address"
        },
        {
          "indexed": true,
          "internalType": "address",
          "name": "to",
          "type": "address"
        },
        {
          "indexed": true,
          "internalType": "uint256",
          "name": "tokenId",
          "type": "uint256"
        }
      ],
      "name": "Transfer",
      "type": "event"
    },
    {
      "inputs": [],
      "name": "activeSale",
      "outputs": [
        {
          "internalType": "bool",
          "name": "",
          "type": "bool"
        }
      ],
      "stateMutability": "view",
      "type": "function"
    },
    {
      "inputs": [
        {
          "internalType": "address",
          "name": "_whitelistedAddress",
          "type": "address"
        }
      ],
      "name": "addToWhitelist",
      "outputs": [],
      "stateMutability": "nonpayable",
      "type": "function"
    },
    {
      "inputs": [
        {
          "internalType": "address",
          "name": "to",
          "type": "address"
        },
        {
          "internalType": "uint256",
          "name": "tokenId",
          "type": "uint256"
        }
      ],
      "name": "approve",
      "outputs": [],
      "stateMutability": "nonpayable",
      "type": "function"
    },
    {
      "inputs": [
        {
          "internalType": "address",
          "name": "owner",
          "type": "address"
        }
      ],
      "name": "balanceOf",
      "outputs": [
        {
          "internalType": "uint256",
          "name": "",
          "type": "uint256"
        }
      ],
      "stateMutability": "view",
      "type": "function"
    },
    {
      "inputs": [],
      "name": "diamondNodePrice",
      "outputs": [
        {
          "internalType": "uint256",
          "name": "",
          "type": "uint256"
        }
      ],
      "stateMutability": "view",
      "type": "function"
    },
    {
      "inputs": [
        {
          "internalType": "uint256",
          "name": "tokenId",
          "type": "uint256"
        }
      ],
      "name": "getApproved",
      "outputs": [
        {
          "internalType": "address",
          "name": "",
          "type": "address"
        }
      ],
      "stateMutability": "view",
      "type": "function"
    },
    {
      "inputs": [],
      "name": "getPrice",
      "outputs": [
        {
          "internalType": "uint256",
          "name": "",
          "type": "uint256"
        }
      ],
      "stateMutability": "view",
      "type": "function"
    },
    {
      "inputs": [],
      "name": "giveAwayMint",
      "outputs": [],
      "stateMutability": "nonpayable",
      "type": "function"
    },
    {
      "inputs": [
        {
          "internalType": "address",
          "name": "owner",
          "type": "address"
        },
        {
          "internalType": "address",
          "name": "operator",
          "type": "address"
        }
      ],
      "name": "isApprovedForAll",
      "outputs": [
        {
          "internalType": "bool",
          "name": "",
          "type": "bool"
        }
      ],
      "stateMutability": "view",
      "type": "function"
    },
    {
      "inputs": [],
      "name": "maxNodesPerWallet",
      "outputs": [
        {
          "internalType": "uint64",
          "name": "",
          "type": "uint64"
        }
      ],
      "stateMutability": "view",
      "type": "function"
    },
    {
      "inputs": [],
      "name": "maxTotalDiamondNodes",
      "outputs": [
        {
          "internalType": "uint64",
          "name": "",
          "type": "uint64"
        }
      ],
      "stateMutability": "view",
      "type": "function"
    },
    {
      "inputs": [
        {
          "internalType": "uint256",
          "name": "amount",
          "type": "uint256"
        }
      ],
      "name": "mintNode",
      "outputs": [],
      "stateMutability": "nonpayable",
      "type": "function"
    },
    {
      "inputs": [],
      "name": "name",
      "outputs": [
        {
          "internalType": "string",
          "name": "",
          "type": "string"
        }
      ],
      "stateMutability": "view",
      "type": "function"
    },
    {
      "inputs": [],
      "name": "owner",
      "outputs": [
        {
          "internalType": "address",
          "name": "",
          "type": "address"
        }
      ],
      "stateMutability": "view",
      "type": "function"
    },
    {
      "inputs": [
        {
          "internalType": "uint256",
          "name": "tokenId",
          "type": "uint256"
        }
      ],
      "name": "ownerOf",
      "outputs": [
        {
          "internalType": "address",
          "name": "",
          "type": "address"
        }
      ],
      "stateMutability": "view",
      "type": "function"
    },
    {
      "inputs": [],
      "name": "renounceOwnership",
      "outputs": [],
      "stateMutability": "nonpayable",
      "type": "function"
    },
    {
      "inputs": [
        {
          "internalType": "address",
          "name": "from",
          "type": "address"
        },
        {
          "internalType": "address",
          "name": "to",
          "type": "address"
        },
        {
          "internalType": "uint256",
          "name": "tokenId",
          "type": "uint256"
        }
      ],
      "name": "safeTransferFrom",
      "outputs": [],
      "stateMutability": "nonpayable",
      "type": "function"
    },
    {
      "inputs": [
        {
          "internalType": "address",
          "name": "from",
          "type": "address"
        },
        {
          "internalType": "address",
          "name": "to",
          "type": "address"
        },
        {
          "internalType": "uint256",
          "name": "tokenId",
          "type": "uint256"
        },
        {
          "internalType": "bytes",
          "name": "_data",
          "type": "bytes"
        }
      ],
      "name": "safeTransferFrom",
      "outputs": [],
      "stateMutability": "nonpayable",
      "type": "function"
    },
    {
      "inputs": [
        {
          "internalType": "address",
          "name": "operator",
          "type": "address"
        },
        {
          "internalType": "bool",
          "name": "approved",
          "type": "bool"
        }
      ],
      "name": "setApprovalForAll",
      "outputs": [],
      "stateMutability": "nonpayable",
      "type": "function"
    },
    {
      "inputs": [
        {
          "internalType": "string",
          "name": "_tokenBaseURI",
          "type": "string"
        }
      ],
      "name": "setBaseURI",
      "outputs": [],
      "stateMutability": "nonpayable",
      "type": "function"
    },
    {
      "inputs": [
        {
          "internalType": "uint64",
          "name": "_newAmount",
          "type": "uint64"
        }
      ],
      "name": "setMaxPerWallet",
      "outputs": [],
      "stateMutability": "nonpayable",
      "type": "function"
    },
    {
      "inputs": [
        {
          "internalType": "uint64",
          "name": "_newNodeAmount",
          "type": "uint64"
        }
      ],
      "name": "setMaxTotalDiamondNodes",
      "outputs": [],
      "stateMutability": "nonpayable",
      "type": "function"
    },
    {
      "inputs": [],
      "name": "setSaleState",
      "outputs": [],
      "stateMutability": "nonpayable",
      "type": "function"
    },
    {
      "inputs": [],
      "name": "setTransferLock",
      "outputs": [],
      "stateMutability": "nonpayable",
      "type": "function"
    },
    {
      "inputs": [
        {
          "internalType": "bytes4",
          "name": "interfaceId",
          "type": "bytes4"
        }
      ],
      "name": "supportsInterface",
      "outputs": [
        {
          "internalType": "bool",
          "name": "",
          "type": "bool"
        }
      ],
      "stateMutability": "view",
      "type": "function"
    },
    {
      "inputs": [],
      "name": "symbol",
      "outputs": [
        {
          "internalType": "string",
          "name": "",
          "type": "string"
        }
      ],
      "stateMutability": "view",
      "type": "function"
    },
    {
      "inputs": [
        {
          "internalType": "uint256",
          "name": "index",
          "type": "uint256"
        }
      ],
      "name": "tokenByIndex",
      "outputs": [
        {
          "internalType": "uint256",
          "name": "",
          "type": "uint256"
        }
      ],
      "stateMutability": "view",
      "type": "function"
    },
    {
      "inputs": [
        {
          "internalType": "address",
          "name": "owner",
          "type": "address"
        },
        {
          "internalType": "uint256",
          "name": "index",
          "type": "uint256"
        }
      ],
      "name": "tokenOfOwnerByIndex",
      "outputs": [
        {
          "internalType": "uint256",
          "name": "",
          "type": "uint256"
        }
      ],
      "stateMutability": "view",
      "type": "function"
    },
    {
      "inputs": [
        {
          "internalType": "uint256",
          "name": "tokenId",
          "type": "uint256"
        }
      ],
      "name": "tokenURI",
      "outputs": [
        {
          "internalType": "string",
          "name": "",
          "type": "string"
        }
      ],
      "stateMutability": "view",
      "type": "function"
    },
    {
      "inputs": [],
      "name": "totalSupply",
      "outputs": [
        {
          "internalType": "uint256",
          "name": "",
          "type": "uint256"
        }
      ],
      "stateMutability": "view",
      "type": "function"
    },
    {
      "inputs": [
        {
          "internalType": "address",
          "name": "from",
          "type": "address"
        },
        {
          "internalType": "address",
          "name": "to",
          "type": "address"
        },
        {
          "internalType": "uint256",
          "name": "tokenId",
          "type": "uint256"
        }
      ],
      "name": "transferFrom",
      "outputs": [],
      "stateMutability": "nonpayable",
      "type": "function"
    },
    {
      "inputs": [
        {
          "internalType": "address",
          "name": "newOwner",
          "type": "address"
        }
      ],
      "name": "transferOwnership",
      "outputs": [],
      "stateMutability": "nonpayable",
      "type": "function"
    }
  ],
  "transactionHash": "0xf4022e2dad0ab72895f65ed28f3f6bebd8106cd34ff61bb55d0fa8e3c0b05684",
  "args": [
    "0x3362FE2f7E17A5a9F90DaBE12E4A6E16E146F19a"
  ],
  "numDeployments": 1,
  "solcInputHash": "2287e27c6029eee9f60f47b0937a3206",
  "bytecode": "0x6080604052600c80546001600160881b03191669010000000000000023001790556107d0600d55600f805460ff191660011790553480156200004057600080fd5b506040516200279f3803806200279f8339810160408190526200006391620001e0565b6040518060400160405280601881526020017f4465666f204469616d6f6e64204f6d656761204e6f646520000000000000000081525060405180604001604052806004815260200163222227a760e11b8152508160009081620000c79190620002b7565b506001620000d68282620002b7565b505050620000f3620000ed6200018a60201b60201c565b6200018e565b601180546001600160a01b039092166001600160a01b0319928316179055601080546001818101835560008390527f1b6847dc741a1b0cd08d278845f9d819d87b734759afb55fe2de5cb82a9ae6729182018054851690558254808201845582018054851661dead179055825490810190925501805490911673aef6bd49e374c067672babc554a7aee36fb7126717905562000383565b3390565b600a80546001600160a01b038381166001600160a01b0319831681179093556040519116919082907f8be0079c531659141344cd1fd0a4f28419497f9722a3daafe3b4186f6b6457e090600090a35050565b600060208284031215620001f357600080fd5b81516001600160a01b03811681146200020b57600080fd5b9392505050565b634e487b7160e01b600052604160045260246000fd5b600181811c908216806200023d57607f821691505b6020821081036200025e57634e487b7160e01b600052602260045260246000fd5b50919050565b601f821115620002b257600081815260208120601f850160051c810160208610156200028d5750805b601f850160051c820191505b81811015620002ae5782815560010162000299565b5050505b505050565b81516001600160401b03811115620002d357620002d362000212565b620002eb81620002e4845462000228565b8462000264565b602080601f8311600181146200032357600084156200030a5750858301515b600019600386901b1c1916600185901b178555620002ae565b600085815260208120601f198616915b82811015620003545788860151825594840194600190910190840162000333565b5085821015620003735787850151600019600388901b60f8161c191681555b5050505050600190811b01905550565b61240c80620003936000396000f3fe608060405234801561001057600080fd5b50600436106101f05760003560e01c80635fc4442b1161010f578063a2a7b0f2116100a2578063e43252d711610071578063e43252d714610410578063e985e9c514610423578063ef704bc81461045f578063f2fde38b1461047257600080fd5b8063a2a7b0f2146103c7578063b88d4fde146103e2578063c7d6d9c5146103f5578063c87b56dd146103fd57600080fd5b80638da5cb5b116100de5780638da5cb5b1461039357806395d89b41146103a457806398d5fdca146103ac578063a22cb465146103b457600080fd5b80635fc4442b1461035d5780636352211e1461036557806370a0823114610378578063715018a61461038b57600080fd5b806323b872dd1161018757806345a8d86f1161015657806345a8d86f146102f85780634e17700a1461032a5780634f6ccce71461033757806355f804b31461034a57600080fd5b806323b872dd146102ac5780632f745c59146102bf5780633e9f610b146102d257806342842e0e146102e557600080fd5b80630debc023116101c35780630debc0231461027257806318160ddd146102855780631ce9edc71461029b5780631ed40559146102a457600080fd5b806301ffc9a7146101f557806306fdde031461021d578063081812fc14610232578063095ea7b31461025d575b600080fd5b610208610203366004611ce0565b610485565b60405190151581526020015b60405180910390f35b6102256104b0565b6040516102149190611d55565b610245610240366004611d68565b610542565b6040516001600160a01b039091168152602001610214565b61027061026b366004611d9d565b6105dc565b005b610270610280366004611d68565b6106f1565b61028d610a2d565b604051908152602001610214565b61028d600d5481565b610270610a3d565b6102706102ba366004611dc7565b610a7b565b61028d6102cd366004611d9d565b610aac565b6102706102e0366004611e03565b610b42565b6102706102f3366004611dc7565b610ba0565b600c5461031190610100900467ffffffffffffffff1681565b60405167ffffffffffffffff9091168152602001610214565b600c546102089060ff1681565b61028d610345366004611d68565b610bbb565b610270610358366004611eb9565b610c4e565b610270610c84565b610245610373366004611d68565b610d34565b61028d610386366004611f02565b610dab565b610270610e32565b600a546001600160a01b0316610245565b610225610e66565b600d5461028d565b6102706103c2366004611f2b565b610e75565b600c5461031190600160481b900467ffffffffffffffff1681565b6102706103f0366004611f62565b610e80565b610270610eb8565b61022561040b366004611d68565b610ef6565b61027061041e366004611f02565b610fd1565b610208610431366004611fde565b6001600160a01b03918216600090815260056020908152604080832093909416825291909152205460ff1690565b61027061046d366004611e03565b61104d565b610270610480366004611f02565b6110a1565b60006001600160e01b0319821663780e9d6360e01b14806104aa57506104aa8261113c565b92915050565b6060600080546104bf90612011565b80601f01602080910402602001604051908101604052809291908181526020018280546104eb90612011565b80156105385780601f1061050d57610100808354040283529160200191610538565b820191906000526020600020905b81548152906001019060200180831161051b57829003601f168201915b5050505050905090565b6000818152600260205260408120546001600160a01b03166105c05760405162461bcd60e51b815260206004820152602c60248201527f4552433732313a20617070726f76656420717565727920666f72206e6f6e657860448201526b34b9ba32b73a103a37b5b2b760a11b60648201526084015b60405180910390fd5b506000908152600460205260409020546001600160a01b031690565b60006105e782610d34565b9050806001600160a01b0316836001600160a01b0316036106545760405162461bcd60e51b815260206004820152602160248201527f4552433732313a20617070726f76616c20746f2063757272656e74206f776e656044820152603960f91b60648201526084016105b7565b336001600160a01b038216148061067057506106708133610431565b6106e25760405162461bcd60e51b815260206004820152603860248201527f4552433732313a20617070726f76652063616c6c6572206973206e6f74206f7760448201527f6e6572206e6f7220617070726f76656420666f7220616c6c000000000000000060648201526084016105b7565b6106ec838361118c565b505050565b600c5460ff1615156001146107485760405162461bcd60e51b815260206004820152601c60248201527f53616c65206973206e6f742063757272656e746c79206163746976650000000060448201526064016105b7565b600c54600160481b900467ffffffffffffffff168161076633610dab565b6107709190612061565b11156107d55760405162461bcd60e51b815260206004820152602e60248201527f43616e6e6f74206d696e74206d6f7265207468616e20606d61784e6f6465506560448201526d7257616c6c657460206e6f64657360901b60648201526084016105b7565b600c5467ffffffffffffffff61010090910416816107f2600b5490565b6107fc9190612061565b106108495760405162461bcd60e51b815260206004820152601d60248201527f4e6f206d6f7265206469616d6f6e64206e6f64657320746f206d696e7400000060448201526064016105b7565b80670de0b6b3a7640000600d546108609190612079565b61086a9190612079565b6011546040516370a0823160e01b81523360048201526001600160a01b03909116906370a0823190602401602060405180830381865afa1580156108b2573d6000803e3d6000fd5b505050506040513d601f19601f820116820180604052508101906108d69190612098565b10156109245760405162461bcd60e51b815260206004820152601860248201527f496e73756666756369656e74204441492062616c616e6365000000000000000060448201526064016105b7565b601154600d546001600160a01b03909116906323b872dd90339073aef6bd49e374c067672babc554a7aee36fb7126790859061096990670de0b6b3a764000090612079565b6109739190612079565b6040516001600160e01b031960e086901b1681526001600160a01b03938416600482015292909116602483015260448201526064016020604051808303816000875af11580156109c7573d6000803e3d6000fd5b505050506040513d601f19601f820116820180604052508101906109eb91906120b1565b5060005b81811015610a2957610a05600b80546001019055565b610a1733610a12600b5490565b6111fa565b80610a21816120ce565b9150506109ef565b5050565b6000610a38600b5490565b905090565b600a546001600160a01b03163314610a675760405162461bcd60e51b81526004016105b7906120e7565b600c805460ff19811660ff90911615179055565b610a853382611214565b610aa15760405162461bcd60e51b81526004016105b79061211c565b6106ec83838361130b565b6000610ab783610dab565b8210610b195760405162461bcd60e51b815260206004820152602b60248201527f455243373231456e756d657261626c653a206f776e657220696e646578206f7560448201526a74206f6620626f756e647360a81b60648201526084016105b7565b506001600160a01b03919091166000908152600660209081526040808320938352929052205490565b600a546001600160a01b03163314610b6c5760405162461bcd60e51b81526004016105b7906120e7565b600c805467ffffffffffffffff909216600160481b0270ffffffffffffffff00000000000000000019909216919091179055565b6106ec83838360405180602001604052806000815250610e80565b6000610bc660085490565b8210610c295760405162461bcd60e51b815260206004820152602c60248201527f455243373231456e756d657261626c653a20676c6f62616c20696e646578206f60448201526b7574206f6620626f756e647360a01b60648201526084016105b7565b60088281548110610c3c57610c3c61216d565b90600052602060002001549050919050565b600a546001600160a01b03163314610c785760405162461bcd60e51b81526004016105b7906120e7565b600e610a2982826121d1565b600a546001600160a01b03163314610cae5760405162461bcd60e51b81526004016105b7906120e7565b600c5467ffffffffffffffff61010090910416610cca600b5490565b10610d175760405162461bcd60e51b815260206004820152601d60248201527f4e6f206d6f7265206469616d6f6e64206e6f64657320746f206d696e7400000060448201526064016105b7565b610d25600b80546001019055565b610d3233610a12600b5490565b565b6000818152600260205260408120546001600160a01b0316806104aa5760405162461bcd60e51b815260206004820152602960248201527f4552433732313a206f776e657220717565727920666f72206e6f6e657869737460448201526832b73a103a37b5b2b760b91b60648201526084016105b7565b60006001600160a01b038216610e165760405162461bcd60e51b815260206004820152602a60248201527f4552433732313a2062616c616e636520717565727920666f7220746865207a65604482015269726f206164647265737360b01b60648201526084016105b7565b506001600160a01b031660009081526003602052604090205490565b600a546001600160a01b03163314610e5c5760405162461bcd60e51b81526004016105b7906120e7565b610d3260006113f6565b6060600180546104bf90612011565b610a29338383611448565b610e8a3383611214565b610ea65760405162461bcd60e51b81526004016105b79061211c565b610eb284848484611516565b50505050565b600a546001600160a01b03163314610ee25760405162461bcd60e51b81526004016105b7906120e7565b600f805460ff19811660ff90911615179055565b6000818152600260205260409020546060906001600160a01b0316610f755760405162461bcd60e51b815260206004820152602f60248201527f4552433732314d657461646174613a2055524920717565727920666f72206e6f60448201526e3732bc34b9ba32b73a103a37b5b2b760891b60648201526084016105b7565b6000610f7f611549565b90506000815111610f9f5760405180602001604052806000815250610fca565b80610fa984611558565b604051602001610fba929190612291565b6040516020818303038152906040525b9392505050565b600a546001600160a01b03163314610ffb5760405162461bcd60e51b81526004016105b7906120e7565b601080546001810182556000919091527f1b6847dc741a1b0cd08d278845f9d819d87b734759afb55fe2de5cb82a9ae6720180546001600160a01b0319166001600160a01b0392909216919091179055565b600a546001600160a01b031633146110775760405162461bcd60e51b81526004016105b7906120e7565b600c805467ffffffffffffffff9092166101000268ffffffffffffffff0019909216919091179055565b600a546001600160a01b031633146110cb5760405162461bcd60e51b81526004016105b7906120e7565b6001600160a01b0381166111305760405162461bcd60e51b815260206004820152602660248201527f4f776e61626c653a206e6577206f776e657220697320746865207a65726f206160448201526564647265737360d01b60648201526084016105b7565b611139816113f6565b50565b60006001600160e01b031982166380ac58cd60e01b148061116d57506001600160e01b03198216635b5e139f60e01b145b806104aa57506301ffc9a760e01b6001600160e01b03198316146104aa565b600081815260046020526040902080546001600160a01b0319166001600160a01b03841690811790915581906111c182610d34565b6001600160a01b03167f8c5be1e5ebec7d5bd14f71427d1e84f3dd0314c0f7b2291e5b200ac8c7c3b92560405160405180910390a45050565b610a29828260405180602001604052806000815250611659565b6000818152600260205260408120546001600160a01b031661128d5760405162461bcd60e51b815260206004820152602c60248201527f4552433732313a206f70657261746f7220717565727920666f72206e6f6e657860448201526b34b9ba32b73a103a37b5b2b760a11b60648201526084016105b7565b600061129883610d34565b9050806001600160a01b0316846001600160a01b031614806112d35750836001600160a01b03166112c884610542565b6001600160a01b0316145b8061130357506001600160a01b0380821660009081526005602090815260408083209388168352929052205460ff165b949350505050565b600f5460ff16156113eb57600160005b6010548110156113a257601081815481106113385761133861216d565b6000918252602090912001546001600160a01b038681169116148061138657506010818154811061136b5761136b61216d565b6000918252602090912001546001600160a01b038581169116145b1561139057600091505b8061139a816120ce565b91505061131b565b5080156113e95760405162461bcd60e51b81526020600482015260156024820152742a3930b739b332b91034b9903337b93134b23232b760591b60448201526064016105b7565b505b6106ec83838361168c565b600a80546001600160a01b038381166001600160a01b0319831681179093556040519116919082907f8be0079c531659141344cd1fd0a4f28419497f9722a3daafe3b4186f6b6457e090600090a35050565b816001600160a01b0316836001600160a01b0316036114a95760405162461bcd60e51b815260206004820152601960248201527f4552433732313a20617070726f766520746f2063616c6c65720000000000000060448201526064016105b7565b6001600160a01b03838116600081815260056020908152604080832094871680845294825291829020805460ff191686151590811790915591519182527f17307eab39ab6107e8899845ad3d59bd9653f200f220920489ca2b5937696c31910160405180910390a3505050565b61152184848461130b565b61152d84848484611833565b610eb25760405162461bcd60e51b81526004016105b7906122c0565b6060600e80546104bf90612011565b60608160000361157f5750506040805180820190915260018152600360fc1b602082015290565b8160005b81156115a95780611593816120ce565b91506115a29050600a83612328565b9150611583565b60008167ffffffffffffffff8111156115c4576115c4611e2d565b6040519080825280601f01601f1916602001820160405280156115ee576020820181803683370190505b5090505b84156113035761160360018361233c565b9150611610600a86612353565b61161b906030612061565b60f81b8183815181106116305761163061216d565b60200101906001600160f81b031916908160001a905350611652600a86612328565b94506115f2565b6116638383611934565b6116706000848484611833565b6106ec5760405162461bcd60e51b81526004016105b7906122c0565b826001600160a01b031661169f82610d34565b6001600160a01b0316146117035760405162461bcd60e51b815260206004820152602560248201527f4552433732313a207472616e736665722066726f6d20696e636f72726563742060448201526437bbb732b960d91b60648201526084016105b7565b6001600160a01b0382166117655760405162461bcd60e51b8152602060048201526024808201527f4552433732313a207472616e7366657220746f20746865207a65726f206164646044820152637265737360e01b60648201526084016105b7565b611770838383611a82565b61177b60008261118c565b6001600160a01b03831660009081526003602052604081208054600192906117a490849061233c565b90915550506001600160a01b03821660009081526003602052604081208054600192906117d2908490612061565b909155505060008181526002602052604080822080546001600160a01b0319166001600160a01b0386811691821790925591518493918716917fddf252ad1be2c89b69c2b068fc378daa952ba7f163c4a11628f55a4df523b3ef91a4505050565b60006001600160a01b0384163b1561192957604051630a85bd0160e11b81526001600160a01b0385169063150b7a0290611877903390899088908890600401612367565b6020604051808303816000875af19250505080156118b2575060408051601f3d908101601f191682019092526118af918101906123a3565b60015b61190f573d8080156118e0576040519150601f19603f3d011682016040523d82523d6000602084013e6118e5565b606091505b5080516000036119075760405162461bcd60e51b81526004016105b7906122c0565b805181602001fd5b6001600160e01b031916630a85bd0160e11b149050611303565b506001949350505050565b6001600160a01b03821661198a5760405162461bcd60e51b815260206004820181905260248201527f4552433732313a206d696e7420746f20746865207a65726f206164647265737360448201526064016105b7565b6000818152600260205260409020546001600160a01b0316156119ef5760405162461bcd60e51b815260206004820152601c60248201527f4552433732313a20746f6b656e20616c7265616479206d696e7465640000000060448201526064016105b7565b6119fb60008383611a82565b6001600160a01b0382166000908152600360205260408120805460019290611a24908490612061565b909155505060008181526002602052604080822080546001600160a01b0319166001600160a01b03861690811790915590518392907fddf252ad1be2c89b69c2b068fc378daa952ba7f163c4a11628f55a4df523b3ef908290a45050565b6001600160a01b038316611add57611ad881600880546000838152600960205260408120829055600182018355919091527ff3f7a9fe364faab93b216da50a3214154f22a0a2b415b23a84c8169e8b636ee30155565b611b00565b816001600160a01b0316836001600160a01b031614611b0057611b008382611b3a565b6001600160a01b038216611b17576106ec81611bd7565b826001600160a01b0316826001600160a01b0316146106ec576106ec8282611c86565b60006001611b4784610dab565b611b51919061233c565b600083815260076020526040902054909150808214611ba4576001600160a01b03841660009081526006602090815260408083208584528252808320548484528184208190558352600790915290208190555b5060009182526007602090815260408084208490556001600160a01b039094168352600681528383209183525290812055565b600854600090611be99060019061233c565b60008381526009602052604081205460088054939450909284908110611c1157611c1161216d565b906000526020600020015490508060088381548110611c3257611c3261216d565b6000918252602080832090910192909255828152600990915260408082208490558582528120556008805480611c6a57611c6a6123c0565b6001900381819060005260206000200160009055905550505050565b6000611c9183610dab565b6001600160a01b039093166000908152600660209081526040808320868452825280832085905593825260079052919091209190915550565b6001600160e01b03198116811461113957600080fd5b600060208284031215611cf257600080fd5b8135610fca81611cca565b60005b83811015611d18578181015183820152602001611d00565b83811115610eb25750506000910152565b60008151808452611d41816020860160208601611cfd565b601f01601f19169290920160200192915050565b602081526000610fca6020830184611d29565b600060208284031215611d7a57600080fd5b5035919050565b80356001600160a01b0381168114611d9857600080fd5b919050565b60008060408385031215611db057600080fd5b611db983611d81565b946020939093013593505050565b600080600060608486031215611ddc57600080fd5b611de584611d81565b9250611df360208501611d81565b9150604084013590509250925092565b600060208284031215611e1557600080fd5b813567ffffffffffffffff81168114610fca57600080fd5b634e487b7160e01b600052604160045260246000fd5b600067ffffffffffffffff80841115611e5e57611e5e611e2d565b604051601f8501601f19908116603f01168101908282118183101715611e8657611e86611e2d565b81604052809350858152868686011115611e9f57600080fd5b858560208301376000602087830101525050509392505050565b600060208284031215611ecb57600080fd5b813567ffffffffffffffff811115611ee257600080fd5b8201601f81018413611ef357600080fd5b61130384823560208401611e43565b600060208284031215611f1457600080fd5b610fca82611d81565b801515811461113957600080fd5b60008060408385031215611f3e57600080fd5b611f4783611d81565b91506020830135611f5781611f1d565b809150509250929050565b60008060008060808587031215611f7857600080fd5b611f8185611d81565b9350611f8f60208601611d81565b925060408501359150606085013567ffffffffffffffff811115611fb257600080fd5b8501601f81018713611fc357600080fd5b611fd287823560208401611e43565b91505092959194509250565b60008060408385031215611ff157600080fd5b611ffa83611d81565b915061200860208401611d81565b90509250929050565b600181811c9082168061202557607f821691505b60208210810361204557634e487b7160e01b600052602260045260246000fd5b50919050565b634e487b7160e01b600052601160045260246000fd5b600082198211156120745761207461204b565b500190565b60008160001904831182151516156120935761209361204b565b500290565b6000602082840312156120aa57600080fd5b5051919050565b6000602082840312156120c357600080fd5b8151610fca81611f1d565b6000600182016120e0576120e061204b565b5060010190565b6020808252818101527f4f776e61626c653a2063616c6c6572206973206e6f7420746865206f776e6572604082015260600190565b60208082526031908201527f4552433732313a207472616e736665722063616c6c6572206973206e6f74206f6040820152701ddb995c881b9bdc88185c1c1c9bdd9959607a1b606082015260800190565b634e487b7160e01b600052603260045260246000fd5b601f8211156106ec57600081815260208120601f850160051c810160208610156121aa5750805b601f850160051c820191505b818110156121c9578281556001016121b6565b505050505050565b815167ffffffffffffffff8111156121eb576121eb611e2d565b6121ff816121f98454612011565b84612183565b602080601f831160018114612234576000841561221c5750858301515b600019600386901b1c1916600185901b1785556121c9565b600085815260208120601f198616915b8281101561226357888601518255948401946001909101908401612244565b50858210156122815787850151600019600388901b60f8161c191681555b5050505050600190811b01905550565b600083516122a3818460208801611cfd565b8351908301906122b7818360208801611cfd565b01949350505050565b60208082526032908201527f4552433732313a207472616e7366657220746f206e6f6e20455243373231526560408201527131b2b4bb32b91034b6b83632b6b2b73a32b960711b606082015260800190565b634e487b7160e01b600052601260045260246000fd5b60008261233757612337612312565b500490565b60008282101561234e5761234e61204b565b500390565b60008261236257612362612312565b500690565b60006001600160a01b038087168352808616602084015250836040830152608060608301526123996080830184611d29565b9695505050505050565b6000602082840312156123b557600080fd5b8151610fca81611cca565b634e487b7160e01b600052603160045260246000fdfea26469706673582212206abdd8d32c20c3e97c3b3b623fb05436fe370eb2cfe87ef8b413a05c56a3abf464736f6c634300080f0033",
  "devdoc": {
    "kind": "dev",
    "methods": {
      "approve(address,uint256)": {
        "details": "See {IERC721-approve}."
      },
      "balanceOf(address)": {
        "details": "See {IERC721-balanceOf}."
      },
      "getApproved(uint256)": {
        "details": "See {IERC721-getApproved}."
      },
      "isApprovedForAll(address,address)": {
        "details": "See {IERC721-isApprovedForAll}."
      },
      "name()": {
        "details": "See {IERC721Metadata-name}."
      },
      "owner()": {
        "details": "Returns the address of the current owner."
      },
      "ownerOf(uint256)": {
        "details": "See {IERC721-ownerOf}."
      },
      "renounceOwnership()": {
        "details": "Leaves the contract without owner. It will not be possible to call `onlyOwner` functions anymore. Can only be called by the current owner. NOTE: Renouncing ownership will leave the contract without an owner, thereby removing any functionality that is only available to the owner."
      },
      "safeTransferFrom(address,address,uint256)": {
        "details": "See {IERC721-safeTransferFrom}."
      },
      "safeTransferFrom(address,address,uint256,bytes)": {
        "details": "See {IERC721-safeTransferFrom}."
      },
      "setApprovalForAll(address,bool)": {
        "details": "See {IERC721-setApprovalForAll}."
      },
      "supportsInterface(bytes4)": {
        "details": "See {IERC165-supportsInterface}."
      },
      "symbol()": {
        "details": "See {IERC721Metadata-symbol}."
      },
      "tokenByIndex(uint256)": {
        "details": "See {IERC721Enumerable-tokenByIndex}."
      },
      "tokenOfOwnerByIndex(address,uint256)": {
        "details": "See {IERC721Enumerable-tokenOfOwnerByIndex}."
      },
      "tokenURI(uint256)": {
        "details": "See {IERC721Metadata-tokenURI}."
      },
      "totalSupply()": {
        "details": "See {IERC721Enumerable-totalSupply}."
      },
      "transferFrom(address,address,uint256)": {
        "details": "See {IERC721-transferFrom}."
      },
      "transferOwnership(address)": {
        "details": "Transfers ownership of the contract to a new account (`newOwner`). Can only be called by the current owner."
      }
    },
    "title": "Defo Diamond Omega Node Minting Contract",
    "version": 1
  },
  "userdoc": {
    "kind": "user",
    "methods": {
      "mintNode(uint256)": {
        "notice": "allows users to mint diamond nodes"
      },
      "setBaseURI(string)": {
        "notice": "allows the owner to set the baseURI"
      },
      "setMaxPerWallet(uint64)": {
        "notice": "allows the owner to set the max amount of nodes one wallet can hold"
      },
      "setMaxTotalDiamondNodes(uint64)": {
        "notice": "allows the owner to set the total amount of diamond nodes"
      },
      "setSaleState()": {
        "notice": "allows the owner to render the sale inactive/active, in other words pausing and resuming"
      }
    },
    "notice": "Contract for minting diamond nodes",
    "version": 1
  },
  "storageLayout": {
    "storage": [
      {
        "astId": 1317,
        "contract": "contracts/presale/presaleDiamondOmega.sol:DiamondNodeOmega",
        "label": "_name",
        "offset": 0,
        "slot": "0",
        "type": "t_string_storage"
      },
      {
        "astId": 1319,
        "contract": "contracts/presale/presaleDiamondOmega.sol:DiamondNodeOmega",
        "label": "_symbol",
        "offset": 0,
        "slot": "1",
        "type": "t_string_storage"
      },
      {
        "astId": 1323,
        "contract": "contracts/presale/presaleDiamondOmega.sol:DiamondNodeOmega",
        "label": "_owners",
        "offset": 0,
        "slot": "2",
        "type": "t_mapping(t_uint256,t_address)"
      },
      {
        "astId": 1327,
        "contract": "contracts/presale/presaleDiamondOmega.sol:DiamondNodeOmega",
        "label": "_balances",
        "offset": 0,
        "slot": "3",
        "type": "t_mapping(t_address,t_uint256)"
      },
      {
        "astId": 1331,
        "contract": "contracts/presale/presaleDiamondOmega.sol:DiamondNodeOmega",
        "label": "_tokenApprovals",
        "offset": 0,
        "slot": "4",
        "type": "t_mapping(t_uint256,t_address)"
      },
      {
        "astId": 1337,
        "contract": "contracts/presale/presaleDiamondOmega.sol:DiamondNodeOmega",
        "label": "_operatorApprovals",
        "offset": 0,
        "slot": "5",
        "type": "t_mapping(t_address,t_mapping(t_address,t_bool))"
      },
      {
        "astId": 2169,
        "contract": "contracts/presale/presaleDiamondOmega.sol:DiamondNodeOmega",
        "label": "_ownedTokens",
        "offset": 0,
        "slot": "6",
        "type": "t_mapping(t_address,t_mapping(t_uint256,t_uint256))"
      },
      {
        "astId": 2173,
        "contract": "contracts/presale/presaleDiamondOmega.sol:DiamondNodeOmega",
        "label": "_ownedTokensIndex",
        "offset": 0,
        "slot": "7",
        "type": "t_mapping(t_uint256,t_uint256)"
      },
      {
        "astId": 2176,
        "contract": "contracts/presale/presaleDiamondOmega.sol:DiamondNodeOmega",
        "label": "_allTokens",
        "offset": 0,
        "slot": "8",
        "type": "t_array(t_uint256)dyn_storage"
      },
      {
        "astId": 2180,
        "contract": "contracts/presale/presaleDiamondOmega.sol:DiamondNodeOmega",
        "label": "_allTokensIndex",
        "offset": 0,
        "slot": "9",
        "type": "t_mapping(t_uint256,t_uint256)"
      },
      {
        "astId": 690,
        "contract": "contracts/presale/presaleDiamondOmega.sol:DiamondNodeOmega",
        "label": "_owner",
        "offset": 0,
        "slot": "10",
        "type": "t_address"
      },
      {
        "astId": 10571,
        "contract": "contracts/presale/presaleDiamondOmega.sol:DiamondNodeOmega",
        "label": "supply",
        "offset": 0,
        "slot": "11",
        "type": "t_struct(Counter)316_storage"
      },
      {
        "astId": 10574,
        "contract": "contracts/presale/presaleDiamondOmega.sol:DiamondNodeOmega",
        "label": "activeSale",
        "offset": 0,
        "slot": "12",
        "type": "t_bool"
      },
      {
        "astId": 10577,
        "contract": "contracts/presale/presaleDiamondOmega.sol:DiamondNodeOmega",
        "label": "maxTotalDiamondNodes",
        "offset": 1,
        "slot": "12",
        "type": "t_uint64"
      },
      {
        "astId": 10580,
        "contract": "contracts/presale/presaleDiamondOmega.sol:DiamondNodeOmega",
        "label": "maxNodesPerWallet",
        "offset": 9,
        "slot": "12",
        "type": "t_uint64"
      },
      {
        "astId": 10583,
        "contract": "contracts/presale/presaleDiamondOmega.sol:DiamondNodeOmega",
        "label": "diamondNodePrice",
        "offset": 0,
        "slot": "13",
        "type": "t_uint256"
      },
      {
        "astId": 10585,
        "contract": "contracts/presale/presaleDiamondOmega.sol:DiamondNodeOmega",
        "label": "baseURI",
        "offset": 0,
        "slot": "14",
        "type": "t_string_storage"
      },
      {
        "astId": 10596,
        "contract": "contracts/presale/presaleDiamondOmega.sol:DiamondNodeOmega",
        "label": "transferLock",
        "offset": 0,
        "slot": "15",
        "type": "t_bool"
      },
      {
        "astId": 10599,
        "contract": "contracts/presale/presaleDiamondOmega.sol:DiamondNodeOmega",
        "label": "whitelist",
        "offset": 0,
        "slot": "16",
        "type": "t_array(t_address)dyn_storage"
      },
      {
        "astId": 10603,
        "contract": "contracts/presale/presaleDiamondOmega.sol:DiamondNodeOmega",
        "label": "DAIToken",
        "offset": 0,
        "slot": "17",
        "type": "t_contract(IERC20)461"
      }
    ],
    "types": {
      "t_address": {
        "encoding": "inplace",
        "label": "address",
        "numberOfBytes": "20"
      },
      "t_array(t_address)dyn_storage": {
        "base": "t_address",
        "encoding": "dynamic_array",
        "label": "address[]",
        "numberOfBytes": "32"
      },
      "t_array(t_uint256)dyn_storage": {
        "base": "t_uint256",
        "encoding": "dynamic_array",
        "label": "uint256[]",
        "numberOfBytes": "32"
      },
      "t_bool": {
        "encoding": "inplace",
        "label": "bool",
        "numberOfBytes": "1"
      },
      "t_contract(IERC20)461": {
        "encoding": "inplace",
        "label": "contract IERC20",
        "numberOfBytes": "20"
      },
      "t_mapping(t_address,t_bool)": {
        "encoding": "mapping",
        "key": "t_address",
        "label": "mapping(address => bool)",
        "numberOfBytes": "32",
        "value": "t_bool"
      },
      "t_mapping(t_address,t_mapping(t_address,t_bool))": {
        "encoding": "mapping",
        "key": "t_address",
        "label": "mapping(address => mapping(address => bool))",
        "numberOfBytes": "32",
        "value": "t_mapping(t_address,t_bool)"
      },
      "t_mapping(t_address,t_mapping(t_uint256,t_uint256))": {
        "encoding": "mapping",
        "key": "t_address",
        "label": "mapping(address => mapping(uint256 => uint256))",
        "numberOfBytes": "32",
        "value": "t_mapping(t_uint256,t_uint256)"
      },
      "t_mapping(t_address,t_uint256)": {
        "encoding": "mapping",
        "key": "t_address",
        "label": "mapping(address => uint256)",
        "numberOfBytes": "32",
        "value": "t_uint256"
      },
      "t_mapping(t_uint256,t_address)": {
        "encoding": "mapping",
        "key": "t_uint256",
        "label": "mapping(uint256 => address)",
        "numberOfBytes": "32",
        "value": "t_address"
      },
      "t_mapping(t_uint256,t_uint256)": {
        "encoding": "mapping",
        "key": "t_uint256",
        "label": "mapping(uint256 => uint256)",
        "numberOfBytes": "32",
        "value": "t_uint256"
      },
      "t_string_storage": {
        "encoding": "bytes",
        "label": "string",
        "numberOfBytes": "32"
      },
      "t_struct(Counter)316_storage": {
        "encoding": "inplace",
        "label": "struct Counters.Counter",
        "members": [
          {
            "astId": 315,
            "contract": "contracts/presale/presaleDiamondOmega.sol:DiamondNodeOmega",
            "label": "_value",
            "offset": 0,
            "slot": "0",
            "type": "t_uint256"
          }
        ],
        "numberOfBytes": "32"
      },
      "t_uint256": {
        "encoding": "inplace",
        "label": "uint256",
        "numberOfBytes": "32"
      },
      "t_uint64": {
        "encoding": "inplace",
        "label": "uint64",
        "numberOfBytes": "8"
      }
    }
  }
}