{
  "address": "0x6B6e2825CC863d304C1C5A5bA5F77f1e3dBB1274",
  "abi": [
    {
      "anonymous": false,
      "inputs": [
        {
          "indexed": true,
          "internalType": "address",
          "name": "user",
          "type": "address"
        },
        {
          "indexed": false,
          "internalType": "uint256",
          "name": "amountGross",
          "type": "uint256"
        },
        {
          "indexed": false,
          "internalType": "uint256",
          "name": "amountNet",
          "type": "uint256"
        }
      ],
      "name": "Claimed",
      "type": "event"
    },
    {
      "anonymous": false,
      "inputs": [
        {
          "indexed": true,
          "internalType": "address",
          "name": "user",
          "type": "address"
        },
        {
          "indexed": false,
          "internalType": "uint256",
          "name": "amountGross",
          "type": "uint256"
        },
        {
          "indexed": false,
          "internalType": "uint256",
          "name": "amountNet",
          "type": "uint256"
        }
      ],
      "name": "Staked",
      "type": "event"
    },
    {
      "inputs": [
        {
          "internalType": "uint256[]",
          "name": "_tokenids",
          "type": "uint256[]"
        }
      ],
      "name": "batchClaimReward",
      "outputs": [],
      "stateMutability": "nonpayable",
      "type": "function"
    },
    {
      "inputs": [
        {
          "internalType": "uint256[]",
          "name": "_tokenIds",
          "type": "uint256[]"
        },
        {
          "internalType": "uint256",
          "name": "_percent",
          "type": "uint256"
        }
      ],
      "name": "batchStakeAndClaim",
      "outputs": [],
      "stateMutability": "nonpayable",
      "type": "function"
    },
    {
      "inputs": [
        {
          "internalType": "uint256[]",
          "name": "_tokenIds",
          "type": "uint256[]"
        },
        {
          "internalType": "uint256[]",
          "name": "_amounts",
          "type": "uint256[]"
        }
      ],
      "name": "batchStakeReward",
      "outputs": [],
      "stateMutability": "nonpayable",
      "type": "function"
    },
    {
      "inputs": [
        {
          "internalType": "uint256",
          "name": "_tokenId",
          "type": "uint256"
        }
      ],
      "name": "claimReward",
      "outputs": [],
      "stateMutability": "nonpayable",
      "type": "function"
    },
    {
      "inputs": [],
      "name": "getCumulatedReward",
      "outputs": [
        {
          "internalType": "uint256",
          "name": "",
          "type": "uint256"
        }
      ],
      "stateMutability": "view",
      "type": "function"
    },
    {
      "inputs": [],
      "name": "getCumulatedRewardAllUsers",
      "outputs": [
        {
          "internalType": "uint256",
          "name": "allForAllTotalReward_",
          "type": "uint256"
        }
      ],
      "stateMutability": "view",
      "type": "function"
    },
    {
      "inputs": [
        {
          "internalType": "uint256",
          "name": "_tokenId",
          "type": "uint256"
        }
      ],
      "name": "getRewardAmount",
      "outputs": [
        {
          "internalType": "uint256",
          "name": "",
          "type": "uint256"
        }
      ],
      "stateMutability": "view",
      "type": "function"
    },
    {
      "inputs": [],
      "name": "getStakedGross",
      "outputs": [
        {
          "internalType": "uint256",
          "name": "",
          "type": "uint256"
        }
      ],
      "stateMutability": "view",
      "type": "function"
    },
    {
      "inputs": [],
      "name": "getStakedGrossAllUsers",
      "outputs": [
        {
          "internalType": "uint256",
          "name": "",
          "type": "uint256"
        }
      ],
      "stateMutability": "view",
      "type": "function"
    },
    {
      "inputs": [
        {
          "internalType": "uint256",
          "name": "_tokenId",
          "type": "uint256"
        }
      ],
      "name": "getTaxTier",
      "outputs": [
        {
          "internalType": "enum TaxTiers",
          "name": "",
          "type": "uint8"
        }
      ],
      "stateMutability": "view",
      "type": "function"
    },
    {
      "inputs": [
        {
          "internalType": "uint256",
          "name": "_tokenId",
          "type": "uint256"
        }
      ],
      "name": "isClaimable",
      "outputs": [
        {
          "internalType": "bool",
          "name": "",
          "type": "bool"
        }
      ],
      "stateMutability": "view",
      "type": "function"
    },
    {
      "inputs": [
        {
          "internalType": "uint256",
          "name": "_tokenId",
          "type": "uint256"
        },
        {
          "internalType": "uint256",
          "name": "_percent",
          "type": "uint256"
        }
      ],
      "name": "stakeAndClaim",
      "outputs": [],
      "stateMutability": "nonpayable",
      "type": "function"
    },
    {
      "inputs": [
        {
          "internalType": "uint256",
          "name": "_tokenId",
          "type": "uint256"
        },
        {
          "internalType": "uint256",
          "name": "_amount",
          "type": "uint256"
        }
      ],
      "name": "stakeReward",
      "outputs": [],
      "stateMutability": "nonpayable",
      "type": "function"
    }
  ],
  "transactionHash": "0x44db887c7dcd22392e55cf1e1fadd448e836f8edb03af55709479f0bb1766d22",
  "args": [],
  "numDeployments": 6,
  "solcInputHash": "e19b9a9ac050660b057a9cb6c4f08a89",
  "bytecode": "0x608060405234801561001057600080fd5b50612b5c806100206000396000f3fe608060405234801561001057600080fd5b50600436106100cf5760003560e01c8063a4ff6c481161008c578063b816b65d11610066578063b816b65d146101fe578063c760da041461021a578063c84993af14610236578063d8e1214f14610266576100cf565b8063a4ff6c48146101a8578063ae169a50146101c4578063b68a0ff6146101e0576100cf565b806306547abd146100d45780630a5626db146101045780634d0c509e1461012257806383b4c8651461013e57806389610a091461015a57806394c0734b1461018a575b600080fd5b6100ee60048036038101906100e99190611fc5565b610284565b6040516100fb9190612069565b60405180910390f35b61010c6102d0565b6040516101199190612093565b60405180910390f35b61013c60048036038101906101379190612113565b610318565b005b61015860048036038101906101539190612173565b610362565b005b610174600480360381019061016f9190611fc5565b61040e565b604051610181919061220f565b60405180910390f35b610192610496565b60405161019f9190612093565b60405180910390f35b6101c260048036038101906101bd919061222a565b6104b8565b005b6101de60048036038101906101d99190611fc5565b6105e6565b005b6101e86106f5565b6040516101f59190612093565b60405180910390f35b6102186004803603810190610213919061222a565b610769565b005b610234600480360381019061022f919061226a565b610c0f565b005b610250600480360381019061024b9190611fc5565b610c57565b60405161025d9190612093565b60405180910390f35b61026e610cf8565b60405161027b9190612093565b60405180910390f35b60006102c96000602001600084815260200190815260200160002060000160069054906101000a900463ffffffff16426102be91906122f6565b63ffffffff16610da2565b9050919050565b600080600090505b6000602101600a0180549050811015610314576102f481610e52565b826102ff919061232a565b9150808061030c90612380565b9150506102d8565b5090565b60005b8383905081101561035c5761034984848381811061033c5761033b6123c8565b5b90506020020135836104b8565b808061035490612380565b91505061031b565b50505050565b8181905084849050146103aa576040517f08c379a00000000000000000000000000000000000000000000000000000000081526004016103a19061247a565b60405180910390fd5b60005b84849050811015610407576103f48585838181106103ce576103cd6123c8565b5b905060200201358484848181106103e8576103e76123c8565b5b90506020020135610769565b80806103ff90612380565b9150506103ad565b5050505050565b60006104666000602001600084815260200190815260200160002060000160069054906101000a900463ffffffff1663ffffffff1660008001600f0160049054906101000a900463ffffffff1663ffffffff16611100565b801561047a5750600061047883611122565b145b801561048f5750600061048c83610c57565b14155b9050919050565b600080602e01600501546000602e01600201546104b3919061249a565b905090565b816104c1611270565b73ffffffffffffffffffffffffffffffffffffffff166000602101600301600083815260200190815260200160002060009054906101000a900473ffffffffffffffffffffffffffffffffffffffff1673ffffffffffffffffffffffffffffffffffffffff1614610567576040517f08c379a000000000000000000000000000000000000000000000000000000000815260040161055e9061251a565b60405180910390fd5b826105718161040e565b6105b0576040517f08c379a00000000000000000000000000000000000000000000000000000000081526004016105a790612586565b60405180910390fd5b60006105bb85610c57565b905060006105c98286611327565b90506105d58682610769565b6105de866105e6565b505050505050565b806105ef611270565b73ffffffffffffffffffffffffffffffffffffffff166000602101600301600083815260200190815260200160002060009054906101000a900473ffffffffffffffffffffffffffffffffffffffff1673ffffffffffffffffffffffffffffffffffffffff1614610695576040517f08c379a000000000000000000000000000000000000000000000000000000000815260040161068c9061251a565b60405180910390fd5b8161069f8161040e565b6106de576040517f08c379a00000000000000000000000000000000000000000000000000000000081526004016106d590612586565b60405180910390fd5b6106f0836106eb85610c57565b611363565b505050565b600080610700611270565b9050600061070d826117a0565b90506000805b825181101561075f5761073f838281518110610732576107316123c8565b5b6020026020010151610e52565b8261074a919061232a565b9150808061075790612380565b915050610713565b5080935050505090565b81610772611270565b73ffffffffffffffffffffffffffffffffffffffff166000602101600301600083815260200190815260200160002060009054906101000a900473ffffffffffffffffffffffffffffffffffffffff1673ffffffffffffffffffffffffffffffffffffffff1614610818576040517f08c379a000000000000000000000000000000000000000000000000000000000815260040161080f9061251a565b60405180910390fd5b8261082281611924565b60008060000160000160018081111561083e5761083d611ff2565b5b6002811061084f5761084e6123c8565b5b0160009054906101000a900473ffffffffffffffffffffffffffffffffffffffff16905060008060000160020190506000610888611270565b9050610892611f32565b600061089d89610c57565b9050808811156108e2576040517f08c379a00000000000000000000000000000000000000000000000000000000081526004016108d9906125f2565b60405180910390fd5b6108f3886000800160150154611327565b8260e0018181525050878260400181815250508160e0015188610916919061249a565b8260600181815250508473ffffffffffffffffffffffffffffffffffffffff166323b872dd85600160068111156109505761094f611ff2565b5b60078110610961576109606123c8565b5b0160009054906101000a900473ffffffffffffffffffffffffffffffffffffffff16866004600681111561099857610997611ff2565b5b600781106109a9576109a86123c8565b5b0160009054906101000a900473ffffffffffffffffffffffffffffffffffffffff168560e001516040518463ffffffff1660e01b81526004016109ee93929190612653565b6020604051808303816000875af1158015610a0d573d6000803e3d6000fd5b505050506040513d601f19601f82011682018060405250810190610a3191906126b6565b508273ffffffffffffffffffffffffffffffffffffffff167f2a01595cddf097c90216094025db714da3f4e5bd8877b56ba86a24ecead8e5438360e00151604051610a7c9190612093565b60405180910390a28473ffffffffffffffffffffffffffffffffffffffff166323b872dd8560016006811115610ab557610ab4611ff2565b5b60078110610ac657610ac56123c8565b5b0160009054906101000a900473ffffffffffffffffffffffffffffffffffffffff168660056006811115610afd57610afc611ff2565b5b60078110610b0e57610b0d6123c8565b5b0160009054906101000a900473ffffffffffffffffffffffffffffffffffffffff1685606001516040518463ffffffff1660e01b8152600401610b5393929190612653565b6020604051808303816000875af1158015610b72573d6000803e3d6000fd5b505050506040513d601f19601f82011682018060405250810190610b9691906126b6565b508273ffffffffffffffffffffffffffffffffffffffff167f1449c6dd7851abc30abf37f57715f492010519147cc2652fbc38202c18a6ee9083604001518460600151604051610be79291906126e3565b60405180910390a2610c0489848461196f9092919063ffffffff16565b505050505050505050565b60005b82829050811015610c5257610c3f838383818110610c3357610c326123c8565b5b905060200201356105e6565b8080610c4a90612380565b915050610c12565b505050565b600081610c6381611924565b6000610c6e84610e52565b9050600060200160008581526020019081526020016000206001016006015481610c98919061232a565b9050600060200160008581526020019081526020016000206001016000015481610cc2919061249a565b9050600060200160008581526020019081526020016000206001016002015481610cec919061249a565b90508092505050919050565b6000806038016000610d08611270565b73ffffffffffffffffffffffffffffffffffffffff1673ffffffffffffffffffffffffffffffffffffffff1681526020019081526020016000206005015460006038016000610d55611270565b73ffffffffffffffffffffffffffffffffffffffff1673ffffffffffffffffffffffffffffffffffffffff16815260200190815260200160002060020154610d9d919061249a565b905090565b600080610dad6119ff565b9050600081600001600f0160089054906101000a900463ffffffff16905060049250600481610ddc919061270c565b63ffffffff16841015610dee57600392505b600381610dfb919061270c565b63ffffffff16841015610e0d57600292505b600281610e1a919061270c565b63ffffffff16841015610e2c57600192505b600181610e39919061270c565b63ffffffff16841015610e4b57600092505b5050919050565b600080600060200160008481526020019081526020016000206040518060c00160405290816000820160009054906101000a900460ff1660ff1660ff1681526020016000820160019054906101000a900460ff166002811115610eb857610eb7611ff2565b5b6002811115610eca57610ec9611ff2565b5b81526020016000820160029054906101000a900463ffffffff1663ffffffff1663ffffffff1681526020016000820160069054906101000a900463ffffffff1663ffffffff1663ffffffff16815260200160008201600a9054906101000a900463ffffffff1663ffffffff1663ffffffff1681526020016001820160405180610140016040529081600082015481526020016001820154815260200160028201548152602001600382015481526020016004820154815260200160058201548152602001600682015481526020016007820154815260200160088201548152602001600982015481525050815250509050600080601c01826000015160ff1681548110610fda57610fd96123c8565b5b90600052602060002090600602016040518060a0016040529081600082015481526020016001820154815260200160028201600280602002604051908101604052809291908260028015611043576020028201915b81548152602001906001019080831161102f575b50505050508152602001600482015481526020016005820160009054906101000a900460ff1660ff1660ff1681525050905060006110a482602001518460200151600281111561109657611095611ff2565b5b611a0490919063ffffffff16565b905060006110f2846040015163ffffffff16426110c1919061249a565b846060015160008001601701548560008001600f0160049054906101000a900463ffffffff1663ffffffff16611aab565b905080945050505050919050565b60004283118061111a5750818342611118919061249a565b115b905092915050565b60008061112d6119ff565b9050600081602001600085815260200190815260200160002090504281600001600a9054906101000a900463ffffffff1663ffffffff16106111745760009250505061126b565b600081600001600a9054906101000a900463ffffffff164261119691906122f6565b905082600001600f0160009054906101000a900463ffffffff1663ffffffff168163ffffffff16116111ce576000935050505061126b565b60006112268360000160019054906101000a900460ff1685601c018560000160009054906101000a900460ff1660ff168154811061120f5761120e6123c8565b5b906000526020600020906006020160000154611c5c565b905060006112608285600001600a9054906101000a900463ffffffff1687600001600f0160009054906101000a900463ffffffff16611cf5565b905080955050505050505b919050565b60003073ffffffffffffffffffffffffffffffffffffffff16611291611d0c565b73ffffffffffffffffffffffffffffffffffffffff160361132057600080368080601f016020809104026020016040519081016040528093929190818152602001838380828437600081840152601f19601f820116905080830192505050505050509050600080369050905073ffffffffffffffffffffffffffffffffffffffff818301511692505050611324565b3390505b90565b600080821161133757600061135b565b606480611344919061274a565b8284611350919061274a565b61135a91906127d3565b5b905092915050565b6000806020016000848152602001908152602001600020905060008060000160000160018081111561139857611397611ff2565b5b600281106113a9576113a86123c8565b5b0160009054906101000a900473ffffffffffffffffffffffffffffffffffffffff16905060008060000160020190506000841161141b576040517f08c379a000000000000000000000000000000000000000000000000000000000815260040161141290612850565b60405180910390fd5b611423611f32565b84816000018181525050600061143887610284565b905061147482600001516000800160100183600481111561145c5761145b611ff2565b5b6005811061146d5761146c6123c8565b5b0154611327565b8261010001818152505061149382600001516000800160150154611327565b8260e00181815250508160e0015182610100015183600001516114b6919061249a565b6114c0919061249a565b82602001818152505060006114d3611270565b90508473ffffffffffffffffffffffffffffffffffffffff166323b872dd856001600681111561150657611505611ff2565b5b60078110611517576115166123c8565b5b0160009054906101000a900473ffffffffffffffffffffffffffffffffffffffff16866004600681111561154e5761154d611ff2565b5b6007811061155f5761155e6123c8565b5b0160009054906101000a900473ffffffffffffffffffffffffffffffffffffffff168660e001516040518463ffffffff1660e01b81526004016115a493929190612653565b6020604051808303816000875af11580156115c3573d6000803e3d6000fd5b505050506040513d601f19601f820116820180604052508101906115e791906126b6565b508073ffffffffffffffffffffffffffffffffffffffff167f2a01595cddf097c90216094025db714da3f4e5bd8877b56ba86a24ecead8e5438460e001516040516116329190612093565b60405180910390a28473ffffffffffffffffffffffffffffffffffffffff166323b872dd856001600681111561166b5761166a611ff2565b5b6007811061167c5761167b6123c8565b5b0160009054906101000a900473ffffffffffffffffffffffffffffffffffffffff168386602001516040518463ffffffff1660e01b81526004016116c293929190612653565b6020604051808303816000875af11580156116e1573d6000803e3d6000fd5b505050506040513d601f19601f8201168201806040525081019061170591906126b6565b50428660000160066101000a81548163ffffffff021916908363ffffffff1602179055508073ffffffffffffffffffffffffffffffffffffffff167f987d620f307ff6b94d58743cb7a7509f24071586a77759b77c2d4e29f75a2f9a846000015185602001516040516117799291906126e3565b60405180910390a261179688828561196f9092919063ffffffff16565b5050505050505050565b606060008060210160040160008473ffffffffffffffffffffffffffffffffffffffff1673ffffffffffffffffffffffffffffffffffffffff16815260200190815260200160002054905060008167ffffffffffffffff81111561180757611806612870565b5b6040519080825280602002602001820160405280156118355781602001602082028036833780820191505090505b50905060005b828110156119195760008060210160080160008773ffffffffffffffffffffffffffffffffffffffff1673ffffffffffffffffffffffffffffffffffffffff16815260200190815260200160002060008381526020019081526020016000205490506118a681611d14565b6118e5576040517f08c379a00000000000000000000000000000000000000000000000000000000081526004016118dc906128eb565b60405180910390fd5b808383815181106118f9576118f86123c8565b5b60200260200101818152505050808061191190612380565b91505061183b565b508092505050919050565b61192d81611d14565b61196c576040517f08c379a000000000000000000000000000000000000000000000000000000000815260040161196390612957565b60405180910390fd5b50565b60006119796119ff565b9050600081602001600085815260200190815260200160002090506119a182602e0186611d86565b6119ae8160010186611d86565b6119f88260380160008573ffffffffffffffffffffffffffffffffffffffff1673ffffffffffffffffffffffffffffffffffffffff16815260200190815260200160002086611d86565b5050505050565b600090565b6000600280811115611a1957611a18611ff2565b5b836002811115611a2c57611a2b611ff2565b5b03611a5357612710613a9883611a42919061274a565b611a4c91906127d3565b9050611aa5565b60016002811115611a6757611a66611ff2565b5b836002811115611a7a57611a79611ff2565b5b03611aa1576127106130d483611a90919061274a565b611a9a91906127d3565b9050611aa5565b8190505b92915050565b600080611ab785611ec2565b9050600080600090506000805b819250606485606480611ad7919061274a565b6064611ae3919061274a565b611aed91906127d3565b611af7919061249a565b60648287611b059190612aaa565b83606480611b13919061274a565b611b1d9190612aaa565b6064611b29919061274a565b611b3391906127d3565b611b3d919061249a565b898c611b4991906127d3565b611b53919061274a565b611b5d91906127d3565b91508080611b6a90612380565b9150508a8288611b7a919061274a565b1115611ac457600281611b8d919061249a565b90508683611b9b919061274a565b92506000808414158015611bae5750838c115b15611c2d5781606480611bc1919061274a565b611bcb9190612aaa565b8287611bd79190612aaa565b8a611be2919061274a565b611bec91906127d3565b90508088858e611bfc919061249a565b611c0691906127d3565b611c10919061274a565b828c611c1c919061274a565b611c26919061232a565b9450611c4a565b88905088888d611c3d91906127d3565b611c47919061274a565b94505b84965050505050505095945050505050565b6000600280811115611c7157611c70611ff2565b5b836002811115611c8457611c83611ff2565b5b03611c9d57600282611c9691906127d3565b9050611cef565b60016002811115611cb157611cb0611ff2565b5b836002811115611cc457611cc3611ff2565b5b03611ceb57612710611d4c83611cda919061274a565b611ce491906127d3565b9050611cef565b8190505b92915050565b6000611d0384844285611ee3565b90509392505050565b600033905090565b60008073ffffffffffffffffffffffffffffffffffffffff166000602101600301600084815260200190815260200160002060009054906101000a900473ffffffffffffffffffffffffffffffffffffffff1673ffffffffffffffffffffffffffffffffffffffff1614159050919050565b8060000151826000016000828254611d9e919061232a565b925050819055508060200151826001016000828254611dbd919061232a565b925050819055508060400151826002016000828254611ddc919061232a565b925050819055508060600151826003016000828254611dfb919061232a565b925050819055508060800151826004016000828254611e1a919061232a565b925050819055508060a00151826005016000828254611e39919061232a565b925050819055508060c00151826006016000828254611e58919061232a565b925050819055508060e00151826007016000828254611e77919061232a565b92505081905550806101000151826008016000828254611e97919061232a565b92505081905550806101200151826009016000828254611eb7919061232a565b925050819055505050565b600081606480611ed2919061274a565b611edc919061249a565b9050919050565b60008363ffffffff168363ffffffff1611611eff576000611f28565b84828585611f0d91906122f6565b611f179190612af5565b63ffffffff16611f27919061274a565b5b9050949350505050565b604051806101400160405280600081526020016000815260200160008152602001600081526020016000815260200160008152602001600081526020016000815260200160008152602001600081525090565b600080fd5b600080fd5b6000819050919050565b611fa281611f8f565b8114611fad57600080fd5b50565b600081359050611fbf81611f99565b92915050565b600060208284031215611fdb57611fda611f85565b5b6000611fe984828501611fb0565b91505092915050565b7f4e487b7100000000000000000000000000000000000000000000000000000000600052602160045260246000fd5b6005811061203257612031611ff2565b5b50565b600081905061204382612021565b919050565b600061205382612035565b9050919050565b61206381612048565b82525050565b600060208201905061207e600083018461205a565b92915050565b61208d81611f8f565b82525050565b60006020820190506120a86000830184612084565b92915050565b600080fd5b600080fd5b600080fd5b60008083601f8401126120d3576120d26120ae565b5b8235905067ffffffffffffffff8111156120f0576120ef6120b3565b5b60208301915083602082028301111561210c5761210b6120b8565b5b9250929050565b60008060006040848603121561212c5761212b611f85565b5b600084013567ffffffffffffffff81111561214a57612149611f8a565b5b612156868287016120bd565b9350935050602061216986828701611fb0565b9150509250925092565b6000806000806040858703121561218d5761218c611f85565b5b600085013567ffffffffffffffff8111156121ab576121aa611f8a565b5b6121b7878288016120bd565b9450945050602085013567ffffffffffffffff8111156121da576121d9611f8a565b5b6121e6878288016120bd565b925092505092959194509250565b60008115159050919050565b612209816121f4565b82525050565b60006020820190506122246000830184612200565b92915050565b6000806040838503121561224157612240611f85565b5b600061224f85828601611fb0565b925050602061226085828601611fb0565b9150509250929050565b6000806020838503121561228157612280611f85565b5b600083013567ffffffffffffffff81111561229f5761229e611f8a565b5b6122ab858286016120bd565b92509250509250929050565b600063ffffffff82169050919050565b7f4e487b7100000000000000000000000000000000000000000000000000000000600052601160045260246000fd5b6000612301826122b7565b915061230c836122b7565b92508282101561231f5761231e6122c7565b5b828203905092915050565b600061233582611f8f565b915061234083611f8f565b9250827fffffffffffffffffffffffffffffffffffffffffffffffffffffffffffffffff03821115612375576123746122c7565b5b828201905092915050565b600061238b82611f8f565b91507fffffffffffffffffffffffffffffffffffffffffffffffffffffffffffffffff82036123bd576123bc6122c7565b5b600182019050919050565b7f4e487b7100000000000000000000000000000000000000000000000000000000600052603260045260246000fd5b600082825260208201905092915050565b7f4445464f526577617264733a5f746f6b656e644964732d5f616d6f756e74732d60008201527f696e636f6e73697374656e740000000000000000000000000000000000000000602082015250565b6000612464602c836123f7565b915061246f82612408565b604082019050919050565b6000602082019050818103600083015261249381612457565b9050919050565b60006124a582611f8f565b91506124b083611f8f565b9250828210156124c3576124c26122c7565b5b828203905092915050565b7f596f7520646f6e2774206f776e20746869732067656d00000000000000000000600082015250565b60006125046016836123f7565b915061250f826124ce565b602082019050919050565b60006020820190508181036000830152612533816124f7565b9050919050565b7f4e6f7420636c61696d61626c6500000000000000000000000000000000000000600082015250565b6000612570600d836123f7565b915061257b8261253a565b602082019050919050565b6000602082019050818103600083015261259f81612563565b9050919050565b7f4e6f7420656e6f75676820726577617264730000000000000000000000000000600082015250565b60006125dc6012836123f7565b91506125e7826125a6565b602082019050919050565b6000602082019050818103600083015261260b816125cf565b9050919050565b600073ffffffffffffffffffffffffffffffffffffffff82169050919050565b600061263d82612612565b9050919050565b61264d81612632565b82525050565b60006060820190506126686000830186612644565b6126756020830185612644565b6126826040830184612084565b949350505050565b612693816121f4565b811461269e57600080fd5b50565b6000815190506126b08161268a565b92915050565b6000602082840312156126cc576126cb611f85565b5b60006126da848285016126a1565b91505092915050565b60006040820190506126f86000830185612084565b6127056020830184612084565b9392505050565b6000612717826122b7565b9150612722836122b7565b92508163ffffffff048311821515161561273f5761273e6122c7565b5b828202905092915050565b600061275582611f8f565b915061276083611f8f565b9250817fffffffffffffffffffffffffffffffffffffffffffffffffffffffffffffffff0483118215151615612799576127986122c7565b5b828202905092915050565b7f4e487b7100000000000000000000000000000000000000000000000000000000600052601260045260246000fd5b60006127de82611f8f565b91506127e983611f8f565b9250826127f9576127f86127a4565b5b828204905092915050565b7f4e6f20616d6f756e7420746f20636c61696d0000000000000000000000000000600082015250565b600061283a6012836123f7565b915061284582612804565b602082019050919050565b600060208201905081810360008301526128698161282d565b9050919050565b7f4e487b7100000000000000000000000000000000000000000000000000000000600052604160045260246000fd5b7f412067656d20646f65736e277420657869737473000000000000000000000000600082015250565b60006128d56014836123f7565b91506128e08261289f565b602082019050919050565b60006020820190508181036000830152612904816128c8565b9050919050565b7f4552433732313a20746f6b656e4964206973206e6f742076616c696400000000600082015250565b6000612941601c836123f7565b915061294c8261290b565b602082019050919050565b6000602082019050818103600083015261297081612934565b9050919050565b60008160011c9050919050565b6000808291508390505b60018511156129ce578086048111156129aa576129a96122c7565b5b60018516156129b95780820291505b80810290506129c785612977565b945061298e565b94509492505050565b6000826129e75760019050612aa3565b816129f55760009050612aa3565b8160018114612a0b5760028114612a1557612a44565b6001915050612aa3565b60ff841115612a2757612a266122c7565b5b8360020a915084821115612a3e57612a3d6122c7565b5b50612aa3565b5060208310610133831016604e8410600b8410161715612a795782820a905083811115612a7457612a736122c7565b5b612aa3565b612a868484846001612984565b92509050818404811115612a9d57612a9c6122c7565b5b81810290505b9392505050565b6000612ab582611f8f565b9150612ac083611f8f565b9250612aed7fffffffffffffffffffffffffffffffffffffffffffffffffffffffffffffffff84846129d7565b905092915050565b6000612b00826122b7565b9150612b0b836122b7565b925082612b1b57612b1a6127a4565b5b82820490509291505056fea2646970667358221220395d1cb8611b5b3f1f2218c9a440181e6db55aa4908f8e1a688ce72cf3893e6764736f6c634300080f0033",
  "devdoc": {
    "author": "Decentralized Foundation Team",
    "kind": "dev",
    "methods": {
      "getCumulatedReward()": {
        "returns": {
          "_0": "amount in DEFO (in wei precision)"
        }
      },
      "getCumulatedRewardAllUsers()": {
        "returns": {
          "allForAllTotalReward_": "amount in DEFO (in wei precision)"
        }
      },
      "getRewardAmount(uint256)": {
        "params": {
          "_tokenId": "unique NFT gem id"
        },
        "returns": {
          "_0": "pre-tax unclaimed reward in DEFO,- before deducting tax or charity, ready to be claimed or put to vault"
        }
      },
      "getStakedGross()": {
        "returns": {
          "_0": "total amount in DEFO (in wei precision)"
        }
      },
      "getStakedGrossAllUsers()": {
        "returns": {
          "_0": "total amount in DEFO (in wei precision)"
        }
      },
      "getTaxTier(uint256)": {
        "params": {
          "_tokenId": "unique NFT gem id"
        },
        "returns": {
          "_0": "current tax tier of the gem might be configurable, now it's a number in the range starting from 0 when 0 means nothing is payed out since there's no rewards in the first week, 4 is no tax, 1,2,3 - % in between (currently 30,30,15)"
        }
      },
      "isClaimable(uint256)": {
        "params": {
          "_tokenId": "unique NFT gem id"
        },
        "returns": {
          "_0": "true or false, checks for the pending maintenance and time passed since last claim"
        }
      },
      "stakeAndClaim(uint256,uint256)": {
        "params": {
          "_percent": "percent of what to put into the vault, as usual uses PRECISION_MULTIPLIER (which is 100 by defualt, e.g. 500 for 5%)",
          "_tokenId": "unique NFT gem id"
        }
      }
    },
    "title": "ERC721Facet EIP-2535 Diamond Facet",
    "version": 1
  },
  "userdoc": {
    "kind": "user",
    "methods": {
      "getCumulatedReward()": {
        "notice": "amount of pre-taxed total reward earned by the sender for all time"
      },
      "getCumulatedRewardAllUsers()": {
        "notice": "amount of pre-taxed total reward earned by all the users for all time"
      },
      "getRewardAmount(uint256)": {
        "notice": "reward earned by the sender to the moment ready to be claimed or put to vault"
      },
      "getStakedGross()": {
        "notice": "amount of pre-taxed reward that are currently in the vault for the sender, so if put and then taken from the vault, it's not the return of the function"
      },
      "getStakedGrossAllUsers()": {
        "notice": "amount of pre-taxed reward that are currently in the vault for all users, it's not equal to the after-tax amount in the vault"
      },
      "getTaxTier(uint256)": {
        "notice": "gets tax tier for a gem"
      },
      "isClaimable(uint256)": {
        "notice": "checks if rewards can be claimed or not"
      },
      "stakeAndClaim(uint256,uint256)": {
        "notice": "This is used for the Vault Strategy, it puts the percent of all rewards to the vault and claims the rest"
      },
      "stakeReward(uint256,uint256)": {
        "notice": "todo decide whether move this to the vault facet or not - (to keep all staking/unstaking in one place), or to leave it here (this is a facet working with rewards  which can be either claimed or staked)"
      }
    },
    "notice": "The Contract uses diamond storage providing functionality of ERC721, ERC721Enumerable, ERC721Burnable, ERC721Pausable",
    "version": 1
  },
  "storageLayout": {
    "storage": [
      {
        "astId": 430,
        "contract": "contracts/facets/RewardsFacet.sol:RewardsFacet",
        "label": "s",
        "offset": 0,
        "slot": "0",
        "type": "t_struct(AppStorage)682_storage"
      }
    ],
    "types": {
      "t_address": {
        "encoding": "inplace",
        "label": "address",
        "numberOfBytes": "20"
      },
      "t_array(t_address)7_storage": {
        "base": "t_address",
        "encoding": "inplace",
        "label": "address[7]",
        "numberOfBytes": "224"
      },
      "t_array(t_array(t_uint256)3_storage)2_storage": {
        "base": "t_array(t_uint256)3_storage",
        "encoding": "inplace",
        "label": "uint256[3][2]",
        "numberOfBytes": "192"
      },
      "t_array(t_contract(IERC20)77)2_storage": {
        "base": "t_contract(IERC20)77",
        "encoding": "inplace",
        "label": "contract IERC20[2]",
        "numberOfBytes": "64"
      },
      "t_array(t_struct(GemTypeConfig)576_storage)dyn_storage": {
        "base": "t_struct(GemTypeConfig)576_storage",
        "encoding": "dynamic_array",
        "label": "struct GemTypeConfig[]",
        "numberOfBytes": "32"
      },
      "t_array(t_struct(GemTypeMintWindow)581_storage)dyn_storage": {
        "base": "t_struct(GemTypeMintWindow)581_storage",
        "encoding": "dynamic_array",
        "label": "struct GemTypeMintWindow[]",
        "numberOfBytes": "32"
      },
      "t_array(t_uint256)2_storage": {
        "base": "t_uint256",
        "encoding": "inplace",
        "label": "uint256[2]",
        "numberOfBytes": "64"
      },
      "t_array(t_uint256)3_storage": {
        "base": "t_uint256",
        "encoding": "inplace",
        "label": "uint256[3]",
        "numberOfBytes": "96"
      },
      "t_array(t_uint256)5_storage": {
        "base": "t_uint256",
        "encoding": "inplace",
        "label": "uint256[5]",
        "numberOfBytes": "160"
      },
      "t_array(t_uint256)dyn_storage": {
        "base": "t_uint256",
        "encoding": "dynamic_array",
        "label": "uint256[]",
        "numberOfBytes": "32"
      },
      "t_bool": {
        "encoding": "inplace",
        "label": "bool",
        "numberOfBytes": "1"
      },
      "t_contract(IERC20)77": {
        "encoding": "inplace",
        "label": "contract IERC20",
        "numberOfBytes": "20"
      },
      "t_enum(Booster)603": {
        "encoding": "inplace",
        "label": "enum Booster",
        "numberOfBytes": "1"
      },
      "t_mapping(t_address,t_bool)": {
        "encoding": "mapping",
        "key": "t_address",
        "label": "mapping(address => bool)",
        "numberOfBytes": "32",
        "value": "t_bool"
      },
      "t_mapping(t_address,t_enum(Booster)603)": {
        "encoding": "mapping",
        "key": "t_address",
        "label": "mapping(address => enum Booster)",
        "numberOfBytes": "32",
        "value": "t_enum(Booster)603"
      },
      "t_mapping(t_address,t_mapping(t_address,t_bool))": {
        "encoding": "mapping",
        "key": "t_address",
        "label": "mapping(address => mapping(address => bool))",
        "numberOfBytes": "32",
        "value": "t_mapping(t_address,t_bool)"
      },
      "t_mapping(t_address,t_mapping(t_uint256,t_uint256))": {
        "encoding": "mapping",
        "key": "t_address",
        "label": "mapping(address => mapping(uint256 => uint256))",
        "numberOfBytes": "32",
        "value": "t_mapping(t_uint256,t_uint256)"
      },
      "t_mapping(t_address,t_struct(Fi)624_storage)": {
        "encoding": "mapping",
        "key": "t_address",
        "label": "mapping(address => struct Fi)",
        "numberOfBytes": "32",
        "value": "t_struct(Fi)624_storage"
      },
      "t_mapping(t_address,t_uint256)": {
        "encoding": "mapping",
        "key": "t_address",
        "label": "mapping(address => uint256)",
        "numberOfBytes": "32",
        "value": "t_uint256"
      },
      "t_mapping(t_address,t_uint8)": {
        "encoding": "mapping",
        "key": "t_address",
        "label": "mapping(address => uint8)",
        "numberOfBytes": "32",
        "value": "t_uint8"
      },
      "t_mapping(t_uint256,t_address)": {
        "encoding": "mapping",
        "key": "t_uint256",
        "label": "mapping(uint256 => address)",
        "numberOfBytes": "32",
        "value": "t_address"
      },
      "t_mapping(t_uint256,t_struct(Gem)639_storage)": {
        "encoding": "mapping",
        "key": "t_uint256",
        "label": "mapping(uint256 => struct Gem)",
        "numberOfBytes": "32",
        "value": "t_struct(Gem)639_storage"
      },
      "t_mapping(t_uint256,t_uint256)": {
        "encoding": "mapping",
        "key": "t_uint256",
        "label": "mapping(uint256 => uint256)",
        "numberOfBytes": "32",
        "value": "t_uint256"
      },
      "t_string_storage": {
        "encoding": "bytes",
        "label": "string",
        "numberOfBytes": "32"
      },
      "t_struct(AppStorage)682_storage": {
        "encoding": "inplace",
        "label": "struct AppStorage",
        "members": [
          {
            "astId": 642,
            "contract": "contracts/facets/RewardsFacet.sol:RewardsFacet",
            "label": "config",
            "offset": 0,
            "slot": "0",
            "type": "t_struct(ProtocolConfig)563_storage"
          },
          {
            "astId": 646,
            "contract": "contracts/facets/RewardsFacet.sol:RewardsFacet",
            "label": "gemTypes",
            "offset": 0,
            "slot": "28",
            "type": "t_array(t_struct(GemTypeConfig)576_storage)dyn_storage"
          },
          {
            "astId": 650,
            "contract": "contracts/facets/RewardsFacet.sol:RewardsFacet",
            "label": "gemTypesMintWindows",
            "offset": 0,
            "slot": "29",
            "type": "t_array(t_struct(GemTypeMintWindow)581_storage)dyn_storage"
          },
          {
            "astId": 653,
            "contract": "contracts/facets/RewardsFacet.sol:RewardsFacet",
            "label": "defoTokenLimitWindow",
            "offset": 0,
            "slot": "30",
            "type": "t_struct(DEFOTokenLimitWindow)590_storage"
          },
          {
            "astId": 658,
            "contract": "contracts/facets/RewardsFacet.sol:RewardsFacet",
            "label": "gems",
            "offset": 0,
            "slot": "32",
            "type": "t_mapping(t_uint256,t_struct(Gem)639_storage)"
          },
          {
            "astId": 661,
            "contract": "contracts/facets/RewardsFacet.sol:RewardsFacet",
            "label": "nft",
            "offset": 0,
            "slot": "33",
            "type": "t_struct(ERC721Storage)498_storage"
          },
          {
            "astId": 664,
            "contract": "contracts/facets/RewardsFacet.sol:RewardsFacet",
            "label": "total",
            "offset": 0,
            "slot": "46",
            "type": "t_struct(Fi)624_storage"
          },
          {
            "astId": 669,
            "contract": "contracts/facets/RewardsFacet.sol:RewardsFacet",
            "label": "usersFi",
            "offset": 0,
            "slot": "56",
            "type": "t_mapping(t_address,t_struct(Fi)624_storage)"
          },
          {
            "astId": 673,
            "contract": "contracts/facets/RewardsFacet.sol:RewardsFacet",
            "label": "usersNextGemTypeToBoost",
            "offset": 0,
            "slot": "57",
            "type": "t_mapping(t_address,t_uint8)"
          },
          {
            "astId": 678,
            "contract": "contracts/facets/RewardsFacet.sol:RewardsFacet",
            "label": "usersNextGemBooster",
            "offset": 0,
            "slot": "58",
            "type": "t_mapping(t_address,t_enum(Booster)603)"
          },
          {
            "astId": 681,
            "contract": "contracts/facets/RewardsFacet.sol:RewardsFacet",
            "label": "defoTokenLimitPerRewards",
            "offset": 0,
            "slot": "59",
            "type": "t_struct(DEFOTokenLimitPerRewards)599_storage"
          }
        ],
        "numberOfBytes": "1952"
      },
      "t_struct(Counter)105_storage": {
        "encoding": "inplace",
        "label": "struct Counters.Counter",
        "members": [
          {
            "astId": 104,
            "contract": "contracts/facets/RewardsFacet.sol:RewardsFacet",
            "label": "_value",
            "offset": 0,
            "slot": "0",
            "type": "t_uint256"
          }
        ],
        "numberOfBytes": "32"
      },
      "t_struct(DEFOTokenLimitPerRewards)599_storage": {
        "encoding": "inplace",
        "label": "struct DEFOTokenLimitPerRewards",
        "members": [
          {
            "astId": 594,
            "contract": "contracts/facets/RewardsFacet.sol:RewardsFacet",
            "label": "tokensSold",
            "offset": 0,
            "slot": "0",
            "type": "t_mapping(t_address,t_uint256)"
          },
          {
            "astId": 598,
            "contract": "contracts/facets/RewardsFacet.sol:RewardsFacet",
            "label": "timeOfWindowStart",
            "offset": 0,
            "slot": "1",
            "type": "t_mapping(t_address,t_uint256)"
          }
        ],
        "numberOfBytes": "64"
      },
      "t_struct(DEFOTokenLimitWindow)590_storage": {
        "encoding": "inplace",
        "label": "struct DEFOTokenLimitWindow",
        "members": [
          {
            "astId": 585,
            "contract": "contracts/facets/RewardsFacet.sol:RewardsFacet",
            "label": "tokensSold",
            "offset": 0,
            "slot": "0",
            "type": "t_mapping(t_address,t_uint256)"
          },
          {
            "astId": 589,
            "contract": "contracts/facets/RewardsFacet.sol:RewardsFacet",
            "label": "timeOfLastSale",
            "offset": 0,
            "slot": "1",
            "type": "t_mapping(t_address,t_uint256)"
          }
        ],
        "numberOfBytes": "64"
      },
      "t_struct(DefoTokenLimitConfig)522_storage": {
        "encoding": "inplace",
        "label": "struct DefoTokenLimitConfig",
        "members": [
          {
            "astId": 517,
            "contract": "contracts/facets/RewardsFacet.sol:RewardsFacet",
            "label": "saleLimitPeriod",
            "offset": 0,
            "slot": "0",
            "type": "t_uint256"
          },
          {
            "astId": 519,
            "contract": "contracts/facets/RewardsFacet.sol:RewardsFacet",
            "label": "saleLimitAmount",
            "offset": 0,
            "slot": "1",
            "type": "t_uint256"
          },
          {
            "astId": 521,
            "contract": "contracts/facets/RewardsFacet.sol:RewardsFacet",
            "label": "limitByReward",
            "offset": 0,
            "slot": "2",
            "type": "t_bool"
          }
        ],
        "numberOfBytes": "96"
      },
      "t_struct(ERC721Storage)498_storage": {
        "encoding": "inplace",
        "label": "struct ERC721Storage",
        "members": [
          {
            "astId": 453,
            "contract": "contracts/facets/RewardsFacet.sol:RewardsFacet",
            "label": "name",
            "offset": 0,
            "slot": "0",
            "type": "t_string_storage"
          },
          {
            "astId": 455,
            "contract": "contracts/facets/RewardsFacet.sol:RewardsFacet",
            "label": "symbol",
            "offset": 0,
            "slot": "1",
            "type": "t_string_storage"
          },
          {
            "astId": 458,
            "contract": "contracts/facets/RewardsFacet.sol:RewardsFacet",
            "label": "tokenIdTracker",
            "offset": 0,
            "slot": "2",
            "type": "t_struct(Counter)105_storage"
          },
          {
            "astId": 462,
            "contract": "contracts/facets/RewardsFacet.sol:RewardsFacet",
            "label": "owners",
            "offset": 0,
            "slot": "3",
            "type": "t_mapping(t_uint256,t_address)"
          },
          {
            "astId": 466,
            "contract": "contracts/facets/RewardsFacet.sol:RewardsFacet",
            "label": "balances",
            "offset": 0,
            "slot": "4",
            "type": "t_mapping(t_address,t_uint256)"
          },
          {
            "astId": 470,
            "contract": "contracts/facets/RewardsFacet.sol:RewardsFacet",
            "label": "tokenApprovals",
            "offset": 0,
            "slot": "5",
            "type": "t_mapping(t_uint256,t_address)"
          },
          {
            "astId": 476,
            "contract": "contracts/facets/RewardsFacet.sol:RewardsFacet",
            "label": "operatorApprovals",
            "offset": 0,
            "slot": "6",
            "type": "t_mapping(t_address,t_mapping(t_address,t_bool))"
          },
          {
            "astId": 478,
            "contract": "contracts/facets/RewardsFacet.sol:RewardsFacet",
            "label": "baseURI",
            "offset": 0,
            "slot": "7",
            "type": "t_string_storage"
          },
          {
            "astId": 484,
            "contract": "contracts/facets/RewardsFacet.sol:RewardsFacet",
            "label": "ownedTokens",
            "offset": 0,
            "slot": "8",
            "type": "t_mapping(t_address,t_mapping(t_uint256,t_uint256))"
          },
          {
            "astId": 488,
            "contract": "contracts/facets/RewardsFacet.sol:RewardsFacet",
            "label": "ownedTokensIndex",
            "offset": 0,
            "slot": "9",
            "type": "t_mapping(t_uint256,t_uint256)"
          },
          {
            "astId": 491,
            "contract": "contracts/facets/RewardsFacet.sol:RewardsFacet",
            "label": "allTokens",
            "offset": 0,
            "slot": "10",
            "type": "t_array(t_uint256)dyn_storage"
          },
          {
            "astId": 495,
            "contract": "contracts/facets/RewardsFacet.sol:RewardsFacet",
            "label": "allTokensIndex",
            "offset": 0,
            "slot": "11",
            "type": "t_mapping(t_uint256,t_uint256)"
          },
          {
            "astId": 497,
            "contract": "contracts/facets/RewardsFacet.sol:RewardsFacet",
            "label": "init",
            "offset": 0,
            "slot": "12",
            "type": "t_bool"
          }
        ],
        "numberOfBytes": "416"
      },
      "t_struct(Fi)624_storage": {
        "encoding": "inplace",
        "label": "struct Fi",
        "members": [
          {
            "astId": 605,
            "contract": "contracts/facets/RewardsFacet.sol:RewardsFacet",
            "label": "claimedGross",
            "offset": 0,
            "slot": "0",
            "type": "t_uint256"
          },
          {
            "astId": 607,
            "contract": "contracts/facets/RewardsFacet.sol:RewardsFacet",
            "label": "claimedNet",
            "offset": 0,
            "slot": "1",
            "type": "t_uint256"
          },
          {
            "astId": 609,
            "contract": "contracts/facets/RewardsFacet.sol:RewardsFacet",
            "label": "stakedGross",
            "offset": 0,
            "slot": "2",
            "type": "t_uint256"
          },
          {
            "astId": 611,
            "contract": "contracts/facets/RewardsFacet.sol:RewardsFacet",
            "label": "stakedNet",
            "offset": 0,
            "slot": "3",
            "type": "t_uint256"
          },
          {
            "astId": 613,
            "contract": "contracts/facets/RewardsFacet.sol:RewardsFacet",
            "label": "unStakedGross",
            "offset": 0,
            "slot": "4",
            "type": "t_uint256"
          },
          {
            "astId": 615,
            "contract": "contracts/facets/RewardsFacet.sol:RewardsFacet",
            "label": "unStakedGrossUp",
            "offset": 0,
            "slot": "5",
            "type": "t_uint256"
          },
          {
            "astId": 617,
            "contract": "contracts/facets/RewardsFacet.sol:RewardsFacet",
            "label": "unStakedNet",
            "offset": 0,
            "slot": "6",
            "type": "t_uint256"
          },
          {
            "astId": 619,
            "contract": "contracts/facets/RewardsFacet.sol:RewardsFacet",
            "label": "donated",
            "offset": 0,
            "slot": "7",
            "type": "t_uint256"
          },
          {
            "astId": 621,
            "contract": "contracts/facets/RewardsFacet.sol:RewardsFacet",
            "label": "claimTaxPaid",
            "offset": 0,
            "slot": "8",
            "type": "t_uint256"
          },
          {
            "astId": 623,
            "contract": "contracts/facets/RewardsFacet.sol:RewardsFacet",
            "label": "vaultTaxPaid",
            "offset": 0,
            "slot": "9",
            "type": "t_uint256"
          }
        ],
        "numberOfBytes": "320"
      },
      "t_struct(Gem)639_storage": {
        "encoding": "inplace",
        "label": "struct Gem",
        "members": [
          {
            "astId": 626,
            "contract": "contracts/facets/RewardsFacet.sol:RewardsFacet",
            "label": "gemTypeId",
            "offset": 0,
            "slot": "0",
            "type": "t_uint8"
          },
          {
            "astId": 629,
            "contract": "contracts/facets/RewardsFacet.sol:RewardsFacet",
            "label": "booster",
            "offset": 1,
            "slot": "0",
            "type": "t_enum(Booster)603"
          },
          {
            "astId": 631,
            "contract": "contracts/facets/RewardsFacet.sol:RewardsFacet",
            "label": "mintTime",
            "offset": 2,
            "slot": "0",
            "type": "t_uint32"
          },
          {
            "astId": 633,
            "contract": "contracts/facets/RewardsFacet.sol:RewardsFacet",
            "label": "lastRewardWithdrawalTime",
            "offset": 6,
            "slot": "0",
            "type": "t_uint32"
          },
          {
            "astId": 635,
            "contract": "contracts/facets/RewardsFacet.sol:RewardsFacet",
            "label": "lastMaintenanceTime",
            "offset": 10,
            "slot": "0",
            "type": "t_uint32"
          },
          {
            "astId": 638,
            "contract": "contracts/facets/RewardsFacet.sol:RewardsFacet",
            "label": "fi",
            "offset": 0,
            "slot": "1",
            "type": "t_struct(Fi)624_storage"
          }
        ],
        "numberOfBytes": "352"
      },
      "t_struct(GemTypeConfig)576_storage": {
        "encoding": "inplace",
        "label": "struct GemTypeConfig",
        "members": [
          {
            "astId": 565,
            "contract": "contracts/facets/RewardsFacet.sol:RewardsFacet",
            "label": "maintenanceFeeDai",
            "offset": 0,
            "slot": "0",
            "type": "t_uint256"
          },
          {
            "astId": 567,
            "contract": "contracts/facets/RewardsFacet.sol:RewardsFacet",
            "label": "rewardAmountDefo",
            "offset": 0,
            "slot": "1",
            "type": "t_uint256"
          },
          {
            "astId": 571,
            "contract": "contracts/facets/RewardsFacet.sol:RewardsFacet",
            "label": "price",
            "offset": 0,
            "slot": "2",
            "type": "t_array(t_uint256)2_storage"
          },
          {
            "astId": 573,
            "contract": "contracts/facets/RewardsFacet.sol:RewardsFacet",
            "label": "taperRewardsThresholdDefo",
            "offset": 0,
            "slot": "4",
            "type": "t_uint256"
          },
          {
            "astId": 575,
            "contract": "contracts/facets/RewardsFacet.sol:RewardsFacet",
            "label": "maxMintsPerLimitWindow",
            "offset": 0,
            "slot": "5",
            "type": "t_uint8"
          }
        ],
        "numberOfBytes": "192"
      },
      "t_struct(GemTypeMintWindow)581_storage": {
        "encoding": "inplace",
        "label": "struct GemTypeMintWindow",
        "members": [
          {
            "astId": 578,
            "contract": "contracts/facets/RewardsFacet.sol:RewardsFacet",
            "label": "mintCount",
            "offset": 0,
            "slot": "0",
            "type": "t_uint256"
          },
          {
            "astId": 580,
            "contract": "contracts/facets/RewardsFacet.sol:RewardsFacet",
            "label": "endOfMintLimitWindow",
            "offset": 0,
            "slot": "1",
            "type": "t_uint32"
          }
        ],
        "numberOfBytes": "64"
      },
      "t_struct(ProtocolConfig)563_storage": {
        "encoding": "inplace",
        "label": "struct ProtocolConfig",
        "members": [
          {
            "astId": 527,
            "contract": "contracts/facets/RewardsFacet.sol:RewardsFacet",
            "label": "paymentTokens",
            "offset": 0,
            "slot": "0",
            "type": "t_array(t_contract(IERC20)77)2_storage"
          },
          {
            "astId": 531,
            "contract": "contracts/facets/RewardsFacet.sol:RewardsFacet",
            "label": "wallets",
            "offset": 0,
            "slot": "2",
            "type": "t_array(t_address)7_storage"
          },
          {
            "astId": 537,
            "contract": "contracts/facets/RewardsFacet.sol:RewardsFacet",
            "label": "incomeDistributionOnMint",
            "offset": 0,
            "slot": "9",
            "type": "t_array(t_array(t_uint256)3_storage)2_storage"
          },
          {
            "astId": 539,
            "contract": "contracts/facets/RewardsFacet.sol:RewardsFacet",
            "label": "maintenancePeriod",
            "offset": 0,
            "slot": "15",
            "type": "t_uint32"
          },
          {
            "astId": 541,
            "contract": "contracts/facets/RewardsFacet.sol:RewardsFacet",
            "label": "rewardPeriod",
            "offset": 4,
            "slot": "15",
            "type": "t_uint32"
          },
          {
            "astId": 543,
            "contract": "contracts/facets/RewardsFacet.sol:RewardsFacet",
            "label": "taxScaleSinceLastClaimPeriod",
            "offset": 8,
            "slot": "15",
            "type": "t_uint32"
          },
          {
            "astId": 547,
            "contract": "contracts/facets/RewardsFacet.sol:RewardsFacet",
            "label": "taxRates",
            "offset": 0,
            "slot": "16",
            "type": "t_array(t_uint256)5_storage"
          },
          {
            "astId": 549,
            "contract": "contracts/facets/RewardsFacet.sol:RewardsFacet",
            "label": "charityContributionRate",
            "offset": 0,
            "slot": "21",
            "type": "t_uint256"
          },
          {
            "astId": 551,
            "contract": "contracts/facets/RewardsFacet.sol:RewardsFacet",
            "label": "vaultWithdrawalTaxRate",
            "offset": 0,
            "slot": "22",
            "type": "t_uint256"
          },
          {
            "astId": 553,
            "contract": "contracts/facets/RewardsFacet.sol:RewardsFacet",
            "label": "taperRate",
            "offset": 0,
            "slot": "23",
            "type": "t_uint256"
          },
          {
            "astId": 555,
            "contract": "contracts/facets/RewardsFacet.sol:RewardsFacet",
            "label": "mintLock",
            "offset": 0,
            "slot": "24",
            "type": "t_bool"
          },
          {
            "astId": 557,
            "contract": "contracts/facets/RewardsFacet.sol:RewardsFacet",
            "label": "transferLock",
            "offset": 1,
            "slot": "24",
            "type": "t_bool"
          },
          {
            "astId": 559,
            "contract": "contracts/facets/RewardsFacet.sol:RewardsFacet",
            "label": "mintLimitWindow",
            "offset": 2,
            "slot": "24",
            "type": "t_uint32"
          },
          {
            "astId": 562,
            "contract": "contracts/facets/RewardsFacet.sol:RewardsFacet",
            "label": "defoTokenLimitConfig",
            "offset": 0,
            "slot": "25",
            "type": "t_struct(DefoTokenLimitConfig)522_storage"
          }
        ],
        "numberOfBytes": "896"
      },
      "t_uint256": {
        "encoding": "inplace",
        "label": "uint256",
        "numberOfBytes": "32"
      },
      "t_uint32": {
        "encoding": "inplace",
        "label": "uint32",
        "numberOfBytes": "4"
      },
      "t_uint8": {
        "encoding": "inplace",
        "label": "uint8",
        "numberOfBytes": "1"
      }
    }
  }
}