{
  "address": "0xeF364A61e9B7020BBCE3aaD31D8DbBE334e492b2",
  "abi": [
    {
      "anonymous": false,
      "inputs": [
        {
          "indexed": true,
          "internalType": "address",
          "name": "user",
          "type": "address"
        },
        {
          "indexed": false,
          "internalType": "uint256",
          "name": "amountGross",
          "type": "uint256"
        },
        {
          "indexed": false,
          "internalType": "uint256",
          "name": "amountNet",
          "type": "uint256"
        }
      ],
      "name": "Claimed",
      "type": "event"
    },
    {
      "anonymous": false,
      "inputs": [
        {
          "indexed": true,
          "internalType": "address",
          "name": "user",
          "type": "address"
        },
        {
          "indexed": false,
          "internalType": "uint256",
          "name": "amountGross",
          "type": "uint256"
        },
        {
          "indexed": false,
          "internalType": "uint256",
          "name": "amountNet",
          "type": "uint256"
        }
      ],
      "name": "Staked",
      "type": "event"
    },
    {
      "inputs": [
        {
          "internalType": "uint256[]",
          "name": "_tokenids",
          "type": "uint256[]"
        }
      ],
      "name": "batchClaimReward",
      "outputs": [],
      "stateMutability": "nonpayable",
      "type": "function"
    },
    {
      "inputs": [
        {
          "internalType": "uint256[]",
          "name": "_tokenIds",
          "type": "uint256[]"
        },
        {
          "internalType": "uint256",
          "name": "_percent",
          "type": "uint256"
        }
      ],
      "name": "batchStakeAndClaim",
      "outputs": [],
      "stateMutability": "nonpayable",
      "type": "function"
    },
    {
      "inputs": [
        {
          "internalType": "uint256[]",
          "name": "_tokenIds",
          "type": "uint256[]"
        },
        {
          "internalType": "uint256[]",
          "name": "_amounts",
          "type": "uint256[]"
        }
      ],
      "name": "batchStakeReward",
      "outputs": [],
      "stateMutability": "nonpayable",
      "type": "function"
    },
    {
      "inputs": [
        {
          "internalType": "uint256",
          "name": "_tokenId",
          "type": "uint256"
        }
      ],
      "name": "claimReward",
      "outputs": [],
      "stateMutability": "nonpayable",
      "type": "function"
    },
    {
      "inputs": [],
      "name": "getCumulatedReward",
      "outputs": [
        {
          "internalType": "uint256",
          "name": "",
          "type": "uint256"
        }
      ],
      "stateMutability": "view",
      "type": "function"
    },
    {
      "inputs": [],
      "name": "getCumulatedRewardAllUsers",
      "outputs": [
        {
          "internalType": "uint256",
          "name": "allForAllTotalReward_",
          "type": "uint256"
        }
      ],
      "stateMutability": "view",
      "type": "function"
    },
    {
      "inputs": [],
      "name": "getMyP2DaiValue",
      "outputs": [
        {
          "internalType": "uint256",
          "name": "",
          "type": "uint256"
        }
      ],
      "stateMutability": "view",
      "type": "function"
    },
    {
      "inputs": [],
      "name": "getMyP2RotValue",
      "outputs": [
        {
          "internalType": "uint256",
          "name": "",
          "type": "uint256"
        }
      ],
      "stateMutability": "view",
      "type": "function"
    },
    {
      "inputs": [
        {
          "internalType": "address",
          "name": "user",
          "type": "address"
        }
      ],
      "name": "getP2DaiValue",
      "outputs": [
        {
          "internalType": "uint256",
          "name": "",
          "type": "uint256"
        }
      ],
      "stateMutability": "view",
      "type": "function"
    },
    {
      "inputs": [
        {
          "internalType": "address",
          "name": "user",
          "type": "address"
        }
      ],
      "name": "getP2RotValue",
      "outputs": [
        {
          "internalType": "uint256",
          "name": "",
          "type": "uint256"
        }
      ],
      "stateMutability": "view",
      "type": "function"
    },
    {
      "inputs": [
        {
          "internalType": "uint256",
          "name": "_tokenId",
          "type": "uint256"
        }
      ],
      "name": "getRewardAmount",
      "outputs": [
        {
          "internalType": "uint256",
          "name": "",
          "type": "uint256"
        }
      ],
      "stateMutability": "view",
      "type": "function"
    },
    {
      "inputs": [],
      "name": "getStakedGross",
      "outputs": [
        {
          "internalType": "uint256",
          "name": "",
          "type": "uint256"
        }
      ],
      "stateMutability": "view",
      "type": "function"
    },
    {
      "inputs": [],
      "name": "getStakedGrossAllUsers",
      "outputs": [
        {
          "internalType": "uint256",
          "name": "",
          "type": "uint256"
        }
      ],
      "stateMutability": "view",
      "type": "function"
    },
    {
      "inputs": [
        {
          "internalType": "uint256",
          "name": "_tokenId",
          "type": "uint256"
        }
      ],
      "name": "getTaxTier",
      "outputs": [
        {
          "internalType": "enum TaxTiers",
          "name": "",
          "type": "uint8"
        }
      ],
      "stateMutability": "view",
      "type": "function"
    },
    {
      "inputs": [
        {
          "internalType": "uint256",
          "name": "_tokenId",
          "type": "uint256"
        }
      ],
      "name": "isClaimable",
      "outputs": [
        {
          "internalType": "bool",
          "name": "",
          "type": "bool"
        }
      ],
      "stateMutability": "view",
      "type": "function"
    },
    {
      "inputs": [],
      "name": "p2ClaimDai",
      "outputs": [],
      "stateMutability": "nonpayable",
      "type": "function"
    },
    {
      "inputs": [],
      "name": "p2PutIntoVault",
      "outputs": [],
      "stateMutability": "nonpayable",
      "type": "function"
    },
    {
      "inputs": [
        {
          "internalType": "uint256",
          "name": "_tokenId",
          "type": "uint256"
        },
        {
          "internalType": "uint256",
          "name": "_percent",
          "type": "uint256"
        }
      ],
      "name": "stakeAndClaim",
      "outputs": [],
      "stateMutability": "nonpayable",
      "type": "function"
    },
    {
      "inputs": [
        {
          "internalType": "uint256",
          "name": "_tokenId",
          "type": "uint256"
        },
        {
          "internalType": "uint256",
          "name": "_amount",
          "type": "uint256"
        }
      ],
      "name": "stakeReward",
      "outputs": [],
      "stateMutability": "nonpayable",
      "type": "function"
    }
  ],
  "transactionHash": "0x128c792be6f42cca2980fe9ad89e9f478bb0e0818b6a951c89f9bf9f68042605",
  "args": [],
  "numDeployments": 17,
  "solcInputHash": "ab03a7914713068f281d5d00d9f2729a",
  "bytecode": "0x608060405234801561001057600080fd5b50612753806100206000396000f3fe608060405234801561001057600080fd5b50600436106101215760003560e01c806394c0734b116100ad578063be9dbb1511610071578063be9dbb151461022f578063c760da0414610237578063c84993af1461024a578063d8e1214f1461025d578063ea9e8a191461026557600080fd5b806394c0734b146101e6578063a4ff6c48146101ee578063ae169a5014610201578063b68a0ff614610214578063b816b65d1461021c57600080fd5b8063608eccc3116100f4578063608eccc314610182578063647e4f821461019557806364eff7651461019d57806383b4c865146101b057806389610a09146101c357600080fd5b806306547abd146101265780630a5626db1461014f5780633efbce8b146101655780634d0c509e1461016d575b600080fd5b6101396101343660046120e1565b61026d565b6040516101469190612110565b60405180910390f35b6101576102a7565b604051908152602001610146565b6101576102e0565b61018061017b366004612184565b6102fc565b005b6101576101903660046121d0565b6103c4565b6101806104c7565b6101576101ab3660046121d0565b610628565b6101806101be3660046121f9565b610667565b6101d66101d13660046120e1565b6107a3565b6040519015158152602001610146565b610157610800565b6101806101fc366004612265565b610817565b61018061020f3660046120e1565b610978565b610157610aba565b61018061022a366004612265565b610b1c565b610157610e50565b610180610245366004612287565b610e66565b6101576102583660046120e1565b610f1d565b610157610f96565b610180611004565b60008181526020805260408120546102a19061029690600160301b900463ffffffff16426122df565b63ffffffff1661117d565b92915050565b6000805b602b548110156102dc576102be81611212565b6102c89083612304565b9150806102d48161231c565b9150506102ab565b5090565b6000806102eb6114c5565b90506102f681610628565b91505090565b60006103066114c5565b6001600160a01b0381166000908152603f6020526040902054909150156103485760405162461bcd60e51b815260040161033f90612335565b60405180910390fd5b6001600160a01b0381166000908152604060208190529020541561037e5760405162461bcd60e51b815260040161033f90612377565b60005b838110156103bd576103ab85858381811061039e5761039e6123a4565b9050602002013584610817565b806103b58161231c565b915050610381565b5050505050565b6000806103d083611521565b905060008060005b83518110156104a55760008060200160008684815181106103fb576103fb6123a4565b602090810291909101810151825281019190915260400160002054603d805460ff90921692509082908110610432576104326123a4565b9060005260206000209060060201600201600160028110610455576104556123a4565b01546104619085612304565b9350610485858381518110610478576104786123a4565b6020026020010151611212565b61048f9084612304565b925050808061049d9061231c565b9150506103d8565b508082116104b45760006104be565b6104be81836123ba565b95945050505050565b60006104d16114c5565b6001600160a01b0381166000908152603f60205260409020549091501561050a5760405162461bcd60e51b815260040161033f90612335565b6001600160a01b038116600090815260406020819052902054156105405760405162461bcd60e51b815260040161033f90612377565b60415461055f5760405162461bcd60e51b815260040161033f906123d1565b60006105696114c5565b9050600061057682610628565b6001600160a01b0383166000908152604060208190528120829055909150808001546001600160a01b03169050806323b872dd60026003015460405160e083901b6001600160e01b03191681526001600160a01b0391821660048201529086166024820152604481018590526064016020604051808303816000875af1158015610604573d6000803e3d6000fd5b505050506040513d601f19601f820116820180604052508101906103bd919061241a565b600080610634836103c4565b604354909150610645576000610660565b60435460425461065690839061243c565b610660919061245b565b9392505050565b60006106716114c5565b6001600160a01b0381166000908152603f6020526040902054909150156106aa5760405162461bcd60e51b815260040161033f90612335565b6001600160a01b038116600090815260406020819052902054156106e05760405162461bcd60e51b815260040161033f90612377565b8382146107445760405162461bcd60e51b815260206004820152602c60248201527f4445464f526577617264733a5f746f6b656e644964732d5f616d6f756e74732d60448201526b1a5b98dbdb9cda5cdd195b9d60a21b606482015260840161033f565b60005b8481101561079b57610789868683818110610764576107646123a4565b9050602002013585858481811061077d5761077d6123a4565b90506020020135610b1c565b806107938161231c565b915050610747565b505050505050565b6000818152602080526040812054600f546107d69163ffffffff600160301b909104811691640100000000900416611646565b80156107e857506107e682611664565b155b80156102a157506107f882610f1d565b151592915050565b603354603054600091610812916123ba565b905090565b816108206114c5565b6000828152602460205260409020546001600160a01b039081169116146108825760405162461bcd60e51b8152602060048201526016602482015275596f7520646f6e2774206f776e20746869732067656d60501b604482015260640161033f565b8261088c816107a3565b6108c85760405162461bcd60e51b815260206004820152600d60248201526c4e6f7420636c61696d61626c6560981b604482015260640161033f565b60006108d26114c5565b6001600160a01b0381166000908152603f60205260409020549091501561090b5760405162461bcd60e51b815260040161033f90612335565b6001600160a01b038116600090815260406020819052902054156109415760405162461bcd60e51b815260040161033f90612377565b600061094c86610f1d565b9050600061095a828761175a565b90506109668782610b1c565b61096f87610978565b50505050505050565b806109816114c5565b6000828152602460205260409020546001600160a01b039081169116146109e35760405162461bcd60e51b8152602060048201526016602482015275596f7520646f6e2774206f776e20746869732067656d60501b604482015260640161033f565b816109ed816107a3565b610a295760405162461bcd60e51b815260206004820152600d60248201526c4e6f7420636c61696d61626c6560981b604482015260640161033f565b6000610a336114c5565b6001600160a01b0381166000908152603f602052604090205490915015610a6c5760405162461bcd60e51b815260040161033f90612335565b6001600160a01b03811660009081526040602081905290205415610aa25760405162461bcd60e51b815260040161033f90612377565b610ab484610aaf86610f1d565b61177f565b50505050565b600080610ac56114c5565b90506000610ad282611521565b90506000805b8251811015610b1457610af6838281518110610478576104786123a4565b610b009083612304565b915080610b0c8161231c565b915050610ad8565b509392505050565b81610b256114c5565b6000828152602460205260409020546001600160a01b03908116911614610b875760405162461bcd60e51b8152602060048201526016602482015275596f7520646f6e2774206f776e20746869732067656d60501b604482015260640161033f565b82610b91816119d1565b6000610b9b6114c5565b6001600160a01b0381166000908152603f602052604090205490915015610bd45760405162461bcd60e51b815260040161033f90612335565b6001600160a01b03811660009081526040602081905290205415610c0a5760405162461bcd60e51b815260040161033f90612377565b6001546001600160a01b031660026000610c226114c5565b9050610c2c61208e565b60008811610c7c5760405162461bcd60e51b815260206004820152601660248201527f5a65726f207265776172647320666f7220612067656d00000000000000000000604482015260640161033f565b6000610c878a610f1d565b905080891115610cce5760405162461bcd60e51b81526020600482015260126024820152714e6f7420656e6f756768207265776172647360701b604482015260640161033f565b601554610cdc908a9061175a565b60e08301819052604083018a9052610cf4908a6123ba565b606083015260e0820151610d0790611a38565b826001600160a01b03167f2a01595cddf097c90216094025db714da3f4e5bd8877b56ba86a24ecead8e5438360e00151604051610d4691815260200190565b60405180910390a26001600160a01b0385166323b872dd85600101546001600160a01b03168660050154606086015160405160e085901b6001600160e01b03191681526001600160a01b03938416600482015292909116602483015260448201526064016020604051808303816000875af1158015610dc9573d6000803e3d6000fd5b505050506040513d601f19601f82011682018060405250810190610ded919061241a565b506040808301516060840151825191825260208201526001600160a01b038516917f1449c6dd7851abc30abf37f57715f492010519147cc2652fbc38202c18a6ee90910160405180910390a2610e44828b85611bd3565b50505050505050505050565b600080610e5b6114c5565b90506102f6816103c4565b6000610e706114c5565b6001600160a01b0381166000908152603f602052604090205490915015610ea95760405162461bcd60e51b815260040161033f90612335565b6001600160a01b03811660009081526040602081905290205415610edf5760405162461bcd60e51b815260040161033f90612377565b60005b82811015610ab457610f0b848483818110610eff57610eff6123a4565b90506020020135610978565b80610f158161231c565b915050610ee2565b600081610f29816119d1565b6000610f3484611212565b6000858152602080526040902060070154909150610f529082612304565b6000858152602080526040902060010154909150610f7090826123ba565b6000858152602080526040902060030154909150610f8e90826123ba565b949350505050565b6000603881610fa36114c5565b6001600160a01b03166001600160a01b031681526020019081526020016000206005015460006038016000610fd66114c5565b6001600160a01b03166001600160a01b031681526020019081526020016000206002015461081291906123ba565b600061100e6114c5565b6001600160a01b0381166000908152603f6020526040902054909150156110475760405162461bcd60e51b815260040161033f90612335565b6001600160a01b0381166000908152604060208190529020541561107d5760405162461bcd60e51b815260040161033f90612377565b60415461109c5760405162461bcd60e51b815260040161033f906123d1565b6001546001600160a01b0316600260006110b46114c5565b905060006110c1826103c4565b90506001600160a01b0384166323b872dd84600101546001600160a01b0316856005015460405160e084901b6001600160e01b03191681526001600160a01b03928316600482015291166024820152604481018490526064016020604051808303816000875af1158015611139573d6000803e3d6000fd5b505050506040513d601f19601f8201168201806040525081019061115d919061241a565b506001600160a01b039091166000908152603f6020526040902055505050565b600f5460049060009068010000000000000000900463ffffffff166111a2818461247d565b63ffffffff168410156111b457600392505b6111bf81600361247d565b63ffffffff168410156111d157600292505b6111dc81600261247d565b63ffffffff168410156111ee57600192505b6111f981600161247d565b63ffffffff1684101561120b57600092505b5050919050565b6000818152602080805260408083208151610100808201909352815460ff80821683528695929492850192909104166002811115611252576112526120fa565b6002811115611263576112636120fa565b81526020016000820160029054906101000a900463ffffffff1663ffffffff1663ffffffff1681526020016000820160069054906101000a900463ffffffff1663ffffffff1663ffffffff16815260200160008201600a9054906101000a900463ffffffff1663ffffffff1663ffffffff16815260200160018201604051806101400160405290816000820154815260200160018201548152602001600282015481526020016003820154815260200160048201548152602001600582015481526020016006820154815260200160078201548152602001600882015481526020016009820154815250508152602001600b820160009054906101000a900460ff16151515158152602001600c820154815250509050600080603d01826000015160ff1681548110611397576113976123a4565b90600052602060002090600602016040518060a0016040529081600082015481526020016001820154815260200160028201600280602002604051908101604052809291908260028015611400576020028201915b8154815260200190600101908083116113ec575b50505050508152602001600482015481526020016005820154815250509050600061144582602001518460200151600281111561143f5761143f6120fa565b90611c1c565b90506000806000604101541161145b574261145f565b6041545b9050836040015163ffffffff1681101561147f5750600095945050505050565b60006114ba856040015163ffffffff168361149a91906123ba565b6060860151601754600f548790640100000000900463ffffffff16611c86565b979650505050505050565b600030330361151b57600080368080601f0160208091040260200160405190810160405280939291908181526020018383808284376000920191909152505050503601516001600160a01b0316915061151e9050565b50335b90565b6001600160a01b0381166000908152602560205260408120546060918167ffffffffffffffff811115611556576115566124a9565b60405190808252806020026020018201604052801561157f578160200160208202803683370190505b50905060005b82811015610b14576001600160a01b03851660009081526029602090815260408083208484529091529020546115d2816000908152602460205260409020546001600160a01b0316151590565b6116155760405162461bcd60e51b8152602060048201526014602482015273412067656d20646f65736e27742065786973747360601b604482015260640161033f565b80838381518110611628576116286123a4565b6020908102919091010152508061163e8161231c565b915050611585565b60004283118061066057508161165c84426123ba565b119392505050565b600081815260208052604081208054829190426a010000000000000000000090910463ffffffff161061169b575060009392505050565b80546000906116b69062010000900463ffffffff16426122df565b600f84015490915063ffffffff908116908216116116d957506000949350505050565b8154603d8401805460009261171b9260ff6101008304811693919216908110611704576117046123a4565b906000526020600020906006020160000154611e15565b8354600f860154919250600091611748918491603e89019163ffffffff6201000090910481169116611e63565b905083600c0154816114ba91906123ba565b600080821161176a576000610660565b61177560648061243c565b610656838561243c565b600082815260208052604090206001546001600160a01b03166002836117dc5760405162461bcd60e51b81526020600482015260126024820152714e6f20616d6f756e7420746f20636c61696d60701b604482015260640161033f565b6117e461208e565b84815260006117f28761026d565b825190915061182690601083600481111561180f5761180f6120fa565b6005811061181f5761181f6123a4565b015461175a565b610100830152815160155461183b919061175a565b60e08301819052610100830151835161185491906123ba565b61185e91906123ba565b6020830152600061186d6114c5565b905061187c8360e00151611a38565b806001600160a01b03167f2a01595cddf097c90216094025db714da3f4e5bd8877b56ba86a24ecead8e5438460e001516040516118bb91815260200190565b60405180910390a26001600160a01b0385166323b872dd8560010154602086015160405160e084901b6001600160e01b03191681526001600160a01b039283166004820152918516602483015260448201526064016020604051808303816000875af115801561192f573d6000803e3d6000fd5b505050506040513d601f19601f82011682018060405250810190611953919061241a565b50855469ffffffff0000000000001916600160301b4263ffffffff1602178655825160208085015160408051938452918301526001600160a01b038316917f987d620f307ff6b94d58743cb7a7509f24071586a77759b77c2d4e29f75a2f9a910160405180910390a26119c7838983611bd3565b5050505050505050565b6000818152602460205260409020546001600160a01b0316611a355760405162461bcd60e51b815260206004820152601c60248201527f4552433732313a20746f6b656e4964206973206e6f742076616c696400000000604482015260640161033f565b50565b600080600101546001600160a01b031690506002816323b872dd826001015460405160e083901b6001600160e01b03191681526001600160a01b039091166004820152306024820152604481018690526064016020604051808303816000875af1158015611aaa573d6000803e3d6000fd5b505050506040513d601f19601f82011682018060405250810190611ace919061241a565b506040805160028082526060808301845292602083019080368337505060015482519293506001600160a01b031691839150600090611b0f57611b0f6123a4565b6001600160a01b039283166020918202929092010152600054825191169082906001908110611b4057611b406123a4565b6001600160a01b039283166020918202929092010152603c546004808501546040516338ed173960e01b8152928416936338ed173993611b8c938a9360019389939116914291016124bf565b6000604051808303816000875af1158015611bab573d6000803e3d6000fd5b505050506040513d6000823e601f3d908101601f191682016040526103bd9190810190612530565b60008281526020805260408120611beb602e86611f49565b611bf88160010186611f49565b6001600160a01b038316600090815260388301602052604090206103bd9086611f49565b60006002836002811115611c3257611c326120fa565b03611c5757612710611c4683613a9861243c565b611c50919061245b565b90506102a1565b6001836002811115611c6b57611c6b6120fa565b03611c7f57612710611c46836130d461243c565b50806102a1565b600080611c9285612076565b905060008080805b819250606485606480611cad919061243c565b611cb890606461243c565b611cc2919061245b565b611ccc91906123ba565b6064611cd883886126d2565b83611ce460648061243c565b611cee91906126d2565b611cf990606461243c565b611d03919061245b565b611d0d91906123ba565b611d178a8d61245b565b611d21919061243c565b611d2b919061245b565b915080611d378161231c565b91508b9050611d46838961243c565b1115611c9a57611d576002826123ba565b9050611d63878461243c565b925060008315801590611d755750838c115b15611deb5781611d8660648061243c565b611d9091906126d2565b611d9a83886126d2565b611da4908b61243c565b611dae919061245b565b90508088611dbc868f6123ba565b611dc6919061245b565b611dd0919061243c565b611dda838d61243c565b611de49190612304565b9450611e05565b508780611df8898e61245b565b611e02919061243c565b94505b50929a9950505050505050505050565b60006002836002811115611e2b57611e2b6120fa565b03611e3b57611c5060028361245b565b6001836002811115611e4f57611e4f6120fa565b03611c7f57612710611c4683611d4c61243c565b6000808080611e7285876126de565b90505b4263ffffffff168163ffffffff161015611f3e575b865483108015611ec257508063ffffffff16878481548110611eae57611eae6123a4565b906000526020600020906002020160000154105b15611ed95782611ed18161231c565b935050611e8a565b82611ee381612706565b9350506000611f1e888581548110611efd57611efd6123a4565b9060005260206000209060020201600101548a61175a90919063ffffffff16565b9050611f2a8184612304565b9250611f3686836126de565b915050611e75565b509695505050505050565b805182548390600090611f5d908490612304565b90915550506020810151600183018054600090611f7b908490612304565b90915550506040810151600283018054600090611f99908490612304565b90915550506060810151600383018054600090611fb7908490612304565b90915550506080810151600483018054600090611fd5908490612304565b909155505060a0810151600583018054600090611ff3908490612304565b909155505060c0810151600683018054600090612011908490612304565b909155505060e081015160078301805460009061202f908490612304565b909155505061010081015160088301805460009061204e908490612304565b909155505061012081015160098301805460009061206d908490612304565b90915550505050565b60008161208460648061243c565b6102a191906123ba565b604051806101400160405280600081526020016000815260200160008152602001600081526020016000815260200160008152602001600081526020016000815260200160008152602001600081525090565b6000602082840312156120f357600080fd5b5035919050565b634e487b7160e01b600052602160045260246000fd5b602081016005831061213257634e487b7160e01b600052602160045260246000fd5b91905290565b60008083601f84011261214a57600080fd5b50813567ffffffffffffffff81111561216257600080fd5b6020830191508360208260051b850101111561217d57600080fd5b9250929050565b60008060006040848603121561219957600080fd5b833567ffffffffffffffff8111156121b057600080fd5b6121bc86828701612138565b909790965060209590950135949350505050565b6000602082840312156121e257600080fd5b81356001600160a01b038116811461066057600080fd5b6000806000806040858703121561220f57600080fd5b843567ffffffffffffffff8082111561222757600080fd5b61223388838901612138565b9096509450602087013591508082111561224c57600080fd5b5061225987828801612138565b95989497509550505050565b6000806040838503121561227857600080fd5b50508035926020909101359150565b6000806020838503121561229a57600080fd5b823567ffffffffffffffff8111156122b157600080fd5b6122bd85828601612138565b90969095509350505050565b634e487b7160e01b600052601160045260246000fd5b600063ffffffff838116908316818110156122fc576122fc6122c9565b039392505050565b60008219821115612317576123176122c9565b500190565b60006001820161232e5761232e6122c9565b5060010190565b60208082526022908201527f524f5420616c7265616479206465706f736974656420746f20746865207661756040820152611b1d60f21b606082015260800190565b6020808252601390820152721493d508185b1c9958591e4818db185a5b5959606a1b604082015260600190565b634e487b7160e01b600052603260045260246000fd5b6000828210156123cc576123cc6122c9565b500390565b60208082526029908201527f5472616e736974696f6e20746f205068617365203220686173206e6f74207374604082015268185c9d1959081e595d60ba1b606082015260800190565b60006020828403121561242c57600080fd5b8151801515811461066057600080fd5b6000816000190483118215151615612456576124566122c9565b500290565b60008261247857634e487b7160e01b600052601260045260246000fd5b500490565b600063ffffffff808316818516818304811182151516156124a0576124a06122c9565b02949350505050565b634e487b7160e01b600052604160045260246000fd5b600060a082018783526020878185015260a0604085015281875180845260c086019150828901935060005b8181101561250f5784516001600160a01b0316835293830193918301916001016124ea565b50506001600160a01b03969096166060850152505050608001529392505050565b6000602080838503121561254357600080fd5b825167ffffffffffffffff8082111561255b57600080fd5b818501915085601f83011261256f57600080fd5b815181811115612581576125816124a9565b8060051b604051601f19603f830116810181811085821117156125a6576125a66124a9565b6040529182528482019250838101850191888311156125c457600080fd5b938501935b828510156125e2578451845293850193928501926125c9565b98975050505050505050565b600181815b8085111561262957816000190482111561260f5761260f6122c9565b8085161561261c57918102915b93841c93908002906125f3565b509250929050565b600082612640575060016102a1565b8161264d575060006102a1565b8160018114612663576002811461266d57612689565b60019150506102a1565b60ff84111561267e5761267e6122c9565b50506001821b6102a1565b5060208310610133831016604e8410600b84101617156126ac575081810a6102a1565b6126b683836125ee565b80600019048211156126ca576126ca6122c9565b029392505050565b60006106608383612631565b600063ffffffff8083168185168083038211156126fd576126fd6122c9565b01949350505050565b600081612715576127156122c9565b50600019019056fea2646970667358221220bdb743e197a7e34e77d6bfa40fa6454141476995e120dee3dbcaab20b850f45664736f6c634300080f0033",
  "devdoc": {
    "author": "Decentralized Foundation Team",
    "kind": "dev",
    "methods": {
      "getCumulatedReward()": {
        "returns": {
          "_0": "amount in DEFO (in wei precision)"
        }
      },
      "getCumulatedRewardAllUsers()": {
        "returns": {
          "allForAllTotalReward_": "amount in DEFO (in wei precision)"
        }
      },
      "getRewardAmount(uint256)": {
        "params": {
          "_tokenId": "unique NFT gem id"
        },
        "returns": {
          "_0": "pre-tax unclaimed reward in DEFO,- before deducting tax or charity, ready to be claimed or put to vault"
        }
      },
      "getStakedGross()": {
        "returns": {
          "_0": "total amount in DEFO (in wei precision)"
        }
      },
      "getStakedGrossAllUsers()": {
        "returns": {
          "_0": "total amount in DEFO (in wei precision)"
        }
      },
      "getTaxTier(uint256)": {
        "params": {
          "_tokenId": "unique NFT gem id"
        },
        "returns": {
          "_0": "current tax tier of the gem might be configurable, now it's a number in the range starting from 0 when 0 means nothing is payed out since there's no rewards in the first week, 4 is no tax, 1,2,3 - % in between (currently 30,30,15)"
        }
      },
      "isClaimable(uint256)": {
        "params": {
          "_tokenId": "unique NFT gem id"
        },
        "returns": {
          "_0": "true or false, checks for the pending maintenance and time passed since last claim"
        }
      },
      "stakeAndClaim(uint256,uint256)": {
        "params": {
          "_percent": "percent of what to put into the vault, as usual uses PRECISION_MULTIPLIER (which is 100 by defualt, e.g. 500 for 5%)",
          "_tokenId": "unique NFT gem id"
        }
      }
    },
    "title": "ERC721Facet EIP-2535 Diamond Facet",
    "version": 1
  },
  "userdoc": {
    "kind": "user",
    "methods": {
      "getCumulatedReward()": {
        "notice": "amount of pre-taxed total reward earned by the sender for all time"
      },
      "getCumulatedRewardAllUsers()": {
        "notice": "amount of pre-taxed total reward earned by all the users for all time"
      },
      "getRewardAmount(uint256)": {
        "notice": "reward earned by the sender to the moment ready to be claimed or put to vault"
      },
      "getStakedGross()": {
        "notice": "amount of pre-taxed reward that are currently in the vault for the sender, so if put and then taken from the vault, it's not the return of the function"
      },
      "getStakedGrossAllUsers()": {
        "notice": "amount of pre-taxed reward that are currently in the vault for all users, it's not equal to the after-tax amount in the vault"
      },
      "getTaxTier(uint256)": {
        "notice": "gets tax tier for a gem"
      },
      "isClaimable(uint256)": {
        "notice": "checks if rewards can be claimed or not"
      },
      "stakeAndClaim(uint256,uint256)": {
        "notice": "This is used for the Vault Strategy, it puts the percent of all rewards to the vault and claims the rest"
      },
      "stakeReward(uint256,uint256)": {
        "notice": "todo decide whether move this to the vault facet or not - (to keep all staking/unstaking in one place), or to leave it here (this is a facet working with rewards  which can be either claimed or staked)"
      }
    },
    "notice": "The Contract uses diamond storage providing functionality of ERC721, ERC721Enumerable, ERC721Burnable, ERC721Pausable",
    "version": 1
  },
  "storageLayout": {
    "storage": [
      {
        "astId": 4283,
        "contract": "contracts/facets/RewardsFacet.sol:RewardsFacet",
        "label": "s",
        "offset": 0,
        "slot": "0",
        "type": "t_struct(AppStorage)4568_storage"
      }
    ],
    "types": {
      "t_address": {
        "encoding": "inplace",
        "label": "address",
        "numberOfBytes": "20"
      },
      "t_array(t_address)7_storage": {
        "base": "t_address",
        "encoding": "inplace",
        "label": "address[7]",
        "numberOfBytes": "224"
      },
      "t_array(t_array(t_uint256)3_storage)2_storage": {
        "base": "t_array(t_uint256)3_storage",
        "encoding": "inplace",
        "label": "uint256[3][2]",
        "numberOfBytes": "192"
      },
      "t_array(t_contract(IERC20)737)2_storage": {
        "base": "t_contract(IERC20)737",
        "encoding": "inplace",
        "label": "contract IERC20[2]",
        "numberOfBytes": "64"
      },
      "t_array(t_struct(GemTypeConfig)4429_storage)dyn_storage": {
        "base": "t_struct(GemTypeConfig)4429_storage",
        "encoding": "dynamic_array",
        "label": "struct GemTypeConfig[]",
        "numberOfBytes": "32"
      },
      "t_array(t_struct(GemTypeMintWindow)4434_storage)dyn_storage": {
        "base": "t_struct(GemTypeMintWindow)4434_storage",
        "encoding": "dynamic_array",
        "label": "struct GemTypeMintWindow[]",
        "numberOfBytes": "32"
      },
      "t_array(t_struct(MaintenanceFeeReductionRecord)4501_storage)dyn_storage": {
        "base": "t_struct(MaintenanceFeeReductionRecord)4501_storage",
        "encoding": "dynamic_array",
        "label": "struct MaintenanceFeeReductionRecord[]",
        "numberOfBytes": "32"
      },
      "t_array(t_uint256)2_storage": {
        "base": "t_uint256",
        "encoding": "inplace",
        "label": "uint256[2]",
        "numberOfBytes": "64"
      },
      "t_array(t_uint256)3_storage": {
        "base": "t_uint256",
        "encoding": "inplace",
        "label": "uint256[3]",
        "numberOfBytes": "96"
      },
      "t_array(t_uint256)5_storage": {
        "base": "t_uint256",
        "encoding": "inplace",
        "label": "uint256[5]",
        "numberOfBytes": "160"
      },
      "t_array(t_uint256)dyn_storage": {
        "base": "t_uint256",
        "encoding": "dynamic_array",
        "label": "uint256[]",
        "numberOfBytes": "32"
      },
      "t_bool": {
        "encoding": "inplace",
        "label": "bool",
        "numberOfBytes": "1"
      },
      "t_contract(IERC20)737": {
        "encoding": "inplace",
        "label": "contract IERC20",
        "numberOfBytes": "20"
      },
      "t_enum(Booster)4456": {
        "encoding": "inplace",
        "label": "enum Booster",
        "numberOfBytes": "1"
      },
      "t_mapping(t_address,t_bool)": {
        "encoding": "mapping",
        "key": "t_address",
        "label": "mapping(address => bool)",
        "numberOfBytes": "32",
        "value": "t_bool"
      },
      "t_mapping(t_address,t_mapping(t_address,t_bool))": {
        "encoding": "mapping",
        "key": "t_address",
        "label": "mapping(address => mapping(address => bool))",
        "numberOfBytes": "32",
        "value": "t_mapping(t_address,t_bool)"
      },
      "t_mapping(t_address,t_mapping(t_uint256,t_uint256))": {
        "encoding": "mapping",
        "key": "t_address",
        "label": "mapping(address => mapping(uint256 => uint256))",
        "numberOfBytes": "32",
        "value": "t_mapping(t_uint256,t_uint256)"
      },
      "t_mapping(t_address,t_mapping(t_uint8,t_mapping(t_enum(Booster)4456,t_uint256)))": {
        "encoding": "mapping",
        "key": "t_address",
        "label": "mapping(address => mapping(uint8 => mapping(enum Booster => uint256)))",
        "numberOfBytes": "32",
        "value": "t_mapping(t_uint8,t_mapping(t_enum(Booster)4456,t_uint256))"
      },
      "t_mapping(t_address,t_struct(Fi)4477_storage)": {
        "encoding": "mapping",
        "key": "t_address",
        "label": "mapping(address => struct Fi)",
        "numberOfBytes": "32",
        "value": "t_struct(Fi)4477_storage"
      },
      "t_mapping(t_address,t_uint256)": {
        "encoding": "mapping",
        "key": "t_address",
        "label": "mapping(address => uint256)",
        "numberOfBytes": "32",
        "value": "t_uint256"
      },
      "t_mapping(t_enum(Booster)4456,t_uint256)": {
        "encoding": "mapping",
        "key": "t_enum(Booster)4456",
        "label": "mapping(enum Booster => uint256)",
        "numberOfBytes": "32",
        "value": "t_uint256"
      },
      "t_mapping(t_uint256,t_address)": {
        "encoding": "mapping",
        "key": "t_uint256",
        "label": "mapping(uint256 => address)",
        "numberOfBytes": "32",
        "value": "t_address"
      },
      "t_mapping(t_uint256,t_struct(Gem)4496_storage)": {
        "encoding": "mapping",
        "key": "t_uint256",
        "label": "mapping(uint256 => struct Gem)",
        "numberOfBytes": "32",
        "value": "t_struct(Gem)4496_storage"
      },
      "t_mapping(t_uint256,t_uint256)": {
        "encoding": "mapping",
        "key": "t_uint256",
        "label": "mapping(uint256 => uint256)",
        "numberOfBytes": "32",
        "value": "t_uint256"
      },
      "t_mapping(t_uint8,t_mapping(t_enum(Booster)4456,t_uint256))": {
        "encoding": "mapping",
        "key": "t_uint8",
        "label": "mapping(uint8 => mapping(enum Booster => uint256))",
        "numberOfBytes": "32",
        "value": "t_mapping(t_enum(Booster)4456,t_uint256)"
      },
      "t_string_storage": {
        "encoding": "bytes",
        "label": "string",
        "numberOfBytes": "32"
      },
      "t_struct(AppStorage)4568_storage": {
        "encoding": "inplace",
        "label": "struct AppStorage",
        "members": [
          {
            "astId": 4504,
            "contract": "contracts/facets/RewardsFacet.sol:RewardsFacet",
            "label": "config",
            "offset": 0,
            "slot": "0",
            "type": "t_struct(ProtocolConfig)4416_storage"
          },
          {
            "astId": 4508,
            "contract": "contracts/facets/RewardsFacet.sol:RewardsFacet",
            "label": "gemTypes",
            "offset": 0,
            "slot": "28",
            "type": "t_array(t_struct(GemTypeConfig)4429_storage)dyn_storage"
          },
          {
            "astId": 4512,
            "contract": "contracts/facets/RewardsFacet.sol:RewardsFacet",
            "label": "gemTypesMintWindows",
            "offset": 0,
            "slot": "29",
            "type": "t_array(t_struct(GemTypeMintWindow)4434_storage)dyn_storage"
          },
          {
            "astId": 4515,
            "contract": "contracts/facets/RewardsFacet.sol:RewardsFacet",
            "label": "defoTokenLimitWindow",
            "offset": 0,
            "slot": "30",
            "type": "t_struct(DEFOTokenLimitWindow)4443_storage"
          },
          {
            "astId": 4520,
            "contract": "contracts/facets/RewardsFacet.sol:RewardsFacet",
            "label": "gems",
            "offset": 0,
            "slot": "32",
            "type": "t_mapping(t_uint256,t_struct(Gem)4496_storage)"
          },
          {
            "astId": 4523,
            "contract": "contracts/facets/RewardsFacet.sol:RewardsFacet",
            "label": "nft",
            "offset": 0,
            "slot": "33",
            "type": "t_struct(ERC721Storage)4351_storage"
          },
          {
            "astId": 4526,
            "contract": "contracts/facets/RewardsFacet.sol:RewardsFacet",
            "label": "total",
            "offset": 0,
            "slot": "46",
            "type": "t_struct(Fi)4477_storage"
          },
          {
            "astId": 4531,
            "contract": "contracts/facets/RewardsFacet.sol:RewardsFacet",
            "label": "usersFi",
            "offset": 0,
            "slot": "56",
            "type": "t_mapping(t_address,t_struct(Fi)4477_storage)"
          },
          {
            "astId": 4540,
            "contract": "contracts/facets/RewardsFacet.sol:RewardsFacet",
            "label": "usersNextGemBooster",
            "offset": 0,
            "slot": "57",
            "type": "t_mapping(t_address,t_mapping(t_uint8,t_mapping(t_enum(Booster)4456,t_uint256)))"
          },
          {
            "astId": 4543,
            "contract": "contracts/facets/RewardsFacet.sol:RewardsFacet",
            "label": "defoTokenLimitPerRewards",
            "offset": 0,
            "slot": "58",
            "type": "t_struct(DEFOTokenLimitPerRewards)4452_storage"
          },
          {
            "astId": 4545,
            "contract": "contracts/facets/RewardsFacet.sol:RewardsFacet",
            "label": "routerWallet",
            "offset": 0,
            "slot": "60",
            "type": "t_address"
          },
          {
            "astId": 4549,
            "contract": "contracts/facets/RewardsFacet.sol:RewardsFacet",
            "label": "gemTypes2",
            "offset": 0,
            "slot": "61",
            "type": "t_array(t_struct(GemTypeConfig)4429_storage)dyn_storage"
          },
          {
            "astId": 4553,
            "contract": "contracts/facets/RewardsFacet.sol:RewardsFacet",
            "label": "maintenanceFeeReductionTable",
            "offset": 0,
            "slot": "62",
            "type": "t_array(t_struct(MaintenanceFeeReductionRecord)4501_storage)dyn_storage"
          },
          {
            "astId": 4557,
            "contract": "contracts/facets/RewardsFacet.sol:RewardsFacet",
            "label": "phase2DepositedToVault",
            "offset": 0,
            "slot": "63",
            "type": "t_mapping(t_address,t_uint256)"
          },
          {
            "astId": 4561,
            "contract": "contracts/facets/RewardsFacet.sol:RewardsFacet",
            "label": "phase2DaiReceived",
            "offset": 0,
            "slot": "64",
            "type": "t_mapping(t_address,t_uint256)"
          },
          {
            "astId": 4563,
            "contract": "contracts/facets/RewardsFacet.sol:RewardsFacet",
            "label": "p2CutOverTime",
            "offset": 0,
            "slot": "65",
            "type": "t_uint256"
          },
          {
            "astId": 4565,
            "contract": "contracts/facets/RewardsFacet.sol:RewardsFacet",
            "label": "daiToDistribute",
            "offset": 0,
            "slot": "66",
            "type": "t_uint256"
          },
          {
            "astId": 4567,
            "contract": "contracts/facets/RewardsFacet.sol:RewardsFacet",
            "label": "totalROT",
            "offset": 0,
            "slot": "67",
            "type": "t_uint256"
          }
        ],
        "numberOfBytes": "2176"
      },
      "t_struct(Counter)2737_storage": {
        "encoding": "inplace",
        "label": "struct Counters.Counter",
        "members": [
          {
            "astId": 2736,
            "contract": "contracts/facets/RewardsFacet.sol:RewardsFacet",
            "label": "_value",
            "offset": 0,
            "slot": "0",
            "type": "t_uint256"
          }
        ],
        "numberOfBytes": "32"
      },
      "t_struct(DEFOTokenLimitPerRewards)4452_storage": {
        "encoding": "inplace",
        "label": "struct DEFOTokenLimitPerRewards",
        "members": [
          {
            "astId": 4447,
            "contract": "contracts/facets/RewardsFacet.sol:RewardsFacet",
            "label": "tokensSold",
            "offset": 0,
            "slot": "0",
            "type": "t_mapping(t_address,t_uint256)"
          },
          {
            "astId": 4451,
            "contract": "contracts/facets/RewardsFacet.sol:RewardsFacet",
            "label": "timeOfWindowStart",
            "offset": 0,
            "slot": "1",
            "type": "t_mapping(t_address,t_uint256)"
          }
        ],
        "numberOfBytes": "64"
      },
      "t_struct(DEFOTokenLimitWindow)4443_storage": {
        "encoding": "inplace",
        "label": "struct DEFOTokenLimitWindow",
        "members": [
          {
            "astId": 4438,
            "contract": "contracts/facets/RewardsFacet.sol:RewardsFacet",
            "label": "tokensSold",
            "offset": 0,
            "slot": "0",
            "type": "t_mapping(t_address,t_uint256)"
          },
          {
            "astId": 4442,
            "contract": "contracts/facets/RewardsFacet.sol:RewardsFacet",
            "label": "timeOfLastSale",
            "offset": 0,
            "slot": "1",
            "type": "t_mapping(t_address,t_uint256)"
          }
        ],
        "numberOfBytes": "64"
      },
      "t_struct(DefoTokenLimitConfig)4375_storage": {
        "encoding": "inplace",
        "label": "struct DefoTokenLimitConfig",
        "members": [
          {
            "astId": 4370,
            "contract": "contracts/facets/RewardsFacet.sol:RewardsFacet",
            "label": "saleLimitPeriod",
            "offset": 0,
            "slot": "0",
            "type": "t_uint256"
          },
          {
            "astId": 4372,
            "contract": "contracts/facets/RewardsFacet.sol:RewardsFacet",
            "label": "saleLimitAmount",
            "offset": 0,
            "slot": "1",
            "type": "t_uint256"
          },
          {
            "astId": 4374,
            "contract": "contracts/facets/RewardsFacet.sol:RewardsFacet",
            "label": "limitByReward",
            "offset": 0,
            "slot": "2",
            "type": "t_bool"
          }
        ],
        "numberOfBytes": "96"
      },
      "t_struct(ERC721Storage)4351_storage": {
        "encoding": "inplace",
        "label": "struct ERC721Storage",
        "members": [
          {
            "astId": 4306,
            "contract": "contracts/facets/RewardsFacet.sol:RewardsFacet",
            "label": "name",
            "offset": 0,
            "slot": "0",
            "type": "t_string_storage"
          },
          {
            "astId": 4308,
            "contract": "contracts/facets/RewardsFacet.sol:RewardsFacet",
            "label": "symbol",
            "offset": 0,
            "slot": "1",
            "type": "t_string_storage"
          },
          {
            "astId": 4311,
            "contract": "contracts/facets/RewardsFacet.sol:RewardsFacet",
            "label": "tokenIdTracker",
            "offset": 0,
            "slot": "2",
            "type": "t_struct(Counter)2737_storage"
          },
          {
            "astId": 4315,
            "contract": "contracts/facets/RewardsFacet.sol:RewardsFacet",
            "label": "owners",
            "offset": 0,
            "slot": "3",
            "type": "t_mapping(t_uint256,t_address)"
          },
          {
            "astId": 4319,
            "contract": "contracts/facets/RewardsFacet.sol:RewardsFacet",
            "label": "balances",
            "offset": 0,
            "slot": "4",
            "type": "t_mapping(t_address,t_uint256)"
          },
          {
            "astId": 4323,
            "contract": "contracts/facets/RewardsFacet.sol:RewardsFacet",
            "label": "tokenApprovals",
            "offset": 0,
            "slot": "5",
            "type": "t_mapping(t_uint256,t_address)"
          },
          {
            "astId": 4329,
            "contract": "contracts/facets/RewardsFacet.sol:RewardsFacet",
            "label": "operatorApprovals",
            "offset": 0,
            "slot": "6",
            "type": "t_mapping(t_address,t_mapping(t_address,t_bool))"
          },
          {
            "astId": 4331,
            "contract": "contracts/facets/RewardsFacet.sol:RewardsFacet",
            "label": "baseURI",
            "offset": 0,
            "slot": "7",
            "type": "t_string_storage"
          },
          {
            "astId": 4337,
            "contract": "contracts/facets/RewardsFacet.sol:RewardsFacet",
            "label": "ownedTokens",
            "offset": 0,
            "slot": "8",
            "type": "t_mapping(t_address,t_mapping(t_uint256,t_uint256))"
          },
          {
            "astId": 4341,
            "contract": "contracts/facets/RewardsFacet.sol:RewardsFacet",
            "label": "ownedTokensIndex",
            "offset": 0,
            "slot": "9",
            "type": "t_mapping(t_uint256,t_uint256)"
          },
          {
            "astId": 4344,
            "contract": "contracts/facets/RewardsFacet.sol:RewardsFacet",
            "label": "allTokens",
            "offset": 0,
            "slot": "10",
            "type": "t_array(t_uint256)dyn_storage"
          },
          {
            "astId": 4348,
            "contract": "contracts/facets/RewardsFacet.sol:RewardsFacet",
            "label": "allTokensIndex",
            "offset": 0,
            "slot": "11",
            "type": "t_mapping(t_uint256,t_uint256)"
          },
          {
            "astId": 4350,
            "contract": "contracts/facets/RewardsFacet.sol:RewardsFacet",
            "label": "init",
            "offset": 0,
            "slot": "12",
            "type": "t_bool"
          }
        ],
        "numberOfBytes": "416"
      },
      "t_struct(Fi)4477_storage": {
        "encoding": "inplace",
        "label": "struct Fi",
        "members": [
          {
            "astId": 4458,
            "contract": "contracts/facets/RewardsFacet.sol:RewardsFacet",
            "label": "claimedGross",
            "offset": 0,
            "slot": "0",
            "type": "t_uint256"
          },
          {
            "astId": 4460,
            "contract": "contracts/facets/RewardsFacet.sol:RewardsFacet",
            "label": "claimedNet",
            "offset": 0,
            "slot": "1",
            "type": "t_uint256"
          },
          {
            "astId": 4462,
            "contract": "contracts/facets/RewardsFacet.sol:RewardsFacet",
            "label": "stakedGross",
            "offset": 0,
            "slot": "2",
            "type": "t_uint256"
          },
          {
            "astId": 4464,
            "contract": "contracts/facets/RewardsFacet.sol:RewardsFacet",
            "label": "stakedNet",
            "offset": 0,
            "slot": "3",
            "type": "t_uint256"
          },
          {
            "astId": 4466,
            "contract": "contracts/facets/RewardsFacet.sol:RewardsFacet",
            "label": "unStakedGross",
            "offset": 0,
            "slot": "4",
            "type": "t_uint256"
          },
          {
            "astId": 4468,
            "contract": "contracts/facets/RewardsFacet.sol:RewardsFacet",
            "label": "unStakedGrossUp",
            "offset": 0,
            "slot": "5",
            "type": "t_uint256"
          },
          {
            "astId": 4470,
            "contract": "contracts/facets/RewardsFacet.sol:RewardsFacet",
            "label": "unStakedNet",
            "offset": 0,
            "slot": "6",
            "type": "t_uint256"
          },
          {
            "astId": 4472,
            "contract": "contracts/facets/RewardsFacet.sol:RewardsFacet",
            "label": "donated",
            "offset": 0,
            "slot": "7",
            "type": "t_uint256"
          },
          {
            "astId": 4474,
            "contract": "contracts/facets/RewardsFacet.sol:RewardsFacet",
            "label": "claimTaxPaid",
            "offset": 0,
            "slot": "8",
            "type": "t_uint256"
          },
          {
            "astId": 4476,
            "contract": "contracts/facets/RewardsFacet.sol:RewardsFacet",
            "label": "vaultTaxPaid",
            "offset": 0,
            "slot": "9",
            "type": "t_uint256"
          }
        ],
        "numberOfBytes": "320"
      },
      "t_struct(Gem)4496_storage": {
        "encoding": "inplace",
        "label": "struct Gem",
        "members": [
          {
            "astId": 4479,
            "contract": "contracts/facets/RewardsFacet.sol:RewardsFacet",
            "label": "gemTypeId",
            "offset": 0,
            "slot": "0",
            "type": "t_uint8"
          },
          {
            "astId": 4482,
            "contract": "contracts/facets/RewardsFacet.sol:RewardsFacet",
            "label": "booster",
            "offset": 1,
            "slot": "0",
            "type": "t_enum(Booster)4456"
          },
          {
            "astId": 4484,
            "contract": "contracts/facets/RewardsFacet.sol:RewardsFacet",
            "label": "mintTime",
            "offset": 2,
            "slot": "0",
            "type": "t_uint32"
          },
          {
            "astId": 4486,
            "contract": "contracts/facets/RewardsFacet.sol:RewardsFacet",
            "label": "lastRewardWithdrawalTime",
            "offset": 6,
            "slot": "0",
            "type": "t_uint32"
          },
          {
            "astId": 4488,
            "contract": "contracts/facets/RewardsFacet.sol:RewardsFacet",
            "label": "lastMaintenanceTime",
            "offset": 10,
            "slot": "0",
            "type": "t_uint32"
          },
          {
            "astId": 4491,
            "contract": "contracts/facets/RewardsFacet.sol:RewardsFacet",
            "label": "fi",
            "offset": 0,
            "slot": "1",
            "type": "t_struct(Fi)4477_storage"
          },
          {
            "astId": 4493,
            "contract": "contracts/facets/RewardsFacet.sol:RewardsFacet",
            "label": "presold",
            "offset": 0,
            "slot": "11",
            "type": "t_bool"
          },
          {
            "astId": 4495,
            "contract": "contracts/facets/RewardsFacet.sol:RewardsFacet",
            "label": "maintenanceFeePaid",
            "offset": 0,
            "slot": "12",
            "type": "t_uint256"
          }
        ],
        "numberOfBytes": "416"
      },
      "t_struct(GemTypeConfig)4429_storage": {
        "encoding": "inplace",
        "label": "struct GemTypeConfig",
        "members": [
          {
            "astId": 4418,
            "contract": "contracts/facets/RewardsFacet.sol:RewardsFacet",
            "label": "maintenanceFeeDai",
            "offset": 0,
            "slot": "0",
            "type": "t_uint256"
          },
          {
            "astId": 4420,
            "contract": "contracts/facets/RewardsFacet.sol:RewardsFacet",
            "label": "rewardAmountDefo",
            "offset": 0,
            "slot": "1",
            "type": "t_uint256"
          },
          {
            "astId": 4424,
            "contract": "contracts/facets/RewardsFacet.sol:RewardsFacet",
            "label": "price",
            "offset": 0,
            "slot": "2",
            "type": "t_array(t_uint256)2_storage"
          },
          {
            "astId": 4426,
            "contract": "contracts/facets/RewardsFacet.sol:RewardsFacet",
            "label": "taperRewardsThresholdDefo",
            "offset": 0,
            "slot": "4",
            "type": "t_uint256"
          },
          {
            "astId": 4428,
            "contract": "contracts/facets/RewardsFacet.sol:RewardsFacet",
            "label": "maxMintsPerLimitWindow",
            "offset": 0,
            "slot": "5",
            "type": "t_uint256"
          }
        ],
        "numberOfBytes": "192"
      },
      "t_struct(GemTypeMintWindow)4434_storage": {
        "encoding": "inplace",
        "label": "struct GemTypeMintWindow",
        "members": [
          {
            "astId": 4431,
            "contract": "contracts/facets/RewardsFacet.sol:RewardsFacet",
            "label": "mintCount",
            "offset": 0,
            "slot": "0",
            "type": "t_uint256"
          },
          {
            "astId": 4433,
            "contract": "contracts/facets/RewardsFacet.sol:RewardsFacet",
            "label": "endOfMintLimitWindow",
            "offset": 0,
            "slot": "1",
            "type": "t_uint32"
          }
        ],
        "numberOfBytes": "64"
      },
      "t_struct(MaintenanceFeeReductionRecord)4501_storage": {
        "encoding": "inplace",
        "label": "struct MaintenanceFeeReductionRecord",
        "members": [
          {
            "astId": 4498,
            "contract": "contracts/facets/RewardsFacet.sol:RewardsFacet",
            "label": "timeOfReduction",
            "offset": 0,
            "slot": "0",
            "type": "t_uint256"
          },
          {
            "astId": 4500,
            "contract": "contracts/facets/RewardsFacet.sol:RewardsFacet",
            "label": "maintenanceReductionPercent",
            "offset": 0,
            "slot": "1",
            "type": "t_uint256"
          }
        ],
        "numberOfBytes": "64"
      },
      "t_struct(ProtocolConfig)4416_storage": {
        "encoding": "inplace",
        "label": "struct ProtocolConfig",
        "members": [
          {
            "astId": 4380,
            "contract": "contracts/facets/RewardsFacet.sol:RewardsFacet",
            "label": "paymentTokens",
            "offset": 0,
            "slot": "0",
            "type": "t_array(t_contract(IERC20)737)2_storage"
          },
          {
            "astId": 4384,
            "contract": "contracts/facets/RewardsFacet.sol:RewardsFacet",
            "label": "wallets",
            "offset": 0,
            "slot": "2",
            "type": "t_array(t_address)7_storage"
          },
          {
            "astId": 4390,
            "contract": "contracts/facets/RewardsFacet.sol:RewardsFacet",
            "label": "incomeDistributionOnMint",
            "offset": 0,
            "slot": "9",
            "type": "t_array(t_array(t_uint256)3_storage)2_storage"
          },
          {
            "astId": 4392,
            "contract": "contracts/facets/RewardsFacet.sol:RewardsFacet",
            "label": "maintenancePeriod",
            "offset": 0,
            "slot": "15",
            "type": "t_uint32"
          },
          {
            "astId": 4394,
            "contract": "contracts/facets/RewardsFacet.sol:RewardsFacet",
            "label": "rewardPeriod",
            "offset": 4,
            "slot": "15",
            "type": "t_uint32"
          },
          {
            "astId": 4396,
            "contract": "contracts/facets/RewardsFacet.sol:RewardsFacet",
            "label": "taxScaleSinceLastClaimPeriod",
            "offset": 8,
            "slot": "15",
            "type": "t_uint32"
          },
          {
            "astId": 4400,
            "contract": "contracts/facets/RewardsFacet.sol:RewardsFacet",
            "label": "taxRates",
            "offset": 0,
            "slot": "16",
            "type": "t_array(t_uint256)5_storage"
          },
          {
            "astId": 4402,
            "contract": "contracts/facets/RewardsFacet.sol:RewardsFacet",
            "label": "charityContributionRate",
            "offset": 0,
            "slot": "21",
            "type": "t_uint256"
          },
          {
            "astId": 4404,
            "contract": "contracts/facets/RewardsFacet.sol:RewardsFacet",
            "label": "vaultWithdrawalTaxRate",
            "offset": 0,
            "slot": "22",
            "type": "t_uint256"
          },
          {
            "astId": 4406,
            "contract": "contracts/facets/RewardsFacet.sol:RewardsFacet",
            "label": "taperRate",
            "offset": 0,
            "slot": "23",
            "type": "t_uint256"
          },
          {
            "astId": 4408,
            "contract": "contracts/facets/RewardsFacet.sol:RewardsFacet",
            "label": "mintLock",
            "offset": 0,
            "slot": "24",
            "type": "t_bool"
          },
          {
            "astId": 4410,
            "contract": "contracts/facets/RewardsFacet.sol:RewardsFacet",
            "label": "transferLock",
            "offset": 1,
            "slot": "24",
            "type": "t_bool"
          },
          {
            "astId": 4412,
            "contract": "contracts/facets/RewardsFacet.sol:RewardsFacet",
            "label": "mintLimitWindow",
            "offset": 2,
            "slot": "24",
            "type": "t_uint32"
          },
          {
            "astId": 4415,
            "contract": "contracts/facets/RewardsFacet.sol:RewardsFacet",
            "label": "defoTokenLimitConfig",
            "offset": 0,
            "slot": "25",
            "type": "t_struct(DefoTokenLimitConfig)4375_storage"
          }
        ],
        "numberOfBytes": "896"
      },
      "t_uint256": {
        "encoding": "inplace",
        "label": "uint256",
        "numberOfBytes": "32"
      },
      "t_uint32": {
        "encoding": "inplace",
        "label": "uint32",
        "numberOfBytes": "4"
      },
      "t_uint8": {
        "encoding": "inplace",
        "label": "uint8",
        "numberOfBytes": "1"
      }
    }
  }
}