{
  "address": "0x6a091Eb27102EA4491EA56fEab2e012cD7f648a6",
  "abi": [
    {
      "anonymous": false,
      "inputs": [
        {
          "indexed": true,
          "internalType": "address",
          "name": "user",
          "type": "address"
        },
        {
          "indexed": false,
          "internalType": "uint256",
          "name": "amountGross",
          "type": "uint256"
        },
        {
          "indexed": false,
          "internalType": "uint256",
          "name": "amountNet",
          "type": "uint256"
        }
      ],
      "name": "Claimed",
      "type": "event"
    },
    {
      "anonymous": false,
      "inputs": [
        {
          "indexed": true,
          "internalType": "address",
          "name": "user",
          "type": "address"
        },
        {
          "indexed": false,
          "internalType": "uint256",
          "name": "amountGross",
          "type": "uint256"
        },
        {
          "indexed": false,
          "internalType": "uint256",
          "name": "amountNet",
          "type": "uint256"
        }
      ],
      "name": "Staked",
      "type": "event"
    },
    {
      "inputs": [
        {
          "internalType": "uint256[]",
          "name": "_tokenids",
          "type": "uint256[]"
        }
      ],
      "name": "batchClaimReward",
      "outputs": [],
      "stateMutability": "nonpayable",
      "type": "function"
    },
    {
      "inputs": [
        {
          "internalType": "uint256[]",
          "name": "_tokenIds",
          "type": "uint256[]"
        },
        {
          "internalType": "uint256",
          "name": "_percent",
          "type": "uint256"
        }
      ],
      "name": "batchStakeAndClaim",
      "outputs": [],
      "stateMutability": "nonpayable",
      "type": "function"
    },
    {
      "inputs": [
        {
          "internalType": "uint256[]",
          "name": "_tokenIds",
          "type": "uint256[]"
        },
        {
          "internalType": "uint256[]",
          "name": "_amounts",
          "type": "uint256[]"
        }
      ],
      "name": "batchStakeReward",
      "outputs": [],
      "stateMutability": "nonpayable",
      "type": "function"
    },
    {
      "inputs": [
        {
          "internalType": "uint256",
          "name": "_tokenId",
          "type": "uint256"
        }
      ],
      "name": "claimReward",
      "outputs": [],
      "stateMutability": "nonpayable",
      "type": "function"
    },
    {
      "inputs": [],
      "name": "getCumulatedReward",
      "outputs": [
        {
          "internalType": "uint256",
          "name": "",
          "type": "uint256"
        }
      ],
      "stateMutability": "view",
      "type": "function"
    },
    {
      "inputs": [],
      "name": "getCumulatedRewardAllUsers",
      "outputs": [
        {
          "internalType": "uint256",
          "name": "allForAllTotalReward_",
          "type": "uint256"
        }
      ],
      "stateMutability": "view",
      "type": "function"
    },
    {
      "inputs": [
        {
          "internalType": "uint256",
          "name": "_tokenId",
          "type": "uint256"
        }
      ],
      "name": "getRewardAmount",
      "outputs": [
        {
          "internalType": "uint256",
          "name": "",
          "type": "uint256"
        }
      ],
      "stateMutability": "view",
      "type": "function"
    },
    {
      "inputs": [],
      "name": "getStakedGross",
      "outputs": [
        {
          "internalType": "uint256",
          "name": "",
          "type": "uint256"
        }
      ],
      "stateMutability": "view",
      "type": "function"
    },
    {
      "inputs": [],
      "name": "getStakedGrossAllUsers",
      "outputs": [
        {
          "internalType": "uint256",
          "name": "",
          "type": "uint256"
        }
      ],
      "stateMutability": "view",
      "type": "function"
    },
    {
      "inputs": [
        {
          "internalType": "uint256",
          "name": "_tokenId",
          "type": "uint256"
        }
      ],
      "name": "getTaxTier",
      "outputs": [
        {
          "internalType": "enum TaxTiers",
          "name": "",
          "type": "uint8"
        }
      ],
      "stateMutability": "view",
      "type": "function"
    },
    {
      "inputs": [
        {
          "internalType": "uint256",
          "name": "_tokenId",
          "type": "uint256"
        }
      ],
      "name": "isClaimable",
      "outputs": [
        {
          "internalType": "bool",
          "name": "",
          "type": "bool"
        }
      ],
      "stateMutability": "view",
      "type": "function"
    },
    {
      "inputs": [
        {
          "internalType": "uint256",
          "name": "_tokenId",
          "type": "uint256"
        },
        {
          "internalType": "uint256",
          "name": "_percent",
          "type": "uint256"
        }
      ],
      "name": "stakeAndClaim",
      "outputs": [],
      "stateMutability": "nonpayable",
      "type": "function"
    },
    {
      "inputs": [
        {
          "internalType": "uint256",
          "name": "_tokenId",
          "type": "uint256"
        },
        {
          "internalType": "uint256",
          "name": "_amount",
          "type": "uint256"
        }
      ],
      "name": "stakeReward",
      "outputs": [],
      "stateMutability": "nonpayable",
      "type": "function"
    }
  ],
  "transactionHash": "0x4e778adce1575483a96cd28f60c8e4ac0b0c55dec34c209668891efc30d43ef2",
  "args": [],
  "numDeployments": 3,
  "solcInputHash": "17505d317b3cba6e4dbf2a0e54f05a12",
  "bytecode": "0x608060405234801561001057600080fd5b50612ad1806100206000396000f3fe608060405234801561001057600080fd5b50600436106100cf5760003560e01c8063a4ff6c481161008c578063b816b65d11610066578063b816b65d146101fe578063c760da041461021a578063c84993af14610236578063d8e1214f14610266576100cf565b8063a4ff6c48146101a8578063ae169a50146101c4578063b68a0ff6146101e0576100cf565b806306547abd146100d45780630a5626db146101045780634d0c509e1461012257806383b4c8651461013e57806389610a091461015a57806394c0734b1461018a575b600080fd5b6100ee60048036038101906100e99190611f78565b610284565b6040516100fb919061201c565b60405180910390f35b61010c6102d0565b6040516101199190612046565b60405180910390f35b61013c600480360381019061013791906120c6565b610318565b005b61015860048036038101906101539190612126565b610362565b005b610174600480360381019061016f9190611f78565b61040e565b60405161018191906121c2565b60405180910390f35b610192610496565b60405161019f9190612046565b60405180910390f35b6101c260048036038101906101bd91906121dd565b6104b8565b005b6101de60048036038101906101d99190611f78565b6105e6565b005b6101e86106f5565b6040516101f59190612046565b60405180910390f35b610218600480360381019061021391906121dd565b610769565b005b610234600480360381019061022f919061221d565b610c0f565b005b610250600480360381019061024b9190611f78565b610c57565b60405161025d9190612046565b60405180910390f35b61026e610cf8565b60405161027b9190612046565b60405180910390f35b60006102c96000602001600084815260200190815260200160002060000160069054906101000a900463ffffffff16426102be91906122a9565b63ffffffff16610da2565b9050919050565b600080600090505b6000602101600a0180549050811015610314576102f481610ded565b826102ff91906122dd565b9150808061030c90612333565b9150506102d8565b5090565b60005b8383905081101561035c5761034984848381811061033c5761033b61237b565b5b90506020020135836104b8565b808061035490612333565b91505061031b565b50505050565b8181905084849050146103aa576040517f08c379a00000000000000000000000000000000000000000000000000000000081526004016103a19061242d565b60405180910390fd5b60005b84849050811015610407576103f48585838181106103ce576103cd61237b565b5b905060200201358484848181106103e8576103e761237b565b5b90506020020135610769565b80806103ff90612333565b9150506103ad565b5050505050565b60006104666000602001600084815260200190815260200160002060000160069054906101000a900463ffffffff1663ffffffff1660008001600f0160049054906101000a900463ffffffff1663ffffffff1661109b565b801561047a57506000610478836110bd565b145b801561048f5750600061048c83610c57565b14155b9050919050565b600080602e01600501546000602e01600201546104b3919061244d565b905090565b816104c161120b565b73ffffffffffffffffffffffffffffffffffffffff166000602101600301600083815260200190815260200160002060009054906101000a900473ffffffffffffffffffffffffffffffffffffffff1673ffffffffffffffffffffffffffffffffffffffff1614610567576040517f08c379a000000000000000000000000000000000000000000000000000000000815260040161055e906124cd565b60405180910390fd5b826105718161040e565b6105b0576040517f08c379a00000000000000000000000000000000000000000000000000000000081526004016105a790612539565b60405180910390fd5b60006105bb85610c57565b905060006105c982866112c2565b90506105d58682610769565b6105de866105e6565b505050505050565b806105ef61120b565b73ffffffffffffffffffffffffffffffffffffffff166000602101600301600083815260200190815260200160002060009054906101000a900473ffffffffffffffffffffffffffffffffffffffff1673ffffffffffffffffffffffffffffffffffffffff1614610695576040517f08c379a000000000000000000000000000000000000000000000000000000000815260040161068c906124cd565b60405180910390fd5b8161069f8161040e565b6106de576040517f08c379a00000000000000000000000000000000000000000000000000000000081526004016106d590612539565b60405180910390fd5b6106f0836106eb85610c57565b6112fe565b505050565b60008061070061120b565b9050600061070d8261173b565b90506000805b825181101561075f5761073f8382815181106107325761073161237b565b5b6020026020010151610ded565b8261074a91906122dd565b9150808061075790612333565b915050610713565b5080935050505090565b8161077261120b565b73ffffffffffffffffffffffffffffffffffffffff166000602101600301600083815260200190815260200160002060009054906101000a900473ffffffffffffffffffffffffffffffffffffffff1673ffffffffffffffffffffffffffffffffffffffff1614610818576040517f08c379a000000000000000000000000000000000000000000000000000000000815260040161080f906124cd565b60405180910390fd5b82610822816118bf565b60008060000160000160018081111561083e5761083d611fa5565b5b6002811061084f5761084e61237b565b5b0160009054906101000a900473ffffffffffffffffffffffffffffffffffffffff1690506000806000016002019050600061088861120b565b9050610892611ee5565b600061089d89610c57565b9050808811156108e2576040517f08c379a00000000000000000000000000000000000000000000000000000000081526004016108d9906125a5565b60405180910390fd5b6108f38860008001601501546112c2565b8260e0018181525050878260400181815250508160e0015188610916919061244d565b8260600181815250508473ffffffffffffffffffffffffffffffffffffffff166323b872dd85600160068111156109505761094f611fa5565b5b600781106109615761096061237b565b5b0160009054906101000a900473ffffffffffffffffffffffffffffffffffffffff16866004600681111561099857610997611fa5565b5b600781106109a9576109a861237b565b5b0160009054906101000a900473ffffffffffffffffffffffffffffffffffffffff168560e001516040518463ffffffff1660e01b81526004016109ee93929190612606565b6020604051808303816000875af1158015610a0d573d6000803e3d6000fd5b505050506040513d601f19601f82011682018060405250810190610a319190612669565b508273ffffffffffffffffffffffffffffffffffffffff167f2a01595cddf097c90216094025db714da3f4e5bd8877b56ba86a24ecead8e5438360e00151604051610a7c9190612046565b60405180910390a28473ffffffffffffffffffffffffffffffffffffffff166323b872dd8560016006811115610ab557610ab4611fa5565b5b60078110610ac657610ac561237b565b5b0160009054906101000a900473ffffffffffffffffffffffffffffffffffffffff168660056006811115610afd57610afc611fa5565b5b60078110610b0e57610b0d61237b565b5b0160009054906101000a900473ffffffffffffffffffffffffffffffffffffffff1685606001516040518463ffffffff1660e01b8152600401610b5393929190612606565b6020604051808303816000875af1158015610b72573d6000803e3d6000fd5b505050506040513d601f19601f82011682018060405250810190610b969190612669565b508273ffffffffffffffffffffffffffffffffffffffff167f1449c6dd7851abc30abf37f57715f492010519147cc2652fbc38202c18a6ee9083604001518460600151604051610be7929190612696565b60405180910390a2610c0489848461190a9092919063ffffffff16565b505050505050505050565b60005b82829050811015610c5257610c3f838383818110610c3357610c3261237b565b5b905060200201356105e6565b8080610c4a90612333565b915050610c12565b505050565b600081610c63816118bf565b6000610c6e84610ded565b9050600060200160008581526020019081526020016000206001016006015481610c9891906122dd565b9050600060200160008581526020019081526020016000206001016000015481610cc2919061244d565b9050600060200160008581526020019081526020016000206001016002015481610cec919061244d565b90508092505050919050565b6000806038016000610d0861120b565b73ffffffffffffffffffffffffffffffffffffffff1673ffffffffffffffffffffffffffffffffffffffff1681526020019081526020016000206005015460006038016000610d5561120b565b73ffffffffffffffffffffffffffffffffffffffff1673ffffffffffffffffffffffffffffffffffffffff16815260200190815260200160002060020154610d9d919061244d565b905090565b6000600490506224ea00821015610db857600390505b621baf80821015610dc857600290505b62127500821015610dd857600190505b62093a80821015610de857600090505b919050565b600080600060200160008481526020019081526020016000206040518060c00160405290816000820160009054906101000a900460ff1660ff1660ff1681526020016000820160019054906101000a900460ff166002811115610e5357610e52611fa5565b5b6002811115610e6557610e64611fa5565b5b81526020016000820160029054906101000a900463ffffffff1663ffffffff1663ffffffff1681526020016000820160069054906101000a900463ffffffff1663ffffffff1663ffffffff16815260200160008201600a9054906101000a900463ffffffff1663ffffffff1663ffffffff1681526020016001820160405180610140016040529081600082015481526020016001820154815260200160028201548152602001600382015481526020016004820154815260200160058201548152602001600682015481526020016007820154815260200160088201548152602001600982015481525050815250509050600080601c01826000015160ff1681548110610f7557610f7461237b565b5b90600052602060002090600602016040518060a0016040529081600082015481526020016001820154815260200160028201600280602002604051908101604052809291908260028015610fde576020028201915b815481526020019060010190808311610fca575b50505050508152602001600482015481526020016005820160009054906101000a900460ff1660ff1660ff16815250509050600061103f82602001518460200151600281111561103157611030611fa5565b5b61199a90919063ffffffff16565b9050600061108d846040015163ffffffff164261105c919061244d565b846060015160008001601701548560008001600f0160049054906101000a900463ffffffff1663ffffffff16611a41565b905080945050505050919050565b6000428311806110b557508183426110b3919061244d565b115b905092915050565b6000806110c8611c0a565b9050600081602001600085815260200190815260200160002090504281600001600a9054906101000a900463ffffffff1663ffffffff161061110f57600092505050611206565b600081600001600a9054906101000a900463ffffffff164261113191906122a9565b905082600001600f0160009054906101000a900463ffffffff1663ffffffff168163ffffffff16116111695760009350505050611206565b60006111c18360000160019054906101000a900460ff1685601c018560000160009054906101000a900460ff1660ff16815481106111aa576111a961237b565b5b906000526020600020906006020160000154611c0f565b905060006111fb8285600001600a9054906101000a900463ffffffff1687600001600f0160009054906101000a900463ffffffff16611ca8565b905080955050505050505b919050565b60003073ffffffffffffffffffffffffffffffffffffffff1661122c611cbf565b73ffffffffffffffffffffffffffffffffffffffff16036112bb57600080368080601f016020809104026020016040519081016040528093929190818152602001838380828437600081840152601f19601f820116905080830192505050505050509050600080369050905073ffffffffffffffffffffffffffffffffffffffff8183015116925050506112bf565b3390505b90565b60008082116112d25760006112f6565b6064806112df91906126bf565b82846112eb91906126bf565b6112f59190612748565b5b905092915050565b6000806020016000848152602001908152602001600020905060008060000160000160018081111561133357611332611fa5565b5b600281106113445761134361237b565b5b0160009054906101000a900473ffffffffffffffffffffffffffffffffffffffff1690506000806000016002019050600084116113b6576040517f08c379a00000000000000000000000000000000000000000000000000000000081526004016113ad906127c5565b60405180910390fd5b6113be611ee5565b8481600001818152505060006113d387610284565b905061140f8260000151600080016010018360048111156113f7576113f6611fa5565b5b600581106114085761140761237b565b5b01546112c2565b8261010001818152505061142e826000015160008001601501546112c2565b8260e00181815250508160e001518261010001518360000151611451919061244d565b61145b919061244d565b826020018181525050600061146e61120b565b90508473ffffffffffffffffffffffffffffffffffffffff166323b872dd85600160068111156114a1576114a0611fa5565b5b600781106114b2576114b161237b565b5b0160009054906101000a900473ffffffffffffffffffffffffffffffffffffffff1686600460068111156114e9576114e8611fa5565b5b600781106114fa576114f961237b565b5b0160009054906101000a900473ffffffffffffffffffffffffffffffffffffffff168660e001516040518463ffffffff1660e01b815260040161153f93929190612606565b6020604051808303816000875af115801561155e573d6000803e3d6000fd5b505050506040513d601f19601f820116820180604052508101906115829190612669565b508073ffffffffffffffffffffffffffffffffffffffff167f2a01595cddf097c90216094025db714da3f4e5bd8877b56ba86a24ecead8e5438460e001516040516115cd9190612046565b60405180910390a28473ffffffffffffffffffffffffffffffffffffffff166323b872dd856001600681111561160657611605611fa5565b5b600781106116175761161661237b565b5b0160009054906101000a900473ffffffffffffffffffffffffffffffffffffffff168386602001516040518463ffffffff1660e01b815260040161165d93929190612606565b6020604051808303816000875af115801561167c573d6000803e3d6000fd5b505050506040513d601f19601f820116820180604052508101906116a09190612669565b50428660000160066101000a81548163ffffffff021916908363ffffffff1602179055508073ffffffffffffffffffffffffffffffffffffffff167f987d620f307ff6b94d58743cb7a7509f24071586a77759b77c2d4e29f75a2f9a84600001518560200151604051611714929190612696565b60405180910390a261173188828561190a9092919063ffffffff16565b5050505050505050565b606060008060210160040160008473ffffffffffffffffffffffffffffffffffffffff1673ffffffffffffffffffffffffffffffffffffffff16815260200190815260200160002054905060008167ffffffffffffffff8111156117a2576117a16127e5565b5b6040519080825280602002602001820160405280156117d05781602001602082028036833780820191505090505b50905060005b828110156118b45760008060210160080160008773ffffffffffffffffffffffffffffffffffffffff1673ffffffffffffffffffffffffffffffffffffffff168152602001908152602001600020600083815260200190815260200160002054905061184181611cc7565b611880576040517f08c379a000000000000000000000000000000000000000000000000000000000815260040161187790612860565b60405180910390fd5b808383815181106118945761189361237b565b5b6020026020010181815250505080806118ac90612333565b9150506117d6565b508092505050919050565b6118c881611cc7565b611907576040517f08c379a00000000000000000000000000000000000000000000000000000000081526004016118fe906128cc565b60405180910390fd5b50565b6000611914611c0a565b90506000816020016000858152602001908152602001600020905061193c82602e0186611d39565b6119498160010186611d39565b6119938260380160008573ffffffffffffffffffffffffffffffffffffffff1673ffffffffffffffffffffffffffffffffffffffff16815260200190815260200160002086611d39565b5050505050565b60006002808111156119af576119ae611fa5565b5b8360028111156119c2576119c1611fa5565b5b036119e957612710613a98836119d891906126bf565b6119e29190612748565b9050611a3b565b600160028111156119fd576119fc611fa5565b5b836002811115611a1057611a0f611fa5565b5b03611a37576127106130d483611a2691906126bf565b611a309190612748565b9050611a3b565b8190505b92915050565b600080611a4d85611e75565b9050600080600090506000805b819250606485606480611a6d91906126bf565b6064611a7991906126bf565b611a839190612748565b611a8d919061244d565b60648287611a9b9190612a1f565b83606480611aa991906126bf565b611ab39190612a1f565b6064611abf91906126bf565b611ac99190612748565b611ad3919061244d565b898c611adf9190612748565b611ae991906126bf565b611af39190612748565b91508080611b0090612333565b9150508a8288611b1091906126bf565b1115611a5a57600281611b23919061244d565b90508683611b3191906126bf565b92506000808414158015611b445750838c115b15611bdb57600182611b5691906122dd565b606480611b6391906126bf565b611b6d9190612a1f565b600183611b7a91906122dd565b87611b859190612a1f565b8a611b9091906126bf565b611b9a9190612748565b90508088858e611baa919061244d565b611bb49190612748565b611bbe91906126bf565b828c611bca91906126bf565b611bd491906122dd565b9450611bf8565b88905088888d611beb9190612748565b611bf591906126bf565b94505b84965050505050505095945050505050565b600090565b6000600280811115611c2457611c23611fa5565b5b836002811115611c3757611c36611fa5565b5b03611c5057600282611c499190612748565b9050611ca2565b60016002811115611c6457611c63611fa5565b5b836002811115611c7757611c76611fa5565b5b03611c9e57612710611d4c83611c8d91906126bf565b611c979190612748565b9050611ca2565b8190505b92915050565b6000611cb684844285611e96565b90509392505050565b600033905090565b60008073ffffffffffffffffffffffffffffffffffffffff166000602101600301600084815260200190815260200160002060009054906101000a900473ffffffffffffffffffffffffffffffffffffffff1673ffffffffffffffffffffffffffffffffffffffff1614159050919050565b8060000151826000016000828254611d5191906122dd565b925050819055508060200151826001016000828254611d7091906122dd565b925050819055508060400151826002016000828254611d8f91906122dd565b925050819055508060600151826003016000828254611dae91906122dd565b925050819055508060800151826004016000828254611dcd91906122dd565b925050819055508060a00151826005016000828254611dec91906122dd565b925050819055508060c00151826006016000828254611e0b91906122dd565b925050819055508060e00151826007016000828254611e2a91906122dd565b92505081905550806101000151826008016000828254611e4a91906122dd565b92505081905550806101200151826009016000828254611e6a91906122dd565b925050819055505050565b600081606480611e8591906126bf565b611e8f919061244d565b9050919050565b60008363ffffffff168363ffffffff1611611eb2576000611edb565b84828585611ec091906122a9565b611eca9190612a6a565b63ffffffff16611eda91906126bf565b5b9050949350505050565b604051806101400160405280600081526020016000815260200160008152602001600081526020016000815260200160008152602001600081526020016000815260200160008152602001600081525090565b600080fd5b600080fd5b6000819050919050565b611f5581611f42565b8114611f6057600080fd5b50565b600081359050611f7281611f4c565b92915050565b600060208284031215611f8e57611f8d611f38565b5b6000611f9c84828501611f63565b91505092915050565b7f4e487b7100000000000000000000000000000000000000000000000000000000600052602160045260246000fd5b60058110611fe557611fe4611fa5565b5b50565b6000819050611ff682611fd4565b919050565b600061200682611fe8565b9050919050565b61201681611ffb565b82525050565b6000602082019050612031600083018461200d565b92915050565b61204081611f42565b82525050565b600060208201905061205b6000830184612037565b92915050565b600080fd5b600080fd5b600080fd5b60008083601f84011261208657612085612061565b5b8235905067ffffffffffffffff8111156120a3576120a2612066565b5b6020830191508360208202830111156120bf576120be61206b565b5b9250929050565b6000806000604084860312156120df576120de611f38565b5b600084013567ffffffffffffffff8111156120fd576120fc611f3d565b5b61210986828701612070565b9350935050602061211c86828701611f63565b9150509250925092565b600080600080604085870312156121405761213f611f38565b5b600085013567ffffffffffffffff81111561215e5761215d611f3d565b5b61216a87828801612070565b9450945050602085013567ffffffffffffffff81111561218d5761218c611f3d565b5b61219987828801612070565b925092505092959194509250565b60008115159050919050565b6121bc816121a7565b82525050565b60006020820190506121d760008301846121b3565b92915050565b600080604083850312156121f4576121f3611f38565b5b600061220285828601611f63565b925050602061221385828601611f63565b9150509250929050565b6000806020838503121561223457612233611f38565b5b600083013567ffffffffffffffff81111561225257612251611f3d565b5b61225e85828601612070565b92509250509250929050565b600063ffffffff82169050919050565b7f4e487b7100000000000000000000000000000000000000000000000000000000600052601160045260246000fd5b60006122b48261226a565b91506122bf8361226a565b9250828210156122d2576122d161227a565b5b828203905092915050565b60006122e882611f42565b91506122f383611f42565b9250827fffffffffffffffffffffffffffffffffffffffffffffffffffffffffffffffff038211156123285761232761227a565b5b828201905092915050565b600061233e82611f42565b91507fffffffffffffffffffffffffffffffffffffffffffffffffffffffffffffffff82036123705761236f61227a565b5b600182019050919050565b7f4e487b7100000000000000000000000000000000000000000000000000000000600052603260045260246000fd5b600082825260208201905092915050565b7f4445464f526577617264733a5f746f6b656e644964732d5f616d6f756e74732d60008201527f696e636f6e73697374656e740000000000000000000000000000000000000000602082015250565b6000612417602c836123aa565b9150612422826123bb565b604082019050919050565b600060208201905081810360008301526124468161240a565b9050919050565b600061245882611f42565b915061246383611f42565b9250828210156124765761247561227a565b5b828203905092915050565b7f596f7520646f6e2774206f776e20746869732067656d00000000000000000000600082015250565b60006124b76016836123aa565b91506124c282612481565b602082019050919050565b600060208201905081810360008301526124e6816124aa565b9050919050565b7f4e6f7420636c61696d61626c6500000000000000000000000000000000000000600082015250565b6000612523600d836123aa565b915061252e826124ed565b602082019050919050565b6000602082019050818103600083015261255281612516565b9050919050565b7f4e6f7420656e6f75676820726577617264730000000000000000000000000000600082015250565b600061258f6012836123aa565b915061259a82612559565b602082019050919050565b600060208201905081810360008301526125be81612582565b9050919050565b600073ffffffffffffffffffffffffffffffffffffffff82169050919050565b60006125f0826125c5565b9050919050565b612600816125e5565b82525050565b600060608201905061261b60008301866125f7565b61262860208301856125f7565b6126356040830184612037565b949350505050565b612646816121a7565b811461265157600080fd5b50565b6000815190506126638161263d565b92915050565b60006020828403121561267f5761267e611f38565b5b600061268d84828501612654565b91505092915050565b60006040820190506126ab6000830185612037565b6126b86020830184612037565b9392505050565b60006126ca82611f42565b91506126d583611f42565b9250817fffffffffffffffffffffffffffffffffffffffffffffffffffffffffffffffff048311821515161561270e5761270d61227a565b5b828202905092915050565b7f4e487b7100000000000000000000000000000000000000000000000000000000600052601260045260246000fd5b600061275382611f42565b915061275e83611f42565b92508261276e5761276d612719565b5b828204905092915050565b7f4e6f20616d6f756e7420746f20636c61696d0000000000000000000000000000600082015250565b60006127af6012836123aa565b91506127ba82612779565b602082019050919050565b600060208201905081810360008301526127de816127a2565b9050919050565b7f4e487b7100000000000000000000000000000000000000000000000000000000600052604160045260246000fd5b7f412067656d20646f65736e277420657869737473000000000000000000000000600082015250565b600061284a6014836123aa565b915061285582612814565b602082019050919050565b600060208201905081810360008301526128798161283d565b9050919050565b7f4552433732313a20746f6b656e4964206973206e6f742076616c696400000000600082015250565b60006128b6601c836123aa565b91506128c182612880565b602082019050919050565b600060208201905081810360008301526128e5816128a9565b9050919050565b60008160011c9050919050565b6000808291508390505b60018511156129435780860481111561291f5761291e61227a565b5b600185161561292e5780820291505b808102905061293c856128ec565b9450612903565b94509492505050565b60008261295c5760019050612a18565b8161296a5760009050612a18565b8160018114612980576002811461298a576129b9565b6001915050612a18565b60ff84111561299c5761299b61227a565b5b8360020a9150848211156129b3576129b261227a565b5b50612a18565b5060208310610133831016604e8410600b84101617156129ee5782820a9050838111156129e9576129e861227a565b5b612a18565b6129fb84848460016128f9565b92509050818404811115612a1257612a1161227a565b5b81810290505b9392505050565b6000612a2a82611f42565b9150612a3583611f42565b9250612a627fffffffffffffffffffffffffffffffffffffffffffffffffffffffffffffffff848461294c565b905092915050565b6000612a758261226a565b9150612a808361226a565b925082612a9057612a8f612719565b5b82820490509291505056fea26469706673582212202d95e215c4d7818970821f1e234e0a2eb48ad0d0ccfae5807a5b5549c64500df64736f6c634300080f0033",
  "devdoc": {
    "author": "Decentralized Foundation Team",
    "kind": "dev",
    "methods": {
      "getCumulatedReward()": {
        "returns": {
          "_0": "amount in Dai (in wei precision)"
        }
      },
      "getCumulatedRewardAllUsers()": {
        "returns": {
          "allForAllTotalReward_": "amount in Dai (in wei precision)"
        }
      },
      "getRewardAmount(uint256)": {
        "params": {
          "_tokenId": "unique NFT gem id"
        },
        "returns": {
          "_0": "pre-tax unclaimed reward in DEFO,- before deducting tax or charity, ready to be claimed or put to vault"
        }
      },
      "getStakedGross()": {
        "returns": {
          "_0": "total amount in Dai (in wei precision)"
        }
      },
      "getStakedGrossAllUsers()": {
        "returns": {
          "_0": "total amount in Dai (in wei precision)"
        }
      },
      "getTaxTier(uint256)": {
        "params": {
          "_tokenId": "unique NFT gem id"
        },
        "returns": {
          "_0": "current tax tier of the gem might be configurable, now it's a number in the range starting from 0 when 0 means nothing is payed out since there's no rewards in the first week, 4 is no tax, 1,2,3 - % in between (currently 30,30,15)"
        }
      },
      "isClaimable(uint256)": {
        "params": {
          "_tokenId": "unique NFT gem id"
        },
        "returns": {
          "_0": "true or false, checks for the pending maintenance and time passed since last claim"
        }
      },
      "stakeAndClaim(uint256,uint256)": {
        "params": {
          "_percent": "percent of what to put into the vault, as usual uses PRECISION_MULTIPLIER (which is 100 by defualt, e.g. 500 for 5%)",
          "_tokenId": "unique NFT gem id"
        }
      }
    },
    "title": "ERC721Facet EIP-2535 Diamond Facet",
    "version": 1
  },
  "userdoc": {
    "kind": "user",
    "methods": {
      "getCumulatedReward()": {
        "notice": "amount of pre-taxed total reward earned by the sender for all time"
      },
      "getCumulatedRewardAllUsers()": {
        "notice": "amount of pre-taxed total reward earned by all the users for all time"
      },
      "getRewardAmount(uint256)": {
        "notice": "reward earned by the sender to the moment ready to be claimed or put to vault"
      },
      "getStakedGross()": {
        "notice": "amount of pre-taxed reward that are currently in the vault for the sender, so if put and then taken from the vault, it's not the return of the function"
      },
      "getStakedGrossAllUsers()": {
        "notice": "amount of pre-taxed reward that are currently in the vault for all users, it's not equal to the after-tax amount in the vault"
      },
      "getTaxTier(uint256)": {
        "notice": "gets tax tier for a gem"
      },
      "isClaimable(uint256)": {
        "notice": "checks if rewards can be claimed or not"
      },
      "stakeAndClaim(uint256,uint256)": {
        "notice": "This is used for the Vault Strategy, it puts the percent of all rewards to the vault and claims the rest"
      },
      "stakeReward(uint256,uint256)": {
        "notice": "todo decide whether move this to the vault facet or not - (to keep all staking/unstaking in one place), or to leave it here (this is a facet working with rewards  which can be either claimed or staked)"
      }
    },
    "notice": "The Contract uses diamond storage providing functionality of ERC721, ERC721Enumerable, ERC721Burnable, ERC721Pausable",
    "version": 1
  },
  "storageLayout": {
    "storage": [
      {
        "astId": 4283,
        "contract": "contracts/facets/RewardsFacet.sol:RewardsFacet",
        "label": "s",
        "offset": 0,
        "slot": "0",
        "type": "t_struct(AppStorage)4523_storage"
      }
    ],
    "types": {
      "t_address": {
        "encoding": "inplace",
        "label": "address",
        "numberOfBytes": "20"
      },
      "t_array(t_address)7_storage": {
        "base": "t_address",
        "encoding": "inplace",
        "label": "address[7]",
        "numberOfBytes": "224"
      },
      "t_array(t_array(t_uint256)3_storage)2_storage": {
        "base": "t_array(t_uint256)3_storage",
        "encoding": "inplace",
        "label": "uint256[3][2]",
        "numberOfBytes": "192"
      },
      "t_array(t_contract(IERC20)737)2_storage": {
        "base": "t_contract(IERC20)737",
        "encoding": "inplace",
        "label": "contract IERC20[2]",
        "numberOfBytes": "64"
      },
      "t_array(t_struct(GemTypeConfig)4429_storage)dyn_storage": {
        "base": "t_struct(GemTypeConfig)4429_storage",
        "encoding": "dynamic_array",
        "label": "struct GemTypeConfig[]",
        "numberOfBytes": "32"
      },
      "t_array(t_struct(GemTypeMintWindow)4434_storage)dyn_storage": {
        "base": "t_struct(GemTypeMintWindow)4434_storage",
        "encoding": "dynamic_array",
        "label": "struct GemTypeMintWindow[]",
        "numberOfBytes": "32"
      },
      "t_array(t_uint256)2_storage": {
        "base": "t_uint256",
        "encoding": "inplace",
        "label": "uint256[2]",
        "numberOfBytes": "64"
      },
      "t_array(t_uint256)3_storage": {
        "base": "t_uint256",
        "encoding": "inplace",
        "label": "uint256[3]",
        "numberOfBytes": "96"
      },
      "t_array(t_uint256)5_storage": {
        "base": "t_uint256",
        "encoding": "inplace",
        "label": "uint256[5]",
        "numberOfBytes": "160"
      },
      "t_array(t_uint256)dyn_storage": {
        "base": "t_uint256",
        "encoding": "dynamic_array",
        "label": "uint256[]",
        "numberOfBytes": "32"
      },
      "t_bool": {
        "encoding": "inplace",
        "label": "bool",
        "numberOfBytes": "1"
      },
      "t_contract(IERC20)737": {
        "encoding": "inplace",
        "label": "contract IERC20",
        "numberOfBytes": "20"
      },
      "t_enum(Booster)4447": {
        "encoding": "inplace",
        "label": "enum Booster",
        "numberOfBytes": "1"
      },
      "t_mapping(t_address,t_bool)": {
        "encoding": "mapping",
        "key": "t_address",
        "label": "mapping(address => bool)",
        "numberOfBytes": "32",
        "value": "t_bool"
      },
      "t_mapping(t_address,t_enum(Booster)4447)": {
        "encoding": "mapping",
        "key": "t_address",
        "label": "mapping(address => enum Booster)",
        "numberOfBytes": "32",
        "value": "t_enum(Booster)4447"
      },
      "t_mapping(t_address,t_mapping(t_address,t_bool))": {
        "encoding": "mapping",
        "key": "t_address",
        "label": "mapping(address => mapping(address => bool))",
        "numberOfBytes": "32",
        "value": "t_mapping(t_address,t_bool)"
      },
      "t_mapping(t_address,t_mapping(t_uint256,t_uint256))": {
        "encoding": "mapping",
        "key": "t_address",
        "label": "mapping(address => mapping(uint256 => uint256))",
        "numberOfBytes": "32",
        "value": "t_mapping(t_uint256,t_uint256)"
      },
      "t_mapping(t_address,t_struct(Fi)4468_storage)": {
        "encoding": "mapping",
        "key": "t_address",
        "label": "mapping(address => struct Fi)",
        "numberOfBytes": "32",
        "value": "t_struct(Fi)4468_storage"
      },
      "t_mapping(t_address,t_uint256)": {
        "encoding": "mapping",
        "key": "t_address",
        "label": "mapping(address => uint256)",
        "numberOfBytes": "32",
        "value": "t_uint256"
      },
      "t_mapping(t_address,t_uint8)": {
        "encoding": "mapping",
        "key": "t_address",
        "label": "mapping(address => uint8)",
        "numberOfBytes": "32",
        "value": "t_uint8"
      },
      "t_mapping(t_uint256,t_address)": {
        "encoding": "mapping",
        "key": "t_uint256",
        "label": "mapping(uint256 => address)",
        "numberOfBytes": "32",
        "value": "t_address"
      },
      "t_mapping(t_uint256,t_struct(Gem)4483_storage)": {
        "encoding": "mapping",
        "key": "t_uint256",
        "label": "mapping(uint256 => struct Gem)",
        "numberOfBytes": "32",
        "value": "t_struct(Gem)4483_storage"
      },
      "t_mapping(t_uint256,t_uint256)": {
        "encoding": "mapping",
        "key": "t_uint256",
        "label": "mapping(uint256 => uint256)",
        "numberOfBytes": "32",
        "value": "t_uint256"
      },
      "t_string_storage": {
        "encoding": "bytes",
        "label": "string",
        "numberOfBytes": "32"
      },
      "t_struct(AppStorage)4523_storage": {
        "encoding": "inplace",
        "label": "struct AppStorage",
        "members": [
          {
            "astId": 4486,
            "contract": "contracts/facets/RewardsFacet.sol:RewardsFacet",
            "label": "config",
            "offset": 0,
            "slot": "0",
            "type": "t_struct(ProtocolConfig)4416_storage"
          },
          {
            "astId": 4490,
            "contract": "contracts/facets/RewardsFacet.sol:RewardsFacet",
            "label": "gemTypes",
            "offset": 0,
            "slot": "28",
            "type": "t_array(t_struct(GemTypeConfig)4429_storage)dyn_storage"
          },
          {
            "astId": 4494,
            "contract": "contracts/facets/RewardsFacet.sol:RewardsFacet",
            "label": "gemTypesMintWindows",
            "offset": 0,
            "slot": "29",
            "type": "t_array(t_struct(GemTypeMintWindow)4434_storage)dyn_storage"
          },
          {
            "astId": 4497,
            "contract": "contracts/facets/RewardsFacet.sol:RewardsFacet",
            "label": "defoTokenLimitWindow",
            "offset": 0,
            "slot": "30",
            "type": "t_struct(DEFOTokenLimitWindow)4443_storage"
          },
          {
            "astId": 4502,
            "contract": "contracts/facets/RewardsFacet.sol:RewardsFacet",
            "label": "gems",
            "offset": 0,
            "slot": "32",
            "type": "t_mapping(t_uint256,t_struct(Gem)4483_storage)"
          },
          {
            "astId": 4505,
            "contract": "contracts/facets/RewardsFacet.sol:RewardsFacet",
            "label": "nft",
            "offset": 0,
            "slot": "33",
            "type": "t_struct(ERC721Storage)4351_storage"
          },
          {
            "astId": 4508,
            "contract": "contracts/facets/RewardsFacet.sol:RewardsFacet",
            "label": "total",
            "offset": 0,
            "slot": "46",
            "type": "t_struct(Fi)4468_storage"
          },
          {
            "astId": 4513,
            "contract": "contracts/facets/RewardsFacet.sol:RewardsFacet",
            "label": "usersFi",
            "offset": 0,
            "slot": "56",
            "type": "t_mapping(t_address,t_struct(Fi)4468_storage)"
          },
          {
            "astId": 4517,
            "contract": "contracts/facets/RewardsFacet.sol:RewardsFacet",
            "label": "usersNextGemTypeToBoost",
            "offset": 0,
            "slot": "57",
            "type": "t_mapping(t_address,t_uint8)"
          },
          {
            "astId": 4522,
            "contract": "contracts/facets/RewardsFacet.sol:RewardsFacet",
            "label": "usersNextGemBooster",
            "offset": 0,
            "slot": "58",
            "type": "t_mapping(t_address,t_enum(Booster)4447)"
          }
        ],
        "numberOfBytes": "1888"
      },
      "t_struct(Counter)2737_storage": {
        "encoding": "inplace",
        "label": "struct Counters.Counter",
        "members": [
          {
            "astId": 2736,
            "contract": "contracts/facets/RewardsFacet.sol:RewardsFacet",
            "label": "_value",
            "offset": 0,
            "slot": "0",
            "type": "t_uint256"
          }
        ],
        "numberOfBytes": "32"
      },
      "t_struct(DEFOTokenLimitWindow)4443_storage": {
        "encoding": "inplace",
        "label": "struct DEFOTokenLimitWindow",
        "members": [
          {
            "astId": 4438,
            "contract": "contracts/facets/RewardsFacet.sol:RewardsFacet",
            "label": "tokensSold",
            "offset": 0,
            "slot": "0",
            "type": "t_mapping(t_address,t_uint256)"
          },
          {
            "astId": 4442,
            "contract": "contracts/facets/RewardsFacet.sol:RewardsFacet",
            "label": "timeOfLastSale",
            "offset": 0,
            "slot": "1",
            "type": "t_mapping(t_address,t_uint256)"
          }
        ],
        "numberOfBytes": "64"
      },
      "t_struct(DefoTokenLimitConfig)4375_storage": {
        "encoding": "inplace",
        "label": "struct DefoTokenLimitConfig",
        "members": [
          {
            "astId": 4370,
            "contract": "contracts/facets/RewardsFacet.sol:RewardsFacet",
            "label": "saleLimitPeriod",
            "offset": 0,
            "slot": "0",
            "type": "t_uint256"
          },
          {
            "astId": 4372,
            "contract": "contracts/facets/RewardsFacet.sol:RewardsFacet",
            "label": "saleLimitAmount",
            "offset": 0,
            "slot": "1",
            "type": "t_uint256"
          },
          {
            "astId": 4374,
            "contract": "contracts/facets/RewardsFacet.sol:RewardsFacet",
            "label": "limitByReward",
            "offset": 0,
            "slot": "2",
            "type": "t_bool"
          }
        ],
        "numberOfBytes": "96"
      },
      "t_struct(ERC721Storage)4351_storage": {
        "encoding": "inplace",
        "label": "struct ERC721Storage",
        "members": [
          {
            "astId": 4306,
            "contract": "contracts/facets/RewardsFacet.sol:RewardsFacet",
            "label": "name",
            "offset": 0,
            "slot": "0",
            "type": "t_string_storage"
          },
          {
            "astId": 4308,
            "contract": "contracts/facets/RewardsFacet.sol:RewardsFacet",
            "label": "symbol",
            "offset": 0,
            "slot": "1",
            "type": "t_string_storage"
          },
          {
            "astId": 4311,
            "contract": "contracts/facets/RewardsFacet.sol:RewardsFacet",
            "label": "tokenIdTracker",
            "offset": 0,
            "slot": "2",
            "type": "t_struct(Counter)2737_storage"
          },
          {
            "astId": 4315,
            "contract": "contracts/facets/RewardsFacet.sol:RewardsFacet",
            "label": "owners",
            "offset": 0,
            "slot": "3",
            "type": "t_mapping(t_uint256,t_address)"
          },
          {
            "astId": 4319,
            "contract": "contracts/facets/RewardsFacet.sol:RewardsFacet",
            "label": "balances",
            "offset": 0,
            "slot": "4",
            "type": "t_mapping(t_address,t_uint256)"
          },
          {
            "astId": 4323,
            "contract": "contracts/facets/RewardsFacet.sol:RewardsFacet",
            "label": "tokenApprovals",
            "offset": 0,
            "slot": "5",
            "type": "t_mapping(t_uint256,t_address)"
          },
          {
            "astId": 4329,
            "contract": "contracts/facets/RewardsFacet.sol:RewardsFacet",
            "label": "operatorApprovals",
            "offset": 0,
            "slot": "6",
            "type": "t_mapping(t_address,t_mapping(t_address,t_bool))"
          },
          {
            "astId": 4331,
            "contract": "contracts/facets/RewardsFacet.sol:RewardsFacet",
            "label": "baseURI",
            "offset": 0,
            "slot": "7",
            "type": "t_string_storage"
          },
          {
            "astId": 4337,
            "contract": "contracts/facets/RewardsFacet.sol:RewardsFacet",
            "label": "ownedTokens",
            "offset": 0,
            "slot": "8",
            "type": "t_mapping(t_address,t_mapping(t_uint256,t_uint256))"
          },
          {
            "astId": 4341,
            "contract": "contracts/facets/RewardsFacet.sol:RewardsFacet",
            "label": "ownedTokensIndex",
            "offset": 0,
            "slot": "9",
            "type": "t_mapping(t_uint256,t_uint256)"
          },
          {
            "astId": 4344,
            "contract": "contracts/facets/RewardsFacet.sol:RewardsFacet",
            "label": "allTokens",
            "offset": 0,
            "slot": "10",
            "type": "t_array(t_uint256)dyn_storage"
          },
          {
            "astId": 4348,
            "contract": "contracts/facets/RewardsFacet.sol:RewardsFacet",
            "label": "allTokensIndex",
            "offset": 0,
            "slot": "11",
            "type": "t_mapping(t_uint256,t_uint256)"
          },
          {
            "astId": 4350,
            "contract": "contracts/facets/RewardsFacet.sol:RewardsFacet",
            "label": "init",
            "offset": 0,
            "slot": "12",
            "type": "t_bool"
          }
        ],
        "numberOfBytes": "416"
      },
      "t_struct(Fi)4468_storage": {
        "encoding": "inplace",
        "label": "struct Fi",
        "members": [
          {
            "astId": 4449,
            "contract": "contracts/facets/RewardsFacet.sol:RewardsFacet",
            "label": "claimedGross",
            "offset": 0,
            "slot": "0",
            "type": "t_uint256"
          },
          {
            "astId": 4451,
            "contract": "contracts/facets/RewardsFacet.sol:RewardsFacet",
            "label": "claimedNet",
            "offset": 0,
            "slot": "1",
            "type": "t_uint256"
          },
          {
            "astId": 4453,
            "contract": "contracts/facets/RewardsFacet.sol:RewardsFacet",
            "label": "stakedGross",
            "offset": 0,
            "slot": "2",
            "type": "t_uint256"
          },
          {
            "astId": 4455,
            "contract": "contracts/facets/RewardsFacet.sol:RewardsFacet",
            "label": "stakedNet",
            "offset": 0,
            "slot": "3",
            "type": "t_uint256"
          },
          {
            "astId": 4457,
            "contract": "contracts/facets/RewardsFacet.sol:RewardsFacet",
            "label": "unStakedGross",
            "offset": 0,
            "slot": "4",
            "type": "t_uint256"
          },
          {
            "astId": 4459,
            "contract": "contracts/facets/RewardsFacet.sol:RewardsFacet",
            "label": "unStakedGrossUp",
            "offset": 0,
            "slot": "5",
            "type": "t_uint256"
          },
          {
            "astId": 4461,
            "contract": "contracts/facets/RewardsFacet.sol:RewardsFacet",
            "label": "unStakedNet",
            "offset": 0,
            "slot": "6",
            "type": "t_uint256"
          },
          {
            "astId": 4463,
            "contract": "contracts/facets/RewardsFacet.sol:RewardsFacet",
            "label": "donated",
            "offset": 0,
            "slot": "7",
            "type": "t_uint256"
          },
          {
            "astId": 4465,
            "contract": "contracts/facets/RewardsFacet.sol:RewardsFacet",
            "label": "claimTaxPaid",
            "offset": 0,
            "slot": "8",
            "type": "t_uint256"
          },
          {
            "astId": 4467,
            "contract": "contracts/facets/RewardsFacet.sol:RewardsFacet",
            "label": "vaultTaxPaid",
            "offset": 0,
            "slot": "9",
            "type": "t_uint256"
          }
        ],
        "numberOfBytes": "320"
      },
      "t_struct(Gem)4483_storage": {
        "encoding": "inplace",
        "label": "struct Gem",
        "members": [
          {
            "astId": 4470,
            "contract": "contracts/facets/RewardsFacet.sol:RewardsFacet",
            "label": "gemTypeId",
            "offset": 0,
            "slot": "0",
            "type": "t_uint8"
          },
          {
            "astId": 4473,
            "contract": "contracts/facets/RewardsFacet.sol:RewardsFacet",
            "label": "booster",
            "offset": 1,
            "slot": "0",
            "type": "t_enum(Booster)4447"
          },
          {
            "astId": 4475,
            "contract": "contracts/facets/RewardsFacet.sol:RewardsFacet",
            "label": "mintTime",
            "offset": 2,
            "slot": "0",
            "type": "t_uint32"
          },
          {
            "astId": 4477,
            "contract": "contracts/facets/RewardsFacet.sol:RewardsFacet",
            "label": "lastRewardWithdrawalTime",
            "offset": 6,
            "slot": "0",
            "type": "t_uint32"
          },
          {
            "astId": 4479,
            "contract": "contracts/facets/RewardsFacet.sol:RewardsFacet",
            "label": "lastMaintenanceTime",
            "offset": 10,
            "slot": "0",
            "type": "t_uint32"
          },
          {
            "astId": 4482,
            "contract": "contracts/facets/RewardsFacet.sol:RewardsFacet",
            "label": "fi",
            "offset": 0,
            "slot": "1",
            "type": "t_struct(Fi)4468_storage"
          }
        ],
        "numberOfBytes": "352"
      },
      "t_struct(GemTypeConfig)4429_storage": {
        "encoding": "inplace",
        "label": "struct GemTypeConfig",
        "members": [
          {
            "astId": 4418,
            "contract": "contracts/facets/RewardsFacet.sol:RewardsFacet",
            "label": "maintenanceFeeDai",
            "offset": 0,
            "slot": "0",
            "type": "t_uint256"
          },
          {
            "astId": 4420,
            "contract": "contracts/facets/RewardsFacet.sol:RewardsFacet",
            "label": "rewardAmountDefo",
            "offset": 0,
            "slot": "1",
            "type": "t_uint256"
          },
          {
            "astId": 4424,
            "contract": "contracts/facets/RewardsFacet.sol:RewardsFacet",
            "label": "price",
            "offset": 0,
            "slot": "2",
            "type": "t_array(t_uint256)2_storage"
          },
          {
            "astId": 4426,
            "contract": "contracts/facets/RewardsFacet.sol:RewardsFacet",
            "label": "taperRewardsThresholdDefo",
            "offset": 0,
            "slot": "4",
            "type": "t_uint256"
          },
          {
            "astId": 4428,
            "contract": "contracts/facets/RewardsFacet.sol:RewardsFacet",
            "label": "maxMintsPerLimitWindow",
            "offset": 0,
            "slot": "5",
            "type": "t_uint8"
          }
        ],
        "numberOfBytes": "192"
      },
      "t_struct(GemTypeMintWindow)4434_storage": {
        "encoding": "inplace",
        "label": "struct GemTypeMintWindow",
        "members": [
          {
            "astId": 4431,
            "contract": "contracts/facets/RewardsFacet.sol:RewardsFacet",
            "label": "mintCount",
            "offset": 0,
            "slot": "0",
            "type": "t_uint256"
          },
          {
            "astId": 4433,
            "contract": "contracts/facets/RewardsFacet.sol:RewardsFacet",
            "label": "endOfMintLimitWindow",
            "offset": 0,
            "slot": "1",
            "type": "t_uint32"
          }
        ],
        "numberOfBytes": "64"
      },
      "t_struct(ProtocolConfig)4416_storage": {
        "encoding": "inplace",
        "label": "struct ProtocolConfig",
        "members": [
          {
            "astId": 4380,
            "contract": "contracts/facets/RewardsFacet.sol:RewardsFacet",
            "label": "paymentTokens",
            "offset": 0,
            "slot": "0",
            "type": "t_array(t_contract(IERC20)737)2_storage"
          },
          {
            "astId": 4384,
            "contract": "contracts/facets/RewardsFacet.sol:RewardsFacet",
            "label": "wallets",
            "offset": 0,
            "slot": "2",
            "type": "t_array(t_address)7_storage"
          },
          {
            "astId": 4390,
            "contract": "contracts/facets/RewardsFacet.sol:RewardsFacet",
            "label": "incomeDistributionOnMint",
            "offset": 0,
            "slot": "9",
            "type": "t_array(t_array(t_uint256)3_storage)2_storage"
          },
          {
            "astId": 4392,
            "contract": "contracts/facets/RewardsFacet.sol:RewardsFacet",
            "label": "maintenancePeriod",
            "offset": 0,
            "slot": "15",
            "type": "t_uint32"
          },
          {
            "astId": 4394,
            "contract": "contracts/facets/RewardsFacet.sol:RewardsFacet",
            "label": "rewardPeriod",
            "offset": 4,
            "slot": "15",
            "type": "t_uint32"
          },
          {
            "astId": 4396,
            "contract": "contracts/facets/RewardsFacet.sol:RewardsFacet",
            "label": "taxScaleSinceLastClaimPeriod",
            "offset": 8,
            "slot": "15",
            "type": "t_uint32"
          },
          {
            "astId": 4400,
            "contract": "contracts/facets/RewardsFacet.sol:RewardsFacet",
            "label": "taxRates",
            "offset": 0,
            "slot": "16",
            "type": "t_array(t_uint256)5_storage"
          },
          {
            "astId": 4402,
            "contract": "contracts/facets/RewardsFacet.sol:RewardsFacet",
            "label": "charityContributionRate",
            "offset": 0,
            "slot": "21",
            "type": "t_uint256"
          },
          {
            "astId": 4404,
            "contract": "contracts/facets/RewardsFacet.sol:RewardsFacet",
            "label": "vaultWithdrawalTaxRate",
            "offset": 0,
            "slot": "22",
            "type": "t_uint256"
          },
          {
            "astId": 4406,
            "contract": "contracts/facets/RewardsFacet.sol:RewardsFacet",
            "label": "taperRate",
            "offset": 0,
            "slot": "23",
            "type": "t_uint256"
          },
          {
            "astId": 4408,
            "contract": "contracts/facets/RewardsFacet.sol:RewardsFacet",
            "label": "mintLock",
            "offset": 0,
            "slot": "24",
            "type": "t_bool"
          },
          {
            "astId": 4410,
            "contract": "contracts/facets/RewardsFacet.sol:RewardsFacet",
            "label": "transferLock",
            "offset": 1,
            "slot": "24",
            "type": "t_bool"
          },
          {
            "astId": 4412,
            "contract": "contracts/facets/RewardsFacet.sol:RewardsFacet",
            "label": "mintLimitWindow",
            "offset": 2,
            "slot": "24",
            "type": "t_uint32"
          },
          {
            "astId": 4415,
            "contract": "contracts/facets/RewardsFacet.sol:RewardsFacet",
            "label": "defoTokenLimitConfig",
            "offset": 0,
            "slot": "25",
            "type": "t_struct(DefoTokenLimitConfig)4375_storage"
          }
        ],
        "numberOfBytes": "896"
      },
      "t_uint256": {
        "encoding": "inplace",
        "label": "uint256",
        "numberOfBytes": "32"
      },
      "t_uint32": {
        "encoding": "inplace",
        "label": "uint32",
        "numberOfBytes": "4"
      },
      "t_uint8": {
        "encoding": "inplace",
        "label": "uint8",
        "numberOfBytes": "1"
      }
    }
  }
}