{
  "address": "0x42Cd5fFc8420D0450e8041e57C6C8cafDdB1126b",
  "abi": [
    {
      "inputs": [
        {
          "internalType": "address",
          "name": "DAI_address",
          "type": "address"
        }
      ],
      "stateMutability": "nonpayable",
      "type": "constructor"
    },
    {
      "anonymous": false,
      "inputs": [
        {
          "indexed": true,
          "internalType": "address",
          "name": "owner",
          "type": "address"
        },
        {
          "indexed": true,
          "internalType": "address",
          "name": "approved",
          "type": "address"
        },
        {
          "indexed": true,
          "internalType": "uint256",
          "name": "tokenId",
          "type": "uint256"
        }
      ],
      "name": "Approval",
      "type": "event"
    },
    {
      "anonymous": false,
      "inputs": [
        {
          "indexed": true,
          "internalType": "address",
          "name": "owner",
          "type": "address"
        },
        {
          "indexed": true,
          "internalType": "address",
          "name": "operator",
          "type": "address"
        },
        {
          "indexed": false,
          "internalType": "bool",
          "name": "approved",
          "type": "bool"
        }
      ],
      "name": "ApprovalForAll",
      "type": "event"
    },
    {
      "anonymous": false,
      "inputs": [
        {
          "indexed": true,
          "internalType": "address",
          "name": "previousOwner",
          "type": "address"
        },
        {
          "indexed": true,
          "internalType": "address",
          "name": "newOwner",
          "type": "address"
        }
      ],
      "name": "OwnershipTransferred",
      "type": "event"
    },
    {
      "anonymous": false,
      "inputs": [
        {
          "indexed": true,
          "internalType": "address",
          "name": "from",
          "type": "address"
        },
        {
          "indexed": true,
          "internalType": "address",
          "name": "to",
          "type": "address"
        },
        {
          "indexed": true,
          "internalType": "uint256",
          "name": "tokenId",
          "type": "uint256"
        }
      ],
      "name": "Transfer",
      "type": "event"
    },
    {
      "inputs": [],
      "name": "activeSale",
      "outputs": [
        {
          "internalType": "bool",
          "name": "",
          "type": "bool"
        }
      ],
      "stateMutability": "view",
      "type": "function"
    },
    {
      "inputs": [
        {
          "internalType": "address",
          "name": "_whitelistedAddress",
          "type": "address"
        }
      ],
      "name": "addToWhitelist",
      "outputs": [],
      "stateMutability": "nonpayable",
      "type": "function"
    },
    {
      "inputs": [
        {
          "internalType": "address",
          "name": "to",
          "type": "address"
        },
        {
          "internalType": "uint256",
          "name": "tokenId",
          "type": "uint256"
        }
      ],
      "name": "approve",
      "outputs": [],
      "stateMutability": "nonpayable",
      "type": "function"
    },
    {
      "inputs": [
        {
          "internalType": "address",
          "name": "owner",
          "type": "address"
        }
      ],
      "name": "balanceOf",
      "outputs": [
        {
          "internalType": "uint256",
          "name": "",
          "type": "uint256"
        }
      ],
      "stateMutability": "view",
      "type": "function"
    },
    {
      "inputs": [
        {
          "internalType": "uint256",
          "name": "tokenId",
          "type": "uint256"
        }
      ],
      "name": "getApproved",
      "outputs": [
        {
          "internalType": "address",
          "name": "",
          "type": "address"
        }
      ],
      "stateMutability": "view",
      "type": "function"
    },
    {
      "inputs": [],
      "name": "getPrice",
      "outputs": [
        {
          "internalType": "uint256",
          "name": "",
          "type": "uint256"
        }
      ],
      "stateMutability": "view",
      "type": "function"
    },
    {
      "inputs": [],
      "name": "giveAwayMint",
      "outputs": [],
      "stateMutability": "nonpayable",
      "type": "function"
    },
    {
      "inputs": [
        {
          "internalType": "address",
          "name": "owner",
          "type": "address"
        },
        {
          "internalType": "address",
          "name": "operator",
          "type": "address"
        }
      ],
      "name": "isApprovedForAll",
      "outputs": [
        {
          "internalType": "bool",
          "name": "",
          "type": "bool"
        }
      ],
      "stateMutability": "view",
      "type": "function"
    },
    {
      "inputs": [],
      "name": "maxNodesPerWallet",
      "outputs": [
        {
          "internalType": "uint64",
          "name": "",
          "type": "uint64"
        }
      ],
      "stateMutability": "view",
      "type": "function"
    },
    {
      "inputs": [],
      "name": "maxTotalSapphireNodes",
      "outputs": [
        {
          "internalType": "uint64",
          "name": "",
          "type": "uint64"
        }
      ],
      "stateMutability": "view",
      "type": "function"
    },
    {
      "inputs": [],
      "name": "mintNode",
      "outputs": [],
      "stateMutability": "payable",
      "type": "function"
    },
    {
      "inputs": [],
      "name": "name",
      "outputs": [
        {
          "internalType": "string",
          "name": "",
          "type": "string"
        }
      ],
      "stateMutability": "view",
      "type": "function"
    },
    {
      "inputs": [],
      "name": "owner",
      "outputs": [
        {
          "internalType": "address",
          "name": "",
          "type": "address"
        }
      ],
      "stateMutability": "view",
      "type": "function"
    },
    {
      "inputs": [
        {
          "internalType": "uint256",
          "name": "tokenId",
          "type": "uint256"
        }
      ],
      "name": "ownerOf",
      "outputs": [
        {
          "internalType": "address",
          "name": "",
          "type": "address"
        }
      ],
      "stateMutability": "view",
      "type": "function"
    },
    {
      "inputs": [],
      "name": "renounceOwnership",
      "outputs": [],
      "stateMutability": "nonpayable",
      "type": "function"
    },
    {
      "inputs": [
        {
          "internalType": "address",
          "name": "from",
          "type": "address"
        },
        {
          "internalType": "address",
          "name": "to",
          "type": "address"
        },
        {
          "internalType": "uint256",
          "name": "tokenId",
          "type": "uint256"
        }
      ],
      "name": "safeTransferFrom",
      "outputs": [],
      "stateMutability": "nonpayable",
      "type": "function"
    },
    {
      "inputs": [
        {
          "internalType": "address",
          "name": "from",
          "type": "address"
        },
        {
          "internalType": "address",
          "name": "to",
          "type": "address"
        },
        {
          "internalType": "uint256",
          "name": "tokenId",
          "type": "uint256"
        },
        {
          "internalType": "bytes",
          "name": "_data",
          "type": "bytes"
        }
      ],
      "name": "safeTransferFrom",
      "outputs": [],
      "stateMutability": "nonpayable",
      "type": "function"
    },
    {
      "inputs": [],
      "name": "sapphireNodePrice",
      "outputs": [
        {
          "internalType": "uint256",
          "name": "",
          "type": "uint256"
        }
      ],
      "stateMutability": "view",
      "type": "function"
    },
    {
      "inputs": [
        {
          "internalType": "address",
          "name": "operator",
          "type": "address"
        },
        {
          "internalType": "bool",
          "name": "approved",
          "type": "bool"
        }
      ],
      "name": "setApprovalForAll",
      "outputs": [],
      "stateMutability": "nonpayable",
      "type": "function"
    },
    {
      "inputs": [
        {
          "internalType": "string",
          "name": "_tokenBaseURI",
          "type": "string"
        }
      ],
      "name": "setBaseURI",
      "outputs": [],
      "stateMutability": "nonpayable",
      "type": "function"
    },
    {
      "inputs": [
        {
          "internalType": "uint64",
          "name": "_newAmount",
          "type": "uint64"
        }
      ],
      "name": "setMaxPerWallet",
      "outputs": [],
      "stateMutability": "nonpayable",
      "type": "function"
    },
    {
      "inputs": [
        {
          "internalType": "uint64",
          "name": "_newNodeAmount",
          "type": "uint64"
        }
      ],
      "name": "setMaxTotalSapphireNodes",
      "outputs": [],
      "stateMutability": "nonpayable",
      "type": "function"
    },
    {
      "inputs": [],
      "name": "setSaleState",
      "outputs": [],
      "stateMutability": "nonpayable",
      "type": "function"
    },
    {
      "inputs": [],
      "name": "setTransferLock",
      "outputs": [],
      "stateMutability": "nonpayable",
      "type": "function"
    },
    {
      "inputs": [
        {
          "internalType": "bytes4",
          "name": "interfaceId",
          "type": "bytes4"
        }
      ],
      "name": "supportsInterface",
      "outputs": [
        {
          "internalType": "bool",
          "name": "",
          "type": "bool"
        }
      ],
      "stateMutability": "view",
      "type": "function"
    },
    {
      "inputs": [],
      "name": "symbol",
      "outputs": [
        {
          "internalType": "string",
          "name": "",
          "type": "string"
        }
      ],
      "stateMutability": "view",
      "type": "function"
    },
    {
      "inputs": [
        {
          "internalType": "uint256",
          "name": "index",
          "type": "uint256"
        }
      ],
      "name": "tokenByIndex",
      "outputs": [
        {
          "internalType": "uint256",
          "name": "",
          "type": "uint256"
        }
      ],
      "stateMutability": "view",
      "type": "function"
    },
    {
      "inputs": [
        {
          "internalType": "address",
          "name": "owner",
          "type": "address"
        },
        {
          "internalType": "uint256",
          "name": "index",
          "type": "uint256"
        }
      ],
      "name": "tokenOfOwnerByIndex",
      "outputs": [
        {
          "internalType": "uint256",
          "name": "",
          "type": "uint256"
        }
      ],
      "stateMutability": "view",
      "type": "function"
    },
    {
      "inputs": [
        {
          "internalType": "uint256",
          "name": "tokenId",
          "type": "uint256"
        }
      ],
      "name": "tokenURI",
      "outputs": [
        {
          "internalType": "string",
          "name": "",
          "type": "string"
        }
      ],
      "stateMutability": "view",
      "type": "function"
    },
    {
      "inputs": [],
      "name": "totalSupply",
      "outputs": [
        {
          "internalType": "uint256",
          "name": "",
          "type": "uint256"
        }
      ],
      "stateMutability": "view",
      "type": "function"
    },
    {
      "inputs": [
        {
          "internalType": "address",
          "name": "from",
          "type": "address"
        },
        {
          "internalType": "address",
          "name": "to",
          "type": "address"
        },
        {
          "internalType": "uint256",
          "name": "tokenId",
          "type": "uint256"
        }
      ],
      "name": "transferFrom",
      "outputs": [],
      "stateMutability": "nonpayable",
      "type": "function"
    },
    {
      "inputs": [
        {
          "internalType": "address",
          "name": "newOwner",
          "type": "address"
        }
      ],
      "name": "transferOwnership",
      "outputs": [],
      "stateMutability": "nonpayable",
      "type": "function"
    }
  ],
  "transactionHash": "0x733c4228082d862fad4094c372332965d32ec0cc1d96abd3086e40fe1e17955f",
  "args": [
    "0x3362FE2f7E17A5a9F90DaBE12E4A6E16E146F19a"
  ],
  "numDeployments": 1,
  "solcInputHash": "b8b932fb51c429eacef5a80b689155dd",
  "bytecode": "0x6080604052600c80546001600160881b031916690f00000000000001e0001790556032600d55600f805460ff191660011790553480156200003f57600080fd5b50604051620030cc380380620030cc8339810160408190526200006291620008bc565b604051806040016040528060128152602001714465666f205361707068697265204e6f646560701b815250604051806040016040528060038152602001622229a760e91b8152508160009081620000ba919062000992565b506001620000c9828262000992565b505050620000e6620000e0620001d960201b60201c565b620001dd565b601180546001600160a01b0383166001600160a01b031991821617909155601080546001818101835560008381527f1b6847dc741a1b0cd08d278845f9d819d87b734759afb55fe2de5cb82a9ae6729283018054861690558354808301855583018054861661dead179055835491820190935501805490921673aef6bd49e374c067672babc554a7aee36fb71267179091555b6029811015620001d1576200019a600b6200022f60201b620012181760201c565b620001bc33620001b6600b6200023860201b620012211760201c565b6200023c565b80620001c88162000a74565b91505062000179565b505062000b98565b3390565b600a80546001600160a01b038381166001600160a01b0319831681179093556040519116919082907f8be0079c531659141344cd1fd0a4f28419497f9722a3daafe3b4186f6b6457e090600090a35050565b80546001019055565b5490565b6200025e8282604051806020016040528060008152506200026260201b60201c565b5050565b6200026e8383620002de565b6200027d600084848462000434565b620002d95760405162461bcd60e51b81526020600482015260326024820152600080516020620030ac83398151915260448201527131b2b4bb32b91034b6b83632b6b2b73a32b960711b60648201526084015b60405180910390fd5b505050565b6001600160a01b038216620003365760405162461bcd60e51b815260206004820181905260248201527f4552433732313a206d696e7420746f20746865207a65726f20616464726573736044820152606401620002d0565b6000818152600260205260409020546001600160a01b0316156200039d5760405162461bcd60e51b815260206004820152601c60248201527f4552433732313a20746f6b656e20616c7265616479206d696e746564000000006044820152606401620002d0565b620003ab6000838362000590565b6001600160a01b0382166000908152600360205260408120805460019290620003d690849062000a90565b909155505060008181526002602052604080822080546001600160a01b0319166001600160a01b03861690811790915590518392907fddf252ad1be2c89b69c2b068fc378daa952ba7f163c4a11628f55a4df523b3ef908290a45050565b600062000455846001600160a01b03166200066c60201b620012251760201c565b156200058457604051630a85bd0160e11b81526001600160a01b0385169063150b7a02906200048f90339089908890889060040162000aab565b6020604051808303816000875af1925050508015620004cd575060408051601f3d908101601f19168201909252620004ca9181019062000b26565b60015b62000569573d808015620004fe576040519150601f19603f3d011682016040523d82523d6000602084013e62000503565b606091505b508051600003620005615760405162461bcd60e51b81526020600482015260326024820152600080516020620030ac83398151915260448201527131b2b4bb32b91034b6b83632b6b2b73a32b960711b6064820152608401620002d0565b805181602001fd5b6001600160e01b031916630a85bd0160e11b14905062000588565b5060015b949350505050565b620005a8838383620002d960201b620008671760201c565b6001600160a01b03831662000606576200060081600880546000838152600960205260408120829055600182018355919091527ff3f7a9fe364faab93b216da50a3214154f22a0a2b415b23a84c8169e8b636ee30155565b6200062c565b816001600160a01b0316836001600160a01b0316146200062c576200062c83826200067b565b6001600160a01b0382166200064657620002d98162000728565b826001600160a01b0316826001600160a01b031614620002d957620002d98282620007e2565b6001600160a01b03163b151590565b6000600162000695846200083360201b62000bf41760201c565b620006a1919062000b52565b600083815260076020526040902054909150808214620006f5576001600160a01b03841660009081526006602090815260408083208584528252808320548484528184208190558352600790915290208190555b5060009182526007602090815260408084208490556001600160a01b039094168352600681528383209183525290812055565b6008546000906200073c9060019062000b52565b6000838152600960205260408120546008805493945090928490811062000767576200076762000b6c565b9060005260206000200154905080600883815481106200078b576200078b62000b6c565b6000918252602080832090910192909255828152600990915260408082208490558582528120556008805480620007c657620007c662000b82565b6001900381819060005260206000200160009055905550505050565b6000620007fa836200083360201b62000bf41760201c565b6001600160a01b039093166000908152600660209081526040808320868452825280832085905593825260079052919091209190915550565b60006001600160a01b038216620008a05760405162461bcd60e51b815260206004820152602a60248201527f4552433732313a2062616c616e636520717565727920666f7220746865207a65604482015269726f206164647265737360b01b6064820152608401620002d0565b506001600160a01b031660009081526003602052604090205490565b600060208284031215620008cf57600080fd5b81516001600160a01b0381168114620008e757600080fd5b9392505050565b634e487b7160e01b600052604160045260246000fd5b600181811c908216806200091957607f821691505b6020821081036200093a57634e487b7160e01b600052602260045260246000fd5b50919050565b601f821115620002d957600081815260208120601f850160051c81016020861015620009695750805b601f850160051c820191505b818110156200098a5782815560010162000975565b505050505050565b81516001600160401b03811115620009ae57620009ae620008ee565b620009c681620009bf845462000904565b8462000940565b602080601f831160018114620009fe5760008415620009e55750858301515b600019600386901b1c1916600185901b1785556200098a565b600085815260208120601f198616915b8281101562000a2f5788860151825594840194600190910190840162000a0e565b508582101562000a4e5787850151600019600388901b60f8161c191681555b5050505050600190811b01905550565b634e487b7160e01b600052601160045260246000fd5b60006001820162000a895762000a8962000a5e565b5060010190565b6000821982111562000aa65762000aa662000a5e565b500190565b600060018060a01b038087168352602081871681850152856040850152608060608501528451915081608085015260005b8281101562000afa5785810182015185820160a00152810162000adc565b8281111562000b0d57600060a084870101525b5050601f01601f19169190910160a00195945050505050565b60006020828403121562000b3957600080fd5b81516001600160e01b031981168114620008e757600080fd5b60008282101562000b675762000b6762000a5e565b500390565b634e487b7160e01b600052603260045260246000fd5b634e487b7160e01b600052603160045260246000fd5b6125048062000ba86000396000f3fe6080604052600436106101e35760003560e01c806370a0823111610102578063c7d6d9c511610095578063e985e9c511610064578063e985e9c514610561578063f2fde38b146105aa578063f9a7eecb146105ca578063fa0e022b146105e057600080fd5b8063c7d6d9c514610504578063c87b56dd14610519578063e43252d714610539578063e7d68b711461055957600080fd5b806398d5fdca116100d157806398d5fdca14610487578063a22cb4651461049c578063a2a7b0f2146104bc578063b88d4fde146104e457600080fd5b806370a082311461041f578063715018a61461043f5780638da5cb5b1461045457806395d89b411461047257600080fd5b80632f745c591161017a5780634f6ccce7116101495780634f6ccce7146103aa57806355f804b3146103ca5780635fc4442b146103ea5780636352211e146103ff57600080fd5b80632f745c59146103305780633e9f610b1461035057806342842e0e146103705780634e17700a1461039057600080fd5b806312a98762116101b657806312a987621461029957806318160ddd146102d85780631ed40559146102fb57806323b872dd1461031057600080fd5b806301ffc9a7146101e857806306fdde031461021d578063081812fc1461023f578063095ea7b314610277575b600080fd5b3480156101f457600080fd5b50610208610203366004611dd8565b610600565b60405190151581526020015b60405180910390f35b34801561022957600080fd5b5061023261062b565b6040516102149190611e4d565b34801561024b57600080fd5b5061025f61025a366004611e60565b6106bd565b6040516001600160a01b039091168152602001610214565b34801561028357600080fd5b50610297610292366004611e95565b610757565b005b3480156102a557600080fd5b50600c546102bf90610100900467ffffffffffffffff1681565b60405167ffffffffffffffff9091168152602001610214565b3480156102e457600080fd5b506102ed61086c565b604051908152602001610214565b34801561030757600080fd5b5061029761087c565b34801561031c57600080fd5b5061029761032b366004611ebf565b6108ba565b34801561033c57600080fd5b506102ed61034b366004611e95565b6108eb565b34801561035c57600080fd5b5061029761036b366004611efb565b610981565b34801561037c57600080fd5b5061029761038b366004611ebf565b6109df565b34801561039c57600080fd5b50600c546102089060ff1681565b3480156103b657600080fd5b506102ed6103c5366004611e60565b6109fa565b3480156103d657600080fd5b506102976103e5366004611fb1565b610a8d565b3480156103f657600080fd5b50610297610ac7565b34801561040b57600080fd5b5061025f61041a366004611e60565b610b7d565b34801561042b57600080fd5b506102ed61043a366004611ffa565b610bf4565b34801561044b57600080fd5b50610297610c7b565b34801561046057600080fd5b50600a546001600160a01b031661025f565b34801561047e57600080fd5b50610232610caf565b34801561049357600080fd5b50600d546102ed565b3480156104a857600080fd5b506102976104b7366004612023565b610cbe565b3480156104c857600080fd5b50600c546102bf90600160481b900467ffffffffffffffff1681565b3480156104f057600080fd5b506102976104ff36600461205a565b610cc9565b34801561051057600080fd5b50610297610d01565b34801561052557600080fd5b50610232610534366004611e60565b610d3f565b34801561054557600080fd5b50610297610554366004611ffa565b610e1a565b610297610e96565b34801561056d57600080fd5b5061020861057c3660046120d6565b6001600160a01b03918216600090815260056020908152604080832093909416825291909152205460ff1690565b3480156105b657600080fd5b506102976105c5366004611ffa565b611129565b3480156105d657600080fd5b506102ed600d5481565b3480156105ec57600080fd5b506102976105fb366004611efb565b6111c4565b60006001600160e01b0319821663780e9d6360e01b1480610625575061062582611234565b92915050565b60606000805461063a90612109565b80601f016020809104026020016040519081016040528092919081815260200182805461066690612109565b80156106b35780601f10610688576101008083540402835291602001916106b3565b820191906000526020600020905b81548152906001019060200180831161069657829003601f168201915b5050505050905090565b6000818152600260205260408120546001600160a01b031661073b5760405162461bcd60e51b815260206004820152602c60248201527f4552433732313a20617070726f76656420717565727920666f72206e6f6e657860448201526b34b9ba32b73a103a37b5b2b760a11b60648201526084015b60405180910390fd5b506000908152600460205260409020546001600160a01b031690565b600061076282610b7d565b9050806001600160a01b0316836001600160a01b0316036107cf5760405162461bcd60e51b815260206004820152602160248201527f4552433732313a20617070726f76616c20746f2063757272656e74206f776e656044820152603960f91b6064820152608401610732565b336001600160a01b03821614806107eb57506107eb813361057c565b61085d5760405162461bcd60e51b815260206004820152603860248201527f4552433732313a20617070726f76652063616c6c6572206973206e6f74206f7760448201527f6e6572206e6f7220617070726f76656420666f7220616c6c00000000000000006064820152608401610732565b6108678383611284565b505050565b6000610877600b5490565b905090565b600a546001600160a01b031633146108a65760405162461bcd60e51b815260040161073290612143565b600c805460ff19811660ff90911615179055565b6108c433826112f2565b6108e05760405162461bcd60e51b815260040161073290612178565b6108678383836113e9565b60006108f683610bf4565b82106109585760405162461bcd60e51b815260206004820152602b60248201527f455243373231456e756d657261626c653a206f776e657220696e646578206f7560448201526a74206f6620626f756e647360a81b6064820152608401610732565b506001600160a01b03919091166000908152600660209081526040808320938352929052205490565b600a546001600160a01b031633146109ab5760405162461bcd60e51b815260040161073290612143565b600c805467ffffffffffffffff909216600160481b0270ffffffffffffffff00000000000000000019909216919091179055565b61086783838360405180602001604052806000815250610cc9565b6000610a0560085490565b8210610a685760405162461bcd60e51b815260206004820152602c60248201527f455243373231456e756d657261626c653a20676c6f62616c20696e646578206f60448201526b7574206f6620626f756e647360a01b6064820152608401610732565b60088281548110610a7b57610a7b6121c9565b90600052602060002001549050919050565b600a546001600160a01b03163314610ab75760405162461bcd60e51b815260040161073290612143565b600e610ac3828261222d565b5050565b600a546001600160a01b03163314610af15760405162461bcd60e51b815260040161073290612143565b600c5467ffffffffffffffff61010090910416610b0d600b5490565b1115610b5b5760405162461bcd60e51b815260206004820152601e60248201527f4e6f206d6f7265207361707068697265206e6f64657320746f206d696e7400006044820152606401610732565b610b69600b80546001019055565b610b7b33610b76600b5490565b6114d4565b565b6000818152600260205260408120546001600160a01b0316806106255760405162461bcd60e51b815260206004820152602960248201527f4552433732313a206f776e657220717565727920666f72206e6f6e657869737460448201526832b73a103a37b5b2b760b91b6064820152608401610732565b60006001600160a01b038216610c5f5760405162461bcd60e51b815260206004820152602a60248201527f4552433732313a2062616c616e636520717565727920666f7220746865207a65604482015269726f206164647265737360b01b6064820152608401610732565b506001600160a01b031660009081526003602052604090205490565b600a546001600160a01b03163314610ca55760405162461bcd60e51b815260040161073290612143565b610b7b60006114ee565b60606001805461063a90612109565b610ac3338383611540565b610cd333836112f2565b610cef5760405162461bcd60e51b815260040161073290612178565b610cfb8484848461160e565b50505050565b600a546001600160a01b03163314610d2b5760405162461bcd60e51b815260040161073290612143565b600f805460ff19811660ff90911615179055565b6000818152600260205260409020546060906001600160a01b0316610dbe5760405162461bcd60e51b815260206004820152602f60248201527f4552433732314d657461646174613a2055524920717565727920666f72206e6f60448201526e3732bc34b9ba32b73a103a37b5b2b760891b6064820152608401610732565b6000610dc8611641565b90506000815111610de85760405180602001604052806000815250610e13565b80610df284611650565b604051602001610e039291906122ed565b6040516020818303038152906040525b9392505050565b600a546001600160a01b03163314610e445760405162461bcd60e51b815260040161073290612143565b601080546001810182556000919091527f1b6847dc741a1b0cd08d278845f9d819d87b734759afb55fe2de5cb82a9ae6720180546001600160a01b0319166001600160a01b0392909216919091179055565b600c805460ff19166001179055600c54600160481b900467ffffffffffffffff16610ec033610bf4565b1115610f255760405162461bcd60e51b815260206004820152602e60248201527f43616e6e6f74206d696e74206d6f7265207468616e20606d61784e6f6465506560448201526d7257616c6c657460206e6f64657360901b6064820152608401610732565b600c5467ffffffffffffffff61010090910416610f41600b5490565b1115610f8f5760405162461bcd60e51b815260206004820152601e60248201527f4e6f206d6f7265207361707068697265206e6f64657320746f206d696e7400006044820152606401610732565b670de0b6b3a7640000600d54610fa59190612332565b6011546040516370a0823160e01b81523360048201526001600160a01b03909116906370a0823190602401602060405180830381865afa158015610fed573d6000803e3d6000fd5b505050506040513d601f19601f820116820180604052508101906110119190612351565b101561105f5760405162461bcd60e51b815260206004820152601860248201527f496e73756666756369656e74204441492062616c616e636500000000000000006044820152606401610732565b601154600d546001600160a01b03909116906323b872dd90339073aef6bd49e374c067672babc554a7aee36fb71267906110a290670de0b6b3a764000090612332565b6040516001600160e01b031960e086901b1681526001600160a01b03938416600482015292909116602483015260448201526064016020604051808303816000875af11580156110f6573d6000803e3d6000fd5b505050506040513d601f19601f8201168201806040525081019061111a919061236a565b50610b69600b80546001019055565b600a546001600160a01b031633146111535760405162461bcd60e51b815260040161073290612143565b6001600160a01b0381166111b85760405162461bcd60e51b815260206004820152602660248201527f4f776e61626c653a206e6577206f776e657220697320746865207a65726f206160448201526564647265737360d01b6064820152608401610732565b6111c1816114ee565b50565b600a546001600160a01b031633146111ee5760405162461bcd60e51b815260040161073290612143565b600c805467ffffffffffffffff9092166101000268ffffffffffffffff0019909216919091179055565b80546001019055565b5490565b6001600160a01b03163b151590565b60006001600160e01b031982166380ac58cd60e01b148061126557506001600160e01b03198216635b5e139f60e01b145b8061062557506301ffc9a760e01b6001600160e01b0319831614610625565b600081815260046020526040902080546001600160a01b0319166001600160a01b03841690811790915581906112b982610b7d565b6001600160a01b03167f8c5be1e5ebec7d5bd14f71427d1e84f3dd0314c0f7b2291e5b200ac8c7c3b92560405160405180910390a45050565b6000818152600260205260408120546001600160a01b031661136b5760405162461bcd60e51b815260206004820152602c60248201527f4552433732313a206f70657261746f7220717565727920666f72206e6f6e657860448201526b34b9ba32b73a103a37b5b2b760a11b6064820152608401610732565b600061137683610b7d565b9050806001600160a01b0316846001600160a01b031614806113b15750836001600160a01b03166113a6846106bd565b6001600160a01b0316145b806113e157506001600160a01b0380821660009081526005602090815260408083209388168352929052205460ff165b949350505050565b600f5460ff16156114c957600160005b6010548110156114805760108181548110611416576114166121c9565b6000918252602090912001546001600160a01b0386811691161480611464575060108181548110611449576114496121c9565b6000918252602090912001546001600160a01b038581169116145b1561146e57600091505b8061147881612387565b9150506113f9565b5080156114c75760405162461bcd60e51b81526020600482015260156024820152742a3930b739b332b91034b9903337b93134b23232b760591b6044820152606401610732565b505b610867838383611751565b610ac38282604051806020016040528060008152506118f8565b600a80546001600160a01b038381166001600160a01b0319831681179093556040519116919082907f8be0079c531659141344cd1fd0a4f28419497f9722a3daafe3b4186f6b6457e090600090a35050565b816001600160a01b0316836001600160a01b0316036115a15760405162461bcd60e51b815260206004820152601960248201527f4552433732313a20617070726f766520746f2063616c6c6572000000000000006044820152606401610732565b6001600160a01b03838116600081815260056020908152604080832094871680845294825291829020805460ff191686151590811790915591519182527f17307eab39ab6107e8899845ad3d59bd9653f200f220920489ca2b5937696c31910160405180910390a3505050565b6116198484846113e9565b6116258484848461192b565b610cfb5760405162461bcd60e51b8152600401610732906123a0565b6060600e805461063a90612109565b6060816000036116775750506040805180820190915260018152600360fc1b602082015290565b8160005b81156116a1578061168b81612387565b915061169a9050600a83612408565b915061167b565b60008167ffffffffffffffff8111156116bc576116bc611f25565b6040519080825280601f01601f1916602001820160405280156116e6576020820181803683370190505b5090505b84156113e1576116fb60018361241c565b9150611708600a86612433565b611713906030612447565b60f81b818381518110611728576117286121c9565b60200101906001600160f81b031916908160001a90535061174a600a86612408565b94506116ea565b826001600160a01b031661176482610b7d565b6001600160a01b0316146117c85760405162461bcd60e51b815260206004820152602560248201527f4552433732313a207472616e736665722066726f6d20696e636f72726563742060448201526437bbb732b960d91b6064820152608401610732565b6001600160a01b03821661182a5760405162461bcd60e51b8152602060048201526024808201527f4552433732313a207472616e7366657220746f20746865207a65726f206164646044820152637265737360e01b6064820152608401610732565b611835838383611a2c565b611840600082611284565b6001600160a01b038316600090815260036020526040812080546001929061186990849061241c565b90915550506001600160a01b0382166000908152600360205260408120805460019290611897908490612447565b909155505060008181526002602052604080822080546001600160a01b0319166001600160a01b0386811691821790925591518493918716917fddf252ad1be2c89b69c2b068fc378daa952ba7f163c4a11628f55a4df523b3ef91a4505050565b6119028383611ae4565b61190f600084848461192b565b6108675760405162461bcd60e51b8152600401610732906123a0565b60006001600160a01b0384163b15611a2157604051630a85bd0160e11b81526001600160a01b0385169063150b7a029061196f90339089908890889060040161245f565b6020604051808303816000875af19250505080156119aa575060408051601f3d908101601f191682019092526119a79181019061249b565b60015b611a07573d8080156119d8576040519150601f19603f3d011682016040523d82523d6000602084013e6119dd565b606091505b5080516000036119ff5760405162461bcd60e51b8152600401610732906123a0565b805181602001fd5b6001600160e01b031916630a85bd0160e11b1490506113e1565b506001949350505050565b6001600160a01b038316611a8757611a8281600880546000838152600960205260408120829055600182018355919091527ff3f7a9fe364faab93b216da50a3214154f22a0a2b415b23a84c8169e8b636ee30155565b611aaa565b816001600160a01b0316836001600160a01b031614611aaa57611aaa8382611c32565b6001600160a01b038216611ac15761086781611ccf565b826001600160a01b0316826001600160a01b031614610867576108678282611d7e565b6001600160a01b038216611b3a5760405162461bcd60e51b815260206004820181905260248201527f4552433732313a206d696e7420746f20746865207a65726f20616464726573736044820152606401610732565b6000818152600260205260409020546001600160a01b031615611b9f5760405162461bcd60e51b815260206004820152601c60248201527f4552433732313a20746f6b656e20616c7265616479206d696e746564000000006044820152606401610732565b611bab60008383611a2c565b6001600160a01b0382166000908152600360205260408120805460019290611bd4908490612447565b909155505060008181526002602052604080822080546001600160a01b0319166001600160a01b03861690811790915590518392907fddf252ad1be2c89b69c2b068fc378daa952ba7f163c4a11628f55a4df523b3ef908290a45050565b60006001611c3f84610bf4565b611c49919061241c565b600083815260076020526040902054909150808214611c9c576001600160a01b03841660009081526006602090815260408083208584528252808320548484528184208190558352600790915290208190555b5060009182526007602090815260408084208490556001600160a01b039094168352600681528383209183525290812055565b600854600090611ce19060019061241c565b60008381526009602052604081205460088054939450909284908110611d0957611d096121c9565b906000526020600020015490508060088381548110611d2a57611d2a6121c9565b6000918252602080832090910192909255828152600990915260408082208490558582528120556008805480611d6257611d626124b8565b6001900381819060005260206000200160009055905550505050565b6000611d8983610bf4565b6001600160a01b039093166000908152600660209081526040808320868452825280832085905593825260079052919091209190915550565b6001600160e01b0319811681146111c157600080fd5b600060208284031215611dea57600080fd5b8135610e1381611dc2565b60005b83811015611e10578181015183820152602001611df8565b83811115610cfb5750506000910152565b60008151808452611e39816020860160208601611df5565b601f01601f19169290920160200192915050565b602081526000610e136020830184611e21565b600060208284031215611e7257600080fd5b5035919050565b80356001600160a01b0381168114611e9057600080fd5b919050565b60008060408385031215611ea857600080fd5b611eb183611e79565b946020939093013593505050565b600080600060608486031215611ed457600080fd5b611edd84611e79565b9250611eeb60208501611e79565b9150604084013590509250925092565b600060208284031215611f0d57600080fd5b813567ffffffffffffffff81168114610e1357600080fd5b634e487b7160e01b600052604160045260246000fd5b600067ffffffffffffffff80841115611f5657611f56611f25565b604051601f8501601f19908116603f01168101908282118183101715611f7e57611f7e611f25565b81604052809350858152868686011115611f9757600080fd5b858560208301376000602087830101525050509392505050565b600060208284031215611fc357600080fd5b813567ffffffffffffffff811115611fda57600080fd5b8201601f81018413611feb57600080fd5b6113e184823560208401611f3b565b60006020828403121561200c57600080fd5b610e1382611e79565b80151581146111c157600080fd5b6000806040838503121561203657600080fd5b61203f83611e79565b9150602083013561204f81612015565b809150509250929050565b6000806000806080858703121561207057600080fd5b61207985611e79565b935061208760208601611e79565b925060408501359150606085013567ffffffffffffffff8111156120aa57600080fd5b8501601f810187136120bb57600080fd5b6120ca87823560208401611f3b565b91505092959194509250565b600080604083850312156120e957600080fd5b6120f283611e79565b915061210060208401611e79565b90509250929050565b600181811c9082168061211d57607f821691505b60208210810361213d57634e487b7160e01b600052602260045260246000fd5b50919050565b6020808252818101527f4f776e61626c653a2063616c6c6572206973206e6f7420746865206f776e6572604082015260600190565b60208082526031908201527f4552433732313a207472616e736665722063616c6c6572206973206e6f74206f6040820152701ddb995c881b9bdc88185c1c1c9bdd9959607a1b606082015260800190565b634e487b7160e01b600052603260045260246000fd5b601f82111561086757600081815260208120601f850160051c810160208610156122065750805b601f850160051c820191505b8181101561222557828155600101612212565b505050505050565b815167ffffffffffffffff81111561224757612247611f25565b61225b816122558454612109565b846121df565b602080601f83116001811461229057600084156122785750858301515b600019600386901b1c1916600185901b178555612225565b600085815260208120601f198616915b828110156122bf578886015182559484019460019091019084016122a0565b50858210156122dd5787850151600019600388901b60f8161c191681555b5050505050600190811b01905550565b600083516122ff818460208801611df5565b835190830190612313818360208801611df5565b01949350505050565b634e487b7160e01b600052601160045260246000fd5b600081600019048311821515161561234c5761234c61231c565b500290565b60006020828403121561236357600080fd5b5051919050565b60006020828403121561237c57600080fd5b8151610e1381612015565b6000600182016123995761239961231c565b5060010190565b60208082526032908201527f4552433732313a207472616e7366657220746f206e6f6e20455243373231526560408201527131b2b4bb32b91034b6b83632b6b2b73a32b960711b606082015260800190565b634e487b7160e01b600052601260045260246000fd5b600082612417576124176123f2565b500490565b60008282101561242e5761242e61231c565b500390565b600082612442576124426123f2565b500690565b6000821982111561245a5761245a61231c565b500190565b60006001600160a01b038087168352808616602084015250836040830152608060608301526124916080830184611e21565b9695505050505050565b6000602082840312156124ad57600080fd5b8151610e1381611dc2565b634e487b7160e01b600052603160045260246000fdfea26469706673582212208807b8e5f616d6ab5cac91426145f337ed77de0d3a3141ce46d24ed574fb07dd64736f6c634300080f00334552433732313a207472616e7366657220746f206e6f6e204552433732315265",
  "devdoc": {
    "kind": "dev",
    "methods": {
      "approve(address,uint256)": {
        "details": "See {IERC721-approve}."
      },
      "balanceOf(address)": {
        "details": "See {IERC721-balanceOf}."
      },
      "getApproved(uint256)": {
        "details": "See {IERC721-getApproved}."
      },
      "isApprovedForAll(address,address)": {
        "details": "See {IERC721-isApprovedForAll}."
      },
      "name()": {
        "details": "See {IERC721Metadata-name}."
      },
      "owner()": {
        "details": "Returns the address of the current owner."
      },
      "ownerOf(uint256)": {
        "details": "See {IERC721-ownerOf}."
      },
      "renounceOwnership()": {
        "details": "Leaves the contract without owner. It will not be possible to call `onlyOwner` functions anymore. Can only be called by the current owner. NOTE: Renouncing ownership will leave the contract without an owner, thereby removing any functionality that is only available to the owner."
      },
      "safeTransferFrom(address,address,uint256)": {
        "details": "See {IERC721-safeTransferFrom}."
      },
      "safeTransferFrom(address,address,uint256,bytes)": {
        "details": "See {IERC721-safeTransferFrom}."
      },
      "setApprovalForAll(address,bool)": {
        "details": "See {IERC721-setApprovalForAll}."
      },
      "supportsInterface(bytes4)": {
        "details": "See {IERC165-supportsInterface}."
      },
      "symbol()": {
        "details": "See {IERC721Metadata-symbol}."
      },
      "tokenByIndex(uint256)": {
        "details": "See {IERC721Enumerable-tokenByIndex}."
      },
      "tokenOfOwnerByIndex(address,uint256)": {
        "details": "See {IERC721Enumerable-tokenOfOwnerByIndex}."
      },
      "tokenURI(uint256)": {
        "details": "See {IERC721Metadata-tokenURI}."
      },
      "totalSupply()": {
        "details": "See {IERC721Enumerable-totalSupply}."
      },
      "transferFrom(address,address,uint256)": {
        "details": "See {IERC721-transferFrom}."
      },
      "transferOwnership(address)": {
        "details": "Transfers ownership of the contract to a new account (`newOwner`). Can only be called by the current owner."
      }
    },
    "title": "Defo Sapphire Node Minting Contract",
    "version": 1
  },
  "userdoc": {
    "kind": "user",
    "methods": {
      "mintNode()": {
        "notice": "allows users to mint sapphire nodes"
      },
      "setBaseURI(string)": {
        "notice": "allows the owner to set the baseURI"
      },
      "setMaxPerWallet(uint64)": {
        "notice": "allows the owner to set the max amount of nodes one wallet can hold"
      },
      "setMaxTotalSapphireNodes(uint64)": {
        "notice": "allows the owner to set the total amount of sapphire nodes"
      },
      "setSaleState()": {
        "notice": "allows the owner to render the sale inactive/active, in other words pausing and resuming"
      }
    },
    "notice": "Contract for minting sapphire nodes",
    "version": 1
  },
  "storageLayout": {
    "storage": [
      {
        "astId": 1317,
        "contract": "contracts/presale/presaleSapphire.sol:SapphireNode",
        "label": "_name",
        "offset": 0,
        "slot": "0",
        "type": "t_string_storage"
      },
      {
        "astId": 1319,
        "contract": "contracts/presale/presaleSapphire.sol:SapphireNode",
        "label": "_symbol",
        "offset": 0,
        "slot": "1",
        "type": "t_string_storage"
      },
      {
        "astId": 1323,
        "contract": "contracts/presale/presaleSapphire.sol:SapphireNode",
        "label": "_owners",
        "offset": 0,
        "slot": "2",
        "type": "t_mapping(t_uint256,t_address)"
      },
      {
        "astId": 1327,
        "contract": "contracts/presale/presaleSapphire.sol:SapphireNode",
        "label": "_balances",
        "offset": 0,
        "slot": "3",
        "type": "t_mapping(t_address,t_uint256)"
      },
      {
        "astId": 1331,
        "contract": "contracts/presale/presaleSapphire.sol:SapphireNode",
        "label": "_tokenApprovals",
        "offset": 0,
        "slot": "4",
        "type": "t_mapping(t_uint256,t_address)"
      },
      {
        "astId": 1337,
        "contract": "contracts/presale/presaleSapphire.sol:SapphireNode",
        "label": "_operatorApprovals",
        "offset": 0,
        "slot": "5",
        "type": "t_mapping(t_address,t_mapping(t_address,t_bool))"
      },
      {
        "astId": 2169,
        "contract": "contracts/presale/presaleSapphire.sol:SapphireNode",
        "label": "_ownedTokens",
        "offset": 0,
        "slot": "6",
        "type": "t_mapping(t_address,t_mapping(t_uint256,t_uint256))"
      },
      {
        "astId": 2173,
        "contract": "contracts/presale/presaleSapphire.sol:SapphireNode",
        "label": "_ownedTokensIndex",
        "offset": 0,
        "slot": "7",
        "type": "t_mapping(t_uint256,t_uint256)"
      },
      {
        "astId": 2176,
        "contract": "contracts/presale/presaleSapphire.sol:SapphireNode",
        "label": "_allTokens",
        "offset": 0,
        "slot": "8",
        "type": "t_array(t_uint256)dyn_storage"
      },
      {
        "astId": 2180,
        "contract": "contracts/presale/presaleSapphire.sol:SapphireNode",
        "label": "_allTokensIndex",
        "offset": 0,
        "slot": "9",
        "type": "t_mapping(t_uint256,t_uint256)"
      },
      {
        "astId": 690,
        "contract": "contracts/presale/presaleSapphire.sol:SapphireNode",
        "label": "_owner",
        "offset": 0,
        "slot": "10",
        "type": "t_address"
      },
      {
        "astId": 10571,
        "contract": "contracts/presale/presaleSapphire.sol:SapphireNode",
        "label": "supply",
        "offset": 0,
        "slot": "11",
        "type": "t_struct(Counter)316_storage"
      },
      {
        "astId": 10574,
        "contract": "contracts/presale/presaleSapphire.sol:SapphireNode",
        "label": "activeSale",
        "offset": 0,
        "slot": "12",
        "type": "t_bool"
      },
      {
        "astId": 10577,
        "contract": "contracts/presale/presaleSapphire.sol:SapphireNode",
        "label": "maxTotalSapphireNodes",
        "offset": 1,
        "slot": "12",
        "type": "t_uint64"
      },
      {
        "astId": 10580,
        "contract": "contracts/presale/presaleSapphire.sol:SapphireNode",
        "label": "maxNodesPerWallet",
        "offset": 9,
        "slot": "12",
        "type": "t_uint64"
      },
      {
        "astId": 10583,
        "contract": "contracts/presale/presaleSapphire.sol:SapphireNode",
        "label": "sapphireNodePrice",
        "offset": 0,
        "slot": "13",
        "type": "t_uint256"
      },
      {
        "astId": 10593,
        "contract": "contracts/presale/presaleSapphire.sol:SapphireNode",
        "label": "baseURI",
        "offset": 0,
        "slot": "14",
        "type": "t_string_storage"
      },
      {
        "astId": 10596,
        "contract": "contracts/presale/presaleSapphire.sol:SapphireNode",
        "label": "transferLock",
        "offset": 0,
        "slot": "15",
        "type": "t_bool"
      },
      {
        "astId": 10599,
        "contract": "contracts/presale/presaleSapphire.sol:SapphireNode",
        "label": "whitelist",
        "offset": 0,
        "slot": "16",
        "type": "t_array(t_address)dyn_storage"
      },
      {
        "astId": 10602,
        "contract": "contracts/presale/presaleSapphire.sol:SapphireNode",
        "label": "DAIToken",
        "offset": 0,
        "slot": "17",
        "type": "t_contract(IERC20)461"
      }
    ],
    "types": {
      "t_address": {
        "encoding": "inplace",
        "label": "address",
        "numberOfBytes": "20"
      },
      "t_array(t_address)dyn_storage": {
        "base": "t_address",
        "encoding": "dynamic_array",
        "label": "address[]",
        "numberOfBytes": "32"
      },
      "t_array(t_uint256)dyn_storage": {
        "base": "t_uint256",
        "encoding": "dynamic_array",
        "label": "uint256[]",
        "numberOfBytes": "32"
      },
      "t_bool": {
        "encoding": "inplace",
        "label": "bool",
        "numberOfBytes": "1"
      },
      "t_contract(IERC20)461": {
        "encoding": "inplace",
        "label": "contract IERC20",
        "numberOfBytes": "20"
      },
      "t_mapping(t_address,t_bool)": {
        "encoding": "mapping",
        "key": "t_address",
        "label": "mapping(address => bool)",
        "numberOfBytes": "32",
        "value": "t_bool"
      },
      "t_mapping(t_address,t_mapping(t_address,t_bool))": {
        "encoding": "mapping",
        "key": "t_address",
        "label": "mapping(address => mapping(address => bool))",
        "numberOfBytes": "32",
        "value": "t_mapping(t_address,t_bool)"
      },
      "t_mapping(t_address,t_mapping(t_uint256,t_uint256))": {
        "encoding": "mapping",
        "key": "t_address",
        "label": "mapping(address => mapping(uint256 => uint256))",
        "numberOfBytes": "32",
        "value": "t_mapping(t_uint256,t_uint256)"
      },
      "t_mapping(t_address,t_uint256)": {
        "encoding": "mapping",
        "key": "t_address",
        "label": "mapping(address => uint256)",
        "numberOfBytes": "32",
        "value": "t_uint256"
      },
      "t_mapping(t_uint256,t_address)": {
        "encoding": "mapping",
        "key": "t_uint256",
        "label": "mapping(uint256 => address)",
        "numberOfBytes": "32",
        "value": "t_address"
      },
      "t_mapping(t_uint256,t_uint256)": {
        "encoding": "mapping",
        "key": "t_uint256",
        "label": "mapping(uint256 => uint256)",
        "numberOfBytes": "32",
        "value": "t_uint256"
      },
      "t_string_storage": {
        "encoding": "bytes",
        "label": "string",
        "numberOfBytes": "32"
      },
      "t_struct(Counter)316_storage": {
        "encoding": "inplace",
        "label": "struct Counters.Counter",
        "members": [
          {
            "astId": 315,
            "contract": "contracts/presale/presaleSapphire.sol:SapphireNode",
            "label": "_value",
            "offset": 0,
            "slot": "0",
            "type": "t_uint256"
          }
        ],
        "numberOfBytes": "32"
      },
      "t_uint256": {
        "encoding": "inplace",
        "label": "uint256",
        "numberOfBytes": "32"
      },
      "t_uint64": {
        "encoding": "inplace",
        "label": "uint64",
        "numberOfBytes": "8"
      }
    }
  }
}