{
  "address": "0x25202dd3b7f331A9738485889eA3522fD465B891",
  "abi": [
    {
      "inputs": [
        {
          "internalType": "address",
          "name": "from",
          "type": "address"
        },
        {
          "internalType": "address",
          "name": "to",
          "type": "address"
        },
        {
          "internalType": "uint256",
          "name": "amount",
          "type": "uint256"
        }
      ],
      "name": "DEFOTokenTransferLimit",
      "outputs": [],
      "stateMutability": "nonpayable",
      "type": "function"
    },
    {
      "inputs": [
        {
          "internalType": "address",
          "name": "from",
          "type": "address"
        },
        {
          "internalType": "address",
          "name": "to",
          "type": "address"
        },
        {
          "internalType": "uint256",
          "name": "tokenId",
          "type": "uint256"
        }
      ],
      "name": "yieldGemTransferLimit",
      "outputs": [],
      "stateMutability": "nonpayable",
      "type": "function"
    }
  ],
  "transactionHash": "0x0f590125f06e927836ae2f5d4920506da9a7d87628314886dbf4d869117eb3b9",
  "args": [],
  "numDeployments": 4,
  "solcInputHash": "825d23aeafc254050664db941ff63471",
  "bytecode": "0x608060405234801561001057600080fd5b50610cae806100206000396000f3fe608060405234801561001057600080fd5b50600436106100365760003560e01c80637e5c923d1461003b578063cfc0443814610057575b600080fd5b610055600480360381019061005091906108e4565b610073565b005b610071600480360381019061006c91906108e4565b610078565b005b505050565b600080016002016002600681111561009357610092610937565b5b600781106100a4576100a3610966565b5b0160009054906101000a900473ffffffffffffffffffffffffffffffffffffffff1673ffffffffffffffffffffffffffffffffffffffff168273ffffffffffffffffffffffffffffffffffffffff160361065057600080600001601901600001546000601e0160010160008673ffffffffffffffffffffffffffffffffffffffff1673ffffffffffffffffffffffffffffffffffffffff1681526020019081526020016000205461015591906109c4565b90506000800160190160010154826000601e0160000160008773ffffffffffffffffffffffffffffffffffffffff1673ffffffffffffffffffffffffffffffffffffffff168152602001908152602001600020546101b391906109c4565b1115806101bf57508042115b6101fe576040517f08c379a00000000000000000000000000000000000000000000000000000000081526004016101f590610a77565b60405180910390fd5b8042111561025557816000601e0160000160008673ffffffffffffffffffffffffffffffffffffffff1673ffffffffffffffffffffffffffffffffffffffff168152602001908152602001600020819055506102b2565b816000601e0160000160008673ffffffffffffffffffffffffffffffffffffffff1673ffffffffffffffffffffffffffffffffffffffff16815260200190815260200160002060008282546102aa91906109c4565b925050819055505b426000601e0160010160008673ffffffffffffffffffffffffffffffffffffffff1673ffffffffffffffffffffffffffffffffffffffff168152602001908152602001600020819055506000800160190160020160009054906101000a900460ff161561064e57600061032485610655565b9050600081511161036a576040517f08c379a000000000000000000000000000000000000000000000000000000000815260040161036190610ae3565b60405180910390fd5b6000805b825181101561040857600080602001600085848151811061039257610391610966565b5b6020026020010151815260200190815260200160002060000160009054906101000a900460ff1690506000601c018160ff16815481106103d5576103d4610966565b5b906000526020600020906006020160010154836103f291906109c4565b925050808061040090610b03565b91505061036e565b50600080603b0160010160008873ffffffffffffffffffffffffffffffffffffffff1673ffffffffffffffffffffffffffffffffffffffff1681526020019081526020016000205414806104c857504260008001600f0160049054906101000a900463ffffffff1663ffffffff166000603b0160010160008973ffffffffffffffffffffffffffffffffffffffff1673ffffffffffffffffffffffffffffffffffffffff168152602001908152602001600020546104c691906109c4565b105b1561056657836000603b0160000160008873ffffffffffffffffffffffffffffffffffffffff1673ffffffffffffffffffffffffffffffffffffffff16815260200190815260200160002081905550426000603b0160010160008873ffffffffffffffffffffffffffffffffffffffff1673ffffffffffffffffffffffffffffffffffffffff168152602001908152602001600020819055506105c3565b836000603b0160000160008873ffffffffffffffffffffffffffffffffffffffff1673ffffffffffffffffffffffffffffffffffffffff16815260200190815260200160002060008282546105bb91906109c4565b925050819055505b806000603b0160000160008873ffffffffffffffffffffffffffffffffffffffff1673ffffffffffffffffffffffffffffffffffffffff16815260200190815260200160002054111561064b576040517f08c379a000000000000000000000000000000000000000000000000000000000815260040161064290610bbd565b60405180910390fd5b50505b505b505050565b606060008060210160040160008473ffffffffffffffffffffffffffffffffffffffff1673ffffffffffffffffffffffffffffffffffffffff16815260200190815260200160002054905060008167ffffffffffffffff8111156106bc576106bb610bdd565b5b6040519080825280602002602001820160405280156106ea5781602001602082028036833780820191505090505b50905060005b828110156107ce5760008060210160080160008773ffffffffffffffffffffffffffffffffffffffff1673ffffffffffffffffffffffffffffffffffffffff168152602001908152602001600020600083815260200190815260200160002054905061075b816107d9565b61079a576040517f08c379a000000000000000000000000000000000000000000000000000000000815260040161079190610c58565b60405180910390fd5b808383815181106107ae576107ad610966565b5b6020026020010181815250505080806107c690610b03565b9150506106f0565b508092505050919050565b60008073ffffffffffffffffffffffffffffffffffffffff166000602101600301600084815260200190815260200160002060009054906101000a900473ffffffffffffffffffffffffffffffffffffffff1673ffffffffffffffffffffffffffffffffffffffff1614159050919050565b600080fd5b600073ffffffffffffffffffffffffffffffffffffffff82169050919050565b600061087b82610850565b9050919050565b61088b81610870565b811461089657600080fd5b50565b6000813590506108a881610882565b92915050565b6000819050919050565b6108c1816108ae565b81146108cc57600080fd5b50565b6000813590506108de816108b8565b92915050565b6000806000606084860312156108fd576108fc61084b565b5b600061090b86828701610899565b935050602061091c86828701610899565b925050604061092d868287016108cf565b9150509250925092565b7f4e487b7100000000000000000000000000000000000000000000000000000000600052602160045260246000fd5b7f4e487b7100000000000000000000000000000000000000000000000000000000600052603260045260246000fd5b7f4e487b7100000000000000000000000000000000000000000000000000000000600052601160045260246000fd5b60006109cf826108ae565b91506109da836108ae565b9250827fffffffffffffffffffffffffffffffffffffffffffffffffffffffffffffffff03821115610a0f57610a0e610995565b5b828201905092915050565b600082825260208201905092915050565b7f4445464f546f6b656e3a7472616e736665722d6c696d69740000000000000000600082015250565b6000610a61601883610a1a565b9150610a6c82610a2b565b602082019050919050565b60006020820190508181036000830152610a9081610a54565b9050919050565b7f4445464f5472616e736665724c696d69743a6e6f2d67656d7300000000000000600082015250565b6000610acd601983610a1a565b9150610ad882610a97565b602082019050919050565b60006020820190508181036000830152610afc81610ac0565b9050919050565b6000610b0e826108ae565b91507fffffffffffffffffffffffffffffffffffffffffffffffffffffffffffffffff8203610b4057610b3f610995565b5b600182019050919050565b7f4445464f5472616e736665724c696d69743a746f74616c2d726577617264732d60008201527f7065722d7765656b000000000000000000000000000000000000000000000000602082015250565b6000610ba7602883610a1a565b9150610bb282610b4b565b604082019050919050565b60006020820190508181036000830152610bd681610b9a565b9050919050565b7f4e487b7100000000000000000000000000000000000000000000000000000000600052604160045260246000fd5b7f412067656d20646f65736e277420657869737473000000000000000000000000600082015250565b6000610c42601483610a1a565b9150610c4d82610c0c565b602082019050919050565b60006020820190508181036000830152610c7181610c35565b905091905056fea26469706673582212202fd692c01e756348f3c5afa80aea4b3147a3b96198e16c0c19882243db5fd54564736f6c634300080f0033",
  "devdoc": {
    "author": "Decentralized Foundation Team",
    "kind": "dev",
    "methods": {},
    "title": "ERC721Facet EIP-2535 Diamond Facet",
    "version": 1
  },
  "userdoc": {
    "kind": "user",
    "methods": {
      "yieldGemTransferLimit(address,address,uint256)": {
        "notice": "todo refactor transfer limiting operations to this facet"
      }
    },
    "notice": "The Contract uses diamond storage providing functionality of ERC721, ERC721Enumerable, ERC721Burnable, ERC721Pausable",
    "version": 1
  },
  "storageLayout": {
    "storage": [
      {
        "astId": 563,
        "contract": "contracts/facets/TransferLimitFacet.sol:TransferLimitFacet",
        "label": "s",
        "offset": 0,
        "slot": "0",
        "type": "t_struct(AppStorage)815_storage"
      }
    ],
    "types": {
      "t_address": {
        "encoding": "inplace",
        "label": "address",
        "numberOfBytes": "20"
      },
      "t_array(t_address)7_storage": {
        "base": "t_address",
        "encoding": "inplace",
        "label": "address[7]",
        "numberOfBytes": "224"
      },
      "t_array(t_array(t_uint256)3_storage)2_storage": {
        "base": "t_array(t_uint256)3_storage",
        "encoding": "inplace",
        "label": "uint256[3][2]",
        "numberOfBytes": "192"
      },
      "t_array(t_contract(IERC20)185)2_storage": {
        "base": "t_contract(IERC20)185",
        "encoding": "inplace",
        "label": "contract IERC20[2]",
        "numberOfBytes": "64"
      },
      "t_array(t_struct(GemTypeConfig)709_storage)dyn_storage": {
        "base": "t_struct(GemTypeConfig)709_storage",
        "encoding": "dynamic_array",
        "label": "struct GemTypeConfig[]",
        "numberOfBytes": "32"
      },
      "t_array(t_struct(GemTypeMintWindow)714_storage)dyn_storage": {
        "base": "t_struct(GemTypeMintWindow)714_storage",
        "encoding": "dynamic_array",
        "label": "struct GemTypeMintWindow[]",
        "numberOfBytes": "32"
      },
      "t_array(t_uint256)2_storage": {
        "base": "t_uint256",
        "encoding": "inplace",
        "label": "uint256[2]",
        "numberOfBytes": "64"
      },
      "t_array(t_uint256)3_storage": {
        "base": "t_uint256",
        "encoding": "inplace",
        "label": "uint256[3]",
        "numberOfBytes": "96"
      },
      "t_array(t_uint256)5_storage": {
        "base": "t_uint256",
        "encoding": "inplace",
        "label": "uint256[5]",
        "numberOfBytes": "160"
      },
      "t_array(t_uint256)dyn_storage": {
        "base": "t_uint256",
        "encoding": "dynamic_array",
        "label": "uint256[]",
        "numberOfBytes": "32"
      },
      "t_bool": {
        "encoding": "inplace",
        "label": "bool",
        "numberOfBytes": "1"
      },
      "t_contract(IERC20)185": {
        "encoding": "inplace",
        "label": "contract IERC20",
        "numberOfBytes": "20"
      },
      "t_enum(Booster)736": {
        "encoding": "inplace",
        "label": "enum Booster",
        "numberOfBytes": "1"
      },
      "t_mapping(t_address,t_bool)": {
        "encoding": "mapping",
        "key": "t_address",
        "label": "mapping(address => bool)",
        "numberOfBytes": "32",
        "value": "t_bool"
      },
      "t_mapping(t_address,t_enum(Booster)736)": {
        "encoding": "mapping",
        "key": "t_address",
        "label": "mapping(address => enum Booster)",
        "numberOfBytes": "32",
        "value": "t_enum(Booster)736"
      },
      "t_mapping(t_address,t_mapping(t_address,t_bool))": {
        "encoding": "mapping",
        "key": "t_address",
        "label": "mapping(address => mapping(address => bool))",
        "numberOfBytes": "32",
        "value": "t_mapping(t_address,t_bool)"
      },
      "t_mapping(t_address,t_mapping(t_uint256,t_uint256))": {
        "encoding": "mapping",
        "key": "t_address",
        "label": "mapping(address => mapping(uint256 => uint256))",
        "numberOfBytes": "32",
        "value": "t_mapping(t_uint256,t_uint256)"
      },
      "t_mapping(t_address,t_struct(Fi)757_storage)": {
        "encoding": "mapping",
        "key": "t_address",
        "label": "mapping(address => struct Fi)",
        "numberOfBytes": "32",
        "value": "t_struct(Fi)757_storage"
      },
      "t_mapping(t_address,t_uint256)": {
        "encoding": "mapping",
        "key": "t_address",
        "label": "mapping(address => uint256)",
        "numberOfBytes": "32",
        "value": "t_uint256"
      },
      "t_mapping(t_address,t_uint8)": {
        "encoding": "mapping",
        "key": "t_address",
        "label": "mapping(address => uint8)",
        "numberOfBytes": "32",
        "value": "t_uint8"
      },
      "t_mapping(t_uint256,t_address)": {
        "encoding": "mapping",
        "key": "t_uint256",
        "label": "mapping(uint256 => address)",
        "numberOfBytes": "32",
        "value": "t_address"
      },
      "t_mapping(t_uint256,t_struct(Gem)772_storage)": {
        "encoding": "mapping",
        "key": "t_uint256",
        "label": "mapping(uint256 => struct Gem)",
        "numberOfBytes": "32",
        "value": "t_struct(Gem)772_storage"
      },
      "t_mapping(t_uint256,t_uint256)": {
        "encoding": "mapping",
        "key": "t_uint256",
        "label": "mapping(uint256 => uint256)",
        "numberOfBytes": "32",
        "value": "t_uint256"
      },
      "t_string_storage": {
        "encoding": "bytes",
        "label": "string",
        "numberOfBytes": "32"
      },
      "t_struct(AppStorage)815_storage": {
        "encoding": "inplace",
        "label": "struct AppStorage",
        "members": [
          {
            "astId": 775,
            "contract": "contracts/facets/TransferLimitFacet.sol:TransferLimitFacet",
            "label": "config",
            "offset": 0,
            "slot": "0",
            "type": "t_struct(ProtocolConfig)696_storage"
          },
          {
            "astId": 779,
            "contract": "contracts/facets/TransferLimitFacet.sol:TransferLimitFacet",
            "label": "gemTypes",
            "offset": 0,
            "slot": "28",
            "type": "t_array(t_struct(GemTypeConfig)709_storage)dyn_storage"
          },
          {
            "astId": 783,
            "contract": "contracts/facets/TransferLimitFacet.sol:TransferLimitFacet",
            "label": "gemTypesMintWindows",
            "offset": 0,
            "slot": "29",
            "type": "t_array(t_struct(GemTypeMintWindow)714_storage)dyn_storage"
          },
          {
            "astId": 786,
            "contract": "contracts/facets/TransferLimitFacet.sol:TransferLimitFacet",
            "label": "defoTokenLimitWindow",
            "offset": 0,
            "slot": "30",
            "type": "t_struct(DEFOTokenLimitWindow)723_storage"
          },
          {
            "astId": 791,
            "contract": "contracts/facets/TransferLimitFacet.sol:TransferLimitFacet",
            "label": "gems",
            "offset": 0,
            "slot": "32",
            "type": "t_mapping(t_uint256,t_struct(Gem)772_storage)"
          },
          {
            "astId": 794,
            "contract": "contracts/facets/TransferLimitFacet.sol:TransferLimitFacet",
            "label": "nft",
            "offset": 0,
            "slot": "33",
            "type": "t_struct(ERC721Storage)631_storage"
          },
          {
            "astId": 797,
            "contract": "contracts/facets/TransferLimitFacet.sol:TransferLimitFacet",
            "label": "total",
            "offset": 0,
            "slot": "46",
            "type": "t_struct(Fi)757_storage"
          },
          {
            "astId": 802,
            "contract": "contracts/facets/TransferLimitFacet.sol:TransferLimitFacet",
            "label": "usersFi",
            "offset": 0,
            "slot": "56",
            "type": "t_mapping(t_address,t_struct(Fi)757_storage)"
          },
          {
            "astId": 806,
            "contract": "contracts/facets/TransferLimitFacet.sol:TransferLimitFacet",
            "label": "usersNextGemTypeToBoost",
            "offset": 0,
            "slot": "57",
            "type": "t_mapping(t_address,t_uint8)"
          },
          {
            "astId": 811,
            "contract": "contracts/facets/TransferLimitFacet.sol:TransferLimitFacet",
            "label": "usersNextGemBooster",
            "offset": 0,
            "slot": "58",
            "type": "t_mapping(t_address,t_enum(Booster)736)"
          },
          {
            "astId": 814,
            "contract": "contracts/facets/TransferLimitFacet.sol:TransferLimitFacet",
            "label": "defoTokenLimitPerRewards",
            "offset": 0,
            "slot": "59",
            "type": "t_struct(DEFOTokenLimitPerRewards)732_storage"
          }
        ],
        "numberOfBytes": "1952"
      },
      "t_struct(Counter)238_storage": {
        "encoding": "inplace",
        "label": "struct Counters.Counter",
        "members": [
          {
            "astId": 237,
            "contract": "contracts/facets/TransferLimitFacet.sol:TransferLimitFacet",
            "label": "_value",
            "offset": 0,
            "slot": "0",
            "type": "t_uint256"
          }
        ],
        "numberOfBytes": "32"
      },
      "t_struct(DEFOTokenLimitPerRewards)732_storage": {
        "encoding": "inplace",
        "label": "struct DEFOTokenLimitPerRewards",
        "members": [
          {
            "astId": 727,
            "contract": "contracts/facets/TransferLimitFacet.sol:TransferLimitFacet",
            "label": "tokensSold",
            "offset": 0,
            "slot": "0",
            "type": "t_mapping(t_address,t_uint256)"
          },
          {
            "astId": 731,
            "contract": "contracts/facets/TransferLimitFacet.sol:TransferLimitFacet",
            "label": "timeOfWindowStart",
            "offset": 0,
            "slot": "1",
            "type": "t_mapping(t_address,t_uint256)"
          }
        ],
        "numberOfBytes": "64"
      },
      "t_struct(DEFOTokenLimitWindow)723_storage": {
        "encoding": "inplace",
        "label": "struct DEFOTokenLimitWindow",
        "members": [
          {
            "astId": 718,
            "contract": "contracts/facets/TransferLimitFacet.sol:TransferLimitFacet",
            "label": "tokensSold",
            "offset": 0,
            "slot": "0",
            "type": "t_mapping(t_address,t_uint256)"
          },
          {
            "astId": 722,
            "contract": "contracts/facets/TransferLimitFacet.sol:TransferLimitFacet",
            "label": "timeOfLastSale",
            "offset": 0,
            "slot": "1",
            "type": "t_mapping(t_address,t_uint256)"
          }
        ],
        "numberOfBytes": "64"
      },
      "t_struct(DefoTokenLimitConfig)655_storage": {
        "encoding": "inplace",
        "label": "struct DefoTokenLimitConfig",
        "members": [
          {
            "astId": 650,
            "contract": "contracts/facets/TransferLimitFacet.sol:TransferLimitFacet",
            "label": "saleLimitPeriod",
            "offset": 0,
            "slot": "0",
            "type": "t_uint256"
          },
          {
            "astId": 652,
            "contract": "contracts/facets/TransferLimitFacet.sol:TransferLimitFacet",
            "label": "saleLimitAmount",
            "offset": 0,
            "slot": "1",
            "type": "t_uint256"
          },
          {
            "astId": 654,
            "contract": "contracts/facets/TransferLimitFacet.sol:TransferLimitFacet",
            "label": "limitByReward",
            "offset": 0,
            "slot": "2",
            "type": "t_bool"
          }
        ],
        "numberOfBytes": "96"
      },
      "t_struct(ERC721Storage)631_storage": {
        "encoding": "inplace",
        "label": "struct ERC721Storage",
        "members": [
          {
            "astId": 586,
            "contract": "contracts/facets/TransferLimitFacet.sol:TransferLimitFacet",
            "label": "name",
            "offset": 0,
            "slot": "0",
            "type": "t_string_storage"
          },
          {
            "astId": 588,
            "contract": "contracts/facets/TransferLimitFacet.sol:TransferLimitFacet",
            "label": "symbol",
            "offset": 0,
            "slot": "1",
            "type": "t_string_storage"
          },
          {
            "astId": 591,
            "contract": "contracts/facets/TransferLimitFacet.sol:TransferLimitFacet",
            "label": "tokenIdTracker",
            "offset": 0,
            "slot": "2",
            "type": "t_struct(Counter)238_storage"
          },
          {
            "astId": 595,
            "contract": "contracts/facets/TransferLimitFacet.sol:TransferLimitFacet",
            "label": "owners",
            "offset": 0,
            "slot": "3",
            "type": "t_mapping(t_uint256,t_address)"
          },
          {
            "astId": 599,
            "contract": "contracts/facets/TransferLimitFacet.sol:TransferLimitFacet",
            "label": "balances",
            "offset": 0,
            "slot": "4",
            "type": "t_mapping(t_address,t_uint256)"
          },
          {
            "astId": 603,
            "contract": "contracts/facets/TransferLimitFacet.sol:TransferLimitFacet",
            "label": "tokenApprovals",
            "offset": 0,
            "slot": "5",
            "type": "t_mapping(t_uint256,t_address)"
          },
          {
            "astId": 609,
            "contract": "contracts/facets/TransferLimitFacet.sol:TransferLimitFacet",
            "label": "operatorApprovals",
            "offset": 0,
            "slot": "6",
            "type": "t_mapping(t_address,t_mapping(t_address,t_bool))"
          },
          {
            "astId": 611,
            "contract": "contracts/facets/TransferLimitFacet.sol:TransferLimitFacet",
            "label": "baseURI",
            "offset": 0,
            "slot": "7",
            "type": "t_string_storage"
          },
          {
            "astId": 617,
            "contract": "contracts/facets/TransferLimitFacet.sol:TransferLimitFacet",
            "label": "ownedTokens",
            "offset": 0,
            "slot": "8",
            "type": "t_mapping(t_address,t_mapping(t_uint256,t_uint256))"
          },
          {
            "astId": 621,
            "contract": "contracts/facets/TransferLimitFacet.sol:TransferLimitFacet",
            "label": "ownedTokensIndex",
            "offset": 0,
            "slot": "9",
            "type": "t_mapping(t_uint256,t_uint256)"
          },
          {
            "astId": 624,
            "contract": "contracts/facets/TransferLimitFacet.sol:TransferLimitFacet",
            "label": "allTokens",
            "offset": 0,
            "slot": "10",
            "type": "t_array(t_uint256)dyn_storage"
          },
          {
            "astId": 628,
            "contract": "contracts/facets/TransferLimitFacet.sol:TransferLimitFacet",
            "label": "allTokensIndex",
            "offset": 0,
            "slot": "11",
            "type": "t_mapping(t_uint256,t_uint256)"
          },
          {
            "astId": 630,
            "contract": "contracts/facets/TransferLimitFacet.sol:TransferLimitFacet",
            "label": "init",
            "offset": 0,
            "slot": "12",
            "type": "t_bool"
          }
        ],
        "numberOfBytes": "416"
      },
      "t_struct(Fi)757_storage": {
        "encoding": "inplace",
        "label": "struct Fi",
        "members": [
          {
            "astId": 738,
            "contract": "contracts/facets/TransferLimitFacet.sol:TransferLimitFacet",
            "label": "claimedGross",
            "offset": 0,
            "slot": "0",
            "type": "t_uint256"
          },
          {
            "astId": 740,
            "contract": "contracts/facets/TransferLimitFacet.sol:TransferLimitFacet",
            "label": "claimedNet",
            "offset": 0,
            "slot": "1",
            "type": "t_uint256"
          },
          {
            "astId": 742,
            "contract": "contracts/facets/TransferLimitFacet.sol:TransferLimitFacet",
            "label": "stakedGross",
            "offset": 0,
            "slot": "2",
            "type": "t_uint256"
          },
          {
            "astId": 744,
            "contract": "contracts/facets/TransferLimitFacet.sol:TransferLimitFacet",
            "label": "stakedNet",
            "offset": 0,
            "slot": "3",
            "type": "t_uint256"
          },
          {
            "astId": 746,
            "contract": "contracts/facets/TransferLimitFacet.sol:TransferLimitFacet",
            "label": "unStakedGross",
            "offset": 0,
            "slot": "4",
            "type": "t_uint256"
          },
          {
            "astId": 748,
            "contract": "contracts/facets/TransferLimitFacet.sol:TransferLimitFacet",
            "label": "unStakedGrossUp",
            "offset": 0,
            "slot": "5",
            "type": "t_uint256"
          },
          {
            "astId": 750,
            "contract": "contracts/facets/TransferLimitFacet.sol:TransferLimitFacet",
            "label": "unStakedNet",
            "offset": 0,
            "slot": "6",
            "type": "t_uint256"
          },
          {
            "astId": 752,
            "contract": "contracts/facets/TransferLimitFacet.sol:TransferLimitFacet",
            "label": "donated",
            "offset": 0,
            "slot": "7",
            "type": "t_uint256"
          },
          {
            "astId": 754,
            "contract": "contracts/facets/TransferLimitFacet.sol:TransferLimitFacet",
            "label": "claimTaxPaid",
            "offset": 0,
            "slot": "8",
            "type": "t_uint256"
          },
          {
            "astId": 756,
            "contract": "contracts/facets/TransferLimitFacet.sol:TransferLimitFacet",
            "label": "vaultTaxPaid",
            "offset": 0,
            "slot": "9",
            "type": "t_uint256"
          }
        ],
        "numberOfBytes": "320"
      },
      "t_struct(Gem)772_storage": {
        "encoding": "inplace",
        "label": "struct Gem",
        "members": [
          {
            "astId": 759,
            "contract": "contracts/facets/TransferLimitFacet.sol:TransferLimitFacet",
            "label": "gemTypeId",
            "offset": 0,
            "slot": "0",
            "type": "t_uint8"
          },
          {
            "astId": 762,
            "contract": "contracts/facets/TransferLimitFacet.sol:TransferLimitFacet",
            "label": "booster",
            "offset": 1,
            "slot": "0",
            "type": "t_enum(Booster)736"
          },
          {
            "astId": 764,
            "contract": "contracts/facets/TransferLimitFacet.sol:TransferLimitFacet",
            "label": "mintTime",
            "offset": 2,
            "slot": "0",
            "type": "t_uint32"
          },
          {
            "astId": 766,
            "contract": "contracts/facets/TransferLimitFacet.sol:TransferLimitFacet",
            "label": "lastRewardWithdrawalTime",
            "offset": 6,
            "slot": "0",
            "type": "t_uint32"
          },
          {
            "astId": 768,
            "contract": "contracts/facets/TransferLimitFacet.sol:TransferLimitFacet",
            "label": "lastMaintenanceTime",
            "offset": 10,
            "slot": "0",
            "type": "t_uint32"
          },
          {
            "astId": 771,
            "contract": "contracts/facets/TransferLimitFacet.sol:TransferLimitFacet",
            "label": "fi",
            "offset": 0,
            "slot": "1",
            "type": "t_struct(Fi)757_storage"
          }
        ],
        "numberOfBytes": "352"
      },
      "t_struct(GemTypeConfig)709_storage": {
        "encoding": "inplace",
        "label": "struct GemTypeConfig",
        "members": [
          {
            "astId": 698,
            "contract": "contracts/facets/TransferLimitFacet.sol:TransferLimitFacet",
            "label": "maintenanceFeeDai",
            "offset": 0,
            "slot": "0",
            "type": "t_uint256"
          },
          {
            "astId": 700,
            "contract": "contracts/facets/TransferLimitFacet.sol:TransferLimitFacet",
            "label": "rewardAmountDefo",
            "offset": 0,
            "slot": "1",
            "type": "t_uint256"
          },
          {
            "astId": 704,
            "contract": "contracts/facets/TransferLimitFacet.sol:TransferLimitFacet",
            "label": "price",
            "offset": 0,
            "slot": "2",
            "type": "t_array(t_uint256)2_storage"
          },
          {
            "astId": 706,
            "contract": "contracts/facets/TransferLimitFacet.sol:TransferLimitFacet",
            "label": "taperRewardsThresholdDefo",
            "offset": 0,
            "slot": "4",
            "type": "t_uint256"
          },
          {
            "astId": 708,
            "contract": "contracts/facets/TransferLimitFacet.sol:TransferLimitFacet",
            "label": "maxMintsPerLimitWindow",
            "offset": 0,
            "slot": "5",
            "type": "t_uint8"
          }
        ],
        "numberOfBytes": "192"
      },
      "t_struct(GemTypeMintWindow)714_storage": {
        "encoding": "inplace",
        "label": "struct GemTypeMintWindow",
        "members": [
          {
            "astId": 711,
            "contract": "contracts/facets/TransferLimitFacet.sol:TransferLimitFacet",
            "label": "mintCount",
            "offset": 0,
            "slot": "0",
            "type": "t_uint256"
          },
          {
            "astId": 713,
            "contract": "contracts/facets/TransferLimitFacet.sol:TransferLimitFacet",
            "label": "endOfMintLimitWindow",
            "offset": 0,
            "slot": "1",
            "type": "t_uint32"
          }
        ],
        "numberOfBytes": "64"
      },
      "t_struct(ProtocolConfig)696_storage": {
        "encoding": "inplace",
        "label": "struct ProtocolConfig",
        "members": [
          {
            "astId": 660,
            "contract": "contracts/facets/TransferLimitFacet.sol:TransferLimitFacet",
            "label": "paymentTokens",
            "offset": 0,
            "slot": "0",
            "type": "t_array(t_contract(IERC20)185)2_storage"
          },
          {
            "astId": 664,
            "contract": "contracts/facets/TransferLimitFacet.sol:TransferLimitFacet",
            "label": "wallets",
            "offset": 0,
            "slot": "2",
            "type": "t_array(t_address)7_storage"
          },
          {
            "astId": 670,
            "contract": "contracts/facets/TransferLimitFacet.sol:TransferLimitFacet",
            "label": "incomeDistributionOnMint",
            "offset": 0,
            "slot": "9",
            "type": "t_array(t_array(t_uint256)3_storage)2_storage"
          },
          {
            "astId": 672,
            "contract": "contracts/facets/TransferLimitFacet.sol:TransferLimitFacet",
            "label": "maintenancePeriod",
            "offset": 0,
            "slot": "15",
            "type": "t_uint32"
          },
          {
            "astId": 674,
            "contract": "contracts/facets/TransferLimitFacet.sol:TransferLimitFacet",
            "label": "rewardPeriod",
            "offset": 4,
            "slot": "15",
            "type": "t_uint32"
          },
          {
            "astId": 676,
            "contract": "contracts/facets/TransferLimitFacet.sol:TransferLimitFacet",
            "label": "taxScaleSinceLastClaimPeriod",
            "offset": 8,
            "slot": "15",
            "type": "t_uint32"
          },
          {
            "astId": 680,
            "contract": "contracts/facets/TransferLimitFacet.sol:TransferLimitFacet",
            "label": "taxRates",
            "offset": 0,
            "slot": "16",
            "type": "t_array(t_uint256)5_storage"
          },
          {
            "astId": 682,
            "contract": "contracts/facets/TransferLimitFacet.sol:TransferLimitFacet",
            "label": "charityContributionRate",
            "offset": 0,
            "slot": "21",
            "type": "t_uint256"
          },
          {
            "astId": 684,
            "contract": "contracts/facets/TransferLimitFacet.sol:TransferLimitFacet",
            "label": "vaultWithdrawalTaxRate",
            "offset": 0,
            "slot": "22",
            "type": "t_uint256"
          },
          {
            "astId": 686,
            "contract": "contracts/facets/TransferLimitFacet.sol:TransferLimitFacet",
            "label": "taperRate",
            "offset": 0,
            "slot": "23",
            "type": "t_uint256"
          },
          {
            "astId": 688,
            "contract": "contracts/facets/TransferLimitFacet.sol:TransferLimitFacet",
            "label": "mintLock",
            "offset": 0,
            "slot": "24",
            "type": "t_bool"
          },
          {
            "astId": 690,
            "contract": "contracts/facets/TransferLimitFacet.sol:TransferLimitFacet",
            "label": "transferLock",
            "offset": 1,
            "slot": "24",
            "type": "t_bool"
          },
          {
            "astId": 692,
            "contract": "contracts/facets/TransferLimitFacet.sol:TransferLimitFacet",
            "label": "mintLimitWindow",
            "offset": 2,
            "slot": "24",
            "type": "t_uint32"
          },
          {
            "astId": 695,
            "contract": "contracts/facets/TransferLimitFacet.sol:TransferLimitFacet",
            "label": "defoTokenLimitConfig",
            "offset": 0,
            "slot": "25",
            "type": "t_struct(DefoTokenLimitConfig)655_storage"
          }
        ],
        "numberOfBytes": "896"
      },
      "t_uint256": {
        "encoding": "inplace",
        "label": "uint256",
        "numberOfBytes": "32"
      },
      "t_uint32": {
        "encoding": "inplace",
        "label": "uint32",
        "numberOfBytes": "4"
      },
      "t_uint8": {
        "encoding": "inplace",
        "label": "uint8",
        "numberOfBytes": "1"
      }
    }
  }
}