{
  "address": "0xd65b7A5FC3C5081b5dC331d1aff6493CCC161740",
  "abi": [
    {
      "anonymous": false,
      "inputs": [
        {
          "indexed": false,
          "internalType": "uint256",
          "name": "numberOfWinners",
          "type": "uint256"
        },
        {
          "indexed": false,
          "internalType": "uint32",
          "name": "lotteryStart",
          "type": "uint32"
        },
        {
          "indexed": false,
          "internalType": "uint32",
          "name": "periodicity",
          "type": "uint32"
        }
      ],
      "name": "LotteryConfigured",
      "type": "event"
    },
    {
      "anonymous": false,
      "inputs": [
        {
          "indexed": false,
          "internalType": "uint256[]",
          "name": "winners",
          "type": "uint256[]"
        }
      ],
      "name": "LotteryWinnersDetermined",
      "type": "event"
    },
    {
      "anonymous": false,
      "inputs": [
        {
          "indexed": true,
          "internalType": "address",
          "name": "user",
          "type": "address"
        },
        {
          "indexed": false,
          "internalType": "uint256",
          "name": "amountGross",
          "type": "uint256"
        },
        {
          "indexed": false,
          "internalType": "uint256",
          "name": "amountNet",
          "type": "uint256"
        }
      ],
      "name": "UnStaked",
      "type": "event"
    },
    {
      "inputs": [
        {
          "internalType": "uint256",
          "name": "_numberOfWinners",
          "type": "uint256"
        },
        {
          "internalType": "uint32",
          "name": "_lotteryStart",
          "type": "uint32"
        },
        {
          "internalType": "uint32",
          "name": "_periodicity",
          "type": "uint32"
        }
      ],
      "name": "configureLottery",
      "outputs": [],
      "stateMutability": "nonpayable",
      "type": "function"
    },
    {
      "inputs": [
        {
          "internalType": "uint256",
          "name": "_tokenId",
          "type": "uint256"
        }
      ],
      "name": "getStaked",
      "outputs": [
        {
          "internalType": "uint256",
          "name": "",
          "type": "uint256"
        }
      ],
      "stateMutability": "view",
      "type": "function"
    },
    {
      "inputs": [],
      "name": "getStakedAllGems",
      "outputs": [
        {
          "internalType": "uint256[]",
          "name": "tokenIds_",
          "type": "uint256[]"
        },
        {
          "internalType": "uint256[]",
          "name": "amounts_",
          "type": "uint256[]"
        }
      ],
      "stateMutability": "view",
      "type": "function"
    },
    {
      "inputs": [],
      "name": "getTotalStaked",
      "outputs": [
        {
          "internalType": "uint256",
          "name": "",
          "type": "uint256"
        }
      ],
      "stateMutability": "view",
      "type": "function"
    },
    {
      "inputs": [],
      "name": "getTotalStakedAllUsers",
      "outputs": [
        {
          "internalType": "uint256",
          "name": "",
          "type": "uint256"
        }
      ],
      "stateMutability": "view",
      "type": "function"
    },
    {
      "inputs": [
        {
          "internalType": "uint32",
          "name": "_timestamp",
          "type": "uint32"
        }
      ],
      "name": "lotteryWinners",
      "outputs": [
        {
          "internalType": "address[]",
          "name": "",
          "type": "address[]"
        }
      ],
      "stateMutability": "view",
      "type": "function"
    },
    {
      "inputs": [
        {
          "internalType": "uint256",
          "name": "_tokenId",
          "type": "uint256"
        },
        {
          "internalType": "uint256",
          "name": "_amount",
          "type": "uint256"
        }
      ],
      "name": "unStakeReward",
      "outputs": [],
      "stateMutability": "nonpayable",
      "type": "function"
    }
  ],
  "transactionHash": "0xdbec8b5f350b68df2e4f7f052496c6559c3ea3310e3a4d736542457322dba06f",
  "args": [],
  "numDeployments": 7,
  "solcInputHash": "313fcc61f600e4a46006002a7f30bc9d",
  "bytecode": "0x608060405234801561001057600080fd5b506116ba806100206000396000f3fe608060405234801561001057600080fd5b506004361061007d5760003560e01c8063400f79a61161005b578063400f79a6146100d8578063b70eafa4146100f6578063f61d7f5a14610126578063fac9101c146101455761007d565b80630917e7761461008257806309873d04146100a05780632db5814d146100bc575b600080fd5b61008a610175565b6040516100979190610e71565b60405180910390f35b6100ba60048036038101906100b59190610ef9565b61021e565b005b6100d660048036038101906100d19190610f4c565b610223565b005b6100e06106d4565b6040516100ed9190610e71565b60405180910390f35b610110600480360381019061010b9190610f8c565b6106f6565b60405161011d91906110a9565b60405180910390f35b61012e6106fd565b60405161013c929190611189565b60405180910390f35b61015f600480360381019061015a91906111c0565b61080b565b60405161016c9190610e71565b60405180910390f35b600080610180610857565b9050600060380160008273ffffffffffffffffffffffffffffffffffffffff1673ffffffffffffffffffffffffffffffffffffffff16815260200190815260200160002060040154600060380160008373ffffffffffffffffffffffffffffffffffffffff1673ffffffffffffffffffffffffffffffffffffffff16815260200190815260200160002060030154610218919061121c565b91505090565b505050565b8161022c610857565b73ffffffffffffffffffffffffffffffffffffffff166000602101600301600083815260200190815260200160002060009054906101000a900473ffffffffffffffffffffffffffffffffffffffff1673ffffffffffffffffffffffffffffffffffffffff16146102d2576040517f08c379a00000000000000000000000000000000000000000000000000000000081526004016102c9906112ad565b60405180910390fd5b60006102dc610857565b905060008060200160008681526020019081526020016000209050600081600101600401548260010160030154610313919061121c565b905084811015610358576040517f08c379a000000000000000000000000000000000000000000000000000000000815260040161034f9061133f565b60405180910390fd5b6000806000016000016001808111156103745761037361135f565b5b600281106103855761038461138e565b5b0160009054906101000a900473ffffffffffffffffffffffffffffffffffffffff16905060008060000160020190506103bc610e05565b878160800181815250506103d788600080016015015461090e565b8160a001818152505060006104048660000160019054906101000a900460ff166000800160160154610961565b905061041089826109fa565b826101200181815250508373ffffffffffffffffffffffffffffffffffffffff166323b872dd846005600681111561044b5761044a61135f565b5b6007811061045c5761045b61138e565b5b0160009054906101000a900473ffffffffffffffffffffffffffffffffffffffff1685600160068111156104935761049261135f565b5b600781106104a4576104a361138e565b5b0160009054906101000a900473ffffffffffffffffffffffffffffffffffffffff168561012001516040518463ffffffff1660e01b81526004016104ea939291906113cc565b6020604051808303816000875af1158015610509573d6000803e3d6000fd5b505050506040513d601f19601f8201168201806040525081019061052d919061143b565b508161012001518961053f919061121c565b8260c00181815250508373ffffffffffffffffffffffffffffffffffffffff166323b872dd84600560068111156105795761057861135f565b5b6007811061058a5761058961138e565b5b0160009054906101000a900473ffffffffffffffffffffffffffffffffffffffff1685600160068111156105c1576105c061135f565b5b600781106105d2576105d161138e565b5b0160009054906101000a900473ffffffffffffffffffffffffffffffffffffffff168560c001516040518463ffffffff1660e01b8152600401610617939291906113cc565b6020604051808303816000875af1158015610636573d6000803e3d6000fd5b505050506040513d601f19601f8201168201806040525081019061065a919061143b565b508673ffffffffffffffffffffffffffffffffffffffff167ff26c0304cc83daf500e1dc22ab2e3cf954b3d506d62e34d70cc054255079e39783608001518460c001516040516106ab929190611468565b60405180910390a26106c88a8884610a369092919063ffffffff16565b50505050505050505050565b600080602e01600401546000602e01600301546106f1919061121c565b905090565b6060919050565b606080600061070a610857565b905061071581610ac6565b9250825167ffffffffffffffff81111561073257610731611491565b5b6040519080825280602002602001820160405280156107605781602001602082028036833780820191505090505b50915060005b83518110156108055760008482815181106107845761078361138e565b5b60200260200101519050600060200160008281526020019081526020016000206001016004015460006020016000838152602001908152602001600020600101600301546107d2919061121c565b8483815181106107e5576107e461138e565b5b6020026020010181815250505080806107fd906114c0565b915050610766565b50509091565b6000806020016000838152602001908152602001600020600101600401546000602001600084815260200190815260200160002060010160030154610850919061121c565b9050919050565b60003073ffffffffffffffffffffffffffffffffffffffff16610878610c4a565b73ffffffffffffffffffffffffffffffffffffffff160361090757600080368080601f016020809104026020016040519081016040528093929190818152602001838380828437600081840152601f19601f820116905080830192505050505050509050600080369050905073ffffffffffffffffffffffffffffffffffffffff81830151169250505061090b565b3390505b90565b600080821161091e576000610959565b8160648061092c9190611508565b610936919061121c565b6064806109439190611508565b8461094e9190611508565b6109589190611591565b5b905092915050565b60006002808111156109765761097561135f565b5b8360028111156109895761098861135f565b5b036109b0576127106103e88361099f9190611508565b6109a99190611591565b90506109f4565b600160028111156109c4576109c361135f565b5b8360028111156109d7576109d661135f565b5b036109f0576002826109e99190611591565b90506109f4565b8190505b92915050565b6000808211610a0a576000610a2e565b606480610a179190611508565b8284610a239190611508565b610a2d9190611591565b5b905092915050565b6000610a40610c52565b905060008160200160008581526020019081526020016000209050610a6882602e0186610c57565b610a758160010186610c57565b610abf8260380160008573ffffffffffffffffffffffffffffffffffffffff1673ffffffffffffffffffffffffffffffffffffffff16815260200190815260200160002086610c57565b5050505050565b606060008060210160040160008473ffffffffffffffffffffffffffffffffffffffff1673ffffffffffffffffffffffffffffffffffffffff16815260200190815260200160002054905060008167ffffffffffffffff811115610b2d57610b2c611491565b5b604051908082528060200260200182016040528015610b5b5781602001602082028036833780820191505090505b50905060005b82811015610c3f5760008060210160080160008773ffffffffffffffffffffffffffffffffffffffff1673ffffffffffffffffffffffffffffffffffffffff1681526020019081526020016000206000838152602001908152602001600020549050610bcc81610d93565b610c0b576040517f08c379a0000000000000000000000000000000000000000000000000000000008152600401610c029061160e565b60405180910390fd5b80838381518110610c1f57610c1e61138e565b5b602002602001018181525050508080610c37906114c0565b915050610b61565b508092505050919050565b600033905090565b600090565b8060000151826000016000828254610c6f919061162e565b925050819055508060200151826001016000828254610c8e919061162e565b925050819055508060400151826002016000828254610cad919061162e565b925050819055508060600151826003016000828254610ccc919061162e565b925050819055508060800151826004016000828254610ceb919061162e565b925050819055508060a00151826005016000828254610d0a919061162e565b925050819055508060c00151826006016000828254610d29919061162e565b925050819055508060e00151826007016000828254610d48919061162e565b92505081905550806101000151826008016000828254610d68919061162e565b92505081905550806101200151826009016000828254610d88919061162e565b925050819055505050565b60008073ffffffffffffffffffffffffffffffffffffffff166000602101600301600084815260200190815260200160002060009054906101000a900473ffffffffffffffffffffffffffffffffffffffff1673ffffffffffffffffffffffffffffffffffffffff1614159050919050565b604051806101400160405280600081526020016000815260200160008152602001600081526020016000815260200160008152602001600081526020016000815260200160008152602001600081525090565b6000819050919050565b610e6b81610e58565b82525050565b6000602082019050610e866000830184610e62565b92915050565b600080fd5b610e9a81610e58565b8114610ea557600080fd5b50565b600081359050610eb781610e91565b92915050565b600063ffffffff82169050919050565b610ed681610ebd565b8114610ee157600080fd5b50565b600081359050610ef381610ecd565b92915050565b600080600060608486031215610f1257610f11610e8c565b5b6000610f2086828701610ea8565b9350506020610f3186828701610ee4565b9250506040610f4286828701610ee4565b9150509250925092565b60008060408385031215610f6357610f62610e8c565b5b6000610f7185828601610ea8565b9250506020610f8285828601610ea8565b9150509250929050565b600060208284031215610fa257610fa1610e8c565b5b6000610fb084828501610ee4565b91505092915050565b600081519050919050565b600082825260208201905092915050565b6000819050602082019050919050565b600073ffffffffffffffffffffffffffffffffffffffff82169050919050565b600061101082610fe5565b9050919050565b61102081611005565b82525050565b60006110328383611017565b60208301905092915050565b6000602082019050919050565b600061105682610fb9565b6110608185610fc4565b935061106b83610fd5565b8060005b8381101561109c5781516110838882611026565b975061108e8361103e565b92505060018101905061106f565b5085935050505092915050565b600060208201905081810360008301526110c3818461104b565b905092915050565b600081519050919050565b600082825260208201905092915050565b6000819050602082019050919050565b61110081610e58565b82525050565b600061111283836110f7565b60208301905092915050565b6000602082019050919050565b6000611136826110cb565b61114081856110d6565b935061114b836110e7565b8060005b8381101561117c5781516111638882611106565b975061116e8361111e565b92505060018101905061114f565b5085935050505092915050565b600060408201905081810360008301526111a3818561112b565b905081810360208301526111b7818461112b565b90509392505050565b6000602082840312156111d6576111d5610e8c565b5b60006111e484828501610ea8565b91505092915050565b7f4e487b7100000000000000000000000000000000000000000000000000000000600052601160045260246000fd5b600061122782610e58565b915061123283610e58565b925082821015611245576112446111ed565b5b828203905092915050565b600082825260208201905092915050565b7f596f7520646f6e2774206f776e20746869732067656d00000000000000000000600082015250565b6000611297601683611250565b91506112a282611261565b602082019050919050565b600060208201905081810360008301526112c68161128a565b9050919050565b7f4e6f7420656e6f75676820616d6f756e7420696e20746865207661756c74206660008201527f6f72207468652067656d00000000000000000000000000000000000000000000602082015250565b6000611329602a83611250565b9150611334826112cd565b604082019050919050565b600060208201905081810360008301526113588161131c565b9050919050565b7f4e487b7100000000000000000000000000000000000000000000000000000000600052602160045260246000fd5b7f4e487b7100000000000000000000000000000000000000000000000000000000600052603260045260246000fd5b6113c681611005565b82525050565b60006060820190506113e160008301866113bd565b6113ee60208301856113bd565b6113fb6040830184610e62565b949350505050565b60008115159050919050565b61141881611403565b811461142357600080fd5b50565b6000815190506114358161140f565b92915050565b60006020828403121561145157611450610e8c565b5b600061145f84828501611426565b91505092915050565b600060408201905061147d6000830185610e62565b61148a6020830184610e62565b9392505050565b7f4e487b7100000000000000000000000000000000000000000000000000000000600052604160045260246000fd5b60006114cb82610e58565b91507fffffffffffffffffffffffffffffffffffffffffffffffffffffffffffffffff82036114fd576114fc6111ed565b5b600182019050919050565b600061151382610e58565b915061151e83610e58565b9250817fffffffffffffffffffffffffffffffffffffffffffffffffffffffffffffffff0483118215151615611557576115566111ed565b5b828202905092915050565b7f4e487b7100000000000000000000000000000000000000000000000000000000600052601260045260246000fd5b600061159c82610e58565b91506115a783610e58565b9250826115b7576115b6611562565b5b828204905092915050565b7f412067656d20646f65736e277420657869737473000000000000000000000000600082015250565b60006115f8601483611250565b9150611603826115c2565b602082019050919050565b60006020820190508181036000830152611627816115eb565b9050919050565b600061163982610e58565b915061164483610e58565b9250827fffffffffffffffffffffffffffffffffffffffffffffffffffffffffffffffff03821115611679576116786111ed565b5b82820190509291505056fea2646970667358221220d2157f7581a9774e93ad792d4f12998924a5ab0549096e2a9b343f99e866e65d64736f6c634300080f0033",
  "devdoc": {
    "author": "Decentralized Foundation Team",
    "kind": "dev",
    "methods": {
      "configureLottery(uint256,uint32,uint32)": {
        "params": {
          "_lotteryStart": "lottery start moment to remember, blocktime format, zero for blocktime",
          "_numberOfWinners": "number of winners of the vault lottery",
          "_periodicity": "periodicity in seconds, initially weekly"
        }
      },
      "getStaked(uint256)": {
        "params": {
          "_tokenId": "yield gem id"
        },
        "returns": {
          "_0": "amount in DEFO (wei precision)"
        }
      },
      "getStakedAllGems()": {
        "returns": {
          "amounts_": "array of amounts (gross, currently in the vault)",
          "tokenIds_": "array of staked tokenIds"
        }
      },
      "getTotalStaked()": {
        "returns": {
          "_0": "amount in DEFO (wei precision)"
        }
      },
      "getTotalStakedAllUsers()": {
        "returns": {
          "_0": "amount in DEFO (wei precision)"
        }
      },
      "lotteryWinners(uint32)": {
        "details": "the ones related to the requested period are put to the storage to return the same number in the future",
        "params": {
          "_timestamp": "moment of the query, zero if now"
        },
        "returns": {
          "_0": "addresses of the lottery winners"
        }
      },
      "unStakeReward(uint256,uint256)": {
        "params": {
          "_amount": "amount to remove from the vault in DEFO (wei precision)",
          "_tokenId": "yield gem id"
        }
      }
    },
    "title": "VaultFacet EIP-2535 Diamond Facet",
    "version": 1
  },
  "userdoc": {
    "kind": "user",
    "methods": {
      "configureLottery(uint256,uint32,uint32)": {
        "notice": "vault lottery configuration"
      },
      "getStaked(uint256)": {
        "notice": "get DEFO amount currently in the vault for a specific yield gem"
      },
      "getStakedAllGems()": {
        "notice": "get DEFO amount currently in the vault for all user's yield gems"
      },
      "getTotalStaked()": {
        "notice": "get amount currently in the vault for sender"
      },
      "getTotalStakedAllUsers()": {
        "notice": "get amount currently in the vault for all protocol users"
      },
      "lotteryWinners(uint32)": {
        "notice": "gets lottery winners in the lottery interval containing _timestamp"
      },
      "unStakeReward(uint256,uint256)": {
        "notice": "remove DEFO amount from the vault back to the unclaimed rewards"
      }
    },
    "notice": "Vault functionality - unStake, lottery, and getters",
    "version": 1
  },
  "storageLayout": {
    "storage": [
      {
        "astId": 4283,
        "contract": "contracts/facets/VaultFacet.sol:VaultFacet",
        "label": "s",
        "offset": 0,
        "slot": "0",
        "type": "t_struct(AppStorage)4537_storage"
      }
    ],
    "types": {
      "t_address": {
        "encoding": "inplace",
        "label": "address",
        "numberOfBytes": "20"
      },
      "t_array(t_address)7_storage": {
        "base": "t_address",
        "encoding": "inplace",
        "label": "address[7]",
        "numberOfBytes": "224"
      },
      "t_array(t_array(t_uint256)3_storage)2_storage": {
        "base": "t_array(t_uint256)3_storage",
        "encoding": "inplace",
        "label": "uint256[3][2]",
        "numberOfBytes": "192"
      },
      "t_array(t_contract(IERC20)737)2_storage": {
        "base": "t_contract(IERC20)737",
        "encoding": "inplace",
        "label": "contract IERC20[2]",
        "numberOfBytes": "64"
      },
      "t_array(t_struct(GemTypeConfig)4429_storage)dyn_storage": {
        "base": "t_struct(GemTypeConfig)4429_storage",
        "encoding": "dynamic_array",
        "label": "struct GemTypeConfig[]",
        "numberOfBytes": "32"
      },
      "t_array(t_struct(GemTypeMintWindow)4434_storage)dyn_storage": {
        "base": "t_struct(GemTypeMintWindow)4434_storage",
        "encoding": "dynamic_array",
        "label": "struct GemTypeMintWindow[]",
        "numberOfBytes": "32"
      },
      "t_array(t_uint256)2_storage": {
        "base": "t_uint256",
        "encoding": "inplace",
        "label": "uint256[2]",
        "numberOfBytes": "64"
      },
      "t_array(t_uint256)3_storage": {
        "base": "t_uint256",
        "encoding": "inplace",
        "label": "uint256[3]",
        "numberOfBytes": "96"
      },
      "t_array(t_uint256)5_storage": {
        "base": "t_uint256",
        "encoding": "inplace",
        "label": "uint256[5]",
        "numberOfBytes": "160"
      },
      "t_array(t_uint256)dyn_storage": {
        "base": "t_uint256",
        "encoding": "dynamic_array",
        "label": "uint256[]",
        "numberOfBytes": "32"
      },
      "t_bool": {
        "encoding": "inplace",
        "label": "bool",
        "numberOfBytes": "1"
      },
      "t_contract(IERC20)737": {
        "encoding": "inplace",
        "label": "contract IERC20",
        "numberOfBytes": "20"
      },
      "t_enum(Booster)4456": {
        "encoding": "inplace",
        "label": "enum Booster",
        "numberOfBytes": "1"
      },
      "t_mapping(t_address,t_bool)": {
        "encoding": "mapping",
        "key": "t_address",
        "label": "mapping(address => bool)",
        "numberOfBytes": "32",
        "value": "t_bool"
      },
      "t_mapping(t_address,t_mapping(t_address,t_bool))": {
        "encoding": "mapping",
        "key": "t_address",
        "label": "mapping(address => mapping(address => bool))",
        "numberOfBytes": "32",
        "value": "t_mapping(t_address,t_bool)"
      },
      "t_mapping(t_address,t_mapping(t_uint256,t_uint256))": {
        "encoding": "mapping",
        "key": "t_address",
        "label": "mapping(address => mapping(uint256 => uint256))",
        "numberOfBytes": "32",
        "value": "t_mapping(t_uint256,t_uint256)"
      },
      "t_mapping(t_address,t_mapping(t_uint8,t_mapping(t_enum(Booster)4456,t_uint256)))": {
        "encoding": "mapping",
        "key": "t_address",
        "label": "mapping(address => mapping(uint8 => mapping(enum Booster => uint256)))",
        "numberOfBytes": "32",
        "value": "t_mapping(t_uint8,t_mapping(t_enum(Booster)4456,t_uint256))"
      },
      "t_mapping(t_address,t_struct(Fi)4477_storage)": {
        "encoding": "mapping",
        "key": "t_address",
        "label": "mapping(address => struct Fi)",
        "numberOfBytes": "32",
        "value": "t_struct(Fi)4477_storage"
      },
      "t_mapping(t_address,t_uint256)": {
        "encoding": "mapping",
        "key": "t_address",
        "label": "mapping(address => uint256)",
        "numberOfBytes": "32",
        "value": "t_uint256"
      },
      "t_mapping(t_enum(Booster)4456,t_uint256)": {
        "encoding": "mapping",
        "key": "t_enum(Booster)4456",
        "label": "mapping(enum Booster => uint256)",
        "numberOfBytes": "32",
        "value": "t_uint256"
      },
      "t_mapping(t_uint256,t_address)": {
        "encoding": "mapping",
        "key": "t_uint256",
        "label": "mapping(uint256 => address)",
        "numberOfBytes": "32",
        "value": "t_address"
      },
      "t_mapping(t_uint256,t_struct(Gem)4494_storage)": {
        "encoding": "mapping",
        "key": "t_uint256",
        "label": "mapping(uint256 => struct Gem)",
        "numberOfBytes": "32",
        "value": "t_struct(Gem)4494_storage"
      },
      "t_mapping(t_uint256,t_uint256)": {
        "encoding": "mapping",
        "key": "t_uint256",
        "label": "mapping(uint256 => uint256)",
        "numberOfBytes": "32",
        "value": "t_uint256"
      },
      "t_mapping(t_uint8,t_mapping(t_enum(Booster)4456,t_uint256))": {
        "encoding": "mapping",
        "key": "t_uint8",
        "label": "mapping(uint8 => mapping(enum Booster => uint256))",
        "numberOfBytes": "32",
        "value": "t_mapping(t_enum(Booster)4456,t_uint256)"
      },
      "t_string_storage": {
        "encoding": "bytes",
        "label": "string",
        "numberOfBytes": "32"
      },
      "t_struct(AppStorage)4537_storage": {
        "encoding": "inplace",
        "label": "struct AppStorage",
        "members": [
          {
            "astId": 4497,
            "contract": "contracts/facets/VaultFacet.sol:VaultFacet",
            "label": "config",
            "offset": 0,
            "slot": "0",
            "type": "t_struct(ProtocolConfig)4416_storage"
          },
          {
            "astId": 4501,
            "contract": "contracts/facets/VaultFacet.sol:VaultFacet",
            "label": "gemTypes",
            "offset": 0,
            "slot": "28",
            "type": "t_array(t_struct(GemTypeConfig)4429_storage)dyn_storage"
          },
          {
            "astId": 4505,
            "contract": "contracts/facets/VaultFacet.sol:VaultFacet",
            "label": "gemTypesMintWindows",
            "offset": 0,
            "slot": "29",
            "type": "t_array(t_struct(GemTypeMintWindow)4434_storage)dyn_storage"
          },
          {
            "astId": 4508,
            "contract": "contracts/facets/VaultFacet.sol:VaultFacet",
            "label": "defoTokenLimitWindow",
            "offset": 0,
            "slot": "30",
            "type": "t_struct(DEFOTokenLimitWindow)4443_storage"
          },
          {
            "astId": 4513,
            "contract": "contracts/facets/VaultFacet.sol:VaultFacet",
            "label": "gems",
            "offset": 0,
            "slot": "32",
            "type": "t_mapping(t_uint256,t_struct(Gem)4494_storage)"
          },
          {
            "astId": 4516,
            "contract": "contracts/facets/VaultFacet.sol:VaultFacet",
            "label": "nft",
            "offset": 0,
            "slot": "33",
            "type": "t_struct(ERC721Storage)4351_storage"
          },
          {
            "astId": 4519,
            "contract": "contracts/facets/VaultFacet.sol:VaultFacet",
            "label": "total",
            "offset": 0,
            "slot": "46",
            "type": "t_struct(Fi)4477_storage"
          },
          {
            "astId": 4524,
            "contract": "contracts/facets/VaultFacet.sol:VaultFacet",
            "label": "usersFi",
            "offset": 0,
            "slot": "56",
            "type": "t_mapping(t_address,t_struct(Fi)4477_storage)"
          },
          {
            "astId": 4533,
            "contract": "contracts/facets/VaultFacet.sol:VaultFacet",
            "label": "usersNextGemBooster",
            "offset": 0,
            "slot": "57",
            "type": "t_mapping(t_address,t_mapping(t_uint8,t_mapping(t_enum(Booster)4456,t_uint256)))"
          },
          {
            "astId": 4536,
            "contract": "contracts/facets/VaultFacet.sol:VaultFacet",
            "label": "defoTokenLimitPerRewards",
            "offset": 0,
            "slot": "58",
            "type": "t_struct(DEFOTokenLimitPerRewards)4452_storage"
          }
        ],
        "numberOfBytes": "1920"
      },
      "t_struct(Counter)2737_storage": {
        "encoding": "inplace",
        "label": "struct Counters.Counter",
        "members": [
          {
            "astId": 2736,
            "contract": "contracts/facets/VaultFacet.sol:VaultFacet",
            "label": "_value",
            "offset": 0,
            "slot": "0",
            "type": "t_uint256"
          }
        ],
        "numberOfBytes": "32"
      },
      "t_struct(DEFOTokenLimitPerRewards)4452_storage": {
        "encoding": "inplace",
        "label": "struct DEFOTokenLimitPerRewards",
        "members": [
          {
            "astId": 4447,
            "contract": "contracts/facets/VaultFacet.sol:VaultFacet",
            "label": "tokensSold",
            "offset": 0,
            "slot": "0",
            "type": "t_mapping(t_address,t_uint256)"
          },
          {
            "astId": 4451,
            "contract": "contracts/facets/VaultFacet.sol:VaultFacet",
            "label": "timeOfWindowStart",
            "offset": 0,
            "slot": "1",
            "type": "t_mapping(t_address,t_uint256)"
          }
        ],
        "numberOfBytes": "64"
      },
      "t_struct(DEFOTokenLimitWindow)4443_storage": {
        "encoding": "inplace",
        "label": "struct DEFOTokenLimitWindow",
        "members": [
          {
            "astId": 4438,
            "contract": "contracts/facets/VaultFacet.sol:VaultFacet",
            "label": "tokensSold",
            "offset": 0,
            "slot": "0",
            "type": "t_mapping(t_address,t_uint256)"
          },
          {
            "astId": 4442,
            "contract": "contracts/facets/VaultFacet.sol:VaultFacet",
            "label": "timeOfLastSale",
            "offset": 0,
            "slot": "1",
            "type": "t_mapping(t_address,t_uint256)"
          }
        ],
        "numberOfBytes": "64"
      },
      "t_struct(DefoTokenLimitConfig)4375_storage": {
        "encoding": "inplace",
        "label": "struct DefoTokenLimitConfig",
        "members": [
          {
            "astId": 4370,
            "contract": "contracts/facets/VaultFacet.sol:VaultFacet",
            "label": "saleLimitPeriod",
            "offset": 0,
            "slot": "0",
            "type": "t_uint256"
          },
          {
            "astId": 4372,
            "contract": "contracts/facets/VaultFacet.sol:VaultFacet",
            "label": "saleLimitAmount",
            "offset": 0,
            "slot": "1",
            "type": "t_uint256"
          },
          {
            "astId": 4374,
            "contract": "contracts/facets/VaultFacet.sol:VaultFacet",
            "label": "limitByReward",
            "offset": 0,
            "slot": "2",
            "type": "t_bool"
          }
        ],
        "numberOfBytes": "96"
      },
      "t_struct(ERC721Storage)4351_storage": {
        "encoding": "inplace",
        "label": "struct ERC721Storage",
        "members": [
          {
            "astId": 4306,
            "contract": "contracts/facets/VaultFacet.sol:VaultFacet",
            "label": "name",
            "offset": 0,
            "slot": "0",
            "type": "t_string_storage"
          },
          {
            "astId": 4308,
            "contract": "contracts/facets/VaultFacet.sol:VaultFacet",
            "label": "symbol",
            "offset": 0,
            "slot": "1",
            "type": "t_string_storage"
          },
          {
            "astId": 4311,
            "contract": "contracts/facets/VaultFacet.sol:VaultFacet",
            "label": "tokenIdTracker",
            "offset": 0,
            "slot": "2",
            "type": "t_struct(Counter)2737_storage"
          },
          {
            "astId": 4315,
            "contract": "contracts/facets/VaultFacet.sol:VaultFacet",
            "label": "owners",
            "offset": 0,
            "slot": "3",
            "type": "t_mapping(t_uint256,t_address)"
          },
          {
            "astId": 4319,
            "contract": "contracts/facets/VaultFacet.sol:VaultFacet",
            "label": "balances",
            "offset": 0,
            "slot": "4",
            "type": "t_mapping(t_address,t_uint256)"
          },
          {
            "astId": 4323,
            "contract": "contracts/facets/VaultFacet.sol:VaultFacet",
            "label": "tokenApprovals",
            "offset": 0,
            "slot": "5",
            "type": "t_mapping(t_uint256,t_address)"
          },
          {
            "astId": 4329,
            "contract": "contracts/facets/VaultFacet.sol:VaultFacet",
            "label": "operatorApprovals",
            "offset": 0,
            "slot": "6",
            "type": "t_mapping(t_address,t_mapping(t_address,t_bool))"
          },
          {
            "astId": 4331,
            "contract": "contracts/facets/VaultFacet.sol:VaultFacet",
            "label": "baseURI",
            "offset": 0,
            "slot": "7",
            "type": "t_string_storage"
          },
          {
            "astId": 4337,
            "contract": "contracts/facets/VaultFacet.sol:VaultFacet",
            "label": "ownedTokens",
            "offset": 0,
            "slot": "8",
            "type": "t_mapping(t_address,t_mapping(t_uint256,t_uint256))"
          },
          {
            "astId": 4341,
            "contract": "contracts/facets/VaultFacet.sol:VaultFacet",
            "label": "ownedTokensIndex",
            "offset": 0,
            "slot": "9",
            "type": "t_mapping(t_uint256,t_uint256)"
          },
          {
            "astId": 4344,
            "contract": "contracts/facets/VaultFacet.sol:VaultFacet",
            "label": "allTokens",
            "offset": 0,
            "slot": "10",
            "type": "t_array(t_uint256)dyn_storage"
          },
          {
            "astId": 4348,
            "contract": "contracts/facets/VaultFacet.sol:VaultFacet",
            "label": "allTokensIndex",
            "offset": 0,
            "slot": "11",
            "type": "t_mapping(t_uint256,t_uint256)"
          },
          {
            "astId": 4350,
            "contract": "contracts/facets/VaultFacet.sol:VaultFacet",
            "label": "init",
            "offset": 0,
            "slot": "12",
            "type": "t_bool"
          }
        ],
        "numberOfBytes": "416"
      },
      "t_struct(Fi)4477_storage": {
        "encoding": "inplace",
        "label": "struct Fi",
        "members": [
          {
            "astId": 4458,
            "contract": "contracts/facets/VaultFacet.sol:VaultFacet",
            "label": "claimedGross",
            "offset": 0,
            "slot": "0",
            "type": "t_uint256"
          },
          {
            "astId": 4460,
            "contract": "contracts/facets/VaultFacet.sol:VaultFacet",
            "label": "claimedNet",
            "offset": 0,
            "slot": "1",
            "type": "t_uint256"
          },
          {
            "astId": 4462,
            "contract": "contracts/facets/VaultFacet.sol:VaultFacet",
            "label": "stakedGross",
            "offset": 0,
            "slot": "2",
            "type": "t_uint256"
          },
          {
            "astId": 4464,
            "contract": "contracts/facets/VaultFacet.sol:VaultFacet",
            "label": "stakedNet",
            "offset": 0,
            "slot": "3",
            "type": "t_uint256"
          },
          {
            "astId": 4466,
            "contract": "contracts/facets/VaultFacet.sol:VaultFacet",
            "label": "unStakedGross",
            "offset": 0,
            "slot": "4",
            "type": "t_uint256"
          },
          {
            "astId": 4468,
            "contract": "contracts/facets/VaultFacet.sol:VaultFacet",
            "label": "unStakedGrossUp",
            "offset": 0,
            "slot": "5",
            "type": "t_uint256"
          },
          {
            "astId": 4470,
            "contract": "contracts/facets/VaultFacet.sol:VaultFacet",
            "label": "unStakedNet",
            "offset": 0,
            "slot": "6",
            "type": "t_uint256"
          },
          {
            "astId": 4472,
            "contract": "contracts/facets/VaultFacet.sol:VaultFacet",
            "label": "donated",
            "offset": 0,
            "slot": "7",
            "type": "t_uint256"
          },
          {
            "astId": 4474,
            "contract": "contracts/facets/VaultFacet.sol:VaultFacet",
            "label": "claimTaxPaid",
            "offset": 0,
            "slot": "8",
            "type": "t_uint256"
          },
          {
            "astId": 4476,
            "contract": "contracts/facets/VaultFacet.sol:VaultFacet",
            "label": "vaultTaxPaid",
            "offset": 0,
            "slot": "9",
            "type": "t_uint256"
          }
        ],
        "numberOfBytes": "320"
      },
      "t_struct(Gem)4494_storage": {
        "encoding": "inplace",
        "label": "struct Gem",
        "members": [
          {
            "astId": 4479,
            "contract": "contracts/facets/VaultFacet.sol:VaultFacet",
            "label": "gemTypeId",
            "offset": 0,
            "slot": "0",
            "type": "t_uint8"
          },
          {
            "astId": 4482,
            "contract": "contracts/facets/VaultFacet.sol:VaultFacet",
            "label": "booster",
            "offset": 1,
            "slot": "0",
            "type": "t_enum(Booster)4456"
          },
          {
            "astId": 4484,
            "contract": "contracts/facets/VaultFacet.sol:VaultFacet",
            "label": "mintTime",
            "offset": 2,
            "slot": "0",
            "type": "t_uint32"
          },
          {
            "astId": 4486,
            "contract": "contracts/facets/VaultFacet.sol:VaultFacet",
            "label": "lastRewardWithdrawalTime",
            "offset": 6,
            "slot": "0",
            "type": "t_uint32"
          },
          {
            "astId": 4488,
            "contract": "contracts/facets/VaultFacet.sol:VaultFacet",
            "label": "lastMaintenanceTime",
            "offset": 10,
            "slot": "0",
            "type": "t_uint32"
          },
          {
            "astId": 4491,
            "contract": "contracts/facets/VaultFacet.sol:VaultFacet",
            "label": "fi",
            "offset": 0,
            "slot": "1",
            "type": "t_struct(Fi)4477_storage"
          },
          {
            "astId": 4493,
            "contract": "contracts/facets/VaultFacet.sol:VaultFacet",
            "label": "presold",
            "offset": 0,
            "slot": "11",
            "type": "t_bool"
          }
        ],
        "numberOfBytes": "384"
      },
      "t_struct(GemTypeConfig)4429_storage": {
        "encoding": "inplace",
        "label": "struct GemTypeConfig",
        "members": [
          {
            "astId": 4418,
            "contract": "contracts/facets/VaultFacet.sol:VaultFacet",
            "label": "maintenanceFeeDai",
            "offset": 0,
            "slot": "0",
            "type": "t_uint256"
          },
          {
            "astId": 4420,
            "contract": "contracts/facets/VaultFacet.sol:VaultFacet",
            "label": "rewardAmountDefo",
            "offset": 0,
            "slot": "1",
            "type": "t_uint256"
          },
          {
            "astId": 4424,
            "contract": "contracts/facets/VaultFacet.sol:VaultFacet",
            "label": "price",
            "offset": 0,
            "slot": "2",
            "type": "t_array(t_uint256)2_storage"
          },
          {
            "astId": 4426,
            "contract": "contracts/facets/VaultFacet.sol:VaultFacet",
            "label": "taperRewardsThresholdDefo",
            "offset": 0,
            "slot": "4",
            "type": "t_uint256"
          },
          {
            "astId": 4428,
            "contract": "contracts/facets/VaultFacet.sol:VaultFacet",
            "label": "maxMintsPerLimitWindow",
            "offset": 0,
            "slot": "5",
            "type": "t_uint8"
          }
        ],
        "numberOfBytes": "192"
      },
      "t_struct(GemTypeMintWindow)4434_storage": {
        "encoding": "inplace",
        "label": "struct GemTypeMintWindow",
        "members": [
          {
            "astId": 4431,
            "contract": "contracts/facets/VaultFacet.sol:VaultFacet",
            "label": "mintCount",
            "offset": 0,
            "slot": "0",
            "type": "t_uint256"
          },
          {
            "astId": 4433,
            "contract": "contracts/facets/VaultFacet.sol:VaultFacet",
            "label": "endOfMintLimitWindow",
            "offset": 0,
            "slot": "1",
            "type": "t_uint32"
          }
        ],
        "numberOfBytes": "64"
      },
      "t_struct(ProtocolConfig)4416_storage": {
        "encoding": "inplace",
        "label": "struct ProtocolConfig",
        "members": [
          {
            "astId": 4380,
            "contract": "contracts/facets/VaultFacet.sol:VaultFacet",
            "label": "paymentTokens",
            "offset": 0,
            "slot": "0",
            "type": "t_array(t_contract(IERC20)737)2_storage"
          },
          {
            "astId": 4384,
            "contract": "contracts/facets/VaultFacet.sol:VaultFacet",
            "label": "wallets",
            "offset": 0,
            "slot": "2",
            "type": "t_array(t_address)7_storage"
          },
          {
            "astId": 4390,
            "contract": "contracts/facets/VaultFacet.sol:VaultFacet",
            "label": "incomeDistributionOnMint",
            "offset": 0,
            "slot": "9",
            "type": "t_array(t_array(t_uint256)3_storage)2_storage"
          },
          {
            "astId": 4392,
            "contract": "contracts/facets/VaultFacet.sol:VaultFacet",
            "label": "maintenancePeriod",
            "offset": 0,
            "slot": "15",
            "type": "t_uint32"
          },
          {
            "astId": 4394,
            "contract": "contracts/facets/VaultFacet.sol:VaultFacet",
            "label": "rewardPeriod",
            "offset": 4,
            "slot": "15",
            "type": "t_uint32"
          },
          {
            "astId": 4396,
            "contract": "contracts/facets/VaultFacet.sol:VaultFacet",
            "label": "taxScaleSinceLastClaimPeriod",
            "offset": 8,
            "slot": "15",
            "type": "t_uint32"
          },
          {
            "astId": 4400,
            "contract": "contracts/facets/VaultFacet.sol:VaultFacet",
            "label": "taxRates",
            "offset": 0,
            "slot": "16",
            "type": "t_array(t_uint256)5_storage"
          },
          {
            "astId": 4402,
            "contract": "contracts/facets/VaultFacet.sol:VaultFacet",
            "label": "charityContributionRate",
            "offset": 0,
            "slot": "21",
            "type": "t_uint256"
          },
          {
            "astId": 4404,
            "contract": "contracts/facets/VaultFacet.sol:VaultFacet",
            "label": "vaultWithdrawalTaxRate",
            "offset": 0,
            "slot": "22",
            "type": "t_uint256"
          },
          {
            "astId": 4406,
            "contract": "contracts/facets/VaultFacet.sol:VaultFacet",
            "label": "taperRate",
            "offset": 0,
            "slot": "23",
            "type": "t_uint256"
          },
          {
            "astId": 4408,
            "contract": "contracts/facets/VaultFacet.sol:VaultFacet",
            "label": "mintLock",
            "offset": 0,
            "slot": "24",
            "type": "t_bool"
          },
          {
            "astId": 4410,
            "contract": "contracts/facets/VaultFacet.sol:VaultFacet",
            "label": "transferLock",
            "offset": 1,
            "slot": "24",
            "type": "t_bool"
          },
          {
            "astId": 4412,
            "contract": "contracts/facets/VaultFacet.sol:VaultFacet",
            "label": "mintLimitWindow",
            "offset": 2,
            "slot": "24",
            "type": "t_uint32"
          },
          {
            "astId": 4415,
            "contract": "contracts/facets/VaultFacet.sol:VaultFacet",
            "label": "defoTokenLimitConfig",
            "offset": 0,
            "slot": "25",
            "type": "t_struct(DefoTokenLimitConfig)4375_storage"
          }
        ],
        "numberOfBytes": "896"
      },
      "t_uint256": {
        "encoding": "inplace",
        "label": "uint256",
        "numberOfBytes": "32"
      },
      "t_uint32": {
        "encoding": "inplace",
        "label": "uint32",
        "numberOfBytes": "4"
      },
      "t_uint8": {
        "encoding": "inplace",
        "label": "uint8",
        "numberOfBytes": "1"
      }
    }
  }
}