{
  "address": "0x8198C1968d6B813CF6A3DC9d87b3Dd2169F338D8",
  "abi": [
    {
      "anonymous": false,
      "inputs": [
        {
          "indexed": false,
          "internalType": "uint256",
          "name": "numberOfWinners",
          "type": "uint256"
        },
        {
          "indexed": false,
          "internalType": "uint32",
          "name": "lotteryStart",
          "type": "uint32"
        },
        {
          "indexed": false,
          "internalType": "uint32",
          "name": "periodicity",
          "type": "uint32"
        }
      ],
      "name": "LotteryConfigured",
      "type": "event"
    },
    {
      "anonymous": false,
      "inputs": [
        {
          "indexed": false,
          "internalType": "uint256[]",
          "name": "winners",
          "type": "uint256[]"
        }
      ],
      "name": "LotteryWinnersDetermined",
      "type": "event"
    },
    {
      "anonymous": false,
      "inputs": [
        {
          "indexed": true,
          "internalType": "address",
          "name": "user",
          "type": "address"
        },
        {
          "indexed": false,
          "internalType": "uint256",
          "name": "amountGross",
          "type": "uint256"
        },
        {
          "indexed": false,
          "internalType": "uint256",
          "name": "amountNet",
          "type": "uint256"
        }
      ],
      "name": "UnStaked",
      "type": "event"
    },
    {
      "inputs": [
        {
          "internalType": "uint256",
          "name": "_numberOfWinners",
          "type": "uint256"
        },
        {
          "internalType": "uint32",
          "name": "_lotteryStart",
          "type": "uint32"
        },
        {
          "internalType": "uint32",
          "name": "_periodicity",
          "type": "uint32"
        }
      ],
      "name": "configureLottery",
      "outputs": [],
      "stateMutability": "nonpayable",
      "type": "function"
    },
    {
      "inputs": [
        {
          "internalType": "uint256",
          "name": "_tokenId",
          "type": "uint256"
        }
      ],
      "name": "getStaked",
      "outputs": [
        {
          "internalType": "uint256",
          "name": "",
          "type": "uint256"
        }
      ],
      "stateMutability": "view",
      "type": "function"
    },
    {
      "inputs": [],
      "name": "getStakedAllGems",
      "outputs": [
        {
          "internalType": "uint256[]",
          "name": "tokenIds_",
          "type": "uint256[]"
        },
        {
          "internalType": "uint256[]",
          "name": "amounts_",
          "type": "uint256[]"
        }
      ],
      "stateMutability": "view",
      "type": "function"
    },
    {
      "inputs": [],
      "name": "getTotalStaked",
      "outputs": [
        {
          "internalType": "uint256",
          "name": "",
          "type": "uint256"
        }
      ],
      "stateMutability": "view",
      "type": "function"
    },
    {
      "inputs": [],
      "name": "getTotalStakedAllUsers",
      "outputs": [
        {
          "internalType": "uint256",
          "name": "",
          "type": "uint256"
        }
      ],
      "stateMutability": "view",
      "type": "function"
    },
    {
      "inputs": [
        {
          "internalType": "uint32",
          "name": "_timestamp",
          "type": "uint32"
        }
      ],
      "name": "lotteryWinners",
      "outputs": [
        {
          "internalType": "address[]",
          "name": "",
          "type": "address[]"
        }
      ],
      "stateMutability": "view",
      "type": "function"
    },
    {
      "inputs": [
        {
          "internalType": "uint256",
          "name": "_tokenId",
          "type": "uint256"
        },
        {
          "internalType": "uint256",
          "name": "_amount",
          "type": "uint256"
        }
      ],
      "name": "unStakeReward",
      "outputs": [],
      "stateMutability": "nonpayable",
      "type": "function"
    }
  ],
  "transactionHash": "0x634e3cf5ef597e32d938388c3f4de4f8774ddc92d17788bd3aae74f0ce3f4778",
  "args": [],
  "numDeployments": 11,
  "solcInputHash": "3a4cd3c9fdd0f89f0007c4290696b172",
  "bytecode": "0x608060405234801561001057600080fd5b50610c64806100206000396000f3fe608060405234801561001057600080fd5b506004361061007d5760003560e01c8063400f79a61161005b578063400f79a6146100c5578063b70eafa4146100cd578063f61d7f5a146100ee578063fac9101c1461010457600080fd5b80630917e7761461008257806309873d041461009d5780632db5814d146100b2575b600080fd5b61008a610117565b6040519081526020015b60405180910390f35b6100b06100ab3660046109e3565b505050565b005b6100b06100c0366004610a1f565b610157565b61008a6104c8565b6100e16100db366004610a41565b50606090565b6040516100949190610a5c565b6100f66104df565b604051610094929190610ae4565b61008a610112366004610b12565b6105c5565b6000806101226105ed565b6001600160a01b0381166000908152603860205260409020600481015460039091015491925061015191610b41565b91505090565b816101606105ed565b6000828152602460205260409020546001600160a01b039081169116146101ce5760405162461bcd60e51b815260206004820152601660248201527f596f7520646f6e2774206f776e20746869732067656d0000000000000000000060448201526064015b60405180910390fd5b60006101d86105ed565b600085815260208052604081206005810154600482015493945090926101fe9190610b41565b9050848110156102635760405162461bcd60e51b815260206004820152602a60248201527f4e6f7420656e6f75676820616d6f756e7420696e20746865207661756c7420666044820152696f72207468652067656d60b01b60648201526084016101c5565b60015460408051610140810182526000808252602082018190529181018290526060810182905260a0810182905260c0810182905260e081018290526101008101829052610120810191909152608081018790526015546001600160a01b0390921691600291906102d5908990610649565b60a082015284546016546000916102f59161010090910460ff1690610695565b905061030189826106fb565b6101208301526001600160a01b0384166323b872dd84600501546001600160a01b0316856001015461012086015160405160e085901b6001600160e01b03191681526001600160a01b03938416600482015292909116602483015260448201526064016020604051808303816000875af1158015610383573d6000803e3d6000fd5b505050506040513d601f19601f820116820180604052508101906103a79190610b84565b506101208201516103b8908a610b41565b60c08301526001600160a01b0384166323b872dd84600501546001600160a01b0316856001015460c086015160405160e085901b6001600160e01b03191681526001600160a01b03938416600482015292909116602483015260448201526064016020604051808303816000875af1158015610438573d6000803e3d6000fd5b505050506040513d601f19601f8201168201806040525081019061045c9190610b84565b50866001600160a01b03167ff26c0304cc83daf500e1dc22ab2e3cf954b3d506d62e34d70cc054255079e39783608001518460c001516040516104a9929190918252602082015260400190565b60405180910390a26104bc828b89610720565b50505050505050505050565b6032546031546000916104da91610b41565b905090565b60608060006104ec6105ed565b90506104f781610770565b9250825167ffffffffffffffff81111561051357610513610ba6565b60405190808252806020026020018201604052801561053c578160200160208202803683370190505b50915060005b83518110156105bf57600084828151811061055f5761055f610b6e565b60209081029190910181015160008181529180526040909120600581015460049091015491925061058f91610b41565b8483815181106105a1576105a1610b6e565b602090810291909101015250806105b781610bbc565b915050610542565b50509091565b6000818152602080526040812060058101546004909101546105e79190610b41565b92915050565b600030330361064357600080368080601f0160208091040260200160405190810160405280939291908181526020018383808284376000920191909152505050503601516001600160a01b031691506106469050565b50335b90565b600080821161065957600061068e565b81610665606480610bd5565b61066f9190610b41565b61067a606480610bd5565b6106849085610bd5565b61068e9190610bf4565b9392505050565b600060028360028111156106ab576106ab610b58565b036106d0576127106106bf836103e8610bd5565b6106c99190610bf4565b90506105e7565b60018360028111156106e4576106e4610b58565b036106f4576106c9600283610bf4565b50806105e7565b600080821161070b57600061068e565b610716606480610bd5565b6106848385610bd5565b60008281526020805260408120610738602e8661089d565b610745816001018661089d565b6001600160a01b03831660009081526038830160205260409020610769908661089d565b5050505050565b6001600160a01b0381166000908152602560205260408120546060918167ffffffffffffffff8111156107a5576107a5610ba6565b6040519080825280602002602001820160405280156107ce578160200160208202803683370190505b50905060005b82811015610895576001600160a01b0385166000908152602960209081526040808320848452909152902054610821816000908152602460205260409020546001600160a01b0316151590565b6108645760405162461bcd60e51b8152602060048201526014602482015273412067656d20646f65736e27742065786973747360601b60448201526064016101c5565b8083838151811061087757610877610b6e565b6020908102919091010152508061088d81610bbc565b9150506107d4565b509392505050565b8051825483906000906108b1908490610c16565b909155505060208101516001830180546000906108cf908490610c16565b909155505060408101516002830180546000906108ed908490610c16565b9091555050606081015160038301805460009061090b908490610c16565b90915550506080810151600483018054600090610929908490610c16565b909155505060a0810151600583018054600090610947908490610c16565b909155505060c0810151600683018054600090610965908490610c16565b909155505060e0810151600783018054600090610983908490610c16565b90915550506101008101516008830180546000906109a2908490610c16565b90915550506101208101516009830180546000906109c1908490610c16565b90915550505050565b803563ffffffff811681146109de57600080fd5b919050565b6000806000606084860312156109f857600080fd5b83359250610a08602085016109ca565b9150610a16604085016109ca565b90509250925092565b60008060408385031215610a3257600080fd5b50508035926020909101359150565b600060208284031215610a5357600080fd5b61068e826109ca565b6020808252825182820181905260009190848201906040850190845b81811015610a9d5783516001600160a01b031683529284019291840191600101610a78565b50909695505050505050565b600081518084526020808501945080840160005b83811015610ad957815187529582019590820190600101610abd565b509495945050505050565b604081526000610af76040830185610aa9565b8281036020840152610b098185610aa9565b95945050505050565b600060208284031215610b2457600080fd5b5035919050565b634e487b7160e01b600052601160045260246000fd5b600082821015610b5357610b53610b2b565b500390565b634e487b7160e01b600052602160045260246000fd5b634e487b7160e01b600052603260045260246000fd5b600060208284031215610b9657600080fd5b8151801515811461068e57600080fd5b634e487b7160e01b600052604160045260246000fd5b600060018201610bce57610bce610b2b565b5060010190565b6000816000190483118215151615610bef57610bef610b2b565b500290565b600082610c1157634e487b7160e01b600052601260045260246000fd5b500490565b60008219821115610c2957610c29610b2b565b50019056fea26469706673582212205dfec1f758c1f155fb04601058cba4559688c4b60fd0eb39fdabd689f9d35fef64736f6c634300080f0033",
  "devdoc": {
    "author": "Decentralized Foundation Team",
    "kind": "dev",
    "methods": {
      "configureLottery(uint256,uint32,uint32)": {
        "params": {
          "_lotteryStart": "lottery start moment to remember, blocktime format, zero for blocktime",
          "_numberOfWinners": "number of winners of the vault lottery",
          "_periodicity": "periodicity in seconds, initially weekly"
        }
      },
      "getStaked(uint256)": {
        "params": {
          "_tokenId": "yield gem id"
        },
        "returns": {
          "_0": "amount in DEFO (wei precision)"
        }
      },
      "getStakedAllGems()": {
        "returns": {
          "amounts_": "array of amounts (gross, currently in the vault)",
          "tokenIds_": "array of staked tokenIds"
        }
      },
      "getTotalStaked()": {
        "returns": {
          "_0": "amount in DEFO (wei precision)"
        }
      },
      "getTotalStakedAllUsers()": {
        "returns": {
          "_0": "amount in DEFO (wei precision)"
        }
      },
      "lotteryWinners(uint32)": {
        "details": "the ones related to the requested period are put to the storage to return the same number in the future",
        "params": {
          "_timestamp": "moment of the query, zero if now"
        },
        "returns": {
          "_0": "addresses of the lottery winners"
        }
      },
      "unStakeReward(uint256,uint256)": {
        "params": {
          "_amount": "amount to remove from the vault in DEFO (wei precision)",
          "_tokenId": "yield gem id"
        }
      }
    },
    "title": "VaultFacet EIP-2535 Diamond Facet",
    "version": 1
  },
  "userdoc": {
    "kind": "user",
    "methods": {
      "configureLottery(uint256,uint32,uint32)": {
        "notice": "vault lottery configuration"
      },
      "getStaked(uint256)": {
        "notice": "get DEFO amount currently in the vault for a specific yield gem"
      },
      "getStakedAllGems()": {
        "notice": "get DEFO amount currently in the vault for all user's yield gems"
      },
      "getTotalStaked()": {
        "notice": "get amount currently in the vault for sender"
      },
      "getTotalStakedAllUsers()": {
        "notice": "get amount currently in the vault for all protocol users"
      },
      "lotteryWinners(uint32)": {
        "notice": "gets lottery winners in the lottery interval containing _timestamp"
      },
      "unStakeReward(uint256,uint256)": {
        "notice": "remove DEFO amount from the vault back to the unclaimed rewards"
      }
    },
    "notice": "Vault functionality - unStake, lottery, and getters",
    "version": 1
  },
  "storageLayout": {
    "storage": [
      {
        "astId": 4283,
        "contract": "contracts/facets/VaultFacet.sol:VaultFacet",
        "label": "s",
        "offset": 0,
        "slot": "0",
        "type": "t_struct(AppStorage)4537_storage"
      }
    ],
    "types": {
      "t_address": {
        "encoding": "inplace",
        "label": "address",
        "numberOfBytes": "20"
      },
      "t_array(t_address)7_storage": {
        "base": "t_address",
        "encoding": "inplace",
        "label": "address[7]",
        "numberOfBytes": "224"
      },
      "t_array(t_array(t_uint256)3_storage)2_storage": {
        "base": "t_array(t_uint256)3_storage",
        "encoding": "inplace",
        "label": "uint256[3][2]",
        "numberOfBytes": "192"
      },
      "t_array(t_contract(IERC20)737)2_storage": {
        "base": "t_contract(IERC20)737",
        "encoding": "inplace",
        "label": "contract IERC20[2]",
        "numberOfBytes": "64"
      },
      "t_array(t_struct(GemTypeConfig)4429_storage)dyn_storage": {
        "base": "t_struct(GemTypeConfig)4429_storage",
        "encoding": "dynamic_array",
        "label": "struct GemTypeConfig[]",
        "numberOfBytes": "32"
      },
      "t_array(t_struct(GemTypeMintWindow)4434_storage)dyn_storage": {
        "base": "t_struct(GemTypeMintWindow)4434_storage",
        "encoding": "dynamic_array",
        "label": "struct GemTypeMintWindow[]",
        "numberOfBytes": "32"
      },
      "t_array(t_uint256)2_storage": {
        "base": "t_uint256",
        "encoding": "inplace",
        "label": "uint256[2]",
        "numberOfBytes": "64"
      },
      "t_array(t_uint256)3_storage": {
        "base": "t_uint256",
        "encoding": "inplace",
        "label": "uint256[3]",
        "numberOfBytes": "96"
      },
      "t_array(t_uint256)5_storage": {
        "base": "t_uint256",
        "encoding": "inplace",
        "label": "uint256[5]",
        "numberOfBytes": "160"
      },
      "t_array(t_uint256)dyn_storage": {
        "base": "t_uint256",
        "encoding": "dynamic_array",
        "label": "uint256[]",
        "numberOfBytes": "32"
      },
      "t_bool": {
        "encoding": "inplace",
        "label": "bool",
        "numberOfBytes": "1"
      },
      "t_contract(IERC20)737": {
        "encoding": "inplace",
        "label": "contract IERC20",
        "numberOfBytes": "20"
      },
      "t_enum(Booster)4456": {
        "encoding": "inplace",
        "label": "enum Booster",
        "numberOfBytes": "1"
      },
      "t_mapping(t_address,t_bool)": {
        "encoding": "mapping",
        "key": "t_address",
        "label": "mapping(address => bool)",
        "numberOfBytes": "32",
        "value": "t_bool"
      },
      "t_mapping(t_address,t_mapping(t_address,t_bool))": {
        "encoding": "mapping",
        "key": "t_address",
        "label": "mapping(address => mapping(address => bool))",
        "numberOfBytes": "32",
        "value": "t_mapping(t_address,t_bool)"
      },
      "t_mapping(t_address,t_mapping(t_uint256,t_uint256))": {
        "encoding": "mapping",
        "key": "t_address",
        "label": "mapping(address => mapping(uint256 => uint256))",
        "numberOfBytes": "32",
        "value": "t_mapping(t_uint256,t_uint256)"
      },
      "t_mapping(t_address,t_mapping(t_uint8,t_mapping(t_enum(Booster)4456,t_uint256)))": {
        "encoding": "mapping",
        "key": "t_address",
        "label": "mapping(address => mapping(uint8 => mapping(enum Booster => uint256)))",
        "numberOfBytes": "32",
        "value": "t_mapping(t_uint8,t_mapping(t_enum(Booster)4456,t_uint256))"
      },
      "t_mapping(t_address,t_struct(Fi)4477_storage)": {
        "encoding": "mapping",
        "key": "t_address",
        "label": "mapping(address => struct Fi)",
        "numberOfBytes": "32",
        "value": "t_struct(Fi)4477_storage"
      },
      "t_mapping(t_address,t_uint256)": {
        "encoding": "mapping",
        "key": "t_address",
        "label": "mapping(address => uint256)",
        "numberOfBytes": "32",
        "value": "t_uint256"
      },
      "t_mapping(t_enum(Booster)4456,t_uint256)": {
        "encoding": "mapping",
        "key": "t_enum(Booster)4456",
        "label": "mapping(enum Booster => uint256)",
        "numberOfBytes": "32",
        "value": "t_uint256"
      },
      "t_mapping(t_uint256,t_address)": {
        "encoding": "mapping",
        "key": "t_uint256",
        "label": "mapping(uint256 => address)",
        "numberOfBytes": "32",
        "value": "t_address"
      },
      "t_mapping(t_uint256,t_struct(Gem)4494_storage)": {
        "encoding": "mapping",
        "key": "t_uint256",
        "label": "mapping(uint256 => struct Gem)",
        "numberOfBytes": "32",
        "value": "t_struct(Gem)4494_storage"
      },
      "t_mapping(t_uint256,t_uint256)": {
        "encoding": "mapping",
        "key": "t_uint256",
        "label": "mapping(uint256 => uint256)",
        "numberOfBytes": "32",
        "value": "t_uint256"
      },
      "t_mapping(t_uint8,t_mapping(t_enum(Booster)4456,t_uint256))": {
        "encoding": "mapping",
        "key": "t_uint8",
        "label": "mapping(uint8 => mapping(enum Booster => uint256))",
        "numberOfBytes": "32",
        "value": "t_mapping(t_enum(Booster)4456,t_uint256)"
      },
      "t_string_storage": {
        "encoding": "bytes",
        "label": "string",
        "numberOfBytes": "32"
      },
      "t_struct(AppStorage)4537_storage": {
        "encoding": "inplace",
        "label": "struct AppStorage",
        "members": [
          {
            "astId": 4497,
            "contract": "contracts/facets/VaultFacet.sol:VaultFacet",
            "label": "config",
            "offset": 0,
            "slot": "0",
            "type": "t_struct(ProtocolConfig)4416_storage"
          },
          {
            "astId": 4501,
            "contract": "contracts/facets/VaultFacet.sol:VaultFacet",
            "label": "gemTypes",
            "offset": 0,
            "slot": "28",
            "type": "t_array(t_struct(GemTypeConfig)4429_storage)dyn_storage"
          },
          {
            "astId": 4505,
            "contract": "contracts/facets/VaultFacet.sol:VaultFacet",
            "label": "gemTypesMintWindows",
            "offset": 0,
            "slot": "29",
            "type": "t_array(t_struct(GemTypeMintWindow)4434_storage)dyn_storage"
          },
          {
            "astId": 4508,
            "contract": "contracts/facets/VaultFacet.sol:VaultFacet",
            "label": "defoTokenLimitWindow",
            "offset": 0,
            "slot": "30",
            "type": "t_struct(DEFOTokenLimitWindow)4443_storage"
          },
          {
            "astId": 4513,
            "contract": "contracts/facets/VaultFacet.sol:VaultFacet",
            "label": "gems",
            "offset": 0,
            "slot": "32",
            "type": "t_mapping(t_uint256,t_struct(Gem)4494_storage)"
          },
          {
            "astId": 4516,
            "contract": "contracts/facets/VaultFacet.sol:VaultFacet",
            "label": "nft",
            "offset": 0,
            "slot": "33",
            "type": "t_struct(ERC721Storage)4351_storage"
          },
          {
            "astId": 4519,
            "contract": "contracts/facets/VaultFacet.sol:VaultFacet",
            "label": "total",
            "offset": 0,
            "slot": "46",
            "type": "t_struct(Fi)4477_storage"
          },
          {
            "astId": 4524,
            "contract": "contracts/facets/VaultFacet.sol:VaultFacet",
            "label": "usersFi",
            "offset": 0,
            "slot": "56",
            "type": "t_mapping(t_address,t_struct(Fi)4477_storage)"
          },
          {
            "astId": 4533,
            "contract": "contracts/facets/VaultFacet.sol:VaultFacet",
            "label": "usersNextGemBooster",
            "offset": 0,
            "slot": "57",
            "type": "t_mapping(t_address,t_mapping(t_uint8,t_mapping(t_enum(Booster)4456,t_uint256)))"
          },
          {
            "astId": 4536,
            "contract": "contracts/facets/VaultFacet.sol:VaultFacet",
            "label": "defoTokenLimitPerRewards",
            "offset": 0,
            "slot": "58",
            "type": "t_struct(DEFOTokenLimitPerRewards)4452_storage"
          }
        ],
        "numberOfBytes": "1920"
      },
      "t_struct(Counter)2737_storage": {
        "encoding": "inplace",
        "label": "struct Counters.Counter",
        "members": [
          {
            "astId": 2736,
            "contract": "contracts/facets/VaultFacet.sol:VaultFacet",
            "label": "_value",
            "offset": 0,
            "slot": "0",
            "type": "t_uint256"
          }
        ],
        "numberOfBytes": "32"
      },
      "t_struct(DEFOTokenLimitPerRewards)4452_storage": {
        "encoding": "inplace",
        "label": "struct DEFOTokenLimitPerRewards",
        "members": [
          {
            "astId": 4447,
            "contract": "contracts/facets/VaultFacet.sol:VaultFacet",
            "label": "tokensSold",
            "offset": 0,
            "slot": "0",
            "type": "t_mapping(t_address,t_uint256)"
          },
          {
            "astId": 4451,
            "contract": "contracts/facets/VaultFacet.sol:VaultFacet",
            "label": "timeOfWindowStart",
            "offset": 0,
            "slot": "1",
            "type": "t_mapping(t_address,t_uint256)"
          }
        ],
        "numberOfBytes": "64"
      },
      "t_struct(DEFOTokenLimitWindow)4443_storage": {
        "encoding": "inplace",
        "label": "struct DEFOTokenLimitWindow",
        "members": [
          {
            "astId": 4438,
            "contract": "contracts/facets/VaultFacet.sol:VaultFacet",
            "label": "tokensSold",
            "offset": 0,
            "slot": "0",
            "type": "t_mapping(t_address,t_uint256)"
          },
          {
            "astId": 4442,
            "contract": "contracts/facets/VaultFacet.sol:VaultFacet",
            "label": "timeOfLastSale",
            "offset": 0,
            "slot": "1",
            "type": "t_mapping(t_address,t_uint256)"
          }
        ],
        "numberOfBytes": "64"
      },
      "t_struct(DefoTokenLimitConfig)4375_storage": {
        "encoding": "inplace",
        "label": "struct DefoTokenLimitConfig",
        "members": [
          {
            "astId": 4370,
            "contract": "contracts/facets/VaultFacet.sol:VaultFacet",
            "label": "saleLimitPeriod",
            "offset": 0,
            "slot": "0",
            "type": "t_uint256"
          },
          {
            "astId": 4372,
            "contract": "contracts/facets/VaultFacet.sol:VaultFacet",
            "label": "saleLimitAmount",
            "offset": 0,
            "slot": "1",
            "type": "t_uint256"
          },
          {
            "astId": 4374,
            "contract": "contracts/facets/VaultFacet.sol:VaultFacet",
            "label": "limitByReward",
            "offset": 0,
            "slot": "2",
            "type": "t_bool"
          }
        ],
        "numberOfBytes": "96"
      },
      "t_struct(ERC721Storage)4351_storage": {
        "encoding": "inplace",
        "label": "struct ERC721Storage",
        "members": [
          {
            "astId": 4306,
            "contract": "contracts/facets/VaultFacet.sol:VaultFacet",
            "label": "name",
            "offset": 0,
            "slot": "0",
            "type": "t_string_storage"
          },
          {
            "astId": 4308,
            "contract": "contracts/facets/VaultFacet.sol:VaultFacet",
            "label": "symbol",
            "offset": 0,
            "slot": "1",
            "type": "t_string_storage"
          },
          {
            "astId": 4311,
            "contract": "contracts/facets/VaultFacet.sol:VaultFacet",
            "label": "tokenIdTracker",
            "offset": 0,
            "slot": "2",
            "type": "t_struct(Counter)2737_storage"
          },
          {
            "astId": 4315,
            "contract": "contracts/facets/VaultFacet.sol:VaultFacet",
            "label": "owners",
            "offset": 0,
            "slot": "3",
            "type": "t_mapping(t_uint256,t_address)"
          },
          {
            "astId": 4319,
            "contract": "contracts/facets/VaultFacet.sol:VaultFacet",
            "label": "balances",
            "offset": 0,
            "slot": "4",
            "type": "t_mapping(t_address,t_uint256)"
          },
          {
            "astId": 4323,
            "contract": "contracts/facets/VaultFacet.sol:VaultFacet",
            "label": "tokenApprovals",
            "offset": 0,
            "slot": "5",
            "type": "t_mapping(t_uint256,t_address)"
          },
          {
            "astId": 4329,
            "contract": "contracts/facets/VaultFacet.sol:VaultFacet",
            "label": "operatorApprovals",
            "offset": 0,
            "slot": "6",
            "type": "t_mapping(t_address,t_mapping(t_address,t_bool))"
          },
          {
            "astId": 4331,
            "contract": "contracts/facets/VaultFacet.sol:VaultFacet",
            "label": "baseURI",
            "offset": 0,
            "slot": "7",
            "type": "t_string_storage"
          },
          {
            "astId": 4337,
            "contract": "contracts/facets/VaultFacet.sol:VaultFacet",
            "label": "ownedTokens",
            "offset": 0,
            "slot": "8",
            "type": "t_mapping(t_address,t_mapping(t_uint256,t_uint256))"
          },
          {
            "astId": 4341,
            "contract": "contracts/facets/VaultFacet.sol:VaultFacet",
            "label": "ownedTokensIndex",
            "offset": 0,
            "slot": "9",
            "type": "t_mapping(t_uint256,t_uint256)"
          },
          {
            "astId": 4344,
            "contract": "contracts/facets/VaultFacet.sol:VaultFacet",
            "label": "allTokens",
            "offset": 0,
            "slot": "10",
            "type": "t_array(t_uint256)dyn_storage"
          },
          {
            "astId": 4348,
            "contract": "contracts/facets/VaultFacet.sol:VaultFacet",
            "label": "allTokensIndex",
            "offset": 0,
            "slot": "11",
            "type": "t_mapping(t_uint256,t_uint256)"
          },
          {
            "astId": 4350,
            "contract": "contracts/facets/VaultFacet.sol:VaultFacet",
            "label": "init",
            "offset": 0,
            "slot": "12",
            "type": "t_bool"
          }
        ],
        "numberOfBytes": "416"
      },
      "t_struct(Fi)4477_storage": {
        "encoding": "inplace",
        "label": "struct Fi",
        "members": [
          {
            "astId": 4458,
            "contract": "contracts/facets/VaultFacet.sol:VaultFacet",
            "label": "claimedGross",
            "offset": 0,
            "slot": "0",
            "type": "t_uint256"
          },
          {
            "astId": 4460,
            "contract": "contracts/facets/VaultFacet.sol:VaultFacet",
            "label": "claimedNet",
            "offset": 0,
            "slot": "1",
            "type": "t_uint256"
          },
          {
            "astId": 4462,
            "contract": "contracts/facets/VaultFacet.sol:VaultFacet",
            "label": "stakedGross",
            "offset": 0,
            "slot": "2",
            "type": "t_uint256"
          },
          {
            "astId": 4464,
            "contract": "contracts/facets/VaultFacet.sol:VaultFacet",
            "label": "stakedNet",
            "offset": 0,
            "slot": "3",
            "type": "t_uint256"
          },
          {
            "astId": 4466,
            "contract": "contracts/facets/VaultFacet.sol:VaultFacet",
            "label": "unStakedGross",
            "offset": 0,
            "slot": "4",
            "type": "t_uint256"
          },
          {
            "astId": 4468,
            "contract": "contracts/facets/VaultFacet.sol:VaultFacet",
            "label": "unStakedGrossUp",
            "offset": 0,
            "slot": "5",
            "type": "t_uint256"
          },
          {
            "astId": 4470,
            "contract": "contracts/facets/VaultFacet.sol:VaultFacet",
            "label": "unStakedNet",
            "offset": 0,
            "slot": "6",
            "type": "t_uint256"
          },
          {
            "astId": 4472,
            "contract": "contracts/facets/VaultFacet.sol:VaultFacet",
            "label": "donated",
            "offset": 0,
            "slot": "7",
            "type": "t_uint256"
          },
          {
            "astId": 4474,
            "contract": "contracts/facets/VaultFacet.sol:VaultFacet",
            "label": "claimTaxPaid",
            "offset": 0,
            "slot": "8",
            "type": "t_uint256"
          },
          {
            "astId": 4476,
            "contract": "contracts/facets/VaultFacet.sol:VaultFacet",
            "label": "vaultTaxPaid",
            "offset": 0,
            "slot": "9",
            "type": "t_uint256"
          }
        ],
        "numberOfBytes": "320"
      },
      "t_struct(Gem)4494_storage": {
        "encoding": "inplace",
        "label": "struct Gem",
        "members": [
          {
            "astId": 4479,
            "contract": "contracts/facets/VaultFacet.sol:VaultFacet",
            "label": "gemTypeId",
            "offset": 0,
            "slot": "0",
            "type": "t_uint8"
          },
          {
            "astId": 4482,
            "contract": "contracts/facets/VaultFacet.sol:VaultFacet",
            "label": "booster",
            "offset": 1,
            "slot": "0",
            "type": "t_enum(Booster)4456"
          },
          {
            "astId": 4484,
            "contract": "contracts/facets/VaultFacet.sol:VaultFacet",
            "label": "mintTime",
            "offset": 2,
            "slot": "0",
            "type": "t_uint32"
          },
          {
            "astId": 4486,
            "contract": "contracts/facets/VaultFacet.sol:VaultFacet",
            "label": "lastRewardWithdrawalTime",
            "offset": 6,
            "slot": "0",
            "type": "t_uint32"
          },
          {
            "astId": 4488,
            "contract": "contracts/facets/VaultFacet.sol:VaultFacet",
            "label": "lastMaintenanceTime",
            "offset": 10,
            "slot": "0",
            "type": "t_uint32"
          },
          {
            "astId": 4491,
            "contract": "contracts/facets/VaultFacet.sol:VaultFacet",
            "label": "fi",
            "offset": 0,
            "slot": "1",
            "type": "t_struct(Fi)4477_storage"
          },
          {
            "astId": 4493,
            "contract": "contracts/facets/VaultFacet.sol:VaultFacet",
            "label": "presold",
            "offset": 0,
            "slot": "11",
            "type": "t_bool"
          }
        ],
        "numberOfBytes": "384"
      },
      "t_struct(GemTypeConfig)4429_storage": {
        "encoding": "inplace",
        "label": "struct GemTypeConfig",
        "members": [
          {
            "astId": 4418,
            "contract": "contracts/facets/VaultFacet.sol:VaultFacet",
            "label": "maintenanceFeeDai",
            "offset": 0,
            "slot": "0",
            "type": "t_uint256"
          },
          {
            "astId": 4420,
            "contract": "contracts/facets/VaultFacet.sol:VaultFacet",
            "label": "rewardAmountDefo",
            "offset": 0,
            "slot": "1",
            "type": "t_uint256"
          },
          {
            "astId": 4424,
            "contract": "contracts/facets/VaultFacet.sol:VaultFacet",
            "label": "price",
            "offset": 0,
            "slot": "2",
            "type": "t_array(t_uint256)2_storage"
          },
          {
            "astId": 4426,
            "contract": "contracts/facets/VaultFacet.sol:VaultFacet",
            "label": "taperRewardsThresholdDefo",
            "offset": 0,
            "slot": "4",
            "type": "t_uint256"
          },
          {
            "astId": 4428,
            "contract": "contracts/facets/VaultFacet.sol:VaultFacet",
            "label": "maxMintsPerLimitWindow",
            "offset": 0,
            "slot": "5",
            "type": "t_uint256"
          }
        ],
        "numberOfBytes": "192"
      },
      "t_struct(GemTypeMintWindow)4434_storage": {
        "encoding": "inplace",
        "label": "struct GemTypeMintWindow",
        "members": [
          {
            "astId": 4431,
            "contract": "contracts/facets/VaultFacet.sol:VaultFacet",
            "label": "mintCount",
            "offset": 0,
            "slot": "0",
            "type": "t_uint256"
          },
          {
            "astId": 4433,
            "contract": "contracts/facets/VaultFacet.sol:VaultFacet",
            "label": "endOfMintLimitWindow",
            "offset": 0,
            "slot": "1",
            "type": "t_uint32"
          }
        ],
        "numberOfBytes": "64"
      },
      "t_struct(ProtocolConfig)4416_storage": {
        "encoding": "inplace",
        "label": "struct ProtocolConfig",
        "members": [
          {
            "astId": 4380,
            "contract": "contracts/facets/VaultFacet.sol:VaultFacet",
            "label": "paymentTokens",
            "offset": 0,
            "slot": "0",
            "type": "t_array(t_contract(IERC20)737)2_storage"
          },
          {
            "astId": 4384,
            "contract": "contracts/facets/VaultFacet.sol:VaultFacet",
            "label": "wallets",
            "offset": 0,
            "slot": "2",
            "type": "t_array(t_address)7_storage"
          },
          {
            "astId": 4390,
            "contract": "contracts/facets/VaultFacet.sol:VaultFacet",
            "label": "incomeDistributionOnMint",
            "offset": 0,
            "slot": "9",
            "type": "t_array(t_array(t_uint256)3_storage)2_storage"
          },
          {
            "astId": 4392,
            "contract": "contracts/facets/VaultFacet.sol:VaultFacet",
            "label": "maintenancePeriod",
            "offset": 0,
            "slot": "15",
            "type": "t_uint32"
          },
          {
            "astId": 4394,
            "contract": "contracts/facets/VaultFacet.sol:VaultFacet",
            "label": "rewardPeriod",
            "offset": 4,
            "slot": "15",
            "type": "t_uint32"
          },
          {
            "astId": 4396,
            "contract": "contracts/facets/VaultFacet.sol:VaultFacet",
            "label": "taxScaleSinceLastClaimPeriod",
            "offset": 8,
            "slot": "15",
            "type": "t_uint32"
          },
          {
            "astId": 4400,
            "contract": "contracts/facets/VaultFacet.sol:VaultFacet",
            "label": "taxRates",
            "offset": 0,
            "slot": "16",
            "type": "t_array(t_uint256)5_storage"
          },
          {
            "astId": 4402,
            "contract": "contracts/facets/VaultFacet.sol:VaultFacet",
            "label": "charityContributionRate",
            "offset": 0,
            "slot": "21",
            "type": "t_uint256"
          },
          {
            "astId": 4404,
            "contract": "contracts/facets/VaultFacet.sol:VaultFacet",
            "label": "vaultWithdrawalTaxRate",
            "offset": 0,
            "slot": "22",
            "type": "t_uint256"
          },
          {
            "astId": 4406,
            "contract": "contracts/facets/VaultFacet.sol:VaultFacet",
            "label": "taperRate",
            "offset": 0,
            "slot": "23",
            "type": "t_uint256"
          },
          {
            "astId": 4408,
            "contract": "contracts/facets/VaultFacet.sol:VaultFacet",
            "label": "mintLock",
            "offset": 0,
            "slot": "24",
            "type": "t_bool"
          },
          {
            "astId": 4410,
            "contract": "contracts/facets/VaultFacet.sol:VaultFacet",
            "label": "transferLock",
            "offset": 1,
            "slot": "24",
            "type": "t_bool"
          },
          {
            "astId": 4412,
            "contract": "contracts/facets/VaultFacet.sol:VaultFacet",
            "label": "mintLimitWindow",
            "offset": 2,
            "slot": "24",
            "type": "t_uint32"
          },
          {
            "astId": 4415,
            "contract": "contracts/facets/VaultFacet.sol:VaultFacet",
            "label": "defoTokenLimitConfig",
            "offset": 0,
            "slot": "25",
            "type": "t_struct(DefoTokenLimitConfig)4375_storage"
          }
        ],
        "numberOfBytes": "896"
      },
      "t_uint256": {
        "encoding": "inplace",
        "label": "uint256",
        "numberOfBytes": "32"
      },
      "t_uint32": {
        "encoding": "inplace",
        "label": "uint32",
        "numberOfBytes": "4"
      },
      "t_uint8": {
        "encoding": "inplace",
        "label": "uint8",
        "numberOfBytes": "1"
      }
    }
  }
}