{
  "address": "0x9681AaCC03efC9f6590932861F6B0FCCE660FD52",
  "abi": [
    {
      "anonymous": false,
      "inputs": [
        {
          "indexed": true,
          "internalType": "address",
          "name": "minter",
          "type": "address"
        },
        {
          "indexed": false,
          "internalType": "uint256",
          "name": "amountDefo",
          "type": "uint256"
        }
      ],
      "name": "GivenAway",
      "type": "event"
    },
    {
      "anonymous": false,
      "inputs": [
        {
          "indexed": false,
          "internalType": "uint256",
          "name": "numberOfWinners",
          "type": "uint256"
        },
        {
          "indexed": false,
          "internalType": "uint32",
          "name": "lotteryStart",
          "type": "uint32"
        },
        {
          "indexed": false,
          "internalType": "uint32",
          "name": "periodicity",
          "type": "uint32"
        }
      ],
      "name": "LotteryConfigured",
      "type": "event"
    },
    {
      "anonymous": false,
      "inputs": [
        {
          "indexed": false,
          "internalType": "uint256[]",
          "name": "winners",
          "type": "uint256[]"
        }
      ],
      "name": "LotteryWinnersDetermined",
      "type": "event"
    },
    {
      "anonymous": false,
      "inputs": [
        {
          "indexed": true,
          "internalType": "address",
          "name": "user",
          "type": "address"
        },
        {
          "indexed": false,
          "internalType": "uint256",
          "name": "amountGross",
          "type": "uint256"
        },
        {
          "indexed": false,
          "internalType": "uint256",
          "name": "amountNet",
          "type": "uint256"
        }
      ],
      "name": "UnStaked",
      "type": "event"
    },
    {
      "inputs": [
        {
          "internalType": "uint256",
          "name": "_numberOfWinners",
          "type": "uint256"
        },
        {
          "internalType": "uint32",
          "name": "_lotteryStart",
          "type": "uint32"
        },
        {
          "internalType": "uint32",
          "name": "_periodicity",
          "type": "uint32"
        }
      ],
      "name": "configureLottery",
      "outputs": [],
      "stateMutability": "nonpayable",
      "type": "function"
    },
    {
      "inputs": [
        {
          "internalType": "uint256",
          "name": "_tokenId",
          "type": "uint256"
        }
      ],
      "name": "getStaked",
      "outputs": [
        {
          "internalType": "uint256",
          "name": "",
          "type": "uint256"
        }
      ],
      "stateMutability": "view",
      "type": "function"
    },
    {
      "inputs": [],
      "name": "getStakedAllGems",
      "outputs": [
        {
          "internalType": "uint256[]",
          "name": "tokenIds_",
          "type": "uint256[]"
        },
        {
          "internalType": "uint256[]",
          "name": "amounts_",
          "type": "uint256[]"
        }
      ],
      "stateMutability": "view",
      "type": "function"
    },
    {
      "inputs": [],
      "name": "getTotalStaked",
      "outputs": [
        {
          "internalType": "uint256",
          "name": "",
          "type": "uint256"
        }
      ],
      "stateMutability": "view",
      "type": "function"
    },
    {
      "inputs": [],
      "name": "getTotalStakedAllUsers",
      "outputs": [
        {
          "internalType": "uint256",
          "name": "",
          "type": "uint256"
        }
      ],
      "stateMutability": "view",
      "type": "function"
    },
    {
      "inputs": [
        {
          "internalType": "uint256",
          "name": "_defoAmount",
          "type": "uint256"
        }
      ],
      "name": "giveaway",
      "outputs": [],
      "stateMutability": "nonpayable",
      "type": "function"
    },
    {
      "inputs": [
        {
          "internalType": "uint32",
          "name": "_timestamp",
          "type": "uint32"
        }
      ],
      "name": "lotteryWinners",
      "outputs": [
        {
          "internalType": "address[]",
          "name": "",
          "type": "address[]"
        }
      ],
      "stateMutability": "view",
      "type": "function"
    },
    {
      "inputs": [
        {
          "internalType": "uint256",
          "name": "_tokenId",
          "type": "uint256"
        },
        {
          "internalType": "uint256",
          "name": "_amount",
          "type": "uint256"
        }
      ],
      "name": "unStakeReward",
      "outputs": [],
      "stateMutability": "nonpayable",
      "type": "function"
    }
  ],
  "transactionHash": "0x44dd2113fa1be4c19533f17c5efa1223ab16d996645119ab9c563a16ee15bdc4",
  "args": [],
  "numDeployments": 13,
  "solcInputHash": "b7461f5631409dd9913020e8ffbbbd48",
  "bytecode": "0x608060405234801561001057600080fd5b50610e1f806100206000396000f3fe608060405234801561001057600080fd5b50600436106100885760003560e01c8063799b31e81161005b578063799b31e8146100d8578063b70eafa4146100eb578063f61d7f5a1461010c578063fac9101c1461012257600080fd5b80630917e7761461008d57806309873d04146100a85780632db5814d146100bd578063400f79a6146100d0575b600080fd5b610095610135565b6040519081526020015b60405180910390f35b6100bb6100b6366004610b9e565b505050565b005b6100bb6100cb366004610bda565b610175565b61009561049f565b6100bb6100e6366004610bfc565b6104b6565b6100ff6100f9366004610c15565b50606090565b60405161009f9190610c30565b610114610616565b60405161009f929190610cb8565b610095610130366004610bfc565b6106fc565b600080610140610724565b6001600160a01b0381166000908152603860205260409020600481015460039091015491925061016f91610cfc565b91505090565b8161017e610724565b6000828152602460205260409020546001600160a01b039081169116146101ec5760405162461bcd60e51b815260206004820152601660248201527f596f7520646f6e2774206f776e20746869732067656d0000000000000000000060448201526064015b60405180910390fd5b60006101f6610724565b6000858152602080526040812060058101546004820154939450909261021c9190610cfc565b9050848110156102815760405162461bcd60e51b815260206004820152602a60248201527f4e6f7420656e6f75676820616d6f756e7420696e20746865207661756c7420666044820152696f72207468652067656d60b01b60648201526084016101e3565b6001546001600160a01b03166002610297610b32565b608081018890526015546102ac908990610780565b60a082015284546016546000916102cc9161010090910460ff16906107cc565b90506102d88982610832565b6101208301526001600160a01b0384166323b872dd84600501546001600160a01b0316856001015461012086015160405160e085901b6001600160e01b03191681526001600160a01b03938416600482015292909116602483015260448201526064016020604051808303816000875af115801561035a573d6000803e3d6000fd5b505050506040513d601f19601f8201168201806040525081019061037e9190610d3f565b5061012082015161038f908a610cfc565b60c08301526001600160a01b0384166323b872dd84600501546001600160a01b0316856001015460c086015160405160e085901b6001600160e01b03191681526001600160a01b03938416600482015292909116602483015260448201526064016020604051808303816000875af115801561040f573d6000803e3d6000fd5b505050506040513d601f19601f820116820180604052508101906104339190610d3f565b50866001600160a01b03167ff26c0304cc83daf500e1dc22ab2e3cf954b3d506d62e34d70cc054255079e39783608001518460c00151604051610480929190918252602082015260400190565b60405180910390a2610493828b89610857565b50505050505050505050565b6032546031546000916104b191610cfc565b905090565b60006104c0610724565b6001549091506001600160a01b031660028361051e5760405162461bcd60e51b815260206004820152601660248201527f5a65726f207265776172647320666f7220612067656d0000000000000000000060448201526064016101e3565b610526610b32565b60408101859052606081018590526001600160a01b0383166323b872dd85846005015460405160e084901b6001600160e01b03191681526001600160a01b03928316600482015291166024820152604481018890526064016020604051808303816000875af115801561059d573d6000803e3d6000fd5b505050506040513d601f19601f820116820180604052508101906105c19190610d3f565b506105cc81856108a7565b836001600160a01b03167fc5ecdb4810a897dd1e559029006fa454eeb9c4422049777bdced18c792ef44838660405161060791815260200190565b60405180910390a25050505050565b6060806000610623610724565b905061062e816108d8565b9250825167ffffffffffffffff81111561064a5761064a610d61565b604051908082528060200260200182016040528015610673578160200160208202803683370190505b50915060005b83518110156106f657600084828151811061069657610696610d29565b6020908102919091018101516000818152918052604090912060058101546004909101549192506106c691610cfc565b8483815181106106d8576106d8610d29565b602090810291909101015250806106ee81610d77565b915050610679565b50509091565b60008181526020805260408120600581015460049091015461071e9190610cfc565b92915050565b600030330361077a57600080368080601f0160208091040260200160405190810160405280939291908181526020018383808284376000920191909152505050503601516001600160a01b0316915061077d9050565b50335b90565b60008082116107905760006107c5565b8161079c606480610d90565b6107a69190610cfc565b6107b1606480610d90565b6107bb9085610d90565b6107c59190610daf565b9392505050565b600060028360028111156107e2576107e2610d13565b03610807576127106107f6836103e8610d90565b6108009190610daf565b905061071e565b600183600281111561081b5761081b610d13565b0361082b57610800600283610daf565b508061071e565b60008082116108425760006107c5565b61084d606480610d90565b6107bb8385610d90565b6000828152602080526040812061086f602e86610a05565b61087c8160010186610a05565b6001600160a01b038316600090815260388301602052604090206108a09086610a05565b5050505050565b60006108b4602e84610a05565b6001600160a01b038216600090815260388201602052604090206100b69084610a05565b6001600160a01b0381166000908152602560205260408120546060918167ffffffffffffffff81111561090d5761090d610d61565b604051908082528060200260200182016040528015610936578160200160208202803683370190505b50905060005b828110156109fd576001600160a01b0385166000908152602960209081526040808320848452909152902054610989816000908152602460205260409020546001600160a01b0316151590565b6109cc5760405162461bcd60e51b8152602060048201526014602482015273412067656d20646f65736e27742065786973747360601b60448201526064016101e3565b808383815181106109df576109df610d29565b602090810291909101015250806109f581610d77565b91505061093c565b509392505050565b805182548390600090610a19908490610dd1565b90915550506020810151600183018054600090610a37908490610dd1565b90915550506040810151600283018054600090610a55908490610dd1565b90915550506060810151600383018054600090610a73908490610dd1565b90915550506080810151600483018054600090610a91908490610dd1565b909155505060a0810151600583018054600090610aaf908490610dd1565b909155505060c0810151600683018054600090610acd908490610dd1565b909155505060e0810151600783018054600090610aeb908490610dd1565b9091555050610100810151600883018054600090610b0a908490610dd1565b9091555050610120810151600983018054600090610b29908490610dd1565b90915550505050565b604051806101400160405280600081526020016000815260200160008152602001600081526020016000815260200160008152602001600081526020016000815260200160008152602001600081525090565b803563ffffffff81168114610b9957600080fd5b919050565b600080600060608486031215610bb357600080fd5b83359250610bc360208501610b85565b9150610bd160408501610b85565b90509250925092565b60008060408385031215610bed57600080fd5b50508035926020909101359150565b600060208284031215610c0e57600080fd5b5035919050565b600060208284031215610c2757600080fd5b6107c582610b85565b6020808252825182820181905260009190848201906040850190845b81811015610c715783516001600160a01b031683529284019291840191600101610c4c565b50909695505050505050565b600081518084526020808501945080840160005b83811015610cad57815187529582019590820190600101610c91565b509495945050505050565b604081526000610ccb6040830185610c7d565b8281036020840152610cdd8185610c7d565b95945050505050565b634e487b7160e01b600052601160045260246000fd5b600082821015610d0e57610d0e610ce6565b500390565b634e487b7160e01b600052602160045260246000fd5b634e487b7160e01b600052603260045260246000fd5b600060208284031215610d5157600080fd5b815180151581146107c557600080fd5b634e487b7160e01b600052604160045260246000fd5b600060018201610d8957610d89610ce6565b5060010190565b6000816000190483118215151615610daa57610daa610ce6565b500290565b600082610dcc57634e487b7160e01b600052601260045260246000fd5b500490565b60008219821115610de457610de4610ce6565b50019056fea26469706673582212203ac4c1fab7266f72efc2a087e1f5be57374ec4e0ba760d70d451bfffc8b7d94564736f6c634300080f0033",
  "devdoc": {
    "author": "Decentralized Foundation Team",
    "kind": "dev",
    "methods": {
      "configureLottery(uint256,uint32,uint32)": {
        "params": {
          "_lotteryStart": "lottery start moment to remember, blocktime format, zero for blocktime",
          "_numberOfWinners": "number of winners of the vault lottery",
          "_periodicity": "periodicity in seconds, initially weekly"
        }
      },
      "getStaked(uint256)": {
        "params": {
          "_tokenId": "yield gem id"
        },
        "returns": {
          "_0": "amount in DEFO (wei precision)"
        }
      },
      "getStakedAllGems()": {
        "returns": {
          "amounts_": "array of amounts (gross, currently in the vault)",
          "tokenIds_": "array of staked tokenIds"
        }
      },
      "getTotalStaked()": {
        "returns": {
          "_0": "amount in DEFO (wei precision)"
        }
      },
      "getTotalStakedAllUsers()": {
        "returns": {
          "_0": "amount in DEFO (wei precision)"
        }
      },
      "giveaway(uint256)": {
        "params": {
          "_defoAmount": "amount of DeFo to put to vault"
        }
      },
      "lotteryWinners(uint32)": {
        "details": "the ones related to the requested period are put to the storage to return the same number in the future",
        "params": {
          "_timestamp": "moment of the query, zero if now"
        },
        "returns": {
          "_0": "addresses of the lottery winners"
        }
      },
      "unStakeReward(uint256,uint256)": {
        "params": {
          "_amount": "amount to remove from the vault in DEFO (wei precision)",
          "_tokenId": "yield gem id"
        }
      }
    },
    "title": "VaultFacet EIP-2535 Diamond Facet",
    "version": 1
  },
  "userdoc": {
    "kind": "user",
    "methods": {
      "configureLottery(uint256,uint32,uint32)": {
        "notice": "vault lottery configuration"
      },
      "getStaked(uint256)": {
        "notice": "get DEFO amount currently in the vault for a specific yield gem"
      },
      "getStakedAllGems()": {
        "notice": "get DEFO amount currently in the vault for all user's yield gems"
      },
      "getTotalStaked()": {
        "notice": "get amount currently in the vault for sender"
      },
      "getTotalStakedAllUsers()": {
        "notice": "get amount currently in the vault for all protocol users"
      },
      "giveaway(uint256)": {
        "notice": "put defo to the vault from the user's wallet"
      },
      "lotteryWinners(uint32)": {
        "notice": "gets lottery winners in the lottery interval containing _timestamp"
      },
      "unStakeReward(uint256,uint256)": {
        "notice": "remove DEFO amount from the vault back to the unclaimed rewards"
      }
    },
    "notice": "Vault functionality - unStake, lottery, and getters",
    "version": 1
  },
  "storageLayout": {
    "storage": [
      {
        "astId": 4283,
        "contract": "contracts/facets/VaultFacet.sol:VaultFacet",
        "label": "s",
        "offset": 0,
        "slot": "0",
        "type": "t_struct(AppStorage)4545_storage"
      }
    ],
    "types": {
      "t_address": {
        "encoding": "inplace",
        "label": "address",
        "numberOfBytes": "20"
      },
      "t_array(t_address)7_storage": {
        "base": "t_address",
        "encoding": "inplace",
        "label": "address[7]",
        "numberOfBytes": "224"
      },
      "t_array(t_array(t_uint256)3_storage)2_storage": {
        "base": "t_array(t_uint256)3_storage",
        "encoding": "inplace",
        "label": "uint256[3][2]",
        "numberOfBytes": "192"
      },
      "t_array(t_contract(IERC20)737)2_storage": {
        "base": "t_contract(IERC20)737",
        "encoding": "inplace",
        "label": "contract IERC20[2]",
        "numberOfBytes": "64"
      },
      "t_array(t_struct(GemTypeConfig)4429_storage)dyn_storage": {
        "base": "t_struct(GemTypeConfig)4429_storage",
        "encoding": "dynamic_array",
        "label": "struct GemTypeConfig[]",
        "numberOfBytes": "32"
      },
      "t_array(t_struct(GemTypeMintWindow)4434_storage)dyn_storage": {
        "base": "t_struct(GemTypeMintWindow)4434_storage",
        "encoding": "dynamic_array",
        "label": "struct GemTypeMintWindow[]",
        "numberOfBytes": "32"
      },
      "t_array(t_uint256)2_storage": {
        "base": "t_uint256",
        "encoding": "inplace",
        "label": "uint256[2]",
        "numberOfBytes": "64"
      },
      "t_array(t_uint256)3_storage": {
        "base": "t_uint256",
        "encoding": "inplace",
        "label": "uint256[3]",
        "numberOfBytes": "96"
      },
      "t_array(t_uint256)5_storage": {
        "base": "t_uint256",
        "encoding": "inplace",
        "label": "uint256[5]",
        "numberOfBytes": "160"
      },
      "t_array(t_uint256)dyn_storage": {
        "base": "t_uint256",
        "encoding": "dynamic_array",
        "label": "uint256[]",
        "numberOfBytes": "32"
      },
      "t_bool": {
        "encoding": "inplace",
        "label": "bool",
        "numberOfBytes": "1"
      },
      "t_contract(IERC20)737": {
        "encoding": "inplace",
        "label": "contract IERC20",
        "numberOfBytes": "20"
      },
      "t_enum(Booster)4456": {
        "encoding": "inplace",
        "label": "enum Booster",
        "numberOfBytes": "1"
      },
      "t_mapping(t_address,t_bool)": {
        "encoding": "mapping",
        "key": "t_address",
        "label": "mapping(address => bool)",
        "numberOfBytes": "32",
        "value": "t_bool"
      },
      "t_mapping(t_address,t_mapping(t_address,t_bool))": {
        "encoding": "mapping",
        "key": "t_address",
        "label": "mapping(address => mapping(address => bool))",
        "numberOfBytes": "32",
        "value": "t_mapping(t_address,t_bool)"
      },
      "t_mapping(t_address,t_mapping(t_uint256,t_uint256))": {
        "encoding": "mapping",
        "key": "t_address",
        "label": "mapping(address => mapping(uint256 => uint256))",
        "numberOfBytes": "32",
        "value": "t_mapping(t_uint256,t_uint256)"
      },
      "t_mapping(t_address,t_mapping(t_uint8,t_mapping(t_enum(Booster)4456,t_uint256)))": {
        "encoding": "mapping",
        "key": "t_address",
        "label": "mapping(address => mapping(uint8 => mapping(enum Booster => uint256)))",
        "numberOfBytes": "32",
        "value": "t_mapping(t_uint8,t_mapping(t_enum(Booster)4456,t_uint256))"
      },
      "t_mapping(t_address,t_struct(Fi)4477_storage)": {
        "encoding": "mapping",
        "key": "t_address",
        "label": "mapping(address => struct Fi)",
        "numberOfBytes": "32",
        "value": "t_struct(Fi)4477_storage"
      },
      "t_mapping(t_address,t_uint256)": {
        "encoding": "mapping",
        "key": "t_address",
        "label": "mapping(address => uint256)",
        "numberOfBytes": "32",
        "value": "t_uint256"
      },
      "t_mapping(t_enum(Booster)4456,t_uint256)": {
        "encoding": "mapping",
        "key": "t_enum(Booster)4456",
        "label": "mapping(enum Booster => uint256)",
        "numberOfBytes": "32",
        "value": "t_uint256"
      },
      "t_mapping(t_uint256,t_address)": {
        "encoding": "mapping",
        "key": "t_uint256",
        "label": "mapping(uint256 => address)",
        "numberOfBytes": "32",
        "value": "t_address"
      },
      "t_mapping(t_uint256,t_struct(Gem)4496_storage)": {
        "encoding": "mapping",
        "key": "t_uint256",
        "label": "mapping(uint256 => struct Gem)",
        "numberOfBytes": "32",
        "value": "t_struct(Gem)4496_storage"
      },
      "t_mapping(t_uint256,t_uint256)": {
        "encoding": "mapping",
        "key": "t_uint256",
        "label": "mapping(uint256 => uint256)",
        "numberOfBytes": "32",
        "value": "t_uint256"
      },
      "t_mapping(t_uint8,t_mapping(t_enum(Booster)4456,t_uint256))": {
        "encoding": "mapping",
        "key": "t_uint8",
        "label": "mapping(uint8 => mapping(enum Booster => uint256))",
        "numberOfBytes": "32",
        "value": "t_mapping(t_enum(Booster)4456,t_uint256)"
      },
      "t_string_storage": {
        "encoding": "bytes",
        "label": "string",
        "numberOfBytes": "32"
      },
      "t_struct(AppStorage)4545_storage": {
        "encoding": "inplace",
        "label": "struct AppStorage",
        "members": [
          {
            "astId": 4499,
            "contract": "contracts/facets/VaultFacet.sol:VaultFacet",
            "label": "config",
            "offset": 0,
            "slot": "0",
            "type": "t_struct(ProtocolConfig)4416_storage"
          },
          {
            "astId": 4503,
            "contract": "contracts/facets/VaultFacet.sol:VaultFacet",
            "label": "gemTypes",
            "offset": 0,
            "slot": "28",
            "type": "t_array(t_struct(GemTypeConfig)4429_storage)dyn_storage"
          },
          {
            "astId": 4507,
            "contract": "contracts/facets/VaultFacet.sol:VaultFacet",
            "label": "gemTypesMintWindows",
            "offset": 0,
            "slot": "29",
            "type": "t_array(t_struct(GemTypeMintWindow)4434_storage)dyn_storage"
          },
          {
            "astId": 4510,
            "contract": "contracts/facets/VaultFacet.sol:VaultFacet",
            "label": "defoTokenLimitWindow",
            "offset": 0,
            "slot": "30",
            "type": "t_struct(DEFOTokenLimitWindow)4443_storage"
          },
          {
            "astId": 4515,
            "contract": "contracts/facets/VaultFacet.sol:VaultFacet",
            "label": "gems",
            "offset": 0,
            "slot": "32",
            "type": "t_mapping(t_uint256,t_struct(Gem)4496_storage)"
          },
          {
            "astId": 4518,
            "contract": "contracts/facets/VaultFacet.sol:VaultFacet",
            "label": "nft",
            "offset": 0,
            "slot": "33",
            "type": "t_struct(ERC721Storage)4351_storage"
          },
          {
            "astId": 4521,
            "contract": "contracts/facets/VaultFacet.sol:VaultFacet",
            "label": "total",
            "offset": 0,
            "slot": "46",
            "type": "t_struct(Fi)4477_storage"
          },
          {
            "astId": 4526,
            "contract": "contracts/facets/VaultFacet.sol:VaultFacet",
            "label": "usersFi",
            "offset": 0,
            "slot": "56",
            "type": "t_mapping(t_address,t_struct(Fi)4477_storage)"
          },
          {
            "astId": 4535,
            "contract": "contracts/facets/VaultFacet.sol:VaultFacet",
            "label": "usersNextGemBooster",
            "offset": 0,
            "slot": "57",
            "type": "t_mapping(t_address,t_mapping(t_uint8,t_mapping(t_enum(Booster)4456,t_uint256)))"
          },
          {
            "astId": 4538,
            "contract": "contracts/facets/VaultFacet.sol:VaultFacet",
            "label": "defoTokenLimitPerRewards",
            "offset": 0,
            "slot": "58",
            "type": "t_struct(DEFOTokenLimitPerRewards)4452_storage"
          },
          {
            "astId": 4540,
            "contract": "contracts/facets/VaultFacet.sol:VaultFacet",
            "label": "routerWallet",
            "offset": 0,
            "slot": "60",
            "type": "t_address"
          },
          {
            "astId": 4544,
            "contract": "contracts/facets/VaultFacet.sol:VaultFacet",
            "label": "gemTypes2",
            "offset": 0,
            "slot": "61",
            "type": "t_array(t_struct(GemTypeConfig)4429_storage)dyn_storage"
          }
        ],
        "numberOfBytes": "1984"
      },
      "t_struct(Counter)2737_storage": {
        "encoding": "inplace",
        "label": "struct Counters.Counter",
        "members": [
          {
            "astId": 2736,
            "contract": "contracts/facets/VaultFacet.sol:VaultFacet",
            "label": "_value",
            "offset": 0,
            "slot": "0",
            "type": "t_uint256"
          }
        ],
        "numberOfBytes": "32"
      },
      "t_struct(DEFOTokenLimitPerRewards)4452_storage": {
        "encoding": "inplace",
        "label": "struct DEFOTokenLimitPerRewards",
        "members": [
          {
            "astId": 4447,
            "contract": "contracts/facets/VaultFacet.sol:VaultFacet",
            "label": "tokensSold",
            "offset": 0,
            "slot": "0",
            "type": "t_mapping(t_address,t_uint256)"
          },
          {
            "astId": 4451,
            "contract": "contracts/facets/VaultFacet.sol:VaultFacet",
            "label": "timeOfWindowStart",
            "offset": 0,
            "slot": "1",
            "type": "t_mapping(t_address,t_uint256)"
          }
        ],
        "numberOfBytes": "64"
      },
      "t_struct(DEFOTokenLimitWindow)4443_storage": {
        "encoding": "inplace",
        "label": "struct DEFOTokenLimitWindow",
        "members": [
          {
            "astId": 4438,
            "contract": "contracts/facets/VaultFacet.sol:VaultFacet",
            "label": "tokensSold",
            "offset": 0,
            "slot": "0",
            "type": "t_mapping(t_address,t_uint256)"
          },
          {
            "astId": 4442,
            "contract": "contracts/facets/VaultFacet.sol:VaultFacet",
            "label": "timeOfLastSale",
            "offset": 0,
            "slot": "1",
            "type": "t_mapping(t_address,t_uint256)"
          }
        ],
        "numberOfBytes": "64"
      },
      "t_struct(DefoTokenLimitConfig)4375_storage": {
        "encoding": "inplace",
        "label": "struct DefoTokenLimitConfig",
        "members": [
          {
            "astId": 4370,
            "contract": "contracts/facets/VaultFacet.sol:VaultFacet",
            "label": "saleLimitPeriod",
            "offset": 0,
            "slot": "0",
            "type": "t_uint256"
          },
          {
            "astId": 4372,
            "contract": "contracts/facets/VaultFacet.sol:VaultFacet",
            "label": "saleLimitAmount",
            "offset": 0,
            "slot": "1",
            "type": "t_uint256"
          },
          {
            "astId": 4374,
            "contract": "contracts/facets/VaultFacet.sol:VaultFacet",
            "label": "limitByReward",
            "offset": 0,
            "slot": "2",
            "type": "t_bool"
          }
        ],
        "numberOfBytes": "96"
      },
      "t_struct(ERC721Storage)4351_storage": {
        "encoding": "inplace",
        "label": "struct ERC721Storage",
        "members": [
          {
            "astId": 4306,
            "contract": "contracts/facets/VaultFacet.sol:VaultFacet",
            "label": "name",
            "offset": 0,
            "slot": "0",
            "type": "t_string_storage"
          },
          {
            "astId": 4308,
            "contract": "contracts/facets/VaultFacet.sol:VaultFacet",
            "label": "symbol",
            "offset": 0,
            "slot": "1",
            "type": "t_string_storage"
          },
          {
            "astId": 4311,
            "contract": "contracts/facets/VaultFacet.sol:VaultFacet",
            "label": "tokenIdTracker",
            "offset": 0,
            "slot": "2",
            "type": "t_struct(Counter)2737_storage"
          },
          {
            "astId": 4315,
            "contract": "contracts/facets/VaultFacet.sol:VaultFacet",
            "label": "owners",
            "offset": 0,
            "slot": "3",
            "type": "t_mapping(t_uint256,t_address)"
          },
          {
            "astId": 4319,
            "contract": "contracts/facets/VaultFacet.sol:VaultFacet",
            "label": "balances",
            "offset": 0,
            "slot": "4",
            "type": "t_mapping(t_address,t_uint256)"
          },
          {
            "astId": 4323,
            "contract": "contracts/facets/VaultFacet.sol:VaultFacet",
            "label": "tokenApprovals",
            "offset": 0,
            "slot": "5",
            "type": "t_mapping(t_uint256,t_address)"
          },
          {
            "astId": 4329,
            "contract": "contracts/facets/VaultFacet.sol:VaultFacet",
            "label": "operatorApprovals",
            "offset": 0,
            "slot": "6",
            "type": "t_mapping(t_address,t_mapping(t_address,t_bool))"
          },
          {
            "astId": 4331,
            "contract": "contracts/facets/VaultFacet.sol:VaultFacet",
            "label": "baseURI",
            "offset": 0,
            "slot": "7",
            "type": "t_string_storage"
          },
          {
            "astId": 4337,
            "contract": "contracts/facets/VaultFacet.sol:VaultFacet",
            "label": "ownedTokens",
            "offset": 0,
            "slot": "8",
            "type": "t_mapping(t_address,t_mapping(t_uint256,t_uint256))"
          },
          {
            "astId": 4341,
            "contract": "contracts/facets/VaultFacet.sol:VaultFacet",
            "label": "ownedTokensIndex",
            "offset": 0,
            "slot": "9",
            "type": "t_mapping(t_uint256,t_uint256)"
          },
          {
            "astId": 4344,
            "contract": "contracts/facets/VaultFacet.sol:VaultFacet",
            "label": "allTokens",
            "offset": 0,
            "slot": "10",
            "type": "t_array(t_uint256)dyn_storage"
          },
          {
            "astId": 4348,
            "contract": "contracts/facets/VaultFacet.sol:VaultFacet",
            "label": "allTokensIndex",
            "offset": 0,
            "slot": "11",
            "type": "t_mapping(t_uint256,t_uint256)"
          },
          {
            "astId": 4350,
            "contract": "contracts/facets/VaultFacet.sol:VaultFacet",
            "label": "init",
            "offset": 0,
            "slot": "12",
            "type": "t_bool"
          }
        ],
        "numberOfBytes": "416"
      },
      "t_struct(Fi)4477_storage": {
        "encoding": "inplace",
        "label": "struct Fi",
        "members": [
          {
            "astId": 4458,
            "contract": "contracts/facets/VaultFacet.sol:VaultFacet",
            "label": "claimedGross",
            "offset": 0,
            "slot": "0",
            "type": "t_uint256"
          },
          {
            "astId": 4460,
            "contract": "contracts/facets/VaultFacet.sol:VaultFacet",
            "label": "claimedNet",
            "offset": 0,
            "slot": "1",
            "type": "t_uint256"
          },
          {
            "astId": 4462,
            "contract": "contracts/facets/VaultFacet.sol:VaultFacet",
            "label": "stakedGross",
            "offset": 0,
            "slot": "2",
            "type": "t_uint256"
          },
          {
            "astId": 4464,
            "contract": "contracts/facets/VaultFacet.sol:VaultFacet",
            "label": "stakedNet",
            "offset": 0,
            "slot": "3",
            "type": "t_uint256"
          },
          {
            "astId": 4466,
            "contract": "contracts/facets/VaultFacet.sol:VaultFacet",
            "label": "unStakedGross",
            "offset": 0,
            "slot": "4",
            "type": "t_uint256"
          },
          {
            "astId": 4468,
            "contract": "contracts/facets/VaultFacet.sol:VaultFacet",
            "label": "unStakedGrossUp",
            "offset": 0,
            "slot": "5",
            "type": "t_uint256"
          },
          {
            "astId": 4470,
            "contract": "contracts/facets/VaultFacet.sol:VaultFacet",
            "label": "unStakedNet",
            "offset": 0,
            "slot": "6",
            "type": "t_uint256"
          },
          {
            "astId": 4472,
            "contract": "contracts/facets/VaultFacet.sol:VaultFacet",
            "label": "donated",
            "offset": 0,
            "slot": "7",
            "type": "t_uint256"
          },
          {
            "astId": 4474,
            "contract": "contracts/facets/VaultFacet.sol:VaultFacet",
            "label": "claimTaxPaid",
            "offset": 0,
            "slot": "8",
            "type": "t_uint256"
          },
          {
            "astId": 4476,
            "contract": "contracts/facets/VaultFacet.sol:VaultFacet",
            "label": "vaultTaxPaid",
            "offset": 0,
            "slot": "9",
            "type": "t_uint256"
          }
        ],
        "numberOfBytes": "320"
      },
      "t_struct(Gem)4496_storage": {
        "encoding": "inplace",
        "label": "struct Gem",
        "members": [
          {
            "astId": 4479,
            "contract": "contracts/facets/VaultFacet.sol:VaultFacet",
            "label": "gemTypeId",
            "offset": 0,
            "slot": "0",
            "type": "t_uint8"
          },
          {
            "astId": 4482,
            "contract": "contracts/facets/VaultFacet.sol:VaultFacet",
            "label": "booster",
            "offset": 1,
            "slot": "0",
            "type": "t_enum(Booster)4456"
          },
          {
            "astId": 4484,
            "contract": "contracts/facets/VaultFacet.sol:VaultFacet",
            "label": "mintTime",
            "offset": 2,
            "slot": "0",
            "type": "t_uint32"
          },
          {
            "astId": 4486,
            "contract": "contracts/facets/VaultFacet.sol:VaultFacet",
            "label": "lastRewardWithdrawalTime",
            "offset": 6,
            "slot": "0",
            "type": "t_uint32"
          },
          {
            "astId": 4488,
            "contract": "contracts/facets/VaultFacet.sol:VaultFacet",
            "label": "lastMaintenanceTime",
            "offset": 10,
            "slot": "0",
            "type": "t_uint32"
          },
          {
            "astId": 4491,
            "contract": "contracts/facets/VaultFacet.sol:VaultFacet",
            "label": "fi",
            "offset": 0,
            "slot": "1",
            "type": "t_struct(Fi)4477_storage"
          },
          {
            "astId": 4493,
            "contract": "contracts/facets/VaultFacet.sol:VaultFacet",
            "label": "presold",
            "offset": 0,
            "slot": "11",
            "type": "t_bool"
          },
          {
            "astId": 4495,
            "contract": "contracts/facets/VaultFacet.sol:VaultFacet",
            "label": "maintenanceFeePaid",
            "offset": 0,
            "slot": "12",
            "type": "t_uint256"
          }
        ],
        "numberOfBytes": "416"
      },
      "t_struct(GemTypeConfig)4429_storage": {
        "encoding": "inplace",
        "label": "struct GemTypeConfig",
        "members": [
          {
            "astId": 4418,
            "contract": "contracts/facets/VaultFacet.sol:VaultFacet",
            "label": "maintenanceFeeDai",
            "offset": 0,
            "slot": "0",
            "type": "t_uint256"
          },
          {
            "astId": 4420,
            "contract": "contracts/facets/VaultFacet.sol:VaultFacet",
            "label": "rewardAmountDefo",
            "offset": 0,
            "slot": "1",
            "type": "t_uint256"
          },
          {
            "astId": 4424,
            "contract": "contracts/facets/VaultFacet.sol:VaultFacet",
            "label": "price",
            "offset": 0,
            "slot": "2",
            "type": "t_array(t_uint256)2_storage"
          },
          {
            "astId": 4426,
            "contract": "contracts/facets/VaultFacet.sol:VaultFacet",
            "label": "taperRewardsThresholdDefo",
            "offset": 0,
            "slot": "4",
            "type": "t_uint256"
          },
          {
            "astId": 4428,
            "contract": "contracts/facets/VaultFacet.sol:VaultFacet",
            "label": "maxMintsPerLimitWindow",
            "offset": 0,
            "slot": "5",
            "type": "t_uint256"
          }
        ],
        "numberOfBytes": "192"
      },
      "t_struct(GemTypeMintWindow)4434_storage": {
        "encoding": "inplace",
        "label": "struct GemTypeMintWindow",
        "members": [
          {
            "astId": 4431,
            "contract": "contracts/facets/VaultFacet.sol:VaultFacet",
            "label": "mintCount",
            "offset": 0,
            "slot": "0",
            "type": "t_uint256"
          },
          {
            "astId": 4433,
            "contract": "contracts/facets/VaultFacet.sol:VaultFacet",
            "label": "endOfMintLimitWindow",
            "offset": 0,
            "slot": "1",
            "type": "t_uint32"
          }
        ],
        "numberOfBytes": "64"
      },
      "t_struct(ProtocolConfig)4416_storage": {
        "encoding": "inplace",
        "label": "struct ProtocolConfig",
        "members": [
          {
            "astId": 4380,
            "contract": "contracts/facets/VaultFacet.sol:VaultFacet",
            "label": "paymentTokens",
            "offset": 0,
            "slot": "0",
            "type": "t_array(t_contract(IERC20)737)2_storage"
          },
          {
            "astId": 4384,
            "contract": "contracts/facets/VaultFacet.sol:VaultFacet",
            "label": "wallets",
            "offset": 0,
            "slot": "2",
            "type": "t_array(t_address)7_storage"
          },
          {
            "astId": 4390,
            "contract": "contracts/facets/VaultFacet.sol:VaultFacet",
            "label": "incomeDistributionOnMint",
            "offset": 0,
            "slot": "9",
            "type": "t_array(t_array(t_uint256)3_storage)2_storage"
          },
          {
            "astId": 4392,
            "contract": "contracts/facets/VaultFacet.sol:VaultFacet",
            "label": "maintenancePeriod",
            "offset": 0,
            "slot": "15",
            "type": "t_uint32"
          },
          {
            "astId": 4394,
            "contract": "contracts/facets/VaultFacet.sol:VaultFacet",
            "label": "rewardPeriod",
            "offset": 4,
            "slot": "15",
            "type": "t_uint32"
          },
          {
            "astId": 4396,
            "contract": "contracts/facets/VaultFacet.sol:VaultFacet",
            "label": "taxScaleSinceLastClaimPeriod",
            "offset": 8,
            "slot": "15",
            "type": "t_uint32"
          },
          {
            "astId": 4400,
            "contract": "contracts/facets/VaultFacet.sol:VaultFacet",
            "label": "taxRates",
            "offset": 0,
            "slot": "16",
            "type": "t_array(t_uint256)5_storage"
          },
          {
            "astId": 4402,
            "contract": "contracts/facets/VaultFacet.sol:VaultFacet",
            "label": "charityContributionRate",
            "offset": 0,
            "slot": "21",
            "type": "t_uint256"
          },
          {
            "astId": 4404,
            "contract": "contracts/facets/VaultFacet.sol:VaultFacet",
            "label": "vaultWithdrawalTaxRate",
            "offset": 0,
            "slot": "22",
            "type": "t_uint256"
          },
          {
            "astId": 4406,
            "contract": "contracts/facets/VaultFacet.sol:VaultFacet",
            "label": "taperRate",
            "offset": 0,
            "slot": "23",
            "type": "t_uint256"
          },
          {
            "astId": 4408,
            "contract": "contracts/facets/VaultFacet.sol:VaultFacet",
            "label": "mintLock",
            "offset": 0,
            "slot": "24",
            "type": "t_bool"
          },
          {
            "astId": 4410,
            "contract": "contracts/facets/VaultFacet.sol:VaultFacet",
            "label": "transferLock",
            "offset": 1,
            "slot": "24",
            "type": "t_bool"
          },
          {
            "astId": 4412,
            "contract": "contracts/facets/VaultFacet.sol:VaultFacet",
            "label": "mintLimitWindow",
            "offset": 2,
            "slot": "24",
            "type": "t_uint32"
          },
          {
            "astId": 4415,
            "contract": "contracts/facets/VaultFacet.sol:VaultFacet",
            "label": "defoTokenLimitConfig",
            "offset": 0,
            "slot": "25",
            "type": "t_struct(DefoTokenLimitConfig)4375_storage"
          }
        ],
        "numberOfBytes": "896"
      },
      "t_uint256": {
        "encoding": "inplace",
        "label": "uint256",
        "numberOfBytes": "32"
      },
      "t_uint32": {
        "encoding": "inplace",
        "label": "uint32",
        "numberOfBytes": "4"
      },
      "t_uint8": {
        "encoding": "inplace",
        "label": "uint8",
        "numberOfBytes": "1"
      }
    }
  }
}