{
  "address": "0x86fA245Cfc5B68f0DeaC90A285FCB1f31D4571B6",
  "abi": [
    {
      "anonymous": false,
      "inputs": [
        {
          "indexed": true,
          "internalType": "address",
          "name": "owner",
          "type": "address"
        },
        {
          "indexed": true,
          "internalType": "address",
          "name": "approved",
          "type": "address"
        },
        {
          "indexed": true,
          "internalType": "uint256",
          "name": "tokenId",
          "type": "uint256"
        }
      ],
      "name": "Approval",
      "type": "event"
    },
    {
      "anonymous": false,
      "inputs": [
        {
          "indexed": true,
          "internalType": "address",
          "name": "owner",
          "type": "address"
        },
        {
          "indexed": true,
          "internalType": "address",
          "name": "operator",
          "type": "address"
        },
        {
          "indexed": false,
          "internalType": "bool",
          "name": "approved",
          "type": "bool"
        }
      ],
      "name": "ApprovalForAll",
      "type": "event"
    },
    {
      "anonymous": false,
      "inputs": [
        {
          "indexed": true,
          "internalType": "address",
          "name": "from",
          "type": "address"
        },
        {
          "indexed": true,
          "internalType": "address",
          "name": "to",
          "type": "address"
        },
        {
          "indexed": true,
          "internalType": "uint256",
          "name": "tokenId",
          "type": "uint256"
        }
      ],
      "name": "Transfer",
      "type": "event"
    },
    {
      "inputs": [
        {
          "internalType": "address",
          "name": "_to",
          "type": "address"
        },
        {
          "internalType": "uint256",
          "name": "_tokenId",
          "type": "uint256"
        }
      ],
      "name": "approve",
      "outputs": [],
      "stateMutability": "nonpayable",
      "type": "function"
    },
    {
      "inputs": [
        {
          "internalType": "address",
          "name": "_owner",
          "type": "address"
        }
      ],
      "name": "balanceOf",
      "outputs": [
        {
          "internalType": "uint256",
          "name": "balance",
          "type": "uint256"
        }
      ],
      "stateMutability": "view",
      "type": "function"
    },
    {
      "inputs": [
        {
          "internalType": "uint256",
          "name": "tokenId",
          "type": "uint256"
        }
      ],
      "name": "burn",
      "outputs": [],
      "stateMutability": "nonpayable",
      "type": "function"
    },
    {
      "inputs": [
        {
          "internalType": "address",
          "name": "_to",
          "type": "address"
        },
        {
          "internalType": "uint8",
          "name": "_gemType",
          "type": "uint8"
        },
        {
          "internalType": "enum Booster",
          "name": "_booster",
          "type": "uint8"
        }
      ],
      "name": "createBooster",
      "outputs": [],
      "stateMutability": "nonpayable",
      "type": "function"
    },
    {
      "inputs": [
        {
          "internalType": "uint256",
          "name": "_tokenId",
          "type": "uint256"
        }
      ],
      "name": "getApproved",
      "outputs": [
        {
          "internalType": "address",
          "name": "operator",
          "type": "address"
        }
      ],
      "stateMutability": "view",
      "type": "function"
    },
    {
      "inputs": [],
      "name": "getGemIds",
      "outputs": [
        {
          "internalType": "uint256[]",
          "name": "",
          "type": "uint256[]"
        }
      ],
      "stateMutability": "view",
      "type": "function"
    },
    {
      "inputs": [
        {
          "internalType": "uint256",
          "name": "_tokenId",
          "type": "uint256"
        }
      ],
      "name": "getGemInfo",
      "outputs": [
        {
          "components": [
            {
              "internalType": "uint8",
              "name": "gemTypeId",
              "type": "uint8"
            },
            {
              "internalType": "enum Booster",
              "name": "booster",
              "type": "uint8"
            },
            {
              "internalType": "uint32",
              "name": "mintTime",
              "type": "uint32"
            },
            {
              "internalType": "uint32",
              "name": "lastRewardWithdrawalTime",
              "type": "uint32"
            },
            {
              "internalType": "uint32",
              "name": "lastMaintenanceTime",
              "type": "uint32"
            },
            {
              "components": [
                {
                  "internalType": "uint256",
                  "name": "claimedGross",
                  "type": "uint256"
                },
                {
                  "internalType": "uint256",
                  "name": "claimedNet",
                  "type": "uint256"
                },
                {
                  "internalType": "uint256",
                  "name": "stakedGross",
                  "type": "uint256"
                },
                {
                  "internalType": "uint256",
                  "name": "stakedNet",
                  "type": "uint256"
                },
                {
                  "internalType": "uint256",
                  "name": "unStakedGross",
                  "type": "uint256"
                },
                {
                  "internalType": "uint256",
                  "name": "unStakedGrossUp",
                  "type": "uint256"
                },
                {
                  "internalType": "uint256",
                  "name": "unStakedNet",
                  "type": "uint256"
                },
                {
                  "internalType": "uint256",
                  "name": "donated",
                  "type": "uint256"
                },
                {
                  "internalType": "uint256",
                  "name": "claimTaxPaid",
                  "type": "uint256"
                },
                {
                  "internalType": "uint256",
                  "name": "vaultTaxPaid",
                  "type": "uint256"
                }
              ],
              "internalType": "struct Fi",
              "name": "fi",
              "type": "tuple"
            }
          ],
          "internalType": "struct Gem",
          "name": "",
          "type": "tuple"
        }
      ],
      "stateMutability": "view",
      "type": "function"
    },
    {
      "inputs": [],
      "name": "getGemsInfo",
      "outputs": [
        {
          "internalType": "uint256[]",
          "name": "",
          "type": "uint256[]"
        },
        {
          "components": [
            {
              "internalType": "uint8",
              "name": "gemTypeId",
              "type": "uint8"
            },
            {
              "internalType": "enum Booster",
              "name": "booster",
              "type": "uint8"
            },
            {
              "internalType": "uint32",
              "name": "mintTime",
              "type": "uint32"
            },
            {
              "internalType": "uint32",
              "name": "lastRewardWithdrawalTime",
              "type": "uint32"
            },
            {
              "internalType": "uint32",
              "name": "lastMaintenanceTime",
              "type": "uint32"
            },
            {
              "components": [
                {
                  "internalType": "uint256",
                  "name": "claimedGross",
                  "type": "uint256"
                },
                {
                  "internalType": "uint256",
                  "name": "claimedNet",
                  "type": "uint256"
                },
                {
                  "internalType": "uint256",
                  "name": "stakedGross",
                  "type": "uint256"
                },
                {
                  "internalType": "uint256",
                  "name": "stakedNet",
                  "type": "uint256"
                },
                {
                  "internalType": "uint256",
                  "name": "unStakedGross",
                  "type": "uint256"
                },
                {
                  "internalType": "uint256",
                  "name": "unStakedGrossUp",
                  "type": "uint256"
                },
                {
                  "internalType": "uint256",
                  "name": "unStakedNet",
                  "type": "uint256"
                },
                {
                  "internalType": "uint256",
                  "name": "donated",
                  "type": "uint256"
                },
                {
                  "internalType": "uint256",
                  "name": "claimTaxPaid",
                  "type": "uint256"
                },
                {
                  "internalType": "uint256",
                  "name": "vaultTaxPaid",
                  "type": "uint256"
                }
              ],
              "internalType": "struct Fi",
              "name": "fi",
              "type": "tuple"
            }
          ],
          "internalType": "struct Gem[]",
          "name": "",
          "type": "tuple[]"
        }
      ],
      "stateMutability": "view",
      "type": "function"
    },
    {
      "inputs": [
        {
          "internalType": "uint8",
          "name": "_gemTypeId",
          "type": "uint8"
        }
      ],
      "name": "getMintWindow",
      "outputs": [
        {
          "components": [
            {
              "internalType": "uint256",
              "name": "mintCount",
              "type": "uint256"
            },
            {
              "internalType": "uint32",
              "name": "endOfMintLimitWindow",
              "type": "uint32"
            }
          ],
          "internalType": "struct GemTypeMintWindow",
          "name": "",
          "type": "tuple"
        }
      ],
      "stateMutability": "view",
      "type": "function"
    },
    {
      "inputs": [
        {
          "internalType": "string",
          "name": "_name",
          "type": "string"
        },
        {
          "internalType": "string",
          "name": "_symbol",
          "type": "string"
        }
      ],
      "name": "initializeERC721Facet",
      "outputs": [],
      "stateMutability": "nonpayable",
      "type": "function"
    },
    {
      "inputs": [],
      "name": "initialized",
      "outputs": [
        {
          "internalType": "bool",
          "name": "",
          "type": "bool"
        }
      ],
      "stateMutability": "view",
      "type": "function"
    },
    {
      "inputs": [
        {
          "internalType": "address",
          "name": "owner",
          "type": "address"
        },
        {
          "internalType": "address",
          "name": "operator",
          "type": "address"
        }
      ],
      "name": "isApprovedForAll",
      "outputs": [
        {
          "internalType": "bool",
          "name": "",
          "type": "bool"
        }
      ],
      "stateMutability": "view",
      "type": "function"
    },
    {
      "inputs": [
        {
          "internalType": "uint8",
          "name": "_gemType",
          "type": "uint8"
        }
      ],
      "name": "isMintAvailable",
      "outputs": [
        {
          "internalType": "bool",
          "name": "",
          "type": "bool"
        }
      ],
      "stateMutability": "view",
      "type": "function"
    },
    {
      "inputs": [
        {
          "internalType": "uint8",
          "name": "_gemTypeId",
          "type": "uint8"
        }
      ],
      "name": "mint",
      "outputs": [],
      "stateMutability": "nonpayable",
      "type": "function"
    },
    {
      "inputs": [
        {
          "internalType": "uint8",
          "name": "_gemType",
          "type": "uint8"
        },
        {
          "internalType": "address",
          "name": "_to",
          "type": "address"
        },
        {
          "internalType": "enum Booster",
          "name": "_booster",
          "type": "uint8"
        }
      ],
      "name": "mintTo",
      "outputs": [],
      "stateMutability": "nonpayable",
      "type": "function"
    },
    {
      "inputs": [],
      "name": "name",
      "outputs": [
        {
          "internalType": "string",
          "name": "",
          "type": "string"
        }
      ],
      "stateMutability": "view",
      "type": "function"
    },
    {
      "inputs": [
        {
          "internalType": "uint256",
          "name": "_tokenId",
          "type": "uint256"
        }
      ],
      "name": "ownerOf",
      "outputs": [
        {
          "internalType": "address",
          "name": "",
          "type": "address"
        }
      ],
      "stateMutability": "view",
      "type": "function"
    },
    {
      "inputs": [
        {
          "internalType": "address",
          "name": "_from",
          "type": "address"
        },
        {
          "internalType": "address",
          "name": "_to",
          "type": "address"
        },
        {
          "internalType": "uint256",
          "name": "_tokenId",
          "type": "uint256"
        }
      ],
      "name": "safeTransferFrom",
      "outputs": [],
      "stateMutability": "nonpayable",
      "type": "function"
    },
    {
      "inputs": [
        {
          "internalType": "address",
          "name": "_from",
          "type": "address"
        },
        {
          "internalType": "address",
          "name": "_to",
          "type": "address"
        },
        {
          "internalType": "uint256",
          "name": "_tokenId",
          "type": "uint256"
        },
        {
          "internalType": "bytes",
          "name": "_data",
          "type": "bytes"
        }
      ],
      "name": "safeTransferFrom",
      "outputs": [],
      "stateMutability": "nonpayable",
      "type": "function"
    },
    {
      "inputs": [
        {
          "internalType": "address",
          "name": "operator",
          "type": "address"
        },
        {
          "internalType": "bool",
          "name": "_approved",
          "type": "bool"
        }
      ],
      "name": "setApprovalForAll",
      "outputs": [],
      "stateMutability": "nonpayable",
      "type": "function"
    },
    {
      "inputs": [],
      "name": "symbol",
      "outputs": [
        {
          "internalType": "string",
          "name": "",
          "type": "string"
        }
      ],
      "stateMutability": "view",
      "type": "function"
    },
    {
      "inputs": [
        {
          "internalType": "uint256",
          "name": "index",
          "type": "uint256"
        }
      ],
      "name": "tokenByIndex",
      "outputs": [
        {
          "internalType": "uint256",
          "name": "",
          "type": "uint256"
        }
      ],
      "stateMutability": "view",
      "type": "function"
    },
    {
      "inputs": [
        {
          "internalType": "address",
          "name": "owner",
          "type": "address"
        },
        {
          "internalType": "uint256",
          "name": "index",
          "type": "uint256"
        }
      ],
      "name": "tokenOfOwnerByIndex",
      "outputs": [
        {
          "internalType": "uint256",
          "name": "",
          "type": "uint256"
        }
      ],
      "stateMutability": "view",
      "type": "function"
    },
    {
      "inputs": [
        {
          "internalType": "uint256",
          "name": "_tokenId",
          "type": "uint256"
        }
      ],
      "name": "tokenURI",
      "outputs": [
        {
          "internalType": "string",
          "name": "",
          "type": "string"
        }
      ],
      "stateMutability": "view",
      "type": "function"
    },
    {
      "inputs": [],
      "name": "totalSupply",
      "outputs": [
        {
          "internalType": "uint256",
          "name": "",
          "type": "uint256"
        }
      ],
      "stateMutability": "view",
      "type": "function"
    },
    {
      "inputs": [
        {
          "internalType": "address",
          "name": "_from",
          "type": "address"
        },
        {
          "internalType": "address",
          "name": "_to",
          "type": "address"
        },
        {
          "internalType": "uint256",
          "name": "_tokenId",
          "type": "uint256"
        }
      ],
      "name": "transferFrom",
      "outputs": [],
      "stateMutability": "nonpayable",
      "type": "function"
    }
  ],
  "transactionHash": "0xe9cdb53b8708f62b2f34e398083e706dc5f225dc481993f6ccecffab9112421d",
  "args": [],
  "numDeployments": 3,
  "solcInputHash": "bfb169e921209b3de409e9511ce02bd3",
  "bytecode": "0x608060405234801561001057600080fd5b50615b8d80620000216000396000f3fe608060405234801561001057600080fd5b506004361061018e5760003560e01c80636ecd2306116100de578063c7b8433a11610097578063ce4d260211610071578063ce4d2602146104a5578063e985e9c5146104c1578063ed97c34f146104f1578063fe47041c146105215761018e565b8063c7b8433a1461043b578063c87b56dd14610457578063ccbb0d76146104875761018e565b80636ecd230614610369578063703b93431461038557806370a08231146103b557806395d89b41146103e5578063a22cb46514610403578063b88d4fde1461041f5761018e565b8063287db3401161014b57806342842e0e1161012557806342842e0e146102d157806342966c68146102ed5780634f6ccce7146103095780636352211e146103395761018e565b8063287db340146102555780632f745c59146102855780633491c42d146102b55761018e565b806306fdde0314610193578063081812fc146101b1578063095ea7b3146101e1578063158ef93e146101fd57806318160ddd1461021b57806323b872dd14610239575b600080fd5b61019b610540565b6040516101a89190613c64565b60405180910390f35b6101cb60048036038101906101c69190613cd0565b61062d565b6040516101d89190613d3e565b60405180910390f35b6101fb60048036038101906101f69190613d85565b61066f565b005b610205610786565b6040516102129190613de0565b60405180910390f35b6102236107a2565b6040516102309190613e0a565b60405180910390f35b610253600480360381019061024e9190613e25565b6107b4565b005b61026f600480360381019061026a9190613eb1565b6107d4565b60405161027c9190613f3b565b60405180910390f35b61029f600480360381019061029a9190613d85565b6107ec565b6040516102ac9190613e0a565b60405180910390f35b6102cf60048036038101906102ca9190613f7b565b610800565b005b6102eb60048036038101906102e69190613e25565b61098b565b005b61030760048036038101906103029190613cd0565b6109ab565b005b610323600480360381019061031e9190613cd0565b610a07565b6040516103309190613e0a565b60405180910390f35b610353600480360381019061034e9190613cd0565b610a81565b6040516103609190613d3e565b60405180910390f35b610383600480360381019061037e9190613eb1565b610a93565b005b61039f600480360381019061039a9190613cd0565b61106a565b6040516103ac919061419c565b60405180910390f35b6103cf60048036038101906103ca91906141b8565b6111dd565b6040516103dc9190613e0a565b60405180910390f35b6103ed61129d565b6040516103fa9190613c64565b60405180910390f35b61041d60048036038101906104189190614211565b61138a565b005b61043960048036038101906104349190614386565b611508565b005b61045560048036038101906104509190614409565b61157c565b005b610471600480360381019061046c9190613cd0565b61164d565b60405161047e9190613c64565b60405180910390f35b61048f611794565b60405161049c919061450b565b60405180910390f35b6104bf60048036038101906104ba91906145ce565b6117b1565b005b6104db60048036038101906104d69190614646565b611985565b6040516104e89190613de0565b60405180910390f35b61050b60048036038101906105069190613eb1565b611a1e565b6040516105189190613de0565b60405180910390f35b610529611a30565b6040516105379291906147b2565b60405180910390f35b60606000602101600c0160009054906101000a900460ff16610597576040517f08c379a000000000000000000000000000000000000000000000000000000000815260040161058e90614835565b60405180910390fd5b600060210160000180546105aa90614884565b80601f01602080910402602001604051908101604052809291908181526020018280546105d690614884565b80156106235780601f106105f857610100808354040283529160200191610623565b820191906000526020600020905b81548152906001019060200180831161060657829003601f168201915b5050505050905090565b600080602101600501600083815260200190815260200160002060009054906101000a900473ffffffffffffffffffffffffffffffffffffffff169050919050565b600061067a82611c60565b90508073ffffffffffffffffffffffffffffffffffffffff168373ffffffffffffffffffffffffffffffffffffffff16036106ea576040517f08c379a00000000000000000000000000000000000000000000000000000000081526004016106e190614927565b60405180910390fd5b8073ffffffffffffffffffffffffffffffffffffffff16610709611cae565b73ffffffffffffffffffffffffffffffffffffffff161480610738575061073781610732611cae565b611d65565b5b610777576040517f08c379a000000000000000000000000000000000000000000000000000000000815260040161076e906149b9565b60405180910390fd5b6107818383611dfe565b505050565b600080602101600c0160009054906101000a900460ff16905090565b600080602101600a0180549050905090565b6107cf83838360405180602001604052806000815250611508565b505050565b6107dc613af5565b6107e582611ebd565b9050919050565b60006107f88383611faf565b905092915050565b610808611cae565b73ffffffffffffffffffffffffffffffffffffffff166000800160020160068081111561083857610837613fdd565b5b60078110610849576108486149d9565b5b0160009054906101000a900473ffffffffffffffffffffffffffffffffffffffff1673ffffffffffffffffffffffffffffffffffffffff16146108c1576040517f08c379a00000000000000000000000000000000000000000000000000000000081526004016108b890614a54565b60405180910390fd5b81600060390160008573ffffffffffffffffffffffffffffffffffffffff1673ffffffffffffffffffffffffffffffffffffffff16815260200190815260200160002060006101000a81548160ff021916908360ff160217905550806000603a0160008573ffffffffffffffffffffffffffffffffffffffff1673ffffffffffffffffffffffffffffffffffffffff16815260200190815260200160002060006101000a81548160ff0219169083600281111561098157610980613fdd565b5b0217905550505050565b6109a683838360405180602001604052806000815250611508565b505050565b6109bc6109b6611cae565b8261205a565b6109fb576040517f08c379a00000000000000000000000000000000000000000000000000000000081526004016109f290614ae6565b60405180910390fd5b610a04816120fb565b50565b600080602101600a01805490508210610a55576040517f08c379a0000000000000000000000000000000000000000000000000000000008152600401610a4c90614b78565b60405180910390fd5b6000602101600a018281548110610a6f57610a6e6149d9565b5b90600052602060002001549050919050565b6000610a8c82611c60565b9050919050565b80610a9d81612222565b610adc576040517f08c379a0000000000000000000000000000000000000000000000000000000008152600401610ad390614be4565b60405180910390fd5b6000610ae6611cae565b905060005b6002811015610c3a576000601c018460ff1681548110610b0e57610b0d6149d9565b5b90600052602060002090600602016002018160028110610b3157610b306149d9565b5b0154600080016000018260028110610b4c57610b4b6149d9565b5b0160009054906101000a900473ffffffffffffffffffffffffffffffffffffffff1673ffffffffffffffffffffffffffffffffffffffff166370a08231846040518263ffffffff1660e01b8152600401610ba69190613d3e565b602060405180830381865afa158015610bc3573d6000803e3d6000fd5b505050506040513d601f19601f82011682018060405250810190610be79190614c19565b11610c27576040517f08c379a0000000000000000000000000000000000000000000000000000000008152600401610c1e90614c92565b60405180910390fd5b8080610c3290614ce1565b915050610aeb565b5060005b6003811015610e9e5760005b6002811015610e8a576000610ccd6000601c018760ff1681548110610c7257610c716149d9565b5b90600052602060002090600602016002018360028110610c9557610c946149d9565b5b0154600080016009018460028110610cb057610caf6149d9565b5b600302018560038110610cc657610cc56149d9565b5b01546123ab565b905060008114610e7657600073ffffffffffffffffffffffffffffffffffffffff16600080016002018460078110610d0857610d076149d9565b5b0160009054906101000a900473ffffffffffffffffffffffffffffffffffffffff1673ffffffffffffffffffffffffffffffffffffffff1603610d80576040517f08c379a0000000000000000000000000000000000000000000000000000000008152600401610d7790614d9b565b60405180910390fd5b600080016000018260028110610d9957610d986149d9565b5b0160009054906101000a900473ffffffffffffffffffffffffffffffffffffffff1673ffffffffffffffffffffffffffffffffffffffff166323b872dd85600080016002018660078110610df057610def6149d9565b5b0160009054906101000a900473ffffffffffffffffffffffffffffffffffffffff16846040518463ffffffff1660e01b8152600401610e3193929190614dbb565b6020604051808303816000875af1158015610e50573d6000803e3d6000fd5b505050506040513d601f19601f82011682018060405250810190610e749190614e07565b505b508080610e8290614ce1565b915050610c4a565b508080610e9690614ce1565b915050610c3e565b506000600390506000600290506000806000016002018260078110610ec657610ec56149d9565b5b0160009054906101000a900473ffffffffffffffffffffffffffffffffffffffff1673ffffffffffffffffffffffffffffffffffffffff16636a627842600080016002018560078110610f1c57610f1b6149d9565b5b0160009054906101000a900473ffffffffffffffffffffffffffffffffffffffff166040518263ffffffff1660e01b8152600401610f5a9190613d3e565b6020604051808303816000875af1158015610f79573d6000803e3d6000fd5b505050506040513d601f19601f82011682018060405250810190610f9d9190614c19565b905060008060390160008673ffffffffffffffffffffffffffffffffffffffff1673ffffffffffffffffffffffffffffffffffffffff16815260200190815260200160002060009054906101000a900460ff1660ff168760ff1614611003576000611054565b6000603a0160008673ffffffffffffffffffffffffffffffffffffffff1673ffffffffffffffffffffffffffffffffffffffff16815260200190815260200160002060009054906101000a900460ff165b90506110618786836123e7565b50505050505050565b611072613b15565b600060200160008381526020019081526020016000206040518060c00160405290816000820160009054906101000a900460ff1660ff1660ff1681526020016000820160019054906101000a900460ff1660028111156110d5576110d4613fdd565b5b60028111156110e7576110e6613fdd565b5b81526020016000820160029054906101000a900463ffffffff1663ffffffff1663ffffffff1681526020016000820160069054906101000a900463ffffffff1663ffffffff1663ffffffff16815260200160008201600a9054906101000a900463ffffffff1663ffffffff1663ffffffff1681526020016001820160405180610140016040529081600082015481526020016001820154815260200160028201548152602001600382015481526020016004820154815260200160058201548152602001600682015481526020016007820154815260200160088201548152602001600982015481525050815250509050919050565b600081600073ffffffffffffffffffffffffffffffffffffffff168173ffffffffffffffffffffffffffffffffffffffff160361124f576040517f08c379a000000000000000000000000000000000000000000000000000000000815260040161124690614ea6565b60405180910390fd5b600060210160040160008473ffffffffffffffffffffffffffffffffffffffff1673ffffffffffffffffffffffffffffffffffffffff16815260200190815260200160002054915050919050565b60606000602101600c0160009054906101000a900460ff166112f4576040517f08c379a00000000000000000000000000000000000000000000000000000000081526004016112eb90614835565b60405180910390fd5b6000602101600101805461130790614884565b80601f016020809104026020016040519081016040528092919081815260200182805461133390614884565b80156113805780601f1061135557610100808354040283529160200191611380565b820191906000526020600020905b81548152906001019060200180831161136357829003601f168201915b5050505050905090565b6000611394611cae565b90508273ffffffffffffffffffffffffffffffffffffffff168173ffffffffffffffffffffffffffffffffffffffff1603611404576040517f08c379a00000000000000000000000000000000000000000000000000000000081526004016113fb90614f12565b60405180910390fd5b81600060210160060160008373ffffffffffffffffffffffffffffffffffffffff1673ffffffffffffffffffffffffffffffffffffffff16815260200190815260200160002060008573ffffffffffffffffffffffffffffffffffffffff1673ffffffffffffffffffffffffffffffffffffffff16815260200190815260200160002060006101000a81548160ff0219169083151502179055508273ffffffffffffffffffffffffffffffffffffffff168173ffffffffffffffffffffffffffffffffffffffff167f17307eab39ab6107e8899845ad3d59bd9653f200f220920489ca2b5937696c31846040516114fb9190613de0565b60405180910390a3505050565b6000611512611cae565b905061151e818461205a565b61155d576040517f08c379a000000000000000000000000000000000000000000000000000000000815260040161155490614fa4565b60405180910390fd5b61156a81868686866125e7565b611575858585612707565b5050505050565b611584611cae565b73ffffffffffffffffffffffffffffffffffffffff16600080016002016006808111156115b4576115b3613fdd565b5b600781106115c5576115c46149d9565b5b0160009054906101000a900473ffffffffffffffffffffffffffffffffffffffff1673ffffffffffffffffffffffffffffffffffffffff161461163d576040517f08c379a000000000000000000000000000000000000000000000000000000000815260040161163490614a54565b60405180910390fd5b6116488383836123e7565b505050565b60606000602101600c0160009054906101000a900460ff166116a4576040517f08c379a000000000000000000000000000000000000000000000000000000000815260040161169b90614835565b60405180910390fd5b816116ae8161297c565b60008060210160070180546116c290614884565b80601f01602080910402602001604051908101604052809291908181526020018280546116ee90614884565b801561173b5780601f106117105761010080835404028352916020019161173b565b820191906000526020600020905b81548152906001019060200180831161171e57829003601f168201915b505050505090506000815111611760576040518060200160405280600081525061178b565b8061176a856129c7565b60405160200161177b929190615000565b6040516020818303038152906040525b92505050919050565b606060006117a0611cae565b90506117ab81612b27565b91505090565b6117b9612cab565b6000602101600c0160009054906101000a900460ff161561180f576040517f08c379a000000000000000000000000000000000000000000000000000000000815260040161180690615070565b60405180910390fd5b8160006021016000019081611824919061523c565b50806000602101600101908161183a919061523c565b506000611845612d46565b905060018160030160007f80ac58cd000000000000000000000000000000000000000000000000000000007bffffffffffffffffffffffffffffffffffffffffffffffffffffffff19167bffffffffffffffffffffffffffffffffffffffffffffffffffffffff1916815260200190815260200160002060006101000a81548160ff02191690831515021790555060018160030160007f5b5e139f000000000000000000000000000000000000000000000000000000007bffffffffffffffffffffffffffffffffffffffffffffffffffffffff19167bffffffffffffffffffffffffffffffffffffffffffffffffffffffff1916815260200190815260200160002060006101000a81548160ff02191690831515021790555060016000602101600c0160006101000a81548160ff021916908315150217905550505050565b60008060210160060160008473ffffffffffffffffffffffffffffffffffffffff1673ffffffffffffffffffffffffffffffffffffffff16815260200190815260200160002060008373ffffffffffffffffffffffffffffffffffffffff1673ffffffffffffffffffffffffffffffffffffffff16815260200190815260200160002060009054906101000a900460ff16905092915050565b6000611a2982612222565b9050919050565b6060806000611a3d611794565b90506000815167ffffffffffffffff811115611a5c57611a5b61425b565b5b604051908082528060200260200182016040528015611a9557816020015b611a82613b15565b815260200190600190039081611a7a5790505b50905060005b8251811015611c535760006020016000848381518110611abe57611abd6149d9565b5b602002602001015181526020019081526020016000206040518060c00160405290816000820160009054906101000a900460ff1660ff1660ff1681526020016000820160019054906101000a900460ff166002811115611b2157611b20613fdd565b5b6002811115611b3357611b32613fdd565b5b81526020016000820160029054906101000a900463ffffffff1663ffffffff1663ffffffff1681526020016000820160069054906101000a900463ffffffff1663ffffffff1663ffffffff16815260200160008201600a9054906101000a900463ffffffff1663ffffffff1663ffffffff168152602001600182016040518061014001604052908160008201548152602001600182015481526020016002820154815260200160038201548152602001600482015481526020016005820154815260200160068201548152602001600782015481526020016008820154815260200160098201548152505081525050828281518110611c3557611c346149d9565b5b60200260200101819052508080611c4b90614ce1565b915050611a9b565b5081819350935050509091565b600081611c6c8161297c565b6000602101600301600084815260200190815260200160002060009054906101000a900473ffffffffffffffffffffffffffffffffffffffff16915050919050565b60003073ffffffffffffffffffffffffffffffffffffffff16611ccf612d73565b73ffffffffffffffffffffffffffffffffffffffff1603611d5e57600080368080601f016020809104026020016040519081016040528093929190818152602001838380828437600081840152601f19601f820116905080830192505050505050509050600080369050905073ffffffffffffffffffffffffffffffffffffffff818301511692505050611d62565b3390505b90565b60008060210160060160008473ffffffffffffffffffffffffffffffffffffffff1673ffffffffffffffffffffffffffffffffffffffff16815260200190815260200160002060008373ffffffffffffffffffffffffffffffffffffffff1673ffffffffffffffffffffffffffffffffffffffff16815260200190815260200160002060009054906101000a900460ff16905092915050565b816000602101600501600083815260200190815260200160002060006101000a81548173ffffffffffffffffffffffffffffffffffffffff021916908373ffffffffffffffffffffffffffffffffffffffff160217905550808273ffffffffffffffffffffffffffffffffffffffff16611e7783611c60565b73ffffffffffffffffffffffffffffffffffffffff167f8c5be1e5ebec7d5bd14f71427d1e84f3dd0314c0f7b2291e5b200ac8c7c3b92560405160405180910390a45050565b611ec5613af5565b6000611ecf612d7b565b9050600081601d018460ff1681548110611eec57611eeb6149d9565b5b9060005260206000209060020201604051806040016040529081600082015481526020016001820160009054906101000a900463ffffffff1663ffffffff1663ffffffff16815250509050806020015163ffffffff16421115611fa5575b8160000160180160029054906101000a900463ffffffff1681602001818151611f73919061530e565b91509063ffffffff16908163ffffffff1681525050806020015163ffffffff164211611f4a5760008160000181815250505b8092505050919050565b6000611fba83612d80565b8210611ffb576040517f08c379a0000000000000000000000000000000000000000000000000000000008152600401611ff2906153ba565b60405180910390fd5b600060210160080160008473ffffffffffffffffffffffffffffffffffffffff1673ffffffffffffffffffffffffffffffffffffffff168152602001908152602001600020600083815260200190815260200160002054905092915050565b6000816120668161297c565b600061207184611c60565b90508073ffffffffffffffffffffffffffffffffffffffff168573ffffffffffffffffffffffffffffffffffffffff1614806120b357506120b28186611d65565b5b806120f157508473ffffffffffffffffffffffffffffffffffffffff166120d985612e40565b73ffffffffffffffffffffffffffffffffffffffff16145b9250505092915050565b600061210682611c60565b905061211481600084612e8e565b61211f600083611dfe565b600060210160040160008273ffffffffffffffffffffffffffffffffffffffff1673ffffffffffffffffffffffffffffffffffffffff1681526020019081526020016000206000815480929190612175906153da565b91905055506000602101600301600083815260200190815260200160002060006101000a81549073ffffffffffffffffffffffffffffffffffffffff021916905581600073ffffffffffffffffffffffffffffffffffffffff168273ffffffffffffffffffffffffffffffffffffffff167fddf252ad1be2c89b69c2b068fc378daa952ba7f163c4a11628f55a4df523b3ef60405160405180910390a461221e8160008461313b565b5050565b60008061222d612d7b565b9050600081601c018460ff168154811061224a576122496149d9565b5b90600052602060002090600602016040518060a00160405290816000820154815260200160018201548152602001600282016002806020026040519081016040528092919082600280156122b3576020028201915b81548152602001906001019080831161229f575b50505050508152602001600482015481526020016005820160009054906101000a900460ff1660ff1660ff16815250509050600082601d018560ff1681548110612300576122ff6149d9565b5b9060005260206000209060020201604051806040016040529081600082015481526020016001820160009054906101000a900463ffffffff1663ffffffff1663ffffffff168152505090508260000160180160009054906101000a900460ff161580156123a15750816080015160ff16816000015110801561238c5750806020015163ffffffff164211155b806123a05750806020015163ffffffff1642115b5b9350505050919050565b60008082116123bb5760006123df565b6064806123c89190615403565b82846123d49190615403565b6123de919061548c565b5b905092915050565b60006123f283613267565b90506123fd846132a2565b612405613b15565b84816000019060ff16908160ff168152505042816080019063ffffffff16908163ffffffff168152505042816060019063ffffffff16908163ffffffff168152505042816040019063ffffffff16908163ffffffff1681525050828160200190600281111561247757612476613fdd565b5b9081600281111561248b5761248a613fdd565b5b81525050806000602001600084815260200190815260200160002060008201518160000160006101000a81548160ff021916908360ff16021790555060208201518160000160016101000a81548160ff021916908360028111156124f2576124f1613fdd565b5b021790555060408201518160000160026101000a81548163ffffffff021916908363ffffffff16021790555060608201518160000160066101000a81548163ffffffff021916908363ffffffff160217905550608082015181600001600a6101000a81548163ffffffff021916908363ffffffff16021790555060a082015181600101600082015181600001556020820151816001015560408201518160020155606082015181600301556080820151816004015560a0820151816005015560c0820151816006015560e082015181600701556101008201518160080155610120820151816009015550509050505050505050565b6000833b905060008111156126ff578373ffffffffffffffffffffffffffffffffffffffff1663150b7a02878786866040518563ffffffff1660e01b81526004016126359493929190615512565b6020604051808303816000875af1158015612654573d6000803e3d6000fd5b505050506040513d601f19601f8201168201806040525081019061267891906155b6565b7bffffffffffffffffffffffffffffffffffffffffffffffffffffffff191663150b7a0260e01b7bffffffffffffffffffffffffffffffffffffffffffffffffffffffff1916146126fe576040517f08c379a00000000000000000000000000000000000000000000000000000000081526004016126f590615655565b60405180910390fd5b5b505050505050565b8273ffffffffffffffffffffffffffffffffffffffff1661272782611c60565b73ffffffffffffffffffffffffffffffffffffffff161461277d576040517f08c379a0000000000000000000000000000000000000000000000000000000008152600401612774906156e7565b60405180910390fd5b600073ffffffffffffffffffffffffffffffffffffffff168273ffffffffffffffffffffffffffffffffffffffff16036127ec576040517f08c379a00000000000000000000000000000000000000000000000000000000081526004016127e390615779565b60405180910390fd5b6127f7838383612e8e565b612802600082611dfe565b600060210160040160008473ffffffffffffffffffffffffffffffffffffffff1673ffffffffffffffffffffffffffffffffffffffff1681526020019081526020016000206000815480929190612858906153da565b9190505550600060210160040160008373ffffffffffffffffffffffffffffffffffffffff1673ffffffffffffffffffffffffffffffffffffffff16815260200190815260200160002060008154809291906128b390614ce1565b9190505550816000602101600301600083815260200190815260200160002060006101000a81548173ffffffffffffffffffffffffffffffffffffffff021916908373ffffffffffffffffffffffffffffffffffffffff160217905550808273ffffffffffffffffffffffffffffffffffffffff168473ffffffffffffffffffffffffffffffffffffffff167fddf252ad1be2c89b69c2b068fc378daa952ba7f163c4a11628f55a4df523b3ef60405160405180910390a46129776000838361313b565b505050565b6129858161339f565b6129c4576040517f08c379a00000000000000000000000000000000000000000000000000000000081526004016129bb906157e5565b60405180910390fd5b50565b606060008203612a0e576040518060400160405280600181526020017f30000000000000000000000000000000000000000000000000000000000000008152509050612b22565b600082905060005b60008214612a40578080612a2990614ce1565b915050600a82612a39919061548c565b9150612a16565b60008167ffffffffffffffff811115612a5c57612a5b61425b565b5b6040519080825280601f01601f191660200182016040528015612a8e5781602001600182028036833780820191505090505b5090505b60008514612b1b57600182612aa79190615805565b9150600a85612ab69190615839565b6030612ac2919061586a565b60f81b818381518110612ad857612ad76149d9565b5b60200101907effffffffffffffffffffffffffffffffffffffffffffffffffffffffffffff1916908160001a905350600a85612b14919061548c565b9450612a92565b8093505050505b919050565b606060008060210160040160008473ffffffffffffffffffffffffffffffffffffffff1673ffffffffffffffffffffffffffffffffffffffff16815260200190815260200160002054905060008167ffffffffffffffff811115612b8e57612b8d61425b565b5b604051908082528060200260200182016040528015612bbc5781602001602082028036833780820191505090505b50905060005b82811015612ca05760008060210160080160008773ffffffffffffffffffffffffffffffffffffffff1673ffffffffffffffffffffffffffffffffffffffff1681526020019081526020016000206000838152602001908152602001600020549050612c2d8161339f565b612c6c576040517f08c379a0000000000000000000000000000000000000000000000000000000008152600401612c639061590c565b60405180910390fd5b80838381518110612c8057612c7f6149d9565b5b602002602001018181525050508080612c9890614ce1565b915050612bc2565b508092505050919050565b612cb3612d46565b60040160009054906101000a900473ffffffffffffffffffffffffffffffffffffffff1673ffffffffffffffffffffffffffffffffffffffff163373ffffffffffffffffffffffffffffffffffffffff1614612d44576040517f08c379a0000000000000000000000000000000000000000000000000000000008152600401612d3b9061599e565b60405180910390fd5b565b6000807fc8fcad8db84d3cc18b4c41d551ea0ee66dd599cde068d998e57d5e09332c131c90508091505090565b600033905090565b600090565b600081600073ffffffffffffffffffffffffffffffffffffffff168173ffffffffffffffffffffffffffffffffffffffff1603612df2576040517f08c379a0000000000000000000000000000000000000000000000000000000008152600401612de990614ea6565b60405180910390fd5b600060210160040160008473ffffffffffffffffffffffffffffffffffffffff1673ffffffffffffffffffffffffffffffffffffffff16815260200190815260200160002054915050919050565b600081612e4c8161297c565b6000602101600501600084815260200190815260200160002060009054906101000a900473ffffffffffffffffffffffffffffffffffffffff16915050919050565b6000800160180160019054906101000a900460ff1615612ee3576040517f08c379a0000000000000000000000000000000000000000000000000000000008152600401612eda90615a30565b60405180910390fd5b3073ffffffffffffffffffffffffffffffffffffffff16637e5c923d8484846040518463ffffffff1660e01b8152600401612f2093929190614dbb565b600060405180830381600087803b158015612f3a57600080fd5b505af1158015612f4e573d6000803e3d6000fd5b50505050612f5d838383613411565b600073ffffffffffffffffffffffffffffffffffffffff168373ffffffffffffffffffffffffffffffffffffffff161461313657600060380160008473ffffffffffffffffffffffffffffffffffffffff1673ffffffffffffffffffffffffffffffffffffffff168152602001908152602001600020600060380160008473ffffffffffffffffffffffffffffffffffffffff1673ffffffffffffffffffffffffffffffffffffffff168152602001908152602001600020600082015481600001556001820154816001015560028201548160020155600382015481600301556004820154816004015560058201548160050155600682015481600601556007820154816007015560088201548160080155600982015481600901559050506000603a0160008473ffffffffffffffffffffffffffffffffffffffff1673ffffffffffffffffffffffffffffffffffffffff16815260200190815260200160002060009054906101000a900460ff166000603a0160008473ffffffffffffffffffffffffffffffffffffffff1673ffffffffffffffffffffffffffffffffffffffff16815260200190815260200160002060006101000a81548160ff021916908360028111156131305761312f613fdd565b5b02179055505b505050565b613146838383613421565b600073ffffffffffffffffffffffffffffffffffffffff168373ffffffffffffffffffffffffffffffffffffffff161461326257600060380160008473ffffffffffffffffffffffffffffffffffffffff1673ffffffffffffffffffffffffffffffffffffffff16815260200190815260200160002060008082016000905560018201600090556002820160009055600382016000905560048201600090556005820160009055600682016000905560078201600090556008820160009055600982016000905550506000603a0160008473ffffffffffffffffffffffffffffffffffffffff1673ffffffffffffffffffffffffffffffffffffffff16815260200190815260200160002060006101000a81549060ff02191690555b505050565b600080613272611cae565b905061327d83613431565b915061329c8160008585604051806020016040528060008152506125e7565b50919050565b60006132ac612d7b565b9050600081601d018360ff16815481106132c9576132c86149d9565b5b906000526020600020906002020190508060010160009054906101000a900463ffffffff1663ffffffff16421115613380575b8160000160180160029054906101000a900463ffffffff168160010160008282829054906101000a900463ffffffff16613336919061530e565b92506101000a81548163ffffffff021916908363ffffffff1602179055508060010160009054906101000a900463ffffffff1663ffffffff1642116132fc57600081600001819055505b80600001600081548092919061339590614ce1565b9190505550505050565b60008073ffffffffffffffffffffffffffffffffffffffff166000602101600301600084815260200190815260200160002060009054906101000a900473ffffffffffffffffffffffffffffffffffffffff1673ffffffffffffffffffffffffffffffffffffffff1614159050919050565b61341c838383613464565b505050565b61342c838383613576565b505050565b6000613443600060210160020161357b565b905061344f8282613589565b61345f600060210160020161376c565b919050565b61346f838383613782565b600073ffffffffffffffffffffffffffffffffffffffff168373ffffffffffffffffffffffffffffffffffffffff16036134b1576134ac81613787565b6134f0565b8173ffffffffffffffffffffffffffffffffffffffff168373ffffffffffffffffffffffffffffffffffffffff16146134ef576134ee83826137e2565b5b5b600073ffffffffffffffffffffffffffffffffffffffff168273ffffffffffffffffffffffffffffffffffffffff16036135325761352d81613971565b613571565b8273ffffffffffffffffffffffffffffffffffffffff168273ffffffffffffffffffffffffffffffffffffffff16146135705761356f8282613a6a565b5b5b505050565b505050565b600081600001549050919050565b600073ffffffffffffffffffffffffffffffffffffffff168273ffffffffffffffffffffffffffffffffffffffff16036135f8576040517f08c379a00000000000000000000000000000000000000000000000000000000081526004016135ef90615a9c565b60405180910390fd5b6136018161339f565b15613641576040517f08c379a000000000000000000000000000000000000000000000000000000000815260040161363890615b08565b60405180910390fd5b61364d60008383612e8e565b600060210160040160008373ffffffffffffffffffffffffffffffffffffffff1673ffffffffffffffffffffffffffffffffffffffff16815260200190815260200160002060008154809291906136a390614ce1565b9190505550816000602101600301600083815260200190815260200160002060006101000a81548173ffffffffffffffffffffffffffffffffffffffff021916908373ffffffffffffffffffffffffffffffffffffffff160217905550808273ffffffffffffffffffffffffffffffffffffffff16600073ffffffffffffffffffffffffffffffffffffffff167fddf252ad1be2c89b69c2b068fc378daa952ba7f163c4a11628f55a4df523b3ef60405160405180910390a46137686000838361313b565b5050565b6001816000016000828254019250508190555050565b505050565b6000602101600a01805490506000602101600b016000838152602001908152602001600020819055506000602101600a0181908060018154018082558091505060019003906000526020600020016000909190919091505550565b600060016137ef84612d80565b6137f99190615805565b905060008060210160090160008481526020019081526020016000205490508181146138f45760008060210160080160008673ffffffffffffffffffffffffffffffffffffffff1673ffffffffffffffffffffffffffffffffffffffff168152602001908152602001600020600084815260200190815260200160002054905080600060210160080160008773ffffffffffffffffffffffffffffffffffffffff1673ffffffffffffffffffffffffffffffffffffffff168152602001908152602001600020600084815260200190815260200160002081905550816000602101600901600083815260200190815260200160002081905550505b6000602101600901600084815260200190815260200160002060009055600060210160080160008573ffffffffffffffffffffffffffffffffffffffff1673ffffffffffffffffffffffffffffffffffffffff16815260200190815260200160002060008381526020019081526020016000206000905550505050565b600060016000602101600a018054905061398b9190615805565b9050600080602101600b016000848152602001908152602001600020549050600080602101600a0183815481106139c5576139c46149d9565b5b90600052602060002001549050806000602101600a0183815481106139ed576139ec6149d9565b5b9060005260206000200181905550816000602101600b016000838152602001908152602001600020819055506000602101600b016000858152602001908152602001600020600090556000602101600a01805480613a4e57613a4d615b28565b5b6001900381819060005260206000200160009055905550505050565b6000613a7583612d80565b905081600060210160080160008573ffffffffffffffffffffffffffffffffffffffff1673ffffffffffffffffffffffffffffffffffffffff168152602001908152602001600020600083815260200190815260200160002081905550806000602101600901600084815260200190815260200160002081905550505050565b604051806040016040528060008152602001600063ffffffff1681525090565b6040518060c00160405280600060ff16815260200160006002811115613b3e57613b3d613fdd565b5b8152602001600063ffffffff168152602001600063ffffffff168152602001600063ffffffff168152602001613b72613b78565b81525090565b604051806101400160405280600081526020016000815260200160008152602001600081526020016000815260200160008152602001600081526020016000815260200160008152602001600081525090565b600081519050919050565b600082825260208201905092915050565b60005b83811015613c05578082015181840152602081019050613bea565b83811115613c14576000848401525b50505050565b6000601f19601f8301169050919050565b6000613c3682613bcb565b613c408185613bd6565b9350613c50818560208601613be7565b613c5981613c1a565b840191505092915050565b60006020820190508181036000830152613c7e8184613c2b565b905092915050565b6000604051905090565b600080fd5b600080fd5b6000819050919050565b613cad81613c9a565b8114613cb857600080fd5b50565b600081359050613cca81613ca4565b92915050565b600060208284031215613ce657613ce5613c90565b5b6000613cf484828501613cbb565b91505092915050565b600073ffffffffffffffffffffffffffffffffffffffff82169050919050565b6000613d2882613cfd565b9050919050565b613d3881613d1d565b82525050565b6000602082019050613d536000830184613d2f565b92915050565b613d6281613d1d565b8114613d6d57600080fd5b50565b600081359050613d7f81613d59565b92915050565b60008060408385031215613d9c57613d9b613c90565b5b6000613daa85828601613d70565b9250506020613dbb85828601613cbb565b9150509250929050565b60008115159050919050565b613dda81613dc5565b82525050565b6000602082019050613df56000830184613dd1565b92915050565b613e0481613c9a565b82525050565b6000602082019050613e1f6000830184613dfb565b92915050565b600080600060608486031215613e3e57613e3d613c90565b5b6000613e4c86828701613d70565b9350506020613e5d86828701613d70565b9250506040613e6e86828701613cbb565b9150509250925092565b600060ff82169050919050565b613e8e81613e78565b8114613e9957600080fd5b50565b600081359050613eab81613e85565b92915050565b600060208284031215613ec757613ec6613c90565b5b6000613ed584828501613e9c565b91505092915050565b613ee781613c9a565b82525050565b600063ffffffff82169050919050565b613f0681613eed565b82525050565b604082016000820151613f226000850182613ede565b506020820151613f356020850182613efd565b50505050565b6000604082019050613f506000830184613f0c565b92915050565b60038110613f6357600080fd5b50565b600081359050613f7581613f56565b92915050565b600080600060608486031215613f9457613f93613c90565b5b6000613fa286828701613d70565b9350506020613fb386828701613e9c565b9250506040613fc486828701613f66565b9150509250925092565b613fd781613e78565b82525050565b7f4e487b7100000000000000000000000000000000000000000000000000000000600052602160045260246000fd5b6003811061401d5761401c613fdd565b5b50565b600081905061402e8261400c565b919050565b600061403e82614020565b9050919050565b61404e81614033565b82525050565b6101408201600082015161406b6000850182613ede565b50602082015161407e6020850182613ede565b5060408201516140916040850182613ede565b5060608201516140a46060850182613ede565b5060808201516140b76080850182613ede565b5060a08201516140ca60a0850182613ede565b5060c08201516140dd60c0850182613ede565b5060e08201516140f060e0850182613ede565b50610100820151614105610100850182613ede565b5061012082015161411a610120850182613ede565b50505050565b6101e0820160008201516141376000850182613fce565b50602082015161414a6020850182614045565b50604082015161415d6040850182613efd565b5060608201516141706060850182613efd565b5060808201516141836080850182613efd565b5060a082015161419660a0850182614054565b50505050565b60006101e0820190506141b26000830184614120565b92915050565b6000602082840312156141ce576141cd613c90565b5b60006141dc84828501613d70565b91505092915050565b6141ee81613dc5565b81146141f957600080fd5b50565b60008135905061420b816141e5565b92915050565b6000806040838503121561422857614227613c90565b5b600061423685828601613d70565b9250506020614247858286016141fc565b9150509250929050565b600080fd5b600080fd5b7f4e487b7100000000000000000000000000000000000000000000000000000000600052604160045260246000fd5b61429382613c1a565b810181811067ffffffffffffffff821117156142b2576142b161425b565b5b80604052505050565b60006142c5613c86565b90506142d1828261428a565b919050565b600067ffffffffffffffff8211156142f1576142f061425b565b5b6142fa82613c1a565b9050602081019050919050565b82818337600083830152505050565b6000614329614324846142d6565b6142bb565b90508281526020810184848401111561434557614344614256565b5b614350848285614307565b509392505050565b600082601f83011261436d5761436c614251565b5b813561437d848260208601614316565b91505092915050565b600080600080608085870312156143a05761439f613c90565b5b60006143ae87828801613d70565b94505060206143bf87828801613d70565b93505060406143d087828801613cbb565b925050606085013567ffffffffffffffff8111156143f1576143f0613c95565b5b6143fd87828801614358565b91505092959194509250565b60008060006060848603121561442257614421613c90565b5b600061443086828701613e9c565b935050602061444186828701613d70565b925050604061445286828701613f66565b9150509250925092565b600081519050919050565b600082825260208201905092915050565b6000819050602082019050919050565b60006144948383613ede565b60208301905092915050565b6000602082019050919050565b60006144b88261445c565b6144c28185614467565b93506144cd83614478565b8060005b838110156144fe5781516144e58882614488565b97506144f0836144a0565b9250506001810190506144d1565b5085935050505092915050565b6000602082019050818103600083015261452581846144ad565b905092915050565b600067ffffffffffffffff8211156145485761454761425b565b5b61455182613c1a565b9050602081019050919050565b600061457161456c8461452d565b6142bb565b90508281526020810184848401111561458d5761458c614256565b5b614598848285614307565b509392505050565b600082601f8301126145b5576145b4614251565b5b81356145c584826020860161455e565b91505092915050565b600080604083850312156145e5576145e4613c90565b5b600083013567ffffffffffffffff81111561460357614602613c95565b5b61460f858286016145a0565b925050602083013567ffffffffffffffff8111156146305761462f613c95565b5b61463c858286016145a0565b9150509250929050565b6000806040838503121561465d5761465c613c90565b5b600061466b85828601613d70565b925050602061467c85828601613d70565b9150509250929050565b600081519050919050565b600082825260208201905092915050565b6000819050602082019050919050565b6101e0820160008201516146c96000850182613fce565b5060208201516146dc6020850182614045565b5060408201516146ef6040850182613efd565b5060608201516147026060850182613efd565b5060808201516147156080850182613efd565b5060a082015161472860a0850182614054565b50505050565b600061473a83836146b2565b6101e08301905092915050565b6000602082019050919050565b600061475f82614686565b6147698185614691565b9350614774836146a2565b8060005b838110156147a557815161478c888261472e565b975061479783614747565b925050600181019050614778565b5085935050505092915050565b600060408201905081810360008301526147cc81856144ad565b905081810360208301526147e08184614754565b90509392505050565b7f4552433732313a206e6f7420696e697469616c697a6564000000000000000000600082015250565b600061481f601783613bd6565b915061482a826147e9565b602082019050919050565b6000602082019050818103600083015261484e81614812565b9050919050565b7f4e487b7100000000000000000000000000000000000000000000000000000000600052602260045260246000fd5b6000600282049050600182168061489c57607f821691505b6020821081036148af576148ae614855565b5b50919050565b7f4552433732313a20617070726f76616c20746f2063757272656e74206f776e6560008201527f7200000000000000000000000000000000000000000000000000000000000000602082015250565b6000614911602183613bd6565b915061491c826148b5565b604082019050919050565b6000602082019050818103600083015261494081614904565b9050919050565b7f4552433732313a20617070726f76652063616c6c6572206973206e6f74206f7760008201527f6e6572206e6f7220617070726f76656420666f7220616c6c0000000000000000602082015250565b60006149a3603883613bd6565b91506149ae82614947565b604082019050919050565b600060208201905081810360008301526149d281614996565b9050919050565b7f4e487b7100000000000000000000000000000000000000000000000000000000600052603260045260246000fd5b7f556e617574686f72697a65640000000000000000000000000000000000000000600082015250565b6000614a3e600c83613bd6565b9150614a4982614a08565b602082019050919050565b60006020820190508181036000830152614a6d81614a31565b9050919050565b7f4552433732313a2063616c6c6572206973206e6f7420746f6b656e206f776e6560008201527f72206e6f7220617070726f766564000000000000000000000000000000000000602082015250565b6000614ad0602e83613bd6565b9150614adb82614a74565b604082019050919050565b60006020820190508181036000830152614aff81614ac3565b9050919050565b7f455243373231456e756d657261626c653a20676c6f62616c20696e646578206f60008201527f7574206f6620626f756e64730000000000000000000000000000000000000000602082015250565b6000614b62602c83613bd6565b9150614b6d82614b06565b604082019050919050565b60006020820190508181036000830152614b9181614b55565b9050919050565b7f47656d206d696e74207265737472696374696f6e000000000000000000000000600082015250565b6000614bce601483613bd6565b9150614bd982614b98565b602082019050919050565b60006020820190508181036000830152614bfd81614bc1565b9050919050565b600081519050614c1381613ca4565b92915050565b600060208284031215614c2f57614c2e613c90565b5b6000614c3d84828501614c04565b91505092915050565b7f496e73756666696369656e742062616c616e6365000000000000000000000000600082015250565b6000614c7c601483613bd6565b9150614c8782614c46565b602082019050919050565b60006020820190508181036000830152614cab81614c6f565b9050919050565b7f4e487b7100000000000000000000000000000000000000000000000000000000600052601160045260246000fd5b6000614cec82613c9a565b91507fffffffffffffffffffffffffffffffffffffffffffffffffffffffffffffffff8203614d1e57614d1d614cb2565b5b600182019050919050565b7f5969656c6447656d3a20636f6e66696775726174696f6e206572726f722c207a60008201527f65726f2061646472657373000000000000000000000000000000000000000000602082015250565b6000614d85602b83613bd6565b9150614d9082614d29565b604082019050919050565b60006020820190508181036000830152614db481614d78565b9050919050565b6000606082019050614dd06000830186613d2f565b614ddd6020830185613d2f565b614dea6040830184613dfb565b949350505050565b600081519050614e01816141e5565b92915050565b600060208284031215614e1d57614e1c613c90565b5b6000614e2b84828501614df2565b91505092915050565b7f4552433732313a2061646472657373207a65726f206973206e6f74206120766160008201527f6c6964206f776e65720000000000000000000000000000000000000000000000602082015250565b6000614e90602983613bd6565b9150614e9b82614e34565b604082019050919050565b60006020820190508181036000830152614ebf81614e83565b9050919050565b7f4552433732313a20617070726f766520746f2063616c6c657200000000000000600082015250565b6000614efc601983613bd6565b9150614f0782614ec6565b602082019050919050565b60006020820190508181036000830152614f2b81614eef565b9050919050565b7f4552433732313a207472616e736665722063616c6c6572206973206e6f74206f60008201527f776e6572206e6f7220617070726f766564000000000000000000000000000000602082015250565b6000614f8e603183613bd6565b9150614f9982614f32565b604082019050919050565b60006020820190508181036000830152614fbd81614f81565b9050919050565b600081905092915050565b6000614fda82613bcb565b614fe48185614fc4565b9350614ff4818560208601613be7565b80840191505092915050565b600061500c8285614fcf565b91506150188284614fcf565b91508190509392505050565b7f4552433732313a20616c726561647920696e697469616c697a65640000000000600082015250565b600061505a601b83613bd6565b915061506582615024565b602082019050919050565b600060208201905081810360008301526150898161504d565b9050919050565b60008190508160005260206000209050919050565b60006020601f8301049050919050565b600082821b905092915050565b6000600883026150f27fffffffffffffffffffffffffffffffffffffffffffffffffffffffffffffffff826150b5565b6150fc86836150b5565b95508019841693508086168417925050509392505050565b6000819050919050565b600061513961513461512f84613c9a565b615114565b613c9a565b9050919050565b6000819050919050565b6151538361511e565b61516761515f82615140565b8484546150c2565b825550505050565b600090565b61517c61516f565b61518781848461514a565b505050565b5b818110156151ab576151a0600082615174565b60018101905061518d565b5050565b601f8211156151f0576151c181615090565b6151ca846150a5565b810160208510156151d9578190505b6151ed6151e5856150a5565b83018261518c565b50505b505050565b600082821c905092915050565b6000615213600019846008026151f5565b1980831691505092915050565b600061522c8383615202565b9150826002028217905092915050565b61524582613bcb565b67ffffffffffffffff81111561525e5761525d61425b565b5b6152688254614884565b6152738282856151af565b600060209050601f8311600181146152a65760008415615294578287015190505b61529e8582615220565b865550615306565b601f1984166152b486615090565b60005b828110156152dc578489015182556001820191506020850194506020810190506152b7565b868310156152f957848901516152f5601f891682615202565b8355505b6001600288020188555050505b505050505050565b600061531982613eed565b915061532483613eed565b92508263ffffffff0382111561533d5761533c614cb2565b5b828201905092915050565b7f455243373231456e756d657261626c653a206f776e657220696e646578206f7560008201527f74206f6620626f756e6473000000000000000000000000000000000000000000602082015250565b60006153a4602b83613bd6565b91506153af82615348565b604082019050919050565b600060208201905081810360008301526153d381615397565b9050919050565b60006153e582613c9a565b9150600082036153f8576153f7614cb2565b5b600182039050919050565b600061540e82613c9a565b915061541983613c9a565b9250817fffffffffffffffffffffffffffffffffffffffffffffffffffffffffffffffff048311821515161561545257615451614cb2565b5b828202905092915050565b7f4e487b7100000000000000000000000000000000000000000000000000000000600052601260045260246000fd5b600061549782613c9a565b91506154a283613c9a565b9250826154b2576154b161545d565b5b828204905092915050565b600081519050919050565b600082825260208201905092915050565b60006154e4826154bd565b6154ee81856154c8565b93506154fe818560208601613be7565b61550781613c1a565b840191505092915050565b60006080820190506155276000830187613d2f565b6155346020830186613d2f565b6155416040830185613dfb565b818103606083015261555381846154d9565b905095945050505050565b60007fffffffff0000000000000000000000000000000000000000000000000000000082169050919050565b6155938161555e565b811461559e57600080fd5b50565b6000815190506155b08161558a565b92915050565b6000602082840312156155cc576155cb613c90565b5b60006155da848285016155a1565b91505092915050565b7f4465666f45524337323146616365743a205472616e736665722072656a65637460008201527f65642f6661696c6564206279205f746f00000000000000000000000000000000602082015250565b600061563f603083613bd6565b915061564a826155e3565b604082019050919050565b6000602082019050818103600083015261566e81615632565b9050919050565b7f4552433732313a207472616e736665722066726f6d20696e636f72726563742060008201527f6f776e6572000000000000000000000000000000000000000000000000000000602082015250565b60006156d1602583613bd6565b91506156dc82615675565b604082019050919050565b60006020820190508181036000830152615700816156c4565b9050919050565b7f4552433732313a207472616e7366657220746f20746865207a65726f2061646460008201527f7265737300000000000000000000000000000000000000000000000000000000602082015250565b6000615763602483613bd6565b915061576e82615707565b604082019050919050565b6000602082019050818103600083015261579281615756565b9050919050565b7f4552433732313a20746f6b656e4964206973206e6f742076616c696400000000600082015250565b60006157cf601c83613bd6565b91506157da82615799565b602082019050919050565b600060208201905081810360008301526157fe816157c2565b9050919050565b600061581082613c9a565b915061581b83613c9a565b92508282101561582e5761582d614cb2565b5b828203905092915050565b600061584482613c9a565b915061584f83613c9a565b92508261585f5761585e61545d565b5b828206905092915050565b600061587582613c9a565b915061588083613c9a565b9250827fffffffffffffffffffffffffffffffffffffffffffffffffffffffffffffffff038211156158b5576158b4614cb2565b5b828201905092915050565b7f412067656d20646f65736e277420657869737473000000000000000000000000600082015250565b60006158f6601483613bd6565b9150615901826158c0565b602082019050919050565b60006020820190508181036000830152615925816158e9565b9050919050565b7f4c69624469616d6f6e643a204d75737420626520636f6e7472616374206f776e60008201527f6572000000000000000000000000000000000000000000000000000000000000602082015250565b6000615988602283613bd6565b91506159938261592c565b604082019050919050565b600060208201905081810360008301526159b78161597b565b9050919050565b7f5061757361626c653a207061757365642c207472616e73666572206973206c6f60008201527f636b656400000000000000000000000000000000000000000000000000000000602082015250565b6000615a1a602483613bd6565b9150615a25826159be565b604082019050919050565b60006020820190508181036000830152615a4981615a0d565b9050919050565b7f4552433732313a206d696e7420746f20746865207a65726f2061646472657373600082015250565b6000615a86602083613bd6565b9150615a9182615a50565b602082019050919050565b60006020820190508181036000830152615ab581615a79565b9050919050565b7f4552433732313a20746f6b656e20616c7265616479206d696e74656400000000600082015250565b6000615af2601c83613bd6565b9150615afd82615abc565b602082019050919050565b60006020820190508181036000830152615b2181615ae5565b9050919050565b7f4e487b7100000000000000000000000000000000000000000000000000000000600052603160045260246000fdfea264697066735822122036465185153abeefb573f46a92efe07bbf414e0f9d439b25dd53380cae3ae2a164736f6c634300080f0033",
  "devdoc": {
    "author": "Decentralized Foundation Team",
    "kind": "dev",
    "methods": {
      "getGemIds()": {
        "returns": {
          "_0": "array with token Ids"
        }
      },
      "getGemInfo(uint256)": {
        "params": {
          "_tokenId": "gem Id"
        },
        "returns": {
          "_0": "Gem structure with all the details, excluding the gem type and protocol configuration, which is returned by IConfig facet"
        }
      },
      "getGemsInfo()": {
        "returns": {
          "_0": "array of the Ids and array of the Gem structurs"
        }
      },
      "getMintWindow(uint8)": {
        "returns": {
          "_0": "GemTypeMintWindow mint window structure"
        }
      },
      "mint(uint8)": {
        "details": "takes payment for mint and passes to the internal _mint function"
      }
    },
    "title": "YieldGemFacet EIP-2535 Diamond Facet",
    "version": 1
  },
  "userdoc": {
    "kind": "user",
    "methods": {
      "getGemIds()": {
        "notice": "Lists gem IDs the requester holds"
      },
      "getGemInfo(uint256)": {
        "notice": "Get detailed status of the Gem, including financial details"
      },
      "getGemsInfo()": {
        "notice": "Get detailed status of all the yield gems the requester holds"
      },
      "getMintWindow(uint8)": {
        "notice": "mint count limitations details"
      }
    },
    "notice": "Basic Node DEFO-specific functionality on top of the ERC721 standard,- minting and getters",
    "version": 1
  },
  "storageLayout": {
    "storage": [
      {
        "astId": 4258,
        "contract": "contracts/facets/YieldGemFacet.sol:YieldGemFacet",
        "label": "s",
        "offset": 0,
        "slot": "0",
        "type": "t_struct(AppStorage)4498_storage"
      }
    ],
    "types": {
      "t_address": {
        "encoding": "inplace",
        "label": "address",
        "numberOfBytes": "20"
      },
      "t_array(t_address)7_storage": {
        "base": "t_address",
        "encoding": "inplace",
        "label": "address[7]",
        "numberOfBytes": "224"
      },
      "t_array(t_array(t_uint256)3_storage)2_storage": {
        "base": "t_array(t_uint256)3_storage",
        "encoding": "inplace",
        "label": "uint256[3][2]",
        "numberOfBytes": "192"
      },
      "t_array(t_contract(IERC20)737)2_storage": {
        "base": "t_contract(IERC20)737",
        "encoding": "inplace",
        "label": "contract IERC20[2]",
        "numberOfBytes": "64"
      },
      "t_array(t_struct(GemTypeConfig)4404_storage)dyn_storage": {
        "base": "t_struct(GemTypeConfig)4404_storage",
        "encoding": "dynamic_array",
        "label": "struct GemTypeConfig[]",
        "numberOfBytes": "32"
      },
      "t_array(t_struct(GemTypeMintWindow)4409_storage)dyn_storage": {
        "base": "t_struct(GemTypeMintWindow)4409_storage",
        "encoding": "dynamic_array",
        "label": "struct GemTypeMintWindow[]",
        "numberOfBytes": "32"
      },
      "t_array(t_uint256)2_storage": {
        "base": "t_uint256",
        "encoding": "inplace",
        "label": "uint256[2]",
        "numberOfBytes": "64"
      },
      "t_array(t_uint256)3_storage": {
        "base": "t_uint256",
        "encoding": "inplace",
        "label": "uint256[3]",
        "numberOfBytes": "96"
      },
      "t_array(t_uint256)5_storage": {
        "base": "t_uint256",
        "encoding": "inplace",
        "label": "uint256[5]",
        "numberOfBytes": "160"
      },
      "t_array(t_uint256)dyn_storage": {
        "base": "t_uint256",
        "encoding": "dynamic_array",
        "label": "uint256[]",
        "numberOfBytes": "32"
      },
      "t_bool": {
        "encoding": "inplace",
        "label": "bool",
        "numberOfBytes": "1"
      },
      "t_contract(IERC20)737": {
        "encoding": "inplace",
        "label": "contract IERC20",
        "numberOfBytes": "20"
      },
      "t_enum(Booster)4422": {
        "encoding": "inplace",
        "label": "enum Booster",
        "numberOfBytes": "1"
      },
      "t_mapping(t_address,t_bool)": {
        "encoding": "mapping",
        "key": "t_address",
        "label": "mapping(address => bool)",
        "numberOfBytes": "32",
        "value": "t_bool"
      },
      "t_mapping(t_address,t_enum(Booster)4422)": {
        "encoding": "mapping",
        "key": "t_address",
        "label": "mapping(address => enum Booster)",
        "numberOfBytes": "32",
        "value": "t_enum(Booster)4422"
      },
      "t_mapping(t_address,t_mapping(t_address,t_bool))": {
        "encoding": "mapping",
        "key": "t_address",
        "label": "mapping(address => mapping(address => bool))",
        "numberOfBytes": "32",
        "value": "t_mapping(t_address,t_bool)"
      },
      "t_mapping(t_address,t_mapping(t_uint256,t_uint256))": {
        "encoding": "mapping",
        "key": "t_address",
        "label": "mapping(address => mapping(uint256 => uint256))",
        "numberOfBytes": "32",
        "value": "t_mapping(t_uint256,t_uint256)"
      },
      "t_mapping(t_address,t_struct(Fi)4443_storage)": {
        "encoding": "mapping",
        "key": "t_address",
        "label": "mapping(address => struct Fi)",
        "numberOfBytes": "32",
        "value": "t_struct(Fi)4443_storage"
      },
      "t_mapping(t_address,t_uint256)": {
        "encoding": "mapping",
        "key": "t_address",
        "label": "mapping(address => uint256)",
        "numberOfBytes": "32",
        "value": "t_uint256"
      },
      "t_mapping(t_address,t_uint8)": {
        "encoding": "mapping",
        "key": "t_address",
        "label": "mapping(address => uint8)",
        "numberOfBytes": "32",
        "value": "t_uint8"
      },
      "t_mapping(t_uint256,t_address)": {
        "encoding": "mapping",
        "key": "t_uint256",
        "label": "mapping(uint256 => address)",
        "numberOfBytes": "32",
        "value": "t_address"
      },
      "t_mapping(t_uint256,t_struct(Gem)4458_storage)": {
        "encoding": "mapping",
        "key": "t_uint256",
        "label": "mapping(uint256 => struct Gem)",
        "numberOfBytes": "32",
        "value": "t_struct(Gem)4458_storage"
      },
      "t_mapping(t_uint256,t_uint256)": {
        "encoding": "mapping",
        "key": "t_uint256",
        "label": "mapping(uint256 => uint256)",
        "numberOfBytes": "32",
        "value": "t_uint256"
      },
      "t_string_storage": {
        "encoding": "bytes",
        "label": "string",
        "numberOfBytes": "32"
      },
      "t_struct(AppStorage)4498_storage": {
        "encoding": "inplace",
        "label": "struct AppStorage",
        "members": [
          {
            "astId": 4461,
            "contract": "contracts/facets/YieldGemFacet.sol:YieldGemFacet",
            "label": "config",
            "offset": 0,
            "slot": "0",
            "type": "t_struct(ProtocolConfig)4391_storage"
          },
          {
            "astId": 4465,
            "contract": "contracts/facets/YieldGemFacet.sol:YieldGemFacet",
            "label": "gemTypes",
            "offset": 0,
            "slot": "28",
            "type": "t_array(t_struct(GemTypeConfig)4404_storage)dyn_storage"
          },
          {
            "astId": 4469,
            "contract": "contracts/facets/YieldGemFacet.sol:YieldGemFacet",
            "label": "gemTypesMintWindows",
            "offset": 0,
            "slot": "29",
            "type": "t_array(t_struct(GemTypeMintWindow)4409_storage)dyn_storage"
          },
          {
            "astId": 4472,
            "contract": "contracts/facets/YieldGemFacet.sol:YieldGemFacet",
            "label": "defoTokenLimitWindow",
            "offset": 0,
            "slot": "30",
            "type": "t_struct(DEFOTokenLimitWindow)4418_storage"
          },
          {
            "astId": 4477,
            "contract": "contracts/facets/YieldGemFacet.sol:YieldGemFacet",
            "label": "gems",
            "offset": 0,
            "slot": "32",
            "type": "t_mapping(t_uint256,t_struct(Gem)4458_storage)"
          },
          {
            "astId": 4480,
            "contract": "contracts/facets/YieldGemFacet.sol:YieldGemFacet",
            "label": "nft",
            "offset": 0,
            "slot": "33",
            "type": "t_struct(ERC721Storage)4326_storage"
          },
          {
            "astId": 4483,
            "contract": "contracts/facets/YieldGemFacet.sol:YieldGemFacet",
            "label": "total",
            "offset": 0,
            "slot": "46",
            "type": "t_struct(Fi)4443_storage"
          },
          {
            "astId": 4488,
            "contract": "contracts/facets/YieldGemFacet.sol:YieldGemFacet",
            "label": "usersFi",
            "offset": 0,
            "slot": "56",
            "type": "t_mapping(t_address,t_struct(Fi)4443_storage)"
          },
          {
            "astId": 4492,
            "contract": "contracts/facets/YieldGemFacet.sol:YieldGemFacet",
            "label": "usersNextGemTypeToBoost",
            "offset": 0,
            "slot": "57",
            "type": "t_mapping(t_address,t_uint8)"
          },
          {
            "astId": 4497,
            "contract": "contracts/facets/YieldGemFacet.sol:YieldGemFacet",
            "label": "usersNextGemBooster",
            "offset": 0,
            "slot": "58",
            "type": "t_mapping(t_address,t_enum(Booster)4422)"
          }
        ],
        "numberOfBytes": "1888"
      },
      "t_struct(Counter)2712_storage": {
        "encoding": "inplace",
        "label": "struct Counters.Counter",
        "members": [
          {
            "astId": 2711,
            "contract": "contracts/facets/YieldGemFacet.sol:YieldGemFacet",
            "label": "_value",
            "offset": 0,
            "slot": "0",
            "type": "t_uint256"
          }
        ],
        "numberOfBytes": "32"
      },
      "t_struct(DEFOTokenLimitWindow)4418_storage": {
        "encoding": "inplace",
        "label": "struct DEFOTokenLimitWindow",
        "members": [
          {
            "astId": 4413,
            "contract": "contracts/facets/YieldGemFacet.sol:YieldGemFacet",
            "label": "tokensSold",
            "offset": 0,
            "slot": "0",
            "type": "t_mapping(t_address,t_uint256)"
          },
          {
            "astId": 4417,
            "contract": "contracts/facets/YieldGemFacet.sol:YieldGemFacet",
            "label": "timeOfLastSale",
            "offset": 0,
            "slot": "1",
            "type": "t_mapping(t_address,t_uint256)"
          }
        ],
        "numberOfBytes": "64"
      },
      "t_struct(DefoTokenLimitConfig)4350_storage": {
        "encoding": "inplace",
        "label": "struct DefoTokenLimitConfig",
        "members": [
          {
            "astId": 4345,
            "contract": "contracts/facets/YieldGemFacet.sol:YieldGemFacet",
            "label": "saleLimitPeriod",
            "offset": 0,
            "slot": "0",
            "type": "t_uint256"
          },
          {
            "astId": 4347,
            "contract": "contracts/facets/YieldGemFacet.sol:YieldGemFacet",
            "label": "saleLimitAmount",
            "offset": 0,
            "slot": "1",
            "type": "t_uint256"
          },
          {
            "astId": 4349,
            "contract": "contracts/facets/YieldGemFacet.sol:YieldGemFacet",
            "label": "limitByReward",
            "offset": 0,
            "slot": "2",
            "type": "t_bool"
          }
        ],
        "numberOfBytes": "96"
      },
      "t_struct(ERC721Storage)4326_storage": {
        "encoding": "inplace",
        "label": "struct ERC721Storage",
        "members": [
          {
            "astId": 4281,
            "contract": "contracts/facets/YieldGemFacet.sol:YieldGemFacet",
            "label": "name",
            "offset": 0,
            "slot": "0",
            "type": "t_string_storage"
          },
          {
            "astId": 4283,
            "contract": "contracts/facets/YieldGemFacet.sol:YieldGemFacet",
            "label": "symbol",
            "offset": 0,
            "slot": "1",
            "type": "t_string_storage"
          },
          {
            "astId": 4286,
            "contract": "contracts/facets/YieldGemFacet.sol:YieldGemFacet",
            "label": "tokenIdTracker",
            "offset": 0,
            "slot": "2",
            "type": "t_struct(Counter)2712_storage"
          },
          {
            "astId": 4290,
            "contract": "contracts/facets/YieldGemFacet.sol:YieldGemFacet",
            "label": "owners",
            "offset": 0,
            "slot": "3",
            "type": "t_mapping(t_uint256,t_address)"
          },
          {
            "astId": 4294,
            "contract": "contracts/facets/YieldGemFacet.sol:YieldGemFacet",
            "label": "balances",
            "offset": 0,
            "slot": "4",
            "type": "t_mapping(t_address,t_uint256)"
          },
          {
            "astId": 4298,
            "contract": "contracts/facets/YieldGemFacet.sol:YieldGemFacet",
            "label": "tokenApprovals",
            "offset": 0,
            "slot": "5",
            "type": "t_mapping(t_uint256,t_address)"
          },
          {
            "astId": 4304,
            "contract": "contracts/facets/YieldGemFacet.sol:YieldGemFacet",
            "label": "operatorApprovals",
            "offset": 0,
            "slot": "6",
            "type": "t_mapping(t_address,t_mapping(t_address,t_bool))"
          },
          {
            "astId": 4306,
            "contract": "contracts/facets/YieldGemFacet.sol:YieldGemFacet",
            "label": "baseURI",
            "offset": 0,
            "slot": "7",
            "type": "t_string_storage"
          },
          {
            "astId": 4312,
            "contract": "contracts/facets/YieldGemFacet.sol:YieldGemFacet",
            "label": "ownedTokens",
            "offset": 0,
            "slot": "8",
            "type": "t_mapping(t_address,t_mapping(t_uint256,t_uint256))"
          },
          {
            "astId": 4316,
            "contract": "contracts/facets/YieldGemFacet.sol:YieldGemFacet",
            "label": "ownedTokensIndex",
            "offset": 0,
            "slot": "9",
            "type": "t_mapping(t_uint256,t_uint256)"
          },
          {
            "astId": 4319,
            "contract": "contracts/facets/YieldGemFacet.sol:YieldGemFacet",
            "label": "allTokens",
            "offset": 0,
            "slot": "10",
            "type": "t_array(t_uint256)dyn_storage"
          },
          {
            "astId": 4323,
            "contract": "contracts/facets/YieldGemFacet.sol:YieldGemFacet",
            "label": "allTokensIndex",
            "offset": 0,
            "slot": "11",
            "type": "t_mapping(t_uint256,t_uint256)"
          },
          {
            "astId": 4325,
            "contract": "contracts/facets/YieldGemFacet.sol:YieldGemFacet",
            "label": "init",
            "offset": 0,
            "slot": "12",
            "type": "t_bool"
          }
        ],
        "numberOfBytes": "416"
      },
      "t_struct(Fi)4443_storage": {
        "encoding": "inplace",
        "label": "struct Fi",
        "members": [
          {
            "astId": 4424,
            "contract": "contracts/facets/YieldGemFacet.sol:YieldGemFacet",
            "label": "claimedGross",
            "offset": 0,
            "slot": "0",
            "type": "t_uint256"
          },
          {
            "astId": 4426,
            "contract": "contracts/facets/YieldGemFacet.sol:YieldGemFacet",
            "label": "claimedNet",
            "offset": 0,
            "slot": "1",
            "type": "t_uint256"
          },
          {
            "astId": 4428,
            "contract": "contracts/facets/YieldGemFacet.sol:YieldGemFacet",
            "label": "stakedGross",
            "offset": 0,
            "slot": "2",
            "type": "t_uint256"
          },
          {
            "astId": 4430,
            "contract": "contracts/facets/YieldGemFacet.sol:YieldGemFacet",
            "label": "stakedNet",
            "offset": 0,
            "slot": "3",
            "type": "t_uint256"
          },
          {
            "astId": 4432,
            "contract": "contracts/facets/YieldGemFacet.sol:YieldGemFacet",
            "label": "unStakedGross",
            "offset": 0,
            "slot": "4",
            "type": "t_uint256"
          },
          {
            "astId": 4434,
            "contract": "contracts/facets/YieldGemFacet.sol:YieldGemFacet",
            "label": "unStakedGrossUp",
            "offset": 0,
            "slot": "5",
            "type": "t_uint256"
          },
          {
            "astId": 4436,
            "contract": "contracts/facets/YieldGemFacet.sol:YieldGemFacet",
            "label": "unStakedNet",
            "offset": 0,
            "slot": "6",
            "type": "t_uint256"
          },
          {
            "astId": 4438,
            "contract": "contracts/facets/YieldGemFacet.sol:YieldGemFacet",
            "label": "donated",
            "offset": 0,
            "slot": "7",
            "type": "t_uint256"
          },
          {
            "astId": 4440,
            "contract": "contracts/facets/YieldGemFacet.sol:YieldGemFacet",
            "label": "claimTaxPaid",
            "offset": 0,
            "slot": "8",
            "type": "t_uint256"
          },
          {
            "astId": 4442,
            "contract": "contracts/facets/YieldGemFacet.sol:YieldGemFacet",
            "label": "vaultTaxPaid",
            "offset": 0,
            "slot": "9",
            "type": "t_uint256"
          }
        ],
        "numberOfBytes": "320"
      },
      "t_struct(Gem)4458_storage": {
        "encoding": "inplace",
        "label": "struct Gem",
        "members": [
          {
            "astId": 4445,
            "contract": "contracts/facets/YieldGemFacet.sol:YieldGemFacet",
            "label": "gemTypeId",
            "offset": 0,
            "slot": "0",
            "type": "t_uint8"
          },
          {
            "astId": 4448,
            "contract": "contracts/facets/YieldGemFacet.sol:YieldGemFacet",
            "label": "booster",
            "offset": 1,
            "slot": "0",
            "type": "t_enum(Booster)4422"
          },
          {
            "astId": 4450,
            "contract": "contracts/facets/YieldGemFacet.sol:YieldGemFacet",
            "label": "mintTime",
            "offset": 2,
            "slot": "0",
            "type": "t_uint32"
          },
          {
            "astId": 4452,
            "contract": "contracts/facets/YieldGemFacet.sol:YieldGemFacet",
            "label": "lastRewardWithdrawalTime",
            "offset": 6,
            "slot": "0",
            "type": "t_uint32"
          },
          {
            "astId": 4454,
            "contract": "contracts/facets/YieldGemFacet.sol:YieldGemFacet",
            "label": "lastMaintenanceTime",
            "offset": 10,
            "slot": "0",
            "type": "t_uint32"
          },
          {
            "astId": 4457,
            "contract": "contracts/facets/YieldGemFacet.sol:YieldGemFacet",
            "label": "fi",
            "offset": 0,
            "slot": "1",
            "type": "t_struct(Fi)4443_storage"
          }
        ],
        "numberOfBytes": "352"
      },
      "t_struct(GemTypeConfig)4404_storage": {
        "encoding": "inplace",
        "label": "struct GemTypeConfig",
        "members": [
          {
            "astId": 4393,
            "contract": "contracts/facets/YieldGemFacet.sol:YieldGemFacet",
            "label": "maintenanceFeeDai",
            "offset": 0,
            "slot": "0",
            "type": "t_uint256"
          },
          {
            "astId": 4395,
            "contract": "contracts/facets/YieldGemFacet.sol:YieldGemFacet",
            "label": "rewardAmountDefo",
            "offset": 0,
            "slot": "1",
            "type": "t_uint256"
          },
          {
            "astId": 4399,
            "contract": "contracts/facets/YieldGemFacet.sol:YieldGemFacet",
            "label": "price",
            "offset": 0,
            "slot": "2",
            "type": "t_array(t_uint256)2_storage"
          },
          {
            "astId": 4401,
            "contract": "contracts/facets/YieldGemFacet.sol:YieldGemFacet",
            "label": "taperRewardsThresholdDefo",
            "offset": 0,
            "slot": "4",
            "type": "t_uint256"
          },
          {
            "astId": 4403,
            "contract": "contracts/facets/YieldGemFacet.sol:YieldGemFacet",
            "label": "maxMintsPerLimitWindow",
            "offset": 0,
            "slot": "5",
            "type": "t_uint8"
          }
        ],
        "numberOfBytes": "192"
      },
      "t_struct(GemTypeMintWindow)4409_storage": {
        "encoding": "inplace",
        "label": "struct GemTypeMintWindow",
        "members": [
          {
            "astId": 4406,
            "contract": "contracts/facets/YieldGemFacet.sol:YieldGemFacet",
            "label": "mintCount",
            "offset": 0,
            "slot": "0",
            "type": "t_uint256"
          },
          {
            "astId": 4408,
            "contract": "contracts/facets/YieldGemFacet.sol:YieldGemFacet",
            "label": "endOfMintLimitWindow",
            "offset": 0,
            "slot": "1",
            "type": "t_uint32"
          }
        ],
        "numberOfBytes": "64"
      },
      "t_struct(ProtocolConfig)4391_storage": {
        "encoding": "inplace",
        "label": "struct ProtocolConfig",
        "members": [
          {
            "astId": 4355,
            "contract": "contracts/facets/YieldGemFacet.sol:YieldGemFacet",
            "label": "paymentTokens",
            "offset": 0,
            "slot": "0",
            "type": "t_array(t_contract(IERC20)737)2_storage"
          },
          {
            "astId": 4359,
            "contract": "contracts/facets/YieldGemFacet.sol:YieldGemFacet",
            "label": "wallets",
            "offset": 0,
            "slot": "2",
            "type": "t_array(t_address)7_storage"
          },
          {
            "astId": 4365,
            "contract": "contracts/facets/YieldGemFacet.sol:YieldGemFacet",
            "label": "incomeDistributionOnMint",
            "offset": 0,
            "slot": "9",
            "type": "t_array(t_array(t_uint256)3_storage)2_storage"
          },
          {
            "astId": 4367,
            "contract": "contracts/facets/YieldGemFacet.sol:YieldGemFacet",
            "label": "maintenancePeriod",
            "offset": 0,
            "slot": "15",
            "type": "t_uint32"
          },
          {
            "astId": 4369,
            "contract": "contracts/facets/YieldGemFacet.sol:YieldGemFacet",
            "label": "rewardPeriod",
            "offset": 4,
            "slot": "15",
            "type": "t_uint32"
          },
          {
            "astId": 4371,
            "contract": "contracts/facets/YieldGemFacet.sol:YieldGemFacet",
            "label": "taxScaleSinceLastClaimPeriod",
            "offset": 8,
            "slot": "15",
            "type": "t_uint32"
          },
          {
            "astId": 4375,
            "contract": "contracts/facets/YieldGemFacet.sol:YieldGemFacet",
            "label": "taxRates",
            "offset": 0,
            "slot": "16",
            "type": "t_array(t_uint256)5_storage"
          },
          {
            "astId": 4377,
            "contract": "contracts/facets/YieldGemFacet.sol:YieldGemFacet",
            "label": "charityContributionRate",
            "offset": 0,
            "slot": "21",
            "type": "t_uint256"
          },
          {
            "astId": 4379,
            "contract": "contracts/facets/YieldGemFacet.sol:YieldGemFacet",
            "label": "vaultWithdrawalTaxRate",
            "offset": 0,
            "slot": "22",
            "type": "t_uint256"
          },
          {
            "astId": 4381,
            "contract": "contracts/facets/YieldGemFacet.sol:YieldGemFacet",
            "label": "taperRate",
            "offset": 0,
            "slot": "23",
            "type": "t_uint256"
          },
          {
            "astId": 4383,
            "contract": "contracts/facets/YieldGemFacet.sol:YieldGemFacet",
            "label": "mintLock",
            "offset": 0,
            "slot": "24",
            "type": "t_bool"
          },
          {
            "astId": 4385,
            "contract": "contracts/facets/YieldGemFacet.sol:YieldGemFacet",
            "label": "transferLock",
            "offset": 1,
            "slot": "24",
            "type": "t_bool"
          },
          {
            "astId": 4387,
            "contract": "contracts/facets/YieldGemFacet.sol:YieldGemFacet",
            "label": "mintLimitWindow",
            "offset": 2,
            "slot": "24",
            "type": "t_uint32"
          },
          {
            "astId": 4390,
            "contract": "contracts/facets/YieldGemFacet.sol:YieldGemFacet",
            "label": "defoTokenLimitConfig",
            "offset": 0,
            "slot": "25",
            "type": "t_struct(DefoTokenLimitConfig)4350_storage"
          }
        ],
        "numberOfBytes": "896"
      },
      "t_uint256": {
        "encoding": "inplace",
        "label": "uint256",
        "numberOfBytes": "32"
      },
      "t_uint32": {
        "encoding": "inplace",
        "label": "uint32",
        "numberOfBytes": "4"
      },
      "t_uint8": {
        "encoding": "inplace",
        "label": "uint8",
        "numberOfBytes": "1"
      }
    }
  }
}