{
  "address": "0xabbB97E185Cde43a8B9903Ad012cD07191C27457",
  "abi": [
    {
      "anonymous": false,
      "inputs": [
        {
          "indexed": true,
          "internalType": "address",
          "name": "owner",
          "type": "address"
        },
        {
          "indexed": true,
          "internalType": "address",
          "name": "approved",
          "type": "address"
        },
        {
          "indexed": true,
          "internalType": "uint256",
          "name": "tokenId",
          "type": "uint256"
        }
      ],
      "name": "Approval",
      "type": "event"
    },
    {
      "anonymous": false,
      "inputs": [
        {
          "indexed": true,
          "internalType": "address",
          "name": "owner",
          "type": "address"
        },
        {
          "indexed": true,
          "internalType": "address",
          "name": "operator",
          "type": "address"
        },
        {
          "indexed": false,
          "internalType": "bool",
          "name": "approved",
          "type": "bool"
        }
      ],
      "name": "ApprovalForAll",
      "type": "event"
    },
    {
      "anonymous": false,
      "inputs": [
        {
          "indexed": true,
          "internalType": "address",
          "name": "from",
          "type": "address"
        },
        {
          "indexed": true,
          "internalType": "address",
          "name": "to",
          "type": "address"
        },
        {
          "indexed": true,
          "internalType": "uint256",
          "name": "tokenId",
          "type": "uint256"
        }
      ],
      "name": "Transfer",
      "type": "event"
    },
    {
      "inputs": [
        {
          "internalType": "address",
          "name": "_to",
          "type": "address"
        },
        {
          "internalType": "uint256",
          "name": "_tokenId",
          "type": "uint256"
        }
      ],
      "name": "approve",
      "outputs": [],
      "stateMutability": "nonpayable",
      "type": "function"
    },
    {
      "inputs": [
        {
          "internalType": "address",
          "name": "_owner",
          "type": "address"
        }
      ],
      "name": "balanceOf",
      "outputs": [
        {
          "internalType": "uint256",
          "name": "balance",
          "type": "uint256"
        }
      ],
      "stateMutability": "view",
      "type": "function"
    },
    {
      "inputs": [
        {
          "internalType": "uint256",
          "name": "tokenId",
          "type": "uint256"
        }
      ],
      "name": "burn",
      "outputs": [],
      "stateMutability": "nonpayable",
      "type": "function"
    },
    {
      "inputs": [
        {
          "internalType": "uint256",
          "name": "_tokenId",
          "type": "uint256"
        }
      ],
      "name": "getApproved",
      "outputs": [
        {
          "internalType": "address",
          "name": "operator",
          "type": "address"
        }
      ],
      "stateMutability": "view",
      "type": "function"
    },
    {
      "inputs": [
        {
          "internalType": "string",
          "name": "_name",
          "type": "string"
        },
        {
          "internalType": "string",
          "name": "_symbol",
          "type": "string"
        }
      ],
      "name": "initializeERC721Facet",
      "outputs": [],
      "stateMutability": "nonpayable",
      "type": "function"
    },
    {
      "inputs": [],
      "name": "initialized",
      "outputs": [
        {
          "internalType": "bool",
          "name": "",
          "type": "bool"
        }
      ],
      "stateMutability": "view",
      "type": "function"
    },
    {
      "inputs": [
        {
          "internalType": "address",
          "name": "owner",
          "type": "address"
        },
        {
          "internalType": "address",
          "name": "operator",
          "type": "address"
        }
      ],
      "name": "isApprovedForAll",
      "outputs": [
        {
          "internalType": "bool",
          "name": "",
          "type": "bool"
        }
      ],
      "stateMutability": "view",
      "type": "function"
    },
    {
      "inputs": [
        {
          "internalType": "uint8",
          "name": "_gemTypeId",
          "type": "uint8"
        }
      ],
      "name": "mint",
      "outputs": [],
      "stateMutability": "nonpayable",
      "type": "function"
    },
    {
      "inputs": [
        {
          "internalType": "uint8",
          "name": "_gemType",
          "type": "uint8"
        },
        {
          "internalType": "address",
          "name": "_to",
          "type": "address"
        },
        {
          "internalType": "enum Booster",
          "name": "_booster",
          "type": "uint8"
        }
      ],
      "name": "mintTo",
      "outputs": [],
      "stateMutability": "nonpayable",
      "type": "function"
    },
    {
      "inputs": [],
      "name": "name",
      "outputs": [
        {
          "internalType": "string",
          "name": "",
          "type": "string"
        }
      ],
      "stateMutability": "view",
      "type": "function"
    },
    {
      "inputs": [
        {
          "internalType": "uint256",
          "name": "_tokenId",
          "type": "uint256"
        }
      ],
      "name": "ownerOf",
      "outputs": [
        {
          "internalType": "address",
          "name": "",
          "type": "address"
        }
      ],
      "stateMutability": "view",
      "type": "function"
    },
    {
      "inputs": [
        {
          "internalType": "address",
          "name": "_from",
          "type": "address"
        },
        {
          "internalType": "address",
          "name": "_to",
          "type": "address"
        },
        {
          "internalType": "uint256",
          "name": "_tokenId",
          "type": "uint256"
        }
      ],
      "name": "safeTransferFrom",
      "outputs": [],
      "stateMutability": "nonpayable",
      "type": "function"
    },
    {
      "inputs": [
        {
          "internalType": "address",
          "name": "_from",
          "type": "address"
        },
        {
          "internalType": "address",
          "name": "_to",
          "type": "address"
        },
        {
          "internalType": "uint256",
          "name": "_tokenId",
          "type": "uint256"
        },
        {
          "internalType": "bytes",
          "name": "_data",
          "type": "bytes"
        }
      ],
      "name": "safeTransferFrom",
      "outputs": [],
      "stateMutability": "nonpayable",
      "type": "function"
    },
    {
      "inputs": [
        {
          "internalType": "address",
          "name": "operator",
          "type": "address"
        },
        {
          "internalType": "bool",
          "name": "_approved",
          "type": "bool"
        }
      ],
      "name": "setApprovalForAll",
      "outputs": [],
      "stateMutability": "nonpayable",
      "type": "function"
    },
    {
      "inputs": [],
      "name": "symbol",
      "outputs": [
        {
          "internalType": "string",
          "name": "",
          "type": "string"
        }
      ],
      "stateMutability": "view",
      "type": "function"
    },
    {
      "inputs": [
        {
          "internalType": "uint256",
          "name": "index",
          "type": "uint256"
        }
      ],
      "name": "tokenByIndex",
      "outputs": [
        {
          "internalType": "uint256",
          "name": "",
          "type": "uint256"
        }
      ],
      "stateMutability": "view",
      "type": "function"
    },
    {
      "inputs": [
        {
          "internalType": "address",
          "name": "owner",
          "type": "address"
        },
        {
          "internalType": "uint256",
          "name": "index",
          "type": "uint256"
        }
      ],
      "name": "tokenOfOwnerByIndex",
      "outputs": [
        {
          "internalType": "uint256",
          "name": "",
          "type": "uint256"
        }
      ],
      "stateMutability": "view",
      "type": "function"
    },
    {
      "inputs": [
        {
          "internalType": "uint256",
          "name": "_tokenId",
          "type": "uint256"
        }
      ],
      "name": "tokenURI",
      "outputs": [
        {
          "internalType": "string",
          "name": "",
          "type": "string"
        }
      ],
      "stateMutability": "view",
      "type": "function"
    },
    {
      "inputs": [],
      "name": "totalSupply",
      "outputs": [
        {
          "internalType": "uint256",
          "name": "",
          "type": "uint256"
        }
      ],
      "stateMutability": "view",
      "type": "function"
    },
    {
      "inputs": [
        {
          "internalType": "address",
          "name": "_from",
          "type": "address"
        },
        {
          "internalType": "address",
          "name": "_to",
          "type": "address"
        },
        {
          "internalType": "uint256",
          "name": "_tokenId",
          "type": "uint256"
        }
      ],
      "name": "transferFrom",
      "outputs": [],
      "stateMutability": "nonpayable",
      "type": "function"
    }
  ],
  "transactionHash": "0xa477da099a831c7690bc9d9303144683e05220006db847ee88480a9f96ecfdbc",
  "args": [],
  "numDeployments": 6,
  "solcInputHash": "313fcc61f600e4a46006002a7f30bc9d",
  "bytecode": "0x608060405234801561001057600080fd5b506152fb806100206000396000f3fe608060405234801561001057600080fd5b506004361061012c5760003560e01c80636352211e116100ad578063b88d4fde11610071578063b88d4fde14610341578063c7b8433a1461035d578063c87b56dd14610379578063ce4d2602146103a9578063e985e9c5146103c55761012c565b80636352211e1461028b5780636ecd2306146102bb57806370a08231146102d757806395d89b4114610307578063a22cb465146103255761012c565b806323b872dd116100f457806323b872dd146101d75780632f745c59146101f357806342842e0e1461022357806342966c681461023f5780634f6ccce71461025b5761012c565b806306fdde0314610131578063081812fc1461014f578063095ea7b31461017f578063158ef93e1461019b57806318160ddd146101b9575b600080fd5b6101396103f5565b6040516101469190613853565b60405180910390f35b610169600480360381019061016491906138bf565b6104e2565b604051610176919061392d565b60405180910390f35b61019960048036038101906101949190613974565b610524565b005b6101a361063b565b6040516101b091906139cf565b60405180910390f35b6101c1610657565b6040516101ce91906139f9565b60405180910390f35b6101f160048036038101906101ec9190613a14565b610669565b005b61020d60048036038101906102089190613974565b610689565b60405161021a91906139f9565b60405180910390f35b61023d60048036038101906102389190613a14565b61069d565b005b610259600480360381019061025491906138bf565b6106bd565b005b610275600480360381019061027091906138bf565b610719565b60405161028291906139f9565b60405180910390f35b6102a560048036038101906102a091906138bf565b610793565b6040516102b2919061392d565b60405180910390f35b6102d560048036038101906102d09190613aa0565b6107a5565b005b6102f160048036038101906102ec9190613acd565b610e62565b6040516102fe91906139f9565b60405180910390f35b61030f610f22565b60405161031c9190613853565b60405180910390f35b61033f600480360381019061033a9190613b26565b61100f565b005b61035b60048036038101906103569190613c9b565b61118d565b005b61037760048036038101906103729190613d43565b611201565b005b610393600480360381019061038e91906138bf565b6113c9565b6040516103a09190613853565b60405180910390f35b6103c360048036038101906103be9190613e37565b611510565b005b6103df60048036038101906103da9190613eaf565b6116e4565b6040516103ec91906139cf565b60405180910390f35b60606000602101600c0160009054906101000a900460ff1661044c576040517f08c379a000000000000000000000000000000000000000000000000000000000815260040161044390613f3b565b60405180910390fd5b6000602101600001805461045f90613f8a565b80601f016020809104026020016040519081016040528092919081815260200182805461048b90613f8a565b80156104d85780601f106104ad576101008083540402835291602001916104d8565b820191906000526020600020905b8154815290600101906020018083116104bb57829003601f168201915b5050505050905090565b600080602101600501600083815260200190815260200160002060009054906101000a900473ffffffffffffffffffffffffffffffffffffffff169050919050565b600061052f8261177d565b90508073ffffffffffffffffffffffffffffffffffffffff168373ffffffffffffffffffffffffffffffffffffffff160361059f576040517f08c379a00000000000000000000000000000000000000000000000000000000081526004016105969061402d565b60405180910390fd5b8073ffffffffffffffffffffffffffffffffffffffff166105be6117cb565b73ffffffffffffffffffffffffffffffffffffffff1614806105ed57506105ec816105e76117cb565b611882565b5b61062c576040517f08c379a0000000000000000000000000000000000000000000000000000000008152600401610623906140bf565b60405180910390fd5b610636838361191b565b505050565b600080602101600c0160009054906101000a900460ff16905090565b600080602101600a0180549050905090565b6106848383836040518060200160405280600081525061118d565b505050565b600061069583836119da565b905092915050565b6106b88383836040518060200160405280600081525061118d565b505050565b6106ce6106c86117cb565b82611a85565b61070d576040517f08c379a000000000000000000000000000000000000000000000000000000000815260040161070490614151565b60405180910390fd5b61071681611b26565b50565b600080602101600a01805490508210610767576040517f08c379a000000000000000000000000000000000000000000000000000000000815260040161075e906141e3565b60405180910390fd5b6000602101600a01828154811061078157610780614203565b5b90600052602060002001549050919050565b600061079e8261177d565b9050919050565b806107af81611c4d565b6107ee576040517f08c379a00000000000000000000000000000000000000000000000000000000081526004016107e59061427e565b60405180910390fd5b60006107f86117cb565b905060005b600281101561094c576000601c018460ff16815481106108205761081f614203565b5b9060005260206000209060060201600201816002811061084357610842614203565b5b015460008001600001826002811061085e5761085d614203565b5b0160009054906101000a900473ffffffffffffffffffffffffffffffffffffffff1673ffffffffffffffffffffffffffffffffffffffff166370a08231846040518263ffffffff1660e01b81526004016108b8919061392d565b602060405180830381865afa1580156108d5573d6000803e3d6000fd5b505050506040513d601f19601f820116820180604052508101906108f991906142b3565b11610939576040517f08c379a00000000000000000000000000000000000000000000000000000000081526004016109309061432c565b60405180910390fd5b80806109449061437b565b9150506107fd565b5060005b6003811015610bb05760005b6002811015610b9c5760006109df6000601c018760ff168154811061098457610983614203565b5b906000526020600020906006020160020183600281106109a7576109a6614203565b5b01546000800160090184600281106109c2576109c1614203565b5b6003020185600381106109d8576109d7614203565b5b0154611e22565b905060008114610b8857600073ffffffffffffffffffffffffffffffffffffffff16600080016002018460078110610a1a57610a19614203565b5b0160009054906101000a900473ffffffffffffffffffffffffffffffffffffffff1673ffffffffffffffffffffffffffffffffffffffff1603610a92576040517f08c379a0000000000000000000000000000000000000000000000000000000008152600401610a8990614435565b60405180910390fd5b600080016000018260028110610aab57610aaa614203565b5b0160009054906101000a900473ffffffffffffffffffffffffffffffffffffffff1673ffffffffffffffffffffffffffffffffffffffff166323b872dd85600080016002018660078110610b0257610b01614203565b5b0160009054906101000a900473ffffffffffffffffffffffffffffffffffffffff16846040518463ffffffff1660e01b8152600401610b4393929190614455565b6020604051808303816000875af1158015610b62573d6000803e3d6000fd5b505050506040513d601f19601f82011682018060405250810190610b8691906144a1565b505b508080610b949061437b565b91505061095c565b508080610ba89061437b565b915050610950565b506000600390506000600290506000806000016002018260078110610bd857610bd7614203565b5b0160009054906101000a900473ffffffffffffffffffffffffffffffffffffffff1673ffffffffffffffffffffffffffffffffffffffff16636a627842600080016002018560078110610c2e57610c2d614203565b5b0160009054906101000a900473ffffffffffffffffffffffffffffffffffffffff166040518263ffffffff1660e01b8152600401610c6c919061392d565b6020604051808303816000875af1158015610c8b573d6000803e3d6000fd5b505050506040513d601f19601f82011682018060405250810190610caf91906142b3565b9050600080600190505b60028111610e4c5760008060390160008873ffffffffffffffffffffffffffffffffffffffff1673ffffffffffffffffffffffffffffffffffffffff16815260200190815260200160002060008a60ff1660ff1681526020019081526020016000206000836002811115610d3057610d2f6144ce565b5b6002811115610d4257610d416144ce565b5b6002811115610d5457610d536144ce565b5b8152602001908152602001600020541115610e3957806002811115610d7c57610d7b6144ce565b5b9150600060390160008773ffffffffffffffffffffffffffffffffffffffff1673ffffffffffffffffffffffffffffffffffffffff16815260200190815260200160002060008960ff1660ff1681526020019081526020016000206000826002811115610dec57610deb6144ce565b5b6002811115610dfe57610dfd6144ce565b5b6002811115610e1057610e0f6144ce565b5b81526020019081526020016000206000815480929190610e2f906144fd565b9190505550610e4c565b8080610e449061437b565b915050610cb9565b50610e58878683611e5e565b5050505050505050565b600081600073ffffffffffffffffffffffffffffffffffffffff168173ffffffffffffffffffffffffffffffffffffffff1603610ed4576040517f08c379a0000000000000000000000000000000000000000000000000000000008152600401610ecb90614598565b60405180910390fd5b600060210160040160008473ffffffffffffffffffffffffffffffffffffffff1673ffffffffffffffffffffffffffffffffffffffff16815260200190815260200160002054915050919050565b60606000602101600c0160009054906101000a900460ff16610f79576040517f08c379a0000000000000000000000000000000000000000000000000000000008152600401610f7090613f3b565b60405180910390fd5b60006021016001018054610f8c90613f8a565b80601f0160208091040260200160405190810160405280929190818152602001828054610fb890613f8a565b80156110055780601f10610fda57610100808354040283529160200191611005565b820191906000526020600020905b815481529060010190602001808311610fe857829003601f168201915b5050505050905090565b60006110196117cb565b90508273ffffffffffffffffffffffffffffffffffffffff168173ffffffffffffffffffffffffffffffffffffffff1603611089576040517f08c379a000000000000000000000000000000000000000000000000000000000815260040161108090614604565b60405180910390fd5b81600060210160060160008373ffffffffffffffffffffffffffffffffffffffff1673ffffffffffffffffffffffffffffffffffffffff16815260200190815260200160002060008573ffffffffffffffffffffffffffffffffffffffff1673ffffffffffffffffffffffffffffffffffffffff16815260200190815260200160002060006101000a81548160ff0219169083151502179055508273ffffffffffffffffffffffffffffffffffffffff168173ffffffffffffffffffffffffffffffffffffffff167f17307eab39ab6107e8899845ad3d59bd9653f200f220920489ca2b5937696c318460405161118091906139cf565b60405180910390a3505050565b60006111976117cb565b90506111a38184611a85565b6111e2576040517f08c379a00000000000000000000000000000000000000000000000000000000081526004016111d990614696565b60405180910390fd5b6111ef8186868686612084565b6111fa8585856121a4565b5050505050565b6112096117cb565b73ffffffffffffffffffffffffffffffffffffffff1660008001600201600680811115611239576112386144ce565b5b6007811061124a57611249614203565b5b0160009054906101000a900473ffffffffffffffffffffffffffffffffffffffff1673ffffffffffffffffffffffffffffffffffffffff16146112c2576040517f08c379a00000000000000000000000000000000000000000000000000000000081526004016112b990614702565b60405180910390fd5b60006112cf848484611e5e565b9050600160006020016000838152602001908152602001600020600b0160006101000a81548160ff0219169083151502179055506000826002811115611318576113176144ce565b5b11156113c357600060390160008473ffffffffffffffffffffffffffffffffffffffff1673ffffffffffffffffffffffffffffffffffffffff16815260200190815260200160002060008560ff1660ff168152602001908152602001600020600083600281111561138c5761138b6144ce565b5b600281111561139e5761139d6144ce565b5b815260200190815260200160002060008154809291906113bd9061437b565b91905055505b50505050565b60606000602101600c0160009054906101000a900460ff16611420576040517f08c379a000000000000000000000000000000000000000000000000000000000815260040161141790613f3b565b60405180910390fd5b8161142a81612419565b600080602101600701805461143e90613f8a565b80601f016020809104026020016040519081016040528092919081815260200182805461146a90613f8a565b80156114b75780601f1061148c576101008083540402835291602001916114b7565b820191906000526020600020905b81548152906001019060200180831161149a57829003601f168201915b5050505050905060008151116114dc5760405180602001604052806000815250611507565b806114e685612464565b6040516020016114f792919061475e565b6040516020818303038152906040525b92505050919050565b6115186125c4565b6000602101600c0160009054906101000a900460ff161561156e576040517f08c379a0000000000000000000000000000000000000000000000000000000008152600401611565906147ce565b60405180910390fd5b8160006021016000019081611583919061499a565b508060006021016001019081611599919061499a565b5060006115a461265f565b905060018160030160007f80ac58cd000000000000000000000000000000000000000000000000000000007bffffffffffffffffffffffffffffffffffffffffffffffffffffffff19167bffffffffffffffffffffffffffffffffffffffffffffffffffffffff1916815260200190815260200160002060006101000a81548160ff02191690831515021790555060018160030160007f5b5e139f000000000000000000000000000000000000000000000000000000007bffffffffffffffffffffffffffffffffffffffffffffffffffffffff19167bffffffffffffffffffffffffffffffffffffffffffffffffffffffff1916815260200190815260200160002060006101000a81548160ff02191690831515021790555060016000602101600c0160006101000a81548160ff021916908315150217905550505050565b60008060210160060160008473ffffffffffffffffffffffffffffffffffffffff1673ffffffffffffffffffffffffffffffffffffffff16815260200190815260200160002060008373ffffffffffffffffffffffffffffffffffffffff1673ffffffffffffffffffffffffffffffffffffffff16815260200190815260200160002060009054906101000a900460ff16905092915050565b60008161178981612419565b6000602101600301600084815260200190815260200160002060009054906101000a900473ffffffffffffffffffffffffffffffffffffffff16915050919050565b60003073ffffffffffffffffffffffffffffffffffffffff166117ec61268c565b73ffffffffffffffffffffffffffffffffffffffff160361187b57600080368080601f016020809104026020016040519081016040528093929190818152602001838380828437600081840152601f19601f820116905080830192505050505050509050600080369050905073ffffffffffffffffffffffffffffffffffffffff81830151169250505061187f565b3390505b90565b60008060210160060160008473ffffffffffffffffffffffffffffffffffffffff1673ffffffffffffffffffffffffffffffffffffffff16815260200190815260200160002060008373ffffffffffffffffffffffffffffffffffffffff1673ffffffffffffffffffffffffffffffffffffffff16815260200190815260200160002060009054906101000a900460ff16905092915050565b816000602101600501600083815260200190815260200160002060006101000a81548173ffffffffffffffffffffffffffffffffffffffff021916908373ffffffffffffffffffffffffffffffffffffffff160217905550808273ffffffffffffffffffffffffffffffffffffffff166119948361177d565b73ffffffffffffffffffffffffffffffffffffffff167f8c5be1e5ebec7d5bd14f71427d1e84f3dd0314c0f7b2291e5b200ac8c7c3b92560405160405180910390a45050565b60006119e583612694565b8210611a26576040517f08c379a0000000000000000000000000000000000000000000000000000000008152600401611a1d90614ade565b60405180910390fd5b600060210160080160008473ffffffffffffffffffffffffffffffffffffffff1673ffffffffffffffffffffffffffffffffffffffff168152602001908152602001600020600083815260200190815260200160002054905092915050565b600081611a9181612419565b6000611a9c8461177d565b90508073ffffffffffffffffffffffffffffffffffffffff168573ffffffffffffffffffffffffffffffffffffffff161480611ade5750611add8186611882565b5b80611b1c57508473ffffffffffffffffffffffffffffffffffffffff16611b0485612754565b73ffffffffffffffffffffffffffffffffffffffff16145b9250505092915050565b6000611b318261177d565b9050611b3f816000846127a2565b611b4a60008361191b565b600060210160040160008273ffffffffffffffffffffffffffffffffffffffff1673ffffffffffffffffffffffffffffffffffffffff1681526020019081526020016000206000815480929190611ba0906144fd565b91905055506000602101600301600083815260200190815260200160002060006101000a81549073ffffffffffffffffffffffffffffffffffffffff021916905581600073ffffffffffffffffffffffffffffffffffffffff168273ffffffffffffffffffffffffffffffffffffffff167fddf252ad1be2c89b69c2b068fc378daa952ba7f163c4a11628f55a4df523b3ef60405160405180910390a4611c4981600084612c3f565b5050565b600080611c58612e68565b905080601c01805490508360ff1610611ca6576040517f08c379a0000000000000000000000000000000000000000000000000000000008152600401611c9d90614b4a565b60405180910390fd5b600081601c018460ff1681548110611cc157611cc0614203565b5b90600052602060002090600602016040518060a0016040529081600082015481526020016001820154815260200160028201600280602002604051908101604052809291908260028015611d2a576020028201915b815481526020019060010190808311611d16575b50505050508152602001600482015481526020016005820160009054906101000a900460ff1660ff1660ff16815250509050600082601d018560ff1681548110611d7757611d76614203565b5b9060005260206000209060020201604051806040016040529081600082015481526020016001820160009054906101000a900463ffffffff1663ffffffff1663ffffffff168152505090508260000160180160009054906101000a900460ff16158015611e185750816080015160ff168160000151108015611e035750806020015163ffffffff164211155b80611e175750806020015163ffffffff1642115b5b9350505050919050565b6000808211611e32576000611e56565b606480611e3f9190614b6a565b8284611e4b9190614b6a565b611e559190614bf3565b5b905092915050565b600080611e6a84612e6d565b9050611e7585612ea8565b611e7d6136fb565b85816000019060ff16908160ff168152505042816080019063ffffffff16908163ffffffff168152505042816060019063ffffffff16908163ffffffff168152505042816040019063ffffffff16908163ffffffff16815250508381602001906002811115611eef57611eee6144ce565b5b90816002811115611f0357611f026144ce565b5b81525050806000602001600084815260200190815260200160002060008201518160000160006101000a81548160ff021916908360ff16021790555060208201518160000160016101000a81548160ff02191690836002811115611f6a57611f696144ce565b5b021790555060408201518160000160026101000a81548163ffffffff021916908363ffffffff16021790555060608201518160000160066101000a81548163ffffffff021916908363ffffffff160217905550608082015181600001600a6101000a81548163ffffffff021916908363ffffffff16021790555060a082015181600101600082015181600001556020820151816001015560408201518160020155606082015181600301556080820151816004015560a0820151816005015560c0820151816006015560e0820151816007015561010082015181600801556101208201518160090155505060c082015181600b0160006101000a81548160ff02191690831515021790555090505081925050509392505050565b6000833b9050600081111561219c578373ffffffffffffffffffffffffffffffffffffffff1663150b7a02878786866040518563ffffffff1660e01b81526004016120d29493929190614c79565b6020604051808303816000875af11580156120f1573d6000803e3d6000fd5b505050506040513d601f19601f820116820180604052508101906121159190614d1d565b7bffffffffffffffffffffffffffffffffffffffffffffffffffffffff191663150b7a0260e01b7bffffffffffffffffffffffffffffffffffffffffffffffffffffffff19161461219b576040517f08c379a000000000000000000000000000000000000000000000000000000000815260040161219290614dbc565b60405180910390fd5b5b505050505050565b8273ffffffffffffffffffffffffffffffffffffffff166121c48261177d565b73ffffffffffffffffffffffffffffffffffffffff161461221a576040517f08c379a000000000000000000000000000000000000000000000000000000000815260040161221190614e4e565b60405180910390fd5b600073ffffffffffffffffffffffffffffffffffffffff168273ffffffffffffffffffffffffffffffffffffffff1603612289576040517f08c379a000000000000000000000000000000000000000000000000000000000815260040161228090614ee0565b60405180910390fd5b6122948383836127a2565b61229f60008261191b565b600060210160040160008473ffffffffffffffffffffffffffffffffffffffff1673ffffffffffffffffffffffffffffffffffffffff16815260200190815260200160002060008154809291906122f5906144fd565b9190505550600060210160040160008373ffffffffffffffffffffffffffffffffffffffff1673ffffffffffffffffffffffffffffffffffffffff16815260200190815260200160002060008154809291906123509061437b565b9190505550816000602101600301600083815260200190815260200160002060006101000a81548173ffffffffffffffffffffffffffffffffffffffff021916908373ffffffffffffffffffffffffffffffffffffffff160217905550808273ffffffffffffffffffffffffffffffffffffffff168473ffffffffffffffffffffffffffffffffffffffff167fddf252ad1be2c89b69c2b068fc378daa952ba7f163c4a11628f55a4df523b3ef60405160405180910390a461241460008383612c3f565b505050565b61242281612fa5565b612461576040517f08c379a000000000000000000000000000000000000000000000000000000000815260040161245890614f4c565b60405180910390fd5b50565b6060600082036124ab576040518060400160405280600181526020017f300000000000000000000000000000000000000000000000000000000000000081525090506125bf565b600082905060005b600082146124dd5780806124c69061437b565b915050600a826124d69190614bf3565b91506124b3565b60008167ffffffffffffffff8111156124f9576124f8613b70565b5b6040519080825280601f01601f19166020018201604052801561252b5781602001600182028036833780820191505090505b5090505b600085146125b8576001826125449190614f6c565b9150600a856125539190614fa0565b603061255f9190614fd1565b60f81b81838151811061257557612574614203565b5b60200101907effffffffffffffffffffffffffffffffffffffffffffffffffffffffffffff1916908160001a905350600a856125b19190614bf3565b945061252f565b8093505050505b919050565b6125cc61265f565b60040160009054906101000a900473ffffffffffffffffffffffffffffffffffffffff1673ffffffffffffffffffffffffffffffffffffffff163373ffffffffffffffffffffffffffffffffffffffff161461265d576040517f08c379a000000000000000000000000000000000000000000000000000000000815260040161265490615099565b60405180910390fd5b565b6000807fc8fcad8db84d3cc18b4c41d551ea0ee66dd599cde068d998e57d5e09332c131c90508091505090565b600033905090565b600081600073ffffffffffffffffffffffffffffffffffffffff168173ffffffffffffffffffffffffffffffffffffffff1603612706576040517f08c379a00000000000000000000000000000000000000000000000000000000081526004016126fd90614598565b60405180910390fd5b600060210160040160008473ffffffffffffffffffffffffffffffffffffffff1673ffffffffffffffffffffffffffffffffffffffff16815260200190815260200160002054915050919050565b60008161276081612419565b6000602101600501600084815260200190815260200160002060009054906101000a900473ffffffffffffffffffffffffffffffffffffffff16915050919050565b6000800160180160019054906101000a900460ff16156127f7576040517f08c379a00000000000000000000000000000000000000000000000000000000081526004016127ee9061512b565b60405180910390fd5b3073ffffffffffffffffffffffffffffffffffffffff16637e5c923d8484846040518463ffffffff1660e01b815260040161283493929190614455565b600060405180830381600087803b15801561284e57600080fd5b505af1158015612862573d6000803e3d6000fd5b50505050612871838383613017565b600073ffffffffffffffffffffffffffffffffffffffff168373ffffffffffffffffffffffffffffffffffffffff16141580156128db5750600073ffffffffffffffffffffffffffffffffffffffff168273ffffffffffffffffffffffffffffffffffffffff1614155b15612c3a57600060380160008473ffffffffffffffffffffffffffffffffffffffff1673ffffffffffffffffffffffffffffffffffffffff168152602001908152602001600020600060380160008473ffffffffffffffffffffffffffffffffffffffff1673ffffffffffffffffffffffffffffffffffffffff1681526020019081526020016000206000820154816000015560018201548160010155600282015481600201556003820154816003015560048201548160040155600582015481600501556006820154816006015560078201548160070155600882015481600801556009820154816009015590505060005b6000601c01805490508160ff161015612c3857600060390160008573ffffffffffffffffffffffffffffffffffffffff1673ffffffffffffffffffffffffffffffffffffffff16815260200190815260200160002060008260ff1660ff1681526020019081526020016000206000600280811115612a4f57612a4e6144ce565b5b6002811115612a6157612a606144ce565b5b815260200190815260200160002054600060390160008573ffffffffffffffffffffffffffffffffffffffff1673ffffffffffffffffffffffffffffffffffffffff16815260200190815260200160002060008360ff1660ff1681526020019081526020016000206000600280811115612ade57612add6144ce565b5b6002811115612af057612aef6144ce565b5b815260200190815260200160002081905550600060390160008473ffffffffffffffffffffffffffffffffffffffff1673ffffffffffffffffffffffffffffffffffffffff16815260200190815260200160002060008260ff1660ff168152602001908152602001600020600060016002811115612b7157612b706144ce565b5b6002811115612b8357612b826144ce565b5b815260200190815260200160002054600060390160008573ffffffffffffffffffffffffffffffffffffffff1673ffffffffffffffffffffffffffffffffffffffff16815260200190815260200160002060008360ff1660ff168152602001908152602001600020600060016002811115612c0157612c006144ce565b5b6002811115612c1357612c126144ce565b5b8152602001908152602001600020819055508080612c309061514b565b9150506129ce565b505b505050565b612c4a838383613027565b600073ffffffffffffffffffffffffffffffffffffffff168373ffffffffffffffffffffffffffffffffffffffff1614612e6357600060380160008473ffffffffffffffffffffffffffffffffffffffff1673ffffffffffffffffffffffffffffffffffffffff168152602001908152602001600020600080820160009055600182016000905560028201600090556003820160009055600482016000905560058201600090556006820160009055600782016000905560088201600090556009820160009055505060005b6000601c01805490508160ff161015612e6157600060390160008573ffffffffffffffffffffffffffffffffffffffff1673ffffffffffffffffffffffffffffffffffffffff16815260200190815260200160002060008260ff1660ff1681526020019081526020016000206000600280811115612d9757612d966144ce565b5b6002811115612da957612da86144ce565b5b815260200190815260200160002060009055600060390160008573ffffffffffffffffffffffffffffffffffffffff1673ffffffffffffffffffffffffffffffffffffffff16815260200190815260200160002060008260ff1660ff168152602001908152602001600020600060016002811115612e2a57612e296144ce565b5b6002811115612e3c57612e3b6144ce565b5b8152602001908152602001600020600090558080612e599061514b565b915050612d16565b505b505050565b600090565b600080612e786117cb565b9050612e8383613037565b9150612ea2816000858560405180602001604052806000815250612084565b50919050565b6000612eb2612e68565b9050600081601d018360ff1681548110612ecf57612ece614203565b5b906000526020600020906002020190508060010160009054906101000a900463ffffffff1663ffffffff16421115612f86575b8160000160180160029054906101000a900463ffffffff168160010160008282829054906101000a900463ffffffff16612f3c9190615184565b92506101000a81548163ffffffff021916908363ffffffff1602179055508060010160009054906101000a900463ffffffff1663ffffffff164211612f0257600081600001819055505b806000016000815480929190612f9b9061437b565b9190505550505050565b60008073ffffffffffffffffffffffffffffffffffffffff166000602101600301600084815260200190815260200160002060009054906101000a900473ffffffffffffffffffffffffffffffffffffffff1673ffffffffffffffffffffffffffffffffffffffff1614159050919050565b61302283838361306a565b505050565b61303283838361317c565b505050565b60006130496000602101600201613181565b9050613055828261318f565b6130656000602101600201613372565b919050565b613075838383613388565b600073ffffffffffffffffffffffffffffffffffffffff168373ffffffffffffffffffffffffffffffffffffffff16036130b7576130b28161338d565b6130f6565b8173ffffffffffffffffffffffffffffffffffffffff168373ffffffffffffffffffffffffffffffffffffffff16146130f5576130f483826133e8565b5b5b600073ffffffffffffffffffffffffffffffffffffffff168273ffffffffffffffffffffffffffffffffffffffff16036131385761313381613577565b613177565b8273ffffffffffffffffffffffffffffffffffffffff168273ffffffffffffffffffffffffffffffffffffffff1614613176576131758282613670565b5b5b505050565b505050565b600081600001549050919050565b600073ffffffffffffffffffffffffffffffffffffffff168273ffffffffffffffffffffffffffffffffffffffff16036131fe576040517f08c379a00000000000000000000000000000000000000000000000000000000081526004016131f59061520a565b60405180910390fd5b61320781612fa5565b15613247576040517f08c379a000000000000000000000000000000000000000000000000000000000815260040161323e90615276565b60405180910390fd5b613253600083836127a2565b600060210160040160008373ffffffffffffffffffffffffffffffffffffffff1673ffffffffffffffffffffffffffffffffffffffff16815260200190815260200160002060008154809291906132a99061437b565b9190505550816000602101600301600083815260200190815260200160002060006101000a81548173ffffffffffffffffffffffffffffffffffffffff021916908373ffffffffffffffffffffffffffffffffffffffff160217905550808273ffffffffffffffffffffffffffffffffffffffff16600073ffffffffffffffffffffffffffffffffffffffff167fddf252ad1be2c89b69c2b068fc378daa952ba7f163c4a11628f55a4df523b3ef60405160405180910390a461336e60008383612c3f565b5050565b6001816000016000828254019250508190555050565b505050565b6000602101600a01805490506000602101600b016000838152602001908152602001600020819055506000602101600a0181908060018154018082558091505060019003906000526020600020016000909190919091505550565b600060016133f584612694565b6133ff9190614f6c565b905060008060210160090160008481526020019081526020016000205490508181146134fa5760008060210160080160008673ffffffffffffffffffffffffffffffffffffffff1673ffffffffffffffffffffffffffffffffffffffff168152602001908152602001600020600084815260200190815260200160002054905080600060210160080160008773ffffffffffffffffffffffffffffffffffffffff1673ffffffffffffffffffffffffffffffffffffffff168152602001908152602001600020600084815260200190815260200160002081905550816000602101600901600083815260200190815260200160002081905550505b6000602101600901600084815260200190815260200160002060009055600060210160080160008573ffffffffffffffffffffffffffffffffffffffff1673ffffffffffffffffffffffffffffffffffffffff16815260200190815260200160002060008381526020019081526020016000206000905550505050565b600060016000602101600a01805490506135919190614f6c565b9050600080602101600b016000848152602001908152602001600020549050600080602101600a0183815481106135cb576135ca614203565b5b90600052602060002001549050806000602101600a0183815481106135f3576135f2614203565b5b9060005260206000200181905550816000602101600b016000838152602001908152602001600020819055506000602101600b016000858152602001908152602001600020600090556000602101600a0180548061365457613653615296565b5b6001900381819060005260206000200160009055905550505050565b600061367b83612694565b905081600060210160080160008573ffffffffffffffffffffffffffffffffffffffff1673ffffffffffffffffffffffffffffffffffffffff168152602001908152602001600020600083815260200190815260200160002081905550806000602101600901600084815260200190815260200160002081905550505050565b6040518060e00160405280600060ff16815260200160006002811115613724576137236144ce565b5b8152602001600063ffffffff168152602001600063ffffffff168152602001600063ffffffff168152602001613758613767565b81526020016000151581525090565b604051806101400160405280600081526020016000815260200160008152602001600081526020016000815260200160008152602001600081526020016000815260200160008152602001600081525090565b600081519050919050565b600082825260208201905092915050565b60005b838110156137f45780820151818401526020810190506137d9565b83811115613803576000848401525b50505050565b6000601f19601f8301169050919050565b6000613825826137ba565b61382f81856137c5565b935061383f8185602086016137d6565b61384881613809565b840191505092915050565b6000602082019050818103600083015261386d818461381a565b905092915050565b6000604051905090565b600080fd5b600080fd5b6000819050919050565b61389c81613889565b81146138a757600080fd5b50565b6000813590506138b981613893565b92915050565b6000602082840312156138d5576138d461387f565b5b60006138e3848285016138aa565b91505092915050565b600073ffffffffffffffffffffffffffffffffffffffff82169050919050565b6000613917826138ec565b9050919050565b6139278161390c565b82525050565b6000602082019050613942600083018461391e565b92915050565b6139518161390c565b811461395c57600080fd5b50565b60008135905061396e81613948565b92915050565b6000806040838503121561398b5761398a61387f565b5b60006139998582860161395f565b92505060206139aa858286016138aa565b9150509250929050565b60008115159050919050565b6139c9816139b4565b82525050565b60006020820190506139e460008301846139c0565b92915050565b6139f381613889565b82525050565b6000602082019050613a0e60008301846139ea565b92915050565b600080600060608486031215613a2d57613a2c61387f565b5b6000613a3b8682870161395f565b9350506020613a4c8682870161395f565b9250506040613a5d868287016138aa565b9150509250925092565b600060ff82169050919050565b613a7d81613a67565b8114613a8857600080fd5b50565b600081359050613a9a81613a74565b92915050565b600060208284031215613ab657613ab561387f565b5b6000613ac484828501613a8b565b91505092915050565b600060208284031215613ae357613ae261387f565b5b6000613af18482850161395f565b91505092915050565b613b03816139b4565b8114613b0e57600080fd5b50565b600081359050613b2081613afa565b92915050565b60008060408385031215613b3d57613b3c61387f565b5b6000613b4b8582860161395f565b9250506020613b5c85828601613b11565b9150509250929050565b600080fd5b600080fd5b7f4e487b7100000000000000000000000000000000000000000000000000000000600052604160045260246000fd5b613ba882613809565b810181811067ffffffffffffffff82111715613bc757613bc6613b70565b5b80604052505050565b6000613bda613875565b9050613be68282613b9f565b919050565b600067ffffffffffffffff821115613c0657613c05613b70565b5b613c0f82613809565b9050602081019050919050565b82818337600083830152505050565b6000613c3e613c3984613beb565b613bd0565b905082815260208101848484011115613c5a57613c59613b6b565b5b613c65848285613c1c565b509392505050565b600082601f830112613c8257613c81613b66565b5b8135613c92848260208601613c2b565b91505092915050565b60008060008060808587031215613cb557613cb461387f565b5b6000613cc38782880161395f565b9450506020613cd48782880161395f565b9350506040613ce5878288016138aa565b925050606085013567ffffffffffffffff811115613d0657613d05613884565b5b613d1287828801613c6d565b91505092959194509250565b60038110613d2b57600080fd5b50565b600081359050613d3d81613d1e565b92915050565b600080600060608486031215613d5c57613d5b61387f565b5b6000613d6a86828701613a8b565b9350506020613d7b8682870161395f565b9250506040613d8c86828701613d2e565b9150509250925092565b600067ffffffffffffffff821115613db157613db0613b70565b5b613dba82613809565b9050602081019050919050565b6000613dda613dd584613d96565b613bd0565b905082815260208101848484011115613df657613df5613b6b565b5b613e01848285613c1c565b509392505050565b600082601f830112613e1e57613e1d613b66565b5b8135613e2e848260208601613dc7565b91505092915050565b60008060408385031215613e4e57613e4d61387f565b5b600083013567ffffffffffffffff811115613e6c57613e6b613884565b5b613e7885828601613e09565b925050602083013567ffffffffffffffff811115613e9957613e98613884565b5b613ea585828601613e09565b9150509250929050565b60008060408385031215613ec657613ec561387f565b5b6000613ed48582860161395f565b9250506020613ee58582860161395f565b9150509250929050565b7f4552433732313a206e6f7420696e697469616c697a6564000000000000000000600082015250565b6000613f256017836137c5565b9150613f3082613eef565b602082019050919050565b60006020820190508181036000830152613f5481613f18565b9050919050565b7f4e487b7100000000000000000000000000000000000000000000000000000000600052602260045260246000fd5b60006002820490506001821680613fa257607f821691505b602082108103613fb557613fb4613f5b565b5b50919050565b7f4552433732313a20617070726f76616c20746f2063757272656e74206f776e6560008201527f7200000000000000000000000000000000000000000000000000000000000000602082015250565b60006140176021836137c5565b915061402282613fbb565b604082019050919050565b600060208201905081810360008301526140468161400a565b9050919050565b7f4552433732313a20617070726f76652063616c6c6572206973206e6f74206f7760008201527f6e6572206e6f7220617070726f76656420666f7220616c6c0000000000000000602082015250565b60006140a96038836137c5565b91506140b48261404d565b604082019050919050565b600060208201905081810360008301526140d88161409c565b9050919050565b7f4552433732313a2063616c6c6572206973206e6f7420746f6b656e206f776e6560008201527f72206e6f7220617070726f766564000000000000000000000000000000000000602082015250565b600061413b602e836137c5565b9150614146826140df565b604082019050919050565b6000602082019050818103600083015261416a8161412e565b9050919050565b7f455243373231456e756d657261626c653a20676c6f62616c20696e646578206f60008201527f7574206f6620626f756e64730000000000000000000000000000000000000000602082015250565b60006141cd602c836137c5565b91506141d882614171565b604082019050919050565b600060208201905081810360008301526141fc816141c0565b9050919050565b7f4e487b7100000000000000000000000000000000000000000000000000000000600052603260045260246000fd5b7f47656d206d696e74207265737472696374696f6e000000000000000000000000600082015250565b60006142686014836137c5565b915061427382614232565b602082019050919050565b600060208201905081810360008301526142978161425b565b9050919050565b6000815190506142ad81613893565b92915050565b6000602082840312156142c9576142c861387f565b5b60006142d78482850161429e565b91505092915050565b7f496e73756666696369656e742062616c616e6365000000000000000000000000600082015250565b60006143166014836137c5565b9150614321826142e0565b602082019050919050565b6000602082019050818103600083015261434581614309565b9050919050565b7f4e487b7100000000000000000000000000000000000000000000000000000000600052601160045260246000fd5b600061438682613889565b91507fffffffffffffffffffffffffffffffffffffffffffffffffffffffffffffffff82036143b8576143b761434c565b5b600182019050919050565b7f5969656c6447656d3a20636f6e66696775726174696f6e206572726f722c207a60008201527f65726f2061646472657373000000000000000000000000000000000000000000602082015250565b600061441f602b836137c5565b915061442a826143c3565b604082019050919050565b6000602082019050818103600083015261444e81614412565b9050919050565b600060608201905061446a600083018661391e565b614477602083018561391e565b61448460408301846139ea565b949350505050565b60008151905061449b81613afa565b92915050565b6000602082840312156144b7576144b661387f565b5b60006144c58482850161448c565b91505092915050565b7f4e487b7100000000000000000000000000000000000000000000000000000000600052602160045260246000fd5b600061450882613889565b91506000820361451b5761451a61434c565b5b600182039050919050565b7f4552433732313a2061646472657373207a65726f206973206e6f74206120766160008201527f6c6964206f776e65720000000000000000000000000000000000000000000000602082015250565b60006145826029836137c5565b915061458d82614526565b604082019050919050565b600060208201905081810360008301526145b181614575565b9050919050565b7f4552433732313a20617070726f766520746f2063616c6c657200000000000000600082015250565b60006145ee6019836137c5565b91506145f9826145b8565b602082019050919050565b6000602082019050818103600083015261461d816145e1565b9050919050565b7f4552433732313a207472616e736665722063616c6c6572206973206e6f74206f60008201527f776e6572206e6f7220617070726f766564000000000000000000000000000000602082015250565b60006146806031836137c5565b915061468b82614624565b604082019050919050565b600060208201905081810360008301526146af81614673565b9050919050565b7f556e617574686f72697a65640000000000000000000000000000000000000000600082015250565b60006146ec600c836137c5565b91506146f7826146b6565b602082019050919050565b6000602082019050818103600083015261471b816146df565b9050919050565b600081905092915050565b6000614738826137ba565b6147428185614722565b93506147528185602086016137d6565b80840191505092915050565b600061476a828561472d565b9150614776828461472d565b91508190509392505050565b7f4552433732313a20616c726561647920696e697469616c697a65640000000000600082015250565b60006147b8601b836137c5565b91506147c382614782565b602082019050919050565b600060208201905081810360008301526147e7816147ab565b9050919050565b60008190508160005260206000209050919050565b60006020601f8301049050919050565b600082821b905092915050565b6000600883026148507fffffffffffffffffffffffffffffffffffffffffffffffffffffffffffffffff82614813565b61485a8683614813565b95508019841693508086168417925050509392505050565b6000819050919050565b600061489761489261488d84613889565b614872565b613889565b9050919050565b6000819050919050565b6148b18361487c565b6148c56148bd8261489e565b848454614820565b825550505050565b600090565b6148da6148cd565b6148e58184846148a8565b505050565b5b81811015614909576148fe6000826148d2565b6001810190506148eb565b5050565b601f82111561494e5761491f816147ee565b61492884614803565b81016020851015614937578190505b61494b61494385614803565b8301826148ea565b50505b505050565b600082821c905092915050565b600061497160001984600802614953565b1980831691505092915050565b600061498a8383614960565b9150826002028217905092915050565b6149a3826137ba565b67ffffffffffffffff8111156149bc576149bb613b70565b5b6149c68254613f8a565b6149d182828561490d565b600060209050601f831160018114614a0457600084156149f2578287015190505b6149fc858261497e565b865550614a64565b601f198416614a12866147ee565b60005b82811015614a3a57848901518255600182019150602085019450602081019050614a15565b86831015614a575784890151614a53601f891682614960565b8355505b6001600288020188555050505b505050505050565b7f455243373231456e756d657261626c653a206f776e657220696e646578206f7560008201527f74206f6620626f756e6473000000000000000000000000000000000000000000602082015250565b6000614ac8602b836137c5565b9150614ad382614a6c565b604082019050919050565b60006020820190508181036000830152614af781614abb565b9050919050565b7f57726f6e672067656d2074797065000000000000000000000000000000000000600082015250565b6000614b34600e836137c5565b9150614b3f82614afe565b602082019050919050565b60006020820190508181036000830152614b6381614b27565b9050919050565b6000614b7582613889565b9150614b8083613889565b9250817fffffffffffffffffffffffffffffffffffffffffffffffffffffffffffffffff0483118215151615614bb957614bb861434c565b5b828202905092915050565b7f4e487b7100000000000000000000000000000000000000000000000000000000600052601260045260246000fd5b6000614bfe82613889565b9150614c0983613889565b925082614c1957614c18614bc4565b5b828204905092915050565b600081519050919050565b600082825260208201905092915050565b6000614c4b82614c24565b614c558185614c2f565b9350614c658185602086016137d6565b614c6e81613809565b840191505092915050565b6000608082019050614c8e600083018761391e565b614c9b602083018661391e565b614ca860408301856139ea565b8181036060830152614cba8184614c40565b905095945050505050565b60007fffffffff0000000000000000000000000000000000000000000000000000000082169050919050565b614cfa81614cc5565b8114614d0557600080fd5b50565b600081519050614d1781614cf1565b92915050565b600060208284031215614d3357614d3261387f565b5b6000614d4184828501614d08565b91505092915050565b7f4465666f45524337323146616365743a205472616e736665722072656a65637460008201527f65642f6661696c6564206279205f746f00000000000000000000000000000000602082015250565b6000614da66030836137c5565b9150614db182614d4a565b604082019050919050565b60006020820190508181036000830152614dd581614d99565b9050919050565b7f4552433732313a207472616e736665722066726f6d20696e636f72726563742060008201527f6f776e6572000000000000000000000000000000000000000000000000000000602082015250565b6000614e386025836137c5565b9150614e4382614ddc565b604082019050919050565b60006020820190508181036000830152614e6781614e2b565b9050919050565b7f4552433732313a207472616e7366657220746f20746865207a65726f2061646460008201527f7265737300000000000000000000000000000000000000000000000000000000602082015250565b6000614eca6024836137c5565b9150614ed582614e6e565b604082019050919050565b60006020820190508181036000830152614ef981614ebd565b9050919050565b7f4552433732313a20746f6b656e4964206973206e6f742076616c696400000000600082015250565b6000614f36601c836137c5565b9150614f4182614f00565b602082019050919050565b60006020820190508181036000830152614f6581614f29565b9050919050565b6000614f7782613889565b9150614f8283613889565b925082821015614f9557614f9461434c565b5b828203905092915050565b6000614fab82613889565b9150614fb683613889565b925082614fc657614fc5614bc4565b5b828206905092915050565b6000614fdc82613889565b9150614fe783613889565b9250827fffffffffffffffffffffffffffffffffffffffffffffffffffffffffffffffff0382111561501c5761501b61434c565b5b828201905092915050565b7f4c69624469616d6f6e643a204d75737420626520636f6e7472616374206f776e60008201527f6572000000000000000000000000000000000000000000000000000000000000602082015250565b60006150836022836137c5565b915061508e82615027565b604082019050919050565b600060208201905081810360008301526150b281615076565b9050919050565b7f5061757361626c653a207061757365642c207472616e73666572206973206c6f60008201527f636b656400000000000000000000000000000000000000000000000000000000602082015250565b60006151156024836137c5565b9150615120826150b9565b604082019050919050565b6000602082019050818103600083015261514481615108565b9050919050565b600061515682613a67565b915060ff82036151695761516861434c565b5b600182019050919050565b600063ffffffff82169050919050565b600061518f82615174565b915061519a83615174565b92508263ffffffff038211156151b3576151b261434c565b5b828201905092915050565b7f4552433732313a206d696e7420746f20746865207a65726f2061646472657373600082015250565b60006151f46020836137c5565b91506151ff826151be565b602082019050919050565b60006020820190508181036000830152615223816151e7565b9050919050565b7f4552433732313a20746f6b656e20616c7265616479206d696e74656400000000600082015250565b6000615260601c836137c5565b915061526b8261522a565b602082019050919050565b6000602082019050818103600083015261528f81615253565b9050919050565b7f4e487b7100000000000000000000000000000000000000000000000000000000600052603160045260246000fdfea26469706673582212200094dd6ada1580cb8f6d0224e2b78ca1c939ffca9c95d934f71b5554fd3c311864736f6c634300080f0033",
  "devdoc": {
    "author": "Decentralized Foundation Team",
    "kind": "dev",
    "methods": {
      "mint(uint8)": {
        "details": "takes payment for mint and passes to the internal _mint function"
      }
    },
    "title": "YieldGemFacet EIP-2535 Diamond Facet",
    "version": 1
  },
  "userdoc": {
    "kind": "user",
    "methods": {
      "mintTo(uint8,address,uint8)": {
        "notice": "For redeem usage"
      }
    },
    "notice": "Basic DEFO-specific mint functionality on top of the ERC721 standard",
    "version": 1
  },
  "storageLayout": {
    "storage": [
      {
        "astId": 4283,
        "contract": "contracts/facets/YieldGemFacet.sol:YieldGemFacet",
        "label": "s",
        "offset": 0,
        "slot": "0",
        "type": "t_struct(AppStorage)4537_storage"
      }
    ],
    "types": {
      "t_address": {
        "encoding": "inplace",
        "label": "address",
        "numberOfBytes": "20"
      },
      "t_array(t_address)7_storage": {
        "base": "t_address",
        "encoding": "inplace",
        "label": "address[7]",
        "numberOfBytes": "224"
      },
      "t_array(t_array(t_uint256)3_storage)2_storage": {
        "base": "t_array(t_uint256)3_storage",
        "encoding": "inplace",
        "label": "uint256[3][2]",
        "numberOfBytes": "192"
      },
      "t_array(t_contract(IERC20)737)2_storage": {
        "base": "t_contract(IERC20)737",
        "encoding": "inplace",
        "label": "contract IERC20[2]",
        "numberOfBytes": "64"
      },
      "t_array(t_struct(GemTypeConfig)4429_storage)dyn_storage": {
        "base": "t_struct(GemTypeConfig)4429_storage",
        "encoding": "dynamic_array",
        "label": "struct GemTypeConfig[]",
        "numberOfBytes": "32"
      },
      "t_array(t_struct(GemTypeMintWindow)4434_storage)dyn_storage": {
        "base": "t_struct(GemTypeMintWindow)4434_storage",
        "encoding": "dynamic_array",
        "label": "struct GemTypeMintWindow[]",
        "numberOfBytes": "32"
      },
      "t_array(t_uint256)2_storage": {
        "base": "t_uint256",
        "encoding": "inplace",
        "label": "uint256[2]",
        "numberOfBytes": "64"
      },
      "t_array(t_uint256)3_storage": {
        "base": "t_uint256",
        "encoding": "inplace",
        "label": "uint256[3]",
        "numberOfBytes": "96"
      },
      "t_array(t_uint256)5_storage": {
        "base": "t_uint256",
        "encoding": "inplace",
        "label": "uint256[5]",
        "numberOfBytes": "160"
      },
      "t_array(t_uint256)dyn_storage": {
        "base": "t_uint256",
        "encoding": "dynamic_array",
        "label": "uint256[]",
        "numberOfBytes": "32"
      },
      "t_bool": {
        "encoding": "inplace",
        "label": "bool",
        "numberOfBytes": "1"
      },
      "t_contract(IERC20)737": {
        "encoding": "inplace",
        "label": "contract IERC20",
        "numberOfBytes": "20"
      },
      "t_enum(Booster)4456": {
        "encoding": "inplace",
        "label": "enum Booster",
        "numberOfBytes": "1"
      },
      "t_mapping(t_address,t_bool)": {
        "encoding": "mapping",
        "key": "t_address",
        "label": "mapping(address => bool)",
        "numberOfBytes": "32",
        "value": "t_bool"
      },
      "t_mapping(t_address,t_mapping(t_address,t_bool))": {
        "encoding": "mapping",
        "key": "t_address",
        "label": "mapping(address => mapping(address => bool))",
        "numberOfBytes": "32",
        "value": "t_mapping(t_address,t_bool)"
      },
      "t_mapping(t_address,t_mapping(t_uint256,t_uint256))": {
        "encoding": "mapping",
        "key": "t_address",
        "label": "mapping(address => mapping(uint256 => uint256))",
        "numberOfBytes": "32",
        "value": "t_mapping(t_uint256,t_uint256)"
      },
      "t_mapping(t_address,t_mapping(t_uint8,t_mapping(t_enum(Booster)4456,t_uint256)))": {
        "encoding": "mapping",
        "key": "t_address",
        "label": "mapping(address => mapping(uint8 => mapping(enum Booster => uint256)))",
        "numberOfBytes": "32",
        "value": "t_mapping(t_uint8,t_mapping(t_enum(Booster)4456,t_uint256))"
      },
      "t_mapping(t_address,t_struct(Fi)4477_storage)": {
        "encoding": "mapping",
        "key": "t_address",
        "label": "mapping(address => struct Fi)",
        "numberOfBytes": "32",
        "value": "t_struct(Fi)4477_storage"
      },
      "t_mapping(t_address,t_uint256)": {
        "encoding": "mapping",
        "key": "t_address",
        "label": "mapping(address => uint256)",
        "numberOfBytes": "32",
        "value": "t_uint256"
      },
      "t_mapping(t_enum(Booster)4456,t_uint256)": {
        "encoding": "mapping",
        "key": "t_enum(Booster)4456",
        "label": "mapping(enum Booster => uint256)",
        "numberOfBytes": "32",
        "value": "t_uint256"
      },
      "t_mapping(t_uint256,t_address)": {
        "encoding": "mapping",
        "key": "t_uint256",
        "label": "mapping(uint256 => address)",
        "numberOfBytes": "32",
        "value": "t_address"
      },
      "t_mapping(t_uint256,t_struct(Gem)4494_storage)": {
        "encoding": "mapping",
        "key": "t_uint256",
        "label": "mapping(uint256 => struct Gem)",
        "numberOfBytes": "32",
        "value": "t_struct(Gem)4494_storage"
      },
      "t_mapping(t_uint256,t_uint256)": {
        "encoding": "mapping",
        "key": "t_uint256",
        "label": "mapping(uint256 => uint256)",
        "numberOfBytes": "32",
        "value": "t_uint256"
      },
      "t_mapping(t_uint8,t_mapping(t_enum(Booster)4456,t_uint256))": {
        "encoding": "mapping",
        "key": "t_uint8",
        "label": "mapping(uint8 => mapping(enum Booster => uint256))",
        "numberOfBytes": "32",
        "value": "t_mapping(t_enum(Booster)4456,t_uint256)"
      },
      "t_string_storage": {
        "encoding": "bytes",
        "label": "string",
        "numberOfBytes": "32"
      },
      "t_struct(AppStorage)4537_storage": {
        "encoding": "inplace",
        "label": "struct AppStorage",
        "members": [
          {
            "astId": 4497,
            "contract": "contracts/facets/YieldGemFacet.sol:YieldGemFacet",
            "label": "config",
            "offset": 0,
            "slot": "0",
            "type": "t_struct(ProtocolConfig)4416_storage"
          },
          {
            "astId": 4501,
            "contract": "contracts/facets/YieldGemFacet.sol:YieldGemFacet",
            "label": "gemTypes",
            "offset": 0,
            "slot": "28",
            "type": "t_array(t_struct(GemTypeConfig)4429_storage)dyn_storage"
          },
          {
            "astId": 4505,
            "contract": "contracts/facets/YieldGemFacet.sol:YieldGemFacet",
            "label": "gemTypesMintWindows",
            "offset": 0,
            "slot": "29",
            "type": "t_array(t_struct(GemTypeMintWindow)4434_storage)dyn_storage"
          },
          {
            "astId": 4508,
            "contract": "contracts/facets/YieldGemFacet.sol:YieldGemFacet",
            "label": "defoTokenLimitWindow",
            "offset": 0,
            "slot": "30",
            "type": "t_struct(DEFOTokenLimitWindow)4443_storage"
          },
          {
            "astId": 4513,
            "contract": "contracts/facets/YieldGemFacet.sol:YieldGemFacet",
            "label": "gems",
            "offset": 0,
            "slot": "32",
            "type": "t_mapping(t_uint256,t_struct(Gem)4494_storage)"
          },
          {
            "astId": 4516,
            "contract": "contracts/facets/YieldGemFacet.sol:YieldGemFacet",
            "label": "nft",
            "offset": 0,
            "slot": "33",
            "type": "t_struct(ERC721Storage)4351_storage"
          },
          {
            "astId": 4519,
            "contract": "contracts/facets/YieldGemFacet.sol:YieldGemFacet",
            "label": "total",
            "offset": 0,
            "slot": "46",
            "type": "t_struct(Fi)4477_storage"
          },
          {
            "astId": 4524,
            "contract": "contracts/facets/YieldGemFacet.sol:YieldGemFacet",
            "label": "usersFi",
            "offset": 0,
            "slot": "56",
            "type": "t_mapping(t_address,t_struct(Fi)4477_storage)"
          },
          {
            "astId": 4533,
            "contract": "contracts/facets/YieldGemFacet.sol:YieldGemFacet",
            "label": "usersNextGemBooster",
            "offset": 0,
            "slot": "57",
            "type": "t_mapping(t_address,t_mapping(t_uint8,t_mapping(t_enum(Booster)4456,t_uint256)))"
          },
          {
            "astId": 4536,
            "contract": "contracts/facets/YieldGemFacet.sol:YieldGemFacet",
            "label": "defoTokenLimitPerRewards",
            "offset": 0,
            "slot": "58",
            "type": "t_struct(DEFOTokenLimitPerRewards)4452_storage"
          }
        ],
        "numberOfBytes": "1920"
      },
      "t_struct(Counter)2737_storage": {
        "encoding": "inplace",
        "label": "struct Counters.Counter",
        "members": [
          {
            "astId": 2736,
            "contract": "contracts/facets/YieldGemFacet.sol:YieldGemFacet",
            "label": "_value",
            "offset": 0,
            "slot": "0",
            "type": "t_uint256"
          }
        ],
        "numberOfBytes": "32"
      },
      "t_struct(DEFOTokenLimitPerRewards)4452_storage": {
        "encoding": "inplace",
        "label": "struct DEFOTokenLimitPerRewards",
        "members": [
          {
            "astId": 4447,
            "contract": "contracts/facets/YieldGemFacet.sol:YieldGemFacet",
            "label": "tokensSold",
            "offset": 0,
            "slot": "0",
            "type": "t_mapping(t_address,t_uint256)"
          },
          {
            "astId": 4451,
            "contract": "contracts/facets/YieldGemFacet.sol:YieldGemFacet",
            "label": "timeOfWindowStart",
            "offset": 0,
            "slot": "1",
            "type": "t_mapping(t_address,t_uint256)"
          }
        ],
        "numberOfBytes": "64"
      },
      "t_struct(DEFOTokenLimitWindow)4443_storage": {
        "encoding": "inplace",
        "label": "struct DEFOTokenLimitWindow",
        "members": [
          {
            "astId": 4438,
            "contract": "contracts/facets/YieldGemFacet.sol:YieldGemFacet",
            "label": "tokensSold",
            "offset": 0,
            "slot": "0",
            "type": "t_mapping(t_address,t_uint256)"
          },
          {
            "astId": 4442,
            "contract": "contracts/facets/YieldGemFacet.sol:YieldGemFacet",
            "label": "timeOfLastSale",
            "offset": 0,
            "slot": "1",
            "type": "t_mapping(t_address,t_uint256)"
          }
        ],
        "numberOfBytes": "64"
      },
      "t_struct(DefoTokenLimitConfig)4375_storage": {
        "encoding": "inplace",
        "label": "struct DefoTokenLimitConfig",
        "members": [
          {
            "astId": 4370,
            "contract": "contracts/facets/YieldGemFacet.sol:YieldGemFacet",
            "label": "saleLimitPeriod",
            "offset": 0,
            "slot": "0",
            "type": "t_uint256"
          },
          {
            "astId": 4372,
            "contract": "contracts/facets/YieldGemFacet.sol:YieldGemFacet",
            "label": "saleLimitAmount",
            "offset": 0,
            "slot": "1",
            "type": "t_uint256"
          },
          {
            "astId": 4374,
            "contract": "contracts/facets/YieldGemFacet.sol:YieldGemFacet",
            "label": "limitByReward",
            "offset": 0,
            "slot": "2",
            "type": "t_bool"
          }
        ],
        "numberOfBytes": "96"
      },
      "t_struct(ERC721Storage)4351_storage": {
        "encoding": "inplace",
        "label": "struct ERC721Storage",
        "members": [
          {
            "astId": 4306,
            "contract": "contracts/facets/YieldGemFacet.sol:YieldGemFacet",
            "label": "name",
            "offset": 0,
            "slot": "0",
            "type": "t_string_storage"
          },
          {
            "astId": 4308,
            "contract": "contracts/facets/YieldGemFacet.sol:YieldGemFacet",
            "label": "symbol",
            "offset": 0,
            "slot": "1",
            "type": "t_string_storage"
          },
          {
            "astId": 4311,
            "contract": "contracts/facets/YieldGemFacet.sol:YieldGemFacet",
            "label": "tokenIdTracker",
            "offset": 0,
            "slot": "2",
            "type": "t_struct(Counter)2737_storage"
          },
          {
            "astId": 4315,
            "contract": "contracts/facets/YieldGemFacet.sol:YieldGemFacet",
            "label": "owners",
            "offset": 0,
            "slot": "3",
            "type": "t_mapping(t_uint256,t_address)"
          },
          {
            "astId": 4319,
            "contract": "contracts/facets/YieldGemFacet.sol:YieldGemFacet",
            "label": "balances",
            "offset": 0,
            "slot": "4",
            "type": "t_mapping(t_address,t_uint256)"
          },
          {
            "astId": 4323,
            "contract": "contracts/facets/YieldGemFacet.sol:YieldGemFacet",
            "label": "tokenApprovals",
            "offset": 0,
            "slot": "5",
            "type": "t_mapping(t_uint256,t_address)"
          },
          {
            "astId": 4329,
            "contract": "contracts/facets/YieldGemFacet.sol:YieldGemFacet",
            "label": "operatorApprovals",
            "offset": 0,
            "slot": "6",
            "type": "t_mapping(t_address,t_mapping(t_address,t_bool))"
          },
          {
            "astId": 4331,
            "contract": "contracts/facets/YieldGemFacet.sol:YieldGemFacet",
            "label": "baseURI",
            "offset": 0,
            "slot": "7",
            "type": "t_string_storage"
          },
          {
            "astId": 4337,
            "contract": "contracts/facets/YieldGemFacet.sol:YieldGemFacet",
            "label": "ownedTokens",
            "offset": 0,
            "slot": "8",
            "type": "t_mapping(t_address,t_mapping(t_uint256,t_uint256))"
          },
          {
            "astId": 4341,
            "contract": "contracts/facets/YieldGemFacet.sol:YieldGemFacet",
            "label": "ownedTokensIndex",
            "offset": 0,
            "slot": "9",
            "type": "t_mapping(t_uint256,t_uint256)"
          },
          {
            "astId": 4344,
            "contract": "contracts/facets/YieldGemFacet.sol:YieldGemFacet",
            "label": "allTokens",
            "offset": 0,
            "slot": "10",
            "type": "t_array(t_uint256)dyn_storage"
          },
          {
            "astId": 4348,
            "contract": "contracts/facets/YieldGemFacet.sol:YieldGemFacet",
            "label": "allTokensIndex",
            "offset": 0,
            "slot": "11",
            "type": "t_mapping(t_uint256,t_uint256)"
          },
          {
            "astId": 4350,
            "contract": "contracts/facets/YieldGemFacet.sol:YieldGemFacet",
            "label": "init",
            "offset": 0,
            "slot": "12",
            "type": "t_bool"
          }
        ],
        "numberOfBytes": "416"
      },
      "t_struct(Fi)4477_storage": {
        "encoding": "inplace",
        "label": "struct Fi",
        "members": [
          {
            "astId": 4458,
            "contract": "contracts/facets/YieldGemFacet.sol:YieldGemFacet",
            "label": "claimedGross",
            "offset": 0,
            "slot": "0",
            "type": "t_uint256"
          },
          {
            "astId": 4460,
            "contract": "contracts/facets/YieldGemFacet.sol:YieldGemFacet",
            "label": "claimedNet",
            "offset": 0,
            "slot": "1",
            "type": "t_uint256"
          },
          {
            "astId": 4462,
            "contract": "contracts/facets/YieldGemFacet.sol:YieldGemFacet",
            "label": "stakedGross",
            "offset": 0,
            "slot": "2",
            "type": "t_uint256"
          },
          {
            "astId": 4464,
            "contract": "contracts/facets/YieldGemFacet.sol:YieldGemFacet",
            "label": "stakedNet",
            "offset": 0,
            "slot": "3",
            "type": "t_uint256"
          },
          {
            "astId": 4466,
            "contract": "contracts/facets/YieldGemFacet.sol:YieldGemFacet",
            "label": "unStakedGross",
            "offset": 0,
            "slot": "4",
            "type": "t_uint256"
          },
          {
            "astId": 4468,
            "contract": "contracts/facets/YieldGemFacet.sol:YieldGemFacet",
            "label": "unStakedGrossUp",
            "offset": 0,
            "slot": "5",
            "type": "t_uint256"
          },
          {
            "astId": 4470,
            "contract": "contracts/facets/YieldGemFacet.sol:YieldGemFacet",
            "label": "unStakedNet",
            "offset": 0,
            "slot": "6",
            "type": "t_uint256"
          },
          {
            "astId": 4472,
            "contract": "contracts/facets/YieldGemFacet.sol:YieldGemFacet",
            "label": "donated",
            "offset": 0,
            "slot": "7",
            "type": "t_uint256"
          },
          {
            "astId": 4474,
            "contract": "contracts/facets/YieldGemFacet.sol:YieldGemFacet",
            "label": "claimTaxPaid",
            "offset": 0,
            "slot": "8",
            "type": "t_uint256"
          },
          {
            "astId": 4476,
            "contract": "contracts/facets/YieldGemFacet.sol:YieldGemFacet",
            "label": "vaultTaxPaid",
            "offset": 0,
            "slot": "9",
            "type": "t_uint256"
          }
        ],
        "numberOfBytes": "320"
      },
      "t_struct(Gem)4494_storage": {
        "encoding": "inplace",
        "label": "struct Gem",
        "members": [
          {
            "astId": 4479,
            "contract": "contracts/facets/YieldGemFacet.sol:YieldGemFacet",
            "label": "gemTypeId",
            "offset": 0,
            "slot": "0",
            "type": "t_uint8"
          },
          {
            "astId": 4482,
            "contract": "contracts/facets/YieldGemFacet.sol:YieldGemFacet",
            "label": "booster",
            "offset": 1,
            "slot": "0",
            "type": "t_enum(Booster)4456"
          },
          {
            "astId": 4484,
            "contract": "contracts/facets/YieldGemFacet.sol:YieldGemFacet",
            "label": "mintTime",
            "offset": 2,
            "slot": "0",
            "type": "t_uint32"
          },
          {
            "astId": 4486,
            "contract": "contracts/facets/YieldGemFacet.sol:YieldGemFacet",
            "label": "lastRewardWithdrawalTime",
            "offset": 6,
            "slot": "0",
            "type": "t_uint32"
          },
          {
            "astId": 4488,
            "contract": "contracts/facets/YieldGemFacet.sol:YieldGemFacet",
            "label": "lastMaintenanceTime",
            "offset": 10,
            "slot": "0",
            "type": "t_uint32"
          },
          {
            "astId": 4491,
            "contract": "contracts/facets/YieldGemFacet.sol:YieldGemFacet",
            "label": "fi",
            "offset": 0,
            "slot": "1",
            "type": "t_struct(Fi)4477_storage"
          },
          {
            "astId": 4493,
            "contract": "contracts/facets/YieldGemFacet.sol:YieldGemFacet",
            "label": "presold",
            "offset": 0,
            "slot": "11",
            "type": "t_bool"
          }
        ],
        "numberOfBytes": "384"
      },
      "t_struct(GemTypeConfig)4429_storage": {
        "encoding": "inplace",
        "label": "struct GemTypeConfig",
        "members": [
          {
            "astId": 4418,
            "contract": "contracts/facets/YieldGemFacet.sol:YieldGemFacet",
            "label": "maintenanceFeeDai",
            "offset": 0,
            "slot": "0",
            "type": "t_uint256"
          },
          {
            "astId": 4420,
            "contract": "contracts/facets/YieldGemFacet.sol:YieldGemFacet",
            "label": "rewardAmountDefo",
            "offset": 0,
            "slot": "1",
            "type": "t_uint256"
          },
          {
            "astId": 4424,
            "contract": "contracts/facets/YieldGemFacet.sol:YieldGemFacet",
            "label": "price",
            "offset": 0,
            "slot": "2",
            "type": "t_array(t_uint256)2_storage"
          },
          {
            "astId": 4426,
            "contract": "contracts/facets/YieldGemFacet.sol:YieldGemFacet",
            "label": "taperRewardsThresholdDefo",
            "offset": 0,
            "slot": "4",
            "type": "t_uint256"
          },
          {
            "astId": 4428,
            "contract": "contracts/facets/YieldGemFacet.sol:YieldGemFacet",
            "label": "maxMintsPerLimitWindow",
            "offset": 0,
            "slot": "5",
            "type": "t_uint8"
          }
        ],
        "numberOfBytes": "192"
      },
      "t_struct(GemTypeMintWindow)4434_storage": {
        "encoding": "inplace",
        "label": "struct GemTypeMintWindow",
        "members": [
          {
            "astId": 4431,
            "contract": "contracts/facets/YieldGemFacet.sol:YieldGemFacet",
            "label": "mintCount",
            "offset": 0,
            "slot": "0",
            "type": "t_uint256"
          },
          {
            "astId": 4433,
            "contract": "contracts/facets/YieldGemFacet.sol:YieldGemFacet",
            "label": "endOfMintLimitWindow",
            "offset": 0,
            "slot": "1",
            "type": "t_uint32"
          }
        ],
        "numberOfBytes": "64"
      },
      "t_struct(ProtocolConfig)4416_storage": {
        "encoding": "inplace",
        "label": "struct ProtocolConfig",
        "members": [
          {
            "astId": 4380,
            "contract": "contracts/facets/YieldGemFacet.sol:YieldGemFacet",
            "label": "paymentTokens",
            "offset": 0,
            "slot": "0",
            "type": "t_array(t_contract(IERC20)737)2_storage"
          },
          {
            "astId": 4384,
            "contract": "contracts/facets/YieldGemFacet.sol:YieldGemFacet",
            "label": "wallets",
            "offset": 0,
            "slot": "2",
            "type": "t_array(t_address)7_storage"
          },
          {
            "astId": 4390,
            "contract": "contracts/facets/YieldGemFacet.sol:YieldGemFacet",
            "label": "incomeDistributionOnMint",
            "offset": 0,
            "slot": "9",
            "type": "t_array(t_array(t_uint256)3_storage)2_storage"
          },
          {
            "astId": 4392,
            "contract": "contracts/facets/YieldGemFacet.sol:YieldGemFacet",
            "label": "maintenancePeriod",
            "offset": 0,
            "slot": "15",
            "type": "t_uint32"
          },
          {
            "astId": 4394,
            "contract": "contracts/facets/YieldGemFacet.sol:YieldGemFacet",
            "label": "rewardPeriod",
            "offset": 4,
            "slot": "15",
            "type": "t_uint32"
          },
          {
            "astId": 4396,
            "contract": "contracts/facets/YieldGemFacet.sol:YieldGemFacet",
            "label": "taxScaleSinceLastClaimPeriod",
            "offset": 8,
            "slot": "15",
            "type": "t_uint32"
          },
          {
            "astId": 4400,
            "contract": "contracts/facets/YieldGemFacet.sol:YieldGemFacet",
            "label": "taxRates",
            "offset": 0,
            "slot": "16",
            "type": "t_array(t_uint256)5_storage"
          },
          {
            "astId": 4402,
            "contract": "contracts/facets/YieldGemFacet.sol:YieldGemFacet",
            "label": "charityContributionRate",
            "offset": 0,
            "slot": "21",
            "type": "t_uint256"
          },
          {
            "astId": 4404,
            "contract": "contracts/facets/YieldGemFacet.sol:YieldGemFacet",
            "label": "vaultWithdrawalTaxRate",
            "offset": 0,
            "slot": "22",
            "type": "t_uint256"
          },
          {
            "astId": 4406,
            "contract": "contracts/facets/YieldGemFacet.sol:YieldGemFacet",
            "label": "taperRate",
            "offset": 0,
            "slot": "23",
            "type": "t_uint256"
          },
          {
            "astId": 4408,
            "contract": "contracts/facets/YieldGemFacet.sol:YieldGemFacet",
            "label": "mintLock",
            "offset": 0,
            "slot": "24",
            "type": "t_bool"
          },
          {
            "astId": 4410,
            "contract": "contracts/facets/YieldGemFacet.sol:YieldGemFacet",
            "label": "transferLock",
            "offset": 1,
            "slot": "24",
            "type": "t_bool"
          },
          {
            "astId": 4412,
            "contract": "contracts/facets/YieldGemFacet.sol:YieldGemFacet",
            "label": "mintLimitWindow",
            "offset": 2,
            "slot": "24",
            "type": "t_uint32"
          },
          {
            "astId": 4415,
            "contract": "contracts/facets/YieldGemFacet.sol:YieldGemFacet",
            "label": "defoTokenLimitConfig",
            "offset": 0,
            "slot": "25",
            "type": "t_struct(DefoTokenLimitConfig)4375_storage"
          }
        ],
        "numberOfBytes": "896"
      },
      "t_uint256": {
        "encoding": "inplace",
        "label": "uint256",
        "numberOfBytes": "32"
      },
      "t_uint32": {
        "encoding": "inplace",
        "label": "uint32",
        "numberOfBytes": "4"
      },
      "t_uint8": {
        "encoding": "inplace",
        "label": "uint8",
        "numberOfBytes": "1"
      }
    }
  }
}