{
  "address": "0x57B7233606ba262Ccbac34635D682aF6961Cb8C1",
  "abi": [
    {
      "anonymous": false,
      "inputs": [
        {
          "indexed": true,
          "internalType": "address",
          "name": "owner",
          "type": "address"
        },
        {
          "indexed": true,
          "internalType": "address",
          "name": "approved",
          "type": "address"
        },
        {
          "indexed": true,
          "internalType": "uint256",
          "name": "tokenId",
          "type": "uint256"
        }
      ],
      "name": "Approval",
      "type": "event"
    },
    {
      "anonymous": false,
      "inputs": [
        {
          "indexed": true,
          "internalType": "address",
          "name": "owner",
          "type": "address"
        },
        {
          "indexed": true,
          "internalType": "address",
          "name": "operator",
          "type": "address"
        },
        {
          "indexed": false,
          "internalType": "bool",
          "name": "approved",
          "type": "bool"
        }
      ],
      "name": "ApprovalForAll",
      "type": "event"
    },
    {
      "anonymous": false,
      "inputs": [
        {
          "indexed": true,
          "internalType": "address",
          "name": "from",
          "type": "address"
        },
        {
          "indexed": true,
          "internalType": "address",
          "name": "to",
          "type": "address"
        },
        {
          "indexed": true,
          "internalType": "uint256",
          "name": "tokenId",
          "type": "uint256"
        }
      ],
      "name": "Transfer",
      "type": "event"
    },
    {
      "inputs": [
        {
          "internalType": "address",
          "name": "_to",
          "type": "address"
        },
        {
          "internalType": "uint256",
          "name": "_tokenId",
          "type": "uint256"
        }
      ],
      "name": "approve",
      "outputs": [],
      "stateMutability": "nonpayable",
      "type": "function"
    },
    {
      "inputs": [
        {
          "internalType": "address",
          "name": "_owner",
          "type": "address"
        }
      ],
      "name": "balanceOf",
      "outputs": [
        {
          "internalType": "uint256",
          "name": "balance",
          "type": "uint256"
        }
      ],
      "stateMutability": "view",
      "type": "function"
    },
    {
      "inputs": [
        {
          "internalType": "uint256",
          "name": "tokenId",
          "type": "uint256"
        }
      ],
      "name": "burn",
      "outputs": [],
      "stateMutability": "nonpayable",
      "type": "function"
    },
    {
      "inputs": [
        {
          "internalType": "address",
          "name": "_to",
          "type": "address"
        },
        {
          "internalType": "uint8",
          "name": "_gemType",
          "type": "uint8"
        },
        {
          "internalType": "enum Booster",
          "name": "_booster",
          "type": "uint8"
        }
      ],
      "name": "createBooster",
      "outputs": [],
      "stateMutability": "nonpayable",
      "type": "function"
    },
    {
      "inputs": [
        {
          "internalType": "uint256",
          "name": "_tokenId",
          "type": "uint256"
        }
      ],
      "name": "getApproved",
      "outputs": [
        {
          "internalType": "address",
          "name": "operator",
          "type": "address"
        }
      ],
      "stateMutability": "view",
      "type": "function"
    },
    {
      "inputs": [],
      "name": "getGemIds",
      "outputs": [
        {
          "internalType": "uint256[]",
          "name": "",
          "type": "uint256[]"
        }
      ],
      "stateMutability": "view",
      "type": "function"
    },
    {
      "inputs": [
        {
          "internalType": "uint256",
          "name": "_tokenId",
          "type": "uint256"
        }
      ],
      "name": "getGemInfo",
      "outputs": [
        {
          "components": [
            {
              "internalType": "uint8",
              "name": "gemTypeId",
              "type": "uint8"
            },
            {
              "internalType": "enum Booster",
              "name": "booster",
              "type": "uint8"
            },
            {
              "internalType": "uint32",
              "name": "mintTime",
              "type": "uint32"
            },
            {
              "internalType": "uint32",
              "name": "lastRewardWithdrawalTime",
              "type": "uint32"
            },
            {
              "internalType": "uint32",
              "name": "lastMaintenanceTime",
              "type": "uint32"
            },
            {
              "components": [
                {
                  "internalType": "uint256",
                  "name": "claimedGross",
                  "type": "uint256"
                },
                {
                  "internalType": "uint256",
                  "name": "claimedNet",
                  "type": "uint256"
                },
                {
                  "internalType": "uint256",
                  "name": "stakedGross",
                  "type": "uint256"
                },
                {
                  "internalType": "uint256",
                  "name": "stakedNet",
                  "type": "uint256"
                },
                {
                  "internalType": "uint256",
                  "name": "unStakedGross",
                  "type": "uint256"
                },
                {
                  "internalType": "uint256",
                  "name": "unStakedGrossUp",
                  "type": "uint256"
                },
                {
                  "internalType": "uint256",
                  "name": "unStakedNet",
                  "type": "uint256"
                },
                {
                  "internalType": "uint256",
                  "name": "donated",
                  "type": "uint256"
                },
                {
                  "internalType": "uint256",
                  "name": "claimTaxPaid",
                  "type": "uint256"
                },
                {
                  "internalType": "uint256",
                  "name": "vaultTaxPaid",
                  "type": "uint256"
                }
              ],
              "internalType": "struct Fi",
              "name": "fi",
              "type": "tuple"
            }
          ],
          "internalType": "struct Gem",
          "name": "",
          "type": "tuple"
        }
      ],
      "stateMutability": "view",
      "type": "function"
    },
    {
      "inputs": [],
      "name": "getGemsInfo",
      "outputs": [
        {
          "internalType": "uint256[]",
          "name": "",
          "type": "uint256[]"
        },
        {
          "components": [
            {
              "internalType": "uint8",
              "name": "gemTypeId",
              "type": "uint8"
            },
            {
              "internalType": "enum Booster",
              "name": "booster",
              "type": "uint8"
            },
            {
              "internalType": "uint32",
              "name": "mintTime",
              "type": "uint32"
            },
            {
              "internalType": "uint32",
              "name": "lastRewardWithdrawalTime",
              "type": "uint32"
            },
            {
              "internalType": "uint32",
              "name": "lastMaintenanceTime",
              "type": "uint32"
            },
            {
              "components": [
                {
                  "internalType": "uint256",
                  "name": "claimedGross",
                  "type": "uint256"
                },
                {
                  "internalType": "uint256",
                  "name": "claimedNet",
                  "type": "uint256"
                },
                {
                  "internalType": "uint256",
                  "name": "stakedGross",
                  "type": "uint256"
                },
                {
                  "internalType": "uint256",
                  "name": "stakedNet",
                  "type": "uint256"
                },
                {
                  "internalType": "uint256",
                  "name": "unStakedGross",
                  "type": "uint256"
                },
                {
                  "internalType": "uint256",
                  "name": "unStakedGrossUp",
                  "type": "uint256"
                },
                {
                  "internalType": "uint256",
                  "name": "unStakedNet",
                  "type": "uint256"
                },
                {
                  "internalType": "uint256",
                  "name": "donated",
                  "type": "uint256"
                },
                {
                  "internalType": "uint256",
                  "name": "claimTaxPaid",
                  "type": "uint256"
                },
                {
                  "internalType": "uint256",
                  "name": "vaultTaxPaid",
                  "type": "uint256"
                }
              ],
              "internalType": "struct Fi",
              "name": "fi",
              "type": "tuple"
            }
          ],
          "internalType": "struct Gem[]",
          "name": "",
          "type": "tuple[]"
        }
      ],
      "stateMutability": "view",
      "type": "function"
    },
    {
      "inputs": [
        {
          "internalType": "uint8",
          "name": "_gemTypeId",
          "type": "uint8"
        }
      ],
      "name": "getMintWindow",
      "outputs": [
        {
          "components": [
            {
              "internalType": "uint256",
              "name": "mintCount",
              "type": "uint256"
            },
            {
              "internalType": "uint32",
              "name": "endOfMintLimitWindow",
              "type": "uint32"
            }
          ],
          "internalType": "struct GemTypeMintWindow",
          "name": "",
          "type": "tuple"
        }
      ],
      "stateMutability": "view",
      "type": "function"
    },
    {
      "inputs": [
        {
          "internalType": "string",
          "name": "_name",
          "type": "string"
        },
        {
          "internalType": "string",
          "name": "_symbol",
          "type": "string"
        }
      ],
      "name": "initializeERC721Facet",
      "outputs": [],
      "stateMutability": "nonpayable",
      "type": "function"
    },
    {
      "inputs": [],
      "name": "initialized",
      "outputs": [
        {
          "internalType": "bool",
          "name": "",
          "type": "bool"
        }
      ],
      "stateMutability": "view",
      "type": "function"
    },
    {
      "inputs": [
        {
          "internalType": "address",
          "name": "owner",
          "type": "address"
        },
        {
          "internalType": "address",
          "name": "operator",
          "type": "address"
        }
      ],
      "name": "isApprovedForAll",
      "outputs": [
        {
          "internalType": "bool",
          "name": "",
          "type": "bool"
        }
      ],
      "stateMutability": "view",
      "type": "function"
    },
    {
      "inputs": [
        {
          "internalType": "uint8",
          "name": "_gemType",
          "type": "uint8"
        }
      ],
      "name": "isMintAvailable",
      "outputs": [
        {
          "internalType": "bool",
          "name": "",
          "type": "bool"
        }
      ],
      "stateMutability": "view",
      "type": "function"
    },
    {
      "inputs": [
        {
          "internalType": "uint8",
          "name": "_gemTypeId",
          "type": "uint8"
        }
      ],
      "name": "mint",
      "outputs": [],
      "stateMutability": "nonpayable",
      "type": "function"
    },
    {
      "inputs": [
        {
          "internalType": "uint8",
          "name": "_gemType",
          "type": "uint8"
        },
        {
          "internalType": "address",
          "name": "_to",
          "type": "address"
        },
        {
          "internalType": "enum Booster",
          "name": "_booster",
          "type": "uint8"
        }
      ],
      "name": "mintTo",
      "outputs": [],
      "stateMutability": "nonpayable",
      "type": "function"
    },
    {
      "inputs": [],
      "name": "name",
      "outputs": [
        {
          "internalType": "string",
          "name": "",
          "type": "string"
        }
      ],
      "stateMutability": "view",
      "type": "function"
    },
    {
      "inputs": [
        {
          "internalType": "uint256",
          "name": "_tokenId",
          "type": "uint256"
        }
      ],
      "name": "ownerOf",
      "outputs": [
        {
          "internalType": "address",
          "name": "",
          "type": "address"
        }
      ],
      "stateMutability": "view",
      "type": "function"
    },
    {
      "inputs": [
        {
          "internalType": "address",
          "name": "_from",
          "type": "address"
        },
        {
          "internalType": "address",
          "name": "_to",
          "type": "address"
        },
        {
          "internalType": "uint256",
          "name": "_tokenId",
          "type": "uint256"
        }
      ],
      "name": "safeTransferFrom",
      "outputs": [],
      "stateMutability": "nonpayable",
      "type": "function"
    },
    {
      "inputs": [
        {
          "internalType": "address",
          "name": "_from",
          "type": "address"
        },
        {
          "internalType": "address",
          "name": "_to",
          "type": "address"
        },
        {
          "internalType": "uint256",
          "name": "_tokenId",
          "type": "uint256"
        },
        {
          "internalType": "bytes",
          "name": "_data",
          "type": "bytes"
        }
      ],
      "name": "safeTransferFrom",
      "outputs": [],
      "stateMutability": "nonpayable",
      "type": "function"
    },
    {
      "inputs": [
        {
          "internalType": "address",
          "name": "operator",
          "type": "address"
        },
        {
          "internalType": "bool",
          "name": "_approved",
          "type": "bool"
        }
      ],
      "name": "setApprovalForAll",
      "outputs": [],
      "stateMutability": "nonpayable",
      "type": "function"
    },
    {
      "inputs": [],
      "name": "symbol",
      "outputs": [
        {
          "internalType": "string",
          "name": "",
          "type": "string"
        }
      ],
      "stateMutability": "view",
      "type": "function"
    },
    {
      "inputs": [
        {
          "internalType": "uint256",
          "name": "index",
          "type": "uint256"
        }
      ],
      "name": "tokenByIndex",
      "outputs": [
        {
          "internalType": "uint256",
          "name": "",
          "type": "uint256"
        }
      ],
      "stateMutability": "view",
      "type": "function"
    },
    {
      "inputs": [
        {
          "internalType": "address",
          "name": "owner",
          "type": "address"
        },
        {
          "internalType": "uint256",
          "name": "index",
          "type": "uint256"
        }
      ],
      "name": "tokenOfOwnerByIndex",
      "outputs": [
        {
          "internalType": "uint256",
          "name": "",
          "type": "uint256"
        }
      ],
      "stateMutability": "view",
      "type": "function"
    },
    {
      "inputs": [
        {
          "internalType": "uint256",
          "name": "_tokenId",
          "type": "uint256"
        }
      ],
      "name": "tokenURI",
      "outputs": [
        {
          "internalType": "string",
          "name": "",
          "type": "string"
        }
      ],
      "stateMutability": "view",
      "type": "function"
    },
    {
      "inputs": [],
      "name": "totalSupply",
      "outputs": [
        {
          "internalType": "uint256",
          "name": "",
          "type": "uint256"
        }
      ],
      "stateMutability": "view",
      "type": "function"
    },
    {
      "inputs": [
        {
          "internalType": "address",
          "name": "_from",
          "type": "address"
        },
        {
          "internalType": "address",
          "name": "_to",
          "type": "address"
        },
        {
          "internalType": "uint256",
          "name": "_tokenId",
          "type": "uint256"
        }
      ],
      "name": "transferFrom",
      "outputs": [],
      "stateMutability": "nonpayable",
      "type": "function"
    }
  ],
  "transactionHash": "0xa922ca622140f44724b8c99ae7530f67b5bc3dd1640ab967537803477c6837cf",
  "args": [],
  "numDeployments": 5,
  "solcInputHash": "c5ed52282ce934572189fe20bcaa6e04",
  "bytecode": "0x608060405234801561001057600080fd5b50615c9180620000216000396000f3fe608060405234801561001057600080fd5b506004361061018e5760003560e01c80636ecd2306116100de578063c7b8433a11610097578063ce4d260211610071578063ce4d2602146104a5578063e985e9c5146104c1578063ed97c34f146104f1578063fe47041c146105215761018e565b8063c7b8433a1461043b578063c87b56dd14610457578063ccbb0d76146104875761018e565b80636ecd230614610369578063703b93431461038557806370a08231146103b557806395d89b41146103e5578063a22cb46514610403578063b88d4fde1461041f5761018e565b8063287db3401161014b57806342842e0e1161012557806342842e0e146102d157806342966c68146102ed5780634f6ccce7146103095780636352211e146103395761018e565b8063287db340146102555780632f745c59146102855780633491c42d146102b55761018e565b806306fdde0314610193578063081812fc146101b1578063095ea7b3146101e1578063158ef93e146101fd57806318160ddd1461021b57806323b872dd14610239575b600080fd5b61019b610540565b6040516101a89190613cfc565b60405180910390f35b6101cb60048036038101906101c69190613d68565b61062d565b6040516101d89190613dd6565b60405180910390f35b6101fb60048036038101906101f69190613e1d565b61066f565b005b610205610786565b6040516102129190613e78565b60405180910390f35b6102236107a2565b6040516102309190613ea2565b60405180910390f35b610253600480360381019061024e9190613ebd565b6107b4565b005b61026f600480360381019061026a9190613f49565b6107d4565b60405161027c9190613fd3565b60405180910390f35b61029f600480360381019061029a9190613e1d565b6107ec565b6040516102ac9190613ea2565b60405180910390f35b6102cf60048036038101906102ca9190614013565b610800565b005b6102eb60048036038101906102e69190613ebd565b61098b565b005b61030760048036038101906103029190613d68565b6109ab565b005b610323600480360381019061031e9190613d68565b610a07565b6040516103309190613ea2565b60405180910390f35b610353600480360381019061034e9190613d68565b610a81565b6040516103609190613dd6565b60405180910390f35b610383600480360381019061037e9190613f49565b610a93565b005b61039f600480360381019061039a9190613d68565b61106a565b6040516103ac9190614234565b60405180910390f35b6103cf60048036038101906103ca9190614250565b6111dd565b6040516103dc9190613ea2565b60405180910390f35b6103ed61129d565b6040516103fa9190613cfc565b60405180910390f35b61041d600480360381019061041891906142a9565b61138a565b005b6104396004803603810190610434919061441e565b611508565b005b610455600480360381019061045091906144a1565b61157c565b005b610471600480360381019061046c9190613d68565b61164d565b60405161047e9190613cfc565b60405180910390f35b61048f611794565b60405161049c91906145a3565b60405180910390f35b6104bf60048036038101906104ba9190614666565b6117b1565b005b6104db60048036038101906104d691906146de565b611985565b6040516104e89190613e78565b60405180910390f35b61050b60048036038101906105069190613f49565b611a1e565b6040516105189190613e78565b60405180910390f35b610529611a30565b60405161053792919061484a565b60405180910390f35b60606000602101600c0160009054906101000a900460ff16610597576040517f08c379a000000000000000000000000000000000000000000000000000000000815260040161058e906148cd565b60405180910390fd5b600060210160000180546105aa9061491c565b80601f01602080910402602001604051908101604052809291908181526020018280546105d69061491c565b80156106235780601f106105f857610100808354040283529160200191610623565b820191906000526020600020905b81548152906001019060200180831161060657829003601f168201915b5050505050905090565b600080602101600501600083815260200190815260200160002060009054906101000a900473ffffffffffffffffffffffffffffffffffffffff169050919050565b600061067a82611c60565b90508073ffffffffffffffffffffffffffffffffffffffff168373ffffffffffffffffffffffffffffffffffffffff16036106ea576040517f08c379a00000000000000000000000000000000000000000000000000000000081526004016106e1906149bf565b60405180910390fd5b8073ffffffffffffffffffffffffffffffffffffffff16610709611cae565b73ffffffffffffffffffffffffffffffffffffffff161480610738575061073781610732611cae565b611d65565b5b610777576040517f08c379a000000000000000000000000000000000000000000000000000000000815260040161076e90614a51565b60405180910390fd5b6107818383611dfe565b505050565b600080602101600c0160009054906101000a900460ff16905090565b600080602101600a0180549050905090565b6107cf83838360405180602001604052806000815250611508565b505050565b6107dc613b8d565b6107e582611ebd565b9050919050565b60006107f88383611ffb565b905092915050565b610808611cae565b73ffffffffffffffffffffffffffffffffffffffff166000800160020160068081111561083857610837614075565b5b6007811061084957610848614a71565b5b0160009054906101000a900473ffffffffffffffffffffffffffffffffffffffff1673ffffffffffffffffffffffffffffffffffffffff16146108c1576040517f08c379a00000000000000000000000000000000000000000000000000000000081526004016108b890614aec565b60405180910390fd5b81600060390160008573ffffffffffffffffffffffffffffffffffffffff1673ffffffffffffffffffffffffffffffffffffffff16815260200190815260200160002060006101000a81548160ff021916908360ff160217905550806000603a0160008573ffffffffffffffffffffffffffffffffffffffff1673ffffffffffffffffffffffffffffffffffffffff16815260200190815260200160002060006101000a81548160ff0219169083600281111561098157610980614075565b5b0217905550505050565b6109a683838360405180602001604052806000815250611508565b505050565b6109bc6109b6611cae565b826120a6565b6109fb576040517f08c379a00000000000000000000000000000000000000000000000000000000081526004016109f290614b7e565b60405180910390fd5b610a0481612147565b50565b600080602101600a01805490508210610a55576040517f08c379a0000000000000000000000000000000000000000000000000000000008152600401610a4c90614c10565b60405180910390fd5b6000602101600a018281548110610a6f57610a6e614a71565b5b90600052602060002001549050919050565b6000610a8c82611c60565b9050919050565b80610a9d8161226e565b610adc576040517f08c379a0000000000000000000000000000000000000000000000000000000008152600401610ad390614c7c565b60405180910390fd5b6000610ae6611cae565b905060005b6002811015610c3a576000601c018460ff1681548110610b0e57610b0d614a71565b5b90600052602060002090600602016002018160028110610b3157610b30614a71565b5b0154600080016000018260028110610b4c57610b4b614a71565b5b0160009054906101000a900473ffffffffffffffffffffffffffffffffffffffff1673ffffffffffffffffffffffffffffffffffffffff166370a08231846040518263ffffffff1660e01b8152600401610ba69190613dd6565b602060405180830381865afa158015610bc3573d6000803e3d6000fd5b505050506040513d601f19601f82011682018060405250810190610be79190614cb1565b11610c27576040517f08c379a0000000000000000000000000000000000000000000000000000000008152600401610c1e90614d2a565b60405180910390fd5b8080610c3290614d79565b915050610aeb565b5060005b6003811015610e9e5760005b6002811015610e8a576000610ccd6000601c018760ff1681548110610c7257610c71614a71565b5b90600052602060002090600602016002018360028110610c9557610c94614a71565b5b0154600080016009018460028110610cb057610caf614a71565b5b600302018560038110610cc657610cc5614a71565b5b0154612443565b905060008114610e7657600073ffffffffffffffffffffffffffffffffffffffff16600080016002018460078110610d0857610d07614a71565b5b0160009054906101000a900473ffffffffffffffffffffffffffffffffffffffff1673ffffffffffffffffffffffffffffffffffffffff1603610d80576040517f08c379a0000000000000000000000000000000000000000000000000000000008152600401610d7790614e33565b60405180910390fd5b600080016000018260028110610d9957610d98614a71565b5b0160009054906101000a900473ffffffffffffffffffffffffffffffffffffffff1673ffffffffffffffffffffffffffffffffffffffff166323b872dd85600080016002018660078110610df057610def614a71565b5b0160009054906101000a900473ffffffffffffffffffffffffffffffffffffffff16846040518463ffffffff1660e01b8152600401610e3193929190614e53565b6020604051808303816000875af1158015610e50573d6000803e3d6000fd5b505050506040513d601f19601f82011682018060405250810190610e749190614e9f565b505b508080610e8290614d79565b915050610c4a565b508080610e9690614d79565b915050610c3e565b506000600390506000600290506000806000016002018260078110610ec657610ec5614a71565b5b0160009054906101000a900473ffffffffffffffffffffffffffffffffffffffff1673ffffffffffffffffffffffffffffffffffffffff16636a627842600080016002018560078110610f1c57610f1b614a71565b5b0160009054906101000a900473ffffffffffffffffffffffffffffffffffffffff166040518263ffffffff1660e01b8152600401610f5a9190613dd6565b6020604051808303816000875af1158015610f79573d6000803e3d6000fd5b505050506040513d601f19601f82011682018060405250810190610f9d9190614cb1565b905060008060390160008673ffffffffffffffffffffffffffffffffffffffff1673ffffffffffffffffffffffffffffffffffffffff16815260200190815260200160002060009054906101000a900460ff1660ff168760ff1614611003576000611054565b6000603a0160008673ffffffffffffffffffffffffffffffffffffffff1673ffffffffffffffffffffffffffffffffffffffff16815260200190815260200160002060009054906101000a900460ff165b905061106187868361247f565b50505050505050565b611072613bad565b600060200160008381526020019081526020016000206040518060c00160405290816000820160009054906101000a900460ff1660ff1660ff1681526020016000820160019054906101000a900460ff1660028111156110d5576110d4614075565b5b60028111156110e7576110e6614075565b5b81526020016000820160029054906101000a900463ffffffff1663ffffffff1663ffffffff1681526020016000820160069054906101000a900463ffffffff1663ffffffff1663ffffffff16815260200160008201600a9054906101000a900463ffffffff1663ffffffff1663ffffffff1681526020016001820160405180610140016040529081600082015481526020016001820154815260200160028201548152602001600382015481526020016004820154815260200160058201548152602001600682015481526020016007820154815260200160088201548152602001600982015481525050815250509050919050565b600081600073ffffffffffffffffffffffffffffffffffffffff168173ffffffffffffffffffffffffffffffffffffffff160361124f576040517f08c379a000000000000000000000000000000000000000000000000000000000815260040161124690614f3e565b60405180910390fd5b600060210160040160008473ffffffffffffffffffffffffffffffffffffffff1673ffffffffffffffffffffffffffffffffffffffff16815260200190815260200160002054915050919050565b60606000602101600c0160009054906101000a900460ff166112f4576040517f08c379a00000000000000000000000000000000000000000000000000000000081526004016112eb906148cd565b60405180910390fd5b600060210160010180546113079061491c565b80601f01602080910402602001604051908101604052809291908181526020018280546113339061491c565b80156113805780601f1061135557610100808354040283529160200191611380565b820191906000526020600020905b81548152906001019060200180831161136357829003601f168201915b5050505050905090565b6000611394611cae565b90508273ffffffffffffffffffffffffffffffffffffffff168173ffffffffffffffffffffffffffffffffffffffff1603611404576040517f08c379a00000000000000000000000000000000000000000000000000000000081526004016113fb90614faa565b60405180910390fd5b81600060210160060160008373ffffffffffffffffffffffffffffffffffffffff1673ffffffffffffffffffffffffffffffffffffffff16815260200190815260200160002060008573ffffffffffffffffffffffffffffffffffffffff1673ffffffffffffffffffffffffffffffffffffffff16815260200190815260200160002060006101000a81548160ff0219169083151502179055508273ffffffffffffffffffffffffffffffffffffffff168173ffffffffffffffffffffffffffffffffffffffff167f17307eab39ab6107e8899845ad3d59bd9653f200f220920489ca2b5937696c31846040516114fb9190613e78565b60405180910390a3505050565b6000611512611cae565b905061151e81846120a6565b61155d576040517f08c379a00000000000000000000000000000000000000000000000000000000081526004016115549061503c565b60405180910390fd5b61156a818686868661267f565b61157585858561279f565b5050505050565b611584611cae565b73ffffffffffffffffffffffffffffffffffffffff16600080016002016006808111156115b4576115b3614075565b5b600781106115c5576115c4614a71565b5b0160009054906101000a900473ffffffffffffffffffffffffffffffffffffffff1673ffffffffffffffffffffffffffffffffffffffff161461163d576040517f08c379a000000000000000000000000000000000000000000000000000000000815260040161163490614aec565b60405180910390fd5b61164883838361247f565b505050565b60606000602101600c0160009054906101000a900460ff166116a4576040517f08c379a000000000000000000000000000000000000000000000000000000000815260040161169b906148cd565b60405180910390fd5b816116ae81612a14565b60008060210160070180546116c29061491c565b80601f01602080910402602001604051908101604052809291908181526020018280546116ee9061491c565b801561173b5780601f106117105761010080835404028352916020019161173b565b820191906000526020600020905b81548152906001019060200180831161171e57829003601f168201915b505050505090506000815111611760576040518060200160405280600081525061178b565b8061176a85612a5f565b60405160200161177b929190615098565b6040516020818303038152906040525b92505050919050565b606060006117a0611cae565b90506117ab81612bbf565b91505090565b6117b9612d43565b6000602101600c0160009054906101000a900460ff161561180f576040517f08c379a000000000000000000000000000000000000000000000000000000000815260040161180690615108565b60405180910390fd5b816000602101600001908161182491906152d4565b50806000602101600101908161183a91906152d4565b506000611845612dde565b905060018160030160007f80ac58cd000000000000000000000000000000000000000000000000000000007bffffffffffffffffffffffffffffffffffffffffffffffffffffffff19167bffffffffffffffffffffffffffffffffffffffffffffffffffffffff1916815260200190815260200160002060006101000a81548160ff02191690831515021790555060018160030160007f5b5e139f000000000000000000000000000000000000000000000000000000007bffffffffffffffffffffffffffffffffffffffffffffffffffffffff19167bffffffffffffffffffffffffffffffffffffffffffffffffffffffff1916815260200190815260200160002060006101000a81548160ff02191690831515021790555060016000602101600c0160006101000a81548160ff021916908315150217905550505050565b60008060210160060160008473ffffffffffffffffffffffffffffffffffffffff1673ffffffffffffffffffffffffffffffffffffffff16815260200190815260200160002060008373ffffffffffffffffffffffffffffffffffffffff1673ffffffffffffffffffffffffffffffffffffffff16815260200190815260200160002060009054906101000a900460ff16905092915050565b6000611a298261226e565b9050919050565b6060806000611a3d611794565b90506000815167ffffffffffffffff811115611a5c57611a5b6142f3565b5b604051908082528060200260200182016040528015611a9557816020015b611a82613bad565b815260200190600190039081611a7a5790505b50905060005b8251811015611c535760006020016000848381518110611abe57611abd614a71565b5b602002602001015181526020019081526020016000206040518060c00160405290816000820160009054906101000a900460ff1660ff1660ff1681526020016000820160019054906101000a900460ff166002811115611b2157611b20614075565b5b6002811115611b3357611b32614075565b5b81526020016000820160029054906101000a900463ffffffff1663ffffffff1663ffffffff1681526020016000820160069054906101000a900463ffffffff1663ffffffff1663ffffffff16815260200160008201600a9054906101000a900463ffffffff1663ffffffff1663ffffffff168152602001600182016040518061014001604052908160008201548152602001600182015481526020016002820154815260200160038201548152602001600482015481526020016005820154815260200160068201548152602001600782015481526020016008820154815260200160098201548152505081525050828281518110611c3557611c34614a71565b5b60200260200101819052508080611c4b90614d79565b915050611a9b565b5081819350935050509091565b600081611c6c81612a14565b6000602101600301600084815260200190815260200160002060009054906101000a900473ffffffffffffffffffffffffffffffffffffffff16915050919050565b60003073ffffffffffffffffffffffffffffffffffffffff16611ccf612e0b565b73ffffffffffffffffffffffffffffffffffffffff1603611d5e57600080368080601f016020809104026020016040519081016040528093929190818152602001838380828437600081840152601f19601f820116905080830192505050505050509050600080369050905073ffffffffffffffffffffffffffffffffffffffff818301511692505050611d62565b3390505b90565b60008060210160060160008473ffffffffffffffffffffffffffffffffffffffff1673ffffffffffffffffffffffffffffffffffffffff16815260200190815260200160002060008373ffffffffffffffffffffffffffffffffffffffff1673ffffffffffffffffffffffffffffffffffffffff16815260200190815260200160002060009054906101000a900460ff16905092915050565b816000602101600501600083815260200190815260200160002060006101000a81548173ffffffffffffffffffffffffffffffffffffffff021916908373ffffffffffffffffffffffffffffffffffffffff160217905550808273ffffffffffffffffffffffffffffffffffffffff16611e7783611c60565b73ffffffffffffffffffffffffffffffffffffffff167f8c5be1e5ebec7d5bd14f71427d1e84f3dd0314c0f7b2291e5b200ac8c7c3b92560405160405180910390a45050565b611ec5613b8d565b6000611ecf612e13565b905080601c01805490508360ff1610611f1d576040517f08c379a0000000000000000000000000000000000000000000000000000000008152600401611f14906153f2565b60405180910390fd5b600081601d018460ff1681548110611f3857611f37614a71565b5b9060005260206000209060020201604051806040016040529081600082015481526020016001820160009054906101000a900463ffffffff1663ffffffff1663ffffffff16815250509050806020015163ffffffff16421115611ff1575b8160000160180160029054906101000a900463ffffffff1681602001818151611fbf9190615412565b91509063ffffffff16908163ffffffff1681525050806020015163ffffffff164211611f965760008160000181815250505b8092505050919050565b600061200683612e18565b8210612047576040517f08c379a000000000000000000000000000000000000000000000000000000000815260040161203e906154be565b60405180910390fd5b600060210160080160008473ffffffffffffffffffffffffffffffffffffffff1673ffffffffffffffffffffffffffffffffffffffff168152602001908152602001600020600083815260200190815260200160002054905092915050565b6000816120b281612a14565b60006120bd84611c60565b90508073ffffffffffffffffffffffffffffffffffffffff168573ffffffffffffffffffffffffffffffffffffffff1614806120ff57506120fe8186611d65565b5b8061213d57508473ffffffffffffffffffffffffffffffffffffffff1661212585612ed8565b73ffffffffffffffffffffffffffffffffffffffff16145b9250505092915050565b600061215282611c60565b905061216081600084612f26565b61216b600083611dfe565b600060210160040160008273ffffffffffffffffffffffffffffffffffffffff1673ffffffffffffffffffffffffffffffffffffffff16815260200190815260200160002060008154809291906121c1906154de565b91905055506000602101600301600083815260200190815260200160002060006101000a81549073ffffffffffffffffffffffffffffffffffffffff021916905581600073ffffffffffffffffffffffffffffffffffffffff168273ffffffffffffffffffffffffffffffffffffffff167fddf252ad1be2c89b69c2b068fc378daa952ba7f163c4a11628f55a4df523b3ef60405160405180910390a461226a816000846131d3565b5050565b600080612279612e13565b905080601c01805490508360ff16106122c7576040517f08c379a00000000000000000000000000000000000000000000000000000000081526004016122be906153f2565b60405180910390fd5b600081601c018460ff16815481106122e2576122e1614a71565b5b90600052602060002090600602016040518060a001604052908160008201548152602001600182015481526020016002820160028060200260405190810160405280929190826002801561234b576020028201915b815481526020019060010190808311612337575b50505050508152602001600482015481526020016005820160009054906101000a900460ff1660ff1660ff16815250509050600082601d018560ff168154811061239857612397614a71565b5b9060005260206000209060020201604051806040016040529081600082015481526020016001820160009054906101000a900463ffffffff1663ffffffff1663ffffffff168152505090508260000160180160009054906101000a900460ff161580156124395750816080015160ff1681600001511080156124245750806020015163ffffffff164211155b806124385750806020015163ffffffff1642115b5b9350505050919050565b6000808211612453576000612477565b6064806124609190615507565b828461246c9190615507565b6124769190615590565b5b905092915050565b600061248a836132ff565b90506124958461333a565b61249d613bad565b84816000019060ff16908160ff168152505042816080019063ffffffff16908163ffffffff168152505042816060019063ffffffff16908163ffffffff168152505042816040019063ffffffff16908163ffffffff1681525050828160200190600281111561250f5761250e614075565b5b9081600281111561252357612522614075565b5b81525050806000602001600084815260200190815260200160002060008201518160000160006101000a81548160ff021916908360ff16021790555060208201518160000160016101000a81548160ff0219169083600281111561258a57612589614075565b5b021790555060408201518160000160026101000a81548163ffffffff021916908363ffffffff16021790555060608201518160000160066101000a81548163ffffffff021916908363ffffffff160217905550608082015181600001600a6101000a81548163ffffffff021916908363ffffffff16021790555060a082015181600101600082015181600001556020820151816001015560408201518160020155606082015181600301556080820151816004015560a0820151816005015560c0820151816006015560e082015181600701556101008201518160080155610120820151816009015550509050505050505050565b6000833b90506000811115612797578373ffffffffffffffffffffffffffffffffffffffff1663150b7a02878786866040518563ffffffff1660e01b81526004016126cd9493929190615616565b6020604051808303816000875af11580156126ec573d6000803e3d6000fd5b505050506040513d601f19601f8201168201806040525081019061271091906156ba565b7bffffffffffffffffffffffffffffffffffffffffffffffffffffffff191663150b7a0260e01b7bffffffffffffffffffffffffffffffffffffffffffffffffffffffff191614612796576040517f08c379a000000000000000000000000000000000000000000000000000000000815260040161278d90615759565b60405180910390fd5b5b505050505050565b8273ffffffffffffffffffffffffffffffffffffffff166127bf82611c60565b73ffffffffffffffffffffffffffffffffffffffff1614612815576040517f08c379a000000000000000000000000000000000000000000000000000000000815260040161280c906157eb565b60405180910390fd5b600073ffffffffffffffffffffffffffffffffffffffff168273ffffffffffffffffffffffffffffffffffffffff1603612884576040517f08c379a000000000000000000000000000000000000000000000000000000000815260040161287b9061587d565b60405180910390fd5b61288f838383612f26565b61289a600082611dfe565b600060210160040160008473ffffffffffffffffffffffffffffffffffffffff1673ffffffffffffffffffffffffffffffffffffffff16815260200190815260200160002060008154809291906128f0906154de565b9190505550600060210160040160008373ffffffffffffffffffffffffffffffffffffffff1673ffffffffffffffffffffffffffffffffffffffff168152602001908152602001600020600081548092919061294b90614d79565b9190505550816000602101600301600083815260200190815260200160002060006101000a81548173ffffffffffffffffffffffffffffffffffffffff021916908373ffffffffffffffffffffffffffffffffffffffff160217905550808273ffffffffffffffffffffffffffffffffffffffff168473ffffffffffffffffffffffffffffffffffffffff167fddf252ad1be2c89b69c2b068fc378daa952ba7f163c4a11628f55a4df523b3ef60405160405180910390a4612a0f600083836131d3565b505050565b612a1d81613437565b612a5c576040517f08c379a0000000000000000000000000000000000000000000000000000000008152600401612a53906158e9565b60405180910390fd5b50565b606060008203612aa6576040518060400160405280600181526020017f30000000000000000000000000000000000000000000000000000000000000008152509050612bba565b600082905060005b60008214612ad8578080612ac190614d79565b915050600a82612ad19190615590565b9150612aae565b60008167ffffffffffffffff811115612af457612af36142f3565b5b6040519080825280601f01601f191660200182016040528015612b265781602001600182028036833780820191505090505b5090505b60008514612bb357600182612b3f9190615909565b9150600a85612b4e919061593d565b6030612b5a919061596e565b60f81b818381518110612b7057612b6f614a71565b5b60200101907effffffffffffffffffffffffffffffffffffffffffffffffffffffffffffff1916908160001a905350600a85612bac9190615590565b9450612b2a565b8093505050505b919050565b606060008060210160040160008473ffffffffffffffffffffffffffffffffffffffff1673ffffffffffffffffffffffffffffffffffffffff16815260200190815260200160002054905060008167ffffffffffffffff811115612c2657612c256142f3565b5b604051908082528060200260200182016040528015612c545781602001602082028036833780820191505090505b50905060005b82811015612d385760008060210160080160008773ffffffffffffffffffffffffffffffffffffffff1673ffffffffffffffffffffffffffffffffffffffff1681526020019081526020016000206000838152602001908152602001600020549050612cc581613437565b612d04576040517f08c379a0000000000000000000000000000000000000000000000000000000008152600401612cfb90615a10565b60405180910390fd5b80838381518110612d1857612d17614a71565b5b602002602001018181525050508080612d3090614d79565b915050612c5a565b508092505050919050565b612d4b612dde565b60040160009054906101000a900473ffffffffffffffffffffffffffffffffffffffff1673ffffffffffffffffffffffffffffffffffffffff163373ffffffffffffffffffffffffffffffffffffffff1614612ddc576040517f08c379a0000000000000000000000000000000000000000000000000000000008152600401612dd390615aa2565b60405180910390fd5b565b6000807fc8fcad8db84d3cc18b4c41d551ea0ee66dd599cde068d998e57d5e09332c131c90508091505090565b600033905090565b600090565b600081600073ffffffffffffffffffffffffffffffffffffffff168173ffffffffffffffffffffffffffffffffffffffff1603612e8a576040517f08c379a0000000000000000000000000000000000000000000000000000000008152600401612e8190614f3e565b60405180910390fd5b600060210160040160008473ffffffffffffffffffffffffffffffffffffffff1673ffffffffffffffffffffffffffffffffffffffff16815260200190815260200160002054915050919050565b600081612ee481612a14565b6000602101600501600084815260200190815260200160002060009054906101000a900473ffffffffffffffffffffffffffffffffffffffff16915050919050565b6000800160180160019054906101000a900460ff1615612f7b576040517f08c379a0000000000000000000000000000000000000000000000000000000008152600401612f7290615b34565b60405180910390fd5b3073ffffffffffffffffffffffffffffffffffffffff16637e5c923d8484846040518463ffffffff1660e01b8152600401612fb893929190614e53565b600060405180830381600087803b158015612fd257600080fd5b505af1158015612fe6573d6000803e3d6000fd5b50505050612ff58383836134a9565b600073ffffffffffffffffffffffffffffffffffffffff168373ffffffffffffffffffffffffffffffffffffffff16146131ce57600060380160008473ffffffffffffffffffffffffffffffffffffffff1673ffffffffffffffffffffffffffffffffffffffff168152602001908152602001600020600060380160008473ffffffffffffffffffffffffffffffffffffffff1673ffffffffffffffffffffffffffffffffffffffff168152602001908152602001600020600082015481600001556001820154816001015560028201548160020155600382015481600301556004820154816004015560058201548160050155600682015481600601556007820154816007015560088201548160080155600982015481600901559050506000603a0160008473ffffffffffffffffffffffffffffffffffffffff1673ffffffffffffffffffffffffffffffffffffffff16815260200190815260200160002060009054906101000a900460ff166000603a0160008473ffffffffffffffffffffffffffffffffffffffff1673ffffffffffffffffffffffffffffffffffffffff16815260200190815260200160002060006101000a81548160ff021916908360028111156131c8576131c7614075565b5b02179055505b505050565b6131de8383836134b9565b600073ffffffffffffffffffffffffffffffffffffffff168373ffffffffffffffffffffffffffffffffffffffff16146132fa57600060380160008473ffffffffffffffffffffffffffffffffffffffff1673ffffffffffffffffffffffffffffffffffffffff16815260200190815260200160002060008082016000905560018201600090556002820160009055600382016000905560048201600090556005820160009055600682016000905560078201600090556008820160009055600982016000905550506000603a0160008473ffffffffffffffffffffffffffffffffffffffff1673ffffffffffffffffffffffffffffffffffffffff16815260200190815260200160002060006101000a81549060ff02191690555b505050565b60008061330a611cae565b9050613315836134c9565b915061333481600085856040518060200160405280600081525061267f565b50919050565b6000613344612e13565b9050600081601d018360ff168154811061336157613360614a71565b5b906000526020600020906002020190508060010160009054906101000a900463ffffffff1663ffffffff16421115613418575b8160000160180160029054906101000a900463ffffffff168160010160008282829054906101000a900463ffffffff166133ce9190615412565b92506101000a81548163ffffffff021916908363ffffffff1602179055508060010160009054906101000a900463ffffffff1663ffffffff16421161339457600081600001819055505b80600001600081548092919061342d90614d79565b9190505550505050565b60008073ffffffffffffffffffffffffffffffffffffffff166000602101600301600084815260200190815260200160002060009054906101000a900473ffffffffffffffffffffffffffffffffffffffff1673ffffffffffffffffffffffffffffffffffffffff1614159050919050565b6134b48383836134fc565b505050565b6134c483838361360e565b505050565b60006134db6000602101600201613613565b90506134e78282613621565b6134f76000602101600201613804565b919050565b61350783838361381a565b600073ffffffffffffffffffffffffffffffffffffffff168373ffffffffffffffffffffffffffffffffffffffff1603613549576135448161381f565b613588565b8173ffffffffffffffffffffffffffffffffffffffff168373ffffffffffffffffffffffffffffffffffffffff161461358757613586838261387a565b5b5b600073ffffffffffffffffffffffffffffffffffffffff168273ffffffffffffffffffffffffffffffffffffffff16036135ca576135c581613a09565b613609565b8273ffffffffffffffffffffffffffffffffffffffff168273ffffffffffffffffffffffffffffffffffffffff1614613608576136078282613b02565b5b5b505050565b505050565b600081600001549050919050565b600073ffffffffffffffffffffffffffffffffffffffff168273ffffffffffffffffffffffffffffffffffffffff1603613690576040517f08c379a000000000000000000000000000000000000000000000000000000000815260040161368790615ba0565b60405180910390fd5b61369981613437565b156136d9576040517f08c379a00000000000000000000000000000000000000000000000000000000081526004016136d090615c0c565b60405180910390fd5b6136e560008383612f26565b600060210160040160008373ffffffffffffffffffffffffffffffffffffffff1673ffffffffffffffffffffffffffffffffffffffff168152602001908152602001600020600081548092919061373b90614d79565b9190505550816000602101600301600083815260200190815260200160002060006101000a81548173ffffffffffffffffffffffffffffffffffffffff021916908373ffffffffffffffffffffffffffffffffffffffff160217905550808273ffffffffffffffffffffffffffffffffffffffff16600073ffffffffffffffffffffffffffffffffffffffff167fddf252ad1be2c89b69c2b068fc378daa952ba7f163c4a11628f55a4df523b3ef60405160405180910390a4613800600083836131d3565b5050565b6001816000016000828254019250508190555050565b505050565b6000602101600a01805490506000602101600b016000838152602001908152602001600020819055506000602101600a0181908060018154018082558091505060019003906000526020600020016000909190919091505550565b6000600161388784612e18565b6138919190615909565b9050600080602101600901600084815260200190815260200160002054905081811461398c5760008060210160080160008673ffffffffffffffffffffffffffffffffffffffff1673ffffffffffffffffffffffffffffffffffffffff168152602001908152602001600020600084815260200190815260200160002054905080600060210160080160008773ffffffffffffffffffffffffffffffffffffffff1673ffffffffffffffffffffffffffffffffffffffff168152602001908152602001600020600084815260200190815260200160002081905550816000602101600901600083815260200190815260200160002081905550505b6000602101600901600084815260200190815260200160002060009055600060210160080160008573ffffffffffffffffffffffffffffffffffffffff1673ffffffffffffffffffffffffffffffffffffffff16815260200190815260200160002060008381526020019081526020016000206000905550505050565b600060016000602101600a0180549050613a239190615909565b9050600080602101600b016000848152602001908152602001600020549050600080602101600a018381548110613a5d57613a5c614a71565b5b90600052602060002001549050806000602101600a018381548110613a8557613a84614a71565b5b9060005260206000200181905550816000602101600b016000838152602001908152602001600020819055506000602101600b016000858152602001908152602001600020600090556000602101600a01805480613ae657613ae5615c2c565b5b6001900381819060005260206000200160009055905550505050565b6000613b0d83612e18565b905081600060210160080160008573ffffffffffffffffffffffffffffffffffffffff1673ffffffffffffffffffffffffffffffffffffffff168152602001908152602001600020600083815260200190815260200160002081905550806000602101600901600084815260200190815260200160002081905550505050565b604051806040016040528060008152602001600063ffffffff1681525090565b6040518060c00160405280600060ff16815260200160006002811115613bd657613bd5614075565b5b8152602001600063ffffffff168152602001600063ffffffff168152602001600063ffffffff168152602001613c0a613c10565b81525090565b604051806101400160405280600081526020016000815260200160008152602001600081526020016000815260200160008152602001600081526020016000815260200160008152602001600081525090565b600081519050919050565b600082825260208201905092915050565b60005b83811015613c9d578082015181840152602081019050613c82565b83811115613cac576000848401525b50505050565b6000601f19601f8301169050919050565b6000613cce82613c63565b613cd88185613c6e565b9350613ce8818560208601613c7f565b613cf181613cb2565b840191505092915050565b60006020820190508181036000830152613d168184613cc3565b905092915050565b6000604051905090565b600080fd5b600080fd5b6000819050919050565b613d4581613d32565b8114613d5057600080fd5b50565b600081359050613d6281613d3c565b92915050565b600060208284031215613d7e57613d7d613d28565b5b6000613d8c84828501613d53565b91505092915050565b600073ffffffffffffffffffffffffffffffffffffffff82169050919050565b6000613dc082613d95565b9050919050565b613dd081613db5565b82525050565b6000602082019050613deb6000830184613dc7565b92915050565b613dfa81613db5565b8114613e0557600080fd5b50565b600081359050613e1781613df1565b92915050565b60008060408385031215613e3457613e33613d28565b5b6000613e4285828601613e08565b9250506020613e5385828601613d53565b9150509250929050565b60008115159050919050565b613e7281613e5d565b82525050565b6000602082019050613e8d6000830184613e69565b92915050565b613e9c81613d32565b82525050565b6000602082019050613eb76000830184613e93565b92915050565b600080600060608486031215613ed657613ed5613d28565b5b6000613ee486828701613e08565b9350506020613ef586828701613e08565b9250506040613f0686828701613d53565b9150509250925092565b600060ff82169050919050565b613f2681613f10565b8114613f3157600080fd5b50565b600081359050613f4381613f1d565b92915050565b600060208284031215613f5f57613f5e613d28565b5b6000613f6d84828501613f34565b91505092915050565b613f7f81613d32565b82525050565b600063ffffffff82169050919050565b613f9e81613f85565b82525050565b604082016000820151613fba6000850182613f76565b506020820151613fcd6020850182613f95565b50505050565b6000604082019050613fe86000830184613fa4565b92915050565b60038110613ffb57600080fd5b50565b60008135905061400d81613fee565b92915050565b60008060006060848603121561402c5761402b613d28565b5b600061403a86828701613e08565b935050602061404b86828701613f34565b925050604061405c86828701613ffe565b9150509250925092565b61406f81613f10565b82525050565b7f4e487b7100000000000000000000000000000000000000000000000000000000600052602160045260246000fd5b600381106140b5576140b4614075565b5b50565b60008190506140c6826140a4565b919050565b60006140d6826140b8565b9050919050565b6140e6816140cb565b82525050565b610140820160008201516141036000850182613f76565b5060208201516141166020850182613f76565b5060408201516141296040850182613f76565b50606082015161413c6060850182613f76565b50608082015161414f6080850182613f76565b5060a082015161416260a0850182613f76565b5060c082015161417560c0850182613f76565b5060e082015161418860e0850182613f76565b5061010082015161419d610100850182613f76565b506101208201516141b2610120850182613f76565b50505050565b6101e0820160008201516141cf6000850182614066565b5060208201516141e260208501826140dd565b5060408201516141f56040850182613f95565b5060608201516142086060850182613f95565b50608082015161421b6080850182613f95565b5060a082015161422e60a08501826140ec565b50505050565b60006101e08201905061424a60008301846141b8565b92915050565b60006020828403121561426657614265613d28565b5b600061427484828501613e08565b91505092915050565b61428681613e5d565b811461429157600080fd5b50565b6000813590506142a38161427d565b92915050565b600080604083850312156142c0576142bf613d28565b5b60006142ce85828601613e08565b92505060206142df85828601614294565b9150509250929050565b600080fd5b600080fd5b7f4e487b7100000000000000000000000000000000000000000000000000000000600052604160045260246000fd5b61432b82613cb2565b810181811067ffffffffffffffff8211171561434a576143496142f3565b5b80604052505050565b600061435d613d1e565b90506143698282614322565b919050565b600067ffffffffffffffff821115614389576143886142f3565b5b61439282613cb2565b9050602081019050919050565b82818337600083830152505050565b60006143c16143bc8461436e565b614353565b9050828152602081018484840111156143dd576143dc6142ee565b5b6143e884828561439f565b509392505050565b600082601f830112614405576144046142e9565b5b81356144158482602086016143ae565b91505092915050565b6000806000806080858703121561443857614437613d28565b5b600061444687828801613e08565b945050602061445787828801613e08565b935050604061446887828801613d53565b925050606085013567ffffffffffffffff81111561448957614488613d2d565b5b614495878288016143f0565b91505092959194509250565b6000806000606084860312156144ba576144b9613d28565b5b60006144c886828701613f34565b93505060206144d986828701613e08565b92505060406144ea86828701613ffe565b9150509250925092565b600081519050919050565b600082825260208201905092915050565b6000819050602082019050919050565b600061452c8383613f76565b60208301905092915050565b6000602082019050919050565b6000614550826144f4565b61455a81856144ff565b935061456583614510565b8060005b8381101561459657815161457d8882614520565b975061458883614538565b925050600181019050614569565b5085935050505092915050565b600060208201905081810360008301526145bd8184614545565b905092915050565b600067ffffffffffffffff8211156145e0576145df6142f3565b5b6145e982613cb2565b9050602081019050919050565b6000614609614604846145c5565b614353565b905082815260208101848484011115614625576146246142ee565b5b61463084828561439f565b509392505050565b600082601f83011261464d5761464c6142e9565b5b813561465d8482602086016145f6565b91505092915050565b6000806040838503121561467d5761467c613d28565b5b600083013567ffffffffffffffff81111561469b5761469a613d2d565b5b6146a785828601614638565b925050602083013567ffffffffffffffff8111156146c8576146c7613d2d565b5b6146d485828601614638565b9150509250929050565b600080604083850312156146f5576146f4613d28565b5b600061470385828601613e08565b925050602061471485828601613e08565b9150509250929050565b600081519050919050565b600082825260208201905092915050565b6000819050602082019050919050565b6101e0820160008201516147616000850182614066565b50602082015161477460208501826140dd565b5060408201516147876040850182613f95565b50606082015161479a6060850182613f95565b5060808201516147ad6080850182613f95565b5060a08201516147c060a08501826140ec565b50505050565b60006147d2838361474a565b6101e08301905092915050565b6000602082019050919050565b60006147f78261471e565b6148018185614729565b935061480c8361473a565b8060005b8381101561483d57815161482488826147c6565b975061482f836147df565b925050600181019050614810565b5085935050505092915050565b600060408201905081810360008301526148648185614545565b9050818103602083015261487881846147ec565b90509392505050565b7f4552433732313a206e6f7420696e697469616c697a6564000000000000000000600082015250565b60006148b7601783613c6e565b91506148c282614881565b602082019050919050565b600060208201905081810360008301526148e6816148aa565b9050919050565b7f4e487b7100000000000000000000000000000000000000000000000000000000600052602260045260246000fd5b6000600282049050600182168061493457607f821691505b602082108103614947576149466148ed565b5b50919050565b7f4552433732313a20617070726f76616c20746f2063757272656e74206f776e6560008201527f7200000000000000000000000000000000000000000000000000000000000000602082015250565b60006149a9602183613c6e565b91506149b48261494d565b604082019050919050565b600060208201905081810360008301526149d88161499c565b9050919050565b7f4552433732313a20617070726f76652063616c6c6572206973206e6f74206f7760008201527f6e6572206e6f7220617070726f76656420666f7220616c6c0000000000000000602082015250565b6000614a3b603883613c6e565b9150614a46826149df565b604082019050919050565b60006020820190508181036000830152614a6a81614a2e565b9050919050565b7f4e487b7100000000000000000000000000000000000000000000000000000000600052603260045260246000fd5b7f556e617574686f72697a65640000000000000000000000000000000000000000600082015250565b6000614ad6600c83613c6e565b9150614ae182614aa0565b602082019050919050565b60006020820190508181036000830152614b0581614ac9565b9050919050565b7f4552433732313a2063616c6c6572206973206e6f7420746f6b656e206f776e6560008201527f72206e6f7220617070726f766564000000000000000000000000000000000000602082015250565b6000614b68602e83613c6e565b9150614b7382614b0c565b604082019050919050565b60006020820190508181036000830152614b9781614b5b565b9050919050565b7f455243373231456e756d657261626c653a20676c6f62616c20696e646578206f60008201527f7574206f6620626f756e64730000000000000000000000000000000000000000602082015250565b6000614bfa602c83613c6e565b9150614c0582614b9e565b604082019050919050565b60006020820190508181036000830152614c2981614bed565b9050919050565b7f47656d206d696e74207265737472696374696f6e000000000000000000000000600082015250565b6000614c66601483613c6e565b9150614c7182614c30565b602082019050919050565b60006020820190508181036000830152614c9581614c59565b9050919050565b600081519050614cab81613d3c565b92915050565b600060208284031215614cc757614cc6613d28565b5b6000614cd584828501614c9c565b91505092915050565b7f496e73756666696369656e742062616c616e6365000000000000000000000000600082015250565b6000614d14601483613c6e565b9150614d1f82614cde565b602082019050919050565b60006020820190508181036000830152614d4381614d07565b9050919050565b7f4e487b7100000000000000000000000000000000000000000000000000000000600052601160045260246000fd5b6000614d8482613d32565b91507fffffffffffffffffffffffffffffffffffffffffffffffffffffffffffffffff8203614db657614db5614d4a565b5b600182019050919050565b7f5969656c6447656d3a20636f6e66696775726174696f6e206572726f722c207a60008201527f65726f2061646472657373000000000000000000000000000000000000000000602082015250565b6000614e1d602b83613c6e565b9150614e2882614dc1565b604082019050919050565b60006020820190508181036000830152614e4c81614e10565b9050919050565b6000606082019050614e686000830186613dc7565b614e756020830185613dc7565b614e826040830184613e93565b949350505050565b600081519050614e998161427d565b92915050565b600060208284031215614eb557614eb4613d28565b5b6000614ec384828501614e8a565b91505092915050565b7f4552433732313a2061646472657373207a65726f206973206e6f74206120766160008201527f6c6964206f776e65720000000000000000000000000000000000000000000000602082015250565b6000614f28602983613c6e565b9150614f3382614ecc565b604082019050919050565b60006020820190508181036000830152614f5781614f1b565b9050919050565b7f4552433732313a20617070726f766520746f2063616c6c657200000000000000600082015250565b6000614f94601983613c6e565b9150614f9f82614f5e565b602082019050919050565b60006020820190508181036000830152614fc381614f87565b9050919050565b7f4552433732313a207472616e736665722063616c6c6572206973206e6f74206f60008201527f776e6572206e6f7220617070726f766564000000000000000000000000000000602082015250565b6000615026603183613c6e565b915061503182614fca565b604082019050919050565b6000602082019050818103600083015261505581615019565b9050919050565b600081905092915050565b600061507282613c63565b61507c818561505c565b935061508c818560208601613c7f565b80840191505092915050565b60006150a48285615067565b91506150b08284615067565b91508190509392505050565b7f4552433732313a20616c726561647920696e697469616c697a65640000000000600082015250565b60006150f2601b83613c6e565b91506150fd826150bc565b602082019050919050565b60006020820190508181036000830152615121816150e5565b9050919050565b60008190508160005260206000209050919050565b60006020601f8301049050919050565b600082821b905092915050565b60006008830261518a7fffffffffffffffffffffffffffffffffffffffffffffffffffffffffffffffff8261514d565b615194868361514d565b95508019841693508086168417925050509392505050565b6000819050919050565b60006151d16151cc6151c784613d32565b6151ac565b613d32565b9050919050565b6000819050919050565b6151eb836151b6565b6151ff6151f7826151d8565b84845461515a565b825550505050565b600090565b615214615207565b61521f8184846151e2565b505050565b5b818110156152435761523860008261520c565b600181019050615225565b5050565b601f8211156152885761525981615128565b6152628461513d565b81016020851015615271578190505b61528561527d8561513d565b830182615224565b50505b505050565b600082821c905092915050565b60006152ab6000198460080261528d565b1980831691505092915050565b60006152c4838361529a565b9150826002028217905092915050565b6152dd82613c63565b67ffffffffffffffff8111156152f6576152f56142f3565b5b615300825461491c565b61530b828285615247565b600060209050601f83116001811461533e576000841561532c578287015190505b61533685826152b8565b86555061539e565b601f19841661534c86615128565b60005b828110156153745784890151825560018201915060208501945060208101905061534f565b86831015615391578489015161538d601f89168261529a565b8355505b6001600288020188555050505b505050505050565b7f57726f6e672067656d2074797065000000000000000000000000000000000000600082015250565b60006153dc600e83613c6e565b91506153e7826153a6565b602082019050919050565b6000602082019050818103600083015261540b816153cf565b9050919050565b600061541d82613f85565b915061542883613f85565b92508263ffffffff0382111561544157615440614d4a565b5b828201905092915050565b7f455243373231456e756d657261626c653a206f776e657220696e646578206f7560008201527f74206f6620626f756e6473000000000000000000000000000000000000000000602082015250565b60006154a8602b83613c6e565b91506154b38261544c565b604082019050919050565b600060208201905081810360008301526154d78161549b565b9050919050565b60006154e982613d32565b9150600082036154fc576154fb614d4a565b5b600182039050919050565b600061551282613d32565b915061551d83613d32565b9250817fffffffffffffffffffffffffffffffffffffffffffffffffffffffffffffffff048311821515161561555657615555614d4a565b5b828202905092915050565b7f4e487b7100000000000000000000000000000000000000000000000000000000600052601260045260246000fd5b600061559b82613d32565b91506155a683613d32565b9250826155b6576155b5615561565b5b828204905092915050565b600081519050919050565b600082825260208201905092915050565b60006155e8826155c1565b6155f281856155cc565b9350615602818560208601613c7f565b61560b81613cb2565b840191505092915050565b600060808201905061562b6000830187613dc7565b6156386020830186613dc7565b6156456040830185613e93565b818103606083015261565781846155dd565b905095945050505050565b60007fffffffff0000000000000000000000000000000000000000000000000000000082169050919050565b61569781615662565b81146156a257600080fd5b50565b6000815190506156b48161568e565b92915050565b6000602082840312156156d0576156cf613d28565b5b60006156de848285016156a5565b91505092915050565b7f4465666f45524337323146616365743a205472616e736665722072656a65637460008201527f65642f6661696c6564206279205f746f00000000000000000000000000000000602082015250565b6000615743603083613c6e565b915061574e826156e7565b604082019050919050565b6000602082019050818103600083015261577281615736565b9050919050565b7f4552433732313a207472616e736665722066726f6d20696e636f72726563742060008201527f6f776e6572000000000000000000000000000000000000000000000000000000602082015250565b60006157d5602583613c6e565b91506157e082615779565b604082019050919050565b60006020820190508181036000830152615804816157c8565b9050919050565b7f4552433732313a207472616e7366657220746f20746865207a65726f2061646460008201527f7265737300000000000000000000000000000000000000000000000000000000602082015250565b6000615867602483613c6e565b91506158728261580b565b604082019050919050565b600060208201905081810360008301526158968161585a565b9050919050565b7f4552433732313a20746f6b656e4964206973206e6f742076616c696400000000600082015250565b60006158d3601c83613c6e565b91506158de8261589d565b602082019050919050565b60006020820190508181036000830152615902816158c6565b9050919050565b600061591482613d32565b915061591f83613d32565b92508282101561593257615931614d4a565b5b828203905092915050565b600061594882613d32565b915061595383613d32565b92508261596357615962615561565b5b828206905092915050565b600061597982613d32565b915061598483613d32565b9250827fffffffffffffffffffffffffffffffffffffffffffffffffffffffffffffffff038211156159b9576159b8614d4a565b5b828201905092915050565b7f412067656d20646f65736e277420657869737473000000000000000000000000600082015250565b60006159fa601483613c6e565b9150615a05826159c4565b602082019050919050565b60006020820190508181036000830152615a29816159ed565b9050919050565b7f4c69624469616d6f6e643a204d75737420626520636f6e7472616374206f776e60008201527f6572000000000000000000000000000000000000000000000000000000000000602082015250565b6000615a8c602283613c6e565b9150615a9782615a30565b604082019050919050565b60006020820190508181036000830152615abb81615a7f565b9050919050565b7f5061757361626c653a207061757365642c207472616e73666572206973206c6f60008201527f636b656400000000000000000000000000000000000000000000000000000000602082015250565b6000615b1e602483613c6e565b9150615b2982615ac2565b604082019050919050565b60006020820190508181036000830152615b4d81615b11565b9050919050565b7f4552433732313a206d696e7420746f20746865207a65726f2061646472657373600082015250565b6000615b8a602083613c6e565b9150615b9582615b54565b602082019050919050565b60006020820190508181036000830152615bb981615b7d565b9050919050565b7f4552433732313a20746f6b656e20616c7265616479206d696e74656400000000600082015250565b6000615bf6601c83613c6e565b9150615c0182615bc0565b602082019050919050565b60006020820190508181036000830152615c2581615be9565b9050919050565b7f4e487b7100000000000000000000000000000000000000000000000000000000600052603160045260246000fdfea26469706673582212200c0f07c98102999b52cfcc94223ca232d529da67245c541a3e0b5cfdf0c43a3964736f6c634300080f0033",
  "devdoc": {
    "author": "Decentralized Foundation Team",
    "kind": "dev",
    "methods": {
      "getGemIds()": {
        "returns": {
          "_0": "array with token Ids"
        }
      },
      "getGemInfo(uint256)": {
        "params": {
          "_tokenId": "gem Id"
        },
        "returns": {
          "_0": "Gem structure with all the details, excluding the gem type and protocol configuration, which is returned by IConfig facet"
        }
      },
      "getGemsInfo()": {
        "returns": {
          "_0": "array of the Ids and array of the Gem structurs"
        }
      },
      "getMintWindow(uint8)": {
        "returns": {
          "_0": "GemTypeMintWindow mint window structure"
        }
      },
      "mint(uint8)": {
        "details": "takes payment for mint and passes to the internal _mint function"
      }
    },
    "title": "YieldGemFacet EIP-2535 Diamond Facet",
    "version": 1
  },
  "userdoc": {
    "kind": "user",
    "methods": {
      "getGemIds()": {
        "notice": "Lists gem IDs the requester holds"
      },
      "getGemInfo(uint256)": {
        "notice": "Get detailed status of the Gem, including financial details"
      },
      "getGemsInfo()": {
        "notice": "Get detailed status of all the yield gems the requester holds"
      },
      "getMintWindow(uint8)": {
        "notice": "mint count limitations details"
      }
    },
    "notice": "Basic Node DEFO-specific functionality on top of the ERC721 standard,- minting and getters",
    "version": 1
  },
  "storageLayout": {
    "storage": [
      {
        "astId": 4258,
        "contract": "contracts/facets/YieldGemFacet.sol:YieldGemFacet",
        "label": "s",
        "offset": 0,
        "slot": "0",
        "type": "t_struct(AppStorage)4510_storage"
      }
    ],
    "types": {
      "t_address": {
        "encoding": "inplace",
        "label": "address",
        "numberOfBytes": "20"
      },
      "t_array(t_address)7_storage": {
        "base": "t_address",
        "encoding": "inplace",
        "label": "address[7]",
        "numberOfBytes": "224"
      },
      "t_array(t_array(t_uint256)3_storage)2_storage": {
        "base": "t_array(t_uint256)3_storage",
        "encoding": "inplace",
        "label": "uint256[3][2]",
        "numberOfBytes": "192"
      },
      "t_array(t_contract(IERC20)737)2_storage": {
        "base": "t_contract(IERC20)737",
        "encoding": "inplace",
        "label": "contract IERC20[2]",
        "numberOfBytes": "64"
      },
      "t_array(t_struct(GemTypeConfig)4404_storage)dyn_storage": {
        "base": "t_struct(GemTypeConfig)4404_storage",
        "encoding": "dynamic_array",
        "label": "struct GemTypeConfig[]",
        "numberOfBytes": "32"
      },
      "t_array(t_struct(GemTypeMintWindow)4409_storage)dyn_storage": {
        "base": "t_struct(GemTypeMintWindow)4409_storage",
        "encoding": "dynamic_array",
        "label": "struct GemTypeMintWindow[]",
        "numberOfBytes": "32"
      },
      "t_array(t_uint256)2_storage": {
        "base": "t_uint256",
        "encoding": "inplace",
        "label": "uint256[2]",
        "numberOfBytes": "64"
      },
      "t_array(t_uint256)3_storage": {
        "base": "t_uint256",
        "encoding": "inplace",
        "label": "uint256[3]",
        "numberOfBytes": "96"
      },
      "t_array(t_uint256)5_storage": {
        "base": "t_uint256",
        "encoding": "inplace",
        "label": "uint256[5]",
        "numberOfBytes": "160"
      },
      "t_array(t_uint256)dyn_storage": {
        "base": "t_uint256",
        "encoding": "dynamic_array",
        "label": "uint256[]",
        "numberOfBytes": "32"
      },
      "t_bool": {
        "encoding": "inplace",
        "label": "bool",
        "numberOfBytes": "1"
      },
      "t_contract(IERC20)737": {
        "encoding": "inplace",
        "label": "contract IERC20",
        "numberOfBytes": "20"
      },
      "t_enum(Booster)4431": {
        "encoding": "inplace",
        "label": "enum Booster",
        "numberOfBytes": "1"
      },
      "t_mapping(t_address,t_bool)": {
        "encoding": "mapping",
        "key": "t_address",
        "label": "mapping(address => bool)",
        "numberOfBytes": "32",
        "value": "t_bool"
      },
      "t_mapping(t_address,t_enum(Booster)4431)": {
        "encoding": "mapping",
        "key": "t_address",
        "label": "mapping(address => enum Booster)",
        "numberOfBytes": "32",
        "value": "t_enum(Booster)4431"
      },
      "t_mapping(t_address,t_mapping(t_address,t_bool))": {
        "encoding": "mapping",
        "key": "t_address",
        "label": "mapping(address => mapping(address => bool))",
        "numberOfBytes": "32",
        "value": "t_mapping(t_address,t_bool)"
      },
      "t_mapping(t_address,t_mapping(t_uint256,t_uint256))": {
        "encoding": "mapping",
        "key": "t_address",
        "label": "mapping(address => mapping(uint256 => uint256))",
        "numberOfBytes": "32",
        "value": "t_mapping(t_uint256,t_uint256)"
      },
      "t_mapping(t_address,t_struct(Fi)4452_storage)": {
        "encoding": "mapping",
        "key": "t_address",
        "label": "mapping(address => struct Fi)",
        "numberOfBytes": "32",
        "value": "t_struct(Fi)4452_storage"
      },
      "t_mapping(t_address,t_uint256)": {
        "encoding": "mapping",
        "key": "t_address",
        "label": "mapping(address => uint256)",
        "numberOfBytes": "32",
        "value": "t_uint256"
      },
      "t_mapping(t_address,t_uint8)": {
        "encoding": "mapping",
        "key": "t_address",
        "label": "mapping(address => uint8)",
        "numberOfBytes": "32",
        "value": "t_uint8"
      },
      "t_mapping(t_uint256,t_address)": {
        "encoding": "mapping",
        "key": "t_uint256",
        "label": "mapping(uint256 => address)",
        "numberOfBytes": "32",
        "value": "t_address"
      },
      "t_mapping(t_uint256,t_struct(Gem)4467_storage)": {
        "encoding": "mapping",
        "key": "t_uint256",
        "label": "mapping(uint256 => struct Gem)",
        "numberOfBytes": "32",
        "value": "t_struct(Gem)4467_storage"
      },
      "t_mapping(t_uint256,t_uint256)": {
        "encoding": "mapping",
        "key": "t_uint256",
        "label": "mapping(uint256 => uint256)",
        "numberOfBytes": "32",
        "value": "t_uint256"
      },
      "t_string_storage": {
        "encoding": "bytes",
        "label": "string",
        "numberOfBytes": "32"
      },
      "t_struct(AppStorage)4510_storage": {
        "encoding": "inplace",
        "label": "struct AppStorage",
        "members": [
          {
            "astId": 4470,
            "contract": "contracts/facets/YieldGemFacet.sol:YieldGemFacet",
            "label": "config",
            "offset": 0,
            "slot": "0",
            "type": "t_struct(ProtocolConfig)4391_storage"
          },
          {
            "astId": 4474,
            "contract": "contracts/facets/YieldGemFacet.sol:YieldGemFacet",
            "label": "gemTypes",
            "offset": 0,
            "slot": "28",
            "type": "t_array(t_struct(GemTypeConfig)4404_storage)dyn_storage"
          },
          {
            "astId": 4478,
            "contract": "contracts/facets/YieldGemFacet.sol:YieldGemFacet",
            "label": "gemTypesMintWindows",
            "offset": 0,
            "slot": "29",
            "type": "t_array(t_struct(GemTypeMintWindow)4409_storage)dyn_storage"
          },
          {
            "astId": 4481,
            "contract": "contracts/facets/YieldGemFacet.sol:YieldGemFacet",
            "label": "defoTokenLimitWindow",
            "offset": 0,
            "slot": "30",
            "type": "t_struct(DEFOTokenLimitWindow)4418_storage"
          },
          {
            "astId": 4486,
            "contract": "contracts/facets/YieldGemFacet.sol:YieldGemFacet",
            "label": "gems",
            "offset": 0,
            "slot": "32",
            "type": "t_mapping(t_uint256,t_struct(Gem)4467_storage)"
          },
          {
            "astId": 4489,
            "contract": "contracts/facets/YieldGemFacet.sol:YieldGemFacet",
            "label": "nft",
            "offset": 0,
            "slot": "33",
            "type": "t_struct(ERC721Storage)4326_storage"
          },
          {
            "astId": 4492,
            "contract": "contracts/facets/YieldGemFacet.sol:YieldGemFacet",
            "label": "total",
            "offset": 0,
            "slot": "46",
            "type": "t_struct(Fi)4452_storage"
          },
          {
            "astId": 4497,
            "contract": "contracts/facets/YieldGemFacet.sol:YieldGemFacet",
            "label": "usersFi",
            "offset": 0,
            "slot": "56",
            "type": "t_mapping(t_address,t_struct(Fi)4452_storage)"
          },
          {
            "astId": 4501,
            "contract": "contracts/facets/YieldGemFacet.sol:YieldGemFacet",
            "label": "usersNextGemTypeToBoost",
            "offset": 0,
            "slot": "57",
            "type": "t_mapping(t_address,t_uint8)"
          },
          {
            "astId": 4506,
            "contract": "contracts/facets/YieldGemFacet.sol:YieldGemFacet",
            "label": "usersNextGemBooster",
            "offset": 0,
            "slot": "58",
            "type": "t_mapping(t_address,t_enum(Booster)4431)"
          },
          {
            "astId": 4509,
            "contract": "contracts/facets/YieldGemFacet.sol:YieldGemFacet",
            "label": "defoTokenLimitPerRewards",
            "offset": 0,
            "slot": "59",
            "type": "t_struct(DEFOTokenLimitPerRewards)4427_storage"
          }
        ],
        "numberOfBytes": "1952"
      },
      "t_struct(Counter)2712_storage": {
        "encoding": "inplace",
        "label": "struct Counters.Counter",
        "members": [
          {
            "astId": 2711,
            "contract": "contracts/facets/YieldGemFacet.sol:YieldGemFacet",
            "label": "_value",
            "offset": 0,
            "slot": "0",
            "type": "t_uint256"
          }
        ],
        "numberOfBytes": "32"
      },
      "t_struct(DEFOTokenLimitPerRewards)4427_storage": {
        "encoding": "inplace",
        "label": "struct DEFOTokenLimitPerRewards",
        "members": [
          {
            "astId": 4422,
            "contract": "contracts/facets/YieldGemFacet.sol:YieldGemFacet",
            "label": "tokensSold",
            "offset": 0,
            "slot": "0",
            "type": "t_mapping(t_address,t_uint256)"
          },
          {
            "astId": 4426,
            "contract": "contracts/facets/YieldGemFacet.sol:YieldGemFacet",
            "label": "timeOfWindowStart",
            "offset": 0,
            "slot": "1",
            "type": "t_mapping(t_address,t_uint256)"
          }
        ],
        "numberOfBytes": "64"
      },
      "t_struct(DEFOTokenLimitWindow)4418_storage": {
        "encoding": "inplace",
        "label": "struct DEFOTokenLimitWindow",
        "members": [
          {
            "astId": 4413,
            "contract": "contracts/facets/YieldGemFacet.sol:YieldGemFacet",
            "label": "tokensSold",
            "offset": 0,
            "slot": "0",
            "type": "t_mapping(t_address,t_uint256)"
          },
          {
            "astId": 4417,
            "contract": "contracts/facets/YieldGemFacet.sol:YieldGemFacet",
            "label": "timeOfLastSale",
            "offset": 0,
            "slot": "1",
            "type": "t_mapping(t_address,t_uint256)"
          }
        ],
        "numberOfBytes": "64"
      },
      "t_struct(DefoTokenLimitConfig)4350_storage": {
        "encoding": "inplace",
        "label": "struct DefoTokenLimitConfig",
        "members": [
          {
            "astId": 4345,
            "contract": "contracts/facets/YieldGemFacet.sol:YieldGemFacet",
            "label": "saleLimitPeriod",
            "offset": 0,
            "slot": "0",
            "type": "t_uint256"
          },
          {
            "astId": 4347,
            "contract": "contracts/facets/YieldGemFacet.sol:YieldGemFacet",
            "label": "saleLimitAmount",
            "offset": 0,
            "slot": "1",
            "type": "t_uint256"
          },
          {
            "astId": 4349,
            "contract": "contracts/facets/YieldGemFacet.sol:YieldGemFacet",
            "label": "limitByReward",
            "offset": 0,
            "slot": "2",
            "type": "t_bool"
          }
        ],
        "numberOfBytes": "96"
      },
      "t_struct(ERC721Storage)4326_storage": {
        "encoding": "inplace",
        "label": "struct ERC721Storage",
        "members": [
          {
            "astId": 4281,
            "contract": "contracts/facets/YieldGemFacet.sol:YieldGemFacet",
            "label": "name",
            "offset": 0,
            "slot": "0",
            "type": "t_string_storage"
          },
          {
            "astId": 4283,
            "contract": "contracts/facets/YieldGemFacet.sol:YieldGemFacet",
            "label": "symbol",
            "offset": 0,
            "slot": "1",
            "type": "t_string_storage"
          },
          {
            "astId": 4286,
            "contract": "contracts/facets/YieldGemFacet.sol:YieldGemFacet",
            "label": "tokenIdTracker",
            "offset": 0,
            "slot": "2",
            "type": "t_struct(Counter)2712_storage"
          },
          {
            "astId": 4290,
            "contract": "contracts/facets/YieldGemFacet.sol:YieldGemFacet",
            "label": "owners",
            "offset": 0,
            "slot": "3",
            "type": "t_mapping(t_uint256,t_address)"
          },
          {
            "astId": 4294,
            "contract": "contracts/facets/YieldGemFacet.sol:YieldGemFacet",
            "label": "balances",
            "offset": 0,
            "slot": "4",
            "type": "t_mapping(t_address,t_uint256)"
          },
          {
            "astId": 4298,
            "contract": "contracts/facets/YieldGemFacet.sol:YieldGemFacet",
            "label": "tokenApprovals",
            "offset": 0,
            "slot": "5",
            "type": "t_mapping(t_uint256,t_address)"
          },
          {
            "astId": 4304,
            "contract": "contracts/facets/YieldGemFacet.sol:YieldGemFacet",
            "label": "operatorApprovals",
            "offset": 0,
            "slot": "6",
            "type": "t_mapping(t_address,t_mapping(t_address,t_bool))"
          },
          {
            "astId": 4306,
            "contract": "contracts/facets/YieldGemFacet.sol:YieldGemFacet",
            "label": "baseURI",
            "offset": 0,
            "slot": "7",
            "type": "t_string_storage"
          },
          {
            "astId": 4312,
            "contract": "contracts/facets/YieldGemFacet.sol:YieldGemFacet",
            "label": "ownedTokens",
            "offset": 0,
            "slot": "8",
            "type": "t_mapping(t_address,t_mapping(t_uint256,t_uint256))"
          },
          {
            "astId": 4316,
            "contract": "contracts/facets/YieldGemFacet.sol:YieldGemFacet",
            "label": "ownedTokensIndex",
            "offset": 0,
            "slot": "9",
            "type": "t_mapping(t_uint256,t_uint256)"
          },
          {
            "astId": 4319,
            "contract": "contracts/facets/YieldGemFacet.sol:YieldGemFacet",
            "label": "allTokens",
            "offset": 0,
            "slot": "10",
            "type": "t_array(t_uint256)dyn_storage"
          },
          {
            "astId": 4323,
            "contract": "contracts/facets/YieldGemFacet.sol:YieldGemFacet",
            "label": "allTokensIndex",
            "offset": 0,
            "slot": "11",
            "type": "t_mapping(t_uint256,t_uint256)"
          },
          {
            "astId": 4325,
            "contract": "contracts/facets/YieldGemFacet.sol:YieldGemFacet",
            "label": "init",
            "offset": 0,
            "slot": "12",
            "type": "t_bool"
          }
        ],
        "numberOfBytes": "416"
      },
      "t_struct(Fi)4452_storage": {
        "encoding": "inplace",
        "label": "struct Fi",
        "members": [
          {
            "astId": 4433,
            "contract": "contracts/facets/YieldGemFacet.sol:YieldGemFacet",
            "label": "claimedGross",
            "offset": 0,
            "slot": "0",
            "type": "t_uint256"
          },
          {
            "astId": 4435,
            "contract": "contracts/facets/YieldGemFacet.sol:YieldGemFacet",
            "label": "claimedNet",
            "offset": 0,
            "slot": "1",
            "type": "t_uint256"
          },
          {
            "astId": 4437,
            "contract": "contracts/facets/YieldGemFacet.sol:YieldGemFacet",
            "label": "stakedGross",
            "offset": 0,
            "slot": "2",
            "type": "t_uint256"
          },
          {
            "astId": 4439,
            "contract": "contracts/facets/YieldGemFacet.sol:YieldGemFacet",
            "label": "stakedNet",
            "offset": 0,
            "slot": "3",
            "type": "t_uint256"
          },
          {
            "astId": 4441,
            "contract": "contracts/facets/YieldGemFacet.sol:YieldGemFacet",
            "label": "unStakedGross",
            "offset": 0,
            "slot": "4",
            "type": "t_uint256"
          },
          {
            "astId": 4443,
            "contract": "contracts/facets/YieldGemFacet.sol:YieldGemFacet",
            "label": "unStakedGrossUp",
            "offset": 0,
            "slot": "5",
            "type": "t_uint256"
          },
          {
            "astId": 4445,
            "contract": "contracts/facets/YieldGemFacet.sol:YieldGemFacet",
            "label": "unStakedNet",
            "offset": 0,
            "slot": "6",
            "type": "t_uint256"
          },
          {
            "astId": 4447,
            "contract": "contracts/facets/YieldGemFacet.sol:YieldGemFacet",
            "label": "donated",
            "offset": 0,
            "slot": "7",
            "type": "t_uint256"
          },
          {
            "astId": 4449,
            "contract": "contracts/facets/YieldGemFacet.sol:YieldGemFacet",
            "label": "claimTaxPaid",
            "offset": 0,
            "slot": "8",
            "type": "t_uint256"
          },
          {
            "astId": 4451,
            "contract": "contracts/facets/YieldGemFacet.sol:YieldGemFacet",
            "label": "vaultTaxPaid",
            "offset": 0,
            "slot": "9",
            "type": "t_uint256"
          }
        ],
        "numberOfBytes": "320"
      },
      "t_struct(Gem)4467_storage": {
        "encoding": "inplace",
        "label": "struct Gem",
        "members": [
          {
            "astId": 4454,
            "contract": "contracts/facets/YieldGemFacet.sol:YieldGemFacet",
            "label": "gemTypeId",
            "offset": 0,
            "slot": "0",
            "type": "t_uint8"
          },
          {
            "astId": 4457,
            "contract": "contracts/facets/YieldGemFacet.sol:YieldGemFacet",
            "label": "booster",
            "offset": 1,
            "slot": "0",
            "type": "t_enum(Booster)4431"
          },
          {
            "astId": 4459,
            "contract": "contracts/facets/YieldGemFacet.sol:YieldGemFacet",
            "label": "mintTime",
            "offset": 2,
            "slot": "0",
            "type": "t_uint32"
          },
          {
            "astId": 4461,
            "contract": "contracts/facets/YieldGemFacet.sol:YieldGemFacet",
            "label": "lastRewardWithdrawalTime",
            "offset": 6,
            "slot": "0",
            "type": "t_uint32"
          },
          {
            "astId": 4463,
            "contract": "contracts/facets/YieldGemFacet.sol:YieldGemFacet",
            "label": "lastMaintenanceTime",
            "offset": 10,
            "slot": "0",
            "type": "t_uint32"
          },
          {
            "astId": 4466,
            "contract": "contracts/facets/YieldGemFacet.sol:YieldGemFacet",
            "label": "fi",
            "offset": 0,
            "slot": "1",
            "type": "t_struct(Fi)4452_storage"
          }
        ],
        "numberOfBytes": "352"
      },
      "t_struct(GemTypeConfig)4404_storage": {
        "encoding": "inplace",
        "label": "struct GemTypeConfig",
        "members": [
          {
            "astId": 4393,
            "contract": "contracts/facets/YieldGemFacet.sol:YieldGemFacet",
            "label": "maintenanceFeeDai",
            "offset": 0,
            "slot": "0",
            "type": "t_uint256"
          },
          {
            "astId": 4395,
            "contract": "contracts/facets/YieldGemFacet.sol:YieldGemFacet",
            "label": "rewardAmountDefo",
            "offset": 0,
            "slot": "1",
            "type": "t_uint256"
          },
          {
            "astId": 4399,
            "contract": "contracts/facets/YieldGemFacet.sol:YieldGemFacet",
            "label": "price",
            "offset": 0,
            "slot": "2",
            "type": "t_array(t_uint256)2_storage"
          },
          {
            "astId": 4401,
            "contract": "contracts/facets/YieldGemFacet.sol:YieldGemFacet",
            "label": "taperRewardsThresholdDefo",
            "offset": 0,
            "slot": "4",
            "type": "t_uint256"
          },
          {
            "astId": 4403,
            "contract": "contracts/facets/YieldGemFacet.sol:YieldGemFacet",
            "label": "maxMintsPerLimitWindow",
            "offset": 0,
            "slot": "5",
            "type": "t_uint8"
          }
        ],
        "numberOfBytes": "192"
      },
      "t_struct(GemTypeMintWindow)4409_storage": {
        "encoding": "inplace",
        "label": "struct GemTypeMintWindow",
        "members": [
          {
            "astId": 4406,
            "contract": "contracts/facets/YieldGemFacet.sol:YieldGemFacet",
            "label": "mintCount",
            "offset": 0,
            "slot": "0",
            "type": "t_uint256"
          },
          {
            "astId": 4408,
            "contract": "contracts/facets/YieldGemFacet.sol:YieldGemFacet",
            "label": "endOfMintLimitWindow",
            "offset": 0,
            "slot": "1",
            "type": "t_uint32"
          }
        ],
        "numberOfBytes": "64"
      },
      "t_struct(ProtocolConfig)4391_storage": {
        "encoding": "inplace",
        "label": "struct ProtocolConfig",
        "members": [
          {
            "astId": 4355,
            "contract": "contracts/facets/YieldGemFacet.sol:YieldGemFacet",
            "label": "paymentTokens",
            "offset": 0,
            "slot": "0",
            "type": "t_array(t_contract(IERC20)737)2_storage"
          },
          {
            "astId": 4359,
            "contract": "contracts/facets/YieldGemFacet.sol:YieldGemFacet",
            "label": "wallets",
            "offset": 0,
            "slot": "2",
            "type": "t_array(t_address)7_storage"
          },
          {
            "astId": 4365,
            "contract": "contracts/facets/YieldGemFacet.sol:YieldGemFacet",
            "label": "incomeDistributionOnMint",
            "offset": 0,
            "slot": "9",
            "type": "t_array(t_array(t_uint256)3_storage)2_storage"
          },
          {
            "astId": 4367,
            "contract": "contracts/facets/YieldGemFacet.sol:YieldGemFacet",
            "label": "maintenancePeriod",
            "offset": 0,
            "slot": "15",
            "type": "t_uint32"
          },
          {
            "astId": 4369,
            "contract": "contracts/facets/YieldGemFacet.sol:YieldGemFacet",
            "label": "rewardPeriod",
            "offset": 4,
            "slot": "15",
            "type": "t_uint32"
          },
          {
            "astId": 4371,
            "contract": "contracts/facets/YieldGemFacet.sol:YieldGemFacet",
            "label": "taxScaleSinceLastClaimPeriod",
            "offset": 8,
            "slot": "15",
            "type": "t_uint32"
          },
          {
            "astId": 4375,
            "contract": "contracts/facets/YieldGemFacet.sol:YieldGemFacet",
            "label": "taxRates",
            "offset": 0,
            "slot": "16",
            "type": "t_array(t_uint256)5_storage"
          },
          {
            "astId": 4377,
            "contract": "contracts/facets/YieldGemFacet.sol:YieldGemFacet",
            "label": "charityContributionRate",
            "offset": 0,
            "slot": "21",
            "type": "t_uint256"
          },
          {
            "astId": 4379,
            "contract": "contracts/facets/YieldGemFacet.sol:YieldGemFacet",
            "label": "vaultWithdrawalTaxRate",
            "offset": 0,
            "slot": "22",
            "type": "t_uint256"
          },
          {
            "astId": 4381,
            "contract": "contracts/facets/YieldGemFacet.sol:YieldGemFacet",
            "label": "taperRate",
            "offset": 0,
            "slot": "23",
            "type": "t_uint256"
          },
          {
            "astId": 4383,
            "contract": "contracts/facets/YieldGemFacet.sol:YieldGemFacet",
            "label": "mintLock",
            "offset": 0,
            "slot": "24",
            "type": "t_bool"
          },
          {
            "astId": 4385,
            "contract": "contracts/facets/YieldGemFacet.sol:YieldGemFacet",
            "label": "transferLock",
            "offset": 1,
            "slot": "24",
            "type": "t_bool"
          },
          {
            "astId": 4387,
            "contract": "contracts/facets/YieldGemFacet.sol:YieldGemFacet",
            "label": "mintLimitWindow",
            "offset": 2,
            "slot": "24",
            "type": "t_uint32"
          },
          {
            "astId": 4390,
            "contract": "contracts/facets/YieldGemFacet.sol:YieldGemFacet",
            "label": "defoTokenLimitConfig",
            "offset": 0,
            "slot": "25",
            "type": "t_struct(DefoTokenLimitConfig)4350_storage"
          }
        ],
        "numberOfBytes": "896"
      },
      "t_uint256": {
        "encoding": "inplace",
        "label": "uint256",
        "numberOfBytes": "32"
      },
      "t_uint32": {
        "encoding": "inplace",
        "label": "uint32",
        "numberOfBytes": "4"
      },
      "t_uint8": {
        "encoding": "inplace",
        "label": "uint8",
        "numberOfBytes": "1"
      }
    }
  }
}