{
  "address": "0xbbECE2617F5aa289021184DAc45aaEB957368307",
  "abi": [
    {
      "anonymous": false,
      "inputs": [
        {
          "components": [
            {
              "internalType": "contract IERC20[2]",
              "name": "paymentTokens",
              "type": "address[2]"
            },
            {
              "internalType": "address[7]",
              "name": "wallets",
              "type": "address[7]"
            },
            {
              "internalType": "uint256[3][2]",
              "name": "incomeDistributionOnMint",
              "type": "uint256[3][2]"
            },
            {
              "internalType": "uint32",
              "name": "maintenancePeriod",
              "type": "uint32"
            },
            {
              "internalType": "uint32",
              "name": "rewardPeriod",
              "type": "uint32"
            },
            {
              "internalType": "uint32",
              "name": "taxScaleSinceLastClaimPeriod",
              "type": "uint32"
            },
            {
              "internalType": "uint256[5]",
              "name": "taxRates",
              "type": "uint256[5]"
            },
            {
              "internalType": "uint256",
              "name": "charityContributionRate",
              "type": "uint256"
            },
            {
              "internalType": "uint256",
              "name": "vaultWithdrawalTaxRate",
              "type": "uint256"
            },
            {
              "internalType": "uint256",
              "name": "taperRate",
              "type": "uint256"
            },
            {
              "internalType": "bool",
              "name": "mintLock",
              "type": "bool"
            },
            {
              "internalType": "bool",
              "name": "transferLock",
              "type": "bool"
            },
            {
              "internalType": "uint32",
              "name": "mintLimitWindow",
              "type": "uint32"
            },
            {
              "components": [
                {
                  "internalType": "uint256",
                  "name": "saleLimitPeriod",
                  "type": "uint256"
                },
                {
                  "internalType": "uint256",
                  "name": "saleLimitAmount",
                  "type": "uint256"
                },
                {
                  "internalType": "bool",
                  "name": "limitByReward",
                  "type": "bool"
                }
              ],
              "internalType": "struct DefoTokenLimitConfig",
              "name": "defoTokenLimitConfig",
              "type": "tuple"
            },
            {
              "internalType": "address",
              "name": "routerWallet",
              "type": "address"
            }
          ],
          "indexed": false,
          "internalType": "struct ProtocolConfig",
          "name": "config",
          "type": "tuple"
        }
      ],
      "name": "ConfigurationChange",
      "type": "event"
    },
    {
      "anonymous": false,
      "inputs": [
        {
          "components": [
            {
              "internalType": "uint256",
              "name": "maintenanceFeeDai",
              "type": "uint256"
            },
            {
              "internalType": "uint256",
              "name": "rewardAmountDefo",
              "type": "uint256"
            },
            {
              "internalType": "uint256[2]",
              "name": "price",
              "type": "uint256[2]"
            },
            {
              "internalType": "uint256",
              "name": "taperRewardsThresholdDefo",
              "type": "uint256"
            },
            {
              "internalType": "uint256",
              "name": "maxMintsPerLimitWindow",
              "type": "uint256"
            }
          ],
          "indexed": false,
          "internalType": "struct GemTypeConfig",
          "name": "_gemTypeConfig",
          "type": "tuple"
        }
      ],
      "name": "GemTypeConfigurationChange",
      "type": "event"
    },
    {
      "inputs": [
        {
          "internalType": "address",
          "name": "_routerWallet",
          "type": "address"
        }
      ],
      "name": "approveDefoForRouter",
      "outputs": [],
      "stateMutability": "nonpayable",
      "type": "function"
    },
    {
      "inputs": [],
      "name": "getConfig",
      "outputs": [
        {
          "components": [
            {
              "internalType": "contract IERC20[2]",
              "name": "paymentTokens",
              "type": "address[2]"
            },
            {
              "internalType": "address[7]",
              "name": "wallets",
              "type": "address[7]"
            },
            {
              "internalType": "uint256[3][2]",
              "name": "incomeDistributionOnMint",
              "type": "uint256[3][2]"
            },
            {
              "internalType": "uint32",
              "name": "maintenancePeriod",
              "type": "uint32"
            },
            {
              "internalType": "uint32",
              "name": "rewardPeriod",
              "type": "uint32"
            },
            {
              "internalType": "uint32",
              "name": "taxScaleSinceLastClaimPeriod",
              "type": "uint32"
            },
            {
              "internalType": "uint256[5]",
              "name": "taxRates",
              "type": "uint256[5]"
            },
            {
              "internalType": "uint256",
              "name": "charityContributionRate",
              "type": "uint256"
            },
            {
              "internalType": "uint256",
              "name": "vaultWithdrawalTaxRate",
              "type": "uint256"
            },
            {
              "internalType": "uint256",
              "name": "taperRate",
              "type": "uint256"
            },
            {
              "internalType": "bool",
              "name": "mintLock",
              "type": "bool"
            },
            {
              "internalType": "bool",
              "name": "transferLock",
              "type": "bool"
            },
            {
              "internalType": "uint32",
              "name": "mintLimitWindow",
              "type": "uint32"
            },
            {
              "components": [
                {
                  "internalType": "uint256",
                  "name": "saleLimitPeriod",
                  "type": "uint256"
                },
                {
                  "internalType": "uint256",
                  "name": "saleLimitAmount",
                  "type": "uint256"
                },
                {
                  "internalType": "bool",
                  "name": "limitByReward",
                  "type": "bool"
                }
              ],
              "internalType": "struct DefoTokenLimitConfig",
              "name": "defoTokenLimitConfig",
              "type": "tuple"
            },
            {
              "internalType": "address",
              "name": "routerWallet",
              "type": "address"
            }
          ],
          "internalType": "struct ProtocolConfig",
          "name": "",
          "type": "tuple"
        }
      ],
      "stateMutability": "view",
      "type": "function"
    },
    {
      "inputs": [],
      "name": "getGemTypesConfig",
      "outputs": [
        {
          "components": [
            {
              "internalType": "uint256",
              "name": "maintenanceFeeDai",
              "type": "uint256"
            },
            {
              "internalType": "uint256",
              "name": "rewardAmountDefo",
              "type": "uint256"
            },
            {
              "internalType": "uint256[2]",
              "name": "price",
              "type": "uint256[2]"
            },
            {
              "internalType": "uint256",
              "name": "taperRewardsThresholdDefo",
              "type": "uint256"
            },
            {
              "internalType": "uint256",
              "name": "maxMintsPerLimitWindow",
              "type": "uint256"
            }
          ],
          "internalType": "struct GemTypeConfig[]",
          "name": "",
          "type": "tuple[]"
        }
      ],
      "stateMutability": "view",
      "type": "function"
    },
    {
      "inputs": [
        {
          "internalType": "address",
          "name": "_user",
          "type": "address"
        }
      ],
      "name": "getTotal",
      "outputs": [
        {
          "components": [
            {
              "internalType": "uint256",
              "name": "claimedGross",
              "type": "uint256"
            },
            {
              "internalType": "uint256",
              "name": "claimedNet",
              "type": "uint256"
            },
            {
              "internalType": "uint256",
              "name": "stakedGross",
              "type": "uint256"
            },
            {
              "internalType": "uint256",
              "name": "stakedNet",
              "type": "uint256"
            },
            {
              "internalType": "uint256",
              "name": "unStakedGross",
              "type": "uint256"
            },
            {
              "internalType": "uint256",
              "name": "unStakedGrossUp",
              "type": "uint256"
            },
            {
              "internalType": "uint256",
              "name": "unStakedNet",
              "type": "uint256"
            },
            {
              "internalType": "uint256",
              "name": "donated",
              "type": "uint256"
            },
            {
              "internalType": "uint256",
              "name": "claimTaxPaid",
              "type": "uint256"
            },
            {
              "internalType": "uint256",
              "name": "vaultTaxPaid",
              "type": "uint256"
            }
          ],
          "internalType": "struct Fi",
          "name": "",
          "type": "tuple"
        }
      ],
      "stateMutability": "view",
      "type": "function"
    },
    {
      "inputs": [],
      "name": "getTotals",
      "outputs": [
        {
          "components": [
            {
              "internalType": "uint256",
              "name": "claimedGross",
              "type": "uint256"
            },
            {
              "internalType": "uint256",
              "name": "claimedNet",
              "type": "uint256"
            },
            {
              "internalType": "uint256",
              "name": "stakedGross",
              "type": "uint256"
            },
            {
              "internalType": "uint256",
              "name": "stakedNet",
              "type": "uint256"
            },
            {
              "internalType": "uint256",
              "name": "unStakedGross",
              "type": "uint256"
            },
            {
              "internalType": "uint256",
              "name": "unStakedGrossUp",
              "type": "uint256"
            },
            {
              "internalType": "uint256",
              "name": "unStakedNet",
              "type": "uint256"
            },
            {
              "internalType": "uint256",
              "name": "donated",
              "type": "uint256"
            },
            {
              "internalType": "uint256",
              "name": "claimTaxPaid",
              "type": "uint256"
            },
            {
              "internalType": "uint256",
              "name": "vaultTaxPaid",
              "type": "uint256"
            }
          ],
          "internalType": "struct Fi",
          "name": "",
          "type": "tuple"
        }
      ],
      "stateMutability": "view",
      "type": "function"
    },
    {
      "inputs": [],
      "name": "lockMint",
      "outputs": [],
      "stateMutability": "nonpayable",
      "type": "function"
    },
    {
      "inputs": [],
      "name": "pause",
      "outputs": [],
      "stateMutability": "nonpayable",
      "type": "function"
    },
    {
      "inputs": [
        {
          "internalType": "uint256",
          "name": "_charityContributionRate",
          "type": "uint256"
        }
      ],
      "name": "setCharityContributionRate",
      "outputs": [],
      "stateMutability": "nonpayable",
      "type": "function"
    },
    {
      "inputs": [
        {
          "components": [
            {
              "internalType": "contract IERC20[2]",
              "name": "paymentTokens",
              "type": "address[2]"
            },
            {
              "internalType": "address[7]",
              "name": "wallets",
              "type": "address[7]"
            },
            {
              "internalType": "uint256[3][2]",
              "name": "incomeDistributionOnMint",
              "type": "uint256[3][2]"
            },
            {
              "internalType": "uint32",
              "name": "maintenancePeriod",
              "type": "uint32"
            },
            {
              "internalType": "uint32",
              "name": "rewardPeriod",
              "type": "uint32"
            },
            {
              "internalType": "uint32",
              "name": "taxScaleSinceLastClaimPeriod",
              "type": "uint32"
            },
            {
              "internalType": "uint256[5]",
              "name": "taxRates",
              "type": "uint256[5]"
            },
            {
              "internalType": "uint256",
              "name": "charityContributionRate",
              "type": "uint256"
            },
            {
              "internalType": "uint256",
              "name": "vaultWithdrawalTaxRate",
              "type": "uint256"
            },
            {
              "internalType": "uint256",
              "name": "taperRate",
              "type": "uint256"
            },
            {
              "internalType": "bool",
              "name": "mintLock",
              "type": "bool"
            },
            {
              "internalType": "bool",
              "name": "transferLock",
              "type": "bool"
            },
            {
              "internalType": "uint32",
              "name": "mintLimitWindow",
              "type": "uint32"
            },
            {
              "components": [
                {
                  "internalType": "uint256",
                  "name": "saleLimitPeriod",
                  "type": "uint256"
                },
                {
                  "internalType": "uint256",
                  "name": "saleLimitAmount",
                  "type": "uint256"
                },
                {
                  "internalType": "bool",
                  "name": "limitByReward",
                  "type": "bool"
                }
              ],
              "internalType": "struct DefoTokenLimitConfig",
              "name": "defoTokenLimitConfig",
              "type": "tuple"
            },
            {
              "internalType": "address",
              "name": "routerWallet",
              "type": "address"
            }
          ],
          "internalType": "struct ProtocolConfig",
          "name": "_config",
          "type": "tuple"
        }
      ],
      "name": "setConfig",
      "outputs": [],
      "stateMutability": "nonpayable",
      "type": "function"
    },
    {
      "inputs": [
        {
          "components": [
            {
              "internalType": "uint256",
              "name": "saleLimitPeriod",
              "type": "uint256"
            },
            {
              "internalType": "uint256",
              "name": "saleLimitAmount",
              "type": "uint256"
            },
            {
              "internalType": "bool",
              "name": "limitByReward",
              "type": "bool"
            }
          ],
          "internalType": "struct DefoTokenLimitConfig",
          "name": "_defoTokenLimitConfig",
          "type": "tuple"
        }
      ],
      "name": "setConfigDefoTokenLimitConfig",
      "outputs": [],
      "stateMutability": "nonpayable",
      "type": "function"
    },
    {
      "inputs": [
        {
          "internalType": "uint256[3][2]",
          "name": "_incomeDistributionOnMint",
          "type": "uint256[3][2]"
        }
      ],
      "name": "setConfigIncomeDistributionOnMint",
      "outputs": [],
      "stateMutability": "nonpayable",
      "type": "function"
    },
    {
      "inputs": [
        {
          "internalType": "uint32",
          "name": "_maintenancePeriod",
          "type": "uint32"
        }
      ],
      "name": "setConfigMaintenancePeriod",
      "outputs": [],
      "stateMutability": "nonpayable",
      "type": "function"
    },
    {
      "inputs": [
        {
          "internalType": "uint32",
          "name": "_mintLimitWindow",
          "type": "uint32"
        }
      ],
      "name": "setConfigMintLimitWindow",
      "outputs": [],
      "stateMutability": "nonpayable",
      "type": "function"
    },
    {
      "inputs": [
        {
          "internalType": "uint32",
          "name": "_rewardPeriod",
          "type": "uint32"
        }
      ],
      "name": "setConfigRewardPeriod",
      "outputs": [],
      "stateMutability": "nonpayable",
      "type": "function"
    },
    {
      "inputs": [
        {
          "internalType": "uint256",
          "name": "_taperRate",
          "type": "uint256"
        }
      ],
      "name": "setConfigTaperRate",
      "outputs": [],
      "stateMutability": "nonpayable",
      "type": "function"
    },
    {
      "inputs": [
        {
          "internalType": "uint256[5]",
          "name": "_taxRates",
          "type": "uint256[5]"
        }
      ],
      "name": "setConfigTaxRates",
      "outputs": [],
      "stateMutability": "nonpayable",
      "type": "function"
    },
    {
      "inputs": [
        {
          "internalType": "uint32",
          "name": "_taxScaleSinceLastClaimPeriod",
          "type": "uint32"
        }
      ],
      "name": "setConfigTaxScaleSinceLastClaimPeriod",
      "outputs": [],
      "stateMutability": "nonpayable",
      "type": "function"
    },
    {
      "inputs": [
        {
          "internalType": "uint256",
          "name": "_vaultWithdrawalTaxRate",
          "type": "uint256"
        }
      ],
      "name": "setConfigVaultWithdrawalTaxRate",
      "outputs": [],
      "stateMutability": "nonpayable",
      "type": "function"
    },
    {
      "inputs": [
        {
          "internalType": "address[7]",
          "name": "_wallets",
          "type": "address[7]"
        }
      ],
      "name": "setConfigWallets",
      "outputs": [],
      "stateMutability": "nonpayable",
      "type": "function"
    },
    {
      "inputs": [
        {
          "components": [
            {
              "internalType": "uint256",
              "name": "maintenanceFeeDai",
              "type": "uint256"
            },
            {
              "internalType": "uint256",
              "name": "rewardAmountDefo",
              "type": "uint256"
            },
            {
              "internalType": "uint256[2]",
              "name": "price",
              "type": "uint256[2]"
            },
            {
              "internalType": "uint256",
              "name": "taperRewardsThresholdDefo",
              "type": "uint256"
            },
            {
              "internalType": "uint256",
              "name": "maxMintsPerLimitWindow",
              "type": "uint256"
            }
          ],
          "internalType": "struct GemTypeConfig[]",
          "name": "_gemTypeConfig",
          "type": "tuple[]"
        }
      ],
      "name": "setGemTypesConfig",
      "outputs": [],
      "stateMutability": "nonpayable",
      "type": "function"
    },
    {
      "inputs": [],
      "name": "unlockMint",
      "outputs": [],
      "stateMutability": "nonpayable",
      "type": "function"
    },
    {
      "inputs": [],
      "name": "unpause",
      "outputs": [],
      "stateMutability": "nonpayable",
      "type": "function"
    },
    {
      "inputs": [
        {
          "internalType": "uint8",
          "name": "_gemTypeId",
          "type": "uint8"
        }
      ],
      "name": "zeroMintCount",
      "outputs": [],
      "stateMutability": "nonpayable",
      "type": "function"
    }
  ],
  "transactionHash": "0x59099fae8c58497d2fe361df640d0b3d37faf7e431bdbf5a18ea18c69c7995a1",
  "args": [],
  "numDeployments": 7,
  "solcInputHash": "7930a0ebaf3c7b848559d3f40a8f06fb",
  "bytecode": "0x608060405234801561001057600080fd5b50611ed9806100206000396000f3fe608060405234801561001057600080fd5b506004361061014d5760003560e01c806383c7d152116100c35780639956d1db1161007c5780639956d1db146102ef578063c3f909d414610302578063d864d02a14610317578063e0687f741461032a578063e0b6bb671461033d578063ebb6dad81461034557600080fd5b806383c7d1521461020f5780638456cb591461022257806384e10a901461022a5780638838640e146102b45780638a1ad325146102c95780638ad15c21146102dc57600080fd5b8063683da55311610115578063683da5531461019d578063685e2a9a146101b0578063689da232146101c357806369d40589146101d65780636bcb63d6146101e95780636bfe99ec146101fc57600080fd5b806315a0a4be146101525780633f4ba83a146101675780633f5db5ca1461016f57806341ef35c6146101825780635a9a664f14610195575b600080fd5b610165610160366004611397565b610358565b005b610165610412565b61016561017d3660046113bb565b610424565b610165610190366004611513565b61045c565b610165610475565b6101656101ab366004611543565b610485565b6101656101be36600461155e565b6104b1565b6101656101d1366004611577565b6104be565b6101656101e4366004611543565b610668565b6101656101f7366004611543565b610696565b61016561020a366004611685565b6106c6565b61016561021d36600461170d565b6106db565b6101656106fb565b61023261070b565b6040516102ab9190600061014082019050825182526020830151602083015260408301516040830152606083015160608301526080830151608083015260a083015160a083015260c083015160c083015260e083015160e083015261010080840151818401525061012080840151818401525092915050565b60405180910390f35b6102bc61077b565b6040516102ab9190611729565b6101656102d7366004611543565b610836565b6101656102ea36600461155e565b61085a565b6101656102fd3660046117bb565b610867565b61030a6108a6565b6040516102ab91906118a6565b61016561032536600461155e565b610aac565b6101656103383660046119b0565b610ab9565b610165610c87565b610232610353366004611397565b610c97565b610360610d38565b601c80546001600160a01b0319166001600160a01b03831617905560008060015b60028110610391576103916119c3565b0154601c5460405163095ea7b360e01b81526001600160a01b039182166004820152600019602482015291169150819063095ea7b3906044016020604051808303816000875af11580156103e9573d6000803e3d6000fd5b505050506040513d601f19601f8201168201806040525081019061040d91906119e7565b505050565b61041a610d38565b610422610dc4565b565b61042c610d38565b60008081601e018360ff1681548110610447576104476119c3565b60009182526020822060029091020155505050565b610464610d38565b6104716010826005610f80565b5050565b61047d610d38565b610422610e11565b61048d610d38565b6018805463ffffffff909216620100000265ffffffff000019909216919091179055565b6104b9610d38565b601555565b6104c6610d38565b6104d2601d6000610fbe565b6104de601e6000610fe2565b60005b8181101561040d5760008383838181106104fd576104fd6119c3565b905060c002018036038101906105139190611a04565b601d8054600181018255600091909152815160069091027f6d4407e7be21f808e6509aa9fa9143369579dd7d760fe20a2c09680fc146134f810191825560208301517f6d4407e7be21f808e6509aa9fa9143369579dd7d760fe20a2c09680fc1461350820155604083015192935083926105b1917f6d4407e7be21f808e6509aa9fa9143369579dd7d760fe20a2c09680fc146135101906002611003565b5060608201516004820155608090910151600590910155506040805180820190915260008082524263ffffffff90811660208401908152601e8054600181018255935292517f50bb669a95c7b50b7e8a6f09454034b2b14cf2b85c730dca9a539ca82cb6e35060029093029283015591517f50bb669a95c7b50b7e8a6f09454034b2b14cf2b85c730dca9a539ca82cb6e351909101805463ffffffff1916919092161790558061066081611a8b565b9150506104e1565b610670610d38565b600f805463ffffffff909216600160401b0263ffffffff60401b19909216919091179055565b61069e610d38565b600f805463ffffffff9092166401000000000267ffffffff0000000019909216919091179055565b6106ce610d38565b6104716009826002611030565b6106e3610d38565b6106f06002826007611077565b506000806001610381565b610703610d38565b610422610e49565b6107136110bf565b61071b610d38565b506040805161014081018252602f5481526030546020820152603154918101919091526032546060820152603354608082015260345460a082015260355460c082015260365460e082015260375461010082015260385461012082015290565b60606000601d01805480602002602001604051908101604052809291908181526020016000905b8282101561082d5760008481526020908190206040805160a081018252600686029092018054835260018101549383019390935280518082018083529293929184019160028085019182845b8154815260200190600101908083116107ee575050505050815260200160048201548152602001600582015481525050815260200190600101906107a2565b50505050905090565b61083e610d38565b600f805463ffffffff191663ffffffff92909216919091179055565b610862610d38565b601655565b61086f610d38565b600061088036839003830183611b23565b80516019556020810151601a5560400151601b805460ff19169115159190911790555050565b6108ae611112565b6040805161022081019091526000816101e081018260028282826020028201915b81546001600160a01b031681526001909101906020018083116108cf5750505091835250506040805160e081019182905260209092019190600284019060079082845b81546001600160a01b03168152600190910190602001808311610912575050509183525050604080518082019091526020909101906009830160026000835b828210156109985760408051606081019182905290600384810287019182845b81548152602001906001019080831161097157505050505081526020019060010190610951565b50505090825250600f82015463ffffffff808216602084015264010000000082048116604080850191909152600160401b909204166060830152805160a081019182905260809092019190601084019060059082845b8154815260200190600101908083116109ee575050509183525050601582015460208083019190915260168301546040808401919091526017840154606080850191909152601885015460ff808216151560808701526101008083048216151560a08801526201000090920463ffffffff1660c08701528351928301845260198701548352601a87015494830194909452601b86015490931615159181019190915260e0830152601c909201546001600160a01b0316910152919050565b610ab4610d38565b601755565b610ac1610d38565b6000610ad236839003830183611b98565b80519091508190600090610ae990829060026111ce565b506020820151610aff9060028301906007611077565b506040820151610b159060098301906002611030565b506060820151600f82018054608085015160a086015163ffffffff908116600160401b0263ffffffff60401b199282166401000000000267ffffffffffffffff199094169190951617919091171691909117905560c0820151610b7e9060108301906005610f80565b5060e08201516015820155610100808301516016830155610120830151601783015561014083015160188301805461016086015161018087015161ffff1990921693151561ff001916939093179215159093029190911765ffffffff000019166201000063ffffffff909316929092029190911790556101a0820151805160198301556020810151601a830155604090810151601b8301805460ff19169115159190911790556101c090920151601c90910180546001600160a01b0319166001600160a01b03909216919091179055517f2196ecbe0782167338c711c27f86824aa156e3a06ea54adde2b6021120a701f790610c7b908490611d83565b60405180910390a15050565b610c8f610d38565b610422610e93565b610c9f6110bf565b610ca7610d38565b506001600160a01b038116600090815260396020908152604091829020825161014081018452815481526001820154928101929092526002810154928201929092526003820154606082015260048201546080820152600582015460a0820152600682015460c0820152600782015460e082015260088201546101008201526009909101546101208201525b919050565b7fc8fcad8db84d3cc18b4c41d551ea0ee66dd599cde068d998e57d5e09332c131c600401546001600160a01b031633146104225760405162461bcd60e51b815260206004820152602260248201527f4c69624469616d6f6e643a204d75737420626520636f6e7472616374206f776e60448201526132b960f11b60648201526084015b60405180910390fd5b610dcc610ece565b6018805461ff00191690556040513381526000907f5db9ee0a495bf2e6ff9c91a7834c1ba4fdd244a5e8aa4e537bd38aeae4b073aa906020015b60405180910390a150565b6018805460ff191690556040516000907f16fe33fab5fd851b7e9a856a666ea43cc5515bbb51689c3d370085d004418123908290a150565b610e51610f1c565b6018805461ff0019166101001790556040513381526000907f62e78cea01bee320cd4e420270b5ea74000d11b0c9f74754ebdbfc544b05a25890602001610e06565b6018805460ff191660011790556040516000907faa71a6e005bc4e0ea53d6184338a28d3f4737f18bed30c92d93a239ad5a71747908290a150565b601854610100900460ff166104225760405162461bcd60e51b815260206004820152601460248201527314185d5cd8589b194e881b9bdd081c185d5cd95960621b6044820152606401610dbb565b601854610100900460ff16156104225760405162461bcd60e51b8152602060048201526024808201527f5061757361626c653a207061757365642c207472616e73666572206973206c6f60448201526318dad95960e21b6064820152608401610dbb565b8260058101928215610fae579160200282015b82811115610fae578251825591602001919060010190610f93565b50610fba929150611215565b5090565b5080546000825560060290600052602060002090810190610fdf919061122a565b50565b5080546000825560020290600052602060002090810190610fdf9190611260565b8260028101928215610fae5791602002820182811115610fae578251825591602001919060010190610f93565b60068301918390821561106b579160200282015b8281111561106b57825161105b9083906003611284565b5091602001919060030190611044565b50610fba9291506112b1565b8260078101928215610fae579160200282015b82811115610fae57825182546001600160a01b0319166001600160a01b0390911617825560209092019160019091019061108a565b604051806101400160405280600081526020016000815260200160008152602001600081526020016000815260200160008152602001600081526020016000815260200160008152602001600081525090565b604051806101e001604052806111266112d2565b81526020016111336112f0565b815260200161114061130e565b815260006020820181905260408201819052606082015260800161116261133b565b8152602001600081526020016000815260200160008152602001600015158152602001600015158152602001600063ffffffff1681526020016111c1604051806060016040528060008152602001600081526020016000151581525090565b8152600060209091015290565b8260028101928215610fae5791602002820182811115610fae57825182546001600160a01b0319166001600160a01b0390911617825560209092019160019091019061108a565b5b80821115610fba5760008155600101611216565b80821115610fba57600080825560018201819055600282018190556003820181905560048201819055600582015560060161122a565b5b80821115610fba576000815560018101805463ffffffff19169055600201611261565b8260038101928215610fae5791602002820182811115610fae578251825591602001919060010190610f93565b80821115610fba5760008082556001820181905560028201556003016112b1565b60405180604001604052806002906020820280368337509192915050565b6040518060e001604052806007906020820280368337509192915050565b60405180604001604052806002905b611325611359565b81526020019060019003908161131d5790505090565b6040518060a001604052806005906020820280368337509192915050565b60405180606001604052806003906020820280368337509192915050565b6001600160a01b0381168114610fdf57600080fd5b8035610d3381611377565b6000602082840312156113a957600080fd5b81356113b481611377565b9392505050565b6000602082840312156113cd57600080fd5b813560ff811681146113b457600080fd5b634e487b7160e01b600052604160045260246000fd5b6040516101e0810167ffffffffffffffff81118282101715611418576114186113de565b60405290565b6040805190810167ffffffffffffffff81118282101715611418576114186113de565b6040516060810167ffffffffffffffff81118282101715611418576114186113de565b600061146e61141e565b905080604083018481111561148257600080fd5b835b8181101561149c578035835260209283019201611484565b50505092915050565b600082601f8301126114b657600080fd5b60405160a0810181811067ffffffffffffffff821117156114d9576114d96113de565b6040528060a08401858111156114ee57600080fd5b845b818110156115085780358352602092830192016114f0565b509195945050505050565b600060a0828403121561152557600080fd5b6113b483836114a5565b803563ffffffff81168114610d3357600080fd5b60006020828403121561155557600080fd5b6113b48261152f565b60006020828403121561157057600080fd5b5035919050565b6000806020838503121561158a57600080fd5b823567ffffffffffffffff808211156115a257600080fd5b818501915085601f8301126115b657600080fd5b8135818111156115c557600080fd5b86602060c0830285010111156115da57600080fd5b60209290920196919550909350505050565b6000601f83818401126115fe57600080fd5b61160661141e565b8060c085018681111561161857600080fd5b855b818110156116795787858201126116315760008081fd5b611639611441565b80606083018a81111561164c5760008081fd5b835b8181101561166657803584526020938401930161164e565b505085525060209093019260600161161a565b50909695505050505050565b600060c0828403121561169757600080fd5b6113b483836115ec565b600082601f8301126116b257600080fd5b60405160e0810181811067ffffffffffffffff821117156116d5576116d56113de565b6040528060e08401858111156116ea57600080fd5b845b818110156115085780356116ff81611377565b8352602092830192016116ec565b600060e0828403121561171f57600080fd5b6113b483836116a1565b60208082528251828201819052600091906040908185019086840185805b838110156117ad57825180518652878101518887015286810151878701845b60028110156117835782518252918a0191908a0190600101611766565b5050506060810151608087810191909152015160a086015260c09094019391860191600101611747565b509298975050505050505050565b6000606082840312156117cd57600080fd5b50919050565b8060005b60028110156117ff5781516001600160a01b03168452602093840193909101906001016117d7565b50505050565b8060005b60078110156117ff5781516001600160a01b0316845260209384019390910190600101611809565b806000805b600281101561187c57825185835b6003811015611863578251825260209283019290910190600101611844565b5050506060949094019360209290920191600101611836565b5050505050565b8060005b60058110156117ff578151845260209384019390910190600101611887565b6000610420820190506118ba8284516117d3565b60208301516118cc6040840182611805565b5060408301516101206118e181850183611831565b606085015163ffffffff9081166101e08601526080860151811661020086015260a08601511661022085015260c08501519150611922610240850183611883565b60e08501516102e0850152610100850151610300850152840151610320840152506101408301511515610340830152610160830151151561036083015261018083015163ffffffff166103808301526101a083015180516103a084015260208101516103c08401526040015115156103e08301526101c0909201516001600160a01b03166104009091015290565b600061042082840312156117cd57600080fd5b634e487b7160e01b600052603260045260246000fd5b8015158114610fdf57600080fd5b6000602082840312156119f957600080fd5b81516113b4816119d9565b600060c08284031215611a1657600080fd5b60405160a0810181811067ffffffffffffffff82111715611a3957611a396113de565b8060405250823581526020830135602082015283605f840112611a5b57600080fd5b611a688460408501611464565b60408201526080830135606082015260a083013560808201528091505092915050565b600060018201611aab57634e487b7160e01b600052601160045260246000fd5b5060010190565b8035610d33816119d9565b600060608284031215611acf57600080fd5b6040516060810181811067ffffffffffffffff82111715611af257611af26113de565b806040525080915082358152602083013560208201526040830135611b16816119d9565b6040919091015292915050565b600060608284031215611b3557600080fd5b6113b48383611abd565b600082601f830112611b5057600080fd5b611b5861141e565b806040840185811115611b6a57600080fd5b845b81811015611b8d578035611b7f81611377565b845260209384019301611b6c565b509095945050505050565b60006104208284031215611bab57600080fd5b611bb36113f4565b611bbd8484611b3f565b8152611bcc84604085016116a1565b6020820152610120611be0858286016115ec565b6040830152611bf26101e0850161152f565b6060830152611c04610200850161152f565b6080830152611c16610220850161152f565b60a0830152611c298561024086016114a5565b60c08301526102e084013560e083015261030084013561010083015261032084013590820152611c5c6103408401611ab2565b610140820152611c6f6103608401611ab2565b610160820152611c82610380840161152f565b610180820152611c96846103a08501611abd565b6101a0820152611ca9610400840161138c565b6101c08201529392505050565b8060005b60028110156117ff578135611cce81611377565b6001600160a01b031684526020938401939190910190600101611cba565b8060005b60078110156117ff578135611d0481611377565b6001600160a01b031684526020938401939190910190600101611cf0565b806000805b600281101561187c57606080848737948501828152949290920191600101611d27565b60a081833750600060a082015250565b80358252602081013560208301526040810135611d76816119d9565b8015156040840152505050565b6104208101611d928284611cb6565b611da26040830160408501611cec565b610120611db3818401828601611d22565b506101e0611dc281850161152f565b63ffffffff1690830152610200611dda84820161152f565b63ffffffff1690830152610220611df284820161152f565b63ffffffff1690830152610240611e0d818401858301611d4a565b506102e0838101359083015261030080840135908301526103208084013590830152610340611e3d818501611ab2565b151590830152610360611e51848201611ab2565b151590830152610380611e6584820161152f565b63ffffffff16908301526103a0611e80818401858301611d5a565b50610400611e8f81850161138c565b6001600160a01b031692019190915291905056fea26469706673582212205a8ad20198145f5d3db5bff91c638f1a4a7ea3cde35a788f976ed981f62d779164736f6c634300080f0033",
  "devdoc": {
    "author": "Decentralized Foundation Team",
    "kind": "dev",
    "methods": {},
    "title": "ERC721Facet EIP-2535 Diamond Facet",
    "version": 1
  },
  "userdoc": {
    "kind": "user",
    "methods": {},
    "notice": "The Contract uses diamond storage providing functionality of ERC721, ERC721Enumerable, ERC721Burnable, ERC721Pausable",
    "version": 1
  },
  "storageLayout": {
    "storage": [
      {
        "astId": 4283,
        "contract": "contracts/facets/ConfigFacet.sol:ConfigFacet",
        "label": "s",
        "offset": 0,
        "slot": "0",
        "type": "t_struct(AppStorage)4542_storage"
      }
    ],
    "types": {
      "t_address": {
        "encoding": "inplace",
        "label": "address",
        "numberOfBytes": "20"
      },
      "t_array(t_address)7_storage": {
        "base": "t_address",
        "encoding": "inplace",
        "label": "address[7]",
        "numberOfBytes": "224"
      },
      "t_array(t_array(t_uint256)3_storage)2_storage": {
        "base": "t_array(t_uint256)3_storage",
        "encoding": "inplace",
        "label": "uint256[3][2]",
        "numberOfBytes": "192"
      },
      "t_array(t_contract(IERC20)737)2_storage": {
        "base": "t_contract(IERC20)737",
        "encoding": "inplace",
        "label": "contract IERC20[2]",
        "numberOfBytes": "64"
      },
      "t_array(t_struct(GemTypeConfig)4432_storage)dyn_storage": {
        "base": "t_struct(GemTypeConfig)4432_storage",
        "encoding": "dynamic_array",
        "label": "struct GemTypeConfig[]",
        "numberOfBytes": "32"
      },
      "t_array(t_struct(GemTypeMintWindow)4437_storage)dyn_storage": {
        "base": "t_struct(GemTypeMintWindow)4437_storage",
        "encoding": "dynamic_array",
        "label": "struct GemTypeMintWindow[]",
        "numberOfBytes": "32"
      },
      "t_array(t_uint256)2_storage": {
        "base": "t_uint256",
        "encoding": "inplace",
        "label": "uint256[2]",
        "numberOfBytes": "64"
      },
      "t_array(t_uint256)3_storage": {
        "base": "t_uint256",
        "encoding": "inplace",
        "label": "uint256[3]",
        "numberOfBytes": "96"
      },
      "t_array(t_uint256)5_storage": {
        "base": "t_uint256",
        "encoding": "inplace",
        "label": "uint256[5]",
        "numberOfBytes": "160"
      },
      "t_array(t_uint256)dyn_storage": {
        "base": "t_uint256",
        "encoding": "dynamic_array",
        "label": "uint256[]",
        "numberOfBytes": "32"
      },
      "t_bool": {
        "encoding": "inplace",
        "label": "bool",
        "numberOfBytes": "1"
      },
      "t_contract(IERC20)737": {
        "encoding": "inplace",
        "label": "contract IERC20",
        "numberOfBytes": "20"
      },
      "t_enum(Booster)4459": {
        "encoding": "inplace",
        "label": "enum Booster",
        "numberOfBytes": "1"
      },
      "t_mapping(t_address,t_bool)": {
        "encoding": "mapping",
        "key": "t_address",
        "label": "mapping(address => bool)",
        "numberOfBytes": "32",
        "value": "t_bool"
      },
      "t_mapping(t_address,t_mapping(t_address,t_bool))": {
        "encoding": "mapping",
        "key": "t_address",
        "label": "mapping(address => mapping(address => bool))",
        "numberOfBytes": "32",
        "value": "t_mapping(t_address,t_bool)"
      },
      "t_mapping(t_address,t_mapping(t_uint256,t_uint256))": {
        "encoding": "mapping",
        "key": "t_address",
        "label": "mapping(address => mapping(uint256 => uint256))",
        "numberOfBytes": "32",
        "value": "t_mapping(t_uint256,t_uint256)"
      },
      "t_mapping(t_address,t_mapping(t_uint8,t_mapping(t_enum(Booster)4459,t_uint256)))": {
        "encoding": "mapping",
        "key": "t_address",
        "label": "mapping(address => mapping(uint8 => mapping(enum Booster => uint256)))",
        "numberOfBytes": "32",
        "value": "t_mapping(t_uint8,t_mapping(t_enum(Booster)4459,t_uint256))"
      },
      "t_mapping(t_address,t_struct(Fi)4480_storage)": {
        "encoding": "mapping",
        "key": "t_address",
        "label": "mapping(address => struct Fi)",
        "numberOfBytes": "32",
        "value": "t_struct(Fi)4480_storage"
      },
      "t_mapping(t_address,t_uint256)": {
        "encoding": "mapping",
        "key": "t_address",
        "label": "mapping(address => uint256)",
        "numberOfBytes": "32",
        "value": "t_uint256"
      },
      "t_mapping(t_enum(Booster)4459,t_uint256)": {
        "encoding": "mapping",
        "key": "t_enum(Booster)4459",
        "label": "mapping(enum Booster => uint256)",
        "numberOfBytes": "32",
        "value": "t_uint256"
      },
      "t_mapping(t_uint256,t_address)": {
        "encoding": "mapping",
        "key": "t_uint256",
        "label": "mapping(uint256 => address)",
        "numberOfBytes": "32",
        "value": "t_address"
      },
      "t_mapping(t_uint256,t_struct(Gem)4499_storage)": {
        "encoding": "mapping",
        "key": "t_uint256",
        "label": "mapping(uint256 => struct Gem)",
        "numberOfBytes": "32",
        "value": "t_struct(Gem)4499_storage"
      },
      "t_mapping(t_uint256,t_uint256)": {
        "encoding": "mapping",
        "key": "t_uint256",
        "label": "mapping(uint256 => uint256)",
        "numberOfBytes": "32",
        "value": "t_uint256"
      },
      "t_mapping(t_uint8,t_mapping(t_enum(Booster)4459,t_uint256))": {
        "encoding": "mapping",
        "key": "t_uint8",
        "label": "mapping(uint8 => mapping(enum Booster => uint256))",
        "numberOfBytes": "32",
        "value": "t_mapping(t_enum(Booster)4459,t_uint256)"
      },
      "t_string_storage": {
        "encoding": "bytes",
        "label": "string",
        "numberOfBytes": "32"
      },
      "t_struct(AppStorage)4542_storage": {
        "encoding": "inplace",
        "label": "struct AppStorage",
        "members": [
          {
            "astId": 4502,
            "contract": "contracts/facets/ConfigFacet.sol:ConfigFacet",
            "label": "config",
            "offset": 0,
            "slot": "0",
            "type": "t_struct(ProtocolConfig)4419_storage"
          },
          {
            "astId": 4506,
            "contract": "contracts/facets/ConfigFacet.sol:ConfigFacet",
            "label": "gemTypes",
            "offset": 0,
            "slot": "29",
            "type": "t_array(t_struct(GemTypeConfig)4432_storage)dyn_storage"
          },
          {
            "astId": 4510,
            "contract": "contracts/facets/ConfigFacet.sol:ConfigFacet",
            "label": "gemTypesMintWindows",
            "offset": 0,
            "slot": "30",
            "type": "t_array(t_struct(GemTypeMintWindow)4437_storage)dyn_storage"
          },
          {
            "astId": 4513,
            "contract": "contracts/facets/ConfigFacet.sol:ConfigFacet",
            "label": "defoTokenLimitWindow",
            "offset": 0,
            "slot": "31",
            "type": "t_struct(DEFOTokenLimitWindow)4446_storage"
          },
          {
            "astId": 4518,
            "contract": "contracts/facets/ConfigFacet.sol:ConfigFacet",
            "label": "gems",
            "offset": 0,
            "slot": "33",
            "type": "t_mapping(t_uint256,t_struct(Gem)4499_storage)"
          },
          {
            "astId": 4521,
            "contract": "contracts/facets/ConfigFacet.sol:ConfigFacet",
            "label": "nft",
            "offset": 0,
            "slot": "34",
            "type": "t_struct(ERC721Storage)4351_storage"
          },
          {
            "astId": 4524,
            "contract": "contracts/facets/ConfigFacet.sol:ConfigFacet",
            "label": "total",
            "offset": 0,
            "slot": "47",
            "type": "t_struct(Fi)4480_storage"
          },
          {
            "astId": 4529,
            "contract": "contracts/facets/ConfigFacet.sol:ConfigFacet",
            "label": "usersFi",
            "offset": 0,
            "slot": "57",
            "type": "t_mapping(t_address,t_struct(Fi)4480_storage)"
          },
          {
            "astId": 4538,
            "contract": "contracts/facets/ConfigFacet.sol:ConfigFacet",
            "label": "usersNextGemBooster",
            "offset": 0,
            "slot": "58",
            "type": "t_mapping(t_address,t_mapping(t_uint8,t_mapping(t_enum(Booster)4459,t_uint256)))"
          },
          {
            "astId": 4541,
            "contract": "contracts/facets/ConfigFacet.sol:ConfigFacet",
            "label": "defoTokenLimitPerRewards",
            "offset": 0,
            "slot": "59",
            "type": "t_struct(DEFOTokenLimitPerRewards)4455_storage"
          }
        ],
        "numberOfBytes": "1952"
      },
      "t_struct(Counter)2737_storage": {
        "encoding": "inplace",
        "label": "struct Counters.Counter",
        "members": [
          {
            "astId": 2736,
            "contract": "contracts/facets/ConfigFacet.sol:ConfigFacet",
            "label": "_value",
            "offset": 0,
            "slot": "0",
            "type": "t_uint256"
          }
        ],
        "numberOfBytes": "32"
      },
      "t_struct(DEFOTokenLimitPerRewards)4455_storage": {
        "encoding": "inplace",
        "label": "struct DEFOTokenLimitPerRewards",
        "members": [
          {
            "astId": 4450,
            "contract": "contracts/facets/ConfigFacet.sol:ConfigFacet",
            "label": "tokensSold",
            "offset": 0,
            "slot": "0",
            "type": "t_mapping(t_address,t_uint256)"
          },
          {
            "astId": 4454,
            "contract": "contracts/facets/ConfigFacet.sol:ConfigFacet",
            "label": "timeOfWindowStart",
            "offset": 0,
            "slot": "1",
            "type": "t_mapping(t_address,t_uint256)"
          }
        ],
        "numberOfBytes": "64"
      },
      "t_struct(DEFOTokenLimitWindow)4446_storage": {
        "encoding": "inplace",
        "label": "struct DEFOTokenLimitWindow",
        "members": [
          {
            "astId": 4441,
            "contract": "contracts/facets/ConfigFacet.sol:ConfigFacet",
            "label": "tokensSold",
            "offset": 0,
            "slot": "0",
            "type": "t_mapping(t_address,t_uint256)"
          },
          {
            "astId": 4445,
            "contract": "contracts/facets/ConfigFacet.sol:ConfigFacet",
            "label": "timeOfLastSale",
            "offset": 0,
            "slot": "1",
            "type": "t_mapping(t_address,t_uint256)"
          }
        ],
        "numberOfBytes": "64"
      },
      "t_struct(DefoTokenLimitConfig)4376_storage": {
        "encoding": "inplace",
        "label": "struct DefoTokenLimitConfig",
        "members": [
          {
            "astId": 4371,
            "contract": "contracts/facets/ConfigFacet.sol:ConfigFacet",
            "label": "saleLimitPeriod",
            "offset": 0,
            "slot": "0",
            "type": "t_uint256"
          },
          {
            "astId": 4373,
            "contract": "contracts/facets/ConfigFacet.sol:ConfigFacet",
            "label": "saleLimitAmount",
            "offset": 0,
            "slot": "1",
            "type": "t_uint256"
          },
          {
            "astId": 4375,
            "contract": "contracts/facets/ConfigFacet.sol:ConfigFacet",
            "label": "limitByReward",
            "offset": 0,
            "slot": "2",
            "type": "t_bool"
          }
        ],
        "numberOfBytes": "96"
      },
      "t_struct(ERC721Storage)4351_storage": {
        "encoding": "inplace",
        "label": "struct ERC721Storage",
        "members": [
          {
            "astId": 4306,
            "contract": "contracts/facets/ConfigFacet.sol:ConfigFacet",
            "label": "name",
            "offset": 0,
            "slot": "0",
            "type": "t_string_storage"
          },
          {
            "astId": 4308,
            "contract": "contracts/facets/ConfigFacet.sol:ConfigFacet",
            "label": "symbol",
            "offset": 0,
            "slot": "1",
            "type": "t_string_storage"
          },
          {
            "astId": 4311,
            "contract": "contracts/facets/ConfigFacet.sol:ConfigFacet",
            "label": "tokenIdTracker",
            "offset": 0,
            "slot": "2",
            "type": "t_struct(Counter)2737_storage"
          },
          {
            "astId": 4315,
            "contract": "contracts/facets/ConfigFacet.sol:ConfigFacet",
            "label": "owners",
            "offset": 0,
            "slot": "3",
            "type": "t_mapping(t_uint256,t_address)"
          },
          {
            "astId": 4319,
            "contract": "contracts/facets/ConfigFacet.sol:ConfigFacet",
            "label": "balances",
            "offset": 0,
            "slot": "4",
            "type": "t_mapping(t_address,t_uint256)"
          },
          {
            "astId": 4323,
            "contract": "contracts/facets/ConfigFacet.sol:ConfigFacet",
            "label": "tokenApprovals",
            "offset": 0,
            "slot": "5",
            "type": "t_mapping(t_uint256,t_address)"
          },
          {
            "astId": 4329,
            "contract": "contracts/facets/ConfigFacet.sol:ConfigFacet",
            "label": "operatorApprovals",
            "offset": 0,
            "slot": "6",
            "type": "t_mapping(t_address,t_mapping(t_address,t_bool))"
          },
          {
            "astId": 4331,
            "contract": "contracts/facets/ConfigFacet.sol:ConfigFacet",
            "label": "baseURI",
            "offset": 0,
            "slot": "7",
            "type": "t_string_storage"
          },
          {
            "astId": 4337,
            "contract": "contracts/facets/ConfigFacet.sol:ConfigFacet",
            "label": "ownedTokens",
            "offset": 0,
            "slot": "8",
            "type": "t_mapping(t_address,t_mapping(t_uint256,t_uint256))"
          },
          {
            "astId": 4341,
            "contract": "contracts/facets/ConfigFacet.sol:ConfigFacet",
            "label": "ownedTokensIndex",
            "offset": 0,
            "slot": "9",
            "type": "t_mapping(t_uint256,t_uint256)"
          },
          {
            "astId": 4344,
            "contract": "contracts/facets/ConfigFacet.sol:ConfigFacet",
            "label": "allTokens",
            "offset": 0,
            "slot": "10",
            "type": "t_array(t_uint256)dyn_storage"
          },
          {
            "astId": 4348,
            "contract": "contracts/facets/ConfigFacet.sol:ConfigFacet",
            "label": "allTokensIndex",
            "offset": 0,
            "slot": "11",
            "type": "t_mapping(t_uint256,t_uint256)"
          },
          {
            "astId": 4350,
            "contract": "contracts/facets/ConfigFacet.sol:ConfigFacet",
            "label": "init",
            "offset": 0,
            "slot": "12",
            "type": "t_bool"
          }
        ],
        "numberOfBytes": "416"
      },
      "t_struct(Fi)4480_storage": {
        "encoding": "inplace",
        "label": "struct Fi",
        "members": [
          {
            "astId": 4461,
            "contract": "contracts/facets/ConfigFacet.sol:ConfigFacet",
            "label": "claimedGross",
            "offset": 0,
            "slot": "0",
            "type": "t_uint256"
          },
          {
            "astId": 4463,
            "contract": "contracts/facets/ConfigFacet.sol:ConfigFacet",
            "label": "claimedNet",
            "offset": 0,
            "slot": "1",
            "type": "t_uint256"
          },
          {
            "astId": 4465,
            "contract": "contracts/facets/ConfigFacet.sol:ConfigFacet",
            "label": "stakedGross",
            "offset": 0,
            "slot": "2",
            "type": "t_uint256"
          },
          {
            "astId": 4467,
            "contract": "contracts/facets/ConfigFacet.sol:ConfigFacet",
            "label": "stakedNet",
            "offset": 0,
            "slot": "3",
            "type": "t_uint256"
          },
          {
            "astId": 4469,
            "contract": "contracts/facets/ConfigFacet.sol:ConfigFacet",
            "label": "unStakedGross",
            "offset": 0,
            "slot": "4",
            "type": "t_uint256"
          },
          {
            "astId": 4471,
            "contract": "contracts/facets/ConfigFacet.sol:ConfigFacet",
            "label": "unStakedGrossUp",
            "offset": 0,
            "slot": "5",
            "type": "t_uint256"
          },
          {
            "astId": 4473,
            "contract": "contracts/facets/ConfigFacet.sol:ConfigFacet",
            "label": "unStakedNet",
            "offset": 0,
            "slot": "6",
            "type": "t_uint256"
          },
          {
            "astId": 4475,
            "contract": "contracts/facets/ConfigFacet.sol:ConfigFacet",
            "label": "donated",
            "offset": 0,
            "slot": "7",
            "type": "t_uint256"
          },
          {
            "astId": 4477,
            "contract": "contracts/facets/ConfigFacet.sol:ConfigFacet",
            "label": "claimTaxPaid",
            "offset": 0,
            "slot": "8",
            "type": "t_uint256"
          },
          {
            "astId": 4479,
            "contract": "contracts/facets/ConfigFacet.sol:ConfigFacet",
            "label": "vaultTaxPaid",
            "offset": 0,
            "slot": "9",
            "type": "t_uint256"
          }
        ],
        "numberOfBytes": "320"
      },
      "t_struct(Gem)4499_storage": {
        "encoding": "inplace",
        "label": "struct Gem",
        "members": [
          {
            "astId": 4482,
            "contract": "contracts/facets/ConfigFacet.sol:ConfigFacet",
            "label": "gemTypeId",
            "offset": 0,
            "slot": "0",
            "type": "t_uint8"
          },
          {
            "astId": 4485,
            "contract": "contracts/facets/ConfigFacet.sol:ConfigFacet",
            "label": "booster",
            "offset": 1,
            "slot": "0",
            "type": "t_enum(Booster)4459"
          },
          {
            "astId": 4487,
            "contract": "contracts/facets/ConfigFacet.sol:ConfigFacet",
            "label": "mintTime",
            "offset": 2,
            "slot": "0",
            "type": "t_uint32"
          },
          {
            "astId": 4489,
            "contract": "contracts/facets/ConfigFacet.sol:ConfigFacet",
            "label": "lastRewardWithdrawalTime",
            "offset": 6,
            "slot": "0",
            "type": "t_uint32"
          },
          {
            "astId": 4491,
            "contract": "contracts/facets/ConfigFacet.sol:ConfigFacet",
            "label": "lastMaintenanceTime",
            "offset": 10,
            "slot": "0",
            "type": "t_uint32"
          },
          {
            "astId": 4494,
            "contract": "contracts/facets/ConfigFacet.sol:ConfigFacet",
            "label": "fi",
            "offset": 0,
            "slot": "1",
            "type": "t_struct(Fi)4480_storage"
          },
          {
            "astId": 4496,
            "contract": "contracts/facets/ConfigFacet.sol:ConfigFacet",
            "label": "presold",
            "offset": 0,
            "slot": "11",
            "type": "t_bool"
          },
          {
            "astId": 4498,
            "contract": "contracts/facets/ConfigFacet.sol:ConfigFacet",
            "label": "maintenanceFeePaid",
            "offset": 0,
            "slot": "12",
            "type": "t_uint256"
          }
        ],
        "numberOfBytes": "416"
      },
      "t_struct(GemTypeConfig)4432_storage": {
        "encoding": "inplace",
        "label": "struct GemTypeConfig",
        "members": [
          {
            "astId": 4421,
            "contract": "contracts/facets/ConfigFacet.sol:ConfigFacet",
            "label": "maintenanceFeeDai",
            "offset": 0,
            "slot": "0",
            "type": "t_uint256"
          },
          {
            "astId": 4423,
            "contract": "contracts/facets/ConfigFacet.sol:ConfigFacet",
            "label": "rewardAmountDefo",
            "offset": 0,
            "slot": "1",
            "type": "t_uint256"
          },
          {
            "astId": 4427,
            "contract": "contracts/facets/ConfigFacet.sol:ConfigFacet",
            "label": "price",
            "offset": 0,
            "slot": "2",
            "type": "t_array(t_uint256)2_storage"
          },
          {
            "astId": 4429,
            "contract": "contracts/facets/ConfigFacet.sol:ConfigFacet",
            "label": "taperRewardsThresholdDefo",
            "offset": 0,
            "slot": "4",
            "type": "t_uint256"
          },
          {
            "astId": 4431,
            "contract": "contracts/facets/ConfigFacet.sol:ConfigFacet",
            "label": "maxMintsPerLimitWindow",
            "offset": 0,
            "slot": "5",
            "type": "t_uint256"
          }
        ],
        "numberOfBytes": "192"
      },
      "t_struct(GemTypeMintWindow)4437_storage": {
        "encoding": "inplace",
        "label": "struct GemTypeMintWindow",
        "members": [
          {
            "astId": 4434,
            "contract": "contracts/facets/ConfigFacet.sol:ConfigFacet",
            "label": "mintCount",
            "offset": 0,
            "slot": "0",
            "type": "t_uint256"
          },
          {
            "astId": 4436,
            "contract": "contracts/facets/ConfigFacet.sol:ConfigFacet",
            "label": "endOfMintLimitWindow",
            "offset": 0,
            "slot": "1",
            "type": "t_uint32"
          }
        ],
        "numberOfBytes": "64"
      },
      "t_struct(ProtocolConfig)4419_storage": {
        "encoding": "inplace",
        "label": "struct ProtocolConfig",
        "members": [
          {
            "astId": 4381,
            "contract": "contracts/facets/ConfigFacet.sol:ConfigFacet",
            "label": "paymentTokens",
            "offset": 0,
            "slot": "0",
            "type": "t_array(t_contract(IERC20)737)2_storage"
          },
          {
            "astId": 4385,
            "contract": "contracts/facets/ConfigFacet.sol:ConfigFacet",
            "label": "wallets",
            "offset": 0,
            "slot": "2",
            "type": "t_array(t_address)7_storage"
          },
          {
            "astId": 4391,
            "contract": "contracts/facets/ConfigFacet.sol:ConfigFacet",
            "label": "incomeDistributionOnMint",
            "offset": 0,
            "slot": "9",
            "type": "t_array(t_array(t_uint256)3_storage)2_storage"
          },
          {
            "astId": 4393,
            "contract": "contracts/facets/ConfigFacet.sol:ConfigFacet",
            "label": "maintenancePeriod",
            "offset": 0,
            "slot": "15",
            "type": "t_uint32"
          },
          {
            "astId": 4395,
            "contract": "contracts/facets/ConfigFacet.sol:ConfigFacet",
            "label": "rewardPeriod",
            "offset": 4,
            "slot": "15",
            "type": "t_uint32"
          },
          {
            "astId": 4397,
            "contract": "contracts/facets/ConfigFacet.sol:ConfigFacet",
            "label": "taxScaleSinceLastClaimPeriod",
            "offset": 8,
            "slot": "15",
            "type": "t_uint32"
          },
          {
            "astId": 4401,
            "contract": "contracts/facets/ConfigFacet.sol:ConfigFacet",
            "label": "taxRates",
            "offset": 0,
            "slot": "16",
            "type": "t_array(t_uint256)5_storage"
          },
          {
            "astId": 4403,
            "contract": "contracts/facets/ConfigFacet.sol:ConfigFacet",
            "label": "charityContributionRate",
            "offset": 0,
            "slot": "21",
            "type": "t_uint256"
          },
          {
            "astId": 4405,
            "contract": "contracts/facets/ConfigFacet.sol:ConfigFacet",
            "label": "vaultWithdrawalTaxRate",
            "offset": 0,
            "slot": "22",
            "type": "t_uint256"
          },
          {
            "astId": 4407,
            "contract": "contracts/facets/ConfigFacet.sol:ConfigFacet",
            "label": "taperRate",
            "offset": 0,
            "slot": "23",
            "type": "t_uint256"
          },
          {
            "astId": 4409,
            "contract": "contracts/facets/ConfigFacet.sol:ConfigFacet",
            "label": "mintLock",
            "offset": 0,
            "slot": "24",
            "type": "t_bool"
          },
          {
            "astId": 4411,
            "contract": "contracts/facets/ConfigFacet.sol:ConfigFacet",
            "label": "transferLock",
            "offset": 1,
            "slot": "24",
            "type": "t_bool"
          },
          {
            "astId": 4413,
            "contract": "contracts/facets/ConfigFacet.sol:ConfigFacet",
            "label": "mintLimitWindow",
            "offset": 2,
            "slot": "24",
            "type": "t_uint32"
          },
          {
            "astId": 4416,
            "contract": "contracts/facets/ConfigFacet.sol:ConfigFacet",
            "label": "defoTokenLimitConfig",
            "offset": 0,
            "slot": "25",
            "type": "t_struct(DefoTokenLimitConfig)4376_storage"
          },
          {
            "astId": 4418,
            "contract": "contracts/facets/ConfigFacet.sol:ConfigFacet",
            "label": "routerWallet",
            "offset": 0,
            "slot": "28",
            "type": "t_address"
          }
        ],
        "numberOfBytes": "928"
      },
      "t_uint256": {
        "encoding": "inplace",
        "label": "uint256",
        "numberOfBytes": "32"
      },
      "t_uint32": {
        "encoding": "inplace",
        "label": "uint32",
        "numberOfBytes": "4"
      },
      "t_uint8": {
        "encoding": "inplace",
        "label": "uint8",
        "numberOfBytes": "1"
      }
    }
  }
}