{
  "address": "0xB8427FF97E3E07Fd1e5a979461d6F2626c71d6b3",
  "abi": [
    {
      "anonymous": false,
      "inputs": [
        {
          "components": [
            {
              "internalType": "contract IERC20[2]",
              "name": "paymentTokens",
              "type": "address[2]"
            },
            {
              "internalType": "address[7]",
              "name": "wallets",
              "type": "address[7]"
            },
            {
              "internalType": "uint256[3][2]",
              "name": "incomeDistributionOnMint",
              "type": "uint256[3][2]"
            },
            {
              "internalType": "uint32",
              "name": "maintenancePeriod",
              "type": "uint32"
            },
            {
              "internalType": "uint32",
              "name": "rewardPeriod",
              "type": "uint32"
            },
            {
              "internalType": "uint32",
              "name": "taxScaleSinceLastClaimPeriod",
              "type": "uint32"
            },
            {
              "internalType": "uint256[5]",
              "name": "taxRates",
              "type": "uint256[5]"
            },
            {
              "internalType": "uint256",
              "name": "charityContributionRate",
              "type": "uint256"
            },
            {
              "internalType": "uint256",
              "name": "vaultWithdrawalTaxRate",
              "type": "uint256"
            },
            {
              "internalType": "uint256",
              "name": "taperRate",
              "type": "uint256"
            },
            {
              "internalType": "bool",
              "name": "mintLock",
              "type": "bool"
            },
            {
              "internalType": "bool",
              "name": "transferLock",
              "type": "bool"
            },
            {
              "internalType": "uint32",
              "name": "mintLimitWindow",
              "type": "uint32"
            },
            {
              "components": [
                {
                  "internalType": "uint256",
                  "name": "saleLimitPeriod",
                  "type": "uint256"
                },
                {
                  "internalType": "uint256",
                  "name": "saleLimitAmount",
                  "type": "uint256"
                },
                {
                  "internalType": "bool",
                  "name": "limitByReward",
                  "type": "bool"
                }
              ],
              "internalType": "struct DefoTokenLimitConfig",
              "name": "defoTokenLimitConfig",
              "type": "tuple"
            }
          ],
          "indexed": false,
          "internalType": "struct ProtocolConfig",
          "name": "config",
          "type": "tuple"
        }
      ],
      "name": "ConfigurationChange",
      "type": "event"
    },
    {
      "anonymous": false,
      "inputs": [
        {
          "components": [
            {
              "internalType": "uint256",
              "name": "maintenanceFeeDai",
              "type": "uint256"
            },
            {
              "internalType": "uint256",
              "name": "rewardAmountDefo",
              "type": "uint256"
            },
            {
              "internalType": "uint256[2]",
              "name": "price",
              "type": "uint256[2]"
            },
            {
              "internalType": "uint256",
              "name": "taperRewardsThresholdDefo",
              "type": "uint256"
            },
            {
              "internalType": "uint8",
              "name": "maxMintsPerLimitWindow",
              "type": "uint8"
            }
          ],
          "indexed": false,
          "internalType": "struct GemTypeConfig",
          "name": "_gemTypeConfig",
          "type": "tuple"
        }
      ],
      "name": "GemTypeConfigurationChange",
      "type": "event"
    },
    {
      "inputs": [],
      "name": "getConfig",
      "outputs": [
        {
          "components": [
            {
              "internalType": "contract IERC20[2]",
              "name": "paymentTokens",
              "type": "address[2]"
            },
            {
              "internalType": "address[7]",
              "name": "wallets",
              "type": "address[7]"
            },
            {
              "internalType": "uint256[3][2]",
              "name": "incomeDistributionOnMint",
              "type": "uint256[3][2]"
            },
            {
              "internalType": "uint32",
              "name": "maintenancePeriod",
              "type": "uint32"
            },
            {
              "internalType": "uint32",
              "name": "rewardPeriod",
              "type": "uint32"
            },
            {
              "internalType": "uint32",
              "name": "taxScaleSinceLastClaimPeriod",
              "type": "uint32"
            },
            {
              "internalType": "uint256[5]",
              "name": "taxRates",
              "type": "uint256[5]"
            },
            {
              "internalType": "uint256",
              "name": "charityContributionRate",
              "type": "uint256"
            },
            {
              "internalType": "uint256",
              "name": "vaultWithdrawalTaxRate",
              "type": "uint256"
            },
            {
              "internalType": "uint256",
              "name": "taperRate",
              "type": "uint256"
            },
            {
              "internalType": "bool",
              "name": "mintLock",
              "type": "bool"
            },
            {
              "internalType": "bool",
              "name": "transferLock",
              "type": "bool"
            },
            {
              "internalType": "uint32",
              "name": "mintLimitWindow",
              "type": "uint32"
            },
            {
              "components": [
                {
                  "internalType": "uint256",
                  "name": "saleLimitPeriod",
                  "type": "uint256"
                },
                {
                  "internalType": "uint256",
                  "name": "saleLimitAmount",
                  "type": "uint256"
                },
                {
                  "internalType": "bool",
                  "name": "limitByReward",
                  "type": "bool"
                }
              ],
              "internalType": "struct DefoTokenLimitConfig",
              "name": "defoTokenLimitConfig",
              "type": "tuple"
            }
          ],
          "internalType": "struct ProtocolConfig",
          "name": "",
          "type": "tuple"
        }
      ],
      "stateMutability": "view",
      "type": "function"
    },
    {
      "inputs": [],
      "name": "getGemTypesConfig",
      "outputs": [
        {
          "components": [
            {
              "internalType": "uint256",
              "name": "maintenanceFeeDai",
              "type": "uint256"
            },
            {
              "internalType": "uint256",
              "name": "rewardAmountDefo",
              "type": "uint256"
            },
            {
              "internalType": "uint256[2]",
              "name": "price",
              "type": "uint256[2]"
            },
            {
              "internalType": "uint256",
              "name": "taperRewardsThresholdDefo",
              "type": "uint256"
            },
            {
              "internalType": "uint8",
              "name": "maxMintsPerLimitWindow",
              "type": "uint8"
            }
          ],
          "internalType": "struct GemTypeConfig[]",
          "name": "",
          "type": "tuple[]"
        }
      ],
      "stateMutability": "view",
      "type": "function"
    },
    {
      "inputs": [],
      "name": "lockMint",
      "outputs": [],
      "stateMutability": "nonpayable",
      "type": "function"
    },
    {
      "inputs": [],
      "name": "pause",
      "outputs": [],
      "stateMutability": "nonpayable",
      "type": "function"
    },
    {
      "inputs": [
        {
          "internalType": "uint256",
          "name": "_charityContributionRate",
          "type": "uint256"
        }
      ],
      "name": "setCharityContributionRate",
      "outputs": [],
      "stateMutability": "nonpayable",
      "type": "function"
    },
    {
      "inputs": [
        {
          "components": [
            {
              "internalType": "contract IERC20[2]",
              "name": "paymentTokens",
              "type": "address[2]"
            },
            {
              "internalType": "address[7]",
              "name": "wallets",
              "type": "address[7]"
            },
            {
              "internalType": "uint256[3][2]",
              "name": "incomeDistributionOnMint",
              "type": "uint256[3][2]"
            },
            {
              "internalType": "uint32",
              "name": "maintenancePeriod",
              "type": "uint32"
            },
            {
              "internalType": "uint32",
              "name": "rewardPeriod",
              "type": "uint32"
            },
            {
              "internalType": "uint32",
              "name": "taxScaleSinceLastClaimPeriod",
              "type": "uint32"
            },
            {
              "internalType": "uint256[5]",
              "name": "taxRates",
              "type": "uint256[5]"
            },
            {
              "internalType": "uint256",
              "name": "charityContributionRate",
              "type": "uint256"
            },
            {
              "internalType": "uint256",
              "name": "vaultWithdrawalTaxRate",
              "type": "uint256"
            },
            {
              "internalType": "uint256",
              "name": "taperRate",
              "type": "uint256"
            },
            {
              "internalType": "bool",
              "name": "mintLock",
              "type": "bool"
            },
            {
              "internalType": "bool",
              "name": "transferLock",
              "type": "bool"
            },
            {
              "internalType": "uint32",
              "name": "mintLimitWindow",
              "type": "uint32"
            },
            {
              "components": [
                {
                  "internalType": "uint256",
                  "name": "saleLimitPeriod",
                  "type": "uint256"
                },
                {
                  "internalType": "uint256",
                  "name": "saleLimitAmount",
                  "type": "uint256"
                },
                {
                  "internalType": "bool",
                  "name": "limitByReward",
                  "type": "bool"
                }
              ],
              "internalType": "struct DefoTokenLimitConfig",
              "name": "defoTokenLimitConfig",
              "type": "tuple"
            }
          ],
          "internalType": "struct ProtocolConfig",
          "name": "_config",
          "type": "tuple"
        }
      ],
      "name": "setConfig",
      "outputs": [],
      "stateMutability": "nonpayable",
      "type": "function"
    },
    {
      "inputs": [
        {
          "components": [
            {
              "internalType": "uint256",
              "name": "saleLimitPeriod",
              "type": "uint256"
            },
            {
              "internalType": "uint256",
              "name": "saleLimitAmount",
              "type": "uint256"
            },
            {
              "internalType": "bool",
              "name": "limitByReward",
              "type": "bool"
            }
          ],
          "internalType": "struct DefoTokenLimitConfig",
          "name": "_defoTokenLimitConfig",
          "type": "tuple"
        }
      ],
      "name": "setConfigDefoTokenLimitConfig",
      "outputs": [],
      "stateMutability": "nonpayable",
      "type": "function"
    },
    {
      "inputs": [
        {
          "internalType": "uint256[3][2]",
          "name": "_incomeDistributionOnMint",
          "type": "uint256[3][2]"
        }
      ],
      "name": "setConfigIncomeDistributionOnMint",
      "outputs": [],
      "stateMutability": "nonpayable",
      "type": "function"
    },
    {
      "inputs": [
        {
          "internalType": "uint32",
          "name": "_maintenancePeriod",
          "type": "uint32"
        }
      ],
      "name": "setConfigMaintenancePeriod",
      "outputs": [],
      "stateMutability": "nonpayable",
      "type": "function"
    },
    {
      "inputs": [
        {
          "internalType": "uint32",
          "name": "_mintLimitWindow",
          "type": "uint32"
        }
      ],
      "name": "setConfigMintLimitWindow",
      "outputs": [],
      "stateMutability": "nonpayable",
      "type": "function"
    },
    {
      "inputs": [
        {
          "internalType": "uint32",
          "name": "_rewardPeriod",
          "type": "uint32"
        }
      ],
      "name": "setConfigRewardPeriod",
      "outputs": [],
      "stateMutability": "nonpayable",
      "type": "function"
    },
    {
      "inputs": [
        {
          "internalType": "uint256",
          "name": "_taperRate",
          "type": "uint256"
        }
      ],
      "name": "setConfigTaperRate",
      "outputs": [],
      "stateMutability": "nonpayable",
      "type": "function"
    },
    {
      "inputs": [
        {
          "internalType": "uint256[5]",
          "name": "_taxRates",
          "type": "uint256[5]"
        }
      ],
      "name": "setConfigTaxRates",
      "outputs": [],
      "stateMutability": "nonpayable",
      "type": "function"
    },
    {
      "inputs": [
        {
          "internalType": "uint32",
          "name": "_taxScaleSinceLastClaimPeriod",
          "type": "uint32"
        }
      ],
      "name": "setConfigTaxScaleSinceLastClaimPeriod",
      "outputs": [],
      "stateMutability": "nonpayable",
      "type": "function"
    },
    {
      "inputs": [
        {
          "internalType": "uint256",
          "name": "_vaultWithdrawalTaxRate",
          "type": "uint256"
        }
      ],
      "name": "setConfigVaultWithdrawalTaxRate",
      "outputs": [],
      "stateMutability": "nonpayable",
      "type": "function"
    },
    {
      "inputs": [
        {
          "internalType": "address[7]",
          "name": "_wallets",
          "type": "address[7]"
        }
      ],
      "name": "setConfigWallets",
      "outputs": [],
      "stateMutability": "nonpayable",
      "type": "function"
    },
    {
      "inputs": [
        {
          "components": [
            {
              "internalType": "uint256",
              "name": "maintenanceFeeDai",
              "type": "uint256"
            },
            {
              "internalType": "uint256",
              "name": "rewardAmountDefo",
              "type": "uint256"
            },
            {
              "internalType": "uint256[2]",
              "name": "price",
              "type": "uint256[2]"
            },
            {
              "internalType": "uint256",
              "name": "taperRewardsThresholdDefo",
              "type": "uint256"
            },
            {
              "internalType": "uint8",
              "name": "maxMintsPerLimitWindow",
              "type": "uint8"
            }
          ],
          "internalType": "struct GemTypeConfig[]",
          "name": "_gemTypeConfig",
          "type": "tuple[]"
        }
      ],
      "name": "setGemTypesConfig",
      "outputs": [],
      "stateMutability": "nonpayable",
      "type": "function"
    },
    {
      "inputs": [],
      "name": "unlockMint",
      "outputs": [],
      "stateMutability": "nonpayable",
      "type": "function"
    },
    {
      "inputs": [],
      "name": "unpause",
      "outputs": [],
      "stateMutability": "nonpayable",
      "type": "function"
    }
  ],
  "transactionHash": "0xf02415b064b1d3f07d9e0fa30829e0f73f1f1cc902a031987533ee82447f1072",
  "args": [],
  "numDeployments": 1,
  "solcInputHash": "d8f7fc12f2c999751abaddf75b0e79fd",
  "bytecode": "0x608060405234801561001057600080fd5b50611ac6806100206000396000f3fe608060405234801561001057600080fd5b50600436106101215760003560e01c806375830a31116100ad5780638ad15c21116100715780638ad15c211461021c5780639956d1db1461022f578063c3f909d414610242578063d864d02a14610257578063e0b6bb671461026a57600080fd5b806375830a31146101bd57806383c7d152146101d05780638456cb59146101e35780638838640e146101eb5780638a1ad3251461020957600080fd5b8063683da553116100f4578063683da5531461015e578063685e2a9a1461017157806369d40589146101845780636bcb63d6146101975780636bfe99ec146101aa57600080fd5b80633f4ba83a1461012657806341ef35c6146101305780635a9a664f1461014357806364fa26671461014b575b600080fd5b61012e610272565b005b61012e61013e366004611144565b610284565b61012e61029d565b61012e610159366004611167565b6102ad565b61012e61016c366004611199565b610455565b61012e61017f3660046111b4565b610481565b61012e610192366004611199565b61048e565b61012e6101a5366004611199565b6104bc565b61012e6101b8366004611266565b6104ec565b61012e6101cb366004611282565b610501565b61012e6101de366004611378565b6106c0565b61012e6106d5565b6101f36106e5565b6040516102009190611394565b60405180910390f35b61012e610217366004611199565b6107a9565b61012e61022a3660046111b4565b6107cd565b61012e61023d366004611429565b6107da565b61024a610819565b604051610200919061150e565b61012e6102653660046111b4565b610a09565b61012e610a16565b61027a610a26565b610282610ab2565b565b61028c610a26565b6102996010826005610c6e565b5050565b6102a5610a26565b610282610aff565b6102b5610a26565b60006102c6368390038301836116d3565b805190915081906000906102dd9082906002610cac565b5060208201516102f39060028301906007610cf4565b5060408201516103099060098301906002610d3b565b506060820151600f82018054608085015160a086015163ffffffff908116600160401b0263ffffffff60401b199282166401000000000267ffffffffffffffff199094169190951617919091171691909117905560c08201516103729060108301906005610c6e565b5060e08201516015820155610100808301516016830155610120830151601783015561014083015160188301805461016086015161018087015161ffff1990921693151561ff001916939093179215159093029190911765ffffffff000019166201000063ffffffff909316929092029190911790556101a090910151805160198301556020810151601a830155604090810151601b909201805460ff191692151592909217909155517fe187417c9675ae5cc80acb8ab43a9ae12145aa303ca0ea50e84d060e5ef46aa7906104499084906118a7565b60405180910390a15050565b61045d610a26565b6018805463ffffffff909216620100000265ffffffff000019909216919091179055565b610489610a26565b601555565b610496610a26565b600f805463ffffffff909216600160401b0263ffffffff60401b19909216919091179055565b6104c4610a26565b600f805463ffffffff9092166401000000000267ffffffff0000000019909216919091179055565b6104f4610a26565b6102996009826002610d3b565b610509610a26565b610515601c6000610d82565b610521601d6000610da6565b60005b818110156106bb576000838383818110610540576105406119a4565b905060c0020180360381019061055691906119ba565b601c8054600181018255600091909152815160069091027f0e4562a10381dec21b205ed72637e6b1b523bdd0e4d4d50af5cd23dd4500a211810191825560208301517f0e4562a10381dec21b205ed72637e6b1b523bdd0e4d4d50af5cd23dd4500a212820155604083015192935083926105f4917f0e4562a10381dec21b205ed72637e6b1b523bdd0e4d4d50af5cd23dd4500a21301906002610dc7565b50606082015160048201556080909101516005909101805460ff191660ff909216919091179055506040805180820190915260008082524263ffffffff90811660208401908152601d8054600181018255935292517f6d4407e7be21f808e6509aa9fa9143369579dd7d760fe20a2c09680fc146134f60029093029283015591517f6d4407e7be21f808e6509aa9fa9143369579dd7d760fe20a2c09680fc1461350909101805463ffffffff191691909216179055806106b381611a4d565b915050610524565b505050565b6106c8610a26565b6102996002826007610cf4565b6106dd610a26565b610282610b37565b60606000601c01805480602002602001604051908101604052809291908181526020016000905b828210156107a05760008481526020908190206040805160a081018252600686029092018054835260018101549383019390935280518082018083529293929184019160028085019182845b815481526020019060010190808311610758575050509183525050600482015460208083019190915260059092015460ff16604090910152908252600192909201910161070c565b50505050905090565b6107b1610a26565b600f805463ffffffff191663ffffffff92909216919091179055565b6107d5610a26565b601655565b6107e2610a26565b60006107f336839003830183611a74565b80516019556020810151601a5560400151601b805460ff19169115159190911790555050565b610821610df4565b6040805161020081019091526000816101c081018260028282826020028201915b81546001600160a01b031681526001909101906020018083116108425750505091835250506040805160e081019182905260209092019190600284019060079082845b81546001600160a01b03168152600190910190602001808311610885575050509183525050604080518082019091526020909101906009830160026000835b8282101561090b5760408051606081019182905290600384810287019182845b8154815260200190600101908083116108e4575050505050815260200190600101906108c4565b50505090825250600f82015463ffffffff808216602084015264010000000082048116604080850191909152600160401b909204166060830152805160a081019182905260809092019190601084019060059082845b815481526020019060010190808311610961575050509183525050601582015460208083019190915260168301546040808401919091526017840154606080850191909152601885015460ff8082161515608087015261010082048116151560a08701526201000090910463ffffffff1660c08601528251918201835260198601548252601a86015493820193909352601b9094015490911615159083015260e00152919050565b610a11610a26565b601755565b610a1e610a26565b610282610b81565b7fc8fcad8db84d3cc18b4c41d551ea0ee66dd599cde068d998e57d5e09332c131c600401546001600160a01b031633146102825760405162461bcd60e51b815260206004820152602260248201527f4c69624469616d6f6e643a204d75737420626520636f6e7472616374206f776e60448201526132b960f11b60648201526084015b60405180910390fd5b610aba610bbc565b6018805461ff00191690556040513381526000907f5db9ee0a495bf2e6ff9c91a7834c1ba4fdd244a5e8aa4e537bd38aeae4b073aa906020015b60405180910390a150565b6018805460ff191690556040516000907f16fe33fab5fd851b7e9a856a666ea43cc5515bbb51689c3d370085d004418123908290a150565b610b3f610c0a565b6018805461ff0019166101001790556040513381526000907f62e78cea01bee320cd4e420270b5ea74000d11b0c9f74754ebdbfc544b05a25890602001610af4565b6018805460ff191660011790556040516000907faa71a6e005bc4e0ea53d6184338a28d3f4737f18bed30c92d93a239ad5a71747908290a150565b601854610100900460ff166102825760405162461bcd60e51b815260206004820152601460248201527314185d5cd8589b194e881b9bdd081c185d5cd95960621b6044820152606401610aa9565b601854610100900460ff16156102825760405162461bcd60e51b8152602060048201526024808201527f5061757361626c653a207061757365642c207472616e73666572206973206c6f60448201526318dad95960e21b6064820152608401610aa9565b8260058101928215610c9c579160200282015b82811115610c9c578251825591602001919060010190610c81565b50610ca8929150610ea8565b5090565b8260028101928215610c9c579160200282015b82811115610c9c57825182546001600160a01b0319166001600160a01b03909116178255602090920191600190910190610cbf565b8260078101928215610c9c5791602002820182811115610c9c57825182546001600160a01b0319166001600160a01b03909116178255602090920191600190910190610cbf565b600683019183908215610d76579160200282015b82811115610d76578251610d669083906003610ebd565b5091602001919060030190610d4f565b50610ca8929150610eea565b5080546000825560060290600052602060002090810190610da39190610f0b565b50565b5080546000825560020290600052602060002090810190610da39190610f46565b8260028101928215610c9c5791602002820182811115610c9c578251825591602001919060010190610c81565b604051806101c00160405280610e08610f6a565b8152602001610e15610f88565b8152602001610e22610fa6565b8152600060208201819052604082018190526060820152608001610e44610fd3565b8152602001600081526020016000815260200160008152602001600015158152602001600015158152602001600063ffffffff168152602001610ea3604051806060016040528060008152602001600081526020016000151581525090565b905290565b5b80821115610ca85760008155600101610ea9565b8260038101928215610c9c5791602002820182811115610c9c578251825591602001919060010190610c81565b80821115610ca8576000808255600182018190556002820155600301610eea565b80821115610ca8576000808255600182018190556002820181905560038201819055600482015560058101805460ff19169055600601610f0b565b5b80821115610ca8576000815560018101805463ffffffff19169055600201610f47565b60405180604001604052806002906020820280368337509192915050565b6040518060e001604052806007906020820280368337509192915050565b60405180604001604052806002905b610fbd610ff1565b815260200190600190039081610fb55790505090565b6040518060a001604052806005906020820280368337509192915050565b60405180606001604052806003906020820280368337509192915050565b634e487b7160e01b600052604160045260246000fd5b6040516101c0810167ffffffffffffffff811182821017156110495761104961100f565b60405290565b6040805190810167ffffffffffffffff811182821017156110495761104961100f565b6040516060810167ffffffffffffffff811182821017156110495761104961100f565b600061109f61104f565b90508060408301848111156110b357600080fd5b835b818110156110cd5780358352602092830192016110b5565b50505092915050565b600082601f8301126110e757600080fd5b60405160a0810181811067ffffffffffffffff8211171561110a5761110a61100f565b6040528060a084018581111561111f57600080fd5b845b81811015611139578035835260209283019201611121565b509195945050505050565b600060a0828403121561115657600080fd5b61116083836110d6565b9392505050565b6000610400828403121561117a57600080fd5b50919050565b803563ffffffff8116811461119457600080fd5b919050565b6000602082840312156111ab57600080fd5b61116082611180565b6000602082840312156111c657600080fd5b5035919050565b6000601f83818401126111df57600080fd5b6111e761104f565b8060c08501868111156111f957600080fd5b855b8181101561125a5787858201126112125760008081fd5b61121a611072565b80606083018a81111561122d5760008081fd5b835b8181101561124757803584526020938401930161122f565b50508552506020909301926060016111fb565b50909695505050505050565b600060c0828403121561127857600080fd5b61116083836111cd565b6000806020838503121561129557600080fd5b823567ffffffffffffffff808211156112ad57600080fd5b818501915085601f8301126112c157600080fd5b8135818111156112d057600080fd5b86602060c0830285010111156112e557600080fd5b60209290920196919550909350505050565b6001600160a01b0381168114610da357600080fd5b600082601f83011261131d57600080fd5b60405160e0810181811067ffffffffffffffff821117156113405761134061100f565b6040528060e084018581111561135557600080fd5b845b8181101561113957803561136a816112f7565b835260209283019201611357565b600060e0828403121561138a57600080fd5b611160838361130c565b60208082528251828201819052600091906040908185019086840185805b8381101561141b57825180518652878101518887015286810151878701845b60028110156113ee5782518252918a0191908a01906001016113d1565b5050506060810151608087810191909152015160ff1660a086015260c090940193918601916001016113b2565b509298975050505050505050565b60006060828403121561117a57600080fd5b8060005b60028110156114675781516001600160a01b031684526020938401939091019060010161143f565b50505050565b8060005b60078110156114675781516001600160a01b0316845260209384019390910190600101611471565b806000805b60028110156114e457825185835b60038110156114cb5782518252602092830192909101906001016114ac565b505050606094909401936020929092019160010161149e565b5050505050565b8060005b60058110156114675781518452602093840193909101906001016114ef565b60006104008201905061152282845161143b565b6020830151611534604084018261146d565b50604083015161012061154981850183611499565b606085015163ffffffff9081166101e08601526080860151811661020086015260a08601511661022085015260c0850151915061158a6102408501836114eb565b60e08501516102e0850152610100850151610300850152840151610320840152506101408301511515610340830152610160830151151561036083015261018083015163ffffffff166103808301526101a083015180516103a084015260208101516103c0840152604081015115156103e08401525b5092915050565b600082601f83011261161857600080fd5b61162061104f565b80604084018581111561163257600080fd5b845b81811015611655578035611647816112f7565b845260209384019301611634565b509095945050505050565b8035801515811461119457600080fd5b60006060828403121561168257600080fd5b6040516060810181811067ffffffffffffffff821117156116a5576116a561100f565b806040525080915082358152602083013560208201526116c760408401611660565b60408201525092915050565b600061040082840312156116e657600080fd5b6116ee611025565b6116f88484611607565b8152611707846040850161130c565b602082015261012061171b858286016111cd565b604083015261172d6101e08501611180565b606083015261173f6102008501611180565b60808301526117516102208501611180565b60a08301526117648561024086016110d6565b60c08301526102e084013560e0830152610300840135610100830152610320840135908201526117976103408401611660565b6101408201526117aa6103608401611660565b6101608201526117bd6103808401611180565b6101808201526117d1846103a08501611670565b6101a08201529392505050565b8060005b60028110156114675781356117f6816112f7565b6001600160a01b0316845260209384019391909101906001016117e2565b8060005b600781101561146757813561182c816112f7565b6001600160a01b031684526020938401939190910190600101611818565b806000805b60028110156114e45760608084873794850182815294929092019160010161184f565b60a081833750600060a082015250565b803582526020810135602083015261189c60408201611660565b151560408301525050565b61040081016118b682846117de565b6118c66040830160408501611814565b6101206118d781840182860161184a565b506101e06118e6818501611180565b63ffffffff16908301526102006118fe848201611180565b63ffffffff1690830152610220611916848201611180565b63ffffffff1690830152610240611931818401858301611872565b506102e0838101359083015261030080840135908301526103208084013590830152610340611961818501611660565b151590830152610360611975848201611660565b151590830152610380611989848201611180565b63ffffffff16908301526103a0611600818401858301611882565b634e487b7160e01b600052603260045260246000fd5b600060c082840312156119cc57600080fd5b60405160a0810181811067ffffffffffffffff821117156119ef576119ef61100f565b8060405250823581526020830135602082015283605f840112611a1157600080fd5b611a1e8460408501611095565b60408201526080830135606082015260a083013560ff81168114611a4157600080fd5b60808201529392505050565b600060018201611a6d57634e487b7160e01b600052601160045260246000fd5b5060010190565b600060608284031215611a8657600080fd5b611160838361167056fea26469706673582212205c027c0c0a042d117f0e8d35e6d2dd8f8cd759e9c16b85d0519d4f0e3eb23cf964736f6c634300080f0033",
  "devdoc": {
    "author": "Decentralized Foundation Team",
    "kind": "dev",
    "methods": {},
    "title": "ERC721Facet EIP-2535 Diamond Facet",
    "version": 1
  },
  "userdoc": {
    "kind": "user",
    "methods": {},
    "notice": "The Contract uses diamond storage providing functionality of ERC721, ERC721Enumerable, ERC721Burnable, ERC721Pausable",
    "version": 1
  },
  "storageLayout": {
    "storage": [
      {
        "astId": 4283,
        "contract": "contracts/facets/ConfigFacet.sol:ConfigFacet",
        "label": "s",
        "offset": 0,
        "slot": "0",
        "type": "t_struct(AppStorage)4537_storage"
      }
    ],
    "types": {
      "t_address": {
        "encoding": "inplace",
        "label": "address",
        "numberOfBytes": "20"
      },
      "t_array(t_address)7_storage": {
        "base": "t_address",
        "encoding": "inplace",
        "label": "address[7]",
        "numberOfBytes": "224"
      },
      "t_array(t_array(t_uint256)3_storage)2_storage": {
        "base": "t_array(t_uint256)3_storage",
        "encoding": "inplace",
        "label": "uint256[3][2]",
        "numberOfBytes": "192"
      },
      "t_array(t_contract(IERC20)737)2_storage": {
        "base": "t_contract(IERC20)737",
        "encoding": "inplace",
        "label": "contract IERC20[2]",
        "numberOfBytes": "64"
      },
      "t_array(t_struct(GemTypeConfig)4429_storage)dyn_storage": {
        "base": "t_struct(GemTypeConfig)4429_storage",
        "encoding": "dynamic_array",
        "label": "struct GemTypeConfig[]",
        "numberOfBytes": "32"
      },
      "t_array(t_struct(GemTypeMintWindow)4434_storage)dyn_storage": {
        "base": "t_struct(GemTypeMintWindow)4434_storage",
        "encoding": "dynamic_array",
        "label": "struct GemTypeMintWindow[]",
        "numberOfBytes": "32"
      },
      "t_array(t_uint256)2_storage": {
        "base": "t_uint256",
        "encoding": "inplace",
        "label": "uint256[2]",
        "numberOfBytes": "64"
      },
      "t_array(t_uint256)3_storage": {
        "base": "t_uint256",
        "encoding": "inplace",
        "label": "uint256[3]",
        "numberOfBytes": "96"
      },
      "t_array(t_uint256)5_storage": {
        "base": "t_uint256",
        "encoding": "inplace",
        "label": "uint256[5]",
        "numberOfBytes": "160"
      },
      "t_array(t_uint256)dyn_storage": {
        "base": "t_uint256",
        "encoding": "dynamic_array",
        "label": "uint256[]",
        "numberOfBytes": "32"
      },
      "t_bool": {
        "encoding": "inplace",
        "label": "bool",
        "numberOfBytes": "1"
      },
      "t_contract(IERC20)737": {
        "encoding": "inplace",
        "label": "contract IERC20",
        "numberOfBytes": "20"
      },
      "t_enum(Booster)4456": {
        "encoding": "inplace",
        "label": "enum Booster",
        "numberOfBytes": "1"
      },
      "t_mapping(t_address,t_bool)": {
        "encoding": "mapping",
        "key": "t_address",
        "label": "mapping(address => bool)",
        "numberOfBytes": "32",
        "value": "t_bool"
      },
      "t_mapping(t_address,t_mapping(t_address,t_bool))": {
        "encoding": "mapping",
        "key": "t_address",
        "label": "mapping(address => mapping(address => bool))",
        "numberOfBytes": "32",
        "value": "t_mapping(t_address,t_bool)"
      },
      "t_mapping(t_address,t_mapping(t_uint256,t_uint256))": {
        "encoding": "mapping",
        "key": "t_address",
        "label": "mapping(address => mapping(uint256 => uint256))",
        "numberOfBytes": "32",
        "value": "t_mapping(t_uint256,t_uint256)"
      },
      "t_mapping(t_address,t_mapping(t_uint8,t_mapping(t_enum(Booster)4456,t_uint256)))": {
        "encoding": "mapping",
        "key": "t_address",
        "label": "mapping(address => mapping(uint8 => mapping(enum Booster => uint256)))",
        "numberOfBytes": "32",
        "value": "t_mapping(t_uint8,t_mapping(t_enum(Booster)4456,t_uint256))"
      },
      "t_mapping(t_address,t_struct(Fi)4477_storage)": {
        "encoding": "mapping",
        "key": "t_address",
        "label": "mapping(address => struct Fi)",
        "numberOfBytes": "32",
        "value": "t_struct(Fi)4477_storage"
      },
      "t_mapping(t_address,t_uint256)": {
        "encoding": "mapping",
        "key": "t_address",
        "label": "mapping(address => uint256)",
        "numberOfBytes": "32",
        "value": "t_uint256"
      },
      "t_mapping(t_enum(Booster)4456,t_uint256)": {
        "encoding": "mapping",
        "key": "t_enum(Booster)4456",
        "label": "mapping(enum Booster => uint256)",
        "numberOfBytes": "32",
        "value": "t_uint256"
      },
      "t_mapping(t_uint256,t_address)": {
        "encoding": "mapping",
        "key": "t_uint256",
        "label": "mapping(uint256 => address)",
        "numberOfBytes": "32",
        "value": "t_address"
      },
      "t_mapping(t_uint256,t_struct(Gem)4494_storage)": {
        "encoding": "mapping",
        "key": "t_uint256",
        "label": "mapping(uint256 => struct Gem)",
        "numberOfBytes": "32",
        "value": "t_struct(Gem)4494_storage"
      },
      "t_mapping(t_uint256,t_uint256)": {
        "encoding": "mapping",
        "key": "t_uint256",
        "label": "mapping(uint256 => uint256)",
        "numberOfBytes": "32",
        "value": "t_uint256"
      },
      "t_mapping(t_uint8,t_mapping(t_enum(Booster)4456,t_uint256))": {
        "encoding": "mapping",
        "key": "t_uint8",
        "label": "mapping(uint8 => mapping(enum Booster => uint256))",
        "numberOfBytes": "32",
        "value": "t_mapping(t_enum(Booster)4456,t_uint256)"
      },
      "t_string_storage": {
        "encoding": "bytes",
        "label": "string",
        "numberOfBytes": "32"
      },
      "t_struct(AppStorage)4537_storage": {
        "encoding": "inplace",
        "label": "struct AppStorage",
        "members": [
          {
            "astId": 4497,
            "contract": "contracts/facets/ConfigFacet.sol:ConfigFacet",
            "label": "config",
            "offset": 0,
            "slot": "0",
            "type": "t_struct(ProtocolConfig)4416_storage"
          },
          {
            "astId": 4501,
            "contract": "contracts/facets/ConfigFacet.sol:ConfigFacet",
            "label": "gemTypes",
            "offset": 0,
            "slot": "28",
            "type": "t_array(t_struct(GemTypeConfig)4429_storage)dyn_storage"
          },
          {
            "astId": 4505,
            "contract": "contracts/facets/ConfigFacet.sol:ConfigFacet",
            "label": "gemTypesMintWindows",
            "offset": 0,
            "slot": "29",
            "type": "t_array(t_struct(GemTypeMintWindow)4434_storage)dyn_storage"
          },
          {
            "astId": 4508,
            "contract": "contracts/facets/ConfigFacet.sol:ConfigFacet",
            "label": "defoTokenLimitWindow",
            "offset": 0,
            "slot": "30",
            "type": "t_struct(DEFOTokenLimitWindow)4443_storage"
          },
          {
            "astId": 4513,
            "contract": "contracts/facets/ConfigFacet.sol:ConfigFacet",
            "label": "gems",
            "offset": 0,
            "slot": "32",
            "type": "t_mapping(t_uint256,t_struct(Gem)4494_storage)"
          },
          {
            "astId": 4516,
            "contract": "contracts/facets/ConfigFacet.sol:ConfigFacet",
            "label": "nft",
            "offset": 0,
            "slot": "33",
            "type": "t_struct(ERC721Storage)4351_storage"
          },
          {
            "astId": 4519,
            "contract": "contracts/facets/ConfigFacet.sol:ConfigFacet",
            "label": "total",
            "offset": 0,
            "slot": "46",
            "type": "t_struct(Fi)4477_storage"
          },
          {
            "astId": 4524,
            "contract": "contracts/facets/ConfigFacet.sol:ConfigFacet",
            "label": "usersFi",
            "offset": 0,
            "slot": "56",
            "type": "t_mapping(t_address,t_struct(Fi)4477_storage)"
          },
          {
            "astId": 4533,
            "contract": "contracts/facets/ConfigFacet.sol:ConfigFacet",
            "label": "usersNextGemBooster",
            "offset": 0,
            "slot": "57",
            "type": "t_mapping(t_address,t_mapping(t_uint8,t_mapping(t_enum(Booster)4456,t_uint256)))"
          },
          {
            "astId": 4536,
            "contract": "contracts/facets/ConfigFacet.sol:ConfigFacet",
            "label": "defoTokenLimitPerRewards",
            "offset": 0,
            "slot": "58",
            "type": "t_struct(DEFOTokenLimitPerRewards)4452_storage"
          }
        ],
        "numberOfBytes": "1920"
      },
      "t_struct(Counter)2737_storage": {
        "encoding": "inplace",
        "label": "struct Counters.Counter",
        "members": [
          {
            "astId": 2736,
            "contract": "contracts/facets/ConfigFacet.sol:ConfigFacet",
            "label": "_value",
            "offset": 0,
            "slot": "0",
            "type": "t_uint256"
          }
        ],
        "numberOfBytes": "32"
      },
      "t_struct(DEFOTokenLimitPerRewards)4452_storage": {
        "encoding": "inplace",
        "label": "struct DEFOTokenLimitPerRewards",
        "members": [
          {
            "astId": 4447,
            "contract": "contracts/facets/ConfigFacet.sol:ConfigFacet",
            "label": "tokensSold",
            "offset": 0,
            "slot": "0",
            "type": "t_mapping(t_address,t_uint256)"
          },
          {
            "astId": 4451,
            "contract": "contracts/facets/ConfigFacet.sol:ConfigFacet",
            "label": "timeOfWindowStart",
            "offset": 0,
            "slot": "1",
            "type": "t_mapping(t_address,t_uint256)"
          }
        ],
        "numberOfBytes": "64"
      },
      "t_struct(DEFOTokenLimitWindow)4443_storage": {
        "encoding": "inplace",
        "label": "struct DEFOTokenLimitWindow",
        "members": [
          {
            "astId": 4438,
            "contract": "contracts/facets/ConfigFacet.sol:ConfigFacet",
            "label": "tokensSold",
            "offset": 0,
            "slot": "0",
            "type": "t_mapping(t_address,t_uint256)"
          },
          {
            "astId": 4442,
            "contract": "contracts/facets/ConfigFacet.sol:ConfigFacet",
            "label": "timeOfLastSale",
            "offset": 0,
            "slot": "1",
            "type": "t_mapping(t_address,t_uint256)"
          }
        ],
        "numberOfBytes": "64"
      },
      "t_struct(DefoTokenLimitConfig)4375_storage": {
        "encoding": "inplace",
        "label": "struct DefoTokenLimitConfig",
        "members": [
          {
            "astId": 4370,
            "contract": "contracts/facets/ConfigFacet.sol:ConfigFacet",
            "label": "saleLimitPeriod",
            "offset": 0,
            "slot": "0",
            "type": "t_uint256"
          },
          {
            "astId": 4372,
            "contract": "contracts/facets/ConfigFacet.sol:ConfigFacet",
            "label": "saleLimitAmount",
            "offset": 0,
            "slot": "1",
            "type": "t_uint256"
          },
          {
            "astId": 4374,
            "contract": "contracts/facets/ConfigFacet.sol:ConfigFacet",
            "label": "limitByReward",
            "offset": 0,
            "slot": "2",
            "type": "t_bool"
          }
        ],
        "numberOfBytes": "96"
      },
      "t_struct(ERC721Storage)4351_storage": {
        "encoding": "inplace",
        "label": "struct ERC721Storage",
        "members": [
          {
            "astId": 4306,
            "contract": "contracts/facets/ConfigFacet.sol:ConfigFacet",
            "label": "name",
            "offset": 0,
            "slot": "0",
            "type": "t_string_storage"
          },
          {
            "astId": 4308,
            "contract": "contracts/facets/ConfigFacet.sol:ConfigFacet",
            "label": "symbol",
            "offset": 0,
            "slot": "1",
            "type": "t_string_storage"
          },
          {
            "astId": 4311,
            "contract": "contracts/facets/ConfigFacet.sol:ConfigFacet",
            "label": "tokenIdTracker",
            "offset": 0,
            "slot": "2",
            "type": "t_struct(Counter)2737_storage"
          },
          {
            "astId": 4315,
            "contract": "contracts/facets/ConfigFacet.sol:ConfigFacet",
            "label": "owners",
            "offset": 0,
            "slot": "3",
            "type": "t_mapping(t_uint256,t_address)"
          },
          {
            "astId": 4319,
            "contract": "contracts/facets/ConfigFacet.sol:ConfigFacet",
            "label": "balances",
            "offset": 0,
            "slot": "4",
            "type": "t_mapping(t_address,t_uint256)"
          },
          {
            "astId": 4323,
            "contract": "contracts/facets/ConfigFacet.sol:ConfigFacet",
            "label": "tokenApprovals",
            "offset": 0,
            "slot": "5",
            "type": "t_mapping(t_uint256,t_address)"
          },
          {
            "astId": 4329,
            "contract": "contracts/facets/ConfigFacet.sol:ConfigFacet",
            "label": "operatorApprovals",
            "offset": 0,
            "slot": "6",
            "type": "t_mapping(t_address,t_mapping(t_address,t_bool))"
          },
          {
            "astId": 4331,
            "contract": "contracts/facets/ConfigFacet.sol:ConfigFacet",
            "label": "baseURI",
            "offset": 0,
            "slot": "7",
            "type": "t_string_storage"
          },
          {
            "astId": 4337,
            "contract": "contracts/facets/ConfigFacet.sol:ConfigFacet",
            "label": "ownedTokens",
            "offset": 0,
            "slot": "8",
            "type": "t_mapping(t_address,t_mapping(t_uint256,t_uint256))"
          },
          {
            "astId": 4341,
            "contract": "contracts/facets/ConfigFacet.sol:ConfigFacet",
            "label": "ownedTokensIndex",
            "offset": 0,
            "slot": "9",
            "type": "t_mapping(t_uint256,t_uint256)"
          },
          {
            "astId": 4344,
            "contract": "contracts/facets/ConfigFacet.sol:ConfigFacet",
            "label": "allTokens",
            "offset": 0,
            "slot": "10",
            "type": "t_array(t_uint256)dyn_storage"
          },
          {
            "astId": 4348,
            "contract": "contracts/facets/ConfigFacet.sol:ConfigFacet",
            "label": "allTokensIndex",
            "offset": 0,
            "slot": "11",
            "type": "t_mapping(t_uint256,t_uint256)"
          },
          {
            "astId": 4350,
            "contract": "contracts/facets/ConfigFacet.sol:ConfigFacet",
            "label": "init",
            "offset": 0,
            "slot": "12",
            "type": "t_bool"
          }
        ],
        "numberOfBytes": "416"
      },
      "t_struct(Fi)4477_storage": {
        "encoding": "inplace",
        "label": "struct Fi",
        "members": [
          {
            "astId": 4458,
            "contract": "contracts/facets/ConfigFacet.sol:ConfigFacet",
            "label": "claimedGross",
            "offset": 0,
            "slot": "0",
            "type": "t_uint256"
          },
          {
            "astId": 4460,
            "contract": "contracts/facets/ConfigFacet.sol:ConfigFacet",
            "label": "claimedNet",
            "offset": 0,
            "slot": "1",
            "type": "t_uint256"
          },
          {
            "astId": 4462,
            "contract": "contracts/facets/ConfigFacet.sol:ConfigFacet",
            "label": "stakedGross",
            "offset": 0,
            "slot": "2",
            "type": "t_uint256"
          },
          {
            "astId": 4464,
            "contract": "contracts/facets/ConfigFacet.sol:ConfigFacet",
            "label": "stakedNet",
            "offset": 0,
            "slot": "3",
            "type": "t_uint256"
          },
          {
            "astId": 4466,
            "contract": "contracts/facets/ConfigFacet.sol:ConfigFacet",
            "label": "unStakedGross",
            "offset": 0,
            "slot": "4",
            "type": "t_uint256"
          },
          {
            "astId": 4468,
            "contract": "contracts/facets/ConfigFacet.sol:ConfigFacet",
            "label": "unStakedGrossUp",
            "offset": 0,
            "slot": "5",
            "type": "t_uint256"
          },
          {
            "astId": 4470,
            "contract": "contracts/facets/ConfigFacet.sol:ConfigFacet",
            "label": "unStakedNet",
            "offset": 0,
            "slot": "6",
            "type": "t_uint256"
          },
          {
            "astId": 4472,
            "contract": "contracts/facets/ConfigFacet.sol:ConfigFacet",
            "label": "donated",
            "offset": 0,
            "slot": "7",
            "type": "t_uint256"
          },
          {
            "astId": 4474,
            "contract": "contracts/facets/ConfigFacet.sol:ConfigFacet",
            "label": "claimTaxPaid",
            "offset": 0,
            "slot": "8",
            "type": "t_uint256"
          },
          {
            "astId": 4476,
            "contract": "contracts/facets/ConfigFacet.sol:ConfigFacet",
            "label": "vaultTaxPaid",
            "offset": 0,
            "slot": "9",
            "type": "t_uint256"
          }
        ],
        "numberOfBytes": "320"
      },
      "t_struct(Gem)4494_storage": {
        "encoding": "inplace",
        "label": "struct Gem",
        "members": [
          {
            "astId": 4479,
            "contract": "contracts/facets/ConfigFacet.sol:ConfigFacet",
            "label": "gemTypeId",
            "offset": 0,
            "slot": "0",
            "type": "t_uint8"
          },
          {
            "astId": 4482,
            "contract": "contracts/facets/ConfigFacet.sol:ConfigFacet",
            "label": "booster",
            "offset": 1,
            "slot": "0",
            "type": "t_enum(Booster)4456"
          },
          {
            "astId": 4484,
            "contract": "contracts/facets/ConfigFacet.sol:ConfigFacet",
            "label": "mintTime",
            "offset": 2,
            "slot": "0",
            "type": "t_uint32"
          },
          {
            "astId": 4486,
            "contract": "contracts/facets/ConfigFacet.sol:ConfigFacet",
            "label": "lastRewardWithdrawalTime",
            "offset": 6,
            "slot": "0",
            "type": "t_uint32"
          },
          {
            "astId": 4488,
            "contract": "contracts/facets/ConfigFacet.sol:ConfigFacet",
            "label": "lastMaintenanceTime",
            "offset": 10,
            "slot": "0",
            "type": "t_uint32"
          },
          {
            "astId": 4491,
            "contract": "contracts/facets/ConfigFacet.sol:ConfigFacet",
            "label": "fi",
            "offset": 0,
            "slot": "1",
            "type": "t_struct(Fi)4477_storage"
          },
          {
            "astId": 4493,
            "contract": "contracts/facets/ConfigFacet.sol:ConfigFacet",
            "label": "presold",
            "offset": 0,
            "slot": "11",
            "type": "t_bool"
          }
        ],
        "numberOfBytes": "384"
      },
      "t_struct(GemTypeConfig)4429_storage": {
        "encoding": "inplace",
        "label": "struct GemTypeConfig",
        "members": [
          {
            "astId": 4418,
            "contract": "contracts/facets/ConfigFacet.sol:ConfigFacet",
            "label": "maintenanceFeeDai",
            "offset": 0,
            "slot": "0",
            "type": "t_uint256"
          },
          {
            "astId": 4420,
            "contract": "contracts/facets/ConfigFacet.sol:ConfigFacet",
            "label": "rewardAmountDefo",
            "offset": 0,
            "slot": "1",
            "type": "t_uint256"
          },
          {
            "astId": 4424,
            "contract": "contracts/facets/ConfigFacet.sol:ConfigFacet",
            "label": "price",
            "offset": 0,
            "slot": "2",
            "type": "t_array(t_uint256)2_storage"
          },
          {
            "astId": 4426,
            "contract": "contracts/facets/ConfigFacet.sol:ConfigFacet",
            "label": "taperRewardsThresholdDefo",
            "offset": 0,
            "slot": "4",
            "type": "t_uint256"
          },
          {
            "astId": 4428,
            "contract": "contracts/facets/ConfigFacet.sol:ConfigFacet",
            "label": "maxMintsPerLimitWindow",
            "offset": 0,
            "slot": "5",
            "type": "t_uint8"
          }
        ],
        "numberOfBytes": "192"
      },
      "t_struct(GemTypeMintWindow)4434_storage": {
        "encoding": "inplace",
        "label": "struct GemTypeMintWindow",
        "members": [
          {
            "astId": 4431,
            "contract": "contracts/facets/ConfigFacet.sol:ConfigFacet",
            "label": "mintCount",
            "offset": 0,
            "slot": "0",
            "type": "t_uint256"
          },
          {
            "astId": 4433,
            "contract": "contracts/facets/ConfigFacet.sol:ConfigFacet",
            "label": "endOfMintLimitWindow",
            "offset": 0,
            "slot": "1",
            "type": "t_uint32"
          }
        ],
        "numberOfBytes": "64"
      },
      "t_struct(ProtocolConfig)4416_storage": {
        "encoding": "inplace",
        "label": "struct ProtocolConfig",
        "members": [
          {
            "astId": 4380,
            "contract": "contracts/facets/ConfigFacet.sol:ConfigFacet",
            "label": "paymentTokens",
            "offset": 0,
            "slot": "0",
            "type": "t_array(t_contract(IERC20)737)2_storage"
          },
          {
            "astId": 4384,
            "contract": "contracts/facets/ConfigFacet.sol:ConfigFacet",
            "label": "wallets",
            "offset": 0,
            "slot": "2",
            "type": "t_array(t_address)7_storage"
          },
          {
            "astId": 4390,
            "contract": "contracts/facets/ConfigFacet.sol:ConfigFacet",
            "label": "incomeDistributionOnMint",
            "offset": 0,
            "slot": "9",
            "type": "t_array(t_array(t_uint256)3_storage)2_storage"
          },
          {
            "astId": 4392,
            "contract": "contracts/facets/ConfigFacet.sol:ConfigFacet",
            "label": "maintenancePeriod",
            "offset": 0,
            "slot": "15",
            "type": "t_uint32"
          },
          {
            "astId": 4394,
            "contract": "contracts/facets/ConfigFacet.sol:ConfigFacet",
            "label": "rewardPeriod",
            "offset": 4,
            "slot": "15",
            "type": "t_uint32"
          },
          {
            "astId": 4396,
            "contract": "contracts/facets/ConfigFacet.sol:ConfigFacet",
            "label": "taxScaleSinceLastClaimPeriod",
            "offset": 8,
            "slot": "15",
            "type": "t_uint32"
          },
          {
            "astId": 4400,
            "contract": "contracts/facets/ConfigFacet.sol:ConfigFacet",
            "label": "taxRates",
            "offset": 0,
            "slot": "16",
            "type": "t_array(t_uint256)5_storage"
          },
          {
            "astId": 4402,
            "contract": "contracts/facets/ConfigFacet.sol:ConfigFacet",
            "label": "charityContributionRate",
            "offset": 0,
            "slot": "21",
            "type": "t_uint256"
          },
          {
            "astId": 4404,
            "contract": "contracts/facets/ConfigFacet.sol:ConfigFacet",
            "label": "vaultWithdrawalTaxRate",
            "offset": 0,
            "slot": "22",
            "type": "t_uint256"
          },
          {
            "astId": 4406,
            "contract": "contracts/facets/ConfigFacet.sol:ConfigFacet",
            "label": "taperRate",
            "offset": 0,
            "slot": "23",
            "type": "t_uint256"
          },
          {
            "astId": 4408,
            "contract": "contracts/facets/ConfigFacet.sol:ConfigFacet",
            "label": "mintLock",
            "offset": 0,
            "slot": "24",
            "type": "t_bool"
          },
          {
            "astId": 4410,
            "contract": "contracts/facets/ConfigFacet.sol:ConfigFacet",
            "label": "transferLock",
            "offset": 1,
            "slot": "24",
            "type": "t_bool"
          },
          {
            "astId": 4412,
            "contract": "contracts/facets/ConfigFacet.sol:ConfigFacet",
            "label": "mintLimitWindow",
            "offset": 2,
            "slot": "24",
            "type": "t_uint32"
          },
          {
            "astId": 4415,
            "contract": "contracts/facets/ConfigFacet.sol:ConfigFacet",
            "label": "defoTokenLimitConfig",
            "offset": 0,
            "slot": "25",
            "type": "t_struct(DefoTokenLimitConfig)4375_storage"
          }
        ],
        "numberOfBytes": "896"
      },
      "t_uint256": {
        "encoding": "inplace",
        "label": "uint256",
        "numberOfBytes": "32"
      },
      "t_uint32": {
        "encoding": "inplace",
        "label": "uint32",
        "numberOfBytes": "4"
      },
      "t_uint8": {
        "encoding": "inplace",
        "label": "uint8",
        "numberOfBytes": "1"
      }
    }
  }
}