{
  "address": "0x5C53DFF48E74A8bc34Ae8BBFa8182e8419c4786F",
  "abi": [
    {
      "anonymous": false,
      "inputs": [
        {
          "components": [
            {
              "internalType": "contract IERC20[2]",
              "name": "paymentTokens",
              "type": "address[2]"
            },
            {
              "internalType": "address[7]",
              "name": "wallets",
              "type": "address[7]"
            },
            {
              "internalType": "uint256[3][2]",
              "name": "incomeDistributionOnMint",
              "type": "uint256[3][2]"
            },
            {
              "internalType": "uint32",
              "name": "maintenancePeriod",
              "type": "uint32"
            },
            {
              "internalType": "uint32",
              "name": "rewardPeriod",
              "type": "uint32"
            },
            {
              "internalType": "uint32",
              "name": "taxScaleSinceLastClaimPeriod",
              "type": "uint32"
            },
            {
              "internalType": "uint256[5]",
              "name": "taxRates",
              "type": "uint256[5]"
            },
            {
              "internalType": "uint256",
              "name": "charityContributionRate",
              "type": "uint256"
            },
            {
              "internalType": "uint256",
              "name": "vaultWithdrawalTaxRate",
              "type": "uint256"
            },
            {
              "internalType": "uint256",
              "name": "taperRate",
              "type": "uint256"
            },
            {
              "internalType": "bool",
              "name": "mintLock",
              "type": "bool"
            },
            {
              "internalType": "bool",
              "name": "transferLock",
              "type": "bool"
            },
            {
              "internalType": "uint32",
              "name": "mintLimitWindow",
              "type": "uint32"
            },
            {
              "components": [
                {
                  "internalType": "uint256",
                  "name": "saleLimitPeriod",
                  "type": "uint256"
                },
                {
                  "internalType": "uint256",
                  "name": "saleLimitAmount",
                  "type": "uint256"
                },
                {
                  "internalType": "bool",
                  "name": "limitByReward",
                  "type": "bool"
                }
              ],
              "internalType": "struct DefoTokenLimitConfig",
              "name": "defoTokenLimitConfig",
              "type": "tuple"
            }
          ],
          "indexed": false,
          "internalType": "struct ProtocolConfig",
          "name": "config",
          "type": "tuple"
        }
      ],
      "name": "ConfigurationChange",
      "type": "event"
    },
    {
      "anonymous": false,
      "inputs": [
        {
          "components": [
            {
              "internalType": "uint256",
              "name": "maintenanceFeeDai",
              "type": "uint256"
            },
            {
              "internalType": "uint256",
              "name": "rewardAmountDefo",
              "type": "uint256"
            },
            {
              "internalType": "uint256[2]",
              "name": "price",
              "type": "uint256[2]"
            },
            {
              "internalType": "uint256",
              "name": "taperRewardsThresholdDefo",
              "type": "uint256"
            },
            {
              "internalType": "uint256",
              "name": "maxMintsPerLimitWindow",
              "type": "uint256"
            }
          ],
          "indexed": false,
          "internalType": "struct GemTypeConfig",
          "name": "_gemTypeConfig",
          "type": "tuple"
        }
      ],
      "name": "GemTypeConfigurationChange",
      "type": "event"
    },
    {
      "inputs": [
        {
          "internalType": "address",
          "name": "_routerWallet",
          "type": "address"
        }
      ],
      "name": "approveDefoForRouter",
      "outputs": [],
      "stateMutability": "nonpayable",
      "type": "function"
    },
    {
      "inputs": [],
      "name": "getConfig",
      "outputs": [
        {
          "components": [
            {
              "internalType": "contract IERC20[2]",
              "name": "paymentTokens",
              "type": "address[2]"
            },
            {
              "internalType": "address[7]",
              "name": "wallets",
              "type": "address[7]"
            },
            {
              "internalType": "uint256[3][2]",
              "name": "incomeDistributionOnMint",
              "type": "uint256[3][2]"
            },
            {
              "internalType": "uint32",
              "name": "maintenancePeriod",
              "type": "uint32"
            },
            {
              "internalType": "uint32",
              "name": "rewardPeriod",
              "type": "uint32"
            },
            {
              "internalType": "uint32",
              "name": "taxScaleSinceLastClaimPeriod",
              "type": "uint32"
            },
            {
              "internalType": "uint256[5]",
              "name": "taxRates",
              "type": "uint256[5]"
            },
            {
              "internalType": "uint256",
              "name": "charityContributionRate",
              "type": "uint256"
            },
            {
              "internalType": "uint256",
              "name": "vaultWithdrawalTaxRate",
              "type": "uint256"
            },
            {
              "internalType": "uint256",
              "name": "taperRate",
              "type": "uint256"
            },
            {
              "internalType": "bool",
              "name": "mintLock",
              "type": "bool"
            },
            {
              "internalType": "bool",
              "name": "transferLock",
              "type": "bool"
            },
            {
              "internalType": "uint32",
              "name": "mintLimitWindow",
              "type": "uint32"
            },
            {
              "components": [
                {
                  "internalType": "uint256",
                  "name": "saleLimitPeriod",
                  "type": "uint256"
                },
                {
                  "internalType": "uint256",
                  "name": "saleLimitAmount",
                  "type": "uint256"
                },
                {
                  "internalType": "bool",
                  "name": "limitByReward",
                  "type": "bool"
                }
              ],
              "internalType": "struct DefoTokenLimitConfig",
              "name": "defoTokenLimitConfig",
              "type": "tuple"
            }
          ],
          "internalType": "struct ProtocolConfig",
          "name": "",
          "type": "tuple"
        }
      ],
      "stateMutability": "view",
      "type": "function"
    },
    {
      "inputs": [],
      "name": "getGemTypesConfig",
      "outputs": [
        {
          "components": [
            {
              "internalType": "uint256",
              "name": "maintenanceFeeDai",
              "type": "uint256"
            },
            {
              "internalType": "uint256",
              "name": "rewardAmountDefo",
              "type": "uint256"
            },
            {
              "internalType": "uint256[2]",
              "name": "price",
              "type": "uint256[2]"
            },
            {
              "internalType": "uint256",
              "name": "taperRewardsThresholdDefo",
              "type": "uint256"
            },
            {
              "internalType": "uint256",
              "name": "maxMintsPerLimitWindow",
              "type": "uint256"
            }
          ],
          "internalType": "struct GemTypeConfig[]",
          "name": "",
          "type": "tuple[]"
        }
      ],
      "stateMutability": "view",
      "type": "function"
    },
    {
      "inputs": [],
      "name": "getMaintenanceReductionTable",
      "outputs": [
        {
          "components": [
            {
              "internalType": "uint256",
              "name": "timeOfReduction",
              "type": "uint256"
            },
            {
              "internalType": "uint256",
              "name": "maintenanceReductionPercent",
              "type": "uint256"
            }
          ],
          "internalType": "struct MaintenanceFeeReductionRecord[]",
          "name": "",
          "type": "tuple[]"
        }
      ],
      "stateMutability": "view",
      "type": "function"
    },
    {
      "inputs": [],
      "name": "getMyP2DaiReceived",
      "outputs": [
        {
          "internalType": "uint256",
          "name": "",
          "type": "uint256"
        }
      ],
      "stateMutability": "view",
      "type": "function"
    },
    {
      "inputs": [],
      "name": "getMyP2DepositedToVault",
      "outputs": [
        {
          "internalType": "uint256",
          "name": "",
          "type": "uint256"
        }
      ],
      "stateMutability": "view",
      "type": "function"
    },
    {
      "inputs": [],
      "name": "getP2CutOverTime",
      "outputs": [
        {
          "internalType": "uint256",
          "name": "",
          "type": "uint256"
        }
      ],
      "stateMutability": "view",
      "type": "function"
    },
    {
      "inputs": [
        {
          "internalType": "address",
          "name": "user",
          "type": "address"
        }
      ],
      "name": "getP2DaiReceived",
      "outputs": [
        {
          "internalType": "uint256",
          "name": "",
          "type": "uint256"
        }
      ],
      "stateMutability": "view",
      "type": "function"
    },
    {
      "inputs": [
        {
          "internalType": "address",
          "name": "user",
          "type": "address"
        }
      ],
      "name": "getP2DepositedToVault",
      "outputs": [
        {
          "internalType": "uint256",
          "name": "",
          "type": "uint256"
        }
      ],
      "stateMutability": "view",
      "type": "function"
    },
    {
      "inputs": [],
      "name": "getP2Finance",
      "outputs": [
        {
          "internalType": "uint256",
          "name": "",
          "type": "uint256"
        },
        {
          "internalType": "uint256",
          "name": "",
          "type": "uint256"
        }
      ],
      "stateMutability": "view",
      "type": "function"
    },
    {
      "inputs": [
        {
          "internalType": "address",
          "name": "_user",
          "type": "address"
        }
      ],
      "name": "getTotal",
      "outputs": [
        {
          "components": [
            {
              "internalType": "uint256",
              "name": "claimedGross",
              "type": "uint256"
            },
            {
              "internalType": "uint256",
              "name": "claimedNet",
              "type": "uint256"
            },
            {
              "internalType": "uint256",
              "name": "stakedGross",
              "type": "uint256"
            },
            {
              "internalType": "uint256",
              "name": "stakedNet",
              "type": "uint256"
            },
            {
              "internalType": "uint256",
              "name": "unStakedGross",
              "type": "uint256"
            },
            {
              "internalType": "uint256",
              "name": "unStakedGrossUp",
              "type": "uint256"
            },
            {
              "internalType": "uint256",
              "name": "unStakedNet",
              "type": "uint256"
            },
            {
              "internalType": "uint256",
              "name": "donated",
              "type": "uint256"
            },
            {
              "internalType": "uint256",
              "name": "claimTaxPaid",
              "type": "uint256"
            },
            {
              "internalType": "uint256",
              "name": "vaultTaxPaid",
              "type": "uint256"
            }
          ],
          "internalType": "struct Fi",
          "name": "",
          "type": "tuple"
        }
      ],
      "stateMutability": "view",
      "type": "function"
    },
    {
      "inputs": [],
      "name": "getTotals",
      "outputs": [
        {
          "components": [
            {
              "internalType": "uint256",
              "name": "claimedGross",
              "type": "uint256"
            },
            {
              "internalType": "uint256",
              "name": "claimedNet",
              "type": "uint256"
            },
            {
              "internalType": "uint256",
              "name": "stakedGross",
              "type": "uint256"
            },
            {
              "internalType": "uint256",
              "name": "stakedNet",
              "type": "uint256"
            },
            {
              "internalType": "uint256",
              "name": "unStakedGross",
              "type": "uint256"
            },
            {
              "internalType": "uint256",
              "name": "unStakedGrossUp",
              "type": "uint256"
            },
            {
              "internalType": "uint256",
              "name": "unStakedNet",
              "type": "uint256"
            },
            {
              "internalType": "uint256",
              "name": "donated",
              "type": "uint256"
            },
            {
              "internalType": "uint256",
              "name": "claimTaxPaid",
              "type": "uint256"
            },
            {
              "internalType": "uint256",
              "name": "vaultTaxPaid",
              "type": "uint256"
            }
          ],
          "internalType": "struct Fi",
          "name": "",
          "type": "tuple"
        }
      ],
      "stateMutability": "view",
      "type": "function"
    },
    {
      "inputs": [],
      "name": "lockMint",
      "outputs": [],
      "stateMutability": "nonpayable",
      "type": "function"
    },
    {
      "inputs": [],
      "name": "pause",
      "outputs": [],
      "stateMutability": "nonpayable",
      "type": "function"
    },
    {
      "inputs": [
        {
          "internalType": "uint256",
          "name": "_charityContributionRate",
          "type": "uint256"
        }
      ],
      "name": "setCharityContributionRate",
      "outputs": [],
      "stateMutability": "nonpayable",
      "type": "function"
    },
    {
      "inputs": [
        {
          "components": [
            {
              "internalType": "contract IERC20[2]",
              "name": "paymentTokens",
              "type": "address[2]"
            },
            {
              "internalType": "address[7]",
              "name": "wallets",
              "type": "address[7]"
            },
            {
              "internalType": "uint256[3][2]",
              "name": "incomeDistributionOnMint",
              "type": "uint256[3][2]"
            },
            {
              "internalType": "uint32",
              "name": "maintenancePeriod",
              "type": "uint32"
            },
            {
              "internalType": "uint32",
              "name": "rewardPeriod",
              "type": "uint32"
            },
            {
              "internalType": "uint32",
              "name": "taxScaleSinceLastClaimPeriod",
              "type": "uint32"
            },
            {
              "internalType": "uint256[5]",
              "name": "taxRates",
              "type": "uint256[5]"
            },
            {
              "internalType": "uint256",
              "name": "charityContributionRate",
              "type": "uint256"
            },
            {
              "internalType": "uint256",
              "name": "vaultWithdrawalTaxRate",
              "type": "uint256"
            },
            {
              "internalType": "uint256",
              "name": "taperRate",
              "type": "uint256"
            },
            {
              "internalType": "bool",
              "name": "mintLock",
              "type": "bool"
            },
            {
              "internalType": "bool",
              "name": "transferLock",
              "type": "bool"
            },
            {
              "internalType": "uint32",
              "name": "mintLimitWindow",
              "type": "uint32"
            },
            {
              "components": [
                {
                  "internalType": "uint256",
                  "name": "saleLimitPeriod",
                  "type": "uint256"
                },
                {
                  "internalType": "uint256",
                  "name": "saleLimitAmount",
                  "type": "uint256"
                },
                {
                  "internalType": "bool",
                  "name": "limitByReward",
                  "type": "bool"
                }
              ],
              "internalType": "struct DefoTokenLimitConfig",
              "name": "defoTokenLimitConfig",
              "type": "tuple"
            }
          ],
          "internalType": "struct ProtocolConfig",
          "name": "_config",
          "type": "tuple"
        }
      ],
      "name": "setConfig",
      "outputs": [],
      "stateMutability": "nonpayable",
      "type": "function"
    },
    {
      "inputs": [
        {
          "components": [
            {
              "internalType": "uint256",
              "name": "saleLimitPeriod",
              "type": "uint256"
            },
            {
              "internalType": "uint256",
              "name": "saleLimitAmount",
              "type": "uint256"
            },
            {
              "internalType": "bool",
              "name": "limitByReward",
              "type": "bool"
            }
          ],
          "internalType": "struct DefoTokenLimitConfig",
          "name": "_defoTokenLimitConfig",
          "type": "tuple"
        }
      ],
      "name": "setConfigDefoTokenLimitConfig",
      "outputs": [],
      "stateMutability": "nonpayable",
      "type": "function"
    },
    {
      "inputs": [
        {
          "internalType": "uint256[3][2]",
          "name": "_incomeDistributionOnMint",
          "type": "uint256[3][2]"
        }
      ],
      "name": "setConfigIncomeDistributionOnMint",
      "outputs": [],
      "stateMutability": "nonpayable",
      "type": "function"
    },
    {
      "inputs": [
        {
          "internalType": "uint32",
          "name": "_maintenancePeriod",
          "type": "uint32"
        }
      ],
      "name": "setConfigMaintenancePeriod",
      "outputs": [],
      "stateMutability": "nonpayable",
      "type": "function"
    },
    {
      "inputs": [
        {
          "internalType": "uint32",
          "name": "_mintLimitWindow",
          "type": "uint32"
        }
      ],
      "name": "setConfigMintLimitWindow",
      "outputs": [],
      "stateMutability": "nonpayable",
      "type": "function"
    },
    {
      "inputs": [
        {
          "internalType": "uint32",
          "name": "_rewardPeriod",
          "type": "uint32"
        }
      ],
      "name": "setConfigRewardPeriod",
      "outputs": [],
      "stateMutability": "nonpayable",
      "type": "function"
    },
    {
      "inputs": [
        {
          "internalType": "uint256",
          "name": "_taperRate",
          "type": "uint256"
        }
      ],
      "name": "setConfigTaperRate",
      "outputs": [],
      "stateMutability": "nonpayable",
      "type": "function"
    },
    {
      "inputs": [
        {
          "internalType": "uint256[5]",
          "name": "_taxRates",
          "type": "uint256[5]"
        }
      ],
      "name": "setConfigTaxRates",
      "outputs": [],
      "stateMutability": "nonpayable",
      "type": "function"
    },
    {
      "inputs": [
        {
          "internalType": "uint32",
          "name": "_taxScaleSinceLastClaimPeriod",
          "type": "uint32"
        }
      ],
      "name": "setConfigTaxScaleSinceLastClaimPeriod",
      "outputs": [],
      "stateMutability": "nonpayable",
      "type": "function"
    },
    {
      "inputs": [
        {
          "internalType": "uint256",
          "name": "_vaultWithdrawalTaxRate",
          "type": "uint256"
        }
      ],
      "name": "setConfigVaultWithdrawalTaxRate",
      "outputs": [],
      "stateMutability": "nonpayable",
      "type": "function"
    },
    {
      "inputs": [
        {
          "internalType": "address[7]",
          "name": "_wallets",
          "type": "address[7]"
        }
      ],
      "name": "setConfigWallets",
      "outputs": [],
      "stateMutability": "nonpayable",
      "type": "function"
    },
    {
      "inputs": [
        {
          "components": [
            {
              "internalType": "uint256",
              "name": "maintenanceFeeDai",
              "type": "uint256"
            },
            {
              "internalType": "uint256",
              "name": "rewardAmountDefo",
              "type": "uint256"
            },
            {
              "internalType": "uint256[2]",
              "name": "price",
              "type": "uint256[2]"
            },
            {
              "internalType": "uint256",
              "name": "taperRewardsThresholdDefo",
              "type": "uint256"
            },
            {
              "internalType": "uint256",
              "name": "maxMintsPerLimitWindow",
              "type": "uint256"
            }
          ],
          "internalType": "struct GemTypeConfig[]",
          "name": "_gemTypeConfig",
          "type": "tuple[]"
        }
      ],
      "name": "setGemTypesConfig",
      "outputs": [],
      "stateMutability": "nonpayable",
      "type": "function"
    },
    {
      "inputs": [
        {
          "components": [
            {
              "internalType": "uint256",
              "name": "timeOfReduction",
              "type": "uint256"
            },
            {
              "internalType": "uint256",
              "name": "maintenanceReductionPercent",
              "type": "uint256"
            }
          ],
          "internalType": "struct MaintenanceFeeReductionRecord[]",
          "name": "_maintenanceFeeReductionTable",
          "type": "tuple[]"
        }
      ],
      "name": "setMaintenanceReductionTable",
      "outputs": [],
      "stateMutability": "nonpayable",
      "type": "function"
    },
    {
      "inputs": [
        {
          "internalType": "uint256",
          "name": "_p2CutOverTime",
          "type": "uint256"
        }
      ],
      "name": "setP2CutOverTime",
      "outputs": [],
      "stateMutability": "nonpayable",
      "type": "function"
    },
    {
      "inputs": [
        {
          "internalType": "uint256",
          "name": "_daiToDistribute",
          "type": "uint256"
        },
        {
          "internalType": "uint256",
          "name": "_totalROT",
          "type": "uint256"
        }
      ],
      "name": "setP2Finance",
      "outputs": [],
      "stateMutability": "nonpayable",
      "type": "function"
    },
    {
      "inputs": [],
      "name": "unlockMint",
      "outputs": [],
      "stateMutability": "nonpayable",
      "type": "function"
    },
    {
      "inputs": [],
      "name": "unpause",
      "outputs": [],
      "stateMutability": "nonpayable",
      "type": "function"
    },
    {
      "inputs": [
        {
          "internalType": "uint8",
          "name": "_gemTypeId",
          "type": "uint8"
        }
      ],
      "name": "zeroMintCount",
      "outputs": [],
      "stateMutability": "nonpayable",
      "type": "function"
    }
  ],
  "transactionHash": "0x9caab989508a76db1665ddf4fe7b9c599449d17bc87299bf362616eb25673d4b",
  "args": [],
  "numDeployments": 15,
  "solcInputHash": "a8e0935fad520f8a5b3da8e45c66211c",
  "bytecode": "0x608060405234801561001057600080fd5b50612337806100206000396000f3fe608060405234801561001057600080fd5b50600436106101fb5760003560e01c80638456cb591161011a578063a669fac2116100ad578063d864d02a1161007c578063d864d02a1461048d578063e0b6bb67146104a0578063ebb6dad8146104a8578063f0bfe1d8146104bb578063fea3183b146104ce57600080fd5b8063a669fac21461043f578063c3f909d414610447578063ce8e6c901461045c578063d5485b1a1461048557600080fd5b80638ad15c21116100e95780638ad15c21146103fe57806394b1e666146104115780639956d1db146104245780639aa7e2381461043757600080fd5b80638456cb591461034d57806384e10a90146103555780638838640e146103d65780638a1ad325146103eb57600080fd5b8063685e2a9a116101925780636bfe99ec116101615780636bfe99ec146102d05780636e44f123146102e357806379561fa31461031f57806383c7d1521461033a57600080fd5b8063685e2a9a14610284578063689da2321461029757806369d40589146102aa5780636bcb63d6146102bd57600080fd5b806341ef35c6116101ce57806341ef35c6146102435780635a9a664f1461025657806364fa26671461025e578063683da5531461027157600080fd5b806315a0a4be14610200578063350acd53146102155780633f4ba83a146102285780633f5db5ca14610230575b600080fd5b61021361020e366004611719565b6104e3565b005b61021361022336600461173d565b61059d565b610213610660565b61021361023e3660046117b2565b610672565b61021361025136600461190a565b6106aa565b6102136106c3565b61021361026c366004611926565b6106d3565b61021361027f366004611953565b61087b565b61021361029236600461196e565b6108a7565b6102136102a5366004611987565b6108b4565b6102136102b8366004611953565b610a5e565b6102136102cb366004611953565b610a8c565b6102136102de366004611a83565b610abc565b61030c6102f1366004611719565b6001600160a01b031660009081526040602081905290205490565b6040519081526020015b60405180910390f35b60425460435460408051928352602083019190915201610316565b610213610348366004611b0b565b610ad1565b610213610af1565b61035d610b01565b6040516103169190600061014082019050825182526020830151602083015260408301516040830152606083015160608301526080830151608083015260a083015160a083015260c083015160c083015260e083015160e083015261010080840151818401525061012080840151818401525092915050565b6103de610b72565b6040516103169190611b27565b6102136103f9366004611953565b610c2d565b61021361040c36600461196e565b610c51565b61021361041f366004611bb9565b610c5e565b610213610432366004611bdb565b610c71565b61030c610cb0565b60415461030c565b61044f610ce2565b6040516103169190611cc0565b61030c61046a366004611719565b6001600160a01b03166000908152603f602052604090205490565b61030c610ed2565b61021361049b36600461196e565b610efe565b610213610f0b565b61035d6104b6366004611719565b610f1b565b6102136104c936600461196e565b610fbc565b6104d6610fc9565b6040516103169190611db9565b6104eb611036565b603c80546001600160a01b0319166001600160a01b03831617905560008060015b6002811061051c5761051c611e08565b0154603c5460405163095ea7b360e01b81526001600160a01b039182166004820152600019602482015291169150819063095ea7b3906044016020604051808303816000875af1158015610574573d6000803e3d6000fd5b505050506040513d601f19601f820116820180604052508101906105989190611e2c565b505050565b6105a5611036565b6105b1603e60006112d9565b60005b818110156105985760008383838181106105d0576105d0611e08565b9050604002018036038101906105e69190611e49565b603e805460018101825560009190915281517f8d800d6614d35eed73733ee453164a3b48076eb3138f466adeeb9dec7bb31f706002909202918201556020909101517f8d800d6614d35eed73733ee453164a3b48076eb3138f466adeeb9dec7bb31f7190910155508061065881611e98565b9150506105b4565b610668611036565b6106706110c2565b565b61067a611036565b60008081601d018360ff168154811061069557610695611e08565b60009182526020822060029091020155505050565b6106b2611036565b6106bf60108260056112fd565b5050565b6106cb611036565b61067061110f565b6106db611036565b60006106ec36839003830183611f89565b80519091508190600090610703908290600261133b565b5060208201516107199060028301906007611383565b50604082015161072f90600983019060026113ca565b506060820151600f82018054608085015160a086015163ffffffff908116600160401b0263ffffffff60401b199282166401000000000267ffffffffffffffff199094169190951617919091171691909117905560c082015161079890601083019060056112fd565b5060e08201516015820155610100808301516016830155610120830151601783015561014083015160188301805461016086015161018087015161ffff1990921693151561ff001916939093179215159093029190911765ffffffff000019166201000063ffffffff909316929092029190911790556101a090910151805160198301556020810151601a830155604090810151601b909201805460ff191692151592909217909155517fe187417c9675ae5cc80acb8ab43a9ae12145aa303ca0ea50e84d060e5ef46aa79061086f908490612161565b60405180910390a15050565b610883611036565b6018805463ffffffff909216620100000265ffffffff000019909216919091179055565b6108af611036565b601555565b6108bc611036565b6108c8603d6000611411565b6108d4601d6000611432565b60005b818110156105985760008383838181106108f3576108f3611e08565b905060c00201803603810190610909919061225e565b603d8054600181018255600091909152815160069091027fece66cfdbd22e3f37d348a3d8e19074452862cd65fd4b9a11f0336d1ac6d1dc3810191825560208301517fece66cfdbd22e3f37d348a3d8e19074452862cd65fd4b9a11f0336d1ac6d1dc4820155604083015192935083926109a7917fece66cfdbd22e3f37d348a3d8e19074452862cd65fd4b9a11f0336d1ac6d1dc501906002611453565b5060608201516004820155608090910151600590910155506040805180820190915260008082524263ffffffff90811660208401908152601d8054600181018255935292517f6d4407e7be21f808e6509aa9fa9143369579dd7d760fe20a2c09680fc146134f60029093029283015591517f6d4407e7be21f808e6509aa9fa9143369579dd7d760fe20a2c09680fc1461350909101805463ffffffff19169190921617905580610a5681611e98565b9150506108d7565b610a66611036565b600f805463ffffffff909216600160401b0263ffffffff60401b19909216919091179055565b610a94611036565b600f805463ffffffff9092166401000000000267ffffffff0000000019909216919091179055565b610ac4611036565b6106bf60098260026113ca565b610ad9611036565b610ae66002826007611383565b50600080600161050c565b610af9611036565b610670611147565b610b09611480565b610b11611036565b506040805161014081018252602e548152602f546020820152603054918101919091526031546060820152603254608082015260335460a082015260345460c082015260355460e08201526036546101008201526037546101208201525b90565b60606000603d01805480602002602001604051908101604052809291908181526020016000905b82821015610c245760008481526020908190206040805160a081018252600686029092018054835260018101549383019390935280518082018083529293929184019160028085019182845b815481526020019060010190808311610be557505050505081526020016004820154815260200160058201548152505081526020019060010190610b99565b50505050905090565b610c35611036565b600f805463ffffffff191663ffffffff92909216919091179055565b610c59611036565b601655565b610c66611036565b604291909155604355565b610c79611036565b6000610c8a368390038301836122e5565b80516019556020810151601a5560400151601b805460ff19169115159190911790555050565b600080610cbb611191565b9050610cdc816001600160a01b03166000908152603f602052604090205490565b91505090565b610cea6114d3565b6040805161020081019091526000816101c081018260028282826020028201915b81546001600160a01b03168152600190910190602001808311610d0b5750505091835250506040805160e081019182905260209092019190600284019060079082845b81546001600160a01b03168152600190910190602001808311610d4e575050509183525050604080518082019091526020909101906009830160026000835b82821015610dd45760408051606081019182905290600384810287019182845b815481526020019060010190808311610dad57505050505081526020019060010190610d8d565b50505090825250600f82015463ffffffff808216602084015264010000000082048116604080850191909152600160401b909204166060830152805160a081019182905260809092019190601084019060059082845b815481526020019060010190808311610e2a575050509183525050601582015460208083019190915260168301546040808401919091526017840154606080850191909152601885015460ff8082161515608087015261010082048116151560a08701526201000090910463ffffffff1660c08601528251918201835260198601548252601a86015493820193909352601b9094015490911615159083015260e00152919050565b600080610edd611191565b9050610cdc816001600160a01b031660009081526040602081905290205490565b610f06611036565b601755565b610f13611036565b6106706111ec565b610f23611480565b610f2b611036565b506001600160a01b038116600090815260386020908152604091829020825161014081018452815481526001820154928101929092526002810154928201929092526003820154606082015260048201546080820152600582015460a0820152600682015460c0820152600782015460e082015260088201546101008201526009909101546101208201525b919050565b610fc4611036565b604155565b60606000603e01805480602002602001604051908101604052809291908181526020016000905b82821015610c2457838290600052602060002090600202016040518060400160405290816000820154815260200160018201548152505081526020019060010190610ff0565b7fc8fcad8db84d3cc18b4c41d551ea0ee66dd599cde068d998e57d5e09332c131c600401546001600160a01b031633146106705760405162461bcd60e51b815260206004820152602260248201527f4c69624469616d6f6e643a204d75737420626520636f6e7472616374206f776e60448201526132b960f11b60648201526084015b60405180910390fd5b6110ca611227565b6018805461ff00191690556040513381526000907f5db9ee0a495bf2e6ff9c91a7834c1ba4fdd244a5e8aa4e537bd38aeae4b073aa906020015b60405180910390a150565b6018805460ff191690556040516000907f16fe33fab5fd851b7e9a856a666ea43cc5515bbb51689c3d370085d004418123908290a150565b61114f611275565b6018805461ff0019166101001790556040513381526000907f62e78cea01bee320cd4e420270b5ea74000d11b0c9f74754ebdbfc544b05a25890602001611104565b60003033036111e757600080368080601f0160208091040260200160405190810160405280939291908181526020018383808284376000920191909152505050503601516001600160a01b03169150610b6f9050565b503390565b6018805460ff191660011790556040516000907faa71a6e005bc4e0ea53d6184338a28d3f4737f18bed30c92d93a239ad5a71747908290a150565b601854610100900460ff166106705760405162461bcd60e51b815260206004820152601460248201527314185d5cd8589b194e881b9bdd081c185d5cd95960621b60448201526064016110b9565b601854610100900460ff16156106705760405162461bcd60e51b8152602060048201526024808201527f5061757361626c653a207061757365642c207472616e73666572206973206c6f60448201526318dad95960e21b60648201526084016110b9565b50805460008255600202906000526020600020908101906112fa9190611587565b50565b826005810192821561132b579160200282015b8281111561132b578251825591602001919060010190611310565b506113379291506115a2565b5090565b826002810192821561132b579160200282015b8281111561132b57825182546001600160a01b0319166001600160a01b0390911617825560209092019160019091019061134e565b826007810192821561132b579160200282018281111561132b57825182546001600160a01b0319166001600160a01b0390911617825560209092019160019091019061134e565b600683019183908215611405579160200282015b828111156114055782516113f590839060036115b7565b50916020019190600301906113de565b506113379291506115e4565b50805460008255600602906000526020600020908101906112fa9190611605565b50805460008255600202906000526020600020908101906112fa919061163b565b826002810192821561132b579160200282018281111561132b578251825591602001919060010190611310565b604051806101400160405280600081526020016000815260200160008152602001600081526020016000815260200160008152602001600081526020016000815260200160008152602001600081525090565b604051806101c001604052806114e761165f565b81526020016114f461167d565b815260200161150161169b565b81526000602082018190526040820181905260608201526080016115236116c8565b8152602001600081526020016000815260200160008152602001600015158152602001600015158152602001600063ffffffff168152602001611582604051806060016040528060008152602001600081526020016000151581525090565b905290565b5b808211156113375760008082556001820155600201611588565b5b8082111561133757600081556001016115a3565b826003810192821561132b579160200282018281111561132b578251825591602001919060010190611310565b808211156113375760008082556001820181905560028201556003016115e4565b80821115611337576000808255600182018190556002820181905560038201819055600482018190556005820155600601611605565b5b80821115611337576000815560018101805463ffffffff1916905560020161163c565b60405180604001604052806002906020820280368337509192915050565b6040518060e001604052806007906020820280368337509192915050565b60405180604001604052806002905b6116b26116e6565b8152602001906001900390816116aa5790505090565b6040518060a001604052806005906020820280368337509192915050565b60405180606001604052806003906020820280368337509192915050565b6001600160a01b03811681146112fa57600080fd5b60006020828403121561172b57600080fd5b813561173681611704565b9392505050565b6000806020838503121561175057600080fd5b823567ffffffffffffffff8082111561176857600080fd5b818501915085601f83011261177c57600080fd5b81358181111561178b57600080fd5b8660208260061b85010111156117a057600080fd5b60209290920196919550909350505050565b6000602082840312156117c457600080fd5b813560ff8116811461173657600080fd5b634e487b7160e01b600052604160045260246000fd5b6040516101c0810167ffffffffffffffff8111828210171561180f5761180f6117d5565b60405290565b6040805190810167ffffffffffffffff8111828210171561180f5761180f6117d5565b6040516060810167ffffffffffffffff8111828210171561180f5761180f6117d5565b6000611865611815565b905080604083018481111561187957600080fd5b835b8181101561189357803583526020928301920161187b565b50505092915050565b600082601f8301126118ad57600080fd5b60405160a0810181811067ffffffffffffffff821117156118d0576118d06117d5565b6040528060a08401858111156118e557600080fd5b845b818110156118ff5780358352602092830192016118e7565b509195945050505050565b600060a0828403121561191c57600080fd5b611736838361189c565b6000610400828403121561193957600080fd5b50919050565b803563ffffffff81168114610fb757600080fd5b60006020828403121561196557600080fd5b6117368261193f565b60006020828403121561198057600080fd5b5035919050565b6000806020838503121561199a57600080fd5b823567ffffffffffffffff808211156119b257600080fd5b818501915085601f8301126119c657600080fd5b8135818111156119d557600080fd5b86602060c0830285010111156117a057600080fd5b6000601f83818401126119fc57600080fd5b611a04611815565b8060c0850186811115611a1657600080fd5b855b81811015611a77578785820112611a2f5760008081fd5b611a37611838565b80606083018a811115611a4a5760008081fd5b835b81811015611a64578035845260209384019301611a4c565b5050855250602090930192606001611a18565b50909695505050505050565b600060c08284031215611a9557600080fd5b61173683836119ea565b600082601f830112611ab057600080fd5b60405160e0810181811067ffffffffffffffff82111715611ad357611ad36117d5565b6040528060e0840185811115611ae857600080fd5b845b818110156118ff578035611afd81611704565b835260209283019201611aea565b600060e08284031215611b1d57600080fd5b6117368383611a9f565b60208082528251828201819052600091906040908185019086840185805b83811015611bab57825180518652878101518887015286810151878701845b6002811015611b815782518252918a0191908a0190600101611b64565b5050506060810151608087810191909152015160a086015260c09094019391860191600101611b45565b509298975050505050505050565b60008060408385031215611bcc57600080fd5b50508035926020909101359150565b60006060828403121561193957600080fd5b8060005b6002811015611c195781516001600160a01b0316845260209384019390910190600101611bf1565b50505050565b8060005b6007811015611c195781516001600160a01b0316845260209384019390910190600101611c23565b806000805b6002811015611c9657825185835b6003811015611c7d578251825260209283019290910190600101611c5e565b5050506060949094019360209290920191600101611c50565b5050505050565b8060005b6005811015611c19578151845260209384019390910190600101611ca1565b600061040082019050611cd4828451611bed565b6020830151611ce66040840182611c1f565b506040830151610120611cfb81850183611c4b565b606085015163ffffffff9081166101e08601526080860151811661020086015260a08601511661022085015260c08501519150611d3c610240850183611c9d565b60e08501516102e0850152610100850151610300850152840151610320840152506101408301511515610340830152610160830151151561036083015261018083015163ffffffff166103808301526101a083015180516103a084015260208101516103c0840152604081015115156103e08401525b5092915050565b602080825282518282018190526000919060409081850190868401855b82811015611dfb57815180518552860151868501529284019290850190600101611dd6565b5091979650505050505050565b634e487b7160e01b600052603260045260246000fd5b80151581146112fa57600080fd5b600060208284031215611e3e57600080fd5b815161173681611e1e565b600060408284031215611e5b57600080fd5b6040516040810181811067ffffffffffffffff82111715611e7e57611e7e6117d5565b604052823581526020928301359281019290925250919050565b600060018201611eb857634e487b7160e01b600052601160045260246000fd5b5060010190565b600082601f830112611ed057600080fd5b611ed8611815565b806040840185811115611eea57600080fd5b845b81811015611f0d578035611eff81611704565b845260209384019301611eec565b509095945050505050565b8035610fb781611e1e565b600060608284031215611f3557600080fd5b6040516060810181811067ffffffffffffffff82111715611f5857611f586117d5565b806040525080915082358152602083013560208201526040830135611f7c81611e1e565b6040919091015292915050565b60006104008284031215611f9c57600080fd5b611fa46117eb565b611fae8484611ebf565b8152611fbd8460408501611a9f565b6020820152610120611fd1858286016119ea565b6040830152611fe36101e0850161193f565b6060830152611ff5610200850161193f565b6080830152612007610220850161193f565b60a083015261201a85610240860161189c565b60c08301526102e084013560e08301526103008401356101008301526103208401359082015261204d6103408401611f18565b6101408201526120606103608401611f18565b610160820152612073610380840161193f565b610180820152612087846103a08501611f23565b6101a08201529392505050565b8060005b6002811015611c195781356120ac81611704565b6001600160a01b031684526020938401939190910190600101612098565b8060005b6007811015611c195781356120e281611704565b6001600160a01b0316845260209384019391909101906001016120ce565b806000805b6002811015611c9657606080848737948501828152949290920191600101612105565b60a081833750600060a082015250565b8035825260208101356020830152604081013561215481611e1e565b8015156040840152505050565b61040081016121708284612094565b61218060408301604085016120ca565b610120612191818401828601612100565b506101e06121a081850161193f565b63ffffffff16908301526102006121b884820161193f565b63ffffffff16908301526102206121d084820161193f565b63ffffffff16908301526102406121eb818401858301612128565b506102e083810135908301526103008084013590830152610320808401359083015261034061221b818501611f18565b15159083015261036061222f848201611f18565b15159083015261038061224384820161193f565b63ffffffff16908301526103a0611db2818401858301612138565b600060c0828403121561227057600080fd5b60405160a0810181811067ffffffffffffffff82111715612293576122936117d5565b8060405250823581526020830135602082015283605f8401126122b557600080fd5b6122c2846040850161185b565b60408201526080830135606082015260a083013560808201528091505092915050565b6000606082840312156122f757600080fd5b6117368383611f2356fea26469706673582212208c50782c34f466a65f7629b0e0b7640c48a30a09ccf9aea5425d92e953ae735e64736f6c634300080f0033",
  "devdoc": {
    "author": "Decentralized Foundation Team",
    "kind": "dev",
    "methods": {},
    "title": "ERC721Facet EIP-2535 Diamond Facet",
    "version": 1
  },
  "userdoc": {
    "kind": "user",
    "methods": {},
    "notice": "The Contract uses diamond storage providing functionality of ERC721, ERC721Enumerable, ERC721Burnable, ERC721Pausable",
    "version": 1
  },
  "storageLayout": {
    "storage": [
      {
        "astId": 4283,
        "contract": "contracts/facets/ConfigFacet.sol:ConfigFacet",
        "label": "s",
        "offset": 0,
        "slot": "0",
        "type": "t_struct(AppStorage)4570_storage"
      }
    ],
    "types": {
      "t_address": {
        "encoding": "inplace",
        "label": "address",
        "numberOfBytes": "20"
      },
      "t_array(t_address)7_storage": {
        "base": "t_address",
        "encoding": "inplace",
        "label": "address[7]",
        "numberOfBytes": "224"
      },
      "t_array(t_array(t_uint256)3_storage)2_storage": {
        "base": "t_array(t_uint256)3_storage",
        "encoding": "inplace",
        "label": "uint256[3][2]",
        "numberOfBytes": "192"
      },
      "t_array(t_contract(IERC20)737)2_storage": {
        "base": "t_contract(IERC20)737",
        "encoding": "inplace",
        "label": "contract IERC20[2]",
        "numberOfBytes": "64"
      },
      "t_array(t_struct(GemTypeConfig)4429_storage)dyn_storage": {
        "base": "t_struct(GemTypeConfig)4429_storage",
        "encoding": "dynamic_array",
        "label": "struct GemTypeConfig[]",
        "numberOfBytes": "32"
      },
      "t_array(t_struct(GemTypeMintWindow)4434_storage)dyn_storage": {
        "base": "t_struct(GemTypeMintWindow)4434_storage",
        "encoding": "dynamic_array",
        "label": "struct GemTypeMintWindow[]",
        "numberOfBytes": "32"
      },
      "t_array(t_struct(MaintenanceFeeReductionRecord)4501_storage)dyn_storage": {
        "base": "t_struct(MaintenanceFeeReductionRecord)4501_storage",
        "encoding": "dynamic_array",
        "label": "struct MaintenanceFeeReductionRecord[]",
        "numberOfBytes": "32"
      },
      "t_array(t_uint256)2_storage": {
        "base": "t_uint256",
        "encoding": "inplace",
        "label": "uint256[2]",
        "numberOfBytes": "64"
      },
      "t_array(t_uint256)3_storage": {
        "base": "t_uint256",
        "encoding": "inplace",
        "label": "uint256[3]",
        "numberOfBytes": "96"
      },
      "t_array(t_uint256)5_storage": {
        "base": "t_uint256",
        "encoding": "inplace",
        "label": "uint256[5]",
        "numberOfBytes": "160"
      },
      "t_array(t_uint256)dyn_storage": {
        "base": "t_uint256",
        "encoding": "dynamic_array",
        "label": "uint256[]",
        "numberOfBytes": "32"
      },
      "t_bool": {
        "encoding": "inplace",
        "label": "bool",
        "numberOfBytes": "1"
      },
      "t_contract(IERC20)737": {
        "encoding": "inplace",
        "label": "contract IERC20",
        "numberOfBytes": "20"
      },
      "t_enum(Booster)4456": {
        "encoding": "inplace",
        "label": "enum Booster",
        "numberOfBytes": "1"
      },
      "t_mapping(t_address,t_bool)": {
        "encoding": "mapping",
        "key": "t_address",
        "label": "mapping(address => bool)",
        "numberOfBytes": "32",
        "value": "t_bool"
      },
      "t_mapping(t_address,t_mapping(t_address,t_bool))": {
        "encoding": "mapping",
        "key": "t_address",
        "label": "mapping(address => mapping(address => bool))",
        "numberOfBytes": "32",
        "value": "t_mapping(t_address,t_bool)"
      },
      "t_mapping(t_address,t_mapping(t_uint256,t_uint256))": {
        "encoding": "mapping",
        "key": "t_address",
        "label": "mapping(address => mapping(uint256 => uint256))",
        "numberOfBytes": "32",
        "value": "t_mapping(t_uint256,t_uint256)"
      },
      "t_mapping(t_address,t_mapping(t_uint8,t_mapping(t_enum(Booster)4456,t_uint256)))": {
        "encoding": "mapping",
        "key": "t_address",
        "label": "mapping(address => mapping(uint8 => mapping(enum Booster => uint256)))",
        "numberOfBytes": "32",
        "value": "t_mapping(t_uint8,t_mapping(t_enum(Booster)4456,t_uint256))"
      },
      "t_mapping(t_address,t_struct(Fi)4477_storage)": {
        "encoding": "mapping",
        "key": "t_address",
        "label": "mapping(address => struct Fi)",
        "numberOfBytes": "32",
        "value": "t_struct(Fi)4477_storage"
      },
      "t_mapping(t_address,t_uint256)": {
        "encoding": "mapping",
        "key": "t_address",
        "label": "mapping(address => uint256)",
        "numberOfBytes": "32",
        "value": "t_uint256"
      },
      "t_mapping(t_enum(Booster)4456,t_uint256)": {
        "encoding": "mapping",
        "key": "t_enum(Booster)4456",
        "label": "mapping(enum Booster => uint256)",
        "numberOfBytes": "32",
        "value": "t_uint256"
      },
      "t_mapping(t_uint256,t_address)": {
        "encoding": "mapping",
        "key": "t_uint256",
        "label": "mapping(uint256 => address)",
        "numberOfBytes": "32",
        "value": "t_address"
      },
      "t_mapping(t_uint256,t_struct(Gem)4496_storage)": {
        "encoding": "mapping",
        "key": "t_uint256",
        "label": "mapping(uint256 => struct Gem)",
        "numberOfBytes": "32",
        "value": "t_struct(Gem)4496_storage"
      },
      "t_mapping(t_uint256,t_uint256)": {
        "encoding": "mapping",
        "key": "t_uint256",
        "label": "mapping(uint256 => uint256)",
        "numberOfBytes": "32",
        "value": "t_uint256"
      },
      "t_mapping(t_uint8,t_mapping(t_enum(Booster)4456,t_uint256))": {
        "encoding": "mapping",
        "key": "t_uint8",
        "label": "mapping(uint8 => mapping(enum Booster => uint256))",
        "numberOfBytes": "32",
        "value": "t_mapping(t_enum(Booster)4456,t_uint256)"
      },
      "t_string_storage": {
        "encoding": "bytes",
        "label": "string",
        "numberOfBytes": "32"
      },
      "t_struct(AppStorage)4570_storage": {
        "encoding": "inplace",
        "label": "struct AppStorage",
        "members": [
          {
            "astId": 4504,
            "contract": "contracts/facets/ConfigFacet.sol:ConfigFacet",
            "label": "config",
            "offset": 0,
            "slot": "0",
            "type": "t_struct(ProtocolConfig)4416_storage"
          },
          {
            "astId": 4508,
            "contract": "contracts/facets/ConfigFacet.sol:ConfigFacet",
            "label": "gemTypes",
            "offset": 0,
            "slot": "28",
            "type": "t_array(t_struct(GemTypeConfig)4429_storage)dyn_storage"
          },
          {
            "astId": 4512,
            "contract": "contracts/facets/ConfigFacet.sol:ConfigFacet",
            "label": "gemTypesMintWindows",
            "offset": 0,
            "slot": "29",
            "type": "t_array(t_struct(GemTypeMintWindow)4434_storage)dyn_storage"
          },
          {
            "astId": 4515,
            "contract": "contracts/facets/ConfigFacet.sol:ConfigFacet",
            "label": "defoTokenLimitWindow",
            "offset": 0,
            "slot": "30",
            "type": "t_struct(DEFOTokenLimitWindow)4443_storage"
          },
          {
            "astId": 4520,
            "contract": "contracts/facets/ConfigFacet.sol:ConfigFacet",
            "label": "gems",
            "offset": 0,
            "slot": "32",
            "type": "t_mapping(t_uint256,t_struct(Gem)4496_storage)"
          },
          {
            "astId": 4523,
            "contract": "contracts/facets/ConfigFacet.sol:ConfigFacet",
            "label": "nft",
            "offset": 0,
            "slot": "33",
            "type": "t_struct(ERC721Storage)4351_storage"
          },
          {
            "astId": 4526,
            "contract": "contracts/facets/ConfigFacet.sol:ConfigFacet",
            "label": "total",
            "offset": 0,
            "slot": "46",
            "type": "t_struct(Fi)4477_storage"
          },
          {
            "astId": 4531,
            "contract": "contracts/facets/ConfigFacet.sol:ConfigFacet",
            "label": "usersFi",
            "offset": 0,
            "slot": "56",
            "type": "t_mapping(t_address,t_struct(Fi)4477_storage)"
          },
          {
            "astId": 4540,
            "contract": "contracts/facets/ConfigFacet.sol:ConfigFacet",
            "label": "usersNextGemBooster",
            "offset": 0,
            "slot": "57",
            "type": "t_mapping(t_address,t_mapping(t_uint8,t_mapping(t_enum(Booster)4456,t_uint256)))"
          },
          {
            "astId": 4543,
            "contract": "contracts/facets/ConfigFacet.sol:ConfigFacet",
            "label": "defoTokenLimitPerRewards",
            "offset": 0,
            "slot": "58",
            "type": "t_struct(DEFOTokenLimitPerRewards)4452_storage"
          },
          {
            "astId": 4545,
            "contract": "contracts/facets/ConfigFacet.sol:ConfigFacet",
            "label": "routerWallet",
            "offset": 0,
            "slot": "60",
            "type": "t_address"
          },
          {
            "astId": 4549,
            "contract": "contracts/facets/ConfigFacet.sol:ConfigFacet",
            "label": "gemTypes2",
            "offset": 0,
            "slot": "61",
            "type": "t_array(t_struct(GemTypeConfig)4429_storage)dyn_storage"
          },
          {
            "astId": 4553,
            "contract": "contracts/facets/ConfigFacet.sol:ConfigFacet",
            "label": "maintenanceFeeReductionTable",
            "offset": 0,
            "slot": "62",
            "type": "t_array(t_struct(MaintenanceFeeReductionRecord)4501_storage)dyn_storage"
          },
          {
            "astId": 4557,
            "contract": "contracts/facets/ConfigFacet.sol:ConfigFacet",
            "label": "phase2DepositedToVault",
            "offset": 0,
            "slot": "63",
            "type": "t_mapping(t_address,t_uint256)"
          },
          {
            "astId": 4561,
            "contract": "contracts/facets/ConfigFacet.sol:ConfigFacet",
            "label": "phase2DaiReceived",
            "offset": 0,
            "slot": "64",
            "type": "t_mapping(t_address,t_uint256)"
          },
          {
            "astId": 4563,
            "contract": "contracts/facets/ConfigFacet.sol:ConfigFacet",
            "label": "p2CutOverTime",
            "offset": 0,
            "slot": "65",
            "type": "t_uint256"
          },
          {
            "astId": 4565,
            "contract": "contracts/facets/ConfigFacet.sol:ConfigFacet",
            "label": "daiToDistribute",
            "offset": 0,
            "slot": "66",
            "type": "t_uint256"
          },
          {
            "astId": 4567,
            "contract": "contracts/facets/ConfigFacet.sol:ConfigFacet",
            "label": "totalROT",
            "offset": 0,
            "slot": "67",
            "type": "t_uint256"
          },
          {
            "astId": 4569,
            "contract": "contracts/facets/ConfigFacet.sol:ConfigFacet",
            "label": "totalP2DepositedToVault",
            "offset": 0,
            "slot": "68",
            "type": "t_uint256"
          }
        ],
        "numberOfBytes": "2208"
      },
      "t_struct(Counter)2737_storage": {
        "encoding": "inplace",
        "label": "struct Counters.Counter",
        "members": [
          {
            "astId": 2736,
            "contract": "contracts/facets/ConfigFacet.sol:ConfigFacet",
            "label": "_value",
            "offset": 0,
            "slot": "0",
            "type": "t_uint256"
          }
        ],
        "numberOfBytes": "32"
      },
      "t_struct(DEFOTokenLimitPerRewards)4452_storage": {
        "encoding": "inplace",
        "label": "struct DEFOTokenLimitPerRewards",
        "members": [
          {
            "astId": 4447,
            "contract": "contracts/facets/ConfigFacet.sol:ConfigFacet",
            "label": "tokensSold",
            "offset": 0,
            "slot": "0",
            "type": "t_mapping(t_address,t_uint256)"
          },
          {
            "astId": 4451,
            "contract": "contracts/facets/ConfigFacet.sol:ConfigFacet",
            "label": "timeOfWindowStart",
            "offset": 0,
            "slot": "1",
            "type": "t_mapping(t_address,t_uint256)"
          }
        ],
        "numberOfBytes": "64"
      },
      "t_struct(DEFOTokenLimitWindow)4443_storage": {
        "encoding": "inplace",
        "label": "struct DEFOTokenLimitWindow",
        "members": [
          {
            "astId": 4438,
            "contract": "contracts/facets/ConfigFacet.sol:ConfigFacet",
            "label": "tokensSold",
            "offset": 0,
            "slot": "0",
            "type": "t_mapping(t_address,t_uint256)"
          },
          {
            "astId": 4442,
            "contract": "contracts/facets/ConfigFacet.sol:ConfigFacet",
            "label": "timeOfLastSale",
            "offset": 0,
            "slot": "1",
            "type": "t_mapping(t_address,t_uint256)"
          }
        ],
        "numberOfBytes": "64"
      },
      "t_struct(DefoTokenLimitConfig)4375_storage": {
        "encoding": "inplace",
        "label": "struct DefoTokenLimitConfig",
        "members": [
          {
            "astId": 4370,
            "contract": "contracts/facets/ConfigFacet.sol:ConfigFacet",
            "label": "saleLimitPeriod",
            "offset": 0,
            "slot": "0",
            "type": "t_uint256"
          },
          {
            "astId": 4372,
            "contract": "contracts/facets/ConfigFacet.sol:ConfigFacet",
            "label": "saleLimitAmount",
            "offset": 0,
            "slot": "1",
            "type": "t_uint256"
          },
          {
            "astId": 4374,
            "contract": "contracts/facets/ConfigFacet.sol:ConfigFacet",
            "label": "limitByReward",
            "offset": 0,
            "slot": "2",
            "type": "t_bool"
          }
        ],
        "numberOfBytes": "96"
      },
      "t_struct(ERC721Storage)4351_storage": {
        "encoding": "inplace",
        "label": "struct ERC721Storage",
        "members": [
          {
            "astId": 4306,
            "contract": "contracts/facets/ConfigFacet.sol:ConfigFacet",
            "label": "name",
            "offset": 0,
            "slot": "0",
            "type": "t_string_storage"
          },
          {
            "astId": 4308,
            "contract": "contracts/facets/ConfigFacet.sol:ConfigFacet",
            "label": "symbol",
            "offset": 0,
            "slot": "1",
            "type": "t_string_storage"
          },
          {
            "astId": 4311,
            "contract": "contracts/facets/ConfigFacet.sol:ConfigFacet",
            "label": "tokenIdTracker",
            "offset": 0,
            "slot": "2",
            "type": "t_struct(Counter)2737_storage"
          },
          {
            "astId": 4315,
            "contract": "contracts/facets/ConfigFacet.sol:ConfigFacet",
            "label": "owners",
            "offset": 0,
            "slot": "3",
            "type": "t_mapping(t_uint256,t_address)"
          },
          {
            "astId": 4319,
            "contract": "contracts/facets/ConfigFacet.sol:ConfigFacet",
            "label": "balances",
            "offset": 0,
            "slot": "4",
            "type": "t_mapping(t_address,t_uint256)"
          },
          {
            "astId": 4323,
            "contract": "contracts/facets/ConfigFacet.sol:ConfigFacet",
            "label": "tokenApprovals",
            "offset": 0,
            "slot": "5",
            "type": "t_mapping(t_uint256,t_address)"
          },
          {
            "astId": 4329,
            "contract": "contracts/facets/ConfigFacet.sol:ConfigFacet",
            "label": "operatorApprovals",
            "offset": 0,
            "slot": "6",
            "type": "t_mapping(t_address,t_mapping(t_address,t_bool))"
          },
          {
            "astId": 4331,
            "contract": "contracts/facets/ConfigFacet.sol:ConfigFacet",
            "label": "baseURI",
            "offset": 0,
            "slot": "7",
            "type": "t_string_storage"
          },
          {
            "astId": 4337,
            "contract": "contracts/facets/ConfigFacet.sol:ConfigFacet",
            "label": "ownedTokens",
            "offset": 0,
            "slot": "8",
            "type": "t_mapping(t_address,t_mapping(t_uint256,t_uint256))"
          },
          {
            "astId": 4341,
            "contract": "contracts/facets/ConfigFacet.sol:ConfigFacet",
            "label": "ownedTokensIndex",
            "offset": 0,
            "slot": "9",
            "type": "t_mapping(t_uint256,t_uint256)"
          },
          {
            "astId": 4344,
            "contract": "contracts/facets/ConfigFacet.sol:ConfigFacet",
            "label": "allTokens",
            "offset": 0,
            "slot": "10",
            "type": "t_array(t_uint256)dyn_storage"
          },
          {
            "astId": 4348,
            "contract": "contracts/facets/ConfigFacet.sol:ConfigFacet",
            "label": "allTokensIndex",
            "offset": 0,
            "slot": "11",
            "type": "t_mapping(t_uint256,t_uint256)"
          },
          {
            "astId": 4350,
            "contract": "contracts/facets/ConfigFacet.sol:ConfigFacet",
            "label": "init",
            "offset": 0,
            "slot": "12",
            "type": "t_bool"
          }
        ],
        "numberOfBytes": "416"
      },
      "t_struct(Fi)4477_storage": {
        "encoding": "inplace",
        "label": "struct Fi",
        "members": [
          {
            "astId": 4458,
            "contract": "contracts/facets/ConfigFacet.sol:ConfigFacet",
            "label": "claimedGross",
            "offset": 0,
            "slot": "0",
            "type": "t_uint256"
          },
          {
            "astId": 4460,
            "contract": "contracts/facets/ConfigFacet.sol:ConfigFacet",
            "label": "claimedNet",
            "offset": 0,
            "slot": "1",
            "type": "t_uint256"
          },
          {
            "astId": 4462,
            "contract": "contracts/facets/ConfigFacet.sol:ConfigFacet",
            "label": "stakedGross",
            "offset": 0,
            "slot": "2",
            "type": "t_uint256"
          },
          {
            "astId": 4464,
            "contract": "contracts/facets/ConfigFacet.sol:ConfigFacet",
            "label": "stakedNet",
            "offset": 0,
            "slot": "3",
            "type": "t_uint256"
          },
          {
            "astId": 4466,
            "contract": "contracts/facets/ConfigFacet.sol:ConfigFacet",
            "label": "unStakedGross",
            "offset": 0,
            "slot": "4",
            "type": "t_uint256"
          },
          {
            "astId": 4468,
            "contract": "contracts/facets/ConfigFacet.sol:ConfigFacet",
            "label": "unStakedGrossUp",
            "offset": 0,
            "slot": "5",
            "type": "t_uint256"
          },
          {
            "astId": 4470,
            "contract": "contracts/facets/ConfigFacet.sol:ConfigFacet",
            "label": "unStakedNet",
            "offset": 0,
            "slot": "6",
            "type": "t_uint256"
          },
          {
            "astId": 4472,
            "contract": "contracts/facets/ConfigFacet.sol:ConfigFacet",
            "label": "donated",
            "offset": 0,
            "slot": "7",
            "type": "t_uint256"
          },
          {
            "astId": 4474,
            "contract": "contracts/facets/ConfigFacet.sol:ConfigFacet",
            "label": "claimTaxPaid",
            "offset": 0,
            "slot": "8",
            "type": "t_uint256"
          },
          {
            "astId": 4476,
            "contract": "contracts/facets/ConfigFacet.sol:ConfigFacet",
            "label": "vaultTaxPaid",
            "offset": 0,
            "slot": "9",
            "type": "t_uint256"
          }
        ],
        "numberOfBytes": "320"
      },
      "t_struct(Gem)4496_storage": {
        "encoding": "inplace",
        "label": "struct Gem",
        "members": [
          {
            "astId": 4479,
            "contract": "contracts/facets/ConfigFacet.sol:ConfigFacet",
            "label": "gemTypeId",
            "offset": 0,
            "slot": "0",
            "type": "t_uint8"
          },
          {
            "astId": 4482,
            "contract": "contracts/facets/ConfigFacet.sol:ConfigFacet",
            "label": "booster",
            "offset": 1,
            "slot": "0",
            "type": "t_enum(Booster)4456"
          },
          {
            "astId": 4484,
            "contract": "contracts/facets/ConfigFacet.sol:ConfigFacet",
            "label": "mintTime",
            "offset": 2,
            "slot": "0",
            "type": "t_uint32"
          },
          {
            "astId": 4486,
            "contract": "contracts/facets/ConfigFacet.sol:ConfigFacet",
            "label": "lastRewardWithdrawalTime",
            "offset": 6,
            "slot": "0",
            "type": "t_uint32"
          },
          {
            "astId": 4488,
            "contract": "contracts/facets/ConfigFacet.sol:ConfigFacet",
            "label": "lastMaintenanceTime",
            "offset": 10,
            "slot": "0",
            "type": "t_uint32"
          },
          {
            "astId": 4491,
            "contract": "contracts/facets/ConfigFacet.sol:ConfigFacet",
            "label": "fi",
            "offset": 0,
            "slot": "1",
            "type": "t_struct(Fi)4477_storage"
          },
          {
            "astId": 4493,
            "contract": "contracts/facets/ConfigFacet.sol:ConfigFacet",
            "label": "presold",
            "offset": 0,
            "slot": "11",
            "type": "t_bool"
          },
          {
            "astId": 4495,
            "contract": "contracts/facets/ConfigFacet.sol:ConfigFacet",
            "label": "maintenanceFeePaid",
            "offset": 0,
            "slot": "12",
            "type": "t_uint256"
          }
        ],
        "numberOfBytes": "416"
      },
      "t_struct(GemTypeConfig)4429_storage": {
        "encoding": "inplace",
        "label": "struct GemTypeConfig",
        "members": [
          {
            "astId": 4418,
            "contract": "contracts/facets/ConfigFacet.sol:ConfigFacet",
            "label": "maintenanceFeeDai",
            "offset": 0,
            "slot": "0",
            "type": "t_uint256"
          },
          {
            "astId": 4420,
            "contract": "contracts/facets/ConfigFacet.sol:ConfigFacet",
            "label": "rewardAmountDefo",
            "offset": 0,
            "slot": "1",
            "type": "t_uint256"
          },
          {
            "astId": 4424,
            "contract": "contracts/facets/ConfigFacet.sol:ConfigFacet",
            "label": "price",
            "offset": 0,
            "slot": "2",
            "type": "t_array(t_uint256)2_storage"
          },
          {
            "astId": 4426,
            "contract": "contracts/facets/ConfigFacet.sol:ConfigFacet",
            "label": "taperRewardsThresholdDefo",
            "offset": 0,
            "slot": "4",
            "type": "t_uint256"
          },
          {
            "astId": 4428,
            "contract": "contracts/facets/ConfigFacet.sol:ConfigFacet",
            "label": "maxMintsPerLimitWindow",
            "offset": 0,
            "slot": "5",
            "type": "t_uint256"
          }
        ],
        "numberOfBytes": "192"
      },
      "t_struct(GemTypeMintWindow)4434_storage": {
        "encoding": "inplace",
        "label": "struct GemTypeMintWindow",
        "members": [
          {
            "astId": 4431,
            "contract": "contracts/facets/ConfigFacet.sol:ConfigFacet",
            "label": "mintCount",
            "offset": 0,
            "slot": "0",
            "type": "t_uint256"
          },
          {
            "astId": 4433,
            "contract": "contracts/facets/ConfigFacet.sol:ConfigFacet",
            "label": "endOfMintLimitWindow",
            "offset": 0,
            "slot": "1",
            "type": "t_uint32"
          }
        ],
        "numberOfBytes": "64"
      },
      "t_struct(MaintenanceFeeReductionRecord)4501_storage": {
        "encoding": "inplace",
        "label": "struct MaintenanceFeeReductionRecord",
        "members": [
          {
            "astId": 4498,
            "contract": "contracts/facets/ConfigFacet.sol:ConfigFacet",
            "label": "timeOfReduction",
            "offset": 0,
            "slot": "0",
            "type": "t_uint256"
          },
          {
            "astId": 4500,
            "contract": "contracts/facets/ConfigFacet.sol:ConfigFacet",
            "label": "maintenanceReductionPercent",
            "offset": 0,
            "slot": "1",
            "type": "t_uint256"
          }
        ],
        "numberOfBytes": "64"
      },
      "t_struct(ProtocolConfig)4416_storage": {
        "encoding": "inplace",
        "label": "struct ProtocolConfig",
        "members": [
          {
            "astId": 4380,
            "contract": "contracts/facets/ConfigFacet.sol:ConfigFacet",
            "label": "paymentTokens",
            "offset": 0,
            "slot": "0",
            "type": "t_array(t_contract(IERC20)737)2_storage"
          },
          {
            "astId": 4384,
            "contract": "contracts/facets/ConfigFacet.sol:ConfigFacet",
            "label": "wallets",
            "offset": 0,
            "slot": "2",
            "type": "t_array(t_address)7_storage"
          },
          {
            "astId": 4390,
            "contract": "contracts/facets/ConfigFacet.sol:ConfigFacet",
            "label": "incomeDistributionOnMint",
            "offset": 0,
            "slot": "9",
            "type": "t_array(t_array(t_uint256)3_storage)2_storage"
          },
          {
            "astId": 4392,
            "contract": "contracts/facets/ConfigFacet.sol:ConfigFacet",
            "label": "maintenancePeriod",
            "offset": 0,
            "slot": "15",
            "type": "t_uint32"
          },
          {
            "astId": 4394,
            "contract": "contracts/facets/ConfigFacet.sol:ConfigFacet",
            "label": "rewardPeriod",
            "offset": 4,
            "slot": "15",
            "type": "t_uint32"
          },
          {
            "astId": 4396,
            "contract": "contracts/facets/ConfigFacet.sol:ConfigFacet",
            "label": "taxScaleSinceLastClaimPeriod",
            "offset": 8,
            "slot": "15",
            "type": "t_uint32"
          },
          {
            "astId": 4400,
            "contract": "contracts/facets/ConfigFacet.sol:ConfigFacet",
            "label": "taxRates",
            "offset": 0,
            "slot": "16",
            "type": "t_array(t_uint256)5_storage"
          },
          {
            "astId": 4402,
            "contract": "contracts/facets/ConfigFacet.sol:ConfigFacet",
            "label": "charityContributionRate",
            "offset": 0,
            "slot": "21",
            "type": "t_uint256"
          },
          {
            "astId": 4404,
            "contract": "contracts/facets/ConfigFacet.sol:ConfigFacet",
            "label": "vaultWithdrawalTaxRate",
            "offset": 0,
            "slot": "22",
            "type": "t_uint256"
          },
          {
            "astId": 4406,
            "contract": "contracts/facets/ConfigFacet.sol:ConfigFacet",
            "label": "taperRate",
            "offset": 0,
            "slot": "23",
            "type": "t_uint256"
          },
          {
            "astId": 4408,
            "contract": "contracts/facets/ConfigFacet.sol:ConfigFacet",
            "label": "mintLock",
            "offset": 0,
            "slot": "24",
            "type": "t_bool"
          },
          {
            "astId": 4410,
            "contract": "contracts/facets/ConfigFacet.sol:ConfigFacet",
            "label": "transferLock",
            "offset": 1,
            "slot": "24",
            "type": "t_bool"
          },
          {
            "astId": 4412,
            "contract": "contracts/facets/ConfigFacet.sol:ConfigFacet",
            "label": "mintLimitWindow",
            "offset": 2,
            "slot": "24",
            "type": "t_uint32"
          },
          {
            "astId": 4415,
            "contract": "contracts/facets/ConfigFacet.sol:ConfigFacet",
            "label": "defoTokenLimitConfig",
            "offset": 0,
            "slot": "25",
            "type": "t_struct(DefoTokenLimitConfig)4375_storage"
          }
        ],
        "numberOfBytes": "896"
      },
      "t_uint256": {
        "encoding": "inplace",
        "label": "uint256",
        "numberOfBytes": "32"
      },
      "t_uint32": {
        "encoding": "inplace",
        "label": "uint32",
        "numberOfBytes": "4"
      },
      "t_uint8": {
        "encoding": "inplace",
        "label": "uint8",
        "numberOfBytes": "1"
      }
    }
  }
}