{
  "address": "0xfE0989B459968c085254F9e1cE415d07D43408C6",
  "abi": [
    {
      "anonymous": false,
      "inputs": [
        {
          "components": [
            {
              "internalType": "contract IERC20[2]",
              "name": "paymentTokens",
              "type": "address[2]"
            },
            {
              "internalType": "address[8]",
              "name": "wallets",
              "type": "address[8]"
            },
            {
              "internalType": "uint256[3][2]",
              "name": "incomeDistributionOnMint",
              "type": "uint256[3][2]"
            },
            {
              "internalType": "uint32",
              "name": "maintenancePeriod",
              "type": "uint32"
            },
            {
              "internalType": "uint32",
              "name": "rewardPeriod",
              "type": "uint32"
            },
            {
              "internalType": "uint32",
              "name": "taxScaleSinceLastClaimPeriod",
              "type": "uint32"
            },
            {
              "internalType": "uint256[5]",
              "name": "taxRates",
              "type": "uint256[5]"
            },
            {
              "internalType": "uint256",
              "name": "charityContributionRate",
              "type": "uint256"
            },
            {
              "internalType": "uint256",
              "name": "vaultWithdrawalTaxRate",
              "type": "uint256"
            },
            {
              "internalType": "uint256",
              "name": "taperRate",
              "type": "uint256"
            },
            {
              "internalType": "bool",
              "name": "mintLock",
              "type": "bool"
            },
            {
              "internalType": "bool",
              "name": "transferLock",
              "type": "bool"
            },
            {
              "internalType": "uint32",
              "name": "mintLimitWindow",
              "type": "uint32"
            },
            {
              "components": [
                {
                  "internalType": "uint256",
                  "name": "saleLimitPeriod",
                  "type": "uint256"
                },
                {
                  "internalType": "uint256",
                  "name": "saleLimitAmount",
                  "type": "uint256"
                },
                {
                  "internalType": "bool",
                  "name": "limitByReward",
                  "type": "bool"
                }
              ],
              "internalType": "struct DefoTokenLimitConfig",
              "name": "defoTokenLimitConfig",
              "type": "tuple"
            }
          ],
          "indexed": false,
          "internalType": "struct ProtocolConfig",
          "name": "config",
          "type": "tuple"
        }
      ],
      "name": "ConfigurationChange",
      "type": "event"
    },
    {
      "anonymous": false,
      "inputs": [
        {
          "components": [
            {
              "internalType": "uint256",
              "name": "maintenanceFeeDai",
              "type": "uint256"
            },
            {
              "internalType": "uint256",
              "name": "rewardAmountDefo",
              "type": "uint256"
            },
            {
              "internalType": "uint256[2]",
              "name": "price",
              "type": "uint256[2]"
            },
            {
              "internalType": "uint256",
              "name": "taperRewardsThresholdDefo",
              "type": "uint256"
            },
            {
              "internalType": "uint256",
              "name": "maxMintsPerLimitWindow",
              "type": "uint256"
            }
          ],
          "indexed": false,
          "internalType": "struct GemTypeConfig",
          "name": "_gemTypeConfig",
          "type": "tuple"
        }
      ],
      "name": "GemTypeConfigurationChange",
      "type": "event"
    },
    {
      "inputs": [],
      "name": "approveDefoForRouter",
      "outputs": [],
      "stateMutability": "nonpayable",
      "type": "function"
    },
    {
      "inputs": [],
      "name": "getConfig",
      "outputs": [
        {
          "components": [
            {
              "internalType": "contract IERC20[2]",
              "name": "paymentTokens",
              "type": "address[2]"
            },
            {
              "internalType": "address[8]",
              "name": "wallets",
              "type": "address[8]"
            },
            {
              "internalType": "uint256[3][2]",
              "name": "incomeDistributionOnMint",
              "type": "uint256[3][2]"
            },
            {
              "internalType": "uint32",
              "name": "maintenancePeriod",
              "type": "uint32"
            },
            {
              "internalType": "uint32",
              "name": "rewardPeriod",
              "type": "uint32"
            },
            {
              "internalType": "uint32",
              "name": "taxScaleSinceLastClaimPeriod",
              "type": "uint32"
            },
            {
              "internalType": "uint256[5]",
              "name": "taxRates",
              "type": "uint256[5]"
            },
            {
              "internalType": "uint256",
              "name": "charityContributionRate",
              "type": "uint256"
            },
            {
              "internalType": "uint256",
              "name": "vaultWithdrawalTaxRate",
              "type": "uint256"
            },
            {
              "internalType": "uint256",
              "name": "taperRate",
              "type": "uint256"
            },
            {
              "internalType": "bool",
              "name": "mintLock",
              "type": "bool"
            },
            {
              "internalType": "bool",
              "name": "transferLock",
              "type": "bool"
            },
            {
              "internalType": "uint32",
              "name": "mintLimitWindow",
              "type": "uint32"
            },
            {
              "components": [
                {
                  "internalType": "uint256",
                  "name": "saleLimitPeriod",
                  "type": "uint256"
                },
                {
                  "internalType": "uint256",
                  "name": "saleLimitAmount",
                  "type": "uint256"
                },
                {
                  "internalType": "bool",
                  "name": "limitByReward",
                  "type": "bool"
                }
              ],
              "internalType": "struct DefoTokenLimitConfig",
              "name": "defoTokenLimitConfig",
              "type": "tuple"
            }
          ],
          "internalType": "struct ProtocolConfig",
          "name": "",
          "type": "tuple"
        }
      ],
      "stateMutability": "view",
      "type": "function"
    },
    {
      "inputs": [],
      "name": "getGemTypesConfig",
      "outputs": [
        {
          "components": [
            {
              "internalType": "uint256",
              "name": "maintenanceFeeDai",
              "type": "uint256"
            },
            {
              "internalType": "uint256",
              "name": "rewardAmountDefo",
              "type": "uint256"
            },
            {
              "internalType": "uint256[2]",
              "name": "price",
              "type": "uint256[2]"
            },
            {
              "internalType": "uint256",
              "name": "taperRewardsThresholdDefo",
              "type": "uint256"
            },
            {
              "internalType": "uint256",
              "name": "maxMintsPerLimitWindow",
              "type": "uint256"
            }
          ],
          "internalType": "struct GemTypeConfig[]",
          "name": "",
          "type": "tuple[]"
        }
      ],
      "stateMutability": "view",
      "type": "function"
    },
    {
      "inputs": [],
      "name": "lockMint",
      "outputs": [],
      "stateMutability": "nonpayable",
      "type": "function"
    },
    {
      "inputs": [],
      "name": "pause",
      "outputs": [],
      "stateMutability": "nonpayable",
      "type": "function"
    },
    {
      "inputs": [
        {
          "internalType": "uint256",
          "name": "_charityContributionRate",
          "type": "uint256"
        }
      ],
      "name": "setCharityContributionRate",
      "outputs": [],
      "stateMutability": "nonpayable",
      "type": "function"
    },
    {
      "inputs": [
        {
          "components": [
            {
              "internalType": "contract IERC20[2]",
              "name": "paymentTokens",
              "type": "address[2]"
            },
            {
              "internalType": "address[8]",
              "name": "wallets",
              "type": "address[8]"
            },
            {
              "internalType": "uint256[3][2]",
              "name": "incomeDistributionOnMint",
              "type": "uint256[3][2]"
            },
            {
              "internalType": "uint32",
              "name": "maintenancePeriod",
              "type": "uint32"
            },
            {
              "internalType": "uint32",
              "name": "rewardPeriod",
              "type": "uint32"
            },
            {
              "internalType": "uint32",
              "name": "taxScaleSinceLastClaimPeriod",
              "type": "uint32"
            },
            {
              "internalType": "uint256[5]",
              "name": "taxRates",
              "type": "uint256[5]"
            },
            {
              "internalType": "uint256",
              "name": "charityContributionRate",
              "type": "uint256"
            },
            {
              "internalType": "uint256",
              "name": "vaultWithdrawalTaxRate",
              "type": "uint256"
            },
            {
              "internalType": "uint256",
              "name": "taperRate",
              "type": "uint256"
            },
            {
              "internalType": "bool",
              "name": "mintLock",
              "type": "bool"
            },
            {
              "internalType": "bool",
              "name": "transferLock",
              "type": "bool"
            },
            {
              "internalType": "uint32",
              "name": "mintLimitWindow",
              "type": "uint32"
            },
            {
              "components": [
                {
                  "internalType": "uint256",
                  "name": "saleLimitPeriod",
                  "type": "uint256"
                },
                {
                  "internalType": "uint256",
                  "name": "saleLimitAmount",
                  "type": "uint256"
                },
                {
                  "internalType": "bool",
                  "name": "limitByReward",
                  "type": "bool"
                }
              ],
              "internalType": "struct DefoTokenLimitConfig",
              "name": "defoTokenLimitConfig",
              "type": "tuple"
            }
          ],
          "internalType": "struct ProtocolConfig",
          "name": "_config",
          "type": "tuple"
        }
      ],
      "name": "setConfig",
      "outputs": [],
      "stateMutability": "nonpayable",
      "type": "function"
    },
    {
      "inputs": [
        {
          "components": [
            {
              "internalType": "uint256",
              "name": "saleLimitPeriod",
              "type": "uint256"
            },
            {
              "internalType": "uint256",
              "name": "saleLimitAmount",
              "type": "uint256"
            },
            {
              "internalType": "bool",
              "name": "limitByReward",
              "type": "bool"
            }
          ],
          "internalType": "struct DefoTokenLimitConfig",
          "name": "_defoTokenLimitConfig",
          "type": "tuple"
        }
      ],
      "name": "setConfigDefoTokenLimitConfig",
      "outputs": [],
      "stateMutability": "nonpayable",
      "type": "function"
    },
    {
      "inputs": [
        {
          "internalType": "uint256[3][2]",
          "name": "_incomeDistributionOnMint",
          "type": "uint256[3][2]"
        }
      ],
      "name": "setConfigIncomeDistributionOnMint",
      "outputs": [],
      "stateMutability": "nonpayable",
      "type": "function"
    },
    {
      "inputs": [
        {
          "internalType": "uint32",
          "name": "_maintenancePeriod",
          "type": "uint32"
        }
      ],
      "name": "setConfigMaintenancePeriod",
      "outputs": [],
      "stateMutability": "nonpayable",
      "type": "function"
    },
    {
      "inputs": [
        {
          "internalType": "uint32",
          "name": "_mintLimitWindow",
          "type": "uint32"
        }
      ],
      "name": "setConfigMintLimitWindow",
      "outputs": [],
      "stateMutability": "nonpayable",
      "type": "function"
    },
    {
      "inputs": [
        {
          "internalType": "uint32",
          "name": "_rewardPeriod",
          "type": "uint32"
        }
      ],
      "name": "setConfigRewardPeriod",
      "outputs": [],
      "stateMutability": "nonpayable",
      "type": "function"
    },
    {
      "inputs": [
        {
          "internalType": "uint256",
          "name": "_taperRate",
          "type": "uint256"
        }
      ],
      "name": "setConfigTaperRate",
      "outputs": [],
      "stateMutability": "nonpayable",
      "type": "function"
    },
    {
      "inputs": [
        {
          "internalType": "uint256[5]",
          "name": "_taxRates",
          "type": "uint256[5]"
        }
      ],
      "name": "setConfigTaxRates",
      "outputs": [],
      "stateMutability": "nonpayable",
      "type": "function"
    },
    {
      "inputs": [
        {
          "internalType": "uint32",
          "name": "_taxScaleSinceLastClaimPeriod",
          "type": "uint32"
        }
      ],
      "name": "setConfigTaxScaleSinceLastClaimPeriod",
      "outputs": [],
      "stateMutability": "nonpayable",
      "type": "function"
    },
    {
      "inputs": [
        {
          "internalType": "uint256",
          "name": "_vaultWithdrawalTaxRate",
          "type": "uint256"
        }
      ],
      "name": "setConfigVaultWithdrawalTaxRate",
      "outputs": [],
      "stateMutability": "nonpayable",
      "type": "function"
    },
    {
      "inputs": [
        {
          "internalType": "address[8]",
          "name": "_wallets",
          "type": "address[8]"
        }
      ],
      "name": "setConfigWallets",
      "outputs": [],
      "stateMutability": "nonpayable",
      "type": "function"
    },
    {
      "inputs": [
        {
          "components": [
            {
              "internalType": "uint256",
              "name": "maintenanceFeeDai",
              "type": "uint256"
            },
            {
              "internalType": "uint256",
              "name": "rewardAmountDefo",
              "type": "uint256"
            },
            {
              "internalType": "uint256[2]",
              "name": "price",
              "type": "uint256[2]"
            },
            {
              "internalType": "uint256",
              "name": "taperRewardsThresholdDefo",
              "type": "uint256"
            },
            {
              "internalType": "uint256",
              "name": "maxMintsPerLimitWindow",
              "type": "uint256"
            }
          ],
          "internalType": "struct GemTypeConfig[]",
          "name": "_gemTypeConfig",
          "type": "tuple[]"
        }
      ],
      "name": "setGemTypesConfig",
      "outputs": [],
      "stateMutability": "nonpayable",
      "type": "function"
    },
    {
      "inputs": [],
      "name": "unlockMint",
      "outputs": [],
      "stateMutability": "nonpayable",
      "type": "function"
    },
    {
      "inputs": [],
      "name": "unpause",
      "outputs": [],
      "stateMutability": "nonpayable",
      "type": "function"
    },
    {
      "inputs": [
        {
          "internalType": "uint8",
          "name": "_gemTypeId",
          "type": "uint8"
        }
      ],
      "name": "zeroMintCount",
      "outputs": [],
      "stateMutability": "nonpayable",
      "type": "function"
    }
  ],
  "transactionHash": "0x954c263967c7be314e04e7b98f21274365979a45e4258e40bb836715e8f20c4d",
  "args": [],
  "numDeployments": 5,
  "solcInputHash": "eee850e7cb3cdcf8e203e703634e63e8",
  "bytecode": "0x608060405234801561001057600080fd5b50611c80806100206000396000f3fe608060405234801561001057600080fd5b50600436106101375760003560e01c80636bfe99ec116100b857806392ad7dc31161007c57806392ad7dc3146102455780639956d1db1461024d578063c3f909d414610260578063d864d02a14610275578063e0b6bb6714610288578063e90e53f41461029057600080fd5b80636bfe99ec146101e65780638456cb59146101f95780638838640e146102015780638a1ad3251461021f5780638ad15c211461023257600080fd5b8063683da553116100ff578063683da55314610187578063685e2a9a1461019a578063689da232146101ad57806369d40589146101c05780636bcb63d6146101d357600080fd5b8063064b070e1461013c5780633f4ba83a146101515780633f5db5ca1461015957806341ef35c61461016c5780635a9a664f1461017f575b600080fd5b61014f61014a366004611299565b6102a3565b005b61014f610350565b61014f6101673660046112bd565b610362565b61014f61017a366004611384565b61039a565b61014f6103b3565b61014f6101953660046113b9565b6103c3565b61014f6101a83660046113d4565b6103ef565b61014f6101bb3660046113ed565b6103fc565b61014f6101ce3660046113b9565b6105a6565b61014f6101e13660046113b9565b6105d4565b61014f6101f43660046114fb565b610604565b61014f610619565b610209610629565b6040516102169190611517565b60405180910390f35b61014f61022d3660046113b9565b6106e4565b61014f6102403660046113d4565b610708565b61014f610715565b61014f61025b3660046115a9565b6107ad565b6102686107ec565b6040516102169190611694565b61014f6102833660046113d4565b6109dd565b61014f6109ea565b61014f61029e36600461178d565b6109fa565b6102ab610ba2565b6102b86002826008610dea565b50600080600101546001600160a01b031690508063095ea7b383600760200201516040516001600160e01b031960e084901b1681526001600160a01b03909116600482015260001960248201526044016020604051808303816000875af1158015610327573d6000803e3d6000fd5b505050506040513d601f19601f8201168201806040525081019061034b91906117c4565b505050565b610358610ba2565b610360610c2e565b565b61036a610ba2565b60008081601e018360ff1681548110610385576103856117a0565b60009182526020822060029091020155505050565b6103a2610ba2565b6103af6011826005610e42565b5050565b6103bb610ba2565b610360610c7b565b6103cb610ba2565b6019805463ffffffff909216620100000265ffffffff000019909216919091179055565b6103f7610ba2565b601655565b610404610ba2565b610410601d6000610e70565b61041c601e6000610e94565b60005b8181101561034b57600083838381811061043b5761043b6117a0565b905060c0020180360381019061045191906117e1565b601d8054600181018255600091909152815160069091027f6d4407e7be21f808e6509aa9fa9143369579dd7d760fe20a2c09680fc146134f810191825560208301517f6d4407e7be21f808e6509aa9fa9143369579dd7d760fe20a2c09680fc1461350820155604083015192935083926104ef917f6d4407e7be21f808e6509aa9fa9143369579dd7d760fe20a2c09680fc146135101906002610eb5565b5060608201516004820155608090910151600590910155506040805180820190915260008082524263ffffffff90811660208401908152601e8054600181018255935292517f50bb669a95c7b50b7e8a6f09454034b2b14cf2b85c730dca9a539ca82cb6e35060029093029283015591517f50bb669a95c7b50b7e8a6f09454034b2b14cf2b85c730dca9a539ca82cb6e351909101805463ffffffff1916919092161790558061059e81611868565b91505061041f565b6105ae610ba2565b6010805463ffffffff909216600160401b0263ffffffff60401b19909216919091179055565b6105dc610ba2565b6010805463ffffffff9092166401000000000267ffffffff0000000019909216919091179055565b61060c610ba2565b6103af600a826002610ee2565b610621610ba2565b610360610cb3565b60606000601d01805480602002602001604051908101604052809291908181526020016000905b828210156106db5760008481526020908190206040805160a081018252600686029092018054835260018101549383019390935280518082018083529293929184019160028085019182845b81548152602001906001019080831161069c57505050505081526020016004820154815260200160058201548152505081526020019060010190610650565b50505050905090565b6106ec610ba2565b6010805463ffffffff191663ffffffff92909216919091179055565b610710610ba2565b601755565b61071d610ba2565b600080600101546001600160a01b031690508063095ea7b360026007015460405160e083901b6001600160e01b03191681526001600160a01b03909116600482015260001960248201526044016020604051808303816000875af1158015610789573d6000803e3d6000fd5b505050506040513d601f19601f820116820180604052508101906103af91906117c4565b6107b5610ba2565b60006107c636839003830183611900565b8051601a556020810151601b5560400151601c805460ff19169115159190911790555050565b6107f4610f29565b6040805161020081019091526000816101c081018260028282826020028201915b81546001600160a01b031681526001909101906020018083116108155750505091835250506040805161010081019182905260209092019190600284019060089082845b81546001600160a01b0316815260019091019060200180831161085957505050918352505060408051808201909152602090910190600a830160026000835b828210156108df5760408051606081019182905290600384810287019182845b8154815260200190600101908083116108b857505050505081526020019060010190610898565b50505090825250601082015463ffffffff808216602084015264010000000082048116604080850191909152600160401b909204166060830152805160a081019182905260809092019190601184019060059082845b815481526020019060010190808311610935575050509183525050601682015460208083019190915260178301546040808401919091526018840154606080850191909152601985015460ff8082161515608087015261010082048116151560a08701526201000090910463ffffffff1660c086015282519182018352601a8601548252601b86015493820193909352601c9094015490911615159083015260e00152919050565b6109e5610ba2565b601855565b6109f2610ba2565b610360610cfd565b610a02610ba2565b6000610a1336839003830183611975565b80519091508190600090610a2a9082906002610fdd565b506020820151610a409060028301906008610dea565b506040820151610a5690600a8301906002610ee2565b506060820151601082018054608085015160a086015163ffffffff908116600160401b0263ffffffff60401b199282166401000000000267ffffffffffffffff199094169190951617919091171691909117905560c0820151610abf9060118301906005610e42565b5060e08201516016820155610100808301516017830155610120830151601883015561014083015160198301805461016086015161018087015161ffff1990921693151561ff001916939093179215159093029190911765ffffffff000019166201000063ffffffff909316929092029190911790556101a0909101518051601a8301556020810151601b830155604090810151601c909201805460ff191692151592909217909155517f27729471d7e431d28c6dbd4c8bd38ca0d6d3f5906f932881d1572b4edd93c3c090610b96908490611b4d565b60405180910390a15050565b7fc8fcad8db84d3cc18b4c41d551ea0ee66dd599cde068d998e57d5e09332c131c600401546001600160a01b031633146103605760405162461bcd60e51b815260206004820152602260248201527f4c69624469616d6f6e643a204d75737420626520636f6e7472616374206f776e60448201526132b960f11b60648201526084015b60405180910390fd5b610c36610d38565b6019805461ff00191690556040513381526000907f5db9ee0a495bf2e6ff9c91a7834c1ba4fdd244a5e8aa4e537bd38aeae4b073aa906020015b60405180910390a150565b6019805460ff191690556040516000907f16fe33fab5fd851b7e9a856a666ea43cc5515bbb51689c3d370085d004418123908290a150565b610cbb610d86565b6019805461ff0019166101001790556040513381526000907f62e78cea01bee320cd4e420270b5ea74000d11b0c9f74754ebdbfc544b05a25890602001610c70565b6019805460ff191660011790556040516000907faa71a6e005bc4e0ea53d6184338a28d3f4737f18bed30c92d93a239ad5a71747908290a150565b601954610100900460ff166103605760405162461bcd60e51b815260206004820152601460248201527314185d5cd8589b194e881b9bdd081c185d5cd95960621b6044820152606401610c25565b601954610100900460ff16156103605760405162461bcd60e51b8152602060048201526024808201527f5061757361626c653a207061757365642c207472616e73666572206973206c6f60448201526318dad95960e21b6064820152608401610c25565b8260088101928215610e32579160200282015b82811115610e3257825182546001600160a01b0319166001600160a01b03909116178255602090920191600190910190610dfd565b50610e3e929150611024565b5090565b8260058101928215610e32579160200282015b82811115610e32578251825591602001919060010190610e55565b5080546000825560060290600052602060002090810190610e919190611039565b50565b5080546000825560020290600052602060002090810190610e91919061106f565b8260028101928215610e325791602002820182811115610e32578251825591602001919060010190610e55565b600683019183908215610f1d579160200282015b82811115610f1d578251610f0d9083906003611093565b5091602001919060030190610ef6565b50610e3e9291506110c0565b604051806101c00160405280610f3d6110e1565b8152602001610f4a6110ff565b8152602001610f5761111e565b8152600060208201819052604082018190526060820152608001610f7961114b565b8152602001600081526020016000815260200160008152602001600015158152602001600015158152602001600063ffffffff168152602001610fd8604051806060016040528060008152602001600081526020016000151581525090565b905290565b8260028101928215610e325791602002820182811115610e3257825182546001600160a01b0319166001600160a01b03909116178255602090920191600190910190610dfd565b5b80821115610e3e5760008155600101611025565b80821115610e3e576000808255600182018190556002820181905560038201819055600482018190556005820155600601611039565b5b80821115610e3e576000815560018101805463ffffffff19169055600201611070565b8260038101928215610e325791602002820182811115610e32578251825591602001919060010190610e55565b80821115610e3e5760008082556001820181905560028201556003016110c0565b60405180604001604052806002906020820280368337509192915050565b6040518061010001604052806008906020820280368337509192915050565b60405180604001604052806002905b611135611169565b81526020019060019003908161112d5790505090565b6040518060a001604052806005906020820280368337509192915050565b60405180606001604052806003906020820280368337509192915050565b634e487b7160e01b600052604160045260246000fd5b6040516101c0810167ffffffffffffffff811182821017156111c1576111c1611187565b60405290565b6040805190810167ffffffffffffffff811182821017156111c1576111c1611187565b6040516060810167ffffffffffffffff811182821017156111c1576111c1611187565b6001600160a01b0381168114610e9157600080fd5b600082601f83011261123357600080fd5b60405161010080820182811067ffffffffffffffff8211171561125857611258611187565b6040528301818582111561126b57600080fd5b845b8281101561128e5780356112808161120d565b82526020918201910161126d565b509195945050505050565b600061010082840312156112ac57600080fd5b6112b68383611222565b9392505050565b6000602082840312156112cf57600080fd5b813560ff811681146112b657600080fd5b60006112ea6111c7565b90508060408301848111156112fe57600080fd5b835b81811015611318578035835260209283019201611300565b50505092915050565b600082601f83011261133257600080fd5b60405160a0810181811067ffffffffffffffff8211171561135557611355611187565b6040528060a084018581111561136a57600080fd5b845b8181101561128e57803583526020928301920161136c565b600060a0828403121561139657600080fd5b6112b68383611321565b803563ffffffff811681146113b457600080fd5b919050565b6000602082840312156113cb57600080fd5b6112b6826113a0565b6000602082840312156113e657600080fd5b5035919050565b6000806020838503121561140057600080fd5b823567ffffffffffffffff8082111561141857600080fd5b818501915085601f83011261142c57600080fd5b81358181111561143b57600080fd5b86602060c08302850101111561145057600080fd5b60209290920196919550909350505050565b6000601f838184011261147457600080fd5b61147c6111c7565b8060c085018681111561148e57600080fd5b855b818110156114ef5787858201126114a75760008081fd5b6114af6111ea565b80606083018a8111156114c25760008081fd5b835b818110156114dc5780358452602093840193016114c4565b5050855250602090930192606001611490565b50909695505050505050565b600060c0828403121561150d57600080fd5b6112b68383611462565b60208082528251828201819052600091906040908185019086840185805b8381101561159b57825180518652878101518887015286810151878701845b60028110156115715782518252918a0191908a0190600101611554565b5050506060810151608087810191909152015160a086015260c09094019391860191600101611535565b509298975050505050505050565b6000606082840312156115bb57600080fd5b50919050565b8060005b60028110156115ed5781516001600160a01b03168452602093840193909101906001016115c5565b50505050565b8060005b60088110156115ed5781516001600160a01b03168452602093840193909101906001016115f7565b806000805b600281101561166a57825185835b6003811015611651578251825260209283019290910190600101611632565b5050506060949094019360209290920191600101611624565b5050505050565b8060005b60058110156115ed578151845260209384019390910190600101611675565b6000610420820190506116a88284516115c1565b60208301516116ba60408401826115f3565b5060408301516101406116cf8185018361161f565b606085015163ffffffff9081166102008601526080860151811661022086015260a08601511661024085015260c08501519150611710610260850183611671565b60e0850151610300850152610100850151610320850152610120850151610340850152840151151561036084015250610160830151151561038083015261018083015163ffffffff166103a08301526101a083015180516103c084015260208101516103e0840152604081015115156104008401525b5092915050565b600061042082840312156115bb57600080fd5b634e487b7160e01b600052603260045260246000fd5b8015158114610e9157600080fd5b6000602082840312156117d657600080fd5b81516112b6816117b6565b600060c082840312156117f357600080fd5b60405160a0810181811067ffffffffffffffff8211171561181657611816611187565b8060405250823581526020830135602082015283605f84011261183857600080fd5b61184584604085016112e0565b60408201526080830135606082015260a083013560808201528091505092915050565b60006001820161188857634e487b7160e01b600052601160045260246000fd5b5060010190565b80356113b4816117b6565b6000606082840312156118ac57600080fd5b6040516060810181811067ffffffffffffffff821117156118cf576118cf611187565b8060405250809150823581526020830135602082015260408301356118f3816117b6565b6040919091015292915050565b60006060828403121561191257600080fd5b6112b6838361189a565b600082601f83011261192d57600080fd5b6119356111c7565b80604084018581111561194757600080fd5b845b8181101561196a57803561195c8161120d565b845260209384019301611949565b509095945050505050565b6000610420828403121561198857600080fd5b61199061119d565b61199a848461191c565b81526119a98460408501611222565b60208201526101406119bd85828601611462565b60408301526119cf61020085016113a0565b60608301526119e161022085016113a0565b60808301526119f361024085016113a0565b60a0830152611a06856102608601611321565b60c083015261030084013560e0830152610320840135610100830152610340840135610120830152611a3b610360850161188f565b90820152611a4c610380840161188f565b610160820152611a5f6103a084016113a0565b610180820152611a73846103c0850161189a565b6101a08201529392505050565b8060005b60028110156115ed578135611a988161120d565b6001600160a01b031684526020938401939190910190600101611a84565b8060005b60088110156115ed578135611ace8161120d565b6001600160a01b031684526020938401939190910190600101611aba565b806000805b600281101561166a57606080848737948501828152949290920191600101611af1565b60a081833750600060a082015250565b80358252602081013560208301526040810135611b40816117b6565b8015156040840152505050565b6104208101611b5c8284611a80565b611b6c6040830160408501611ab6565b610140611b7d818401828601611aec565b50610200611b8c8185016113a0565b63ffffffff1690830152610220611ba48482016113a0565b63ffffffff1690830152610240611bbc8482016113a0565b63ffffffff1690830152610260611bd7818401858301611b14565b50610300838101359083015261032080840135908301526103408084013590830152610360611c0781850161188f565b151590830152610380611c1b84820161188f565b1515908301526103a0611c2f8482016113a0565b63ffffffff16908301526103c0611786818401858301611b2456fea2646970667358221220cc7c43fd1ed08067ad1a5654ea5b12a1573ce4cb89b0cd95c1fc2fa21c20da1664736f6c634300080f0033",
  "devdoc": {
    "author": "Decentralized Foundation Team",
    "kind": "dev",
    "methods": {},
    "title": "ERC721Facet EIP-2535 Diamond Facet",
    "version": 1
  },
  "userdoc": {
    "kind": "user",
    "methods": {},
    "notice": "The Contract uses diamond storage providing functionality of ERC721, ERC721Enumerable, ERC721Burnable, ERC721Pausable",
    "version": 1
  },
  "storageLayout": {
    "storage": [
      {
        "astId": 4283,
        "contract": "contracts/facets/ConfigFacet.sol:ConfigFacet",
        "label": "s",
        "offset": 0,
        "slot": "0",
        "type": "t_struct(AppStorage)4540_storage"
      }
    ],
    "types": {
      "t_address": {
        "encoding": "inplace",
        "label": "address",
        "numberOfBytes": "20"
      },
      "t_array(t_address)8_storage": {
        "base": "t_address",
        "encoding": "inplace",
        "label": "address[8]",
        "numberOfBytes": "256"
      },
      "t_array(t_array(t_uint256)3_storage)2_storage": {
        "base": "t_array(t_uint256)3_storage",
        "encoding": "inplace",
        "label": "uint256[3][2]",
        "numberOfBytes": "192"
      },
      "t_array(t_contract(IERC20)737)2_storage": {
        "base": "t_contract(IERC20)737",
        "encoding": "inplace",
        "label": "contract IERC20[2]",
        "numberOfBytes": "64"
      },
      "t_array(t_struct(GemTypeConfig)4430_storage)dyn_storage": {
        "base": "t_struct(GemTypeConfig)4430_storage",
        "encoding": "dynamic_array",
        "label": "struct GemTypeConfig[]",
        "numberOfBytes": "32"
      },
      "t_array(t_struct(GemTypeMintWindow)4435_storage)dyn_storage": {
        "base": "t_struct(GemTypeMintWindow)4435_storage",
        "encoding": "dynamic_array",
        "label": "struct GemTypeMintWindow[]",
        "numberOfBytes": "32"
      },
      "t_array(t_uint256)2_storage": {
        "base": "t_uint256",
        "encoding": "inplace",
        "label": "uint256[2]",
        "numberOfBytes": "64"
      },
      "t_array(t_uint256)3_storage": {
        "base": "t_uint256",
        "encoding": "inplace",
        "label": "uint256[3]",
        "numberOfBytes": "96"
      },
      "t_array(t_uint256)5_storage": {
        "base": "t_uint256",
        "encoding": "inplace",
        "label": "uint256[5]",
        "numberOfBytes": "160"
      },
      "t_array(t_uint256)dyn_storage": {
        "base": "t_uint256",
        "encoding": "dynamic_array",
        "label": "uint256[]",
        "numberOfBytes": "32"
      },
      "t_bool": {
        "encoding": "inplace",
        "label": "bool",
        "numberOfBytes": "1"
      },
      "t_contract(IERC20)737": {
        "encoding": "inplace",
        "label": "contract IERC20",
        "numberOfBytes": "20"
      },
      "t_enum(Booster)4457": {
        "encoding": "inplace",
        "label": "enum Booster",
        "numberOfBytes": "1"
      },
      "t_mapping(t_address,t_bool)": {
        "encoding": "mapping",
        "key": "t_address",
        "label": "mapping(address => bool)",
        "numberOfBytes": "32",
        "value": "t_bool"
      },
      "t_mapping(t_address,t_mapping(t_address,t_bool))": {
        "encoding": "mapping",
        "key": "t_address",
        "label": "mapping(address => mapping(address => bool))",
        "numberOfBytes": "32",
        "value": "t_mapping(t_address,t_bool)"
      },
      "t_mapping(t_address,t_mapping(t_uint256,t_uint256))": {
        "encoding": "mapping",
        "key": "t_address",
        "label": "mapping(address => mapping(uint256 => uint256))",
        "numberOfBytes": "32",
        "value": "t_mapping(t_uint256,t_uint256)"
      },
      "t_mapping(t_address,t_mapping(t_uint8,t_mapping(t_enum(Booster)4457,t_uint256)))": {
        "encoding": "mapping",
        "key": "t_address",
        "label": "mapping(address => mapping(uint8 => mapping(enum Booster => uint256)))",
        "numberOfBytes": "32",
        "value": "t_mapping(t_uint8,t_mapping(t_enum(Booster)4457,t_uint256))"
      },
      "t_mapping(t_address,t_struct(Fi)4478_storage)": {
        "encoding": "mapping",
        "key": "t_address",
        "label": "mapping(address => struct Fi)",
        "numberOfBytes": "32",
        "value": "t_struct(Fi)4478_storage"
      },
      "t_mapping(t_address,t_uint256)": {
        "encoding": "mapping",
        "key": "t_address",
        "label": "mapping(address => uint256)",
        "numberOfBytes": "32",
        "value": "t_uint256"
      },
      "t_mapping(t_enum(Booster)4457,t_uint256)": {
        "encoding": "mapping",
        "key": "t_enum(Booster)4457",
        "label": "mapping(enum Booster => uint256)",
        "numberOfBytes": "32",
        "value": "t_uint256"
      },
      "t_mapping(t_uint256,t_address)": {
        "encoding": "mapping",
        "key": "t_uint256",
        "label": "mapping(uint256 => address)",
        "numberOfBytes": "32",
        "value": "t_address"
      },
      "t_mapping(t_uint256,t_struct(Gem)4497_storage)": {
        "encoding": "mapping",
        "key": "t_uint256",
        "label": "mapping(uint256 => struct Gem)",
        "numberOfBytes": "32",
        "value": "t_struct(Gem)4497_storage"
      },
      "t_mapping(t_uint256,t_uint256)": {
        "encoding": "mapping",
        "key": "t_uint256",
        "label": "mapping(uint256 => uint256)",
        "numberOfBytes": "32",
        "value": "t_uint256"
      },
      "t_mapping(t_uint8,t_mapping(t_enum(Booster)4457,t_uint256))": {
        "encoding": "mapping",
        "key": "t_uint8",
        "label": "mapping(uint8 => mapping(enum Booster => uint256))",
        "numberOfBytes": "32",
        "value": "t_mapping(t_enum(Booster)4457,t_uint256)"
      },
      "t_string_storage": {
        "encoding": "bytes",
        "label": "string",
        "numberOfBytes": "32"
      },
      "t_struct(AppStorage)4540_storage": {
        "encoding": "inplace",
        "label": "struct AppStorage",
        "members": [
          {
            "astId": 4500,
            "contract": "contracts/facets/ConfigFacet.sol:ConfigFacet",
            "label": "config",
            "offset": 0,
            "slot": "0",
            "type": "t_struct(ProtocolConfig)4417_storage"
          },
          {
            "astId": 4504,
            "contract": "contracts/facets/ConfigFacet.sol:ConfigFacet",
            "label": "gemTypes",
            "offset": 0,
            "slot": "29",
            "type": "t_array(t_struct(GemTypeConfig)4430_storage)dyn_storage"
          },
          {
            "astId": 4508,
            "contract": "contracts/facets/ConfigFacet.sol:ConfigFacet",
            "label": "gemTypesMintWindows",
            "offset": 0,
            "slot": "30",
            "type": "t_array(t_struct(GemTypeMintWindow)4435_storage)dyn_storage"
          },
          {
            "astId": 4511,
            "contract": "contracts/facets/ConfigFacet.sol:ConfigFacet",
            "label": "defoTokenLimitWindow",
            "offset": 0,
            "slot": "31",
            "type": "t_struct(DEFOTokenLimitWindow)4444_storage"
          },
          {
            "astId": 4516,
            "contract": "contracts/facets/ConfigFacet.sol:ConfigFacet",
            "label": "gems",
            "offset": 0,
            "slot": "33",
            "type": "t_mapping(t_uint256,t_struct(Gem)4497_storage)"
          },
          {
            "astId": 4519,
            "contract": "contracts/facets/ConfigFacet.sol:ConfigFacet",
            "label": "nft",
            "offset": 0,
            "slot": "34",
            "type": "t_struct(ERC721Storage)4351_storage"
          },
          {
            "astId": 4522,
            "contract": "contracts/facets/ConfigFacet.sol:ConfigFacet",
            "label": "total",
            "offset": 0,
            "slot": "47",
            "type": "t_struct(Fi)4478_storage"
          },
          {
            "astId": 4527,
            "contract": "contracts/facets/ConfigFacet.sol:ConfigFacet",
            "label": "usersFi",
            "offset": 0,
            "slot": "57",
            "type": "t_mapping(t_address,t_struct(Fi)4478_storage)"
          },
          {
            "astId": 4536,
            "contract": "contracts/facets/ConfigFacet.sol:ConfigFacet",
            "label": "usersNextGemBooster",
            "offset": 0,
            "slot": "58",
            "type": "t_mapping(t_address,t_mapping(t_uint8,t_mapping(t_enum(Booster)4457,t_uint256)))"
          },
          {
            "astId": 4539,
            "contract": "contracts/facets/ConfigFacet.sol:ConfigFacet",
            "label": "defoTokenLimitPerRewards",
            "offset": 0,
            "slot": "59",
            "type": "t_struct(DEFOTokenLimitPerRewards)4453_storage"
          }
        ],
        "numberOfBytes": "1952"
      },
      "t_struct(Counter)2737_storage": {
        "encoding": "inplace",
        "label": "struct Counters.Counter",
        "members": [
          {
            "astId": 2736,
            "contract": "contracts/facets/ConfigFacet.sol:ConfigFacet",
            "label": "_value",
            "offset": 0,
            "slot": "0",
            "type": "t_uint256"
          }
        ],
        "numberOfBytes": "32"
      },
      "t_struct(DEFOTokenLimitPerRewards)4453_storage": {
        "encoding": "inplace",
        "label": "struct DEFOTokenLimitPerRewards",
        "members": [
          {
            "astId": 4448,
            "contract": "contracts/facets/ConfigFacet.sol:ConfigFacet",
            "label": "tokensSold",
            "offset": 0,
            "slot": "0",
            "type": "t_mapping(t_address,t_uint256)"
          },
          {
            "astId": 4452,
            "contract": "contracts/facets/ConfigFacet.sol:ConfigFacet",
            "label": "timeOfWindowStart",
            "offset": 0,
            "slot": "1",
            "type": "t_mapping(t_address,t_uint256)"
          }
        ],
        "numberOfBytes": "64"
      },
      "t_struct(DEFOTokenLimitWindow)4444_storage": {
        "encoding": "inplace",
        "label": "struct DEFOTokenLimitWindow",
        "members": [
          {
            "astId": 4439,
            "contract": "contracts/facets/ConfigFacet.sol:ConfigFacet",
            "label": "tokensSold",
            "offset": 0,
            "slot": "0",
            "type": "t_mapping(t_address,t_uint256)"
          },
          {
            "astId": 4443,
            "contract": "contracts/facets/ConfigFacet.sol:ConfigFacet",
            "label": "timeOfLastSale",
            "offset": 0,
            "slot": "1",
            "type": "t_mapping(t_address,t_uint256)"
          }
        ],
        "numberOfBytes": "64"
      },
      "t_struct(DefoTokenLimitConfig)4376_storage": {
        "encoding": "inplace",
        "label": "struct DefoTokenLimitConfig",
        "members": [
          {
            "astId": 4371,
            "contract": "contracts/facets/ConfigFacet.sol:ConfigFacet",
            "label": "saleLimitPeriod",
            "offset": 0,
            "slot": "0",
            "type": "t_uint256"
          },
          {
            "astId": 4373,
            "contract": "contracts/facets/ConfigFacet.sol:ConfigFacet",
            "label": "saleLimitAmount",
            "offset": 0,
            "slot": "1",
            "type": "t_uint256"
          },
          {
            "astId": 4375,
            "contract": "contracts/facets/ConfigFacet.sol:ConfigFacet",
            "label": "limitByReward",
            "offset": 0,
            "slot": "2",
            "type": "t_bool"
          }
        ],
        "numberOfBytes": "96"
      },
      "t_struct(ERC721Storage)4351_storage": {
        "encoding": "inplace",
        "label": "struct ERC721Storage",
        "members": [
          {
            "astId": 4306,
            "contract": "contracts/facets/ConfigFacet.sol:ConfigFacet",
            "label": "name",
            "offset": 0,
            "slot": "0",
            "type": "t_string_storage"
          },
          {
            "astId": 4308,
            "contract": "contracts/facets/ConfigFacet.sol:ConfigFacet",
            "label": "symbol",
            "offset": 0,
            "slot": "1",
            "type": "t_string_storage"
          },
          {
            "astId": 4311,
            "contract": "contracts/facets/ConfigFacet.sol:ConfigFacet",
            "label": "tokenIdTracker",
            "offset": 0,
            "slot": "2",
            "type": "t_struct(Counter)2737_storage"
          },
          {
            "astId": 4315,
            "contract": "contracts/facets/ConfigFacet.sol:ConfigFacet",
            "label": "owners",
            "offset": 0,
            "slot": "3",
            "type": "t_mapping(t_uint256,t_address)"
          },
          {
            "astId": 4319,
            "contract": "contracts/facets/ConfigFacet.sol:ConfigFacet",
            "label": "balances",
            "offset": 0,
            "slot": "4",
            "type": "t_mapping(t_address,t_uint256)"
          },
          {
            "astId": 4323,
            "contract": "contracts/facets/ConfigFacet.sol:ConfigFacet",
            "label": "tokenApprovals",
            "offset": 0,
            "slot": "5",
            "type": "t_mapping(t_uint256,t_address)"
          },
          {
            "astId": 4329,
            "contract": "contracts/facets/ConfigFacet.sol:ConfigFacet",
            "label": "operatorApprovals",
            "offset": 0,
            "slot": "6",
            "type": "t_mapping(t_address,t_mapping(t_address,t_bool))"
          },
          {
            "astId": 4331,
            "contract": "contracts/facets/ConfigFacet.sol:ConfigFacet",
            "label": "baseURI",
            "offset": 0,
            "slot": "7",
            "type": "t_string_storage"
          },
          {
            "astId": 4337,
            "contract": "contracts/facets/ConfigFacet.sol:ConfigFacet",
            "label": "ownedTokens",
            "offset": 0,
            "slot": "8",
            "type": "t_mapping(t_address,t_mapping(t_uint256,t_uint256))"
          },
          {
            "astId": 4341,
            "contract": "contracts/facets/ConfigFacet.sol:ConfigFacet",
            "label": "ownedTokensIndex",
            "offset": 0,
            "slot": "9",
            "type": "t_mapping(t_uint256,t_uint256)"
          },
          {
            "astId": 4344,
            "contract": "contracts/facets/ConfigFacet.sol:ConfigFacet",
            "label": "allTokens",
            "offset": 0,
            "slot": "10",
            "type": "t_array(t_uint256)dyn_storage"
          },
          {
            "astId": 4348,
            "contract": "contracts/facets/ConfigFacet.sol:ConfigFacet",
            "label": "allTokensIndex",
            "offset": 0,
            "slot": "11",
            "type": "t_mapping(t_uint256,t_uint256)"
          },
          {
            "astId": 4350,
            "contract": "contracts/facets/ConfigFacet.sol:ConfigFacet",
            "label": "init",
            "offset": 0,
            "slot": "12",
            "type": "t_bool"
          }
        ],
        "numberOfBytes": "416"
      },
      "t_struct(Fi)4478_storage": {
        "encoding": "inplace",
        "label": "struct Fi",
        "members": [
          {
            "astId": 4459,
            "contract": "contracts/facets/ConfigFacet.sol:ConfigFacet",
            "label": "claimedGross",
            "offset": 0,
            "slot": "0",
            "type": "t_uint256"
          },
          {
            "astId": 4461,
            "contract": "contracts/facets/ConfigFacet.sol:ConfigFacet",
            "label": "claimedNet",
            "offset": 0,
            "slot": "1",
            "type": "t_uint256"
          },
          {
            "astId": 4463,
            "contract": "contracts/facets/ConfigFacet.sol:ConfigFacet",
            "label": "stakedGross",
            "offset": 0,
            "slot": "2",
            "type": "t_uint256"
          },
          {
            "astId": 4465,
            "contract": "contracts/facets/ConfigFacet.sol:ConfigFacet",
            "label": "stakedNet",
            "offset": 0,
            "slot": "3",
            "type": "t_uint256"
          },
          {
            "astId": 4467,
            "contract": "contracts/facets/ConfigFacet.sol:ConfigFacet",
            "label": "unStakedGross",
            "offset": 0,
            "slot": "4",
            "type": "t_uint256"
          },
          {
            "astId": 4469,
            "contract": "contracts/facets/ConfigFacet.sol:ConfigFacet",
            "label": "unStakedGrossUp",
            "offset": 0,
            "slot": "5",
            "type": "t_uint256"
          },
          {
            "astId": 4471,
            "contract": "contracts/facets/ConfigFacet.sol:ConfigFacet",
            "label": "unStakedNet",
            "offset": 0,
            "slot": "6",
            "type": "t_uint256"
          },
          {
            "astId": 4473,
            "contract": "contracts/facets/ConfigFacet.sol:ConfigFacet",
            "label": "donated",
            "offset": 0,
            "slot": "7",
            "type": "t_uint256"
          },
          {
            "astId": 4475,
            "contract": "contracts/facets/ConfigFacet.sol:ConfigFacet",
            "label": "claimTaxPaid",
            "offset": 0,
            "slot": "8",
            "type": "t_uint256"
          },
          {
            "astId": 4477,
            "contract": "contracts/facets/ConfigFacet.sol:ConfigFacet",
            "label": "vaultTaxPaid",
            "offset": 0,
            "slot": "9",
            "type": "t_uint256"
          }
        ],
        "numberOfBytes": "320"
      },
      "t_struct(Gem)4497_storage": {
        "encoding": "inplace",
        "label": "struct Gem",
        "members": [
          {
            "astId": 4480,
            "contract": "contracts/facets/ConfigFacet.sol:ConfigFacet",
            "label": "gemTypeId",
            "offset": 0,
            "slot": "0",
            "type": "t_uint8"
          },
          {
            "astId": 4483,
            "contract": "contracts/facets/ConfigFacet.sol:ConfigFacet",
            "label": "booster",
            "offset": 1,
            "slot": "0",
            "type": "t_enum(Booster)4457"
          },
          {
            "astId": 4485,
            "contract": "contracts/facets/ConfigFacet.sol:ConfigFacet",
            "label": "mintTime",
            "offset": 2,
            "slot": "0",
            "type": "t_uint32"
          },
          {
            "astId": 4487,
            "contract": "contracts/facets/ConfigFacet.sol:ConfigFacet",
            "label": "lastRewardWithdrawalTime",
            "offset": 6,
            "slot": "0",
            "type": "t_uint32"
          },
          {
            "astId": 4489,
            "contract": "contracts/facets/ConfigFacet.sol:ConfigFacet",
            "label": "lastMaintenanceTime",
            "offset": 10,
            "slot": "0",
            "type": "t_uint32"
          },
          {
            "astId": 4492,
            "contract": "contracts/facets/ConfigFacet.sol:ConfigFacet",
            "label": "fi",
            "offset": 0,
            "slot": "1",
            "type": "t_struct(Fi)4478_storage"
          },
          {
            "astId": 4494,
            "contract": "contracts/facets/ConfigFacet.sol:ConfigFacet",
            "label": "presold",
            "offset": 0,
            "slot": "11",
            "type": "t_bool"
          },
          {
            "astId": 4496,
            "contract": "contracts/facets/ConfigFacet.sol:ConfigFacet",
            "label": "maintenanceFeePaid",
            "offset": 0,
            "slot": "12",
            "type": "t_uint256"
          }
        ],
        "numberOfBytes": "416"
      },
      "t_struct(GemTypeConfig)4430_storage": {
        "encoding": "inplace",
        "label": "struct GemTypeConfig",
        "members": [
          {
            "astId": 4419,
            "contract": "contracts/facets/ConfigFacet.sol:ConfigFacet",
            "label": "maintenanceFeeDai",
            "offset": 0,
            "slot": "0",
            "type": "t_uint256"
          },
          {
            "astId": 4421,
            "contract": "contracts/facets/ConfigFacet.sol:ConfigFacet",
            "label": "rewardAmountDefo",
            "offset": 0,
            "slot": "1",
            "type": "t_uint256"
          },
          {
            "astId": 4425,
            "contract": "contracts/facets/ConfigFacet.sol:ConfigFacet",
            "label": "price",
            "offset": 0,
            "slot": "2",
            "type": "t_array(t_uint256)2_storage"
          },
          {
            "astId": 4427,
            "contract": "contracts/facets/ConfigFacet.sol:ConfigFacet",
            "label": "taperRewardsThresholdDefo",
            "offset": 0,
            "slot": "4",
            "type": "t_uint256"
          },
          {
            "astId": 4429,
            "contract": "contracts/facets/ConfigFacet.sol:ConfigFacet",
            "label": "maxMintsPerLimitWindow",
            "offset": 0,
            "slot": "5",
            "type": "t_uint256"
          }
        ],
        "numberOfBytes": "192"
      },
      "t_struct(GemTypeMintWindow)4435_storage": {
        "encoding": "inplace",
        "label": "struct GemTypeMintWindow",
        "members": [
          {
            "astId": 4432,
            "contract": "contracts/facets/ConfigFacet.sol:ConfigFacet",
            "label": "mintCount",
            "offset": 0,
            "slot": "0",
            "type": "t_uint256"
          },
          {
            "astId": 4434,
            "contract": "contracts/facets/ConfigFacet.sol:ConfigFacet",
            "label": "endOfMintLimitWindow",
            "offset": 0,
            "slot": "1",
            "type": "t_uint32"
          }
        ],
        "numberOfBytes": "64"
      },
      "t_struct(ProtocolConfig)4417_storage": {
        "encoding": "inplace",
        "label": "struct ProtocolConfig",
        "members": [
          {
            "astId": 4381,
            "contract": "contracts/facets/ConfigFacet.sol:ConfigFacet",
            "label": "paymentTokens",
            "offset": 0,
            "slot": "0",
            "type": "t_array(t_contract(IERC20)737)2_storage"
          },
          {
            "astId": 4385,
            "contract": "contracts/facets/ConfigFacet.sol:ConfigFacet",
            "label": "wallets",
            "offset": 0,
            "slot": "2",
            "type": "t_array(t_address)8_storage"
          },
          {
            "astId": 4391,
            "contract": "contracts/facets/ConfigFacet.sol:ConfigFacet",
            "label": "incomeDistributionOnMint",
            "offset": 0,
            "slot": "10",
            "type": "t_array(t_array(t_uint256)3_storage)2_storage"
          },
          {
            "astId": 4393,
            "contract": "contracts/facets/ConfigFacet.sol:ConfigFacet",
            "label": "maintenancePeriod",
            "offset": 0,
            "slot": "16",
            "type": "t_uint32"
          },
          {
            "astId": 4395,
            "contract": "contracts/facets/ConfigFacet.sol:ConfigFacet",
            "label": "rewardPeriod",
            "offset": 4,
            "slot": "16",
            "type": "t_uint32"
          },
          {
            "astId": 4397,
            "contract": "contracts/facets/ConfigFacet.sol:ConfigFacet",
            "label": "taxScaleSinceLastClaimPeriod",
            "offset": 8,
            "slot": "16",
            "type": "t_uint32"
          },
          {
            "astId": 4401,
            "contract": "contracts/facets/ConfigFacet.sol:ConfigFacet",
            "label": "taxRates",
            "offset": 0,
            "slot": "17",
            "type": "t_array(t_uint256)5_storage"
          },
          {
            "astId": 4403,
            "contract": "contracts/facets/ConfigFacet.sol:ConfigFacet",
            "label": "charityContributionRate",
            "offset": 0,
            "slot": "22",
            "type": "t_uint256"
          },
          {
            "astId": 4405,
            "contract": "contracts/facets/ConfigFacet.sol:ConfigFacet",
            "label": "vaultWithdrawalTaxRate",
            "offset": 0,
            "slot": "23",
            "type": "t_uint256"
          },
          {
            "astId": 4407,
            "contract": "contracts/facets/ConfigFacet.sol:ConfigFacet",
            "label": "taperRate",
            "offset": 0,
            "slot": "24",
            "type": "t_uint256"
          },
          {
            "astId": 4409,
            "contract": "contracts/facets/ConfigFacet.sol:ConfigFacet",
            "label": "mintLock",
            "offset": 0,
            "slot": "25",
            "type": "t_bool"
          },
          {
            "astId": 4411,
            "contract": "contracts/facets/ConfigFacet.sol:ConfigFacet",
            "label": "transferLock",
            "offset": 1,
            "slot": "25",
            "type": "t_bool"
          },
          {
            "astId": 4413,
            "contract": "contracts/facets/ConfigFacet.sol:ConfigFacet",
            "label": "mintLimitWindow",
            "offset": 2,
            "slot": "25",
            "type": "t_uint32"
          },
          {
            "astId": 4416,
            "contract": "contracts/facets/ConfigFacet.sol:ConfigFacet",
            "label": "defoTokenLimitConfig",
            "offset": 0,
            "slot": "26",
            "type": "t_struct(DefoTokenLimitConfig)4376_storage"
          }
        ],
        "numberOfBytes": "928"
      },
      "t_uint256": {
        "encoding": "inplace",
        "label": "uint256",
        "numberOfBytes": "32"
      },
      "t_uint32": {
        "encoding": "inplace",
        "label": "uint32",
        "numberOfBytes": "4"
      },
      "t_uint8": {
        "encoding": "inplace",
        "label": "uint8",
        "numberOfBytes": "1"
      }
    }
  }
}