{
  "address": "0xb24f27d557fb8d56b08232dd27f8fc0b98742e79",
  "abi": [
    {
      "inputs": [],
      "stateMutability": "nonpayable",
      "type": "constructor"
    },
    {
      "anonymous": false,
      "inputs": [
        {
          "indexed": true,
          "internalType": "address",
          "name": "owner",
          "type": "address"
        },
        {
          "indexed": true,
          "internalType": "address",
          "name": "approved",
          "type": "address"
        },
        {
          "indexed": true,
          "internalType": "uint256",
          "name": "tokenId",
          "type": "uint256"
        }
      ],
      "name": "Approval",
      "type": "event"
    },
    {
      "anonymous": false,
      "inputs": [
        {
          "indexed": true,
          "internalType": "address",
          "name": "owner",
          "type": "address"
        },
        {
          "indexed": true,
          "internalType": "address",
          "name": "operator",
          "type": "address"
        },
        {
          "indexed": false,
          "internalType": "bool",
          "name": "approved",
          "type": "bool"
        }
      ],
      "name": "ApprovalForAll",
      "type": "event"
    },
    {
      "anonymous": false,
      "inputs": [
        {
          "indexed": true,
          "internalType": "address",
          "name": "previousOwner",
          "type": "address"
        },
        {
          "indexed": true,
          "internalType": "address",
          "name": "newOwner",
          "type": "address"
        }
      ],
      "name": "OwnershipTransferred",
      "type": "event"
    },
    {
      "anonymous": false,
      "inputs": [
        {
          "indexed": true,
          "internalType": "address",
          "name": "from",
          "type": "address"
        },
        {
          "indexed": true,
          "internalType": "address",
          "name": "to",
          "type": "address"
        },
        {
          "indexed": true,
          "internalType": "uint256",
          "name": "tokenId",
          "type": "uint256"
        }
      ],
      "name": "Transfer",
      "type": "event"
    },
    {
      "anonymous": false,
      "inputs": [
        {
          "indexed": true,
          "internalType": "uint256",
          "name": "tier",
          "type": "uint256"
        },
        {
          "indexed": true,
          "internalType": "string",
          "name": "uri",
          "type": "string"
        }
      ],
      "name": "URI",
      "type": "event"
    },
    {
      "inputs": [],
      "name": "DIAMOND_TIER",
      "outputs": [
        {
          "internalType": "uint256",
          "name": "",
          "type": "uint256"
        }
      ],
      "stateMutability": "view",
      "type": "function"
    },
    {
      "inputs": [],
      "name": "EMERALD_TIER",
      "outputs": [
        {
          "internalType": "uint256",
          "name": "",
          "type": "uint256"
        }
      ],
      "stateMutability": "view",
      "type": "function"
    },
    {
      "inputs": [],
      "name": "RUBY_TIER",
      "outputs": [
        {
          "internalType": "uint256",
          "name": "",
          "type": "uint256"
        }
      ],
      "stateMutability": "view",
      "type": "function"
    },
    {
      "inputs": [],
      "name": "SAPPHIRE_TIER",
      "outputs": [
        {
          "internalType": "uint256",
          "name": "",
          "type": "uint256"
        }
      ],
      "stateMutability": "view",
      "type": "function"
    },
    {
      "inputs": [
        {
          "internalType": "address",
          "name": "to",
          "type": "address"
        },
        {
          "internalType": "uint256",
          "name": "tokenId",
          "type": "uint256"
        }
      ],
      "name": "approve",
      "outputs": [],
      "stateMutability": "nonpayable",
      "type": "function"
    },
    {
      "inputs": [
        {
          "internalType": "address",
          "name": "owner",
          "type": "address"
        }
      ],
      "name": "balanceOf",
      "outputs": [
        {
          "internalType": "uint256",
          "name": "",
          "type": "uint256"
        }
      ],
      "stateMutability": "view",
      "type": "function"
    },
    {
      "inputs": [
        {
          "internalType": "address",
          "name": "to",
          "type": "address"
        },
        {
          "internalType": "uint256",
          "name": "tier",
          "type": "uint256"
        },
        {
          "internalType": "uint256",
          "name": "amount",
          "type": "uint256"
        }
      ],
      "name": "batchMint",
      "outputs": [],
      "stateMutability": "nonpayable",
      "type": "function"
    },
    {
      "inputs": [
        {
          "internalType": "uint256",
          "name": "tokenId",
          "type": "uint256"
        }
      ],
      "name": "getApproved",
      "outputs": [
        {
          "internalType": "address",
          "name": "",
          "type": "address"
        }
      ],
      "stateMutability": "view",
      "type": "function"
    },
    {
      "inputs": [
        {
          "internalType": "address",
          "name": "owner",
          "type": "address"
        },
        {
          "internalType": "address",
          "name": "operator",
          "type": "address"
        }
      ],
      "name": "isApprovedForAll",
      "outputs": [
        {
          "internalType": "bool",
          "name": "",
          "type": "bool"
        }
      ],
      "stateMutability": "view",
      "type": "function"
    },
    {
      "inputs": [
        {
          "internalType": "address",
          "name": "to",
          "type": "address"
        },
        {
          "internalType": "uint256",
          "name": "tier",
          "type": "uint256"
        }
      ],
      "name": "mint",
      "outputs": [],
      "stateMutability": "nonpayable",
      "type": "function"
    },
    {
      "inputs": [],
      "name": "name",
      "outputs": [
        {
          "internalType": "string",
          "name": "",
          "type": "string"
        }
      ],
      "stateMutability": "view",
      "type": "function"
    },
    {
      "inputs": [],
      "name": "owner",
      "outputs": [
        {
          "internalType": "address",
          "name": "",
          "type": "address"
        }
      ],
      "stateMutability": "view",
      "type": "function"
    },
    {
      "inputs": [
        {
          "internalType": "uint256",
          "name": "tokenId",
          "type": "uint256"
        }
      ],
      "name": "ownerOf",
      "outputs": [
        {
          "internalType": "address",
          "name": "",
          "type": "address"
        }
      ],
      "stateMutability": "view",
      "type": "function"
    },
    {
      "inputs": [],
      "name": "renounceOwnership",
      "outputs": [],
      "stateMutability": "nonpayable",
      "type": "function"
    },
    {
      "inputs": [
        {
          "internalType": "address",
          "name": "from",
          "type": "address"
        },
        {
          "internalType": "address",
          "name": "to",
          "type": "address"
        },
        {
          "internalType": "uint256",
          "name": "tokenId",
          "type": "uint256"
        }
      ],
      "name": "safeTransferFrom",
      "outputs": [],
      "stateMutability": "nonpayable",
      "type": "function"
    },
    {
      "inputs": [
        {
          "internalType": "address",
          "name": "from",
          "type": "address"
        },
        {
          "internalType": "address",
          "name": "to",
          "type": "address"
        },
        {
          "internalType": "uint256",
          "name": "tokenId",
          "type": "uint256"
        },
        {
          "internalType": "bytes",
          "name": "data",
          "type": "bytes"
        }
      ],
      "name": "safeTransferFrom",
      "outputs": [],
      "stateMutability": "nonpayable",
      "type": "function"
    },
    {
      "inputs": [
        {
          "internalType": "address",
          "name": "operator",
          "type": "address"
        },
        {
          "internalType": "bool",
          "name": "approved",
          "type": "bool"
        }
      ],
      "name": "setApprovalForAll",
      "outputs": [],
      "stateMutability": "nonpayable",
      "type": "function"
    },
    {
      "inputs": [
        {
          "internalType": "uint256",
          "name": "tier",
          "type": "uint256"
        },
        {
          "internalType": "string",
          "name": "tokenURI",
          "type": "string"
        }
      ],
      "name": "setTierURI",
      "outputs": [],
      "stateMutability": "nonpayable",
      "type": "function"
    },
    {
      "inputs": [
        {
          "internalType": "bytes4",
          "name": "interfaceId",
          "type": "bytes4"
        }
      ],
      "name": "supportsInterface",
      "outputs": [
        {
          "internalType": "bool",
          "name": "",
          "type": "bool"
        }
      ],
      "stateMutability": "view",
      "type": "function"
    },
    {
      "inputs": [],
      "name": "symbol",
      "outputs": [
        {
          "internalType": "string",
          "name": "",
          "type": "string"
        }
      ],
      "stateMutability": "view",
      "type": "function"
    },
    {
      "inputs": [
        {
          "internalType": "uint256",
          "name": "index",
          "type": "uint256"
        }
      ],
      "name": "tokenByIndex",
      "outputs": [
        {
          "internalType": "uint256",
          "name": "",
          "type": "uint256"
        }
      ],
      "stateMutability": "view",
      "type": "function"
    },
    {
      "inputs": [
        {
          "internalType": "address",
          "name": "owner",
          "type": "address"
        },
        {
          "internalType": "uint256",
          "name": "index",
          "type": "uint256"
        }
      ],
      "name": "tokenOfOwnerByIndex",
      "outputs": [
        {
          "internalType": "uint256",
          "name": "",
          "type": "uint256"
        }
      ],
      "stateMutability": "view",
      "type": "function"
    },
    {
      "inputs": [
        {
          "internalType": "uint256",
          "name": "",
          "type": "uint256"
        }
      ],
      "name": "tokenTiers",
      "outputs": [
        {
          "internalType": "uint256",
          "name": "",
          "type": "uint256"
        }
      ],
      "stateMutability": "view",
      "type": "function"
    },
    {
      "inputs": [
        {
          "internalType": "uint256",
          "name": "tokenId",
          "type": "uint256"
        }
      ],
      "name": "tokenURI",
      "outputs": [
        {
          "internalType": "string",
          "name": "",
          "type": "string"
        }
      ],
      "stateMutability": "view",
      "type": "function"
    },
    {
      "inputs": [],
      "name": "totalSupply",
      "outputs": [
        {
          "internalType": "uint256",
          "name": "",
          "type": "uint256"
        }
      ],
      "stateMutability": "view",
      "type": "function"
    },
    {
      "inputs": [
        {
          "internalType": "address",
          "name": "from",
          "type": "address"
        },
        {
          "internalType": "address",
          "name": "to",
          "type": "address"
        },
        {
          "internalType": "uint256",
          "name": "tokenId",
          "type": "uint256"
        }
      ],
      "name": "transferFrom",
      "outputs": [],
      "stateMutability": "nonpayable",
      "type": "function"
    },
    {
      "inputs": [
        {
          "internalType": "address",
          "name": "newOwner",
          "type": "address"
        }
      ],
      "name": "transferOwnership",
      "outputs": [],
      "stateMutability": "nonpayable",
      "type": "function"
    }
  ],
  "transactionHash": "0x2ff057cdff903d7abd4ef5c49fd185c056e10033a2c489f3ef2f152d2c3ef1b3",
  "args": [],
  "numDeployments": 1,
  "solcInputHash": "ffeea7f11aa2eead5de6ae90baa8a803",
  "bytecode": "0x60806040523480156200001157600080fd5b506040518060400160405280601981526020017f4445464f205661756c74204e465420636f6c6c656374696f6e000000000000008152506040518060400160405280600981526020016811115193d5985d5b1d60ba1b81525081600090816200007b91906200030c565b5060016200008a82826200030c565b505050620000a7620000a16200014560201b60201c565b62000149565b620000cd60016040518060600160405280603a815260200162001f9e603a91396200019b565b620000f3600260405180606001604052806036815260200162002011603691396200019b565b62000119600360405180606001604052806039815260200162001fd8603991396200019b565b6200013f600460405180606001604052806039815260200162001f65603991396200019b565b62000416565b3390565b600a80546001600160a01b038381166001600160a01b0319831681179093556040519116919082907f8be0079c531659141344cd1fd0a4f28419497f9722a3daafe3b4186f6b6457e090600090a35050565b620001a562000206565b6000828152600c60205260409020620001bf82826200030c565b5080604051620001d09190620003d8565b6040519081900381209083907f369737eac2f50072db0001f8a5c3f225ab50d5ab38d8cbdbabf885abf2ab722a90600090a35050565b600a546001600160a01b03163314620002655760405162461bcd60e51b815260206004820181905260248201527f4f776e61626c653a2063616c6c6572206973206e6f7420746865206f776e6572604482015260640160405180910390fd5b565b634e487b7160e01b600052604160045260246000fd5b600181811c908216806200029257607f821691505b602082108103620002b357634e487b7160e01b600052602260045260246000fd5b50919050565b601f8211156200030757600081815260208120601f850160051c81016020861015620002e25750805b601f850160051c820191505b818110156200030357828155600101620002ee565b5050505b505050565b81516001600160401b0381111562000328576200032862000267565b62000340816200033984546200027d565b84620002b9565b602080601f8311600181146200037857600084156200035f5750858301515b600019600386901b1c1916600185901b17855562000303565b600085815260208120601f198616915b82811015620003a95788860151825594840194600190910190840162000388565b5085821015620003c85787850151600019600388901b60f8161c191681555b5050505050600190811b01905550565b6000825160005b81811015620003fb5760208186018101518583015201620003df565b818111156200040b576000828501525b509190910192915050565b611b3f80620004266000396000f3fe608060405234801561001057600080fd5b50600436106101a95760003560e01c80636352211e116100f9578063a22cb46511610097578063d3796eaa11610071578063d3796eaa14610372578063e985e9c51461037a578063ebd2639e146103b6578063f2fde38b146103be57600080fd5b8063a22cb46514610339578063b88d4fde1461034c578063c87b56dd1461035f57600080fd5b8063818f2e42116100d3578063818f2e42146102ed5780638da5cb5b1461030d57806395d89b411461031e5780639c0c32281461032657600080fd5b80636352211e146102bf57806370a08231146102d2578063715018a6146102e557600080fd5b806323b872dd116101665780632f745c59116101405780632f745c591461027357806340c10f191461028657806342842e0e146102995780634f6ccce7146102ac57600080fd5b806323b872dd146102455780632850ffdb146102585780632a959b891461026057600080fd5b806301ffc9a7146101ae57806306fdde03146101d6578063081812fc146101eb578063095ea7b31461021657806318160ddd1461022b5780632164d12a1461023d575b600080fd5b6101c16101bc3660046114d8565b6103d1565b60405190151581526020015b60405180910390f35b6101de6103fc565b6040516101cd9190611554565b6101fe6101f9366004611567565b61048e565b6040516001600160a01b0390911681526020016101cd565b61022961022436600461159c565b6104b5565b005b6008545b6040519081526020016101cd565b61022f600281565b6102296102533660046115c6565b6105cf565b61022f600181565b61022961026e366004611602565b610600565b61022f61028136600461159c565b61066c565b61022961029436600461159c565b610702565b6102296102a73660046115c6565b610732565b61022f6102ba366004611567565b61074d565b6101fe6102cd366004611567565b6107e0565b61022f6102e0366004611635565b610840565b6102296108c6565b61022f6102fb366004611567565b600b6020526000908152604090205481565b600a546001600160a01b03166101fe565b6101de6108da565b6102296103343660046116dc565b6108e9565b610229610347366004611737565b61094e565b61022961035a366004611773565b61095d565b6101de61036d366004611567565b610995565b61022f600481565b6101c16103883660046117ef565b6001600160a01b03918216600090815260056020908152604080832093909416825291909152205460ff1690565b61022f600381565b6102296103cc366004611635565b610ac2565b60006001600160e01b0319821663780e9d6360e01b14806103f657506103f682610b3b565b92915050565b60606000805461040b90611822565b80601f016020809104026020016040519081016040528092919081815260200182805461043790611822565b80156104845780601f1061045957610100808354040283529160200191610484565b820191906000526020600020905b81548152906001019060200180831161046757829003601f168201915b5050505050905090565b600061049982610b8b565b506000908152600460205260409020546001600160a01b031690565b60006104c0826107e0565b9050806001600160a01b0316836001600160a01b0316036105325760405162461bcd60e51b815260206004820152602160248201527f4552433732313a20617070726f76616c20746f2063757272656e74206f776e656044820152603960f91b60648201526084015b60405180910390fd5b336001600160a01b038216148061054e575061054e8133610388565b6105c05760405162461bcd60e51b815260206004820152603e60248201527f4552433732313a20617070726f76652063616c6c6572206973206e6f7420746f60448201527f6b656e206f776e6572206e6f7220617070726f76656420666f7220616c6c00006064820152608401610529565b6105ca8383610bea565b505050565b6105d93382610c58565b6105f55760405162461bcd60e51b81526004016105299061185c565b6105ca838383610cd7565b610608610e7e565b600061061360085490565b905060005b828110156106655783600b600061062f84866118c0565b81526020810191909152604001600020556106538561064e83856118c0565b610ed8565b8061065d816118d8565b915050610618565b5050505050565b600061067783610840565b82106106d95760405162461bcd60e51b815260206004820152602b60248201527f455243373231456e756d657261626c653a206f776e657220696e646578206f7560448201526a74206f6620626f756e647360a81b6064820152608401610529565b506001600160a01b03919091166000908152600660209081526040808320938352929052205490565b61070a610e7e565b600061071560085490565b6000818152600b6020526040902083905590506105ca8382610ed8565b6105ca8383836040518060200160405280600081525061095d565b600061075860085490565b82106107bb5760405162461bcd60e51b815260206004820152602c60248201527f455243373231456e756d657261626c653a20676c6f62616c20696e646578206f60448201526b7574206f6620626f756e647360a01b6064820152608401610529565b600882815481106107ce576107ce6118f1565b90600052602060002001549050919050565b6000818152600260205260408120546001600160a01b0316806103f65760405162461bcd60e51b8152602060048201526018602482015277115490cdcc8c4e881a5b9d985b1a59081d1bdad95b88125160421b6044820152606401610529565b60006001600160a01b0382166108aa5760405162461bcd60e51b815260206004820152602960248201527f4552433732313a2061646472657373207a65726f206973206e6f7420612076616044820152683634b21037bbb732b960b91b6064820152608401610529565b506001600160a01b031660009081526003602052604090205490565b6108ce610e7e565b6108d86000611026565b565b60606001805461040b90611822565b6108f1610e7e565b6000828152600c602052604090206109098282611955565b50806040516109189190611a15565b6040519081900381209083907f369737eac2f50072db0001f8a5c3f225ab50d5ab38d8cbdbabf885abf2ab722a90600090a35050565b610959338383611078565b5050565b6109673383610c58565b6109835760405162461bcd60e51b81526004016105299061185c565b61098f84848484611146565b50505050565b6000818152600260205260409020546060906001600160a01b0316610a145760405162461bcd60e51b815260206004820152602f60248201527f4552433732314d657461646174613a2055524920717565727920666f72206e6f60448201526e3732bc34b9ba32b73a103a37b5b2b760891b6064820152608401610529565b6000828152600b6020908152604080832054808452600c9092529091208054610a3c90611822565b80601f0160208091040260200160405190810160405280929190818152602001828054610a6890611822565b8015610ab55780601f10610a8a57610100808354040283529160200191610ab5565b820191906000526020600020905b815481529060010190602001808311610a9857829003601f168201915b5050505050915050919050565b610aca610e7e565b6001600160a01b038116610b2f5760405162461bcd60e51b815260206004820152602660248201527f4f776e61626c653a206e6577206f776e657220697320746865207a65726f206160448201526564647265737360d01b6064820152608401610529565b610b3881611026565b50565b60006001600160e01b031982166380ac58cd60e01b1480610b6c57506001600160e01b03198216635b5e139f60e01b145b806103f657506301ffc9a760e01b6001600160e01b03198316146103f6565b6000818152600260205260409020546001600160a01b0316610b385760405162461bcd60e51b8152602060048201526018602482015277115490cdcc8c4e881a5b9d985b1a59081d1bdad95b88125160421b6044820152606401610529565b600081815260046020526040902080546001600160a01b0319166001600160a01b0384169081179091558190610c1f826107e0565b6001600160a01b03167f8c5be1e5ebec7d5bd14f71427d1e84f3dd0314c0f7b2291e5b200ac8c7c3b92560405160405180910390a45050565b600080610c64836107e0565b9050806001600160a01b0316846001600160a01b03161480610cab57506001600160a01b0380821660009081526005602090815260408083209388168352929052205460ff165b80610ccf5750836001600160a01b0316610cc48461048e565b6001600160a01b0316145b949350505050565b826001600160a01b0316610cea826107e0565b6001600160a01b031614610d4e5760405162461bcd60e51b815260206004820152602560248201527f4552433732313a207472616e736665722066726f6d20696e636f72726563742060448201526437bbb732b960d91b6064820152608401610529565b6001600160a01b038216610db05760405162461bcd60e51b8152602060048201526024808201527f4552433732313a207472616e7366657220746f20746865207a65726f206164646044820152637265737360e01b6064820152608401610529565b610dbb838383611179565b610dc6600082610bea565b6001600160a01b0383166000908152600360205260408120805460019290610def908490611a31565b90915550506001600160a01b0382166000908152600360205260408120805460019290610e1d9084906118c0565b909155505060008181526002602052604080822080546001600160a01b0319166001600160a01b0386811691821790925591518493918716917fddf252ad1be2c89b69c2b068fc378daa952ba7f163c4a11628f55a4df523b3ef91a4505050565b600a546001600160a01b031633146108d85760405162461bcd60e51b815260206004820181905260248201527f4f776e61626c653a2063616c6c6572206973206e6f7420746865206f776e65726044820152606401610529565b6001600160a01b038216610f2e5760405162461bcd60e51b815260206004820181905260248201527f4552433732313a206d696e7420746f20746865207a65726f20616464726573736044820152606401610529565b6000818152600260205260409020546001600160a01b031615610f935760405162461bcd60e51b815260206004820152601c60248201527f4552433732313a20746f6b656e20616c7265616479206d696e746564000000006044820152606401610529565b610f9f60008383611179565b6001600160a01b0382166000908152600360205260408120805460019290610fc89084906118c0565b909155505060008181526002602052604080822080546001600160a01b0319166001600160a01b03861690811790915590518392907fddf252ad1be2c89b69c2b068fc378daa952ba7f163c4a11628f55a4df523b3ef908290a45050565b600a80546001600160a01b038381166001600160a01b0319831681179093556040519116919082907f8be0079c531659141344cd1fd0a4f28419497f9722a3daafe3b4186f6b6457e090600090a35050565b816001600160a01b0316836001600160a01b0316036110d95760405162461bcd60e51b815260206004820152601960248201527f4552433732313a20617070726f766520746f2063616c6c6572000000000000006044820152606401610529565b6001600160a01b03838116600081815260056020908152604080832094871680845294825291829020805460ff191686151590811790915591519182527f17307eab39ab6107e8899845ad3d59bd9653f200f220920489ca2b5937696c31910160405180910390a3505050565b611151848484610cd7565b61115d84848484611231565b61098f5760405162461bcd60e51b815260040161052990611a48565b6001600160a01b0383166111d4576111cf81600880546000838152600960205260408120829055600182018355919091527ff3f7a9fe364faab93b216da50a3214154f22a0a2b415b23a84c8169e8b636ee30155565b6111f7565b816001600160a01b0316836001600160a01b0316146111f7576111f78382611332565b6001600160a01b03821661120e576105ca816113cf565b826001600160a01b0316826001600160a01b0316146105ca576105ca828261147e565b60006001600160a01b0384163b1561132757604051630a85bd0160e11b81526001600160a01b0385169063150b7a0290611275903390899088908890600401611a9a565b6020604051808303816000875af19250505080156112b0575060408051601f3d908101601f191682019092526112ad91810190611ad6565b60015b61130d573d8080156112de576040519150601f19603f3d011682016040523d82523d6000602084013e6112e3565b606091505b5080516000036113055760405162461bcd60e51b815260040161052990611a48565b805181602001fd5b6001600160e01b031916630a85bd0160e11b149050610ccf565b506001949350505050565b6000600161133f84610840565b6113499190611a31565b60008381526007602052604090205490915080821461139c576001600160a01b03841660009081526006602090815260408083208584528252808320548484528184208190558352600790915290208190555b5060009182526007602090815260408084208490556001600160a01b039094168352600681528383209183525290812055565b6008546000906113e190600190611a31565b60008381526009602052604081205460088054939450909284908110611409576114096118f1565b90600052602060002001549050806008838154811061142a5761142a6118f1565b600091825260208083209091019290925582815260099091526040808220849055858252812055600880548061146257611462611af3565b6001900381819060005260206000200160009055905550505050565b600061148983610840565b6001600160a01b039093166000908152600660209081526040808320868452825280832085905593825260079052919091209190915550565b6001600160e01b031981168114610b3857600080fd5b6000602082840312156114ea57600080fd5b81356114f5816114c2565b9392505050565b60005b838110156115175781810151838201526020016114ff565b8381111561098f5750506000910152565b600081518084526115408160208601602086016114fc565b601f01601f19169290920160200192915050565b6020815260006114f56020830184611528565b60006020828403121561157957600080fd5b5035919050565b80356001600160a01b038116811461159757600080fd5b919050565b600080604083850312156115af57600080fd5b6115b883611580565b946020939093013593505050565b6000806000606084860312156115db57600080fd5b6115e484611580565b92506115f260208501611580565b9150604084013590509250925092565b60008060006060848603121561161757600080fd5b61162084611580565b95602085013595506040909401359392505050565b60006020828403121561164757600080fd5b6114f582611580565b634e487b7160e01b600052604160045260246000fd5b600067ffffffffffffffff8084111561168157611681611650565b604051601f8501601f19908116603f011681019082821181831017156116a9576116a9611650565b816040528093508581528686860111156116c257600080fd5b858560208301376000602087830101525050509392505050565b600080604083850312156116ef57600080fd5b82359150602083013567ffffffffffffffff81111561170d57600080fd5b8301601f8101851361171e57600080fd5b61172d85823560208401611666565b9150509250929050565b6000806040838503121561174a57600080fd5b61175383611580565b91506020830135801515811461176857600080fd5b809150509250929050565b6000806000806080858703121561178957600080fd5b61179285611580565b93506117a060208601611580565b925060408501359150606085013567ffffffffffffffff8111156117c357600080fd5b8501601f810187136117d457600080fd5b6117e387823560208401611666565b91505092959194509250565b6000806040838503121561180257600080fd5b61180b83611580565b915061181960208401611580565b90509250929050565b600181811c9082168061183657607f821691505b60208210810361185657634e487b7160e01b600052602260045260246000fd5b50919050565b6020808252602e908201527f4552433732313a2063616c6c6572206973206e6f7420746f6b656e206f776e6560408201526d1c881b9bdc88185c1c1c9bdd995960921b606082015260800190565b634e487b7160e01b600052601160045260246000fd5b600082198211156118d3576118d36118aa565b500190565b6000600182016118ea576118ea6118aa565b5060010190565b634e487b7160e01b600052603260045260246000fd5b601f8211156105ca57600081815260208120601f850160051c8101602086101561192e5750805b601f850160051c820191505b8181101561194d5782815560010161193a565b505050505050565b815167ffffffffffffffff81111561196f5761196f611650565b6119838161197d8454611822565b84611907565b602080601f8311600181146119b857600084156119a05750858301515b600019600386901b1c1916600185901b17855561194d565b600085815260208120601f198616915b828110156119e7578886015182559484019460019091019084016119c8565b5085821015611a055787850151600019600388901b60f8161c191681555b5050505050600190811b01905550565b60008251611a278184602087016114fc565b9190910192915050565b600082821015611a4357611a436118aa565b500390565b60208082526032908201527f4552433732313a207472616e7366657220746f206e6f6e20455243373231526560408201527131b2b4bb32b91034b6b83632b6b2b73a32b960711b606082015260800190565b60006001600160a01b03808716835280861660208401525083604083015260806060830152611acc6080830184611528565b9695505050505050565b600060208284031215611ae857600080fd5b81516114f5816114c2565b634e487b7160e01b600052603160045260246000fdfea2646970667358221220da601d87b676f29d4fc32fdd1dbfb18ee2080dde169f71590d97e6ada6ec85e964736f6c634300080f003368747470733a2f2f6465666f2d7661756c742e73332e616d617a6f6e6177732e636f6d2f6d657461646174612d656d6572616c642e6a736f6e68747470733a2f2f6465666f2d7661756c742e73332e616d617a6f6e6177732e636f6d2f6d657461646174612d73617070686972652e6a736f6e68747470733a2f2f6465666f2d7661756c742e73332e616d617a6f6e6177732e636f6d2f6d657461646174612d6469616d6f6e642e6a736f6e68747470733a2f2f6465666f2d7661756c742e73332e616d617a6f6e6177732e636f6d2f6d657461646174612d727562792e6a736f6e",
  "devdoc": {
    "kind": "dev",
    "methods": {
      "approve(address,uint256)": {
        "details": "See {IERC721-approve}."
      },
      "balanceOf(address)": {
        "details": "See {IERC721-balanceOf}."
      },
      "getApproved(uint256)": {
        "details": "See {IERC721-getApproved}."
      },
      "isApprovedForAll(address,address)": {
        "details": "See {IERC721-isApprovedForAll}."
      },
      "name()": {
        "details": "See {IERC721Metadata-name}."
      },
      "owner()": {
        "details": "Returns the address of the current owner."
      },
      "ownerOf(uint256)": {
        "details": "See {IERC721-ownerOf}."
      },
      "renounceOwnership()": {
        "details": "Leaves the contract without owner. It will not be possible to call `onlyOwner` functions anymore. Can only be called by the current owner. NOTE: Renouncing ownership will leave the contract without an owner, thereby removing any functionality that is only available to the owner."
      },
      "safeTransferFrom(address,address,uint256)": {
        "details": "See {IERC721-safeTransferFrom}."
      },
      "safeTransferFrom(address,address,uint256,bytes)": {
        "details": "See {IERC721-safeTransferFrom}."
      },
      "setApprovalForAll(address,bool)": {
        "details": "See {IERC721-setApprovalForAll}."
      },
      "supportsInterface(bytes4)": {
        "details": "See {IERC165-supportsInterface}."
      },
      "symbol()": {
        "details": "See {IERC721Metadata-symbol}."
      },
      "tokenByIndex(uint256)": {
        "details": "See {IERC721Enumerable-tokenByIndex}."
      },
      "tokenOfOwnerByIndex(address,uint256)": {
        "details": "See {IERC721Enumerable-tokenOfOwnerByIndex}."
      },
      "tokenURI(uint256)": {
        "details": "See {IERC721Metadata-tokenURI}."
      },
      "totalSupply()": {
        "details": "See {IERC721Enumerable-totalSupply}."
      },
      "transferFrom(address,address,uint256)": {
        "details": "See {IERC721-transferFrom}."
      },
      "transferOwnership(address)": {
        "details": "Transfers ownership of the contract to a new account (`newOwner`). Can only be called by the current owner."
      }
    },
    "stateVariables": {
      "_baseURIextended": {
        "details": "tier => url"
      },
      "_tierURIs": {
        "details": "tier => token url"
      }
    },
    "version": 1
  },
  "userdoc": {
    "kind": "user",
    "methods": {
      "tokenByIndex(uint256)": {
        "notice": "[["
      },
      "tokenTiers(uint256)": {
        "notice": "tokenId => token tier (sapphire, ruby, diamond, emerald)"
      }
    },
    "version": 1
  },
  "storageLayout": {
    "storage": [
      {
        "astId": 2390,
        "contract": "contracts/p2-nft/DefoVaultERC721.sol:DefoVaultNFT",
        "label": "_name",
        "offset": 0,
        "slot": "0",
        "type": "t_string_storage"
      },
      {
        "astId": 2392,
        "contract": "contracts/p2-nft/DefoVaultERC721.sol:DefoVaultNFT",
        "label": "_symbol",
        "offset": 0,
        "slot": "1",
        "type": "t_string_storage"
      },
      {
        "astId": 2396,
        "contract": "contracts/p2-nft/DefoVaultERC721.sol:DefoVaultNFT",
        "label": "_owners",
        "offset": 0,
        "slot": "2",
        "type": "t_mapping(t_uint256,t_address)"
      },
      {
        "astId": 2400,
        "contract": "contracts/p2-nft/DefoVaultERC721.sol:DefoVaultNFT",
        "label": "_balances",
        "offset": 0,
        "slot": "3",
        "type": "t_mapping(t_address,t_uint256)"
      },
      {
        "astId": 2404,
        "contract": "contracts/p2-nft/DefoVaultERC721.sol:DefoVaultNFT",
        "label": "_tokenApprovals",
        "offset": 0,
        "slot": "4",
        "type": "t_mapping(t_uint256,t_address)"
      },
      {
        "astId": 2410,
        "contract": "contracts/p2-nft/DefoVaultERC721.sol:DefoVaultNFT",
        "label": "_operatorApprovals",
        "offset": 0,
        "slot": "5",
        "type": "t_mapping(t_address,t_mapping(t_address,t_bool))"
      },
      {
        "astId": 3410,
        "contract": "contracts/p2-nft/DefoVaultERC721.sol:DefoVaultNFT",
        "label": "_ownedTokens",
        "offset": 0,
        "slot": "6",
        "type": "t_mapping(t_address,t_mapping(t_uint256,t_uint256))"
      },
      {
        "astId": 3414,
        "contract": "contracts/p2-nft/DefoVaultERC721.sol:DefoVaultNFT",
        "label": "_ownedTokensIndex",
        "offset": 0,
        "slot": "7",
        "type": "t_mapping(t_uint256,t_uint256)"
      },
      {
        "astId": 3417,
        "contract": "contracts/p2-nft/DefoVaultERC721.sol:DefoVaultNFT",
        "label": "_allTokens",
        "offset": 0,
        "slot": "8",
        "type": "t_array(t_uint256)dyn_storage"
      },
      {
        "astId": 3421,
        "contract": "contracts/p2-nft/DefoVaultERC721.sol:DefoVaultNFT",
        "label": "_allTokensIndex",
        "offset": 0,
        "slot": "9",
        "type": "t_mapping(t_uint256,t_uint256)"
      },
      {
        "astId": 550,
        "contract": "contracts/p2-nft/DefoVaultERC721.sol:DefoVaultNFT",
        "label": "_owner",
        "offset": 0,
        "slot": "10",
        "type": "t_address"
      },
      {
        "astId": 14227,
        "contract": "contracts/p2-nft/DefoVaultERC721.sol:DefoVaultNFT",
        "label": "tokenTiers",
        "offset": 0,
        "slot": "11",
        "type": "t_mapping(t_uint256,t_uint256)"
      },
      {
        "astId": 14232,
        "contract": "contracts/p2-nft/DefoVaultERC721.sol:DefoVaultNFT",
        "label": "_tierURIs",
        "offset": 0,
        "slot": "12",
        "type": "t_mapping(t_uint256,t_string_storage)"
      },
      {
        "astId": 14235,
        "contract": "contracts/p2-nft/DefoVaultERC721.sol:DefoVaultNFT",
        "label": "_baseURIextended",
        "offset": 0,
        "slot": "13",
        "type": "t_string_storage"
      }
    ],
    "types": {
      "t_address": {
        "encoding": "inplace",
        "label": "address",
        "numberOfBytes": "20"
      },
      "t_array(t_uint256)dyn_storage": {
        "base": "t_uint256",
        "encoding": "dynamic_array",
        "label": "uint256[]",
        "numberOfBytes": "32"
      },
      "t_bool": {
        "encoding": "inplace",
        "label": "bool",
        "numberOfBytes": "1"
      },
      "t_mapping(t_address,t_bool)": {
        "encoding": "mapping",
        "key": "t_address",
        "label": "mapping(address => bool)",
        "numberOfBytes": "32",
        "value": "t_bool"
      },
      "t_mapping(t_address,t_mapping(t_address,t_bool))": {
        "encoding": "mapping",
        "key": "t_address",
        "label": "mapping(address => mapping(address => bool))",
        "numberOfBytes": "32",
        "value": "t_mapping(t_address,t_bool)"
      },
      "t_mapping(t_address,t_mapping(t_uint256,t_uint256))": {
        "encoding": "mapping",
        "key": "t_address",
        "label": "mapping(address => mapping(uint256 => uint256))",
        "numberOfBytes": "32",
        "value": "t_mapping(t_uint256,t_uint256)"
      },
      "t_mapping(t_address,t_uint256)": {
        "encoding": "mapping",
        "key": "t_address",
        "label": "mapping(address => uint256)",
        "numberOfBytes": "32",
        "value": "t_uint256"
      },
      "t_mapping(t_uint256,t_address)": {
        "encoding": "mapping",
        "key": "t_uint256",
        "label": "mapping(uint256 => address)",
        "numberOfBytes": "32",
        "value": "t_address"
      },
      "t_mapping(t_uint256,t_string_storage)": {
        "encoding": "mapping",
        "key": "t_uint256",
        "label": "mapping(uint256 => string)",
        "numberOfBytes": "32",
        "value": "t_string_storage"
      },
      "t_mapping(t_uint256,t_uint256)": {
        "encoding": "mapping",
        "key": "t_uint256",
        "label": "mapping(uint256 => uint256)",
        "numberOfBytes": "32",
        "value": "t_uint256"
      },
      "t_string_storage": {
        "encoding": "bytes",
        "label": "string",
        "numberOfBytes": "32"
      },
      "t_uint256": {
        "encoding": "inplace",
        "label": "uint256",
        "numberOfBytes": "32"
      }
    }
  }
}