{
  "address": "0xF5E5d62a439bE1B234c474b44aB1C630B02d1Eb7",
  "abi": [
    {
      "anonymous": false,
      "inputs": [
        {
          "indexed": true,
          "internalType": "address",
          "name": "user",
          "type": "address"
        },
        {
          "indexed": false,
          "internalType": "uint256",
          "name": "amount",
          "type": "uint256"
        }
      ],
      "name": "Donated",
      "type": "event"
    },
    {
      "inputs": [],
      "name": "getTotalDonated",
      "outputs": [
        {
          "internalType": "uint256",
          "name": "",
          "type": "uint256"
        }
      ],
      "stateMutability": "view",
      "type": "function"
    },
    {
      "inputs": [],
      "name": "getTotalDonatedAllUsers",
      "outputs": [
        {
          "internalType": "uint256",
          "name": "",
          "type": "uint256"
        }
      ],
      "stateMutability": "view",
      "type": "function"
    },
    {
      "inputs": [
        {
          "internalType": "address",
          "name": "_user",
          "type": "address"
        }
      ],
      "name": "getTotalDonatedOf",
      "outputs": [
        {
          "internalType": "uint256",
          "name": "",
          "type": "uint256"
        }
      ],
      "stateMutability": "view",
      "type": "function"
    }
  ],
  "transactionHash": "0x39fbe75fea1193e9d1c703e91f28fc3e4bb4bf51a0dbd928c6aec162711bcc65",
  "args": [],
  "numDeployments": 5,
  "solcInputHash": "eee850e7cb3cdcf8e203e703634e63e8",
  "bytecode": "0x608060405234801561001057600080fd5b50610183806100206000396000f3fe608060405234801561001057600080fd5b50600436106100415760003560e01c80633a385285146100465780637b4b92f51461005c578063d56e306814610088575b600080fd5b6036545b60405190815260200160405180910390f35b61004a61006a36600461011d565b6001600160a01b031660009081526039602052604090206007015490565b61004a60006039816100986100c1565b6001600160a01b03166001600160a01b0316815260200190815260200160002060070154905090565b600030330361011757600080368080601f0160208091040260200160405190810160405280939291908181526020018383808284376000920191909152505050503601516001600160a01b0316915061011a9050565b50335b90565b60006020828403121561012f57600080fd5b81356001600160a01b038116811461014657600080fd5b939250505056fea264697066735822122082de8a3ce5b7b39fa4dd34aa081342d06fba4da0cd48b7f422f0b862b26eaf9064736f6c634300080f0033",
  "devdoc": {
    "author": "Decentralized Foundation Team",
    "kind": "dev",
    "methods": {
      "getTotalDonated()": {
        "returns": {
          "_0": "amount in DEFO (in wei precision)"
        }
      },
      "getTotalDonatedAllUsers()": {
        "returns": {
          "_0": "amount in DEFO (in wei precision)"
        }
      },
      "getTotalDonatedOf(address)": {
        "params": {
          "_user": "user to query info for"
        },
        "returns": {
          "_0": "amount in DEFO (in wei precision)"
        }
      }
    },
    "title": "DonationsFacet EIP-2535 Diamond Facet",
    "version": 1
  },
  "userdoc": {
    "kind": "user",
    "methods": {
      "getTotalDonated()": {
        "notice": "amount donated by the sender for all time"
      },
      "getTotalDonatedAllUsers()": {
        "notice": "amount donated by all the users for all time"
      },
      "getTotalDonatedOf(address)": {
        "notice": "amount donated by a user for all time"
      }
    },
    "notice": "Donations Getter",
    "version": 1
  },
  "storageLayout": {
    "storage": [
      {
        "astId": 4283,
        "contract": "contracts/facets/DonationsFacet.sol:DonationsFacet",
        "label": "s",
        "offset": 0,
        "slot": "0",
        "type": "t_struct(AppStorage)4540_storage"
      }
    ],
    "types": {
      "t_address": {
        "encoding": "inplace",
        "label": "address",
        "numberOfBytes": "20"
      },
      "t_array(t_address)8_storage": {
        "base": "t_address",
        "encoding": "inplace",
        "label": "address[8]",
        "numberOfBytes": "256"
      },
      "t_array(t_array(t_uint256)3_storage)2_storage": {
        "base": "t_array(t_uint256)3_storage",
        "encoding": "inplace",
        "label": "uint256[3][2]",
        "numberOfBytes": "192"
      },
      "t_array(t_contract(IERC20)737)2_storage": {
        "base": "t_contract(IERC20)737",
        "encoding": "inplace",
        "label": "contract IERC20[2]",
        "numberOfBytes": "64"
      },
      "t_array(t_struct(GemTypeConfig)4430_storage)dyn_storage": {
        "base": "t_struct(GemTypeConfig)4430_storage",
        "encoding": "dynamic_array",
        "label": "struct GemTypeConfig[]",
        "numberOfBytes": "32"
      },
      "t_array(t_struct(GemTypeMintWindow)4435_storage)dyn_storage": {
        "base": "t_struct(GemTypeMintWindow)4435_storage",
        "encoding": "dynamic_array",
        "label": "struct GemTypeMintWindow[]",
        "numberOfBytes": "32"
      },
      "t_array(t_uint256)2_storage": {
        "base": "t_uint256",
        "encoding": "inplace",
        "label": "uint256[2]",
        "numberOfBytes": "64"
      },
      "t_array(t_uint256)3_storage": {
        "base": "t_uint256",
        "encoding": "inplace",
        "label": "uint256[3]",
        "numberOfBytes": "96"
      },
      "t_array(t_uint256)5_storage": {
        "base": "t_uint256",
        "encoding": "inplace",
        "label": "uint256[5]",
        "numberOfBytes": "160"
      },
      "t_array(t_uint256)dyn_storage": {
        "base": "t_uint256",
        "encoding": "dynamic_array",
        "label": "uint256[]",
        "numberOfBytes": "32"
      },
      "t_bool": {
        "encoding": "inplace",
        "label": "bool",
        "numberOfBytes": "1"
      },
      "t_contract(IERC20)737": {
        "encoding": "inplace",
        "label": "contract IERC20",
        "numberOfBytes": "20"
      },
      "t_enum(Booster)4457": {
        "encoding": "inplace",
        "label": "enum Booster",
        "numberOfBytes": "1"
      },
      "t_mapping(t_address,t_bool)": {
        "encoding": "mapping",
        "key": "t_address",
        "label": "mapping(address => bool)",
        "numberOfBytes": "32",
        "value": "t_bool"
      },
      "t_mapping(t_address,t_mapping(t_address,t_bool))": {
        "encoding": "mapping",
        "key": "t_address",
        "label": "mapping(address => mapping(address => bool))",
        "numberOfBytes": "32",
        "value": "t_mapping(t_address,t_bool)"
      },
      "t_mapping(t_address,t_mapping(t_uint256,t_uint256))": {
        "encoding": "mapping",
        "key": "t_address",
        "label": "mapping(address => mapping(uint256 => uint256))",
        "numberOfBytes": "32",
        "value": "t_mapping(t_uint256,t_uint256)"
      },
      "t_mapping(t_address,t_mapping(t_uint8,t_mapping(t_enum(Booster)4457,t_uint256)))": {
        "encoding": "mapping",
        "key": "t_address",
        "label": "mapping(address => mapping(uint8 => mapping(enum Booster => uint256)))",
        "numberOfBytes": "32",
        "value": "t_mapping(t_uint8,t_mapping(t_enum(Booster)4457,t_uint256))"
      },
      "t_mapping(t_address,t_struct(Fi)4478_storage)": {
        "encoding": "mapping",
        "key": "t_address",
        "label": "mapping(address => struct Fi)",
        "numberOfBytes": "32",
        "value": "t_struct(Fi)4478_storage"
      },
      "t_mapping(t_address,t_uint256)": {
        "encoding": "mapping",
        "key": "t_address",
        "label": "mapping(address => uint256)",
        "numberOfBytes": "32",
        "value": "t_uint256"
      },
      "t_mapping(t_enum(Booster)4457,t_uint256)": {
        "encoding": "mapping",
        "key": "t_enum(Booster)4457",
        "label": "mapping(enum Booster => uint256)",
        "numberOfBytes": "32",
        "value": "t_uint256"
      },
      "t_mapping(t_uint256,t_address)": {
        "encoding": "mapping",
        "key": "t_uint256",
        "label": "mapping(uint256 => address)",
        "numberOfBytes": "32",
        "value": "t_address"
      },
      "t_mapping(t_uint256,t_struct(Gem)4497_storage)": {
        "encoding": "mapping",
        "key": "t_uint256",
        "label": "mapping(uint256 => struct Gem)",
        "numberOfBytes": "32",
        "value": "t_struct(Gem)4497_storage"
      },
      "t_mapping(t_uint256,t_uint256)": {
        "encoding": "mapping",
        "key": "t_uint256",
        "label": "mapping(uint256 => uint256)",
        "numberOfBytes": "32",
        "value": "t_uint256"
      },
      "t_mapping(t_uint8,t_mapping(t_enum(Booster)4457,t_uint256))": {
        "encoding": "mapping",
        "key": "t_uint8",
        "label": "mapping(uint8 => mapping(enum Booster => uint256))",
        "numberOfBytes": "32",
        "value": "t_mapping(t_enum(Booster)4457,t_uint256)"
      },
      "t_string_storage": {
        "encoding": "bytes",
        "label": "string",
        "numberOfBytes": "32"
      },
      "t_struct(AppStorage)4540_storage": {
        "encoding": "inplace",
        "label": "struct AppStorage",
        "members": [
          {
            "astId": 4500,
            "contract": "contracts/facets/DonationsFacet.sol:DonationsFacet",
            "label": "config",
            "offset": 0,
            "slot": "0",
            "type": "t_struct(ProtocolConfig)4417_storage"
          },
          {
            "astId": 4504,
            "contract": "contracts/facets/DonationsFacet.sol:DonationsFacet",
            "label": "gemTypes",
            "offset": 0,
            "slot": "29",
            "type": "t_array(t_struct(GemTypeConfig)4430_storage)dyn_storage"
          },
          {
            "astId": 4508,
            "contract": "contracts/facets/DonationsFacet.sol:DonationsFacet",
            "label": "gemTypesMintWindows",
            "offset": 0,
            "slot": "30",
            "type": "t_array(t_struct(GemTypeMintWindow)4435_storage)dyn_storage"
          },
          {
            "astId": 4511,
            "contract": "contracts/facets/DonationsFacet.sol:DonationsFacet",
            "label": "defoTokenLimitWindow",
            "offset": 0,
            "slot": "31",
            "type": "t_struct(DEFOTokenLimitWindow)4444_storage"
          },
          {
            "astId": 4516,
            "contract": "contracts/facets/DonationsFacet.sol:DonationsFacet",
            "label": "gems",
            "offset": 0,
            "slot": "33",
            "type": "t_mapping(t_uint256,t_struct(Gem)4497_storage)"
          },
          {
            "astId": 4519,
            "contract": "contracts/facets/DonationsFacet.sol:DonationsFacet",
            "label": "nft",
            "offset": 0,
            "slot": "34",
            "type": "t_struct(ERC721Storage)4351_storage"
          },
          {
            "astId": 4522,
            "contract": "contracts/facets/DonationsFacet.sol:DonationsFacet",
            "label": "total",
            "offset": 0,
            "slot": "47",
            "type": "t_struct(Fi)4478_storage"
          },
          {
            "astId": 4527,
            "contract": "contracts/facets/DonationsFacet.sol:DonationsFacet",
            "label": "usersFi",
            "offset": 0,
            "slot": "57",
            "type": "t_mapping(t_address,t_struct(Fi)4478_storage)"
          },
          {
            "astId": 4536,
            "contract": "contracts/facets/DonationsFacet.sol:DonationsFacet",
            "label": "usersNextGemBooster",
            "offset": 0,
            "slot": "58",
            "type": "t_mapping(t_address,t_mapping(t_uint8,t_mapping(t_enum(Booster)4457,t_uint256)))"
          },
          {
            "astId": 4539,
            "contract": "contracts/facets/DonationsFacet.sol:DonationsFacet",
            "label": "defoTokenLimitPerRewards",
            "offset": 0,
            "slot": "59",
            "type": "t_struct(DEFOTokenLimitPerRewards)4453_storage"
          }
        ],
        "numberOfBytes": "1952"
      },
      "t_struct(Counter)2737_storage": {
        "encoding": "inplace",
        "label": "struct Counters.Counter",
        "members": [
          {
            "astId": 2736,
            "contract": "contracts/facets/DonationsFacet.sol:DonationsFacet",
            "label": "_value",
            "offset": 0,
            "slot": "0",
            "type": "t_uint256"
          }
        ],
        "numberOfBytes": "32"
      },
      "t_struct(DEFOTokenLimitPerRewards)4453_storage": {
        "encoding": "inplace",
        "label": "struct DEFOTokenLimitPerRewards",
        "members": [
          {
            "astId": 4448,
            "contract": "contracts/facets/DonationsFacet.sol:DonationsFacet",
            "label": "tokensSold",
            "offset": 0,
            "slot": "0",
            "type": "t_mapping(t_address,t_uint256)"
          },
          {
            "astId": 4452,
            "contract": "contracts/facets/DonationsFacet.sol:DonationsFacet",
            "label": "timeOfWindowStart",
            "offset": 0,
            "slot": "1",
            "type": "t_mapping(t_address,t_uint256)"
          }
        ],
        "numberOfBytes": "64"
      },
      "t_struct(DEFOTokenLimitWindow)4444_storage": {
        "encoding": "inplace",
        "label": "struct DEFOTokenLimitWindow",
        "members": [
          {
            "astId": 4439,
            "contract": "contracts/facets/DonationsFacet.sol:DonationsFacet",
            "label": "tokensSold",
            "offset": 0,
            "slot": "0",
            "type": "t_mapping(t_address,t_uint256)"
          },
          {
            "astId": 4443,
            "contract": "contracts/facets/DonationsFacet.sol:DonationsFacet",
            "label": "timeOfLastSale",
            "offset": 0,
            "slot": "1",
            "type": "t_mapping(t_address,t_uint256)"
          }
        ],
        "numberOfBytes": "64"
      },
      "t_struct(DefoTokenLimitConfig)4376_storage": {
        "encoding": "inplace",
        "label": "struct DefoTokenLimitConfig",
        "members": [
          {
            "astId": 4371,
            "contract": "contracts/facets/DonationsFacet.sol:DonationsFacet",
            "label": "saleLimitPeriod",
            "offset": 0,
            "slot": "0",
            "type": "t_uint256"
          },
          {
            "astId": 4373,
            "contract": "contracts/facets/DonationsFacet.sol:DonationsFacet",
            "label": "saleLimitAmount",
            "offset": 0,
            "slot": "1",
            "type": "t_uint256"
          },
          {
            "astId": 4375,
            "contract": "contracts/facets/DonationsFacet.sol:DonationsFacet",
            "label": "limitByReward",
            "offset": 0,
            "slot": "2",
            "type": "t_bool"
          }
        ],
        "numberOfBytes": "96"
      },
      "t_struct(ERC721Storage)4351_storage": {
        "encoding": "inplace",
        "label": "struct ERC721Storage",
        "members": [
          {
            "astId": 4306,
            "contract": "contracts/facets/DonationsFacet.sol:DonationsFacet",
            "label": "name",
            "offset": 0,
            "slot": "0",
            "type": "t_string_storage"
          },
          {
            "astId": 4308,
            "contract": "contracts/facets/DonationsFacet.sol:DonationsFacet",
            "label": "symbol",
            "offset": 0,
            "slot": "1",
            "type": "t_string_storage"
          },
          {
            "astId": 4311,
            "contract": "contracts/facets/DonationsFacet.sol:DonationsFacet",
            "label": "tokenIdTracker",
            "offset": 0,
            "slot": "2",
            "type": "t_struct(Counter)2737_storage"
          },
          {
            "astId": 4315,
            "contract": "contracts/facets/DonationsFacet.sol:DonationsFacet",
            "label": "owners",
            "offset": 0,
            "slot": "3",
            "type": "t_mapping(t_uint256,t_address)"
          },
          {
            "astId": 4319,
            "contract": "contracts/facets/DonationsFacet.sol:DonationsFacet",
            "label": "balances",
            "offset": 0,
            "slot": "4",
            "type": "t_mapping(t_address,t_uint256)"
          },
          {
            "astId": 4323,
            "contract": "contracts/facets/DonationsFacet.sol:DonationsFacet",
            "label": "tokenApprovals",
            "offset": 0,
            "slot": "5",
            "type": "t_mapping(t_uint256,t_address)"
          },
          {
            "astId": 4329,
            "contract": "contracts/facets/DonationsFacet.sol:DonationsFacet",
            "label": "operatorApprovals",
            "offset": 0,
            "slot": "6",
            "type": "t_mapping(t_address,t_mapping(t_address,t_bool))"
          },
          {
            "astId": 4331,
            "contract": "contracts/facets/DonationsFacet.sol:DonationsFacet",
            "label": "baseURI",
            "offset": 0,
            "slot": "7",
            "type": "t_string_storage"
          },
          {
            "astId": 4337,
            "contract": "contracts/facets/DonationsFacet.sol:DonationsFacet",
            "label": "ownedTokens",
            "offset": 0,
            "slot": "8",
            "type": "t_mapping(t_address,t_mapping(t_uint256,t_uint256))"
          },
          {
            "astId": 4341,
            "contract": "contracts/facets/DonationsFacet.sol:DonationsFacet",
            "label": "ownedTokensIndex",
            "offset": 0,
            "slot": "9",
            "type": "t_mapping(t_uint256,t_uint256)"
          },
          {
            "astId": 4344,
            "contract": "contracts/facets/DonationsFacet.sol:DonationsFacet",
            "label": "allTokens",
            "offset": 0,
            "slot": "10",
            "type": "t_array(t_uint256)dyn_storage"
          },
          {
            "astId": 4348,
            "contract": "contracts/facets/DonationsFacet.sol:DonationsFacet",
            "label": "allTokensIndex",
            "offset": 0,
            "slot": "11",
            "type": "t_mapping(t_uint256,t_uint256)"
          },
          {
            "astId": 4350,
            "contract": "contracts/facets/DonationsFacet.sol:DonationsFacet",
            "label": "init",
            "offset": 0,
            "slot": "12",
            "type": "t_bool"
          }
        ],
        "numberOfBytes": "416"
      },
      "t_struct(Fi)4478_storage": {
        "encoding": "inplace",
        "label": "struct Fi",
        "members": [
          {
            "astId": 4459,
            "contract": "contracts/facets/DonationsFacet.sol:DonationsFacet",
            "label": "claimedGross",
            "offset": 0,
            "slot": "0",
            "type": "t_uint256"
          },
          {
            "astId": 4461,
            "contract": "contracts/facets/DonationsFacet.sol:DonationsFacet",
            "label": "claimedNet",
            "offset": 0,
            "slot": "1",
            "type": "t_uint256"
          },
          {
            "astId": 4463,
            "contract": "contracts/facets/DonationsFacet.sol:DonationsFacet",
            "label": "stakedGross",
            "offset": 0,
            "slot": "2",
            "type": "t_uint256"
          },
          {
            "astId": 4465,
            "contract": "contracts/facets/DonationsFacet.sol:DonationsFacet",
            "label": "stakedNet",
            "offset": 0,
            "slot": "3",
            "type": "t_uint256"
          },
          {
            "astId": 4467,
            "contract": "contracts/facets/DonationsFacet.sol:DonationsFacet",
            "label": "unStakedGross",
            "offset": 0,
            "slot": "4",
            "type": "t_uint256"
          },
          {
            "astId": 4469,
            "contract": "contracts/facets/DonationsFacet.sol:DonationsFacet",
            "label": "unStakedGrossUp",
            "offset": 0,
            "slot": "5",
            "type": "t_uint256"
          },
          {
            "astId": 4471,
            "contract": "contracts/facets/DonationsFacet.sol:DonationsFacet",
            "label": "unStakedNet",
            "offset": 0,
            "slot": "6",
            "type": "t_uint256"
          },
          {
            "astId": 4473,
            "contract": "contracts/facets/DonationsFacet.sol:DonationsFacet",
            "label": "donated",
            "offset": 0,
            "slot": "7",
            "type": "t_uint256"
          },
          {
            "astId": 4475,
            "contract": "contracts/facets/DonationsFacet.sol:DonationsFacet",
            "label": "claimTaxPaid",
            "offset": 0,
            "slot": "8",
            "type": "t_uint256"
          },
          {
            "astId": 4477,
            "contract": "contracts/facets/DonationsFacet.sol:DonationsFacet",
            "label": "vaultTaxPaid",
            "offset": 0,
            "slot": "9",
            "type": "t_uint256"
          }
        ],
        "numberOfBytes": "320"
      },
      "t_struct(Gem)4497_storage": {
        "encoding": "inplace",
        "label": "struct Gem",
        "members": [
          {
            "astId": 4480,
            "contract": "contracts/facets/DonationsFacet.sol:DonationsFacet",
            "label": "gemTypeId",
            "offset": 0,
            "slot": "0",
            "type": "t_uint8"
          },
          {
            "astId": 4483,
            "contract": "contracts/facets/DonationsFacet.sol:DonationsFacet",
            "label": "booster",
            "offset": 1,
            "slot": "0",
            "type": "t_enum(Booster)4457"
          },
          {
            "astId": 4485,
            "contract": "contracts/facets/DonationsFacet.sol:DonationsFacet",
            "label": "mintTime",
            "offset": 2,
            "slot": "0",
            "type": "t_uint32"
          },
          {
            "astId": 4487,
            "contract": "contracts/facets/DonationsFacet.sol:DonationsFacet",
            "label": "lastRewardWithdrawalTime",
            "offset": 6,
            "slot": "0",
            "type": "t_uint32"
          },
          {
            "astId": 4489,
            "contract": "contracts/facets/DonationsFacet.sol:DonationsFacet",
            "label": "lastMaintenanceTime",
            "offset": 10,
            "slot": "0",
            "type": "t_uint32"
          },
          {
            "astId": 4492,
            "contract": "contracts/facets/DonationsFacet.sol:DonationsFacet",
            "label": "fi",
            "offset": 0,
            "slot": "1",
            "type": "t_struct(Fi)4478_storage"
          },
          {
            "astId": 4494,
            "contract": "contracts/facets/DonationsFacet.sol:DonationsFacet",
            "label": "presold",
            "offset": 0,
            "slot": "11",
            "type": "t_bool"
          },
          {
            "astId": 4496,
            "contract": "contracts/facets/DonationsFacet.sol:DonationsFacet",
            "label": "maintenanceFeePaid",
            "offset": 0,
            "slot": "12",
            "type": "t_uint256"
          }
        ],
        "numberOfBytes": "416"
      },
      "t_struct(GemTypeConfig)4430_storage": {
        "encoding": "inplace",
        "label": "struct GemTypeConfig",
        "members": [
          {
            "astId": 4419,
            "contract": "contracts/facets/DonationsFacet.sol:DonationsFacet",
            "label": "maintenanceFeeDai",
            "offset": 0,
            "slot": "0",
            "type": "t_uint256"
          },
          {
            "astId": 4421,
            "contract": "contracts/facets/DonationsFacet.sol:DonationsFacet",
            "label": "rewardAmountDefo",
            "offset": 0,
            "slot": "1",
            "type": "t_uint256"
          },
          {
            "astId": 4425,
            "contract": "contracts/facets/DonationsFacet.sol:DonationsFacet",
            "label": "price",
            "offset": 0,
            "slot": "2",
            "type": "t_array(t_uint256)2_storage"
          },
          {
            "astId": 4427,
            "contract": "contracts/facets/DonationsFacet.sol:DonationsFacet",
            "label": "taperRewardsThresholdDefo",
            "offset": 0,
            "slot": "4",
            "type": "t_uint256"
          },
          {
            "astId": 4429,
            "contract": "contracts/facets/DonationsFacet.sol:DonationsFacet",
            "label": "maxMintsPerLimitWindow",
            "offset": 0,
            "slot": "5",
            "type": "t_uint256"
          }
        ],
        "numberOfBytes": "192"
      },
      "t_struct(GemTypeMintWindow)4435_storage": {
        "encoding": "inplace",
        "label": "struct GemTypeMintWindow",
        "members": [
          {
            "astId": 4432,
            "contract": "contracts/facets/DonationsFacet.sol:DonationsFacet",
            "label": "mintCount",
            "offset": 0,
            "slot": "0",
            "type": "t_uint256"
          },
          {
            "astId": 4434,
            "contract": "contracts/facets/DonationsFacet.sol:DonationsFacet",
            "label": "endOfMintLimitWindow",
            "offset": 0,
            "slot": "1",
            "type": "t_uint32"
          }
        ],
        "numberOfBytes": "64"
      },
      "t_struct(ProtocolConfig)4417_storage": {
        "encoding": "inplace",
        "label": "struct ProtocolConfig",
        "members": [
          {
            "astId": 4381,
            "contract": "contracts/facets/DonationsFacet.sol:DonationsFacet",
            "label": "paymentTokens",
            "offset": 0,
            "slot": "0",
            "type": "t_array(t_contract(IERC20)737)2_storage"
          },
          {
            "astId": 4385,
            "contract": "contracts/facets/DonationsFacet.sol:DonationsFacet",
            "label": "wallets",
            "offset": 0,
            "slot": "2",
            "type": "t_array(t_address)8_storage"
          },
          {
            "astId": 4391,
            "contract": "contracts/facets/DonationsFacet.sol:DonationsFacet",
            "label": "incomeDistributionOnMint",
            "offset": 0,
            "slot": "10",
            "type": "t_array(t_array(t_uint256)3_storage)2_storage"
          },
          {
            "astId": 4393,
            "contract": "contracts/facets/DonationsFacet.sol:DonationsFacet",
            "label": "maintenancePeriod",
            "offset": 0,
            "slot": "16",
            "type": "t_uint32"
          },
          {
            "astId": 4395,
            "contract": "contracts/facets/DonationsFacet.sol:DonationsFacet",
            "label": "rewardPeriod",
            "offset": 4,
            "slot": "16",
            "type": "t_uint32"
          },
          {
            "astId": 4397,
            "contract": "contracts/facets/DonationsFacet.sol:DonationsFacet",
            "label": "taxScaleSinceLastClaimPeriod",
            "offset": 8,
            "slot": "16",
            "type": "t_uint32"
          },
          {
            "astId": 4401,
            "contract": "contracts/facets/DonationsFacet.sol:DonationsFacet",
            "label": "taxRates",
            "offset": 0,
            "slot": "17",
            "type": "t_array(t_uint256)5_storage"
          },
          {
            "astId": 4403,
            "contract": "contracts/facets/DonationsFacet.sol:DonationsFacet",
            "label": "charityContributionRate",
            "offset": 0,
            "slot": "22",
            "type": "t_uint256"
          },
          {
            "astId": 4405,
            "contract": "contracts/facets/DonationsFacet.sol:DonationsFacet",
            "label": "vaultWithdrawalTaxRate",
            "offset": 0,
            "slot": "23",
            "type": "t_uint256"
          },
          {
            "astId": 4407,
            "contract": "contracts/facets/DonationsFacet.sol:DonationsFacet",
            "label": "taperRate",
            "offset": 0,
            "slot": "24",
            "type": "t_uint256"
          },
          {
            "astId": 4409,
            "contract": "contracts/facets/DonationsFacet.sol:DonationsFacet",
            "label": "mintLock",
            "offset": 0,
            "slot": "25",
            "type": "t_bool"
          },
          {
            "astId": 4411,
            "contract": "contracts/facets/DonationsFacet.sol:DonationsFacet",
            "label": "transferLock",
            "offset": 1,
            "slot": "25",
            "type": "t_bool"
          },
          {
            "astId": 4413,
            "contract": "contracts/facets/DonationsFacet.sol:DonationsFacet",
            "label": "mintLimitWindow",
            "offset": 2,
            "slot": "25",
            "type": "t_uint32"
          },
          {
            "astId": 4416,
            "contract": "contracts/facets/DonationsFacet.sol:DonationsFacet",
            "label": "defoTokenLimitConfig",
            "offset": 0,
            "slot": "26",
            "type": "t_struct(DefoTokenLimitConfig)4376_storage"
          }
        ],
        "numberOfBytes": "928"
      },
      "t_uint256": {
        "encoding": "inplace",
        "label": "uint256",
        "numberOfBytes": "32"
      },
      "t_uint32": {
        "encoding": "inplace",
        "label": "uint32",
        "numberOfBytes": "4"
      },
      "t_uint8": {
        "encoding": "inplace",
        "label": "uint8",
        "numberOfBytes": "1"
      }
    }
  }
}