{
  "address": "0x9fBC670ccb399658D445b571Fe34874510B87353",
  "abi": [
    {
      "anonymous": false,
      "inputs": [
        {
          "indexed": true,
          "internalType": "address",
          "name": "user",
          "type": "address"
        },
        {
          "indexed": false,
          "internalType": "uint256",
          "name": "amountGross",
          "type": "uint256"
        },
        {
          "indexed": false,
          "internalType": "uint256",
          "name": "amountNet",
          "type": "uint256"
        }
      ],
      "name": "Claimed",
      "type": "event"
    },
    {
      "anonymous": false,
      "inputs": [
        {
          "indexed": true,
          "internalType": "address",
          "name": "user",
          "type": "address"
        },
        {
          "indexed": false,
          "internalType": "uint256",
          "name": "amountDai",
          "type": "uint256"
        }
      ],
      "name": "P2DaiClaimed",
      "type": "event"
    },
    {
      "anonymous": false,
      "inputs": [
        {
          "indexed": true,
          "internalType": "address",
          "name": "user",
          "type": "address"
        },
        {
          "indexed": false,
          "internalType": "uint256",
          "name": "amountDefo",
          "type": "uint256"
        }
      ],
      "name": "P2PutToVault",
      "type": "event"
    },
    {
      "anonymous": false,
      "inputs": [
        {
          "indexed": true,
          "internalType": "address",
          "name": "user",
          "type": "address"
        },
        {
          "indexed": false,
          "internalType": "uint256",
          "name": "amountGross",
          "type": "uint256"
        },
        {
          "indexed": false,
          "internalType": "uint256",
          "name": "amountNet",
          "type": "uint256"
        }
      ],
      "name": "Staked",
      "type": "event"
    },
    {
      "inputs": [
        {
          "internalType": "uint256[]",
          "name": "_tokenids",
          "type": "uint256[]"
        }
      ],
      "name": "batchClaimReward",
      "outputs": [],
      "stateMutability": "nonpayable",
      "type": "function"
    },
    {
      "inputs": [
        {
          "internalType": "uint256[]",
          "name": "_tokenIds",
          "type": "uint256[]"
        },
        {
          "internalType": "uint256",
          "name": "_percent",
          "type": "uint256"
        }
      ],
      "name": "batchStakeAndClaim",
      "outputs": [],
      "stateMutability": "nonpayable",
      "type": "function"
    },
    {
      "inputs": [
        {
          "internalType": "uint256[]",
          "name": "_tokenIds",
          "type": "uint256[]"
        },
        {
          "internalType": "uint256[]",
          "name": "_amounts",
          "type": "uint256[]"
        }
      ],
      "name": "batchStakeReward",
      "outputs": [],
      "stateMutability": "nonpayable",
      "type": "function"
    },
    {
      "inputs": [
        {
          "internalType": "uint256",
          "name": "_tokenId",
          "type": "uint256"
        }
      ],
      "name": "claimReward",
      "outputs": [],
      "stateMutability": "nonpayable",
      "type": "function"
    },
    {
      "inputs": [],
      "name": "getCumulatedReward",
      "outputs": [
        {
          "internalType": "uint256",
          "name": "",
          "type": "uint256"
        }
      ],
      "stateMutability": "view",
      "type": "function"
    },
    {
      "inputs": [],
      "name": "getCumulatedRewardAllUsers",
      "outputs": [
        {
          "internalType": "uint256",
          "name": "allForAllTotalReward_",
          "type": "uint256"
        }
      ],
      "stateMutability": "view",
      "type": "function"
    },
    {
      "inputs": [],
      "name": "getMyP2DaiValue",
      "outputs": [
        {
          "internalType": "uint256",
          "name": "",
          "type": "uint256"
        }
      ],
      "stateMutability": "view",
      "type": "function"
    },
    {
      "inputs": [],
      "name": "getMyP2RotValue",
      "outputs": [
        {
          "internalType": "uint256",
          "name": "",
          "type": "uint256"
        }
      ],
      "stateMutability": "view",
      "type": "function"
    },
    {
      "inputs": [
        {
          "internalType": "address",
          "name": "user",
          "type": "address"
        }
      ],
      "name": "getP2DaiValue",
      "outputs": [
        {
          "internalType": "uint256",
          "name": "",
          "type": "uint256"
        }
      ],
      "stateMutability": "view",
      "type": "function"
    },
    {
      "inputs": [
        {
          "internalType": "address",
          "name": "user",
          "type": "address"
        }
      ],
      "name": "getP2RotValue",
      "outputs": [
        {
          "internalType": "uint256",
          "name": "",
          "type": "uint256"
        }
      ],
      "stateMutability": "view",
      "type": "function"
    },
    {
      "inputs": [
        {
          "internalType": "uint256",
          "name": "_tokenId",
          "type": "uint256"
        }
      ],
      "name": "getRewardAmount",
      "outputs": [
        {
          "internalType": "uint256",
          "name": "",
          "type": "uint256"
        }
      ],
      "stateMutability": "view",
      "type": "function"
    },
    {
      "inputs": [],
      "name": "getStakedGross",
      "outputs": [
        {
          "internalType": "uint256",
          "name": "",
          "type": "uint256"
        }
      ],
      "stateMutability": "view",
      "type": "function"
    },
    {
      "inputs": [],
      "name": "getStakedGrossAllUsers",
      "outputs": [
        {
          "internalType": "uint256",
          "name": "",
          "type": "uint256"
        }
      ],
      "stateMutability": "view",
      "type": "function"
    },
    {
      "inputs": [
        {
          "internalType": "uint256",
          "name": "_tokenId",
          "type": "uint256"
        }
      ],
      "name": "getTaxTier",
      "outputs": [
        {
          "internalType": "enum TaxTiers",
          "name": "",
          "type": "uint8"
        }
      ],
      "stateMutability": "view",
      "type": "function"
    },
    {
      "inputs": [
        {
          "internalType": "uint256",
          "name": "_tokenId",
          "type": "uint256"
        }
      ],
      "name": "isClaimable",
      "outputs": [
        {
          "internalType": "bool",
          "name": "",
          "type": "bool"
        }
      ],
      "stateMutability": "view",
      "type": "function"
    },
    {
      "inputs": [],
      "name": "p2ClaimDai",
      "outputs": [],
      "stateMutability": "nonpayable",
      "type": "function"
    },
    {
      "inputs": [],
      "name": "p2PutIntoVault",
      "outputs": [],
      "stateMutability": "nonpayable",
      "type": "function"
    },
    {
      "inputs": [
        {
          "internalType": "uint256",
          "name": "_tokenId",
          "type": "uint256"
        },
        {
          "internalType": "uint256",
          "name": "_percent",
          "type": "uint256"
        }
      ],
      "name": "stakeAndClaim",
      "outputs": [],
      "stateMutability": "nonpayable",
      "type": "function"
    },
    {
      "inputs": [
        {
          "internalType": "uint256",
          "name": "_tokenId",
          "type": "uint256"
        },
        {
          "internalType": "uint256",
          "name": "_amount",
          "type": "uint256"
        }
      ],
      "name": "stakeReward",
      "outputs": [],
      "stateMutability": "nonpayable",
      "type": "function"
    }
  ],
  "transactionHash": "0x279b846c7a8b3c8b400bd516c8d2bf06a0e1531a6f3b04133bb41268c41f7df1",
  "args": [],
  "numDeployments": 18,
  "solcInputHash": "4e9b3fd84d667789370a98bb6979fa07",
  "bytecode": "0x608060405234801561001057600080fd5b506126c3806100206000396000f3fe608060405234801561001057600080fd5b50600436106101215760003560e01c806394c0734b116100ad578063be9dbb1511610071578063be9dbb151461022f578063c760da0414610237578063c84993af1461024a578063d8e1214f1461025d578063ea9e8a191461026557600080fd5b806394c0734b146101e6578063a4ff6c48146101ee578063ae169a5014610201578063b68a0ff614610214578063b816b65d1461021c57600080fd5b8063608eccc3116100f4578063608eccc314610182578063647e4f821461019557806364eff7651461019d57806383b4c865146101b057806389610a09146101c357600080fd5b806306547abd146101265780630a5626db1461014f5780633efbce8b146101655780634d0c509e1461016d575b600080fd5b610139610134366004612035565b61026d565b6040516101469190612064565b60405180910390f35b6101576102a7565b604051908152602001610146565b6101576102e0565b61018061017b3660046120d8565b6102fc565b005b610157610190366004612124565b61036a565b61018061051a565b6101576101ab366004612124565b6106eb565b6101806101be36600461214d565b61072a565b6101d66101d1366004612035565b6107ec565b6040519015158152602001610146565b61015761085d565b6101806101fc3660046121b9565b610874565b61018061020f366004612035565b61097b565b610157610a63565b61018061022a3660046121b9565b610ac5565b610157610d7f565b6101806102453660046121db565b610d95565b610157610258366004612035565b610df3565b610157610e6c565b610180610eda565b60008181526020805260408120546102a19061029690600160301b900463ffffffff1642612233565b63ffffffff166110d1565b92915050565b6000805b602b548110156102dc576102be81611166565b6102c89083612258565b9150806102d481612270565b9150506102ab565b5090565b6000806102eb611419565b90506102f6816106eb565b91505090565b604154156103255760405162461bcd60e51b815260040161031c90612289565b60405180910390fd5b60005b8281101561036457610352848483818110610345576103456122d2565b9050602002013583610874565b8061035c81612270565b915050610328565b50505050565b60008061037683611475565b905060008060005b83518110156104f85760008060200160008684815181106103a1576103a16122d2565b6020908102919091018101518252810191909152604001600090812054603d805460ff909216935090839081106103da576103da6122d2565b90600052602060002090600602016002016001600281106103fd576103fd6122d2565b01549050600080602001600088868151811061041b5761041b6122d2565b602090810291909101810151825281019190915260400160002054610100900460ff16905060028160028111156104545761045461204e565b036104815760646104668360736122e8565b6104709190612307565b61047a9087612258565b95506104b4565b60018160028111156104955761049561204e565b036104a757606461046683606e6122e8565b6104b18287612258565b95505b6104d68785815181106104c9576104c96122d2565b6020026020010151611166565b6104e09086612258565b945050505080806104f090612270565b91505061037e565b50808211610507576000610511565b6105118183612329565b95945050505050565b6000610524611419565b6001600160a01b0381166000908152603f60205260409020549091501561055d5760405162461bcd60e51b815260040161031c90612340565b6001600160a01b038116600090815260406020819052902054156105b95760405162461bcd60e51b81526020600482015260136024820152721493d508185b1c9958591e4818db185a5b5959606a1b604482015260640161031c565b6041546105d85760405162461bcd60e51b815260040161031c90612382565b60006105e2611419565b905060006105ef826106eb565b6001600160a01b0383166000908152604060208190528120829055909150808001546001600160a01b03169050806323b872dd60026003015460405160e083901b6001600160e01b03191681526001600160a01b0391821660048201529086166024820152604481018590526064016020604051808303816000875af115801561067d573d6000803e3d6000fd5b505050506040513d601f19601f820116820180604052508101906106a191906123cb565b50826001600160a01b03167f77a34a78548f8dbc27f31cb799d3aa3bbb0b7b042f58af370e959d2f0cb14b6b836040516106dd91815260200190565b60405180910390a250505050565b6000806106f78361036a565b604354909150610708576000610723565b6043546042546107199083906122e8565b6107239190612307565b9392505050565b82811461078e5760405162461bcd60e51b815260206004820152602c60248201527f4445464f526577617264733a5f746f6b656e644964732d5f616d6f756e74732d60448201526b1a5b98dbdb9cda5cdd195b9d60a21b606482015260840161031c565b60005b838110156107e5576107d38585838181106107ae576107ae6122d2565b905060200201358484848181106107c7576107c76122d2565b90506020020135610ac5565b806107dd81612270565b915050610791565b5050505050565b6041546000908103610855576000828152602080526040902054600f5461082b9163ffffffff600160301b90910481169164010000000090041661159a565b801561083d575061083b826115b8565b155b80156102a1575061084d82610df3565b151592915050565b506000919050565b60335460305460009161086f91612329565b905090565b8161087d611419565b6000828152602460205260409020546001600160a01b039081169116146108df5760405162461bcd60e51b8152602060048201526016602482015275596f7520646f6e2774206f776e20746869732067656d60501b604482015260640161031c565b826108e9816107ec565b6109255760405162461bcd60e51b815260206004820152600d60248201526c4e6f7420636c61696d61626c6560981b604482015260640161031c565b604154156109455760405162461bcd60e51b815260040161031c90612289565b600061095085610df3565b9050600061095e82866116ae565b905061096a8682610ac5565b6109738661097b565b505050505050565b80610984611419565b6000828152602460205260409020546001600160a01b039081169116146109e65760405162461bcd60e51b8152602060048201526016602482015275596f7520646f6e2774206f776e20746869732067656d60501b604482015260640161031c565b816109f0816107ec565b610a2c5760405162461bcd60e51b815260206004820152600d60248201526c4e6f7420636c61696d61626c6560981b604482015260640161031c565b60415415610a4c5760405162461bcd60e51b815260040161031c90612289565b610a5e83610a5985610df3565b6116d3565b505050565b600080610a6e611419565b90506000610a7b82611475565b90506000805b8251811015610abd57610a9f8382815181106104c9576104c96122d2565b610aa99083612258565b915080610ab581612270565b915050610a81565b509392505050565b81610ace611419565b6000828152602460205260409020546001600160a01b03908116911614610b305760405162461bcd60e51b8152602060048201526016602482015275596f7520646f6e2774206f776e20746869732067656d60501b604482015260640161031c565b82610b3a81611925565b6001546001600160a01b031660026000610b52611419565b9050610b5c611fe2565b60008711610bac5760405162461bcd60e51b815260206004820152601660248201527f5a65726f207265776172647320666f7220612067656d00000000000000000000604482015260640161031c565b6000610bb789610df3565b905080881115610bfe5760405162461bcd60e51b81526020600482015260126024820152714e6f7420656e6f756768207265776172647360701b604482015260640161031c565b601554610c0c9089906116ae565b60e0830181905260408301899052610c249089612329565b606083015260e0820151610c379061198c565b826001600160a01b03167f2a01595cddf097c90216094025db714da3f4e5bd8877b56ba86a24ecead8e5438360e00151604051610c7691815260200190565b60405180910390a26001600160a01b0385166323b872dd85600101546001600160a01b03168660050154606086015160405160e085901b6001600160e01b03191681526001600160a01b03938416600482015292909116602483015260448201526064016020604051808303816000875af1158015610cf9573d6000803e3d6000fd5b505050506040513d601f19601f82011682018060405250810190610d1d91906123cb565b506040808301516060840151825191825260208201526001600160a01b038516917f1449c6dd7851abc30abf37f57715f492010519147cc2652fbc38202c18a6ee90910160405180910390a2610d74828a85611b27565b505050505050505050565b600080610d8a611419565b90506102f68161036a565b60415415610db55760405162461bcd60e51b815260040161031c90612289565b60005b81811015610a5e57610de1838383818110610dd557610dd56122d2565b9050602002013561097b565b80610deb81612270565b915050610db8565b600081610dff81611925565b6000610e0a84611166565b6000858152602080526040902060070154909150610e289082612258565b6000858152602080526040902060010154909150610e469082612329565b6000858152602080526040902060030154909150610e649082612329565b949350505050565b6000603881610e79611419565b6001600160a01b03166001600160a01b031681526020019081526020016000206005015460006038016000610eac611419565b6001600160a01b03166001600160a01b031681526020019081526020016000206002015461086f9190612329565b6000610ee4611419565b6001600160a01b0381166000908152603f602052604090205490915015610f1d5760405162461bcd60e51b815260040161031c90612340565b6001600160a01b03811660009081526040602081905290205415610f795760405162461bcd60e51b81526020600482015260136024820152721493d508185b1c9958591e4818db185a5b5959606a1b604482015260640161031c565b604154610f985760405162461bcd60e51b815260040161031c90612382565b6001546001600160a01b031660026000610fb0611419565b90506000610fbd8261036a565b90506001600160a01b0384166323b872dd84600101546001600160a01b0316856005015460405160e084901b6001600160e01b03191681526001600160a01b03928316600482015291166024820152604481018490526064016020604051808303816000875af1158015611035573d6000803e3d6000fd5b505050506040513d601f19601f8201168201806040525081019061105991906123cb565b506001600160a01b0382166000908152603f6020526040812082905560448054839290611087908490612258565b90915550506040518181526001600160a01b038316907f9e116c9032491b16d6179deca17187c398c4783028ecdf3939775e3d61ce25dc9060200160405180910390a25050505050565b600f5460049060009068010000000000000000900463ffffffff166110f681846123ed565b63ffffffff1684101561110857600392505b6111138160036123ed565b63ffffffff1684101561112557600292505b6111308160026123ed565b63ffffffff1684101561114257600192505b61114d8160016123ed565b63ffffffff1684101561115f57600092505b5050919050565b6000818152602080805260408083208151610100808201909352815460ff808216835286959294928501929091041660028111156111a6576111a661204e565b60028111156111b7576111b761204e565b81526020016000820160029054906101000a900463ffffffff1663ffffffff1663ffffffff1681526020016000820160069054906101000a900463ffffffff1663ffffffff1663ffffffff16815260200160008201600a9054906101000a900463ffffffff1663ffffffff1663ffffffff16815260200160018201604051806101400160405290816000820154815260200160018201548152602001600282015481526020016003820154815260200160048201548152602001600582015481526020016006820154815260200160078201548152602001600882015481526020016009820154815250508152602001600b820160009054906101000a900460ff16151515158152602001600c820154815250509050600080603d01826000015160ff16815481106112eb576112eb6122d2565b90600052602060002090600602016040518060a0016040529081600082015481526020016001820154815260200160028201600280602002604051908101604052809291908260028015611354576020028201915b815481526020019060010190808311611340575b5050505050815260200160048201548152602001600582015481525050905060006113998260200151846020015160028111156113935761139361204e565b90611b70565b9050600080600060410154116113af57426113b3565b6041545b9050836040015163ffffffff168110156113d35750600095945050505050565b600061140e856040015163ffffffff16836113ee9190612329565b6060860151601754600f548790640100000000900463ffffffff16611bda565b979650505050505050565b600030330361146f57600080368080601f0160208091040260200160405190810160405280939291908181526020018383808284376000920191909152505050503601516001600160a01b031691506114729050565b50335b90565b6001600160a01b0381166000908152602560205260408120546060918167ffffffffffffffff8111156114aa576114aa612419565b6040519080825280602002602001820160405280156114d3578160200160208202803683370190505b50905060005b82811015610abd576001600160a01b0385166000908152602960209081526040808320848452909152902054611526816000908152602460205260409020546001600160a01b0316151590565b6115695760405162461bcd60e51b8152602060048201526014602482015273412067656d20646f65736e27742065786973747360601b604482015260640161031c565b8083838151811061157c5761157c6122d2565b6020908102919091010152508061159281612270565b9150506114d9565b6000428311806107235750816115b08442612329565b119392505050565b600081815260208052604081208054829190426a010000000000000000000090910463ffffffff16106115ef575060009392505050565b805460009061160a9062010000900463ffffffff1642612233565b600f84015490915063ffffffff9081169082161161162d57506000949350505050565b8154603d8401805460009261166f9260ff6101008304811693919216908110611658576116586122d2565b906000526020600020906006020160000154611d69565b8354600f86015491925060009161169c918491603e89019163ffffffff6201000090910481169116611db7565b905083600c01548161140e9190612329565b60008082116116be576000610723565b6116c96064806122e8565b61071983856122e8565b600082815260208052604090206001546001600160a01b03166002836117305760405162461bcd60e51b81526020600482015260126024820152714e6f20616d6f756e7420746f20636c61696d60701b604482015260640161031c565b611738611fe2565b84815260006117468761026d565b825190915061177a9060108360048111156117635761176361204e565b60058110611773576117736122d2565b01546116ae565b610100830152815160155461178f91906116ae565b60e0830181905261010083015183516117a89190612329565b6117b29190612329565b602083015260006117c1611419565b90506117d08360e0015161198c565b806001600160a01b03167f2a01595cddf097c90216094025db714da3f4e5bd8877b56ba86a24ecead8e5438460e0015160405161180f91815260200190565b60405180910390a26001600160a01b0385166323b872dd8560010154602086015160405160e084901b6001600160e01b03191681526001600160a01b039283166004820152918516602483015260448201526064016020604051808303816000875af1158015611883573d6000803e3d6000fd5b505050506040513d601f19601f820116820180604052508101906118a791906123cb565b50855469ffffffff0000000000001916600160301b4263ffffffff1602178655825160208085015160408051938452918301526001600160a01b038316917f987d620f307ff6b94d58743cb7a7509f24071586a77759b77c2d4e29f75a2f9a910160405180910390a261191b838983611b27565b5050505050505050565b6000818152602460205260409020546001600160a01b03166119895760405162461bcd60e51b815260206004820152601c60248201527f4552433732313a20746f6b656e4964206973206e6f742076616c696400000000604482015260640161031c565b50565b600080600101546001600160a01b031690506002816323b872dd826001015460405160e083901b6001600160e01b03191681526001600160a01b039091166004820152306024820152604481018690526064016020604051808303816000875af11580156119fe573d6000803e3d6000fd5b505050506040513d601f19601f82011682018060405250810190611a2291906123cb565b506040805160028082526060808301845292602083019080368337505060015482519293506001600160a01b031691839150600090611a6357611a636122d2565b6001600160a01b039283166020918202929092010152600054825191169082906001908110611a9457611a946122d2565b6001600160a01b039283166020918202929092010152603c546004808501546040516338ed173960e01b8152928416936338ed173993611ae0938a93600193899391169142910161242f565b6000604051808303816000875af1158015611aff573d6000803e3d6000fd5b505050506040513d6000823e601f3d908101601f191682016040526107e591908101906124a0565b60008281526020805260408120611b3f602e86611e9d565b611b4c8160010186611e9d565b6001600160a01b038316600090815260388301602052604090206107e59086611e9d565b60006002836002811115611b8657611b8661204e565b03611bab57612710611b9a83613a986122e8565b611ba49190612307565b90506102a1565b6001836002811115611bbf57611bbf61204e565b03611bd357612710611b9a836130d46122e8565b50806102a1565b600080611be685611fca565b905060008080805b819250606485606480611c0191906122e8565b611c0c9060646122e8565b611c169190612307565b611c209190612329565b6064611c2c8388612642565b83611c386064806122e8565b611c429190612642565b611c4d9060646122e8565b611c579190612307565b611c619190612329565b611c6b8a8d612307565b611c7591906122e8565b611c7f9190612307565b915080611c8b81612270565b91508b9050611c9a83896122e8565b1115611bee57611cab600282612329565b9050611cb787846122e8565b925060008315801590611cc95750838c115b15611d3f5781611cda6064806122e8565b611ce49190612642565b611cee8388612642565b611cf8908b6122e8565b611d029190612307565b90508088611d10868f612329565b611d1a9190612307565b611d2491906122e8565b611d2e838d6122e8565b611d389190612258565b9450611d59565b508780611d4c898e612307565b611d5691906122e8565b94505b50929a9950505050505050505050565b60006002836002811115611d7f57611d7f61204e565b03611d8f57611ba4600283612307565b6001836002811115611da357611da361204e565b03611bd357612710611b9a83611d4c6122e8565b6000808080611dc6858761264e565b90505b4263ffffffff168163ffffffff161015611e92575b865483108015611e1657508063ffffffff16878481548110611e0257611e026122d2565b906000526020600020906002020160000154105b15611e2d5782611e2581612270565b935050611dde565b82611e3781612676565b9350506000611e72888581548110611e5157611e516122d2565b9060005260206000209060020201600101548a6116ae90919063ffffffff16565b9050611e7e8184612258565b9250611e8a868361264e565b915050611dc9565b509695505050505050565b805182548390600090611eb1908490612258565b90915550506020810151600183018054600090611ecf908490612258565b90915550506040810151600283018054600090611eed908490612258565b90915550506060810151600383018054600090611f0b908490612258565b90915550506080810151600483018054600090611f29908490612258565b909155505060a0810151600583018054600090611f47908490612258565b909155505060c0810151600683018054600090611f65908490612258565b909155505060e0810151600783018054600090611f83908490612258565b9091555050610100810151600883018054600090611fa2908490612258565b9091555050610120810151600983018054600090611fc1908490612258565b90915550505050565b600081611fd86064806122e8565b6102a19190612329565b604051806101400160405280600081526020016000815260200160008152602001600081526020016000815260200160008152602001600081526020016000815260200160008152602001600081525090565b60006020828403121561204757600080fd5b5035919050565b634e487b7160e01b600052602160045260246000fd5b602081016005831061208657634e487b7160e01b600052602160045260246000fd5b91905290565b60008083601f84011261209e57600080fd5b50813567ffffffffffffffff8111156120b657600080fd5b6020830191508360208260051b85010111156120d157600080fd5b9250929050565b6000806000604084860312156120ed57600080fd5b833567ffffffffffffffff81111561210457600080fd5b6121108682870161208c565b909790965060209590950135949350505050565b60006020828403121561213657600080fd5b81356001600160a01b038116811461072357600080fd5b6000806000806040858703121561216357600080fd5b843567ffffffffffffffff8082111561217b57600080fd5b6121878883890161208c565b909650945060208701359150808211156121a057600080fd5b506121ad8782880161208c565b95989497509550505050565b600080604083850312156121cc57600080fd5b50508035926020909101359150565b600080602083850312156121ee57600080fd5b823567ffffffffffffffff81111561220557600080fd5b6122118582860161208c565b90969095509350505050565b634e487b7160e01b600052601160045260246000fd5b600063ffffffff838116908316818110156122505761225061221d565b039392505050565b6000821982111561226b5761226b61221d565b500190565b6000600182016122825761228261221d565b5060010190565b60208082526029908201527f5472616e736974696f6e20746f20506861736520322068617320616c726561646040820152681e481cdd185c9d195960ba1b606082015260800190565b634e487b7160e01b600052603260045260246000fd5b60008160001904831182151516156123025761230261221d565b500290565b60008261232457634e487b7160e01b600052601260045260246000fd5b500490565b60008282101561233b5761233b61221d565b500390565b60208082526022908201527f524f5420616c7265616479206465706f736974656420746f20746865207661756040820152611b1d60f21b606082015260800190565b60208082526029908201527f5472616e736974696f6e20746f205068617365203220686173206e6f74207374604082015268185c9d1959081e595d60ba1b606082015260800190565b6000602082840312156123dd57600080fd5b8151801515811461072357600080fd5b600063ffffffff808316818516818304811182151516156124105761241061221d565b02949350505050565b634e487b7160e01b600052604160045260246000fd5b600060a082018783526020878185015260a0604085015281875180845260c086019150828901935060005b8181101561247f5784516001600160a01b03168352938301939183019160010161245a565b50506001600160a01b03969096166060850152505050608001529392505050565b600060208083850312156124b357600080fd5b825167ffffffffffffffff808211156124cb57600080fd5b818501915085601f8301126124df57600080fd5b8151818111156124f1576124f1612419565b8060051b604051601f19603f8301168101818110858211171561251657612516612419565b60405291825284820192508381018501918883111561253457600080fd5b938501935b8285101561255257845184529385019392850192612539565b98975050505050505050565b600181815b8085111561259957816000190482111561257f5761257f61221d565b8085161561258c57918102915b93841c9390800290612563565b509250929050565b6000826125b0575060016102a1565b816125bd575060006102a1565b81600181146125d357600281146125dd576125f9565b60019150506102a1565b60ff8411156125ee576125ee61221d565b50506001821b6102a1565b5060208310610133831016604e8410600b841016171561261c575081810a6102a1565b612626838361255e565b806000190482111561263a5761263a61221d565b029392505050565b600061072383836125a1565b600063ffffffff80831681851680830382111561266d5761266d61221d565b01949350505050565b6000816126855761268561221d565b50600019019056fea264697066735822122043417d9679fadf288743d47104f50154fbd4792f1f0c99cf4da28969fad0c4b164736f6c634300080f0033",
  "devdoc": {
    "author": "Decentralized Foundation Team",
    "kind": "dev",
    "methods": {
      "getCumulatedReward()": {
        "returns": {
          "_0": "amount in DEFO (in wei precision)"
        }
      },
      "getCumulatedRewardAllUsers()": {
        "returns": {
          "allForAllTotalReward_": "amount in DEFO (in wei precision)"
        }
      },
      "getRewardAmount(uint256)": {
        "params": {
          "_tokenId": "unique NFT gem id"
        },
        "returns": {
          "_0": "pre-tax unclaimed reward in DEFO,- before deducting tax or charity, ready to be claimed or put to vault"
        }
      },
      "getStakedGross()": {
        "returns": {
          "_0": "total amount in DEFO (in wei precision)"
        }
      },
      "getStakedGrossAllUsers()": {
        "returns": {
          "_0": "total amount in DEFO (in wei precision)"
        }
      },
      "getTaxTier(uint256)": {
        "params": {
          "_tokenId": "unique NFT gem id"
        },
        "returns": {
          "_0": "current tax tier of the gem might be configurable, now it's a number in the range starting from 0 when 0 means nothing is payed out since there's no rewards in the first week, 4 is no tax, 1,2,3 - % in between (currently 30,30,15)"
        }
      },
      "isClaimable(uint256)": {
        "params": {
          "_tokenId": "unique NFT gem id"
        },
        "returns": {
          "_0": "true or false, checks for the pending maintenance and time passed since last claim"
        }
      },
      "stakeAndClaim(uint256,uint256)": {
        "params": {
          "_percent": "percent of what to put into the vault, as usual uses PRECISION_MULTIPLIER (which is 100 by defualt, e.g. 500 for 5%)",
          "_tokenId": "unique NFT gem id"
        }
      }
    },
    "title": "ERC721Facet EIP-2535 Diamond Facet",
    "version": 1
  },
  "userdoc": {
    "kind": "user",
    "methods": {
      "getCumulatedReward()": {
        "notice": "amount of pre-taxed total reward earned by the sender for all time"
      },
      "getCumulatedRewardAllUsers()": {
        "notice": "amount of pre-taxed total reward earned by all the users for all time"
      },
      "getRewardAmount(uint256)": {
        "notice": "reward earned by the sender to the moment ready to be claimed or put to vault"
      },
      "getStakedGross()": {
        "notice": "amount of pre-taxed reward that are currently in the vault for the sender, so if put and then taken from the vault, it's not the return of the function"
      },
      "getStakedGrossAllUsers()": {
        "notice": "amount of pre-taxed reward that are currently in the vault for all users, it's not equal to the after-tax amount in the vault"
      },
      "getTaxTier(uint256)": {
        "notice": "gets tax tier for a gem"
      },
      "isClaimable(uint256)": {
        "notice": "checks if rewards can be claimed or not"
      },
      "stakeAndClaim(uint256,uint256)": {
        "notice": "This is used for the Vault Strategy, it puts the percent of all rewards to the vault and claims the rest"
      },
      "stakeReward(uint256,uint256)": {
        "notice": "todo decide whether move this to the vault facet or not - (to keep all staking/unstaking in one place), or to leave it here (this is a facet working with rewards  which can be either claimed or staked)"
      }
    },
    "notice": "The Contract uses diamond storage providing functionality of ERC721, ERC721Enumerable, ERC721Burnable, ERC721Pausable",
    "version": 1
  },
  "storageLayout": {
    "storage": [
      {
        "astId": 4283,
        "contract": "contracts/facets/RewardsFacet.sol:RewardsFacet",
        "label": "s",
        "offset": 0,
        "slot": "0",
        "type": "t_struct(AppStorage)4570_storage"
      }
    ],
    "types": {
      "t_address": {
        "encoding": "inplace",
        "label": "address",
        "numberOfBytes": "20"
      },
      "t_array(t_address)7_storage": {
        "base": "t_address",
        "encoding": "inplace",
        "label": "address[7]",
        "numberOfBytes": "224"
      },
      "t_array(t_array(t_uint256)3_storage)2_storage": {
        "base": "t_array(t_uint256)3_storage",
        "encoding": "inplace",
        "label": "uint256[3][2]",
        "numberOfBytes": "192"
      },
      "t_array(t_contract(IERC20)737)2_storage": {
        "base": "t_contract(IERC20)737",
        "encoding": "inplace",
        "label": "contract IERC20[2]",
        "numberOfBytes": "64"
      },
      "t_array(t_struct(GemTypeConfig)4429_storage)dyn_storage": {
        "base": "t_struct(GemTypeConfig)4429_storage",
        "encoding": "dynamic_array",
        "label": "struct GemTypeConfig[]",
        "numberOfBytes": "32"
      },
      "t_array(t_struct(GemTypeMintWindow)4434_storage)dyn_storage": {
        "base": "t_struct(GemTypeMintWindow)4434_storage",
        "encoding": "dynamic_array",
        "label": "struct GemTypeMintWindow[]",
        "numberOfBytes": "32"
      },
      "t_array(t_struct(MaintenanceFeeReductionRecord)4501_storage)dyn_storage": {
        "base": "t_struct(MaintenanceFeeReductionRecord)4501_storage",
        "encoding": "dynamic_array",
        "label": "struct MaintenanceFeeReductionRecord[]",
        "numberOfBytes": "32"
      },
      "t_array(t_uint256)2_storage": {
        "base": "t_uint256",
        "encoding": "inplace",
        "label": "uint256[2]",
        "numberOfBytes": "64"
      },
      "t_array(t_uint256)3_storage": {
        "base": "t_uint256",
        "encoding": "inplace",
        "label": "uint256[3]",
        "numberOfBytes": "96"
      },
      "t_array(t_uint256)5_storage": {
        "base": "t_uint256",
        "encoding": "inplace",
        "label": "uint256[5]",
        "numberOfBytes": "160"
      },
      "t_array(t_uint256)dyn_storage": {
        "base": "t_uint256",
        "encoding": "dynamic_array",
        "label": "uint256[]",
        "numberOfBytes": "32"
      },
      "t_bool": {
        "encoding": "inplace",
        "label": "bool",
        "numberOfBytes": "1"
      },
      "t_contract(IERC20)737": {
        "encoding": "inplace",
        "label": "contract IERC20",
        "numberOfBytes": "20"
      },
      "t_enum(Booster)4456": {
        "encoding": "inplace",
        "label": "enum Booster",
        "numberOfBytes": "1"
      },
      "t_mapping(t_address,t_bool)": {
        "encoding": "mapping",
        "key": "t_address",
        "label": "mapping(address => bool)",
        "numberOfBytes": "32",
        "value": "t_bool"
      },
      "t_mapping(t_address,t_mapping(t_address,t_bool))": {
        "encoding": "mapping",
        "key": "t_address",
        "label": "mapping(address => mapping(address => bool))",
        "numberOfBytes": "32",
        "value": "t_mapping(t_address,t_bool)"
      },
      "t_mapping(t_address,t_mapping(t_uint256,t_uint256))": {
        "encoding": "mapping",
        "key": "t_address",
        "label": "mapping(address => mapping(uint256 => uint256))",
        "numberOfBytes": "32",
        "value": "t_mapping(t_uint256,t_uint256)"
      },
      "t_mapping(t_address,t_mapping(t_uint8,t_mapping(t_enum(Booster)4456,t_uint256)))": {
        "encoding": "mapping",
        "key": "t_address",
        "label": "mapping(address => mapping(uint8 => mapping(enum Booster => uint256)))",
        "numberOfBytes": "32",
        "value": "t_mapping(t_uint8,t_mapping(t_enum(Booster)4456,t_uint256))"
      },
      "t_mapping(t_address,t_struct(Fi)4477_storage)": {
        "encoding": "mapping",
        "key": "t_address",
        "label": "mapping(address => struct Fi)",
        "numberOfBytes": "32",
        "value": "t_struct(Fi)4477_storage"
      },
      "t_mapping(t_address,t_uint256)": {
        "encoding": "mapping",
        "key": "t_address",
        "label": "mapping(address => uint256)",
        "numberOfBytes": "32",
        "value": "t_uint256"
      },
      "t_mapping(t_enum(Booster)4456,t_uint256)": {
        "encoding": "mapping",
        "key": "t_enum(Booster)4456",
        "label": "mapping(enum Booster => uint256)",
        "numberOfBytes": "32",
        "value": "t_uint256"
      },
      "t_mapping(t_uint256,t_address)": {
        "encoding": "mapping",
        "key": "t_uint256",
        "label": "mapping(uint256 => address)",
        "numberOfBytes": "32",
        "value": "t_address"
      },
      "t_mapping(t_uint256,t_struct(Gem)4496_storage)": {
        "encoding": "mapping",
        "key": "t_uint256",
        "label": "mapping(uint256 => struct Gem)",
        "numberOfBytes": "32",
        "value": "t_struct(Gem)4496_storage"
      },
      "t_mapping(t_uint256,t_uint256)": {
        "encoding": "mapping",
        "key": "t_uint256",
        "label": "mapping(uint256 => uint256)",
        "numberOfBytes": "32",
        "value": "t_uint256"
      },
      "t_mapping(t_uint8,t_mapping(t_enum(Booster)4456,t_uint256))": {
        "encoding": "mapping",
        "key": "t_uint8",
        "label": "mapping(uint8 => mapping(enum Booster => uint256))",
        "numberOfBytes": "32",
        "value": "t_mapping(t_enum(Booster)4456,t_uint256)"
      },
      "t_string_storage": {
        "encoding": "bytes",
        "label": "string",
        "numberOfBytes": "32"
      },
      "t_struct(AppStorage)4570_storage": {
        "encoding": "inplace",
        "label": "struct AppStorage",
        "members": [
          {
            "astId": 4504,
            "contract": "contracts/facets/RewardsFacet.sol:RewardsFacet",
            "label": "config",
            "offset": 0,
            "slot": "0",
            "type": "t_struct(ProtocolConfig)4416_storage"
          },
          {
            "astId": 4508,
            "contract": "contracts/facets/RewardsFacet.sol:RewardsFacet",
            "label": "gemTypes",
            "offset": 0,
            "slot": "28",
            "type": "t_array(t_struct(GemTypeConfig)4429_storage)dyn_storage"
          },
          {
            "astId": 4512,
            "contract": "contracts/facets/RewardsFacet.sol:RewardsFacet",
            "label": "gemTypesMintWindows",
            "offset": 0,
            "slot": "29",
            "type": "t_array(t_struct(GemTypeMintWindow)4434_storage)dyn_storage"
          },
          {
            "astId": 4515,
            "contract": "contracts/facets/RewardsFacet.sol:RewardsFacet",
            "label": "defoTokenLimitWindow",
            "offset": 0,
            "slot": "30",
            "type": "t_struct(DEFOTokenLimitWindow)4443_storage"
          },
          {
            "astId": 4520,
            "contract": "contracts/facets/RewardsFacet.sol:RewardsFacet",
            "label": "gems",
            "offset": 0,
            "slot": "32",
            "type": "t_mapping(t_uint256,t_struct(Gem)4496_storage)"
          },
          {
            "astId": 4523,
            "contract": "contracts/facets/RewardsFacet.sol:RewardsFacet",
            "label": "nft",
            "offset": 0,
            "slot": "33",
            "type": "t_struct(ERC721Storage)4351_storage"
          },
          {
            "astId": 4526,
            "contract": "contracts/facets/RewardsFacet.sol:RewardsFacet",
            "label": "total",
            "offset": 0,
            "slot": "46",
            "type": "t_struct(Fi)4477_storage"
          },
          {
            "astId": 4531,
            "contract": "contracts/facets/RewardsFacet.sol:RewardsFacet",
            "label": "usersFi",
            "offset": 0,
            "slot": "56",
            "type": "t_mapping(t_address,t_struct(Fi)4477_storage)"
          },
          {
            "astId": 4540,
            "contract": "contracts/facets/RewardsFacet.sol:RewardsFacet",
            "label": "usersNextGemBooster",
            "offset": 0,
            "slot": "57",
            "type": "t_mapping(t_address,t_mapping(t_uint8,t_mapping(t_enum(Booster)4456,t_uint256)))"
          },
          {
            "astId": 4543,
            "contract": "contracts/facets/RewardsFacet.sol:RewardsFacet",
            "label": "defoTokenLimitPerRewards",
            "offset": 0,
            "slot": "58",
            "type": "t_struct(DEFOTokenLimitPerRewards)4452_storage"
          },
          {
            "astId": 4545,
            "contract": "contracts/facets/RewardsFacet.sol:RewardsFacet",
            "label": "routerWallet",
            "offset": 0,
            "slot": "60",
            "type": "t_address"
          },
          {
            "astId": 4549,
            "contract": "contracts/facets/RewardsFacet.sol:RewardsFacet",
            "label": "gemTypes2",
            "offset": 0,
            "slot": "61",
            "type": "t_array(t_struct(GemTypeConfig)4429_storage)dyn_storage"
          },
          {
            "astId": 4553,
            "contract": "contracts/facets/RewardsFacet.sol:RewardsFacet",
            "label": "maintenanceFeeReductionTable",
            "offset": 0,
            "slot": "62",
            "type": "t_array(t_struct(MaintenanceFeeReductionRecord)4501_storage)dyn_storage"
          },
          {
            "astId": 4557,
            "contract": "contracts/facets/RewardsFacet.sol:RewardsFacet",
            "label": "phase2DepositedToVault",
            "offset": 0,
            "slot": "63",
            "type": "t_mapping(t_address,t_uint256)"
          },
          {
            "astId": 4561,
            "contract": "contracts/facets/RewardsFacet.sol:RewardsFacet",
            "label": "phase2DaiReceived",
            "offset": 0,
            "slot": "64",
            "type": "t_mapping(t_address,t_uint256)"
          },
          {
            "astId": 4563,
            "contract": "contracts/facets/RewardsFacet.sol:RewardsFacet",
            "label": "p2CutOverTime",
            "offset": 0,
            "slot": "65",
            "type": "t_uint256"
          },
          {
            "astId": 4565,
            "contract": "contracts/facets/RewardsFacet.sol:RewardsFacet",
            "label": "daiToDistribute",
            "offset": 0,
            "slot": "66",
            "type": "t_uint256"
          },
          {
            "astId": 4567,
            "contract": "contracts/facets/RewardsFacet.sol:RewardsFacet",
            "label": "totalROT",
            "offset": 0,
            "slot": "67",
            "type": "t_uint256"
          },
          {
            "astId": 4569,
            "contract": "contracts/facets/RewardsFacet.sol:RewardsFacet",
            "label": "totalP2DepositedToVault",
            "offset": 0,
            "slot": "68",
            "type": "t_uint256"
          }
        ],
        "numberOfBytes": "2208"
      },
      "t_struct(Counter)2737_storage": {
        "encoding": "inplace",
        "label": "struct Counters.Counter",
        "members": [
          {
            "astId": 2736,
            "contract": "contracts/facets/RewardsFacet.sol:RewardsFacet",
            "label": "_value",
            "offset": 0,
            "slot": "0",
            "type": "t_uint256"
          }
        ],
        "numberOfBytes": "32"
      },
      "t_struct(DEFOTokenLimitPerRewards)4452_storage": {
        "encoding": "inplace",
        "label": "struct DEFOTokenLimitPerRewards",
        "members": [
          {
            "astId": 4447,
            "contract": "contracts/facets/RewardsFacet.sol:RewardsFacet",
            "label": "tokensSold",
            "offset": 0,
            "slot": "0",
            "type": "t_mapping(t_address,t_uint256)"
          },
          {
            "astId": 4451,
            "contract": "contracts/facets/RewardsFacet.sol:RewardsFacet",
            "label": "timeOfWindowStart",
            "offset": 0,
            "slot": "1",
            "type": "t_mapping(t_address,t_uint256)"
          }
        ],
        "numberOfBytes": "64"
      },
      "t_struct(DEFOTokenLimitWindow)4443_storage": {
        "encoding": "inplace",
        "label": "struct DEFOTokenLimitWindow",
        "members": [
          {
            "astId": 4438,
            "contract": "contracts/facets/RewardsFacet.sol:RewardsFacet",
            "label": "tokensSold",
            "offset": 0,
            "slot": "0",
            "type": "t_mapping(t_address,t_uint256)"
          },
          {
            "astId": 4442,
            "contract": "contracts/facets/RewardsFacet.sol:RewardsFacet",
            "label": "timeOfLastSale",
            "offset": 0,
            "slot": "1",
            "type": "t_mapping(t_address,t_uint256)"
          }
        ],
        "numberOfBytes": "64"
      },
      "t_struct(DefoTokenLimitConfig)4375_storage": {
        "encoding": "inplace",
        "label": "struct DefoTokenLimitConfig",
        "members": [
          {
            "astId": 4370,
            "contract": "contracts/facets/RewardsFacet.sol:RewardsFacet",
            "label": "saleLimitPeriod",
            "offset": 0,
            "slot": "0",
            "type": "t_uint256"
          },
          {
            "astId": 4372,
            "contract": "contracts/facets/RewardsFacet.sol:RewardsFacet",
            "label": "saleLimitAmount",
            "offset": 0,
            "slot": "1",
            "type": "t_uint256"
          },
          {
            "astId": 4374,
            "contract": "contracts/facets/RewardsFacet.sol:RewardsFacet",
            "label": "limitByReward",
            "offset": 0,
            "slot": "2",
            "type": "t_bool"
          }
        ],
        "numberOfBytes": "96"
      },
      "t_struct(ERC721Storage)4351_storage": {
        "encoding": "inplace",
        "label": "struct ERC721Storage",
        "members": [
          {
            "astId": 4306,
            "contract": "contracts/facets/RewardsFacet.sol:RewardsFacet",
            "label": "name",
            "offset": 0,
            "slot": "0",
            "type": "t_string_storage"
          },
          {
            "astId": 4308,
            "contract": "contracts/facets/RewardsFacet.sol:RewardsFacet",
            "label": "symbol",
            "offset": 0,
            "slot": "1",
            "type": "t_string_storage"
          },
          {
            "astId": 4311,
            "contract": "contracts/facets/RewardsFacet.sol:RewardsFacet",
            "label": "tokenIdTracker",
            "offset": 0,
            "slot": "2",
            "type": "t_struct(Counter)2737_storage"
          },
          {
            "astId": 4315,
            "contract": "contracts/facets/RewardsFacet.sol:RewardsFacet",
            "label": "owners",
            "offset": 0,
            "slot": "3",
            "type": "t_mapping(t_uint256,t_address)"
          },
          {
            "astId": 4319,
            "contract": "contracts/facets/RewardsFacet.sol:RewardsFacet",
            "label": "balances",
            "offset": 0,
            "slot": "4",
            "type": "t_mapping(t_address,t_uint256)"
          },
          {
            "astId": 4323,
            "contract": "contracts/facets/RewardsFacet.sol:RewardsFacet",
            "label": "tokenApprovals",
            "offset": 0,
            "slot": "5",
            "type": "t_mapping(t_uint256,t_address)"
          },
          {
            "astId": 4329,
            "contract": "contracts/facets/RewardsFacet.sol:RewardsFacet",
            "label": "operatorApprovals",
            "offset": 0,
            "slot": "6",
            "type": "t_mapping(t_address,t_mapping(t_address,t_bool))"
          },
          {
            "astId": 4331,
            "contract": "contracts/facets/RewardsFacet.sol:RewardsFacet",
            "label": "baseURI",
            "offset": 0,
            "slot": "7",
            "type": "t_string_storage"
          },
          {
            "astId": 4337,
            "contract": "contracts/facets/RewardsFacet.sol:RewardsFacet",
            "label": "ownedTokens",
            "offset": 0,
            "slot": "8",
            "type": "t_mapping(t_address,t_mapping(t_uint256,t_uint256))"
          },
          {
            "astId": 4341,
            "contract": "contracts/facets/RewardsFacet.sol:RewardsFacet",
            "label": "ownedTokensIndex",
            "offset": 0,
            "slot": "9",
            "type": "t_mapping(t_uint256,t_uint256)"
          },
          {
            "astId": 4344,
            "contract": "contracts/facets/RewardsFacet.sol:RewardsFacet",
            "label": "allTokens",
            "offset": 0,
            "slot": "10",
            "type": "t_array(t_uint256)dyn_storage"
          },
          {
            "astId": 4348,
            "contract": "contracts/facets/RewardsFacet.sol:RewardsFacet",
            "label": "allTokensIndex",
            "offset": 0,
            "slot": "11",
            "type": "t_mapping(t_uint256,t_uint256)"
          },
          {
            "astId": 4350,
            "contract": "contracts/facets/RewardsFacet.sol:RewardsFacet",
            "label": "init",
            "offset": 0,
            "slot": "12",
            "type": "t_bool"
          }
        ],
        "numberOfBytes": "416"
      },
      "t_struct(Fi)4477_storage": {
        "encoding": "inplace",
        "label": "struct Fi",
        "members": [
          {
            "astId": 4458,
            "contract": "contracts/facets/RewardsFacet.sol:RewardsFacet",
            "label": "claimedGross",
            "offset": 0,
            "slot": "0",
            "type": "t_uint256"
          },
          {
            "astId": 4460,
            "contract": "contracts/facets/RewardsFacet.sol:RewardsFacet",
            "label": "claimedNet",
            "offset": 0,
            "slot": "1",
            "type": "t_uint256"
          },
          {
            "astId": 4462,
            "contract": "contracts/facets/RewardsFacet.sol:RewardsFacet",
            "label": "stakedGross",
            "offset": 0,
            "slot": "2",
            "type": "t_uint256"
          },
          {
            "astId": 4464,
            "contract": "contracts/facets/RewardsFacet.sol:RewardsFacet",
            "label": "stakedNet",
            "offset": 0,
            "slot": "3",
            "type": "t_uint256"
          },
          {
            "astId": 4466,
            "contract": "contracts/facets/RewardsFacet.sol:RewardsFacet",
            "label": "unStakedGross",
            "offset": 0,
            "slot": "4",
            "type": "t_uint256"
          },
          {
            "astId": 4468,
            "contract": "contracts/facets/RewardsFacet.sol:RewardsFacet",
            "label": "unStakedGrossUp",
            "offset": 0,
            "slot": "5",
            "type": "t_uint256"
          },
          {
            "astId": 4470,
            "contract": "contracts/facets/RewardsFacet.sol:RewardsFacet",
            "label": "unStakedNet",
            "offset": 0,
            "slot": "6",
            "type": "t_uint256"
          },
          {
            "astId": 4472,
            "contract": "contracts/facets/RewardsFacet.sol:RewardsFacet",
            "label": "donated",
            "offset": 0,
            "slot": "7",
            "type": "t_uint256"
          },
          {
            "astId": 4474,
            "contract": "contracts/facets/RewardsFacet.sol:RewardsFacet",
            "label": "claimTaxPaid",
            "offset": 0,
            "slot": "8",
            "type": "t_uint256"
          },
          {
            "astId": 4476,
            "contract": "contracts/facets/RewardsFacet.sol:RewardsFacet",
            "label": "vaultTaxPaid",
            "offset": 0,
            "slot": "9",
            "type": "t_uint256"
          }
        ],
        "numberOfBytes": "320"
      },
      "t_struct(Gem)4496_storage": {
        "encoding": "inplace",
        "label": "struct Gem",
        "members": [
          {
            "astId": 4479,
            "contract": "contracts/facets/RewardsFacet.sol:RewardsFacet",
            "label": "gemTypeId",
            "offset": 0,
            "slot": "0",
            "type": "t_uint8"
          },
          {
            "astId": 4482,
            "contract": "contracts/facets/RewardsFacet.sol:RewardsFacet",
            "label": "booster",
            "offset": 1,
            "slot": "0",
            "type": "t_enum(Booster)4456"
          },
          {
            "astId": 4484,
            "contract": "contracts/facets/RewardsFacet.sol:RewardsFacet",
            "label": "mintTime",
            "offset": 2,
            "slot": "0",
            "type": "t_uint32"
          },
          {
            "astId": 4486,
            "contract": "contracts/facets/RewardsFacet.sol:RewardsFacet",
            "label": "lastRewardWithdrawalTime",
            "offset": 6,
            "slot": "0",
            "type": "t_uint32"
          },
          {
            "astId": 4488,
            "contract": "contracts/facets/RewardsFacet.sol:RewardsFacet",
            "label": "lastMaintenanceTime",
            "offset": 10,
            "slot": "0",
            "type": "t_uint32"
          },
          {
            "astId": 4491,
            "contract": "contracts/facets/RewardsFacet.sol:RewardsFacet",
            "label": "fi",
            "offset": 0,
            "slot": "1",
            "type": "t_struct(Fi)4477_storage"
          },
          {
            "astId": 4493,
            "contract": "contracts/facets/RewardsFacet.sol:RewardsFacet",
            "label": "presold",
            "offset": 0,
            "slot": "11",
            "type": "t_bool"
          },
          {
            "astId": 4495,
            "contract": "contracts/facets/RewardsFacet.sol:RewardsFacet",
            "label": "maintenanceFeePaid",
            "offset": 0,
            "slot": "12",
            "type": "t_uint256"
          }
        ],
        "numberOfBytes": "416"
      },
      "t_struct(GemTypeConfig)4429_storage": {
        "encoding": "inplace",
        "label": "struct GemTypeConfig",
        "members": [
          {
            "astId": 4418,
            "contract": "contracts/facets/RewardsFacet.sol:RewardsFacet",
            "label": "maintenanceFeeDai",
            "offset": 0,
            "slot": "0",
            "type": "t_uint256"
          },
          {
            "astId": 4420,
            "contract": "contracts/facets/RewardsFacet.sol:RewardsFacet",
            "label": "rewardAmountDefo",
            "offset": 0,
            "slot": "1",
            "type": "t_uint256"
          },
          {
            "astId": 4424,
            "contract": "contracts/facets/RewardsFacet.sol:RewardsFacet",
            "label": "price",
            "offset": 0,
            "slot": "2",
            "type": "t_array(t_uint256)2_storage"
          },
          {
            "astId": 4426,
            "contract": "contracts/facets/RewardsFacet.sol:RewardsFacet",
            "label": "taperRewardsThresholdDefo",
            "offset": 0,
            "slot": "4",
            "type": "t_uint256"
          },
          {
            "astId": 4428,
            "contract": "contracts/facets/RewardsFacet.sol:RewardsFacet",
            "label": "maxMintsPerLimitWindow",
            "offset": 0,
            "slot": "5",
            "type": "t_uint256"
          }
        ],
        "numberOfBytes": "192"
      },
      "t_struct(GemTypeMintWindow)4434_storage": {
        "encoding": "inplace",
        "label": "struct GemTypeMintWindow",
        "members": [
          {
            "astId": 4431,
            "contract": "contracts/facets/RewardsFacet.sol:RewardsFacet",
            "label": "mintCount",
            "offset": 0,
            "slot": "0",
            "type": "t_uint256"
          },
          {
            "astId": 4433,
            "contract": "contracts/facets/RewardsFacet.sol:RewardsFacet",
            "label": "endOfMintLimitWindow",
            "offset": 0,
            "slot": "1",
            "type": "t_uint32"
          }
        ],
        "numberOfBytes": "64"
      },
      "t_struct(MaintenanceFeeReductionRecord)4501_storage": {
        "encoding": "inplace",
        "label": "struct MaintenanceFeeReductionRecord",
        "members": [
          {
            "astId": 4498,
            "contract": "contracts/facets/RewardsFacet.sol:RewardsFacet",
            "label": "timeOfReduction",
            "offset": 0,
            "slot": "0",
            "type": "t_uint256"
          },
          {
            "astId": 4500,
            "contract": "contracts/facets/RewardsFacet.sol:RewardsFacet",
            "label": "maintenanceReductionPercent",
            "offset": 0,
            "slot": "1",
            "type": "t_uint256"
          }
        ],
        "numberOfBytes": "64"
      },
      "t_struct(ProtocolConfig)4416_storage": {
        "encoding": "inplace",
        "label": "struct ProtocolConfig",
        "members": [
          {
            "astId": 4380,
            "contract": "contracts/facets/RewardsFacet.sol:RewardsFacet",
            "label": "paymentTokens",
            "offset": 0,
            "slot": "0",
            "type": "t_array(t_contract(IERC20)737)2_storage"
          },
          {
            "astId": 4384,
            "contract": "contracts/facets/RewardsFacet.sol:RewardsFacet",
            "label": "wallets",
            "offset": 0,
            "slot": "2",
            "type": "t_array(t_address)7_storage"
          },
          {
            "astId": 4390,
            "contract": "contracts/facets/RewardsFacet.sol:RewardsFacet",
            "label": "incomeDistributionOnMint",
            "offset": 0,
            "slot": "9",
            "type": "t_array(t_array(t_uint256)3_storage)2_storage"
          },
          {
            "astId": 4392,
            "contract": "contracts/facets/RewardsFacet.sol:RewardsFacet",
            "label": "maintenancePeriod",
            "offset": 0,
            "slot": "15",
            "type": "t_uint32"
          },
          {
            "astId": 4394,
            "contract": "contracts/facets/RewardsFacet.sol:RewardsFacet",
            "label": "rewardPeriod",
            "offset": 4,
            "slot": "15",
            "type": "t_uint32"
          },
          {
            "astId": 4396,
            "contract": "contracts/facets/RewardsFacet.sol:RewardsFacet",
            "label": "taxScaleSinceLastClaimPeriod",
            "offset": 8,
            "slot": "15",
            "type": "t_uint32"
          },
          {
            "astId": 4400,
            "contract": "contracts/facets/RewardsFacet.sol:RewardsFacet",
            "label": "taxRates",
            "offset": 0,
            "slot": "16",
            "type": "t_array(t_uint256)5_storage"
          },
          {
            "astId": 4402,
            "contract": "contracts/facets/RewardsFacet.sol:RewardsFacet",
            "label": "charityContributionRate",
            "offset": 0,
            "slot": "21",
            "type": "t_uint256"
          },
          {
            "astId": 4404,
            "contract": "contracts/facets/RewardsFacet.sol:RewardsFacet",
            "label": "vaultWithdrawalTaxRate",
            "offset": 0,
            "slot": "22",
            "type": "t_uint256"
          },
          {
            "astId": 4406,
            "contract": "contracts/facets/RewardsFacet.sol:RewardsFacet",
            "label": "taperRate",
            "offset": 0,
            "slot": "23",
            "type": "t_uint256"
          },
          {
            "astId": 4408,
            "contract": "contracts/facets/RewardsFacet.sol:RewardsFacet",
            "label": "mintLock",
            "offset": 0,
            "slot": "24",
            "type": "t_bool"
          },
          {
            "astId": 4410,
            "contract": "contracts/facets/RewardsFacet.sol:RewardsFacet",
            "label": "transferLock",
            "offset": 1,
            "slot": "24",
            "type": "t_bool"
          },
          {
            "astId": 4412,
            "contract": "contracts/facets/RewardsFacet.sol:RewardsFacet",
            "label": "mintLimitWindow",
            "offset": 2,
            "slot": "24",
            "type": "t_uint32"
          },
          {
            "astId": 4415,
            "contract": "contracts/facets/RewardsFacet.sol:RewardsFacet",
            "label": "defoTokenLimitConfig",
            "offset": 0,
            "slot": "25",
            "type": "t_struct(DefoTokenLimitConfig)4375_storage"
          }
        ],
        "numberOfBytes": "896"
      },
      "t_uint256": {
        "encoding": "inplace",
        "label": "uint256",
        "numberOfBytes": "32"
      },
      "t_uint32": {
        "encoding": "inplace",
        "label": "uint32",
        "numberOfBytes": "4"
      },
      "t_uint8": {
        "encoding": "inplace",
        "label": "uint8",
        "numberOfBytes": "1"
      }
    }
  }
}