{
  "address": "0xE66df7CD2E76900902F2d40EA484139f9105C886",
  "abi": [
    {
      "inputs": [
        {
          "internalType": "address",
          "name": "from",
          "type": "address"
        },
        {
          "internalType": "address",
          "name": "to",
          "type": "address"
        },
        {
          "internalType": "uint256",
          "name": "amount",
          "type": "uint256"
        }
      ],
      "name": "DEFOTokenTransferLimit",
      "outputs": [],
      "stateMutability": "nonpayable",
      "type": "function"
    },
    {
      "inputs": [
        {
          "internalType": "address",
          "name": "from",
          "type": "address"
        },
        {
          "internalType": "address",
          "name": "to",
          "type": "address"
        },
        {
          "internalType": "uint256",
          "name": "tokenId",
          "type": "uint256"
        }
      ],
      "name": "yieldGemTransferLimit",
      "outputs": [],
      "stateMutability": "nonpayable",
      "type": "function"
    }
  ],
  "transactionHash": "0xc08456a7d5b1e30101156680a9020a275458950f87fd61b87de6bd45db7a1f02",
  "args": [],
  "numDeployments": 5,
  "solcInputHash": "3a4cd3c9fdd0f89f0007c4290696b172",
  "bytecode": "0x608060405234801561001057600080fd5b5061072b806100206000396000f3fe608060405234801561001057600080fd5b50600436106100365760003560e01c80637e5c923d1461003b578063cfc0443814610050575b600080fd5b61004e610049366004610646565b610063565b005b61004e61005e366004610646565b61011d565b6001600160a01b0383161580159061008357506001600160a01b03821615155b15610118576005546001600160a01b03838116911614806100b157506005546001600160a01b038481169116145b6101185760405162461bcd60e51b815260206004820152602d60248201527f4445464f204e6f64653a2069742773206e6f7420706f737369626c6520746f2060448201526c7472616e736665722067656d7360981b60648201526084015b60405180910390fd5b505050565b6007546001600160a01b03908116908316036101965760405162461bcd60e51b815260206004820152603260248201527f4445464f20546f6b656e3a206e6f7420706f737369626c6520746f2073656e6460448201527108191a5c9958dd1b1e481d1bc81d985d5b1d60721b606482015260840161010f565b6004546001600160a01b0390811690831603610118576019546001600160a01b0384166000908152601f602052604081205490916101d3916106ae565b601a546001600160a01b0386166000908152601e6020526040902054919250906101fe9084906106ae565b11158061020a57508042115b6102565760405162461bcd60e51b815260206004820152601860248201527f4445464f546f6b656e3a7472616e736665722d6c696d69740000000000000000604482015260640161010f565b8042111561027e576001600160a01b0384166000908152601e602052604090208290556102ac565b6001600160a01b0384166000908152601e6020526040812080548492906102a69084906106ae565b90915550505b6001600160a01b0384166000908152601f60205260409020429055601b5460ff16156104f75760006102dd856104fd565b905060008151116103305760405162461bcd60e51b815260206004820152601f60248201527f4445464f5472616e736665724c696d69743a6e6f2d67656d732d6f776e656400604482015260640161010f565b6000805b82518110156103c157600080602001600085848151811061035757610357610682565b602090810291909101810151825281019190915260400160002054601c805460ff9092169250908290811061038e5761038e610682565b906000526020600020906006020160010154836103ab91906106ae565b92505080806103b9906106c6565b915050610334565b506001600160a01b0386166000908152603b6020526040902054158061041b5750600f546001600160a01b0387166000908152603b602052604090205442916104199164010000000090910463ffffffff16906106ae565b105b1561044d576001600160a01b0386166000908152603a60209081526040808320879055603b909152902042905561047b565b6001600160a01b0386166000908152603a6020526040812080548692906104759084906106ae565b90915550505b6001600160a01b0386166000908152603a60205260409020548110156104f45760405162461bcd60e51b815260206004820152602860248201527f4445464f5472616e736665724c696d69743a746f74616c2d726577617264732d6044820152677065722d7765656b60c01b606482015260840161010f565b50505b50505050565b6001600160a01b0381166000908152602560205260408120546060918167ffffffffffffffff811115610532576105326106df565b60405190808252806020026020018201604052801561055b578160200160208202803683370190505b50905060005b82811015610622576001600160a01b03851660009081526029602090815260408083208484529091529020546105ae816000908152602460205260409020546001600160a01b0316151590565b6105f15760405162461bcd60e51b8152602060048201526014602482015273412067656d20646f65736e27742065786973747360601b604482015260640161010f565b8083838151811061060457610604610682565b6020908102919091010152508061061a816106c6565b915050610561565b509392505050565b80356001600160a01b038116811461064157600080fd5b919050565b60008060006060848603121561065b57600080fd5b6106648461062a565b92506106726020850161062a565b9150604084013590509250925092565b634e487b7160e01b600052603260045260246000fd5b634e487b7160e01b600052601160045260246000fd5b600082198211156106c1576106c1610698565b500190565b6000600182016106d8576106d8610698565b5060010190565b634e487b7160e01b600052604160045260246000fdfea26469706673582212206af105dee86bc4f2fb14164bdc18a106146f9ea94ce05f82eb984020b40ab08d64736f6c634300080f0033",
  "devdoc": {
    "author": "Decentralized Foundation Team",
    "kind": "dev",
    "methods": {},
    "title": "ERC721Facet EIP-2535 Diamond Facet",
    "version": 1
  },
  "userdoc": {
    "kind": "user",
    "methods": {
      "yieldGemTransferLimit(address,address,uint256)": {
        "notice": "todo refactor transfer limiting operations to this facet"
      }
    },
    "notice": "The Contract uses diamond storage providing functionality of ERC721, ERC721Enumerable, ERC721Burnable, ERC721Pausable",
    "version": 1
  },
  "storageLayout": {
    "storage": [
      {
        "astId": 4283,
        "contract": "contracts/facets/TransferLimitFacet.sol:TransferLimitFacet",
        "label": "s",
        "offset": 0,
        "slot": "0",
        "type": "t_struct(AppStorage)4537_storage"
      }
    ],
    "types": {
      "t_address": {
        "encoding": "inplace",
        "label": "address",
        "numberOfBytes": "20"
      },
      "t_array(t_address)7_storage": {
        "base": "t_address",
        "encoding": "inplace",
        "label": "address[7]",
        "numberOfBytes": "224"
      },
      "t_array(t_array(t_uint256)3_storage)2_storage": {
        "base": "t_array(t_uint256)3_storage",
        "encoding": "inplace",
        "label": "uint256[3][2]",
        "numberOfBytes": "192"
      },
      "t_array(t_contract(IERC20)737)2_storage": {
        "base": "t_contract(IERC20)737",
        "encoding": "inplace",
        "label": "contract IERC20[2]",
        "numberOfBytes": "64"
      },
      "t_array(t_struct(GemTypeConfig)4429_storage)dyn_storage": {
        "base": "t_struct(GemTypeConfig)4429_storage",
        "encoding": "dynamic_array",
        "label": "struct GemTypeConfig[]",
        "numberOfBytes": "32"
      },
      "t_array(t_struct(GemTypeMintWindow)4434_storage)dyn_storage": {
        "base": "t_struct(GemTypeMintWindow)4434_storage",
        "encoding": "dynamic_array",
        "label": "struct GemTypeMintWindow[]",
        "numberOfBytes": "32"
      },
      "t_array(t_uint256)2_storage": {
        "base": "t_uint256",
        "encoding": "inplace",
        "label": "uint256[2]",
        "numberOfBytes": "64"
      },
      "t_array(t_uint256)3_storage": {
        "base": "t_uint256",
        "encoding": "inplace",
        "label": "uint256[3]",
        "numberOfBytes": "96"
      },
      "t_array(t_uint256)5_storage": {
        "base": "t_uint256",
        "encoding": "inplace",
        "label": "uint256[5]",
        "numberOfBytes": "160"
      },
      "t_array(t_uint256)dyn_storage": {
        "base": "t_uint256",
        "encoding": "dynamic_array",
        "label": "uint256[]",
        "numberOfBytes": "32"
      },
      "t_bool": {
        "encoding": "inplace",
        "label": "bool",
        "numberOfBytes": "1"
      },
      "t_contract(IERC20)737": {
        "encoding": "inplace",
        "label": "contract IERC20",
        "numberOfBytes": "20"
      },
      "t_enum(Booster)4456": {
        "encoding": "inplace",
        "label": "enum Booster",
        "numberOfBytes": "1"
      },
      "t_mapping(t_address,t_bool)": {
        "encoding": "mapping",
        "key": "t_address",
        "label": "mapping(address => bool)",
        "numberOfBytes": "32",
        "value": "t_bool"
      },
      "t_mapping(t_address,t_mapping(t_address,t_bool))": {
        "encoding": "mapping",
        "key": "t_address",
        "label": "mapping(address => mapping(address => bool))",
        "numberOfBytes": "32",
        "value": "t_mapping(t_address,t_bool)"
      },
      "t_mapping(t_address,t_mapping(t_uint256,t_uint256))": {
        "encoding": "mapping",
        "key": "t_address",
        "label": "mapping(address => mapping(uint256 => uint256))",
        "numberOfBytes": "32",
        "value": "t_mapping(t_uint256,t_uint256)"
      },
      "t_mapping(t_address,t_mapping(t_uint8,t_mapping(t_enum(Booster)4456,t_uint256)))": {
        "encoding": "mapping",
        "key": "t_address",
        "label": "mapping(address => mapping(uint8 => mapping(enum Booster => uint256)))",
        "numberOfBytes": "32",
        "value": "t_mapping(t_uint8,t_mapping(t_enum(Booster)4456,t_uint256))"
      },
      "t_mapping(t_address,t_struct(Fi)4477_storage)": {
        "encoding": "mapping",
        "key": "t_address",
        "label": "mapping(address => struct Fi)",
        "numberOfBytes": "32",
        "value": "t_struct(Fi)4477_storage"
      },
      "t_mapping(t_address,t_uint256)": {
        "encoding": "mapping",
        "key": "t_address",
        "label": "mapping(address => uint256)",
        "numberOfBytes": "32",
        "value": "t_uint256"
      },
      "t_mapping(t_enum(Booster)4456,t_uint256)": {
        "encoding": "mapping",
        "key": "t_enum(Booster)4456",
        "label": "mapping(enum Booster => uint256)",
        "numberOfBytes": "32",
        "value": "t_uint256"
      },
      "t_mapping(t_uint256,t_address)": {
        "encoding": "mapping",
        "key": "t_uint256",
        "label": "mapping(uint256 => address)",
        "numberOfBytes": "32",
        "value": "t_address"
      },
      "t_mapping(t_uint256,t_struct(Gem)4494_storage)": {
        "encoding": "mapping",
        "key": "t_uint256",
        "label": "mapping(uint256 => struct Gem)",
        "numberOfBytes": "32",
        "value": "t_struct(Gem)4494_storage"
      },
      "t_mapping(t_uint256,t_uint256)": {
        "encoding": "mapping",
        "key": "t_uint256",
        "label": "mapping(uint256 => uint256)",
        "numberOfBytes": "32",
        "value": "t_uint256"
      },
      "t_mapping(t_uint8,t_mapping(t_enum(Booster)4456,t_uint256))": {
        "encoding": "mapping",
        "key": "t_uint8",
        "label": "mapping(uint8 => mapping(enum Booster => uint256))",
        "numberOfBytes": "32",
        "value": "t_mapping(t_enum(Booster)4456,t_uint256)"
      },
      "t_string_storage": {
        "encoding": "bytes",
        "label": "string",
        "numberOfBytes": "32"
      },
      "t_struct(AppStorage)4537_storage": {
        "encoding": "inplace",
        "label": "struct AppStorage",
        "members": [
          {
            "astId": 4497,
            "contract": "contracts/facets/TransferLimitFacet.sol:TransferLimitFacet",
            "label": "config",
            "offset": 0,
            "slot": "0",
            "type": "t_struct(ProtocolConfig)4416_storage"
          },
          {
            "astId": 4501,
            "contract": "contracts/facets/TransferLimitFacet.sol:TransferLimitFacet",
            "label": "gemTypes",
            "offset": 0,
            "slot": "28",
            "type": "t_array(t_struct(GemTypeConfig)4429_storage)dyn_storage"
          },
          {
            "astId": 4505,
            "contract": "contracts/facets/TransferLimitFacet.sol:TransferLimitFacet",
            "label": "gemTypesMintWindows",
            "offset": 0,
            "slot": "29",
            "type": "t_array(t_struct(GemTypeMintWindow)4434_storage)dyn_storage"
          },
          {
            "astId": 4508,
            "contract": "contracts/facets/TransferLimitFacet.sol:TransferLimitFacet",
            "label": "defoTokenLimitWindow",
            "offset": 0,
            "slot": "30",
            "type": "t_struct(DEFOTokenLimitWindow)4443_storage"
          },
          {
            "astId": 4513,
            "contract": "contracts/facets/TransferLimitFacet.sol:TransferLimitFacet",
            "label": "gems",
            "offset": 0,
            "slot": "32",
            "type": "t_mapping(t_uint256,t_struct(Gem)4494_storage)"
          },
          {
            "astId": 4516,
            "contract": "contracts/facets/TransferLimitFacet.sol:TransferLimitFacet",
            "label": "nft",
            "offset": 0,
            "slot": "33",
            "type": "t_struct(ERC721Storage)4351_storage"
          },
          {
            "astId": 4519,
            "contract": "contracts/facets/TransferLimitFacet.sol:TransferLimitFacet",
            "label": "total",
            "offset": 0,
            "slot": "46",
            "type": "t_struct(Fi)4477_storage"
          },
          {
            "astId": 4524,
            "contract": "contracts/facets/TransferLimitFacet.sol:TransferLimitFacet",
            "label": "usersFi",
            "offset": 0,
            "slot": "56",
            "type": "t_mapping(t_address,t_struct(Fi)4477_storage)"
          },
          {
            "astId": 4533,
            "contract": "contracts/facets/TransferLimitFacet.sol:TransferLimitFacet",
            "label": "usersNextGemBooster",
            "offset": 0,
            "slot": "57",
            "type": "t_mapping(t_address,t_mapping(t_uint8,t_mapping(t_enum(Booster)4456,t_uint256)))"
          },
          {
            "astId": 4536,
            "contract": "contracts/facets/TransferLimitFacet.sol:TransferLimitFacet",
            "label": "defoTokenLimitPerRewards",
            "offset": 0,
            "slot": "58",
            "type": "t_struct(DEFOTokenLimitPerRewards)4452_storage"
          }
        ],
        "numberOfBytes": "1920"
      },
      "t_struct(Counter)2737_storage": {
        "encoding": "inplace",
        "label": "struct Counters.Counter",
        "members": [
          {
            "astId": 2736,
            "contract": "contracts/facets/TransferLimitFacet.sol:TransferLimitFacet",
            "label": "_value",
            "offset": 0,
            "slot": "0",
            "type": "t_uint256"
          }
        ],
        "numberOfBytes": "32"
      },
      "t_struct(DEFOTokenLimitPerRewards)4452_storage": {
        "encoding": "inplace",
        "label": "struct DEFOTokenLimitPerRewards",
        "members": [
          {
            "astId": 4447,
            "contract": "contracts/facets/TransferLimitFacet.sol:TransferLimitFacet",
            "label": "tokensSold",
            "offset": 0,
            "slot": "0",
            "type": "t_mapping(t_address,t_uint256)"
          },
          {
            "astId": 4451,
            "contract": "contracts/facets/TransferLimitFacet.sol:TransferLimitFacet",
            "label": "timeOfWindowStart",
            "offset": 0,
            "slot": "1",
            "type": "t_mapping(t_address,t_uint256)"
          }
        ],
        "numberOfBytes": "64"
      },
      "t_struct(DEFOTokenLimitWindow)4443_storage": {
        "encoding": "inplace",
        "label": "struct DEFOTokenLimitWindow",
        "members": [
          {
            "astId": 4438,
            "contract": "contracts/facets/TransferLimitFacet.sol:TransferLimitFacet",
            "label": "tokensSold",
            "offset": 0,
            "slot": "0",
            "type": "t_mapping(t_address,t_uint256)"
          },
          {
            "astId": 4442,
            "contract": "contracts/facets/TransferLimitFacet.sol:TransferLimitFacet",
            "label": "timeOfLastSale",
            "offset": 0,
            "slot": "1",
            "type": "t_mapping(t_address,t_uint256)"
          }
        ],
        "numberOfBytes": "64"
      },
      "t_struct(DefoTokenLimitConfig)4375_storage": {
        "encoding": "inplace",
        "label": "struct DefoTokenLimitConfig",
        "members": [
          {
            "astId": 4370,
            "contract": "contracts/facets/TransferLimitFacet.sol:TransferLimitFacet",
            "label": "saleLimitPeriod",
            "offset": 0,
            "slot": "0",
            "type": "t_uint256"
          },
          {
            "astId": 4372,
            "contract": "contracts/facets/TransferLimitFacet.sol:TransferLimitFacet",
            "label": "saleLimitAmount",
            "offset": 0,
            "slot": "1",
            "type": "t_uint256"
          },
          {
            "astId": 4374,
            "contract": "contracts/facets/TransferLimitFacet.sol:TransferLimitFacet",
            "label": "limitByReward",
            "offset": 0,
            "slot": "2",
            "type": "t_bool"
          }
        ],
        "numberOfBytes": "96"
      },
      "t_struct(ERC721Storage)4351_storage": {
        "encoding": "inplace",
        "label": "struct ERC721Storage",
        "members": [
          {
            "astId": 4306,
            "contract": "contracts/facets/TransferLimitFacet.sol:TransferLimitFacet",
            "label": "name",
            "offset": 0,
            "slot": "0",
            "type": "t_string_storage"
          },
          {
            "astId": 4308,
            "contract": "contracts/facets/TransferLimitFacet.sol:TransferLimitFacet",
            "label": "symbol",
            "offset": 0,
            "slot": "1",
            "type": "t_string_storage"
          },
          {
            "astId": 4311,
            "contract": "contracts/facets/TransferLimitFacet.sol:TransferLimitFacet",
            "label": "tokenIdTracker",
            "offset": 0,
            "slot": "2",
            "type": "t_struct(Counter)2737_storage"
          },
          {
            "astId": 4315,
            "contract": "contracts/facets/TransferLimitFacet.sol:TransferLimitFacet",
            "label": "owners",
            "offset": 0,
            "slot": "3",
            "type": "t_mapping(t_uint256,t_address)"
          },
          {
            "astId": 4319,
            "contract": "contracts/facets/TransferLimitFacet.sol:TransferLimitFacet",
            "label": "balances",
            "offset": 0,
            "slot": "4",
            "type": "t_mapping(t_address,t_uint256)"
          },
          {
            "astId": 4323,
            "contract": "contracts/facets/TransferLimitFacet.sol:TransferLimitFacet",
            "label": "tokenApprovals",
            "offset": 0,
            "slot": "5",
            "type": "t_mapping(t_uint256,t_address)"
          },
          {
            "astId": 4329,
            "contract": "contracts/facets/TransferLimitFacet.sol:TransferLimitFacet",
            "label": "operatorApprovals",
            "offset": 0,
            "slot": "6",
            "type": "t_mapping(t_address,t_mapping(t_address,t_bool))"
          },
          {
            "astId": 4331,
            "contract": "contracts/facets/TransferLimitFacet.sol:TransferLimitFacet",
            "label": "baseURI",
            "offset": 0,
            "slot": "7",
            "type": "t_string_storage"
          },
          {
            "astId": 4337,
            "contract": "contracts/facets/TransferLimitFacet.sol:TransferLimitFacet",
            "label": "ownedTokens",
            "offset": 0,
            "slot": "8",
            "type": "t_mapping(t_address,t_mapping(t_uint256,t_uint256))"
          },
          {
            "astId": 4341,
            "contract": "contracts/facets/TransferLimitFacet.sol:TransferLimitFacet",
            "label": "ownedTokensIndex",
            "offset": 0,
            "slot": "9",
            "type": "t_mapping(t_uint256,t_uint256)"
          },
          {
            "astId": 4344,
            "contract": "contracts/facets/TransferLimitFacet.sol:TransferLimitFacet",
            "label": "allTokens",
            "offset": 0,
            "slot": "10",
            "type": "t_array(t_uint256)dyn_storage"
          },
          {
            "astId": 4348,
            "contract": "contracts/facets/TransferLimitFacet.sol:TransferLimitFacet",
            "label": "allTokensIndex",
            "offset": 0,
            "slot": "11",
            "type": "t_mapping(t_uint256,t_uint256)"
          },
          {
            "astId": 4350,
            "contract": "contracts/facets/TransferLimitFacet.sol:TransferLimitFacet",
            "label": "init",
            "offset": 0,
            "slot": "12",
            "type": "t_bool"
          }
        ],
        "numberOfBytes": "416"
      },
      "t_struct(Fi)4477_storage": {
        "encoding": "inplace",
        "label": "struct Fi",
        "members": [
          {
            "astId": 4458,
            "contract": "contracts/facets/TransferLimitFacet.sol:TransferLimitFacet",
            "label": "claimedGross",
            "offset": 0,
            "slot": "0",
            "type": "t_uint256"
          },
          {
            "astId": 4460,
            "contract": "contracts/facets/TransferLimitFacet.sol:TransferLimitFacet",
            "label": "claimedNet",
            "offset": 0,
            "slot": "1",
            "type": "t_uint256"
          },
          {
            "astId": 4462,
            "contract": "contracts/facets/TransferLimitFacet.sol:TransferLimitFacet",
            "label": "stakedGross",
            "offset": 0,
            "slot": "2",
            "type": "t_uint256"
          },
          {
            "astId": 4464,
            "contract": "contracts/facets/TransferLimitFacet.sol:TransferLimitFacet",
            "label": "stakedNet",
            "offset": 0,
            "slot": "3",
            "type": "t_uint256"
          },
          {
            "astId": 4466,
            "contract": "contracts/facets/TransferLimitFacet.sol:TransferLimitFacet",
            "label": "unStakedGross",
            "offset": 0,
            "slot": "4",
            "type": "t_uint256"
          },
          {
            "astId": 4468,
            "contract": "contracts/facets/TransferLimitFacet.sol:TransferLimitFacet",
            "label": "unStakedGrossUp",
            "offset": 0,
            "slot": "5",
            "type": "t_uint256"
          },
          {
            "astId": 4470,
            "contract": "contracts/facets/TransferLimitFacet.sol:TransferLimitFacet",
            "label": "unStakedNet",
            "offset": 0,
            "slot": "6",
            "type": "t_uint256"
          },
          {
            "astId": 4472,
            "contract": "contracts/facets/TransferLimitFacet.sol:TransferLimitFacet",
            "label": "donated",
            "offset": 0,
            "slot": "7",
            "type": "t_uint256"
          },
          {
            "astId": 4474,
            "contract": "contracts/facets/TransferLimitFacet.sol:TransferLimitFacet",
            "label": "claimTaxPaid",
            "offset": 0,
            "slot": "8",
            "type": "t_uint256"
          },
          {
            "astId": 4476,
            "contract": "contracts/facets/TransferLimitFacet.sol:TransferLimitFacet",
            "label": "vaultTaxPaid",
            "offset": 0,
            "slot": "9",
            "type": "t_uint256"
          }
        ],
        "numberOfBytes": "320"
      },
      "t_struct(Gem)4494_storage": {
        "encoding": "inplace",
        "label": "struct Gem",
        "members": [
          {
            "astId": 4479,
            "contract": "contracts/facets/TransferLimitFacet.sol:TransferLimitFacet",
            "label": "gemTypeId",
            "offset": 0,
            "slot": "0",
            "type": "t_uint8"
          },
          {
            "astId": 4482,
            "contract": "contracts/facets/TransferLimitFacet.sol:TransferLimitFacet",
            "label": "booster",
            "offset": 1,
            "slot": "0",
            "type": "t_enum(Booster)4456"
          },
          {
            "astId": 4484,
            "contract": "contracts/facets/TransferLimitFacet.sol:TransferLimitFacet",
            "label": "mintTime",
            "offset": 2,
            "slot": "0",
            "type": "t_uint32"
          },
          {
            "astId": 4486,
            "contract": "contracts/facets/TransferLimitFacet.sol:TransferLimitFacet",
            "label": "lastRewardWithdrawalTime",
            "offset": 6,
            "slot": "0",
            "type": "t_uint32"
          },
          {
            "astId": 4488,
            "contract": "contracts/facets/TransferLimitFacet.sol:TransferLimitFacet",
            "label": "lastMaintenanceTime",
            "offset": 10,
            "slot": "0",
            "type": "t_uint32"
          },
          {
            "astId": 4491,
            "contract": "contracts/facets/TransferLimitFacet.sol:TransferLimitFacet",
            "label": "fi",
            "offset": 0,
            "slot": "1",
            "type": "t_struct(Fi)4477_storage"
          },
          {
            "astId": 4493,
            "contract": "contracts/facets/TransferLimitFacet.sol:TransferLimitFacet",
            "label": "presold",
            "offset": 0,
            "slot": "11",
            "type": "t_bool"
          }
        ],
        "numberOfBytes": "384"
      },
      "t_struct(GemTypeConfig)4429_storage": {
        "encoding": "inplace",
        "label": "struct GemTypeConfig",
        "members": [
          {
            "astId": 4418,
            "contract": "contracts/facets/TransferLimitFacet.sol:TransferLimitFacet",
            "label": "maintenanceFeeDai",
            "offset": 0,
            "slot": "0",
            "type": "t_uint256"
          },
          {
            "astId": 4420,
            "contract": "contracts/facets/TransferLimitFacet.sol:TransferLimitFacet",
            "label": "rewardAmountDefo",
            "offset": 0,
            "slot": "1",
            "type": "t_uint256"
          },
          {
            "astId": 4424,
            "contract": "contracts/facets/TransferLimitFacet.sol:TransferLimitFacet",
            "label": "price",
            "offset": 0,
            "slot": "2",
            "type": "t_array(t_uint256)2_storage"
          },
          {
            "astId": 4426,
            "contract": "contracts/facets/TransferLimitFacet.sol:TransferLimitFacet",
            "label": "taperRewardsThresholdDefo",
            "offset": 0,
            "slot": "4",
            "type": "t_uint256"
          },
          {
            "astId": 4428,
            "contract": "contracts/facets/TransferLimitFacet.sol:TransferLimitFacet",
            "label": "maxMintsPerLimitWindow",
            "offset": 0,
            "slot": "5",
            "type": "t_uint256"
          }
        ],
        "numberOfBytes": "192"
      },
      "t_struct(GemTypeMintWindow)4434_storage": {
        "encoding": "inplace",
        "label": "struct GemTypeMintWindow",
        "members": [
          {
            "astId": 4431,
            "contract": "contracts/facets/TransferLimitFacet.sol:TransferLimitFacet",
            "label": "mintCount",
            "offset": 0,
            "slot": "0",
            "type": "t_uint256"
          },
          {
            "astId": 4433,
            "contract": "contracts/facets/TransferLimitFacet.sol:TransferLimitFacet",
            "label": "endOfMintLimitWindow",
            "offset": 0,
            "slot": "1",
            "type": "t_uint32"
          }
        ],
        "numberOfBytes": "64"
      },
      "t_struct(ProtocolConfig)4416_storage": {
        "encoding": "inplace",
        "label": "struct ProtocolConfig",
        "members": [
          {
            "astId": 4380,
            "contract": "contracts/facets/TransferLimitFacet.sol:TransferLimitFacet",
            "label": "paymentTokens",
            "offset": 0,
            "slot": "0",
            "type": "t_array(t_contract(IERC20)737)2_storage"
          },
          {
            "astId": 4384,
            "contract": "contracts/facets/TransferLimitFacet.sol:TransferLimitFacet",
            "label": "wallets",
            "offset": 0,
            "slot": "2",
            "type": "t_array(t_address)7_storage"
          },
          {
            "astId": 4390,
            "contract": "contracts/facets/TransferLimitFacet.sol:TransferLimitFacet",
            "label": "incomeDistributionOnMint",
            "offset": 0,
            "slot": "9",
            "type": "t_array(t_array(t_uint256)3_storage)2_storage"
          },
          {
            "astId": 4392,
            "contract": "contracts/facets/TransferLimitFacet.sol:TransferLimitFacet",
            "label": "maintenancePeriod",
            "offset": 0,
            "slot": "15",
            "type": "t_uint32"
          },
          {
            "astId": 4394,
            "contract": "contracts/facets/TransferLimitFacet.sol:TransferLimitFacet",
            "label": "rewardPeriod",
            "offset": 4,
            "slot": "15",
            "type": "t_uint32"
          },
          {
            "astId": 4396,
            "contract": "contracts/facets/TransferLimitFacet.sol:TransferLimitFacet",
            "label": "taxScaleSinceLastClaimPeriod",
            "offset": 8,
            "slot": "15",
            "type": "t_uint32"
          },
          {
            "astId": 4400,
            "contract": "contracts/facets/TransferLimitFacet.sol:TransferLimitFacet",
            "label": "taxRates",
            "offset": 0,
            "slot": "16",
            "type": "t_array(t_uint256)5_storage"
          },
          {
            "astId": 4402,
            "contract": "contracts/facets/TransferLimitFacet.sol:TransferLimitFacet",
            "label": "charityContributionRate",
            "offset": 0,
            "slot": "21",
            "type": "t_uint256"
          },
          {
            "astId": 4404,
            "contract": "contracts/facets/TransferLimitFacet.sol:TransferLimitFacet",
            "label": "vaultWithdrawalTaxRate",
            "offset": 0,
            "slot": "22",
            "type": "t_uint256"
          },
          {
            "astId": 4406,
            "contract": "contracts/facets/TransferLimitFacet.sol:TransferLimitFacet",
            "label": "taperRate",
            "offset": 0,
            "slot": "23",
            "type": "t_uint256"
          },
          {
            "astId": 4408,
            "contract": "contracts/facets/TransferLimitFacet.sol:TransferLimitFacet",
            "label": "mintLock",
            "offset": 0,
            "slot": "24",
            "type": "t_bool"
          },
          {
            "astId": 4410,
            "contract": "contracts/facets/TransferLimitFacet.sol:TransferLimitFacet",
            "label": "transferLock",
            "offset": 1,
            "slot": "24",
            "type": "t_bool"
          },
          {
            "astId": 4412,
            "contract": "contracts/facets/TransferLimitFacet.sol:TransferLimitFacet",
            "label": "mintLimitWindow",
            "offset": 2,
            "slot": "24",
            "type": "t_uint32"
          },
          {
            "astId": 4415,
            "contract": "contracts/facets/TransferLimitFacet.sol:TransferLimitFacet",
            "label": "defoTokenLimitConfig",
            "offset": 0,
            "slot": "25",
            "type": "t_struct(DefoTokenLimitConfig)4375_storage"
          }
        ],
        "numberOfBytes": "896"
      },
      "t_uint256": {
        "encoding": "inplace",
        "label": "uint256",
        "numberOfBytes": "32"
      },
      "t_uint32": {
        "encoding": "inplace",
        "label": "uint32",
        "numberOfBytes": "4"
      },
      "t_uint8": {
        "encoding": "inplace",
        "label": "uint8",
        "numberOfBytes": "1"
      }
    }
  }
}