{
  "address": "0xF989f1dbe2eA75E8788A2C61E4401Cd3dfb14385",
  "abi": [
    {
      "anonymous": false,
      "inputs": [
        {
          "indexed": true,
          "internalType": "address",
          "name": "owner",
          "type": "address"
        },
        {
          "indexed": true,
          "internalType": "address",
          "name": "approved",
          "type": "address"
        },
        {
          "indexed": true,
          "internalType": "uint256",
          "name": "tokenId",
          "type": "uint256"
        }
      ],
      "name": "Approval",
      "type": "event"
    },
    {
      "anonymous": false,
      "inputs": [
        {
          "indexed": true,
          "internalType": "address",
          "name": "owner",
          "type": "address"
        },
        {
          "indexed": true,
          "internalType": "address",
          "name": "operator",
          "type": "address"
        },
        {
          "indexed": false,
          "internalType": "bool",
          "name": "approved",
          "type": "bool"
        }
      ],
      "name": "ApprovalForAll",
      "type": "event"
    },
    {
      "anonymous": false,
      "inputs": [
        {
          "indexed": true,
          "internalType": "address",
          "name": "from",
          "type": "address"
        },
        {
          "indexed": true,
          "internalType": "address",
          "name": "to",
          "type": "address"
        },
        {
          "indexed": true,
          "internalType": "uint256",
          "name": "tokenId",
          "type": "uint256"
        }
      ],
      "name": "Transfer",
      "type": "event"
    },
    {
      "inputs": [
        {
          "internalType": "address",
          "name": "_to",
          "type": "address"
        },
        {
          "internalType": "uint256",
          "name": "_tokenId",
          "type": "uint256"
        }
      ],
      "name": "approve",
      "outputs": [],
      "stateMutability": "nonpayable",
      "type": "function"
    },
    {
      "inputs": [
        {
          "internalType": "address",
          "name": "_owner",
          "type": "address"
        }
      ],
      "name": "balanceOf",
      "outputs": [
        {
          "internalType": "uint256",
          "name": "balance",
          "type": "uint256"
        }
      ],
      "stateMutability": "view",
      "type": "function"
    },
    {
      "inputs": [
        {
          "internalType": "uint256[]",
          "name": "_tokenids",
          "type": "uint256[]"
        }
      ],
      "name": "batchtransferToStabilizer",
      "outputs": [],
      "stateMutability": "nonpayable",
      "type": "function"
    },
    {
      "inputs": [
        {
          "internalType": "uint256",
          "name": "tokenId",
          "type": "uint256"
        }
      ],
      "name": "burn",
      "outputs": [],
      "stateMutability": "nonpayable",
      "type": "function"
    },
    {
      "inputs": [
        {
          "internalType": "address",
          "name": "_to",
          "type": "address"
        },
        {
          "internalType": "uint8",
          "name": "_gemType",
          "type": "uint8"
        },
        {
          "internalType": "enum Booster",
          "name": "_booster",
          "type": "uint8"
        }
      ],
      "name": "createBooster",
      "outputs": [],
      "stateMutability": "nonpayable",
      "type": "function"
    },
    {
      "inputs": [
        {
          "internalType": "uint256",
          "name": "_tokenId",
          "type": "uint256"
        }
      ],
      "name": "getApproved",
      "outputs": [
        {
          "internalType": "address",
          "name": "operator",
          "type": "address"
        }
      ],
      "stateMutability": "view",
      "type": "function"
    },
    {
      "inputs": [
        {
          "internalType": "address",
          "name": "_to",
          "type": "address"
        },
        {
          "internalType": "uint8",
          "name": "_gemType",
          "type": "uint8"
        },
        {
          "internalType": "enum Booster",
          "name": "_booster",
          "type": "uint8"
        }
      ],
      "name": "getBooster",
      "outputs": [
        {
          "internalType": "uint256",
          "name": "",
          "type": "uint256"
        }
      ],
      "stateMutability": "view",
      "type": "function"
    },
    {
      "inputs": [],
      "name": "getGemIds",
      "outputs": [
        {
          "internalType": "uint256[]",
          "name": "",
          "type": "uint256[]"
        }
      ],
      "stateMutability": "view",
      "type": "function"
    },
    {
      "inputs": [
        {
          "internalType": "address",
          "name": "_user",
          "type": "address"
        }
      ],
      "name": "getGemIdsOf",
      "outputs": [
        {
          "internalType": "uint256[]",
          "name": "",
          "type": "uint256[]"
        }
      ],
      "stateMutability": "view",
      "type": "function"
    },
    {
      "inputs": [
        {
          "internalType": "uint256",
          "name": "_tokenId",
          "type": "uint256"
        }
      ],
      "name": "getGemInfo",
      "outputs": [
        {
          "components": [
            {
              "internalType": "uint8",
              "name": "gemTypeId",
              "type": "uint8"
            },
            {
              "internalType": "enum Booster",
              "name": "booster",
              "type": "uint8"
            },
            {
              "internalType": "uint32",
              "name": "mintTime",
              "type": "uint32"
            },
            {
              "internalType": "uint32",
              "name": "lastRewardWithdrawalTime",
              "type": "uint32"
            },
            {
              "internalType": "uint32",
              "name": "lastMaintenanceTime",
              "type": "uint32"
            },
            {
              "components": [
                {
                  "internalType": "uint256",
                  "name": "claimedGross",
                  "type": "uint256"
                },
                {
                  "internalType": "uint256",
                  "name": "claimedNet",
                  "type": "uint256"
                },
                {
                  "internalType": "uint256",
                  "name": "stakedGross",
                  "type": "uint256"
                },
                {
                  "internalType": "uint256",
                  "name": "stakedNet",
                  "type": "uint256"
                },
                {
                  "internalType": "uint256",
                  "name": "unStakedGross",
                  "type": "uint256"
                },
                {
                  "internalType": "uint256",
                  "name": "unStakedGrossUp",
                  "type": "uint256"
                },
                {
                  "internalType": "uint256",
                  "name": "unStakedNet",
                  "type": "uint256"
                },
                {
                  "internalType": "uint256",
                  "name": "donated",
                  "type": "uint256"
                },
                {
                  "internalType": "uint256",
                  "name": "claimTaxPaid",
                  "type": "uint256"
                },
                {
                  "internalType": "uint256",
                  "name": "vaultTaxPaid",
                  "type": "uint256"
                }
              ],
              "internalType": "struct Fi",
              "name": "fi",
              "type": "tuple"
            },
            {
              "internalType": "bool",
              "name": "presold",
              "type": "bool"
            }
          ],
          "internalType": "struct Gem",
          "name": "",
          "type": "tuple"
        }
      ],
      "stateMutability": "view",
      "type": "function"
    },
    {
      "inputs": [],
      "name": "getGemsInfo",
      "outputs": [
        {
          "internalType": "uint256[]",
          "name": "",
          "type": "uint256[]"
        },
        {
          "components": [
            {
              "internalType": "uint8",
              "name": "gemTypeId",
              "type": "uint8"
            },
            {
              "internalType": "enum Booster",
              "name": "booster",
              "type": "uint8"
            },
            {
              "internalType": "uint32",
              "name": "mintTime",
              "type": "uint32"
            },
            {
              "internalType": "uint32",
              "name": "lastRewardWithdrawalTime",
              "type": "uint32"
            },
            {
              "internalType": "uint32",
              "name": "lastMaintenanceTime",
              "type": "uint32"
            },
            {
              "components": [
                {
                  "internalType": "uint256",
                  "name": "claimedGross",
                  "type": "uint256"
                },
                {
                  "internalType": "uint256",
                  "name": "claimedNet",
                  "type": "uint256"
                },
                {
                  "internalType": "uint256",
                  "name": "stakedGross",
                  "type": "uint256"
                },
                {
                  "internalType": "uint256",
                  "name": "stakedNet",
                  "type": "uint256"
                },
                {
                  "internalType": "uint256",
                  "name": "unStakedGross",
                  "type": "uint256"
                },
                {
                  "internalType": "uint256",
                  "name": "unStakedGrossUp",
                  "type": "uint256"
                },
                {
                  "internalType": "uint256",
                  "name": "unStakedNet",
                  "type": "uint256"
                },
                {
                  "internalType": "uint256",
                  "name": "donated",
                  "type": "uint256"
                },
                {
                  "internalType": "uint256",
                  "name": "claimTaxPaid",
                  "type": "uint256"
                },
                {
                  "internalType": "uint256",
                  "name": "vaultTaxPaid",
                  "type": "uint256"
                }
              ],
              "internalType": "struct Fi",
              "name": "fi",
              "type": "tuple"
            },
            {
              "internalType": "bool",
              "name": "presold",
              "type": "bool"
            }
          ],
          "internalType": "struct Gem[]",
          "name": "",
          "type": "tuple[]"
        }
      ],
      "stateMutability": "view",
      "type": "function"
    },
    {
      "inputs": [
        {
          "internalType": "uint8",
          "name": "_gemTypeId",
          "type": "uint8"
        }
      ],
      "name": "getMintWindow",
      "outputs": [
        {
          "components": [
            {
              "internalType": "uint256",
              "name": "mintCount",
              "type": "uint256"
            },
            {
              "internalType": "uint32",
              "name": "endOfMintLimitWindow",
              "type": "uint32"
            }
          ],
          "internalType": "struct GemTypeMintWindow",
          "name": "",
          "type": "tuple"
        }
      ],
      "stateMutability": "view",
      "type": "function"
    },
    {
      "inputs": [
        {
          "internalType": "string",
          "name": "_name",
          "type": "string"
        },
        {
          "internalType": "string",
          "name": "_symbol",
          "type": "string"
        }
      ],
      "name": "initializeERC721Facet",
      "outputs": [],
      "stateMutability": "nonpayable",
      "type": "function"
    },
    {
      "inputs": [],
      "name": "initialized",
      "outputs": [
        {
          "internalType": "bool",
          "name": "",
          "type": "bool"
        }
      ],
      "stateMutability": "view",
      "type": "function"
    },
    {
      "inputs": [
        {
          "internalType": "address",
          "name": "owner",
          "type": "address"
        },
        {
          "internalType": "address",
          "name": "operator",
          "type": "address"
        }
      ],
      "name": "isApprovedForAll",
      "outputs": [
        {
          "internalType": "bool",
          "name": "",
          "type": "bool"
        }
      ],
      "stateMutability": "view",
      "type": "function"
    },
    {
      "inputs": [
        {
          "internalType": "uint8",
          "name": "_gemType",
          "type": "uint8"
        }
      ],
      "name": "isMintAvailable",
      "outputs": [
        {
          "internalType": "bool",
          "name": "",
          "type": "bool"
        }
      ],
      "stateMutability": "view",
      "type": "function"
    },
    {
      "inputs": [
        {
          "internalType": "uint8",
          "name": "_gemTypeId",
          "type": "uint8"
        }
      ],
      "name": "mint",
      "outputs": [],
      "stateMutability": "nonpayable",
      "type": "function"
    },
    {
      "inputs": [
        {
          "internalType": "uint8",
          "name": "_gemType",
          "type": "uint8"
        },
        {
          "internalType": "address",
          "name": "_to",
          "type": "address"
        },
        {
          "internalType": "enum Booster",
          "name": "_booster",
          "type": "uint8"
        }
      ],
      "name": "mintTo",
      "outputs": [],
      "stateMutability": "nonpayable",
      "type": "function"
    },
    {
      "inputs": [
        {
          "internalType": "uint8[]",
          "name": "_gemType",
          "type": "uint8[]"
        },
        {
          "internalType": "address[]",
          "name": "_to",
          "type": "address[]"
        },
        {
          "internalType": "enum Booster[]",
          "name": "_booster",
          "type": "uint8[]"
        },
        {
          "internalType": "uint8[]",
          "name": "_number",
          "type": "uint8[]"
        }
      ],
      "name": "mintToBulk",
      "outputs": [],
      "stateMutability": "nonpayable",
      "type": "function"
    },
    {
      "inputs": [
        {
          "internalType": "uint8",
          "name": "_gemType",
          "type": "uint8"
        },
        {
          "internalType": "address",
          "name": "_to",
          "type": "address"
        },
        {
          "internalType": "enum Booster",
          "name": "_booster",
          "type": "uint8"
        },
        {
          "internalType": "uint8",
          "name": "_number",
          "type": "uint8"
        }
      ],
      "name": "mintToFew",
      "outputs": [],
      "stateMutability": "nonpayable",
      "type": "function"
    },
    {
      "inputs": [],
      "name": "name",
      "outputs": [
        {
          "internalType": "string",
          "name": "",
          "type": "string"
        }
      ],
      "stateMutability": "view",
      "type": "function"
    },
    {
      "inputs": [
        {
          "internalType": "uint256",
          "name": "_tokenId",
          "type": "uint256"
        }
      ],
      "name": "ownerOf",
      "outputs": [
        {
          "internalType": "address",
          "name": "",
          "type": "address"
        }
      ],
      "stateMutability": "view",
      "type": "function"
    },
    {
      "inputs": [
        {
          "internalType": "address",
          "name": "_to",
          "type": "address"
        },
        {
          "internalType": "uint8",
          "name": "_gemType",
          "type": "uint8"
        },
        {
          "internalType": "enum Booster",
          "name": "_booster",
          "type": "uint8"
        }
      ],
      "name": "removeBooster",
      "outputs": [],
      "stateMutability": "nonpayable",
      "type": "function"
    },
    {
      "inputs": [
        {
          "internalType": "address",
          "name": "_from",
          "type": "address"
        },
        {
          "internalType": "address",
          "name": "_to",
          "type": "address"
        },
        {
          "internalType": "uint256",
          "name": "_tokenId",
          "type": "uint256"
        }
      ],
      "name": "safeTransferFrom",
      "outputs": [],
      "stateMutability": "nonpayable",
      "type": "function"
    },
    {
      "inputs": [
        {
          "internalType": "address",
          "name": "_from",
          "type": "address"
        },
        {
          "internalType": "address",
          "name": "_to",
          "type": "address"
        },
        {
          "internalType": "uint256",
          "name": "_tokenId",
          "type": "uint256"
        },
        {
          "internalType": "bytes",
          "name": "_data",
          "type": "bytes"
        }
      ],
      "name": "safeTransferFrom",
      "outputs": [],
      "stateMutability": "nonpayable",
      "type": "function"
    },
    {
      "inputs": [
        {
          "internalType": "address",
          "name": "operator",
          "type": "address"
        },
        {
          "internalType": "bool",
          "name": "_approved",
          "type": "bool"
        }
      ],
      "name": "setApprovalForAll",
      "outputs": [],
      "stateMutability": "nonpayable",
      "type": "function"
    },
    {
      "inputs": [
        {
          "internalType": "uint256",
          "name": "_tokenId",
          "type": "uint256"
        },
        {
          "internalType": "enum Booster",
          "name": "_booster",
          "type": "uint8"
        }
      ],
      "name": "setBooster",
      "outputs": [],
      "stateMutability": "nonpayable",
      "type": "function"
    },
    {
      "inputs": [],
      "name": "setLaunchTime",
      "outputs": [],
      "stateMutability": "nonpayable",
      "type": "function"
    },
    {
      "inputs": [],
      "name": "symbol",
      "outputs": [
        {
          "internalType": "string",
          "name": "",
          "type": "string"
        }
      ],
      "stateMutability": "view",
      "type": "function"
    },
    {
      "inputs": [
        {
          "internalType": "uint256",
          "name": "index",
          "type": "uint256"
        }
      ],
      "name": "tokenByIndex",
      "outputs": [
        {
          "internalType": "uint256",
          "name": "",
          "type": "uint256"
        }
      ],
      "stateMutability": "view",
      "type": "function"
    },
    {
      "inputs": [
        {
          "internalType": "address",
          "name": "owner",
          "type": "address"
        },
        {
          "internalType": "uint256",
          "name": "index",
          "type": "uint256"
        }
      ],
      "name": "tokenOfOwnerByIndex",
      "outputs": [
        {
          "internalType": "uint256",
          "name": "",
          "type": "uint256"
        }
      ],
      "stateMutability": "view",
      "type": "function"
    },
    {
      "inputs": [
        {
          "internalType": "uint256",
          "name": "_tokenId",
          "type": "uint256"
        }
      ],
      "name": "tokenURI",
      "outputs": [
        {
          "internalType": "string",
          "name": "",
          "type": "string"
        }
      ],
      "stateMutability": "view",
      "type": "function"
    },
    {
      "inputs": [],
      "name": "totalSupply",
      "outputs": [
        {
          "internalType": "uint256",
          "name": "",
          "type": "uint256"
        }
      ],
      "stateMutability": "view",
      "type": "function"
    },
    {
      "inputs": [
        {
          "internalType": "address",
          "name": "_from",
          "type": "address"
        },
        {
          "internalType": "address",
          "name": "_to",
          "type": "address"
        },
        {
          "internalType": "uint256",
          "name": "_tokenId",
          "type": "uint256"
        }
      ],
      "name": "transferFrom",
      "outputs": [],
      "stateMutability": "nonpayable",
      "type": "function"
    },
    {
      "inputs": [
        {
          "internalType": "uint256",
          "name": "_tokenId",
          "type": "uint256"
        }
      ],
      "name": "transferToStabilizer",
      "outputs": [],
      "stateMutability": "nonpayable",
      "type": "function"
    }
  ],
  "transactionHash": "0xf3d7d8090614ffa75ad00da6b4601579edaa141e4b329343f990031eaad8b46d",
  "args": [],
  "numDeployments": 9,
  "solcInputHash": "4ea28cc3cb318bca6bf208947ae22862",
  "bytecode": "0x608060405234801561001057600080fd5b506141fc806100206000396000f3fe608060405234801561001057600080fd5b50600436106102115760003560e01c8063703b934311610125578063b88d4fde116100ad578063ce4d26021161007c578063ce4d260214610495578063dd1c1d32146104a8578063e985e9c5146104bb578063ed97c34f146104f7578063fe47041c1461050a57600080fd5b8063b88d4fde14610454578063c7b8433a14610467578063c87b56dd1461047a578063ccbb0d761461048d57600080fd5b806389298700116100f4578063892987001461040b57806395d89b411461041e5780639e7005d9146104265780639f142baa14610439578063a22cb4651461044157600080fd5b8063703b9343146103b257806370a08231146103d2578063755ff444146103e55780637be9d9e6146103f857600080fd5b80633314bca6116101a85780634e722cad116101775780634e722cad146103465780634f6ccce714610366578063552d40aa146103795780636352211e1461038c5780636ecd23061461039f57600080fd5b80633314bca61461030d5780633491c42d1461032057806342842e0e146102b357806342966c681461033357600080fd5b806318160ddd116101e457806318160ddd146102a157806323b872dd146102b3578063287db340146102c65780632f745c59146102fa57600080fd5b806306fdde0314610216578063081812fc14610234578063095ea7b314610275578063158ef93e1461028a575b600080fd5b61021e610520565b60405161022b9190613737565b60405180910390f35b61025d61024236600461374a565b6000908152602660205260409020546001600160a01b031690565b6040516001600160a01b03909116815260200161022b565b61028861028336600461377a565b610605565b005b602d5460ff165b604051901515815260200161022b565b602b545b60405190815260200161022b565b6102886102c13660046137a4565b61072c565b6102d96102d43660046137f1565b610747565b604080518251815260209283015163ffffffff16928101929092520161022b565b6102a561030836600461377a565b61076a565b61028861031b36600461381b565b61077d565b61028861032e366004613847565b610817565b61028861034136600461374a565b6108ef565b61035961035436600461388a565b61096f565b60405161022b91906138e0565b6102a561037436600461374a565b61097a565b610288610387366004613847565b610a09565b61025d61039a36600461374a565b610ad7565b6102886103ad3660046137f1565b610ae2565b6103c56103c036600461374a565b611008565b60405161022b9190613a06565b6102a56103e036600461388a565b611135565b6102a56103f3366004613847565b6111c2565b61028861040636600461374a565b611224565b610288610419366004613a15565b6112bb565b61021e6113fd565b610288610434366004613ab5565b611459565b610288611497565b61028861044f366004613b05565b61158f565b610288610462366004613bc8565b611669565b610288610475366004613c44565b6116fd565b61021e61048836600461374a565b61181a565b610359611955565b6102886104a3366004613c90565b611972565b6102886104b6366004613cf4565b611a7f565b6102916104c9366004613db8565b6001600160a01b03918216600090815260276020908152604080832093909416825291909152205460ff1690565b6102916105053660046137f1565b611d2a565b610512611d35565b60405161022b929190613de2565b602d5460609060ff166105745760405162461bcd60e51b8152602060048201526017602482015276115490cdcc8c4e881b9bdd081a5b9a5d1a585b1a5e9959604a1b60448201526064015b60405180910390fd5b6021805461058190613e44565b80601f01602080910402602001604051908101604052809291908181526020018280546105ad90613e44565b80156105fa5780601f106105cf576101008083540402835291602001916105fa565b820191906000526020600020905b8154815290600101906020018083116105dd57829003601f168201915b505050505090505b90565b600061061082611f2c565b9050806001600160a01b0316836001600160a01b03160361067d5760405162461bcd60e51b815260206004820152602160248201527f4552433732313a20617070726f76616c20746f2063757272656e74206f776e656044820152603960f91b606482015260840161056b565b806001600160a01b031661068f611f55565b6001600160a01b031614806106ab57506106ab816104c9611f55565b61071d5760405162461bcd60e51b815260206004820152603860248201527f4552433732313a20617070726f76652063616c6c6572206973206e6f74206f7760448201527f6e6572206e6f7220617070726f76656420666f7220616c6c0000000000000000606482015260840161056b565b6107278383611fb0565b505050565b61072783838360405180602001604052806000815250611669565b60408051808201909152600080825260208201526107648261201e565b92915050565b60006107768383612114565b9392505050565b610785611f55565b6001600160a01b03166002600301546001600160a01b031614806107c657506107ac611f55565b6001600160a01b03166002600601546001600160a01b0316145b6107e25760405162461bcd60e51b815260040161056b90613e8e565b60008281526020805260409020805482919061ff00191661010083600281111561080e5761080e6138f3565b02179055505050565b61081f611f55565b6001600160a01b03166002600301546001600160a01b031614806108605750610846611f55565b6001600160a01b03166002600601546001600160a01b0316145b61087c5760405162461bcd60e51b815260040161056b90613e8e565b6001600160a01b038316600090815260396020908152604080832060ff861684529091528120908260028111156108b5576108b56138f3565b60028111156108c6576108c66138f3565b815260200190815260200160002060008154809291906108e590613eca565b9190505550505050565b6109006108fa611f55565b826121aa565b6109635760405162461bcd60e51b815260206004820152602e60248201527f4552433732313a2063616c6c6572206973206e6f7420746f6b656e206f776e6560448201526d1c881b9bdc88185c1c1c9bdd995960921b606482015260840161056b565b61096c81612235565b50565b6060610764826122e3565b602b5460009082106109e35760405162461bcd60e51b815260206004820152602c60248201527f455243373231456e756d657261626c653a20676c6f62616c20696e646578206f60448201526b7574206f6620626f756e647360a01b606482015260840161056b565b602b8054839081106109f7576109f7613e78565b90600052602060002001549050919050565b610a11611f55565b6001600160a01b03166002600301546001600160a01b03161480610a525750610a38611f55565b6001600160a01b03166002600601546001600160a01b0316145b610a6e5760405162461bcd60e51b815260040161056b90613e8e565b6001600160a01b038316600090815260396020908152604080832060ff86168452909152812090826002811115610aa757610aa76138f3565b6002811115610ab857610ab86138f3565b815260200190815260200160002060008154809291906108e590613ee3565b600061076482611f2c565b80610aec81612410565b610b2f5760405162461bcd60e51b815260206004820152601460248201527323b2b69036b4b73a103932b9ba3934b1ba34b7b760611b604482015260640161056b565b6000610b39611f55565b905060005b6002811015610c5957601c805460ff8616908110610b5e57610b5e613e78565b90600052602060002090600602016002018160028110610b8057610b80613e78565b015460008260028110610b9557610b95613e78565b01546040516370a0823160e01b81526001600160a01b038581166004830152909116906370a0823190602401602060405180830381865afa158015610bde573d6000803e3d6000fd5b505050506040513d601f19601f82011682018060405250810190610c029190613efa565b1015610c475760405162461bcd60e51b8152602060048201526014602482015273496e73756666696369656e742062616c616e636560601b604482015260640161056b565b80610c5181613eca565b915050610b3e565b5060005b6003811015610e455760005b6002811015610e32576000610ce36000601c018760ff1681548110610c9057610c90613e78565b90600052602060002090600602016002018360028110610cb257610cb2613e78565b015460098460028110610cc757610cc7613e78565b600302018560038110610cdc57610cdc613e78565b0154612591565b90508015610e1f57600060028460078110610d0057610d00613e78565b01546001600160a01b031603610d6c5760405162461bcd60e51b815260206004820152602b60248201527f5969656c6447656d3a20636f6e66696775726174696f6e206572726f722c207a60448201526a65726f206164647265737360a81b606482015260840161056b565b60008260028110610d7f57610d7f613e78565b01546001600160a01b03166323b872dd8560028660078110610da357610da3613e78565b015460405160e084901b6001600160e01b03191681526001600160a01b03928316600482015291166024820152604481018490526064016020604051808303816000875af1158015610df9573d6000803e3d6000fd5b505050506040513d601f19601f82011682018060405250810190610e1d9190613f13565b505b5080610e2a81613eca565b915050610c69565b5080610e3d81613eca565b915050610c5d565b506004546003906002906001600160a01b0316636a6278428284015460405160e083901b6001600160e01b03191681526001600160a01b0390911660048201526024016020604051808303816000875af1158015610ea7573d6000803e3d6000fd5b505050506040513d601f19601f82011682018060405250810190610ecb9190613efa565b50600060015b60028111610ff3576001600160a01b038516600090815260396020908152604080832060ff8b168452909152812081836002811115610f1257610f126138f3565b6002811115610f2357610f236138f3565b6002811115610f3457610f346138f3565b8152602001908152602001600020541115610fe157806002811115610f5b57610f5b6138f3565b6001600160a01b038616600090815260396020908152604080832060ff8c1684529091528120919350826002811115610f9657610f966138f3565b6002811115610fa757610fa76138f3565b6002811115610fb857610fb86138f3565b81526020019081526020016000206000815480929190610fd790613ee3565b9190505550610ff3565b80610feb81613eca565b915050610ed1565b50610fff8685836125c0565b50505050505050565b61101061363b565b60008281526020808052604091829020825160e08101909352805460ff8082168552919284019161010090910416600281111561104f5761104f6138f3565b6002811115611060576110606138f3565b8152815463ffffffff6201000082048116602080850191909152600160301b83048216604080860191909152600160501b909304909116606080850191909152825161014081018452600186015481526002860154928101929092526003850154928201929092526004840154918101919091526005830154608082810191909152600684015460a080840191909152600785015460c0840152600885015460e08401526009850154610100840152600a85015461012084015290830191909152600b9092015460ff16151591015292915050565b6000816001600160a01b0381166111a05760405162461bcd60e51b815260206004820152602960248201527f4552433732313a2061646472657373207a65726f206973206e6f7420612076616044820152683634b21037bbb732b960b91b606482015260840161056b565b6001600160a01b03831660009081526025602052604090205491505b50919050565b6001600160a01b038316600090815260396020908152604080832060ff861684529091528120818360028111156111fb576111fb6138f3565b600281111561120c5761120c6138f3565b81526020019081526020016000205490509392505050565b8061122d611f55565b6000828152602460205260409020546001600160a01b039081169116146112965760405162461bcd60e51b815260206004820152601660248201527f596f7520646f6e2774206f776e20746869732067656d00000000000000000000604482015260640161056b565b60006112a0611f55565b9050610727816002600301546001600160a01b031685612770565b6112c3611f55565b6001600160a01b03166002600301546001600160a01b0316148061130457506112ea611f55565b6001600160a01b03166002600601546001600160a01b0316145b6113205760405162461bcd60e51b815260040161056b90613e8e565b60005b8160ff168160ff1610156113f657600061133e8686866125c0565b60008181526020805260408120600b01805460ff1916600117905590915084600281111561136e5761136e6138f3565b11156113e3576001600160a01b038516600090815260396020908152604080832060ff8a1684529091528120908560028111156113ad576113ad6138f3565b60028111156113be576113be6138f3565b815260200190815260200160002060008154809291906113dd90613eca565b91905055505b50806113ee81613f30565b915050611323565b5050505050565b602d5460609060ff1661144c5760405162461bcd60e51b8152602060048201526017602482015276115490cdcc8c4e881b9bdd081a5b9a5d1a585b1a5e9959604a1b604482015260640161056b565b6022805461058190613e44565b60005b818110156107275761148583838381811061147957611479613e78565b90506020020135611224565b8061148f81613eca565b91505061145c565b61149f611f55565b6001600160a01b03166002600301546001600160a01b031614806114e057506114c6611f55565b6001600160a01b03166002600601546001600160a01b0316145b6114fc5760405162461bcd60e51b815260040161056b90613e8e565b60005b602b5481101561096c57602b8054600091908390811061152157611521613e78565b60009182526020808320909101548083529080526040909120600b015490915060ff161561157c576000818152602080526040902080546dffffffffffffffffffffffff000019166d63387210633872106338721000001790555b508061158781613eca565b9150506114ff565b6000611599611f55565b9050826001600160a01b0316816001600160a01b0316036115fc5760405162461bcd60e51b815260206004820152601960248201527f4552433732313a20617070726f766520746f2063616c6c657200000000000000604482015260640161056b565b6001600160a01b03818116600081815260276020908152604080832094881680845294825291829020805460ff191687151590811790915591519182527f17307eab39ab6107e8899845ad3d59bd9653f200f220920489ca2b5937696c31910160405180910390a3505050565b6000611673611f55565b905061167f81846121aa565b6116e55760405162461bcd60e51b815260206004820152603160248201527f4552433732313a207472616e736665722063616c6c6572206973206e6f74206f6044820152701ddb995c881b9bdc88185c1c1c9bdd9959607a1b606482015260840161056b565b6116f28186868686612914565b6113f6858585612770565b611705611f55565b6001600160a01b03166002600301546001600160a01b03161480611746575061172c611f55565b6001600160a01b03166002600601546001600160a01b0316145b6117625760405162461bcd60e51b815260040161056b90613e8e565b600061176f8484846125c0565b60008181526020805260408120600b01805460ff1916600117905590915082600281111561179f5761179f6138f3565b1115611814576001600160a01b038316600090815260396020908152604080832060ff881684529091528120908360028111156117de576117de6138f3565b60028111156117ef576117ef6138f3565b8152602001908152602001600020600081548092919061180e90613eca565b91905055505b50505050565b602d5460609060ff166118695760405162461bcd60e51b8152602060048201526017602482015276115490cdcc8c4e881b9bdd081a5b9a5d1a585b1a5e9959604a1b604482015260640161056b565b8161187381612a11565b602880546000919061188490613e44565b80601f01602080910402602001604051908101604052809291908181526020018280546118b090613e44565b80156118fd5780601f106118d2576101008083540402835291602001916118fd565b820191906000526020600020905b8154815290600101906020018083116118e057829003601f168201915b505050505090506000815111611922576040518060200160405280600081525061194d565b8061192c85612a75565b60405160200161193d929190613f4f565b6040516020818303038152906040525b949350505050565b60606000611961611f55565b905061196c816122e3565b91505090565b61197a612b76565b602d5460ff16156119cd5760405162461bcd60e51b815260206004820152601b60248201527f4552433732313a20616c726561647920696e697469616c697a65640000000000604482015260640161056b565b60216119d98382613fc4565b5060226119e68282613fc4565b50507fc8fcad8db84d3cc18b4c41d551ea0ee66dd599cde068d998e57d5e09332c131f602052507fb0f299ecb5b93181be17d5e233721498930c5361f367b1d41c5b827d4fe4d3808054600160ff199182168117909255635b5e139f60e01b6000527f806e5513950c43892aa01780f899fe3e3229f9425b66a2610b01231f5799f44e8054821683179055602d80549091169091179055565b611a87611f55565b6001600160a01b03166002600301546001600160a01b03161480611ac85750611aae611f55565b6001600160a01b03166002600601546001600160a01b0316145b611ae45760405162461bcd60e51b815260040161056b90613e8e565b60005b85811015611d1f5760005b838383818110611b0457611b04613e78565b9050602002016020810190611b1991906137f1565b60ff168160ff161015611d0c576000611ba58b8b85818110611b3d57611b3d613e78565b9050602002016020810190611b5291906137f1565b8a8a86818110611b6457611b64613e78565b9050602002016020810190611b79919061388a565b898987818110611b8b57611b8b613e78565b9050602002016020810190611ba09190614084565b6125c0565b60008181526020805260408120600b01805460ff19166001179055909150878785818110611bd557611bd5613e78565b9050602002016020810190611bea9190614084565b6002811115611bfb57611bfb6138f3565b1115611cf957603960008a8a86818110611c1757611c17613e78565b9050602002016020810190611c2c919061388a565b6001600160a01b03166001600160a01b0316815260200190815260200160002060008c8c86818110611c6057611c60613e78565b9050602002016020810190611c7591906137f1565b60ff1660ff1681526020019081526020016000206000888886818110611c9d57611c9d613e78565b9050602002016020810190611cb29190614084565b6002811115611cc357611cc36138f3565b6002811115611cd457611cd46138f3565b81526020019081526020016000206000815480929190611cf390613eca565b91905055505b5080611d0481613f30565b915050611af2565b5080611d1781613eca565b915050611ae7565b505050505050505050565b600061076482612410565b6060806000611d42611955565b90506000815167ffffffffffffffff811115611d6057611d60613b3c565b604051908082528060200260200182016040528015611d9957816020015b611d8661363b565b815260200190600190039081611d7e5790505b50905060005b8251811015611f225760006020016000848381518110611dc157611dc1613e78565b6020908102919091018101518252818101929092526040908101600020815160e08101909252805460ff80821684529293919291840191610100909104166002811115611e1057611e106138f3565b6002811115611e2157611e216138f3565b8152815463ffffffff6201000082048116602080850191909152600160301b83048216604080860191909152600160501b909304909116606080850191909152825161014081018452600186015481526002860154928101929092526003850154928201929092526004840154918101919091526005830154608082810191909152600684015460a080840191909152600785015460c0840152600885015460e08401526009850154610100840152600a85015461012084015290830191909152600b9092015460ff1615159101528251839083908110611f0457611f04613e78565b60200260200101819052508080611f1a90613eca565b915050611d9f565b5090939092509050565b600081611f3881612a11565b50506000908152602460205260409020546001600160a01b031690565b6000303303611fab57600080368080601f0160208091040260200160405190810160405280939291908181526020018383808284376000920191909152505050503601516001600160a01b031691506106029050565b503390565b600081815260266020526040902080546001600160a01b0319166001600160a01b0384169081179091558190611fe582611f2c565b6001600160a01b03167f8c5be1e5ebec7d5bd14f71427d1e84f3dd0314c0f7b2291e5b200ac8c7c3b92560405160405180910390a45050565b60408051808201909152600080825260208201819052601c5460ff8416106120795760405162461bcd60e51b815260206004820152600e60248201526d57726f6e672067656d207479706560901b604482015260640161056b565b600081601d018460ff168154811061209357612093613e78565b600091825260209182902060408051808201909152600290920201805482526001015463ffffffff169181018290529150421115610776575b60188201546020820180516201000090920463ffffffff16916120f090839061409f565b63ffffffff908116909152602083015116421190506120cc57600081529392505050565b600061211f83611135565b82106121815760405162461bcd60e51b815260206004820152602b60248201527f455243373231456e756d657261626c653a206f776e657220696e646578206f7560448201526a74206f6620626f756e647360a81b606482015260840161056b565b506001600160a01b03919091166000908152602960209081526040808320938352929052205490565b6000816121b681612a11565b60006121c184611f2c565b9050806001600160a01b0316856001600160a01b0316148061220857506001600160a01b0380821660009081526027602090815260408083209389168352929052205460ff165b8061222c5750846001600160a01b031661222185612bff565b6001600160a01b0316145b95945050505050565b600061224082611f2c565b905061224e81600084612c28565b612259600083611fb0565b6001600160a01b038116600090815260256020526040812080549161227d83613ee3565b909155505060008281526024602052604080822080546001600160a01b0319169055518391906001600160a01b038416907fddf252ad1be2c89b69c2b068fc378daa952ba7f163c4a11628f55a4df523b3ef908390a46122df81600084612e36565b5050565b6001600160a01b0381166000908152602560205260408120546060918167ffffffffffffffff81111561231857612318613b3c565b604051908082528060200260200182016040528015612341578160200160208202803683370190505b50905060005b82811015612408576001600160a01b0385166000908152602960209081526040808320848452909152902054612394816000908152602460205260409020546001600160a01b0316151590565b6123d75760405162461bcd60e51b8152602060048201526014602482015273412067656d20646f65736e27742065786973747360601b604482015260640161056b565b808383815181106123ea576123ea613e78565b6020908102919091010152508061240081613eca565b915050612347565b509392505050565b601c54600090819060ff84161061245a5760405162461bcd60e51b815260206004820152600e60248201526d57726f6e672067656d207479706560901b604482015260640161056b565b600081601c018460ff168154811061247457612474613e78565b90600052602060002090600602016040518060a00160405290816000820154815260200160018201548152602001600282016002806020026040519081016040528092919082600280156124dd576020028201915b8154815260200190600101908083116124c9575b50505050508152602001600482015481526020016005820154815250509050600082601d018560ff168154811061251657612516613e78565b600091825260209182902060408051808201909152600290920201805482526001015463ffffffff1691810191909152601884015490915060ff1615801561222c5750608082015181511080156125775750806020015163ffffffff164211155b8061222c57506020015163ffffffff164211949350505050565b60008082116125a1576000610776565b6125ac6064806140be565b6125b683856140be565b61077691906140f3565b6000806125cc84612f39565b90506125d785612f6e565b6125df61363b565b60ff8616815263ffffffff42166080820181905260608201819052604082015260208101846002811115612615576126156138f3565b90816002811115612628576126286138f3565b9052506000828152602080805260409091208251815460ff19811660ff90921691821783559284015184939091839161ffff191617610100836002811115612672576126726138f3565b0217905550604082810151825460608086015160808088015169ffffffffffffffff0000199094166201000063ffffffff9687160269ffffffff000000000000191617600160301b92861692909202919091176dffffffff000000000000000000001916600160501b949093169390930291909117845560a0808601518051600187015560208101516002870155938401516003860155908301516004850155908201516005840155810151600683015560c080820151600784015560e08201516008840155610100820151600984015561012090910151600a83015590910151600b909101805460ff191691151591909117905550949350505050565b826001600160a01b031661278382611f2c565b6001600160a01b0316146127e75760405162461bcd60e51b815260206004820152602560248201527f4552433732313a207472616e736665722066726f6d20696e636f72726563742060448201526437bbb732b960d91b606482015260840161056b565b6001600160a01b0382166128495760405162461bcd60e51b8152602060048201526024808201527f4552433732313a207472616e7366657220746f20746865207a65726f206164646044820152637265737360e01b606482015260840161056b565b612854838383612c28565b61285f600082611fb0565b6001600160a01b038316600090815260256020526040812080549161288383613ee3565b90915550506001600160a01b03821660009081526025602052604081208054916128ac83613eca565b909155505060008181526024602052604080822080546001600160a01b0319166001600160a01b0386811691821790925591518493918716917fddf252ad1be2c89b69c2b068fc378daa952ba7f163c4a11628f55a4df523b3ef91a461072760008383612e36565b823b8015612a0957604051630a85bd0160e11b81526001600160a01b0385169063150b7a029061294e908990899088908890600401614107565b6020604051808303816000875af115801561296d573d6000803e3d6000fd5b505050506040513d601f19601f820116820180604052508101906129919190614143565b6001600160e01b031916630a85bd0160e11b14612a095760405162461bcd60e51b815260206004820152603060248201527f4465666f45524337323146616365743a205472616e736665722072656a65637460448201526f65642f6661696c6564206279205f746f60801b606482015260840161056b565b505050505050565b6000818152602460205260409020546001600160a01b031661096c5760405162461bcd60e51b815260206004820152601c60248201527f4552433732313a20746f6b656e4964206973206e6f742076616c696400000000604482015260640161056b565b606081600003612a9c5750506040805180820190915260018152600360fc1b602082015290565b8160005b8115612ac65780612ab081613eca565b9150612abf9050600a836140f3565b9150612aa0565b60008167ffffffffffffffff811115612ae157612ae1613b3c565b6040519080825280601f01601f191660200182016040528015612b0b576020820181803683370190505b5090505b841561194d57612b2060018361416d565b9150612b2d600a86614184565b612b38906030614198565b60f81b818381518110612b4d57612b4d613e78565b60200101906001600160f81b031916908160001a905350612b6f600a866140f3565b9450612b0f565b7fc8fcad8db84d3cc18b4c41d551ea0ee66dd599cde068d998e57d5e09332c131c600401546001600160a01b03163314612bfd5760405162461bcd60e51b815260206004820152602260248201527f4c69624469616d6f6e643a204d75737420626520636f6e7472616374206f776e60448201526132b960f11b606482015260840161056b565b565b600081612c0b81612a11565b50506000908152602660205260409020546001600160a01b031690565b601854610100900460ff1615612c8c5760405162461bcd60e51b8152602060048201526024808201527f5061757361626c653a207061757365642c207472616e73666572206973206c6f60448201526318dad95960e21b606482015260840161056b565b604051637e5c923d60e01b81526001600160a01b03808516600483015283166024820152604481018290523090637e5c923d90606401600060405180830381600087803b158015612cdc57600080fd5b505af1158015612cf0573d6000803e3d6000fd5b50505050612cff838383613016565b6001600160a01b03831615801590612d1f57506001600160a01b03821615155b1561072757600081815260208080526040808320815161014081018352600182015481526002820154818501526003820154818401526004820154606082015260058201546080820152600682015460a0820152600782015460c0820152600882015460e08201526009820154610100820152600a909101546101208201526001600160a01b03861684526038909252909120612dbc9082613021565b60005b601c5460ff821610156113f6576001600160a01b03858116600090815260396020818152604080842060ff8716808652908352818520600280875290845282862054968b16865293835281852090855282528084209284529190528120919091556001905280612e2e81613f30565b915050612dbf565b6001600160a01b0383161561072757600081815260208080526040808320815161014081018352600182015481526002820154818501526003820154818401526004820154606082015260058201546080820152600682015460a0820152600782015460c0820152600882015460e08201526009820154610100820152600a909101546101208201526001600160a01b03871684526038909252909120612edd908261314e565b60005b601c5460ff821610156113f6576001600160a01b038516600090815260396020908152604080832060ff851684528252808320600284529091528082208290556001825281205580612f3181613f30565b915050612ee0565b600080612f44611f55565b9050612f4f83613272565b91506111bc816000858560405180602001604052806000815250612914565b60008081601d018360ff1681548110612f8957612f89613e78565b60009182526020909120600290910201600181015490915063ffffffff16421115613008575b601882015460018201805463ffffffff62010000909304831692600091612fd89185911661409f565b82546101009290920a63ffffffff81810219909316918316021790915560018301541642119050612faf57600081555b80548160006108e583613eca565b61072783838361329c565b805182548390600090613035908490614198565b90915550506020810151600183018054600090613053908490614198565b90915550506040810151600283018054600090613071908490614198565b9091555050606081015160038301805460009061308f908490614198565b909155505060808101516004830180546000906130ad908490614198565b909155505060a08101516005830180546000906130cb908490614198565b909155505060c08101516006830180546000906130e9908490614198565b909155505060e0810151600783018054600090613107908490614198565b9091555050610100810151600883018054600090613126908490614198565b9091555050610120810151600983018054600090613145908490614198565b90915550505050565b80518254839060009061316290849061416d565b9091555050602081015160018301805460009061318090849061416d565b9091555050604081015160028301805460009061319e90849061416d565b909155505060608101516003830180546000906131bc90849061416d565b909155505060808101516004830180546000906131da90849061416d565b909155505060a08101516005830180546000906131f890849061416d565b909155505060c081015160068301805460009061321690849061416d565b909155505060e081015160078301805460009061323490849061416d565b909155505061010081015160088301805460009061325390849061416d565b909155505061012081015160098301805460009061314590849061416d565b600061327d60235490565b90506132898282613354565b613297602380546001019055565b919050565b6001600160a01b0383166132f7576132f281602b80546000838152602c60205260408120829055600182018355919091527f11c44e4875b74d31ff9fd779bf2566af7bd15b87fc985d01f5094b89e3669e4f0155565b61331a565b816001600160a01b0316836001600160a01b03161461331a5761331a83826134a5565b6001600160a01b0382166133315761072781613542565b826001600160a01b0316826001600160a01b0316146107275761072782826135f7565b6001600160a01b0382166133aa5760405162461bcd60e51b815260206004820181905260248201527f4552433732313a206d696e7420746f20746865207a65726f2061646472657373604482015260640161056b565b6000818152602460205260409020546001600160a01b03161561340f5760405162461bcd60e51b815260206004820152601c60248201527f4552433732313a20746f6b656e20616c7265616479206d696e74656400000000604482015260640161056b565b61341b60008383612c28565b6001600160a01b038216600090815260256020526040812080549161343f83613eca565b909155505060008181526024602052604080822080546001600160a01b0319166001600160a01b03861690811790915590518392907fddf252ad1be2c89b69c2b068fc378daa952ba7f163c4a11628f55a4df523b3ef908290a46122df60008383612e36565b600060016134b284611135565b6134bc919061416d565b6000838152602a602052604090205490915080821461350f576001600160a01b03841660009081526029602090815260408083208584528252808320548484528184208190558352602a90915290208190555b506000918252602a602090815260408084208490556001600160a01b039094168352602981528383209183525290812055565b602b546000906135549060019061416d565b6000838152602c6020526040812054602b805493945090928490811061357c5761357c613e78565b90600052602060002001549050806000602101600a0183815481106135a3576135a3613e78565b6000918252602080832090910192909255828152602c9091526040808220849055858252812055602b8054806135db576135db6141b0565b6001900381819060005260206000200160009055905550505050565b600061360283611135565b6001600160a01b0390931660009081526029602090815260408083208684528252808320859055938252602a9052919091209190915550565b6040805160e08101909152600080825260208201908152602001600063ffffffff168152602001600063ffffffff168152602001600063ffffffff1681526020016136d2604051806101400160405280600081526020016000815260200160008152602001600081526020016000815260200160008152602001600081526020016000815260200160008152602001600081525090565b8152600060209091015290565b60005b838110156136fa5781810151838201526020016136e2565b838111156118145750506000910152565b600081518084526137238160208601602086016136df565b601f01601f19169290920160200192915050565b602081526000610776602083018461370b565b60006020828403121561375c57600080fd5b5035919050565b80356001600160a01b038116811461329757600080fd5b6000806040838503121561378d57600080fd5b61379683613763565b946020939093013593505050565b6000806000606084860312156137b957600080fd5b6137c284613763565b92506137d060208501613763565b9150604084013590509250925092565b803560ff8116811461329757600080fd5b60006020828403121561380357600080fd5b610776826137e0565b80356003811061329757600080fd5b6000806040838503121561382e57600080fd5b8235915061383e6020840161380c565b90509250929050565b60008060006060848603121561385c57600080fd5b61386584613763565b9250613873602085016137e0565b91506138816040850161380c565b90509250925092565b60006020828403121561389c57600080fd5b61077682613763565b600081518084526020808501945080840160005b838110156138d5578151875295820195908201906001016138b9565b509495945050505050565b60208152600061077660208301846138a5565b634e487b7160e01b600052602160045260246000fd5b60ff815116825260208101516003811061393357634e487b7160e01b600052602160045260246000fd5b806020840152506040810151613951604084018263ffffffff169052565b506060810151613969606084018263ffffffff169052565b506080810151613981608084018263ffffffff169052565b5060a08101516139f560a0840182805182526020810151602083015260408101516040830152606081015160608301526080810151608083015260a081015160a083015260c081015160c083015260e081015160e08301526101008082015181840152506101208082015181840152505050565b5060c0015115156101e09190910152565b61020081016107648284613909565b60008060008060808587031215613a2b57600080fd5b613a34856137e0565b9350613a4260208601613763565b9250613a506040860161380c565b9150613a5e606086016137e0565b905092959194509250565b60008083601f840112613a7b57600080fd5b50813567ffffffffffffffff811115613a9357600080fd5b6020830191508360208260051b8501011115613aae57600080fd5b9250929050565b60008060208385031215613ac857600080fd5b823567ffffffffffffffff811115613adf57600080fd5b613aeb85828601613a69565b90969095509350505050565b801515811461096c57600080fd5b60008060408385031215613b1857600080fd5b613b2183613763565b91506020830135613b3181613af7565b809150509250929050565b634e487b7160e01b600052604160045260246000fd5b600067ffffffffffffffff80841115613b6d57613b6d613b3c565b604051601f8501601f19908116603f01168101908282118183101715613b9557613b95613b3c565b81604052809350858152868686011115613bae57600080fd5b858560208301376000602087830101525050509392505050565b60008060008060808587031215613bde57600080fd5b613be785613763565b9350613bf560208601613763565b925060408501359150606085013567ffffffffffffffff811115613c1857600080fd5b8501601f81018713613c2957600080fd5b613c3887823560208401613b52565b91505092959194509250565b600080600060608486031215613c5957600080fd5b613c62846137e0565b925061387360208501613763565b600082601f830112613c8157600080fd5b61077683833560208501613b52565b60008060408385031215613ca357600080fd5b823567ffffffffffffffff80821115613cbb57600080fd5b613cc786838701613c70565b93506020850135915080821115613cdd57600080fd5b50613cea85828601613c70565b9150509250929050565b6000806000806000806000806080898b031215613d1057600080fd5b883567ffffffffffffffff80821115613d2857600080fd5b613d348c838d01613a69565b909a50985060208b0135915080821115613d4d57600080fd5b613d598c838d01613a69565b909850965060408b0135915080821115613d7257600080fd5b613d7e8c838d01613a69565b909650945060608b0135915080821115613d9757600080fd5b50613da48b828c01613a69565b999c989b5096995094979396929594505050565b60008060408385031215613dcb57600080fd5b613dd483613763565b915061383e60208401613763565b604081526000613df560408301856138a5565b82810360208481019190915284518083528582019282019060005b81811015613e3757613e23838651613909565b938301936102009290920191600101613e10565b5090979650505050505050565b600181811c90821680613e5857607f821691505b6020821081036111bc57634e487b7160e01b600052602260045260246000fd5b634e487b7160e01b600052603260045260246000fd5b6020808252600c908201526b155b985d5d1a1bdc9a5e995960a21b604082015260600190565b634e487b7160e01b600052601160045260246000fd5b600060018201613edc57613edc613eb4565b5060010190565b600081613ef257613ef2613eb4565b506000190190565b600060208284031215613f0c57600080fd5b5051919050565b600060208284031215613f2557600080fd5b815161077681613af7565b600060ff821660ff8103613f4657613f46613eb4565b60010192915050565b60008351613f618184602088016136df565b835190830190613f758183602088016136df565b01949350505050565b601f82111561072757600081815260208120601f850160051c81016020861015613fa55750805b601f850160051c820191505b81811015612a0957828155600101613fb1565b815167ffffffffffffffff811115613fde57613fde613b3c565b613ff281613fec8454613e44565b84613f7e565b602080601f831160018114614027576000841561400f5750858301515b600019600386901b1c1916600185901b178555612a09565b600085815260208120601f198616915b8281101561405657888601518255948401946001909101908401614037565b50858210156140745787850151600019600388901b60f8161c191681555b5050505050600190811b01905550565b60006020828403121561409657600080fd5b6107768261380c565b600063ffffffff808316818516808303821115613f7557613f75613eb4565b60008160001904831182151516156140d8576140d8613eb4565b500290565b634e487b7160e01b600052601260045260246000fd5b600082614102576141026140dd565b500490565b60006001600160a01b03808716835280861660208401525083604083015260806060830152614139608083018461370b565b9695505050505050565b60006020828403121561415557600080fd5b81516001600160e01b03198116811461077657600080fd5b60008282101561417f5761417f613eb4565b500390565b600082614193576141936140dd565b500690565b600082198211156141ab576141ab613eb4565b500190565b634e487b7160e01b600052603160045260246000fdfea26469706673582212209a57c40e33359014c462b81e4d500435d1e8b09fcc2d0e73a3965e74180f7c0f64736f6c634300080f0033",
  "devdoc": {
    "author": "Decentralized Foundation Team",
    "kind": "dev",
    "methods": {
      "getGemIds()": {
        "returns": {
          "_0": "array with token Ids"
        }
      },
      "getGemIdsOf(address)": {
        "params": {
          "_user": "gemHolder to get gemsOf"
        },
        "returns": {
          "_0": "array with token Ids"
        }
      },
      "getGemInfo(uint256)": {
        "params": {
          "_tokenId": "gem Id"
        },
        "returns": {
          "_0": "Gem structure with all the details, excluding the gem type and protocol configuration, which is returned by IConfig facet"
        }
      },
      "getGemsInfo()": {
        "returns": {
          "_0": "array of the Ids and array of the Gem structurs"
        }
      },
      "getMintWindow(uint8)": {
        "returns": {
          "_0": "GemTypeMintWindow mint window structure"
        }
      },
      "mint(uint8)": {
        "details": "takes payment for mint and passes to the internal _mint function"
      }
    },
    "title": "YieldGemFacet EIP-2535 Diamond Facet",
    "version": 1
  },
  "userdoc": {
    "kind": "user",
    "methods": {
      "getGemIds()": {
        "notice": "Lists gem IDs the requester holds"
      },
      "getGemIdsOf(address)": {
        "notice": "Lists gem IDs of a user"
      },
      "getGemInfo(uint256)": {
        "notice": "Get detailed status of the Gem, including financial details"
      },
      "getGemsInfo()": {
        "notice": "Get detailed status of all the yield gems the requester holds"
      },
      "getMintWindow(uint8)": {
        "notice": "mint count limitations details"
      },
      "mintTo(uint8,address,uint8)": {
        "notice": "For redeem usage"
      }
    },
    "notice": "Basic DEFO-specific mint functionality on top of the ERC721 standard",
    "version": 1
  },
  "storageLayout": {
    "storage": [
      {
        "astId": 4283,
        "contract": "contracts/facets/YieldGemFacet.sol:YieldGemFacet",
        "label": "s",
        "offset": 0,
        "slot": "0",
        "type": "t_struct(AppStorage)4537_storage"
      }
    ],
    "types": {
      "t_address": {
        "encoding": "inplace",
        "label": "address",
        "numberOfBytes": "20"
      },
      "t_array(t_address)7_storage": {
        "base": "t_address",
        "encoding": "inplace",
        "label": "address[7]",
        "numberOfBytes": "224"
      },
      "t_array(t_array(t_uint256)3_storage)2_storage": {
        "base": "t_array(t_uint256)3_storage",
        "encoding": "inplace",
        "label": "uint256[3][2]",
        "numberOfBytes": "192"
      },
      "t_array(t_contract(IERC20)737)2_storage": {
        "base": "t_contract(IERC20)737",
        "encoding": "inplace",
        "label": "contract IERC20[2]",
        "numberOfBytes": "64"
      },
      "t_array(t_struct(GemTypeConfig)4429_storage)dyn_storage": {
        "base": "t_struct(GemTypeConfig)4429_storage",
        "encoding": "dynamic_array",
        "label": "struct GemTypeConfig[]",
        "numberOfBytes": "32"
      },
      "t_array(t_struct(GemTypeMintWindow)4434_storage)dyn_storage": {
        "base": "t_struct(GemTypeMintWindow)4434_storage",
        "encoding": "dynamic_array",
        "label": "struct GemTypeMintWindow[]",
        "numberOfBytes": "32"
      },
      "t_array(t_uint256)2_storage": {
        "base": "t_uint256",
        "encoding": "inplace",
        "label": "uint256[2]",
        "numberOfBytes": "64"
      },
      "t_array(t_uint256)3_storage": {
        "base": "t_uint256",
        "encoding": "inplace",
        "label": "uint256[3]",
        "numberOfBytes": "96"
      },
      "t_array(t_uint256)5_storage": {
        "base": "t_uint256",
        "encoding": "inplace",
        "label": "uint256[5]",
        "numberOfBytes": "160"
      },
      "t_array(t_uint256)dyn_storage": {
        "base": "t_uint256",
        "encoding": "dynamic_array",
        "label": "uint256[]",
        "numberOfBytes": "32"
      },
      "t_bool": {
        "encoding": "inplace",
        "label": "bool",
        "numberOfBytes": "1"
      },
      "t_contract(IERC20)737": {
        "encoding": "inplace",
        "label": "contract IERC20",
        "numberOfBytes": "20"
      },
      "t_enum(Booster)4456": {
        "encoding": "inplace",
        "label": "enum Booster",
        "numberOfBytes": "1"
      },
      "t_mapping(t_address,t_bool)": {
        "encoding": "mapping",
        "key": "t_address",
        "label": "mapping(address => bool)",
        "numberOfBytes": "32",
        "value": "t_bool"
      },
      "t_mapping(t_address,t_mapping(t_address,t_bool))": {
        "encoding": "mapping",
        "key": "t_address",
        "label": "mapping(address => mapping(address => bool))",
        "numberOfBytes": "32",
        "value": "t_mapping(t_address,t_bool)"
      },
      "t_mapping(t_address,t_mapping(t_uint256,t_uint256))": {
        "encoding": "mapping",
        "key": "t_address",
        "label": "mapping(address => mapping(uint256 => uint256))",
        "numberOfBytes": "32",
        "value": "t_mapping(t_uint256,t_uint256)"
      },
      "t_mapping(t_address,t_mapping(t_uint8,t_mapping(t_enum(Booster)4456,t_uint256)))": {
        "encoding": "mapping",
        "key": "t_address",
        "label": "mapping(address => mapping(uint8 => mapping(enum Booster => uint256)))",
        "numberOfBytes": "32",
        "value": "t_mapping(t_uint8,t_mapping(t_enum(Booster)4456,t_uint256))"
      },
      "t_mapping(t_address,t_struct(Fi)4477_storage)": {
        "encoding": "mapping",
        "key": "t_address",
        "label": "mapping(address => struct Fi)",
        "numberOfBytes": "32",
        "value": "t_struct(Fi)4477_storage"
      },
      "t_mapping(t_address,t_uint256)": {
        "encoding": "mapping",
        "key": "t_address",
        "label": "mapping(address => uint256)",
        "numberOfBytes": "32",
        "value": "t_uint256"
      },
      "t_mapping(t_enum(Booster)4456,t_uint256)": {
        "encoding": "mapping",
        "key": "t_enum(Booster)4456",
        "label": "mapping(enum Booster => uint256)",
        "numberOfBytes": "32",
        "value": "t_uint256"
      },
      "t_mapping(t_uint256,t_address)": {
        "encoding": "mapping",
        "key": "t_uint256",
        "label": "mapping(uint256 => address)",
        "numberOfBytes": "32",
        "value": "t_address"
      },
      "t_mapping(t_uint256,t_struct(Gem)4494_storage)": {
        "encoding": "mapping",
        "key": "t_uint256",
        "label": "mapping(uint256 => struct Gem)",
        "numberOfBytes": "32",
        "value": "t_struct(Gem)4494_storage"
      },
      "t_mapping(t_uint256,t_uint256)": {
        "encoding": "mapping",
        "key": "t_uint256",
        "label": "mapping(uint256 => uint256)",
        "numberOfBytes": "32",
        "value": "t_uint256"
      },
      "t_mapping(t_uint8,t_mapping(t_enum(Booster)4456,t_uint256))": {
        "encoding": "mapping",
        "key": "t_uint8",
        "label": "mapping(uint8 => mapping(enum Booster => uint256))",
        "numberOfBytes": "32",
        "value": "t_mapping(t_enum(Booster)4456,t_uint256)"
      },
      "t_string_storage": {
        "encoding": "bytes",
        "label": "string",
        "numberOfBytes": "32"
      },
      "t_struct(AppStorage)4537_storage": {
        "encoding": "inplace",
        "label": "struct AppStorage",
        "members": [
          {
            "astId": 4497,
            "contract": "contracts/facets/YieldGemFacet.sol:YieldGemFacet",
            "label": "config",
            "offset": 0,
            "slot": "0",
            "type": "t_struct(ProtocolConfig)4416_storage"
          },
          {
            "astId": 4501,
            "contract": "contracts/facets/YieldGemFacet.sol:YieldGemFacet",
            "label": "gemTypes",
            "offset": 0,
            "slot": "28",
            "type": "t_array(t_struct(GemTypeConfig)4429_storage)dyn_storage"
          },
          {
            "astId": 4505,
            "contract": "contracts/facets/YieldGemFacet.sol:YieldGemFacet",
            "label": "gemTypesMintWindows",
            "offset": 0,
            "slot": "29",
            "type": "t_array(t_struct(GemTypeMintWindow)4434_storage)dyn_storage"
          },
          {
            "astId": 4508,
            "contract": "contracts/facets/YieldGemFacet.sol:YieldGemFacet",
            "label": "defoTokenLimitWindow",
            "offset": 0,
            "slot": "30",
            "type": "t_struct(DEFOTokenLimitWindow)4443_storage"
          },
          {
            "astId": 4513,
            "contract": "contracts/facets/YieldGemFacet.sol:YieldGemFacet",
            "label": "gems",
            "offset": 0,
            "slot": "32",
            "type": "t_mapping(t_uint256,t_struct(Gem)4494_storage)"
          },
          {
            "astId": 4516,
            "contract": "contracts/facets/YieldGemFacet.sol:YieldGemFacet",
            "label": "nft",
            "offset": 0,
            "slot": "33",
            "type": "t_struct(ERC721Storage)4351_storage"
          },
          {
            "astId": 4519,
            "contract": "contracts/facets/YieldGemFacet.sol:YieldGemFacet",
            "label": "total",
            "offset": 0,
            "slot": "46",
            "type": "t_struct(Fi)4477_storage"
          },
          {
            "astId": 4524,
            "contract": "contracts/facets/YieldGemFacet.sol:YieldGemFacet",
            "label": "usersFi",
            "offset": 0,
            "slot": "56",
            "type": "t_mapping(t_address,t_struct(Fi)4477_storage)"
          },
          {
            "astId": 4533,
            "contract": "contracts/facets/YieldGemFacet.sol:YieldGemFacet",
            "label": "usersNextGemBooster",
            "offset": 0,
            "slot": "57",
            "type": "t_mapping(t_address,t_mapping(t_uint8,t_mapping(t_enum(Booster)4456,t_uint256)))"
          },
          {
            "astId": 4536,
            "contract": "contracts/facets/YieldGemFacet.sol:YieldGemFacet",
            "label": "defoTokenLimitPerRewards",
            "offset": 0,
            "slot": "58",
            "type": "t_struct(DEFOTokenLimitPerRewards)4452_storage"
          }
        ],
        "numberOfBytes": "1920"
      },
      "t_struct(Counter)2737_storage": {
        "encoding": "inplace",
        "label": "struct Counters.Counter",
        "members": [
          {
            "astId": 2736,
            "contract": "contracts/facets/YieldGemFacet.sol:YieldGemFacet",
            "label": "_value",
            "offset": 0,
            "slot": "0",
            "type": "t_uint256"
          }
        ],
        "numberOfBytes": "32"
      },
      "t_struct(DEFOTokenLimitPerRewards)4452_storage": {
        "encoding": "inplace",
        "label": "struct DEFOTokenLimitPerRewards",
        "members": [
          {
            "astId": 4447,
            "contract": "contracts/facets/YieldGemFacet.sol:YieldGemFacet",
            "label": "tokensSold",
            "offset": 0,
            "slot": "0",
            "type": "t_mapping(t_address,t_uint256)"
          },
          {
            "astId": 4451,
            "contract": "contracts/facets/YieldGemFacet.sol:YieldGemFacet",
            "label": "timeOfWindowStart",
            "offset": 0,
            "slot": "1",
            "type": "t_mapping(t_address,t_uint256)"
          }
        ],
        "numberOfBytes": "64"
      },
      "t_struct(DEFOTokenLimitWindow)4443_storage": {
        "encoding": "inplace",
        "label": "struct DEFOTokenLimitWindow",
        "members": [
          {
            "astId": 4438,
            "contract": "contracts/facets/YieldGemFacet.sol:YieldGemFacet",
            "label": "tokensSold",
            "offset": 0,
            "slot": "0",
            "type": "t_mapping(t_address,t_uint256)"
          },
          {
            "astId": 4442,
            "contract": "contracts/facets/YieldGemFacet.sol:YieldGemFacet",
            "label": "timeOfLastSale",
            "offset": 0,
            "slot": "1",
            "type": "t_mapping(t_address,t_uint256)"
          }
        ],
        "numberOfBytes": "64"
      },
      "t_struct(DefoTokenLimitConfig)4375_storage": {
        "encoding": "inplace",
        "label": "struct DefoTokenLimitConfig",
        "members": [
          {
            "astId": 4370,
            "contract": "contracts/facets/YieldGemFacet.sol:YieldGemFacet",
            "label": "saleLimitPeriod",
            "offset": 0,
            "slot": "0",
            "type": "t_uint256"
          },
          {
            "astId": 4372,
            "contract": "contracts/facets/YieldGemFacet.sol:YieldGemFacet",
            "label": "saleLimitAmount",
            "offset": 0,
            "slot": "1",
            "type": "t_uint256"
          },
          {
            "astId": 4374,
            "contract": "contracts/facets/YieldGemFacet.sol:YieldGemFacet",
            "label": "limitByReward",
            "offset": 0,
            "slot": "2",
            "type": "t_bool"
          }
        ],
        "numberOfBytes": "96"
      },
      "t_struct(ERC721Storage)4351_storage": {
        "encoding": "inplace",
        "label": "struct ERC721Storage",
        "members": [
          {
            "astId": 4306,
            "contract": "contracts/facets/YieldGemFacet.sol:YieldGemFacet",
            "label": "name",
            "offset": 0,
            "slot": "0",
            "type": "t_string_storage"
          },
          {
            "astId": 4308,
            "contract": "contracts/facets/YieldGemFacet.sol:YieldGemFacet",
            "label": "symbol",
            "offset": 0,
            "slot": "1",
            "type": "t_string_storage"
          },
          {
            "astId": 4311,
            "contract": "contracts/facets/YieldGemFacet.sol:YieldGemFacet",
            "label": "tokenIdTracker",
            "offset": 0,
            "slot": "2",
            "type": "t_struct(Counter)2737_storage"
          },
          {
            "astId": 4315,
            "contract": "contracts/facets/YieldGemFacet.sol:YieldGemFacet",
            "label": "owners",
            "offset": 0,
            "slot": "3",
            "type": "t_mapping(t_uint256,t_address)"
          },
          {
            "astId": 4319,
            "contract": "contracts/facets/YieldGemFacet.sol:YieldGemFacet",
            "label": "balances",
            "offset": 0,
            "slot": "4",
            "type": "t_mapping(t_address,t_uint256)"
          },
          {
            "astId": 4323,
            "contract": "contracts/facets/YieldGemFacet.sol:YieldGemFacet",
            "label": "tokenApprovals",
            "offset": 0,
            "slot": "5",
            "type": "t_mapping(t_uint256,t_address)"
          },
          {
            "astId": 4329,
            "contract": "contracts/facets/YieldGemFacet.sol:YieldGemFacet",
            "label": "operatorApprovals",
            "offset": 0,
            "slot": "6",
            "type": "t_mapping(t_address,t_mapping(t_address,t_bool))"
          },
          {
            "astId": 4331,
            "contract": "contracts/facets/YieldGemFacet.sol:YieldGemFacet",
            "label": "baseURI",
            "offset": 0,
            "slot": "7",
            "type": "t_string_storage"
          },
          {
            "astId": 4337,
            "contract": "contracts/facets/YieldGemFacet.sol:YieldGemFacet",
            "label": "ownedTokens",
            "offset": 0,
            "slot": "8",
            "type": "t_mapping(t_address,t_mapping(t_uint256,t_uint256))"
          },
          {
            "astId": 4341,
            "contract": "contracts/facets/YieldGemFacet.sol:YieldGemFacet",
            "label": "ownedTokensIndex",
            "offset": 0,
            "slot": "9",
            "type": "t_mapping(t_uint256,t_uint256)"
          },
          {
            "astId": 4344,
            "contract": "contracts/facets/YieldGemFacet.sol:YieldGemFacet",
            "label": "allTokens",
            "offset": 0,
            "slot": "10",
            "type": "t_array(t_uint256)dyn_storage"
          },
          {
            "astId": 4348,
            "contract": "contracts/facets/YieldGemFacet.sol:YieldGemFacet",
            "label": "allTokensIndex",
            "offset": 0,
            "slot": "11",
            "type": "t_mapping(t_uint256,t_uint256)"
          },
          {
            "astId": 4350,
            "contract": "contracts/facets/YieldGemFacet.sol:YieldGemFacet",
            "label": "init",
            "offset": 0,
            "slot": "12",
            "type": "t_bool"
          }
        ],
        "numberOfBytes": "416"
      },
      "t_struct(Fi)4477_storage": {
        "encoding": "inplace",
        "label": "struct Fi",
        "members": [
          {
            "astId": 4458,
            "contract": "contracts/facets/YieldGemFacet.sol:YieldGemFacet",
            "label": "claimedGross",
            "offset": 0,
            "slot": "0",
            "type": "t_uint256"
          },
          {
            "astId": 4460,
            "contract": "contracts/facets/YieldGemFacet.sol:YieldGemFacet",
            "label": "claimedNet",
            "offset": 0,
            "slot": "1",
            "type": "t_uint256"
          },
          {
            "astId": 4462,
            "contract": "contracts/facets/YieldGemFacet.sol:YieldGemFacet",
            "label": "stakedGross",
            "offset": 0,
            "slot": "2",
            "type": "t_uint256"
          },
          {
            "astId": 4464,
            "contract": "contracts/facets/YieldGemFacet.sol:YieldGemFacet",
            "label": "stakedNet",
            "offset": 0,
            "slot": "3",
            "type": "t_uint256"
          },
          {
            "astId": 4466,
            "contract": "contracts/facets/YieldGemFacet.sol:YieldGemFacet",
            "label": "unStakedGross",
            "offset": 0,
            "slot": "4",
            "type": "t_uint256"
          },
          {
            "astId": 4468,
            "contract": "contracts/facets/YieldGemFacet.sol:YieldGemFacet",
            "label": "unStakedGrossUp",
            "offset": 0,
            "slot": "5",
            "type": "t_uint256"
          },
          {
            "astId": 4470,
            "contract": "contracts/facets/YieldGemFacet.sol:YieldGemFacet",
            "label": "unStakedNet",
            "offset": 0,
            "slot": "6",
            "type": "t_uint256"
          },
          {
            "astId": 4472,
            "contract": "contracts/facets/YieldGemFacet.sol:YieldGemFacet",
            "label": "donated",
            "offset": 0,
            "slot": "7",
            "type": "t_uint256"
          },
          {
            "astId": 4474,
            "contract": "contracts/facets/YieldGemFacet.sol:YieldGemFacet",
            "label": "claimTaxPaid",
            "offset": 0,
            "slot": "8",
            "type": "t_uint256"
          },
          {
            "astId": 4476,
            "contract": "contracts/facets/YieldGemFacet.sol:YieldGemFacet",
            "label": "vaultTaxPaid",
            "offset": 0,
            "slot": "9",
            "type": "t_uint256"
          }
        ],
        "numberOfBytes": "320"
      },
      "t_struct(Gem)4494_storage": {
        "encoding": "inplace",
        "label": "struct Gem",
        "members": [
          {
            "astId": 4479,
            "contract": "contracts/facets/YieldGemFacet.sol:YieldGemFacet",
            "label": "gemTypeId",
            "offset": 0,
            "slot": "0",
            "type": "t_uint8"
          },
          {
            "astId": 4482,
            "contract": "contracts/facets/YieldGemFacet.sol:YieldGemFacet",
            "label": "booster",
            "offset": 1,
            "slot": "0",
            "type": "t_enum(Booster)4456"
          },
          {
            "astId": 4484,
            "contract": "contracts/facets/YieldGemFacet.sol:YieldGemFacet",
            "label": "mintTime",
            "offset": 2,
            "slot": "0",
            "type": "t_uint32"
          },
          {
            "astId": 4486,
            "contract": "contracts/facets/YieldGemFacet.sol:YieldGemFacet",
            "label": "lastRewardWithdrawalTime",
            "offset": 6,
            "slot": "0",
            "type": "t_uint32"
          },
          {
            "astId": 4488,
            "contract": "contracts/facets/YieldGemFacet.sol:YieldGemFacet",
            "label": "lastMaintenanceTime",
            "offset": 10,
            "slot": "0",
            "type": "t_uint32"
          },
          {
            "astId": 4491,
            "contract": "contracts/facets/YieldGemFacet.sol:YieldGemFacet",
            "label": "fi",
            "offset": 0,
            "slot": "1",
            "type": "t_struct(Fi)4477_storage"
          },
          {
            "astId": 4493,
            "contract": "contracts/facets/YieldGemFacet.sol:YieldGemFacet",
            "label": "presold",
            "offset": 0,
            "slot": "11",
            "type": "t_bool"
          }
        ],
        "numberOfBytes": "384"
      },
      "t_struct(GemTypeConfig)4429_storage": {
        "encoding": "inplace",
        "label": "struct GemTypeConfig",
        "members": [
          {
            "astId": 4418,
            "contract": "contracts/facets/YieldGemFacet.sol:YieldGemFacet",
            "label": "maintenanceFeeDai",
            "offset": 0,
            "slot": "0",
            "type": "t_uint256"
          },
          {
            "astId": 4420,
            "contract": "contracts/facets/YieldGemFacet.sol:YieldGemFacet",
            "label": "rewardAmountDefo",
            "offset": 0,
            "slot": "1",
            "type": "t_uint256"
          },
          {
            "astId": 4424,
            "contract": "contracts/facets/YieldGemFacet.sol:YieldGemFacet",
            "label": "price",
            "offset": 0,
            "slot": "2",
            "type": "t_array(t_uint256)2_storage"
          },
          {
            "astId": 4426,
            "contract": "contracts/facets/YieldGemFacet.sol:YieldGemFacet",
            "label": "taperRewardsThresholdDefo",
            "offset": 0,
            "slot": "4",
            "type": "t_uint256"
          },
          {
            "astId": 4428,
            "contract": "contracts/facets/YieldGemFacet.sol:YieldGemFacet",
            "label": "maxMintsPerLimitWindow",
            "offset": 0,
            "slot": "5",
            "type": "t_uint256"
          }
        ],
        "numberOfBytes": "192"
      },
      "t_struct(GemTypeMintWindow)4434_storage": {
        "encoding": "inplace",
        "label": "struct GemTypeMintWindow",
        "members": [
          {
            "astId": 4431,
            "contract": "contracts/facets/YieldGemFacet.sol:YieldGemFacet",
            "label": "mintCount",
            "offset": 0,
            "slot": "0",
            "type": "t_uint256"
          },
          {
            "astId": 4433,
            "contract": "contracts/facets/YieldGemFacet.sol:YieldGemFacet",
            "label": "endOfMintLimitWindow",
            "offset": 0,
            "slot": "1",
            "type": "t_uint32"
          }
        ],
        "numberOfBytes": "64"
      },
      "t_struct(ProtocolConfig)4416_storage": {
        "encoding": "inplace",
        "label": "struct ProtocolConfig",
        "members": [
          {
            "astId": 4380,
            "contract": "contracts/facets/YieldGemFacet.sol:YieldGemFacet",
            "label": "paymentTokens",
            "offset": 0,
            "slot": "0",
            "type": "t_array(t_contract(IERC20)737)2_storage"
          },
          {
            "astId": 4384,
            "contract": "contracts/facets/YieldGemFacet.sol:YieldGemFacet",
            "label": "wallets",
            "offset": 0,
            "slot": "2",
            "type": "t_array(t_address)7_storage"
          },
          {
            "astId": 4390,
            "contract": "contracts/facets/YieldGemFacet.sol:YieldGemFacet",
            "label": "incomeDistributionOnMint",
            "offset": 0,
            "slot": "9",
            "type": "t_array(t_array(t_uint256)3_storage)2_storage"
          },
          {
            "astId": 4392,
            "contract": "contracts/facets/YieldGemFacet.sol:YieldGemFacet",
            "label": "maintenancePeriod",
            "offset": 0,
            "slot": "15",
            "type": "t_uint32"
          },
          {
            "astId": 4394,
            "contract": "contracts/facets/YieldGemFacet.sol:YieldGemFacet",
            "label": "rewardPeriod",
            "offset": 4,
            "slot": "15",
            "type": "t_uint32"
          },
          {
            "astId": 4396,
            "contract": "contracts/facets/YieldGemFacet.sol:YieldGemFacet",
            "label": "taxScaleSinceLastClaimPeriod",
            "offset": 8,
            "slot": "15",
            "type": "t_uint32"
          },
          {
            "astId": 4400,
            "contract": "contracts/facets/YieldGemFacet.sol:YieldGemFacet",
            "label": "taxRates",
            "offset": 0,
            "slot": "16",
            "type": "t_array(t_uint256)5_storage"
          },
          {
            "astId": 4402,
            "contract": "contracts/facets/YieldGemFacet.sol:YieldGemFacet",
            "label": "charityContributionRate",
            "offset": 0,
            "slot": "21",
            "type": "t_uint256"
          },
          {
            "astId": 4404,
            "contract": "contracts/facets/YieldGemFacet.sol:YieldGemFacet",
            "label": "vaultWithdrawalTaxRate",
            "offset": 0,
            "slot": "22",
            "type": "t_uint256"
          },
          {
            "astId": 4406,
            "contract": "contracts/facets/YieldGemFacet.sol:YieldGemFacet",
            "label": "taperRate",
            "offset": 0,
            "slot": "23",
            "type": "t_uint256"
          },
          {
            "astId": 4408,
            "contract": "contracts/facets/YieldGemFacet.sol:YieldGemFacet",
            "label": "mintLock",
            "offset": 0,
            "slot": "24",
            "type": "t_bool"
          },
          {
            "astId": 4410,
            "contract": "contracts/facets/YieldGemFacet.sol:YieldGemFacet",
            "label": "transferLock",
            "offset": 1,
            "slot": "24",
            "type": "t_bool"
          },
          {
            "astId": 4412,
            "contract": "contracts/facets/YieldGemFacet.sol:YieldGemFacet",
            "label": "mintLimitWindow",
            "offset": 2,
            "slot": "24",
            "type": "t_uint32"
          },
          {
            "astId": 4415,
            "contract": "contracts/facets/YieldGemFacet.sol:YieldGemFacet",
            "label": "defoTokenLimitConfig",
            "offset": 0,
            "slot": "25",
            "type": "t_struct(DefoTokenLimitConfig)4375_storage"
          }
        ],
        "numberOfBytes": "896"
      },
      "t_uint256": {
        "encoding": "inplace",
        "label": "uint256",
        "numberOfBytes": "32"
      },
      "t_uint32": {
        "encoding": "inplace",
        "label": "uint32",
        "numberOfBytes": "4"
      },
      "t_uint8": {
        "encoding": "inplace",
        "label": "uint8",
        "numberOfBytes": "1"
      }
    }
  }
}