{
  "address": "0x5D34F245512F0220171043b8E7454E720dCb4361",
  "abi": [
    {
      "anonymous": false,
      "inputs": [
        {
          "indexed": true,
          "internalType": "address",
          "name": "owner",
          "type": "address"
        },
        {
          "indexed": true,
          "internalType": "address",
          "name": "approved",
          "type": "address"
        },
        {
          "indexed": true,
          "internalType": "uint256",
          "name": "tokenId",
          "type": "uint256"
        }
      ],
      "name": "Approval",
      "type": "event"
    },
    {
      "anonymous": false,
      "inputs": [
        {
          "indexed": true,
          "internalType": "address",
          "name": "owner",
          "type": "address"
        },
        {
          "indexed": true,
          "internalType": "address",
          "name": "operator",
          "type": "address"
        },
        {
          "indexed": false,
          "internalType": "bool",
          "name": "approved",
          "type": "bool"
        }
      ],
      "name": "ApprovalForAll",
      "type": "event"
    },
    {
      "anonymous": false,
      "inputs": [
        {
          "indexed": true,
          "internalType": "address",
          "name": "from",
          "type": "address"
        },
        {
          "indexed": true,
          "internalType": "address",
          "name": "to",
          "type": "address"
        },
        {
          "indexed": true,
          "internalType": "uint256",
          "name": "tokenId",
          "type": "uint256"
        }
      ],
      "name": "Transfer",
      "type": "event"
    },
    {
      "inputs": [
        {
          "internalType": "address",
          "name": "_to",
          "type": "address"
        },
        {
          "internalType": "uint256",
          "name": "_tokenId",
          "type": "uint256"
        }
      ],
      "name": "approve",
      "outputs": [],
      "stateMutability": "nonpayable",
      "type": "function"
    },
    {
      "inputs": [
        {
          "internalType": "address",
          "name": "_owner",
          "type": "address"
        }
      ],
      "name": "balanceOf",
      "outputs": [
        {
          "internalType": "uint256",
          "name": "balance",
          "type": "uint256"
        }
      ],
      "stateMutability": "view",
      "type": "function"
    },
    {
      "inputs": [
        {
          "internalType": "uint256",
          "name": "tokenId",
          "type": "uint256"
        }
      ],
      "name": "burn",
      "outputs": [],
      "stateMutability": "nonpayable",
      "type": "function"
    },
    {
      "inputs": [
        {
          "internalType": "address",
          "name": "_to",
          "type": "address"
        },
        {
          "internalType": "uint8",
          "name": "_gemType",
          "type": "uint8"
        },
        {
          "internalType": "enum Booster",
          "name": "_booster",
          "type": "uint8"
        }
      ],
      "name": "createBooster",
      "outputs": [],
      "stateMutability": "nonpayable",
      "type": "function"
    },
    {
      "inputs": [
        {
          "internalType": "uint256",
          "name": "_tokenId",
          "type": "uint256"
        }
      ],
      "name": "getApproved",
      "outputs": [
        {
          "internalType": "address",
          "name": "operator",
          "type": "address"
        }
      ],
      "stateMutability": "view",
      "type": "function"
    },
    {
      "inputs": [
        {
          "internalType": "address",
          "name": "_to",
          "type": "address"
        },
        {
          "internalType": "uint8",
          "name": "_gemType",
          "type": "uint8"
        },
        {
          "internalType": "enum Booster",
          "name": "_booster",
          "type": "uint8"
        }
      ],
      "name": "getBooster",
      "outputs": [
        {
          "internalType": "uint256",
          "name": "",
          "type": "uint256"
        }
      ],
      "stateMutability": "view",
      "type": "function"
    },
    {
      "inputs": [],
      "name": "getGemIds",
      "outputs": [
        {
          "internalType": "uint256[]",
          "name": "",
          "type": "uint256[]"
        }
      ],
      "stateMutability": "view",
      "type": "function"
    },
    {
      "inputs": [
        {
          "internalType": "address",
          "name": "_user",
          "type": "address"
        }
      ],
      "name": "getGemIdsOf",
      "outputs": [
        {
          "internalType": "uint256[]",
          "name": "",
          "type": "uint256[]"
        }
      ],
      "stateMutability": "view",
      "type": "function"
    },
    {
      "inputs": [
        {
          "internalType": "uint256",
          "name": "_tokenId",
          "type": "uint256"
        }
      ],
      "name": "getGemInfo",
      "outputs": [
        {
          "components": [
            {
              "internalType": "uint8",
              "name": "gemTypeId",
              "type": "uint8"
            },
            {
              "internalType": "enum Booster",
              "name": "booster",
              "type": "uint8"
            },
            {
              "internalType": "uint32",
              "name": "mintTime",
              "type": "uint32"
            },
            {
              "internalType": "uint32",
              "name": "lastRewardWithdrawalTime",
              "type": "uint32"
            },
            {
              "internalType": "uint32",
              "name": "lastMaintenanceTime",
              "type": "uint32"
            },
            {
              "components": [
                {
                  "internalType": "uint256",
                  "name": "claimedGross",
                  "type": "uint256"
                },
                {
                  "internalType": "uint256",
                  "name": "claimedNet",
                  "type": "uint256"
                },
                {
                  "internalType": "uint256",
                  "name": "stakedGross",
                  "type": "uint256"
                },
                {
                  "internalType": "uint256",
                  "name": "stakedNet",
                  "type": "uint256"
                },
                {
                  "internalType": "uint256",
                  "name": "unStakedGross",
                  "type": "uint256"
                },
                {
                  "internalType": "uint256",
                  "name": "unStakedGrossUp",
                  "type": "uint256"
                },
                {
                  "internalType": "uint256",
                  "name": "unStakedNet",
                  "type": "uint256"
                },
                {
                  "internalType": "uint256",
                  "name": "donated",
                  "type": "uint256"
                },
                {
                  "internalType": "uint256",
                  "name": "claimTaxPaid",
                  "type": "uint256"
                },
                {
                  "internalType": "uint256",
                  "name": "vaultTaxPaid",
                  "type": "uint256"
                }
              ],
              "internalType": "struct Fi",
              "name": "fi",
              "type": "tuple"
            },
            {
              "internalType": "bool",
              "name": "presold",
              "type": "bool"
            }
          ],
          "internalType": "struct Gem",
          "name": "",
          "type": "tuple"
        }
      ],
      "stateMutability": "view",
      "type": "function"
    },
    {
      "inputs": [],
      "name": "getGemsInfo",
      "outputs": [
        {
          "internalType": "uint256[]",
          "name": "",
          "type": "uint256[]"
        },
        {
          "components": [
            {
              "internalType": "uint8",
              "name": "gemTypeId",
              "type": "uint8"
            },
            {
              "internalType": "enum Booster",
              "name": "booster",
              "type": "uint8"
            },
            {
              "internalType": "uint32",
              "name": "mintTime",
              "type": "uint32"
            },
            {
              "internalType": "uint32",
              "name": "lastRewardWithdrawalTime",
              "type": "uint32"
            },
            {
              "internalType": "uint32",
              "name": "lastMaintenanceTime",
              "type": "uint32"
            },
            {
              "components": [
                {
                  "internalType": "uint256",
                  "name": "claimedGross",
                  "type": "uint256"
                },
                {
                  "internalType": "uint256",
                  "name": "claimedNet",
                  "type": "uint256"
                },
                {
                  "internalType": "uint256",
                  "name": "stakedGross",
                  "type": "uint256"
                },
                {
                  "internalType": "uint256",
                  "name": "stakedNet",
                  "type": "uint256"
                },
                {
                  "internalType": "uint256",
                  "name": "unStakedGross",
                  "type": "uint256"
                },
                {
                  "internalType": "uint256",
                  "name": "unStakedGrossUp",
                  "type": "uint256"
                },
                {
                  "internalType": "uint256",
                  "name": "unStakedNet",
                  "type": "uint256"
                },
                {
                  "internalType": "uint256",
                  "name": "donated",
                  "type": "uint256"
                },
                {
                  "internalType": "uint256",
                  "name": "claimTaxPaid",
                  "type": "uint256"
                },
                {
                  "internalType": "uint256",
                  "name": "vaultTaxPaid",
                  "type": "uint256"
                }
              ],
              "internalType": "struct Fi",
              "name": "fi",
              "type": "tuple"
            },
            {
              "internalType": "bool",
              "name": "presold",
              "type": "bool"
            }
          ],
          "internalType": "struct Gem[]",
          "name": "",
          "type": "tuple[]"
        }
      ],
      "stateMutability": "view",
      "type": "function"
    },
    {
      "inputs": [
        {
          "internalType": "uint8",
          "name": "_gemTypeId",
          "type": "uint8"
        }
      ],
      "name": "getMintWindow",
      "outputs": [
        {
          "components": [
            {
              "internalType": "uint256",
              "name": "mintCount",
              "type": "uint256"
            },
            {
              "internalType": "uint32",
              "name": "endOfMintLimitWindow",
              "type": "uint32"
            }
          ],
          "internalType": "struct GemTypeMintWindow",
          "name": "",
          "type": "tuple"
        }
      ],
      "stateMutability": "view",
      "type": "function"
    },
    {
      "inputs": [
        {
          "internalType": "string",
          "name": "_name",
          "type": "string"
        },
        {
          "internalType": "string",
          "name": "_symbol",
          "type": "string"
        }
      ],
      "name": "initializeERC721Facet",
      "outputs": [],
      "stateMutability": "nonpayable",
      "type": "function"
    },
    {
      "inputs": [],
      "name": "initialized",
      "outputs": [
        {
          "internalType": "bool",
          "name": "",
          "type": "bool"
        }
      ],
      "stateMutability": "view",
      "type": "function"
    },
    {
      "inputs": [
        {
          "internalType": "address",
          "name": "owner",
          "type": "address"
        },
        {
          "internalType": "address",
          "name": "operator",
          "type": "address"
        }
      ],
      "name": "isApprovedForAll",
      "outputs": [
        {
          "internalType": "bool",
          "name": "",
          "type": "bool"
        }
      ],
      "stateMutability": "view",
      "type": "function"
    },
    {
      "inputs": [
        {
          "internalType": "uint8",
          "name": "_gemType",
          "type": "uint8"
        }
      ],
      "name": "isMintAvailable",
      "outputs": [
        {
          "internalType": "bool",
          "name": "",
          "type": "bool"
        }
      ],
      "stateMutability": "view",
      "type": "function"
    },
    {
      "inputs": [
        {
          "internalType": "uint8",
          "name": "_gemTypeId",
          "type": "uint8"
        }
      ],
      "name": "mint",
      "outputs": [],
      "stateMutability": "nonpayable",
      "type": "function"
    },
    {
      "inputs": [
        {
          "internalType": "uint8",
          "name": "_gemType",
          "type": "uint8"
        },
        {
          "internalType": "address",
          "name": "_to",
          "type": "address"
        },
        {
          "internalType": "enum Booster",
          "name": "_booster",
          "type": "uint8"
        }
      ],
      "name": "mintTo",
      "outputs": [],
      "stateMutability": "nonpayable",
      "type": "function"
    },
    {
      "inputs": [
        {
          "internalType": "uint8[]",
          "name": "_gemType",
          "type": "uint8[]"
        },
        {
          "internalType": "address[]",
          "name": "_to",
          "type": "address[]"
        },
        {
          "internalType": "enum Booster[]",
          "name": "_booster",
          "type": "uint8[]"
        },
        {
          "internalType": "uint8[]",
          "name": "_number",
          "type": "uint8[]"
        }
      ],
      "name": "mintToBulk",
      "outputs": [],
      "stateMutability": "nonpayable",
      "type": "function"
    },
    {
      "inputs": [
        {
          "internalType": "uint8",
          "name": "_gemType",
          "type": "uint8"
        },
        {
          "internalType": "address",
          "name": "_to",
          "type": "address"
        },
        {
          "internalType": "enum Booster",
          "name": "_booster",
          "type": "uint8"
        },
        {
          "internalType": "uint8",
          "name": "_number",
          "type": "uint8"
        }
      ],
      "name": "mintToFew",
      "outputs": [],
      "stateMutability": "nonpayable",
      "type": "function"
    },
    {
      "inputs": [],
      "name": "name",
      "outputs": [
        {
          "internalType": "string",
          "name": "",
          "type": "string"
        }
      ],
      "stateMutability": "view",
      "type": "function"
    },
    {
      "inputs": [
        {
          "internalType": "uint256",
          "name": "_tokenId",
          "type": "uint256"
        }
      ],
      "name": "ownerOf",
      "outputs": [
        {
          "internalType": "address",
          "name": "",
          "type": "address"
        }
      ],
      "stateMutability": "view",
      "type": "function"
    },
    {
      "inputs": [
        {
          "internalType": "address",
          "name": "_to",
          "type": "address"
        },
        {
          "internalType": "uint8",
          "name": "_gemType",
          "type": "uint8"
        },
        {
          "internalType": "enum Booster",
          "name": "_booster",
          "type": "uint8"
        }
      ],
      "name": "removeBooster",
      "outputs": [],
      "stateMutability": "nonpayable",
      "type": "function"
    },
    {
      "inputs": [
        {
          "internalType": "address",
          "name": "_from",
          "type": "address"
        },
        {
          "internalType": "address",
          "name": "_to",
          "type": "address"
        },
        {
          "internalType": "uint256",
          "name": "_tokenId",
          "type": "uint256"
        }
      ],
      "name": "safeTransferFrom",
      "outputs": [],
      "stateMutability": "nonpayable",
      "type": "function"
    },
    {
      "inputs": [
        {
          "internalType": "address",
          "name": "_from",
          "type": "address"
        },
        {
          "internalType": "address",
          "name": "_to",
          "type": "address"
        },
        {
          "internalType": "uint256",
          "name": "_tokenId",
          "type": "uint256"
        },
        {
          "internalType": "bytes",
          "name": "_data",
          "type": "bytes"
        }
      ],
      "name": "safeTransferFrom",
      "outputs": [],
      "stateMutability": "nonpayable",
      "type": "function"
    },
    {
      "inputs": [
        {
          "internalType": "address",
          "name": "operator",
          "type": "address"
        },
        {
          "internalType": "bool",
          "name": "_approved",
          "type": "bool"
        }
      ],
      "name": "setApprovalForAll",
      "outputs": [],
      "stateMutability": "nonpayable",
      "type": "function"
    },
    {
      "inputs": [],
      "name": "symbol",
      "outputs": [
        {
          "internalType": "string",
          "name": "",
          "type": "string"
        }
      ],
      "stateMutability": "view",
      "type": "function"
    },
    {
      "inputs": [
        {
          "internalType": "uint256",
          "name": "index",
          "type": "uint256"
        }
      ],
      "name": "tokenByIndex",
      "outputs": [
        {
          "internalType": "uint256",
          "name": "",
          "type": "uint256"
        }
      ],
      "stateMutability": "view",
      "type": "function"
    },
    {
      "inputs": [
        {
          "internalType": "address",
          "name": "owner",
          "type": "address"
        },
        {
          "internalType": "uint256",
          "name": "index",
          "type": "uint256"
        }
      ],
      "name": "tokenOfOwnerByIndex",
      "outputs": [
        {
          "internalType": "uint256",
          "name": "",
          "type": "uint256"
        }
      ],
      "stateMutability": "view",
      "type": "function"
    },
    {
      "inputs": [
        {
          "internalType": "uint256",
          "name": "_tokenId",
          "type": "uint256"
        }
      ],
      "name": "tokenURI",
      "outputs": [
        {
          "internalType": "string",
          "name": "",
          "type": "string"
        }
      ],
      "stateMutability": "view",
      "type": "function"
    },
    {
      "inputs": [],
      "name": "totalSupply",
      "outputs": [
        {
          "internalType": "uint256",
          "name": "",
          "type": "uint256"
        }
      ],
      "stateMutability": "view",
      "type": "function"
    },
    {
      "inputs": [
        {
          "internalType": "address",
          "name": "_from",
          "type": "address"
        },
        {
          "internalType": "address",
          "name": "_to",
          "type": "address"
        },
        {
          "internalType": "uint256",
          "name": "_tokenId",
          "type": "uint256"
        }
      ],
      "name": "transferFrom",
      "outputs": [],
      "stateMutability": "nonpayable",
      "type": "function"
    }
  ],
  "transactionHash": "0x7c953159dacecf7020704af8ea83bb56a30fee7c55eba0c22e29fb17a0846b18",
  "args": [],
  "numDeployments": 3,
  "solcInputHash": "71d6641d670e1d97f93437eb81d05dd0",
  "bytecode": "0x608060405234801561001057600080fd5b50613c29806100206000396000f3fe608060405234801561001057600080fd5b50600436106101e55760003560e01c80636ecd23061161010f578063c7b8433a116100a2578063dd1c1d3211610071578063dd1c1d321461043b578063e985e9c51461044e578063ed97c34f1461048a578063fe47041c1461049d57600080fd5b8063c7b8433a146103fa578063c87b56dd1461040d578063ccbb0d7614610420578063ce4d26021461042857600080fd5b806389298700116100de57806389298700146103b957806395d89b41146103cc578063a22cb465146103d4578063b88d4fde146103e757600080fd5b80636ecd230614610360578063703b93431461037357806370a0823114610393578063755ff444146103a657600080fd5b80632f745c59116101875780634e722cad116101565780634e722cad146103075780634f6ccce714610327578063552d40aa1461033a5780636352211e1461034d57600080fd5b80632f745c59146102ce5780633491c42d146102e157806342842e0e1461028757806342966c68146102f457600080fd5b8063158ef93e116101c3578063158ef93e1461025e57806318160ddd1461027557806323b872dd14610287578063287db3401461029a57600080fd5b806306fdde03146101ea578063081812fc14610208578063095ea7b314610249575b600080fd5b6101f26104b3565b6040516101ff91906131c9565b60405180910390f35b6102316102163660046131dc565b6000908152602660205260409020546001600160a01b031690565b6040516001600160a01b0390911681526020016101ff565b61025c61025736600461320c565b610598565b005b602d5460ff165b60405190151581526020016101ff565b602b545b6040519081526020016101ff565b61025c610295366004613236565b6106bf565b6102ad6102a8366004613283565b6106da565b604080518251815260209283015163ffffffff1692810192909252016101ff565b6102796102dc36600461320c565b6106fd565b61025c6102ef3660046132ad565b610710565b61025c6103023660046131dc565b6107e8565b61031a6103153660046132f0565b610868565b6040516101ff9190613346565b6102796103353660046131dc565b610873565b61025c6103483660046132ad565b610902565b61023161035b3660046131dc565b6109d0565b61025c61036e366004613283565b6109db565b6103866103813660046131dc565b610f00565b6040516101ff919061346c565b6102796103a13660046132f0565b61102d565b6102796103b43660046132ad565b6110ba565b61025c6103c736600461347b565b61111c565b6101f261125e565b61025c6103e23660046134dd565b6112ba565b61025c6103f53660046135a0565b611394565b61025c61040836600461361c565b611428565b6101f261041b3660046131dc565b611545565b61031a611680565b61025c610436366004613668565b61169d565b61025c610449366004613718565b6117aa565b61026561045c3660046137dc565b6001600160a01b03918216600090815260276020908152604080832093909416825291909152205460ff1690565b610265610498366004613283565b611a55565b6104a5611a60565b6040516101ff92919061380f565b602d5460609060ff166105075760405162461bcd60e51b8152602060048201526017602482015276115490cdcc8c4e881b9bdd081a5b9a5d1a585b1a5e9959604a1b60448201526064015b60405180910390fd5b6021805461051490613871565b80601f016020809104026020016040519081016040528092919081815260200182805461054090613871565b801561058d5780601f106105625761010080835404028352916020019161058d565b820191906000526020600020905b81548152906001019060200180831161057057829003601f168201915b505050505090505b90565b60006105a382611c57565b9050806001600160a01b0316836001600160a01b0316036106105760405162461bcd60e51b815260206004820152602160248201527f4552433732313a20617070726f76616c20746f2063757272656e74206f776e656044820152603960f91b60648201526084016104fe565b806001600160a01b0316610622611c80565b6001600160a01b0316148061063e575061063e8161045c611c80565b6106b05760405162461bcd60e51b815260206004820152603860248201527f4552433732313a20617070726f76652063616c6c6572206973206e6f74206f7760448201527f6e6572206e6f7220617070726f76656420666f7220616c6c000000000000000060648201526084016104fe565b6106ba8383611cdb565b505050565b6106ba83838360405180602001604052806000815250611394565b60408051808201909152600080825260208201526106f782611d49565b92915050565b60006107098383611e3f565b9392505050565b610718611c80565b6001600160a01b03166002600301546001600160a01b03161480610759575061073f611c80565b6001600160a01b03166002600601546001600160a01b0316145b6107755760405162461bcd60e51b81526004016104fe906138bb565b6001600160a01b038316600090815260396020908152604080832060ff861684529091528120908260028111156107ae576107ae613359565b60028111156107bf576107bf613359565b815260200190815260200160002060008154809291906107de906138f7565b9190505550505050565b6107f96107f3611c80565b82611ed5565b61085c5760405162461bcd60e51b815260206004820152602e60248201527f4552433732313a2063616c6c6572206973206e6f7420746f6b656e206f776e6560448201526d1c881b9bdc88185c1c1c9bdd995960921b60648201526084016104fe565b61086581611f60565b50565b60606106f78261200e565b602b5460009082106108dc5760405162461bcd60e51b815260206004820152602c60248201527f455243373231456e756d657261626c653a20676c6f62616c20696e646578206f60448201526b7574206f6620626f756e647360a01b60648201526084016104fe565b602b8054839081106108f0576108f06138a5565b90600052602060002001549050919050565b61090a611c80565b6001600160a01b03166002600301546001600160a01b0316148061094b5750610931611c80565b6001600160a01b03166002600601546001600160a01b0316145b6109675760405162461bcd60e51b81526004016104fe906138bb565b6001600160a01b038316600090815260396020908152604080832060ff861684529091528120908260028111156109a0576109a0613359565b60028111156109b1576109b1613359565b815260200190815260200160002060008154809291906107de90613910565b60006106f782611c57565b806109e58161213b565b610a285760405162461bcd60e51b815260206004820152601460248201527323b2b69036b4b73a103932b9ba3934b1ba34b7b760611b60448201526064016104fe565b6000610a32611c80565b905060005b6002811015610b5157601c805460ff8616908110610a5757610a576138a5565b90600052602060002090600602016002018160028110610a7957610a796138a5565b015460008260028110610a8e57610a8e6138a5565b01546040516370a0823160e01b81526001600160a01b038581166004830152909116906370a0823190602401602060405180830381865afa158015610ad7573d6000803e3d6000fd5b505050506040513d601f19601f82011682018060405250810190610afb9190613927565b11610b3f5760405162461bcd60e51b8152602060048201526014602482015273496e73756666696369656e742062616c616e636560601b60448201526064016104fe565b80610b49816138f7565b915050610a37565b5060005b6003811015610d3d5760005b6002811015610d2a576000610bdb6000601c018760ff1681548110610b8857610b886138a5565b90600052602060002090600602016002018360028110610baa57610baa6138a5565b015460098460028110610bbf57610bbf6138a5565b600302018560038110610bd457610bd46138a5565b01546122ce565b90508015610d1757600060028460078110610bf857610bf86138a5565b01546001600160a01b031603610c645760405162461bcd60e51b815260206004820152602b60248201527f5969656c6447656d3a20636f6e66696775726174696f6e206572726f722c207a60448201526a65726f206164647265737360a81b60648201526084016104fe565b60008260028110610c7757610c776138a5565b01546001600160a01b03166323b872dd8560028660078110610c9b57610c9b6138a5565b015460405160e084901b6001600160e01b03191681526001600160a01b03928316600482015291166024820152604481018490526064016020604051808303816000875af1158015610cf1573d6000803e3d6000fd5b505050506040513d601f19601f82011682018060405250810190610d159190613940565b505b5080610d22816138f7565b915050610b61565b5080610d35816138f7565b915050610b55565b506004546003906002906001600160a01b0316636a6278428284015460405160e083901b6001600160e01b03191681526001600160a01b0390911660048201526024016020604051808303816000875af1158015610d9f573d6000803e3d6000fd5b505050506040513d601f19601f82011682018060405250810190610dc39190613927565b50600060015b60028111610eeb576001600160a01b038516600090815260396020908152604080832060ff8b168452909152812081836002811115610e0a57610e0a613359565b6002811115610e1b57610e1b613359565b6002811115610e2c57610e2c613359565b8152602001908152602001600020541115610ed957806002811115610e5357610e53613359565b6001600160a01b038616600090815260396020908152604080832060ff8c1684529091528120919350826002811115610e8e57610e8e613359565b6002811115610e9f57610e9f613359565b6002811115610eb057610eb0613359565b81526020019081526020016000206000815480929190610ecf90613910565b9190505550610eeb565b80610ee3816138f7565b915050610dc9565b50610ef78685836122fd565b50505050505050565b610f086130cd565b60008281526020808052604091829020825160e08101909352805460ff80821685529192840191610100909104166002811115610f4757610f47613359565b6002811115610f5857610f58613359565b8152815463ffffffff6201000082048116602080850191909152600160301b83048216604080860191909152600160501b909304909116606080850191909152825161014081018452600186015481526002860154928101929092526003850154928201929092526004840154918101919091526005830154608082810191909152600684015460a080840191909152600785015460c0840152600885015460e08401526009850154610100840152600a85015461012084015290830191909152600b9092015460ff16151591015292915050565b6000816001600160a01b0381166110985760405162461bcd60e51b815260206004820152602960248201527f4552433732313a2061646472657373207a65726f206973206e6f7420612076616044820152683634b21037bbb732b960b91b60648201526084016104fe565b6001600160a01b03831660009081526025602052604090205491505b50919050565b6001600160a01b038316600090815260396020908152604080832060ff861684529091528120818360028111156110f3576110f3613359565b600281111561110457611104613359565b81526020019081526020016000205490509392505050565b611124611c80565b6001600160a01b03166002600301546001600160a01b03161480611165575061114b611c80565b6001600160a01b03166002600601546001600160a01b0316145b6111815760405162461bcd60e51b81526004016104fe906138bb565b60005b8160ff168160ff16101561125757600061119f8686866122fd565b60008181526020805260408120600b01805460ff191660011790559091508460028111156111cf576111cf613359565b1115611244576001600160a01b038516600090815260396020908152604080832060ff8a16845290915281209085600281111561120e5761120e613359565b600281111561121f5761121f613359565b8152602001908152602001600020600081548092919061123e906138f7565b91905055505b508061124f8161395d565b915050611184565b5050505050565b602d5460609060ff166112ad5760405162461bcd60e51b8152602060048201526017602482015276115490cdcc8c4e881b9bdd081a5b9a5d1a585b1a5e9959604a1b60448201526064016104fe565b6022805461051490613871565b60006112c4611c80565b9050826001600160a01b0316816001600160a01b0316036113275760405162461bcd60e51b815260206004820152601960248201527f4552433732313a20617070726f766520746f2063616c6c65720000000000000060448201526064016104fe565b6001600160a01b03818116600081815260276020908152604080832094881680845294825291829020805460ff191687151590811790915591519182527f17307eab39ab6107e8899845ad3d59bd9653f200f220920489ca2b5937696c31910160405180910390a3505050565b600061139e611c80565b90506113aa8184611ed5565b6114105760405162461bcd60e51b815260206004820152603160248201527f4552433732313a207472616e736665722063616c6c6572206973206e6f74206f6044820152701ddb995c881b9bdc88185c1c1c9bdd9959607a1b60648201526084016104fe565b61141d81868686866124ad565b6112578585856125aa565b611430611c80565b6001600160a01b03166002600301546001600160a01b031614806114715750611457611c80565b6001600160a01b03166002600601546001600160a01b0316145b61148d5760405162461bcd60e51b81526004016104fe906138bb565b600061149a8484846122fd565b60008181526020805260408120600b01805460ff191660011790559091508260028111156114ca576114ca613359565b111561153f576001600160a01b038316600090815260396020908152604080832060ff8816845290915281209083600281111561150957611509613359565b600281111561151a5761151a613359565b81526020019081526020016000206000815480929190611539906138f7565b91905055505b50505050565b602d5460609060ff166115945760405162461bcd60e51b8152602060048201526017602482015276115490cdcc8c4e881b9bdd081a5b9a5d1a585b1a5e9959604a1b60448201526064016104fe565b8161159e8161274e565b60288054600091906115af90613871565b80601f01602080910402602001604051908101604052809291908181526020018280546115db90613871565b80156116285780601f106115fd57610100808354040283529160200191611628565b820191906000526020600020905b81548152906001019060200180831161160b57829003601f168201915b50505050509050600081511161164d5760405180602001604052806000815250611678565b80611657856127b2565b60405160200161166892919061397c565b6040516020818303038152906040525b949350505050565b6060600061168c611c80565b90506116978161200e565b91505090565b6116a56128b3565b602d5460ff16156116f85760405162461bcd60e51b815260206004820152601b60248201527f4552433732313a20616c726561647920696e697469616c697a6564000000000060448201526064016104fe565b602161170483826139f1565b50602261171182826139f1565b50507fc8fcad8db84d3cc18b4c41d551ea0ee66dd599cde068d998e57d5e09332c131f602052507fb0f299ecb5b93181be17d5e233721498930c5361f367b1d41c5b827d4fe4d3808054600160ff199182168117909255635b5e139f60e01b6000527f806e5513950c43892aa01780f899fe3e3229f9425b66a2610b01231f5799f44e8054821683179055602d80549091169091179055565b6117b2611c80565b6001600160a01b03166002600301546001600160a01b031614806117f357506117d9611c80565b6001600160a01b03166002600601546001600160a01b0316145b61180f5760405162461bcd60e51b81526004016104fe906138bb565b60005b85811015611a4a5760005b83838381811061182f5761182f6138a5565b90506020020160208101906118449190613283565b60ff168160ff161015611a375760006118d08b8b85818110611868576118686138a5565b905060200201602081019061187d9190613283565b8a8a8681811061188f5761188f6138a5565b90506020020160208101906118a491906132f0565b8989878181106118b6576118b66138a5565b90506020020160208101906118cb9190613ab1565b6122fd565b60008181526020805260408120600b01805460ff19166001179055909150878785818110611900576119006138a5565b90506020020160208101906119159190613ab1565b600281111561192657611926613359565b1115611a2457603960008a8a86818110611942576119426138a5565b905060200201602081019061195791906132f0565b6001600160a01b03166001600160a01b0316815260200190815260200160002060008c8c8681811061198b5761198b6138a5565b90506020020160208101906119a09190613283565b60ff1660ff16815260200190815260200160002060008888868181106119c8576119c86138a5565b90506020020160208101906119dd9190613ab1565b60028111156119ee576119ee613359565b60028111156119ff576119ff613359565b81526020019081526020016000206000815480929190611a1e906138f7565b91905055505b5080611a2f8161395d565b91505061181d565b5080611a42816138f7565b915050611812565b505050505050505050565b60006106f78261213b565b6060806000611a6d611680565b90506000815167ffffffffffffffff811115611a8b57611a8b613514565b604051908082528060200260200182016040528015611ac457816020015b611ab16130cd565b815260200190600190039081611aa95790505b50905060005b8251811015611c4d5760006020016000848381518110611aec57611aec6138a5565b6020908102919091018101518252818101929092526040908101600020815160e08101909252805460ff80821684529293919291840191610100909104166002811115611b3b57611b3b613359565b6002811115611b4c57611b4c613359565b8152815463ffffffff6201000082048116602080850191909152600160301b83048216604080860191909152600160501b909304909116606080850191909152825161014081018452600186015481526002860154928101929092526003850154928201929092526004840154918101919091526005830154608082810191909152600684015460a080840191909152600785015460c0840152600885015460e08401526009850154610100840152600a85015461012084015290830191909152600b9092015460ff1615159101528251839083908110611c2f57611c2f6138a5565b60200260200101819052508080611c45906138f7565b915050611aca565b5090939092509050565b600081611c638161274e565b50506000908152602460205260409020546001600160a01b031690565b6000303303611cd657600080368080601f0160208091040260200160405190810160405280939291908181526020018383808284376000920191909152505050503601516001600160a01b031691506105959050565b503390565b600081815260266020526040902080546001600160a01b0319166001600160a01b0384169081179091558190611d1082611c57565b6001600160a01b03167f8c5be1e5ebec7d5bd14f71427d1e84f3dd0314c0f7b2291e5b200ac8c7c3b92560405160405180910390a45050565b60408051808201909152600080825260208201819052601c5460ff841610611da45760405162461bcd60e51b815260206004820152600e60248201526d57726f6e672067656d207479706560901b60448201526064016104fe565b600081601d018460ff1681548110611dbe57611dbe6138a5565b600091825260209182902060408051808201909152600290920201805482526001015463ffffffff169181018290529150421115610709575b60188201546020820180516201000090920463ffffffff1691611e1b908390613acc565b63ffffffff90811690915260208301511642119050611df757600081529392505050565b6000611e4a8361102d565b8210611eac5760405162461bcd60e51b815260206004820152602b60248201527f455243373231456e756d657261626c653a206f776e657220696e646578206f7560448201526a74206f6620626f756e647360a81b60648201526084016104fe565b506001600160a01b03919091166000908152602960209081526040808320938352929052205490565b600081611ee18161274e565b6000611eec84611c57565b9050806001600160a01b0316856001600160a01b03161480611f3357506001600160a01b0380821660009081526027602090815260408083209389168352929052205460ff165b80611f575750846001600160a01b0316611f4c8561293c565b6001600160a01b0316145b95945050505050565b6000611f6b82611c57565b9050611f7981600084612965565b611f84600083611cdb565b6001600160a01b0381166000908152602560205260408120805491611fa883613910565b909155505060008281526024602052604080822080546001600160a01b0319169055518391906001600160a01b038416907fddf252ad1be2c89b69c2b068fc378daa952ba7f163c4a11628f55a4df523b3ef908390a461200a81600084612b5a565b5050565b6001600160a01b0381166000908152602560205260408120546060918167ffffffffffffffff81111561204357612043613514565b60405190808252806020026020018201604052801561206c578160200160208202803683370190505b50905060005b82811015612133576001600160a01b03851660009081526029602090815260408083208484529091529020546120bf816000908152602460205260409020546001600160a01b0316151590565b6121025760405162461bcd60e51b8152602060048201526014602482015273412067656d20646f65736e27742065786973747360601b60448201526064016104fe565b80838381518110612115576121156138a5565b6020908102919091010152508061212b816138f7565b915050612072565b509392505050565b601c54600090819060ff8416106121855760405162461bcd60e51b815260206004820152600e60248201526d57726f6e672067656d207479706560901b60448201526064016104fe565b600081601c018460ff168154811061219f5761219f6138a5565b90600052602060002090600602016040518060a0016040529081600082015481526020016001820154815260200160028201600280602002604051908101604052809291908260028015612208576020028201915b8154815260200190600101908083116121f4575b50505091835250506004820154602082015260059091015460ff908116604090920191909152601d840180549293506000929091871690811061224d5761224d6138a5565b600091825260209182902060408051808201909152600290920201805482526001015463ffffffff1691810191909152601884015490915060ff16158015611f575750816080015160ff1681600001511080156122b45750806020015163ffffffff164211155b80611f5757506020015163ffffffff164211949350505050565b60008082116122de576000610709565b6122e9606480613aeb565b6122f38385613aeb565b6107099190613b20565b60008061230984612c1c565b905061231485612c51565b61231c6130cd565b60ff8616815263ffffffff4216608082018190526060820181905260408201526020810184600281111561235257612352613359565b9081600281111561236557612365613359565b9052506000828152602080805260409091208251815460ff19811660ff90921691821783559284015184939091839161ffff1916176101008360028111156123af576123af613359565b0217905550604082810151825460608086015160808088015169ffffffffffffffff0000199094166201000063ffffffff9687160269ffffffff000000000000191617600160301b92861692909202919091176dffffffff000000000000000000001916600160501b949093169390930291909117845560a0808601518051600187015560208101516002870155938401516003860155908301516004850155908201516005840155810151600683015560c080820151600784015560e08201516008840155610100820151600984015561012090910151600a83015590910151600b909101805460ff191691151591909117905550949350505050565b823b80156125a257604051630a85bd0160e11b81526001600160a01b0385169063150b7a02906124e7908990899088908890600401613b34565b6020604051808303816000875af1158015612506573d6000803e3d6000fd5b505050506040513d601f19601f8201168201806040525081019061252a9190613b70565b6001600160e01b031916630a85bd0160e11b146125a25760405162461bcd60e51b815260206004820152603060248201527f4465666f45524337323146616365743a205472616e736665722072656a65637460448201526f65642f6661696c6564206279205f746f60801b60648201526084016104fe565b505050505050565b826001600160a01b03166125bd82611c57565b6001600160a01b0316146126215760405162461bcd60e51b815260206004820152602560248201527f4552433732313a207472616e736665722066726f6d20696e636f72726563742060448201526437bbb732b960d91b60648201526084016104fe565b6001600160a01b0382166126835760405162461bcd60e51b8152602060048201526024808201527f4552433732313a207472616e7366657220746f20746865207a65726f206164646044820152637265737360e01b60648201526084016104fe565b61268e838383612965565b612699600082611cdb565b6001600160a01b03831660009081526025602052604081208054916126bd83613910565b90915550506001600160a01b03821660009081526025602052604081208054916126e6836138f7565b909155505060008181526024602052604080822080546001600160a01b0319166001600160a01b0386811691821790925591518493918716917fddf252ad1be2c89b69c2b068fc378daa952ba7f163c4a11628f55a4df523b3ef91a46106ba60008383612b5a565b6000818152602460205260409020546001600160a01b03166108655760405162461bcd60e51b815260206004820152601c60248201527f4552433732313a20746f6b656e4964206973206e6f742076616c69640000000060448201526064016104fe565b6060816000036127d95750506040805180820190915260018152600360fc1b602082015290565b8160005b811561280357806127ed816138f7565b91506127fc9050600a83613b20565b91506127dd565b60008167ffffffffffffffff81111561281e5761281e613514565b6040519080825280601f01601f191660200182016040528015612848576020820181803683370190505b5090505b84156116785761285d600183613b9a565b915061286a600a86613bb1565b612875906030613bc5565b60f81b81838151811061288a5761288a6138a5565b60200101906001600160f81b031916908160001a9053506128ac600a86613b20565b945061284c565b7fc8fcad8db84d3cc18b4c41d551ea0ee66dd599cde068d998e57d5e09332c131c600401546001600160a01b0316331461293a5760405162461bcd60e51b815260206004820152602260248201527f4c69624469616d6f6e643a204d75737420626520636f6e7472616374206f776e60448201526132b960f11b60648201526084016104fe565b565b6000816129488161274e565b50506000908152602660205260409020546001600160a01b031690565b601854610100900460ff16156129c95760405162461bcd60e51b8152602060048201526024808201527f5061757361626c653a207061757365642c207472616e73666572206973206c6f60448201526318dad95960e21b60648201526084016104fe565b604051637e5c923d60e01b81526001600160a01b03808516600483015283166024820152604481018290523090637e5c923d90606401600060405180830381600087803b158015612a1957600080fd5b505af1158015612a2d573d6000803e3d6000fd5b50505050612a3c838383612cf9565b6001600160a01b03831615801590612a5c57506001600160a01b03821615155b156106ba576001600160a01b03808416600090815260386020526040808220928516825281208254815560018084015490820155600280840154908201556003808401549082015560048084015490820155600580840154908201556006808401549082015560078084015490820155600880840154908201556009928301549201919091555b601c5460ff8216101561153f576001600160a01b03848116600090815260396020818152604080842060ff8716808652908352818520600280875290845282862054968a16865293835281852090855282528084209284529190528120919091556001905280612b528161395d565b915050612ae3565b6001600160a01b038316156106ba576001600160a01b038316600090815260386020526040812081815560018101829055600281018290556003810182905560048101829055600581018290556006810182905560078101829055600881018290556009018190555b601c5460ff8216101561153f576001600160a01b038416600090815260396020908152604080832060ff851684528252808320600284529091528082208290556001825281205580612c148161395d565b915050612bc3565b600080612c27611c80565b9050612c3283612d04565b91506110b48160008585604051806020016040528060008152506124ad565b60008081601d018360ff1681548110612c6c57612c6c6138a5565b60009182526020909120600290910201600181015490915063ffffffff16421115612ceb575b601882015460018201805463ffffffff62010000909304831692600091612cbb91859116613acc565b82546101009290920a63ffffffff81810219909316918316021790915560018301541642119050612c9257600081555b80548160006107de836138f7565b6106ba838383612d2e565b6000612d0f60235490565b9050612d1b8282612de6565b612d29602380546001019055565b919050565b6001600160a01b038316612d8957612d8481602b80546000838152602c60205260408120829055600182018355919091527f11c44e4875b74d31ff9fd779bf2566af7bd15b87fc985d01f5094b89e3669e4f0155565b612dac565b816001600160a01b0316836001600160a01b031614612dac57612dac8382612f37565b6001600160a01b038216612dc3576106ba81612fd4565b826001600160a01b0316826001600160a01b0316146106ba576106ba8282613089565b6001600160a01b038216612e3c5760405162461bcd60e51b815260206004820181905260248201527f4552433732313a206d696e7420746f20746865207a65726f206164647265737360448201526064016104fe565b6000818152602460205260409020546001600160a01b031615612ea15760405162461bcd60e51b815260206004820152601c60248201527f4552433732313a20746f6b656e20616c7265616479206d696e7465640000000060448201526064016104fe565b612ead60008383612965565b6001600160a01b0382166000908152602560205260408120805491612ed1836138f7565b909155505060008181526024602052604080822080546001600160a01b0319166001600160a01b03861690811790915590518392907fddf252ad1be2c89b69c2b068fc378daa952ba7f163c4a11628f55a4df523b3ef908290a461200a60008383612b5a565b60006001612f448461102d565b612f4e9190613b9a565b6000838152602a6020526040902054909150808214612fa1576001600160a01b03841660009081526029602090815260408083208584528252808320548484528184208190558352602a90915290208190555b506000918252602a602090815260408084208490556001600160a01b039094168352602981528383209183525290812055565b602b54600090612fe690600190613b9a565b6000838152602c6020526040812054602b805493945090928490811061300e5761300e6138a5565b90600052602060002001549050806000602101600a018381548110613035576130356138a5565b6000918252602080832090910192909255828152602c9091526040808220849055858252812055602b80548061306d5761306d613bdd565b6001900381819060005260206000200160009055905550505050565b60006130948361102d565b6001600160a01b0390931660009081526029602090815260408083208684528252808320859055938252602a9052919091209190915550565b6040805160e08101909152600080825260208201908152602001600063ffffffff168152602001600063ffffffff168152602001600063ffffffff168152602001613164604051806101400160405280600081526020016000815260200160008152602001600081526020016000815260200160008152602001600081526020016000815260200160008152602001600081525090565b8152600060209091015290565b60005b8381101561318c578181015183820152602001613174565b8381111561153f5750506000910152565b600081518084526131b5816020860160208601613171565b601f01601f19169290920160200192915050565b602081526000610709602083018461319d565b6000602082840312156131ee57600080fd5b5035919050565b80356001600160a01b0381168114612d2957600080fd5b6000806040838503121561321f57600080fd5b613228836131f5565b946020939093013593505050565b60008060006060848603121561324b57600080fd5b613254846131f5565b9250613262602085016131f5565b9150604084013590509250925092565b803560ff81168114612d2957600080fd5b60006020828403121561329557600080fd5b61070982613272565b803560038110612d2957600080fd5b6000806000606084860312156132c257600080fd5b6132cb846131f5565b92506132d960208501613272565b91506132e76040850161329e565b90509250925092565b60006020828403121561330257600080fd5b610709826131f5565b600081518084526020808501945080840160005b8381101561333b5781518752958201959082019060010161331f565b509495945050505050565b602081526000610709602083018461330b565b634e487b7160e01b600052602160045260246000fd5b60ff815116825260208101516003811061339957634e487b7160e01b600052602160045260246000fd5b8060208401525060408101516133b7604084018263ffffffff169052565b5060608101516133cf606084018263ffffffff169052565b5060808101516133e7608084018263ffffffff169052565b5060a081015161345b60a0840182805182526020810151602083015260408101516040830152606081015160608301526080810151608083015260a081015160a083015260c081015160c083015260e081015160e08301526101008082015181840152506101208082015181840152505050565b5060c0015115156101e09190910152565b61020081016106f7828461336f565b6000806000806080858703121561349157600080fd5b61349a85613272565b93506134a8602086016131f5565b92506134b66040860161329e565b91506134c460608601613272565b905092959194509250565b801515811461086557600080fd5b600080604083850312156134f057600080fd5b6134f9836131f5565b91506020830135613509816134cf565b809150509250929050565b634e487b7160e01b600052604160045260246000fd5b600067ffffffffffffffff8084111561354557613545613514565b604051601f8501601f19908116603f0116810190828211818310171561356d5761356d613514565b8160405280935085815286868601111561358657600080fd5b858560208301376000602087830101525050509392505050565b600080600080608085870312156135b657600080fd5b6135bf856131f5565b93506135cd602086016131f5565b925060408501359150606085013567ffffffffffffffff8111156135f057600080fd5b8501601f8101871361360157600080fd5b6136108782356020840161352a565b91505092959194509250565b60008060006060848603121561363157600080fd5b61363a84613272565b92506132d9602085016131f5565b600082601f83011261365957600080fd5b6107098383356020850161352a565b6000806040838503121561367b57600080fd5b823567ffffffffffffffff8082111561369357600080fd5b61369f86838701613648565b935060208501359150808211156136b557600080fd5b506136c285828601613648565b9150509250929050565b60008083601f8401126136de57600080fd5b50813567ffffffffffffffff8111156136f657600080fd5b6020830191508360208260051b850101111561371157600080fd5b9250929050565b6000806000806000806000806080898b03121561373457600080fd5b883567ffffffffffffffff8082111561374c57600080fd5b6137588c838d016136cc565b909a50985060208b013591508082111561377157600080fd5b61377d8c838d016136cc565b909850965060408b013591508082111561379657600080fd5b6137a28c838d016136cc565b909650945060608b01359150808211156137bb57600080fd5b506137c88b828c016136cc565b999c989b5096995094979396929594505050565b600080604083850312156137ef57600080fd5b6137f8836131f5565b9150613806602084016131f5565b90509250929050565b604081526000613822604083018561330b565b82810360208481019190915284518083528582019282019060005b818110156138645761385083865161336f565b93830193610200929092019160010161383d565b5090979650505050505050565b600181811c9082168061388557607f821691505b6020821081036110b457634e487b7160e01b600052602260045260246000fd5b634e487b7160e01b600052603260045260246000fd5b6020808252600c908201526b155b985d5d1a1bdc9a5e995960a21b604082015260600190565b634e487b7160e01b600052601160045260246000fd5b600060018201613909576139096138e1565b5060010190565b60008161391f5761391f6138e1565b506000190190565b60006020828403121561393957600080fd5b5051919050565b60006020828403121561395257600080fd5b8151610709816134cf565b600060ff821660ff8103613973576139736138e1565b60010192915050565b6000835161398e818460208801613171565b8351908301906139a2818360208801613171565b01949350505050565b601f8211156106ba57600081815260208120601f850160051c810160208610156139d25750805b601f850160051c820191505b818110156125a2578281556001016139de565b815167ffffffffffffffff811115613a0b57613a0b613514565b613a1f81613a198454613871565b846139ab565b602080601f831160018114613a545760008415613a3c5750858301515b600019600386901b1c1916600185901b1785556125a2565b600085815260208120601f198616915b82811015613a8357888601518255948401946001909101908401613a64565b5085821015613aa15787850151600019600388901b60f8161c191681555b5050505050600190811b01905550565b600060208284031215613ac357600080fd5b6107098261329e565b600063ffffffff8083168185168083038211156139a2576139a26138e1565b6000816000190483118215151615613b0557613b056138e1565b500290565b634e487b7160e01b600052601260045260246000fd5b600082613b2f57613b2f613b0a565b500490565b60006001600160a01b03808716835280861660208401525083604083015260806060830152613b66608083018461319d565b9695505050505050565b600060208284031215613b8257600080fd5b81516001600160e01b03198116811461070957600080fd5b600082821015613bac57613bac6138e1565b500390565b600082613bc057613bc0613b0a565b500690565b60008219821115613bd857613bd86138e1565b500190565b634e487b7160e01b600052603160045260246000fdfea26469706673582212202c2e745da40992b760208c1c76c09978fe8034e88df6d69af02f5928900633b064736f6c634300080f0033",
  "devdoc": {
    "author": "Decentralized Foundation Team",
    "kind": "dev",
    "methods": {
      "getGemIds()": {
        "returns": {
          "_0": "array with token Ids"
        }
      },
      "getGemIdsOf(address)": {
        "params": {
          "_user": "gemHolder to get gemsOf"
        },
        "returns": {
          "_0": "array with token Ids"
        }
      },
      "getGemInfo(uint256)": {
        "params": {
          "_tokenId": "gem Id"
        },
        "returns": {
          "_0": "Gem structure with all the details, excluding the gem type and protocol configuration, which is returned by IConfig facet"
        }
      },
      "getGemsInfo()": {
        "returns": {
          "_0": "array of the Ids and array of the Gem structurs"
        }
      },
      "getMintWindow(uint8)": {
        "returns": {
          "_0": "GemTypeMintWindow mint window structure"
        }
      },
      "mint(uint8)": {
        "details": "takes payment for mint and passes to the internal _mint function"
      }
    },
    "title": "YieldGemFacet EIP-2535 Diamond Facet",
    "version": 1
  },
  "userdoc": {
    "kind": "user",
    "methods": {
      "getGemIds()": {
        "notice": "Lists gem IDs the requester holds"
      },
      "getGemIdsOf(address)": {
        "notice": "Lists gem IDs of a user"
      },
      "getGemInfo(uint256)": {
        "notice": "Get detailed status of the Gem, including financial details"
      },
      "getGemsInfo()": {
        "notice": "Get detailed status of all the yield gems the requester holds"
      },
      "getMintWindow(uint8)": {
        "notice": "mint count limitations details"
      },
      "mintTo(uint8,address,uint8)": {
        "notice": "For redeem usage"
      }
    },
    "notice": "Basic DEFO-specific mint functionality on top of the ERC721 standard",
    "version": 1
  },
  "storageLayout": {
    "storage": [
      {
        "astId": 4283,
        "contract": "contracts/facets/YieldGemFacet.sol:YieldGemFacet",
        "label": "s",
        "offset": 0,
        "slot": "0",
        "type": "t_struct(AppStorage)4537_storage"
      }
    ],
    "types": {
      "t_address": {
        "encoding": "inplace",
        "label": "address",
        "numberOfBytes": "20"
      },
      "t_array(t_address)7_storage": {
        "base": "t_address",
        "encoding": "inplace",
        "label": "address[7]",
        "numberOfBytes": "224"
      },
      "t_array(t_array(t_uint256)3_storage)2_storage": {
        "base": "t_array(t_uint256)3_storage",
        "encoding": "inplace",
        "label": "uint256[3][2]",
        "numberOfBytes": "192"
      },
      "t_array(t_contract(IERC20)737)2_storage": {
        "base": "t_contract(IERC20)737",
        "encoding": "inplace",
        "label": "contract IERC20[2]",
        "numberOfBytes": "64"
      },
      "t_array(t_struct(GemTypeConfig)4429_storage)dyn_storage": {
        "base": "t_struct(GemTypeConfig)4429_storage",
        "encoding": "dynamic_array",
        "label": "struct GemTypeConfig[]",
        "numberOfBytes": "32"
      },
      "t_array(t_struct(GemTypeMintWindow)4434_storage)dyn_storage": {
        "base": "t_struct(GemTypeMintWindow)4434_storage",
        "encoding": "dynamic_array",
        "label": "struct GemTypeMintWindow[]",
        "numberOfBytes": "32"
      },
      "t_array(t_uint256)2_storage": {
        "base": "t_uint256",
        "encoding": "inplace",
        "label": "uint256[2]",
        "numberOfBytes": "64"
      },
      "t_array(t_uint256)3_storage": {
        "base": "t_uint256",
        "encoding": "inplace",
        "label": "uint256[3]",
        "numberOfBytes": "96"
      },
      "t_array(t_uint256)5_storage": {
        "base": "t_uint256",
        "encoding": "inplace",
        "label": "uint256[5]",
        "numberOfBytes": "160"
      },
      "t_array(t_uint256)dyn_storage": {
        "base": "t_uint256",
        "encoding": "dynamic_array",
        "label": "uint256[]",
        "numberOfBytes": "32"
      },
      "t_bool": {
        "encoding": "inplace",
        "label": "bool",
        "numberOfBytes": "1"
      },
      "t_contract(IERC20)737": {
        "encoding": "inplace",
        "label": "contract IERC20",
        "numberOfBytes": "20"
      },
      "t_enum(Booster)4456": {
        "encoding": "inplace",
        "label": "enum Booster",
        "numberOfBytes": "1"
      },
      "t_mapping(t_address,t_bool)": {
        "encoding": "mapping",
        "key": "t_address",
        "label": "mapping(address => bool)",
        "numberOfBytes": "32",
        "value": "t_bool"
      },
      "t_mapping(t_address,t_mapping(t_address,t_bool))": {
        "encoding": "mapping",
        "key": "t_address",
        "label": "mapping(address => mapping(address => bool))",
        "numberOfBytes": "32",
        "value": "t_mapping(t_address,t_bool)"
      },
      "t_mapping(t_address,t_mapping(t_uint256,t_uint256))": {
        "encoding": "mapping",
        "key": "t_address",
        "label": "mapping(address => mapping(uint256 => uint256))",
        "numberOfBytes": "32",
        "value": "t_mapping(t_uint256,t_uint256)"
      },
      "t_mapping(t_address,t_mapping(t_uint8,t_mapping(t_enum(Booster)4456,t_uint256)))": {
        "encoding": "mapping",
        "key": "t_address",
        "label": "mapping(address => mapping(uint8 => mapping(enum Booster => uint256)))",
        "numberOfBytes": "32",
        "value": "t_mapping(t_uint8,t_mapping(t_enum(Booster)4456,t_uint256))"
      },
      "t_mapping(t_address,t_struct(Fi)4477_storage)": {
        "encoding": "mapping",
        "key": "t_address",
        "label": "mapping(address => struct Fi)",
        "numberOfBytes": "32",
        "value": "t_struct(Fi)4477_storage"
      },
      "t_mapping(t_address,t_uint256)": {
        "encoding": "mapping",
        "key": "t_address",
        "label": "mapping(address => uint256)",
        "numberOfBytes": "32",
        "value": "t_uint256"
      },
      "t_mapping(t_enum(Booster)4456,t_uint256)": {
        "encoding": "mapping",
        "key": "t_enum(Booster)4456",
        "label": "mapping(enum Booster => uint256)",
        "numberOfBytes": "32",
        "value": "t_uint256"
      },
      "t_mapping(t_uint256,t_address)": {
        "encoding": "mapping",
        "key": "t_uint256",
        "label": "mapping(uint256 => address)",
        "numberOfBytes": "32",
        "value": "t_address"
      },
      "t_mapping(t_uint256,t_struct(Gem)4494_storage)": {
        "encoding": "mapping",
        "key": "t_uint256",
        "label": "mapping(uint256 => struct Gem)",
        "numberOfBytes": "32",
        "value": "t_struct(Gem)4494_storage"
      },
      "t_mapping(t_uint256,t_uint256)": {
        "encoding": "mapping",
        "key": "t_uint256",
        "label": "mapping(uint256 => uint256)",
        "numberOfBytes": "32",
        "value": "t_uint256"
      },
      "t_mapping(t_uint8,t_mapping(t_enum(Booster)4456,t_uint256))": {
        "encoding": "mapping",
        "key": "t_uint8",
        "label": "mapping(uint8 => mapping(enum Booster => uint256))",
        "numberOfBytes": "32",
        "value": "t_mapping(t_enum(Booster)4456,t_uint256)"
      },
      "t_string_storage": {
        "encoding": "bytes",
        "label": "string",
        "numberOfBytes": "32"
      },
      "t_struct(AppStorage)4537_storage": {
        "encoding": "inplace",
        "label": "struct AppStorage",
        "members": [
          {
            "astId": 4497,
            "contract": "contracts/facets/YieldGemFacet.sol:YieldGemFacet",
            "label": "config",
            "offset": 0,
            "slot": "0",
            "type": "t_struct(ProtocolConfig)4416_storage"
          },
          {
            "astId": 4501,
            "contract": "contracts/facets/YieldGemFacet.sol:YieldGemFacet",
            "label": "gemTypes",
            "offset": 0,
            "slot": "28",
            "type": "t_array(t_struct(GemTypeConfig)4429_storage)dyn_storage"
          },
          {
            "astId": 4505,
            "contract": "contracts/facets/YieldGemFacet.sol:YieldGemFacet",
            "label": "gemTypesMintWindows",
            "offset": 0,
            "slot": "29",
            "type": "t_array(t_struct(GemTypeMintWindow)4434_storage)dyn_storage"
          },
          {
            "astId": 4508,
            "contract": "contracts/facets/YieldGemFacet.sol:YieldGemFacet",
            "label": "defoTokenLimitWindow",
            "offset": 0,
            "slot": "30",
            "type": "t_struct(DEFOTokenLimitWindow)4443_storage"
          },
          {
            "astId": 4513,
            "contract": "contracts/facets/YieldGemFacet.sol:YieldGemFacet",
            "label": "gems",
            "offset": 0,
            "slot": "32",
            "type": "t_mapping(t_uint256,t_struct(Gem)4494_storage)"
          },
          {
            "astId": 4516,
            "contract": "contracts/facets/YieldGemFacet.sol:YieldGemFacet",
            "label": "nft",
            "offset": 0,
            "slot": "33",
            "type": "t_struct(ERC721Storage)4351_storage"
          },
          {
            "astId": 4519,
            "contract": "contracts/facets/YieldGemFacet.sol:YieldGemFacet",
            "label": "total",
            "offset": 0,
            "slot": "46",
            "type": "t_struct(Fi)4477_storage"
          },
          {
            "astId": 4524,
            "contract": "contracts/facets/YieldGemFacet.sol:YieldGemFacet",
            "label": "usersFi",
            "offset": 0,
            "slot": "56",
            "type": "t_mapping(t_address,t_struct(Fi)4477_storage)"
          },
          {
            "astId": 4533,
            "contract": "contracts/facets/YieldGemFacet.sol:YieldGemFacet",
            "label": "usersNextGemBooster",
            "offset": 0,
            "slot": "57",
            "type": "t_mapping(t_address,t_mapping(t_uint8,t_mapping(t_enum(Booster)4456,t_uint256)))"
          },
          {
            "astId": 4536,
            "contract": "contracts/facets/YieldGemFacet.sol:YieldGemFacet",
            "label": "defoTokenLimitPerRewards",
            "offset": 0,
            "slot": "58",
            "type": "t_struct(DEFOTokenLimitPerRewards)4452_storage"
          }
        ],
        "numberOfBytes": "1920"
      },
      "t_struct(Counter)2737_storage": {
        "encoding": "inplace",
        "label": "struct Counters.Counter",
        "members": [
          {
            "astId": 2736,
            "contract": "contracts/facets/YieldGemFacet.sol:YieldGemFacet",
            "label": "_value",
            "offset": 0,
            "slot": "0",
            "type": "t_uint256"
          }
        ],
        "numberOfBytes": "32"
      },
      "t_struct(DEFOTokenLimitPerRewards)4452_storage": {
        "encoding": "inplace",
        "label": "struct DEFOTokenLimitPerRewards",
        "members": [
          {
            "astId": 4447,
            "contract": "contracts/facets/YieldGemFacet.sol:YieldGemFacet",
            "label": "tokensSold",
            "offset": 0,
            "slot": "0",
            "type": "t_mapping(t_address,t_uint256)"
          },
          {
            "astId": 4451,
            "contract": "contracts/facets/YieldGemFacet.sol:YieldGemFacet",
            "label": "timeOfWindowStart",
            "offset": 0,
            "slot": "1",
            "type": "t_mapping(t_address,t_uint256)"
          }
        ],
        "numberOfBytes": "64"
      },
      "t_struct(DEFOTokenLimitWindow)4443_storage": {
        "encoding": "inplace",
        "label": "struct DEFOTokenLimitWindow",
        "members": [
          {
            "astId": 4438,
            "contract": "contracts/facets/YieldGemFacet.sol:YieldGemFacet",
            "label": "tokensSold",
            "offset": 0,
            "slot": "0",
            "type": "t_mapping(t_address,t_uint256)"
          },
          {
            "astId": 4442,
            "contract": "contracts/facets/YieldGemFacet.sol:YieldGemFacet",
            "label": "timeOfLastSale",
            "offset": 0,
            "slot": "1",
            "type": "t_mapping(t_address,t_uint256)"
          }
        ],
        "numberOfBytes": "64"
      },
      "t_struct(DefoTokenLimitConfig)4375_storage": {
        "encoding": "inplace",
        "label": "struct DefoTokenLimitConfig",
        "members": [
          {
            "astId": 4370,
            "contract": "contracts/facets/YieldGemFacet.sol:YieldGemFacet",
            "label": "saleLimitPeriod",
            "offset": 0,
            "slot": "0",
            "type": "t_uint256"
          },
          {
            "astId": 4372,
            "contract": "contracts/facets/YieldGemFacet.sol:YieldGemFacet",
            "label": "saleLimitAmount",
            "offset": 0,
            "slot": "1",
            "type": "t_uint256"
          },
          {
            "astId": 4374,
            "contract": "contracts/facets/YieldGemFacet.sol:YieldGemFacet",
            "label": "limitByReward",
            "offset": 0,
            "slot": "2",
            "type": "t_bool"
          }
        ],
        "numberOfBytes": "96"
      },
      "t_struct(ERC721Storage)4351_storage": {
        "encoding": "inplace",
        "label": "struct ERC721Storage",
        "members": [
          {
            "astId": 4306,
            "contract": "contracts/facets/YieldGemFacet.sol:YieldGemFacet",
            "label": "name",
            "offset": 0,
            "slot": "0",
            "type": "t_string_storage"
          },
          {
            "astId": 4308,
            "contract": "contracts/facets/YieldGemFacet.sol:YieldGemFacet",
            "label": "symbol",
            "offset": 0,
            "slot": "1",
            "type": "t_string_storage"
          },
          {
            "astId": 4311,
            "contract": "contracts/facets/YieldGemFacet.sol:YieldGemFacet",
            "label": "tokenIdTracker",
            "offset": 0,
            "slot": "2",
            "type": "t_struct(Counter)2737_storage"
          },
          {
            "astId": 4315,
            "contract": "contracts/facets/YieldGemFacet.sol:YieldGemFacet",
            "label": "owners",
            "offset": 0,
            "slot": "3",
            "type": "t_mapping(t_uint256,t_address)"
          },
          {
            "astId": 4319,
            "contract": "contracts/facets/YieldGemFacet.sol:YieldGemFacet",
            "label": "balances",
            "offset": 0,
            "slot": "4",
            "type": "t_mapping(t_address,t_uint256)"
          },
          {
            "astId": 4323,
            "contract": "contracts/facets/YieldGemFacet.sol:YieldGemFacet",
            "label": "tokenApprovals",
            "offset": 0,
            "slot": "5",
            "type": "t_mapping(t_uint256,t_address)"
          },
          {
            "astId": 4329,
            "contract": "contracts/facets/YieldGemFacet.sol:YieldGemFacet",
            "label": "operatorApprovals",
            "offset": 0,
            "slot": "6",
            "type": "t_mapping(t_address,t_mapping(t_address,t_bool))"
          },
          {
            "astId": 4331,
            "contract": "contracts/facets/YieldGemFacet.sol:YieldGemFacet",
            "label": "baseURI",
            "offset": 0,
            "slot": "7",
            "type": "t_string_storage"
          },
          {
            "astId": 4337,
            "contract": "contracts/facets/YieldGemFacet.sol:YieldGemFacet",
            "label": "ownedTokens",
            "offset": 0,
            "slot": "8",
            "type": "t_mapping(t_address,t_mapping(t_uint256,t_uint256))"
          },
          {
            "astId": 4341,
            "contract": "contracts/facets/YieldGemFacet.sol:YieldGemFacet",
            "label": "ownedTokensIndex",
            "offset": 0,
            "slot": "9",
            "type": "t_mapping(t_uint256,t_uint256)"
          },
          {
            "astId": 4344,
            "contract": "contracts/facets/YieldGemFacet.sol:YieldGemFacet",
            "label": "allTokens",
            "offset": 0,
            "slot": "10",
            "type": "t_array(t_uint256)dyn_storage"
          },
          {
            "astId": 4348,
            "contract": "contracts/facets/YieldGemFacet.sol:YieldGemFacet",
            "label": "allTokensIndex",
            "offset": 0,
            "slot": "11",
            "type": "t_mapping(t_uint256,t_uint256)"
          },
          {
            "astId": 4350,
            "contract": "contracts/facets/YieldGemFacet.sol:YieldGemFacet",
            "label": "init",
            "offset": 0,
            "slot": "12",
            "type": "t_bool"
          }
        ],
        "numberOfBytes": "416"
      },
      "t_struct(Fi)4477_storage": {
        "encoding": "inplace",
        "label": "struct Fi",
        "members": [
          {
            "astId": 4458,
            "contract": "contracts/facets/YieldGemFacet.sol:YieldGemFacet",
            "label": "claimedGross",
            "offset": 0,
            "slot": "0",
            "type": "t_uint256"
          },
          {
            "astId": 4460,
            "contract": "contracts/facets/YieldGemFacet.sol:YieldGemFacet",
            "label": "claimedNet",
            "offset": 0,
            "slot": "1",
            "type": "t_uint256"
          },
          {
            "astId": 4462,
            "contract": "contracts/facets/YieldGemFacet.sol:YieldGemFacet",
            "label": "stakedGross",
            "offset": 0,
            "slot": "2",
            "type": "t_uint256"
          },
          {
            "astId": 4464,
            "contract": "contracts/facets/YieldGemFacet.sol:YieldGemFacet",
            "label": "stakedNet",
            "offset": 0,
            "slot": "3",
            "type": "t_uint256"
          },
          {
            "astId": 4466,
            "contract": "contracts/facets/YieldGemFacet.sol:YieldGemFacet",
            "label": "unStakedGross",
            "offset": 0,
            "slot": "4",
            "type": "t_uint256"
          },
          {
            "astId": 4468,
            "contract": "contracts/facets/YieldGemFacet.sol:YieldGemFacet",
            "label": "unStakedGrossUp",
            "offset": 0,
            "slot": "5",
            "type": "t_uint256"
          },
          {
            "astId": 4470,
            "contract": "contracts/facets/YieldGemFacet.sol:YieldGemFacet",
            "label": "unStakedNet",
            "offset": 0,
            "slot": "6",
            "type": "t_uint256"
          },
          {
            "astId": 4472,
            "contract": "contracts/facets/YieldGemFacet.sol:YieldGemFacet",
            "label": "donated",
            "offset": 0,
            "slot": "7",
            "type": "t_uint256"
          },
          {
            "astId": 4474,
            "contract": "contracts/facets/YieldGemFacet.sol:YieldGemFacet",
            "label": "claimTaxPaid",
            "offset": 0,
            "slot": "8",
            "type": "t_uint256"
          },
          {
            "astId": 4476,
            "contract": "contracts/facets/YieldGemFacet.sol:YieldGemFacet",
            "label": "vaultTaxPaid",
            "offset": 0,
            "slot": "9",
            "type": "t_uint256"
          }
        ],
        "numberOfBytes": "320"
      },
      "t_struct(Gem)4494_storage": {
        "encoding": "inplace",
        "label": "struct Gem",
        "members": [
          {
            "astId": 4479,
            "contract": "contracts/facets/YieldGemFacet.sol:YieldGemFacet",
            "label": "gemTypeId",
            "offset": 0,
            "slot": "0",
            "type": "t_uint8"
          },
          {
            "astId": 4482,
            "contract": "contracts/facets/YieldGemFacet.sol:YieldGemFacet",
            "label": "booster",
            "offset": 1,
            "slot": "0",
            "type": "t_enum(Booster)4456"
          },
          {
            "astId": 4484,
            "contract": "contracts/facets/YieldGemFacet.sol:YieldGemFacet",
            "label": "mintTime",
            "offset": 2,
            "slot": "0",
            "type": "t_uint32"
          },
          {
            "astId": 4486,
            "contract": "contracts/facets/YieldGemFacet.sol:YieldGemFacet",
            "label": "lastRewardWithdrawalTime",
            "offset": 6,
            "slot": "0",
            "type": "t_uint32"
          },
          {
            "astId": 4488,
            "contract": "contracts/facets/YieldGemFacet.sol:YieldGemFacet",
            "label": "lastMaintenanceTime",
            "offset": 10,
            "slot": "0",
            "type": "t_uint32"
          },
          {
            "astId": 4491,
            "contract": "contracts/facets/YieldGemFacet.sol:YieldGemFacet",
            "label": "fi",
            "offset": 0,
            "slot": "1",
            "type": "t_struct(Fi)4477_storage"
          },
          {
            "astId": 4493,
            "contract": "contracts/facets/YieldGemFacet.sol:YieldGemFacet",
            "label": "presold",
            "offset": 0,
            "slot": "11",
            "type": "t_bool"
          }
        ],
        "numberOfBytes": "384"
      },
      "t_struct(GemTypeConfig)4429_storage": {
        "encoding": "inplace",
        "label": "struct GemTypeConfig",
        "members": [
          {
            "astId": 4418,
            "contract": "contracts/facets/YieldGemFacet.sol:YieldGemFacet",
            "label": "maintenanceFeeDai",
            "offset": 0,
            "slot": "0",
            "type": "t_uint256"
          },
          {
            "astId": 4420,
            "contract": "contracts/facets/YieldGemFacet.sol:YieldGemFacet",
            "label": "rewardAmountDefo",
            "offset": 0,
            "slot": "1",
            "type": "t_uint256"
          },
          {
            "astId": 4424,
            "contract": "contracts/facets/YieldGemFacet.sol:YieldGemFacet",
            "label": "price",
            "offset": 0,
            "slot": "2",
            "type": "t_array(t_uint256)2_storage"
          },
          {
            "astId": 4426,
            "contract": "contracts/facets/YieldGemFacet.sol:YieldGemFacet",
            "label": "taperRewardsThresholdDefo",
            "offset": 0,
            "slot": "4",
            "type": "t_uint256"
          },
          {
            "astId": 4428,
            "contract": "contracts/facets/YieldGemFacet.sol:YieldGemFacet",
            "label": "maxMintsPerLimitWindow",
            "offset": 0,
            "slot": "5",
            "type": "t_uint8"
          }
        ],
        "numberOfBytes": "192"
      },
      "t_struct(GemTypeMintWindow)4434_storage": {
        "encoding": "inplace",
        "label": "struct GemTypeMintWindow",
        "members": [
          {
            "astId": 4431,
            "contract": "contracts/facets/YieldGemFacet.sol:YieldGemFacet",
            "label": "mintCount",
            "offset": 0,
            "slot": "0",
            "type": "t_uint256"
          },
          {
            "astId": 4433,
            "contract": "contracts/facets/YieldGemFacet.sol:YieldGemFacet",
            "label": "endOfMintLimitWindow",
            "offset": 0,
            "slot": "1",
            "type": "t_uint32"
          }
        ],
        "numberOfBytes": "64"
      },
      "t_struct(ProtocolConfig)4416_storage": {
        "encoding": "inplace",
        "label": "struct ProtocolConfig",
        "members": [
          {
            "astId": 4380,
            "contract": "contracts/facets/YieldGemFacet.sol:YieldGemFacet",
            "label": "paymentTokens",
            "offset": 0,
            "slot": "0",
            "type": "t_array(t_contract(IERC20)737)2_storage"
          },
          {
            "astId": 4384,
            "contract": "contracts/facets/YieldGemFacet.sol:YieldGemFacet",
            "label": "wallets",
            "offset": 0,
            "slot": "2",
            "type": "t_array(t_address)7_storage"
          },
          {
            "astId": 4390,
            "contract": "contracts/facets/YieldGemFacet.sol:YieldGemFacet",
            "label": "incomeDistributionOnMint",
            "offset": 0,
            "slot": "9",
            "type": "t_array(t_array(t_uint256)3_storage)2_storage"
          },
          {
            "astId": 4392,
            "contract": "contracts/facets/YieldGemFacet.sol:YieldGemFacet",
            "label": "maintenancePeriod",
            "offset": 0,
            "slot": "15",
            "type": "t_uint32"
          },
          {
            "astId": 4394,
            "contract": "contracts/facets/YieldGemFacet.sol:YieldGemFacet",
            "label": "rewardPeriod",
            "offset": 4,
            "slot": "15",
            "type": "t_uint32"
          },
          {
            "astId": 4396,
            "contract": "contracts/facets/YieldGemFacet.sol:YieldGemFacet",
            "label": "taxScaleSinceLastClaimPeriod",
            "offset": 8,
            "slot": "15",
            "type": "t_uint32"
          },
          {
            "astId": 4400,
            "contract": "contracts/facets/YieldGemFacet.sol:YieldGemFacet",
            "label": "taxRates",
            "offset": 0,
            "slot": "16",
            "type": "t_array(t_uint256)5_storage"
          },
          {
            "astId": 4402,
            "contract": "contracts/facets/YieldGemFacet.sol:YieldGemFacet",
            "label": "charityContributionRate",
            "offset": 0,
            "slot": "21",
            "type": "t_uint256"
          },
          {
            "astId": 4404,
            "contract": "contracts/facets/YieldGemFacet.sol:YieldGemFacet",
            "label": "vaultWithdrawalTaxRate",
            "offset": 0,
            "slot": "22",
            "type": "t_uint256"
          },
          {
            "astId": 4406,
            "contract": "contracts/facets/YieldGemFacet.sol:YieldGemFacet",
            "label": "taperRate",
            "offset": 0,
            "slot": "23",
            "type": "t_uint256"
          },
          {
            "astId": 4408,
            "contract": "contracts/facets/YieldGemFacet.sol:YieldGemFacet",
            "label": "mintLock",
            "offset": 0,
            "slot": "24",
            "type": "t_bool"
          },
          {
            "astId": 4410,
            "contract": "contracts/facets/YieldGemFacet.sol:YieldGemFacet",
            "label": "transferLock",
            "offset": 1,
            "slot": "24",
            "type": "t_bool"
          },
          {
            "astId": 4412,
            "contract": "contracts/facets/YieldGemFacet.sol:YieldGemFacet",
            "label": "mintLimitWindow",
            "offset": 2,
            "slot": "24",
            "type": "t_uint32"
          },
          {
            "astId": 4415,
            "contract": "contracts/facets/YieldGemFacet.sol:YieldGemFacet",
            "label": "defoTokenLimitConfig",
            "offset": 0,
            "slot": "25",
            "type": "t_struct(DefoTokenLimitConfig)4375_storage"
          }
        ],
        "numberOfBytes": "896"
      },
      "t_uint256": {
        "encoding": "inplace",
        "label": "uint256",
        "numberOfBytes": "32"
      },
      "t_uint32": {
        "encoding": "inplace",
        "label": "uint32",
        "numberOfBytes": "4"
      },
      "t_uint8": {
        "encoding": "inplace",
        "label": "uint8",
        "numberOfBytes": "1"
      }
    }
  }
}